{"abi":[{"type":"constructor","inputs":[],"stateMutability":"nonpayable"},{"type":"function","name":"DEFAULT_ADMIN_ROLE","inputs":[],"outputs":[{"name":"","type":"bytes32","internalType":"bytes32"}],"stateMutability":"view"},{"type":"function","name":"TOKEN_REGISTER_ROLE","inputs":[],"outputs":[{"name":"","type":"bytes32","internalType":"bytes32"}],"stateMutability":"view"},{"type":"function","name":"addApprovedToken","inputs":[{"name":"_tokenContract","type":"address","internalType":"address"}],"outputs":[],"stateMutability":"nonpayable"},{"type":"function","name":"getRoleAdmin","inputs":[{"name":"role","type":"bytes32","internalType":"bytes32"}],"outputs":[{"name":"","type":"bytes32","internalType":"bytes32"}],"stateMutability":"view"},{"type":"function","name":"grantRole","inputs":[{"name":"role","type":"bytes32","internalType":"bytes32"},{"name":"account","type":"address","internalType":"address"}],"outputs":[],"stateMutability":"nonpayable"},{"type":"function","name":"hasRole","inputs":[{"name":"role","type":"bytes32","internalType":"bytes32"},{"name":"account","type":"address","internalType":"address"}],"outputs":[{"name":"","type":"bool","internalType":"bool"}],"stateMutability":"view"},{"type":"function","name":"isApprovedToken","inputs":[{"name":"_tokenContract","type":"address","internalType":"address"}],"outputs":[{"name":"","type":"bool","internalType":"bool"}],"stateMutability":"view"},{"type":"function","name":"removeApprovedToken","inputs":[{"name":"_tokenContract","type":"address","internalType":"address"}],"outputs":[],"stateMutability":"nonpayable"},{"type":"function","name":"renounceRole","inputs":[{"name":"role","type":"bytes32","internalType":"bytes32"},{"name":"account","type":"address","internalType":"address"}],"outputs":[],"stateMutability":"nonpayable"},{"type":"function","name":"revokeRole","inputs":[{"name":"role","type":"bytes32","internalType":"bytes32"},{"name":"account","type":"address","internalType":"address"}],"outputs":[],"stateMutability":"nonpayable"},{"type":"function","name":"setAllTokensApproved","inputs":[{"name":"_allTokensApproved","type":"bool","internalType":"bool"}],"outputs":[],"stateMutability":"nonpayable"},{"type":"function","name":"supportsInterface","inputs":[{"name":"interfaceId","type":"bytes4","internalType":"bytes4"}],"outputs":[{"name":"","type":"bool","internalType":"bool"}],"stateMutability":"view"},{"type":"event","name":"RoleAdminChanged","inputs":[{"name":"role","type":"bytes32","indexed":true,"internalType":"bytes32"},{"name":"previousAdminRole","type":"bytes32","indexed":true,"internalType":"bytes32"},{"name":"newAdminRole","type":"bytes32","indexed":true,"internalType":"bytes32"}],"anonymous":false},{"type":"event","name":"RoleGranted","inputs":[{"name":"role","type":"bytes32","indexed":true,"internalType":"bytes32"},{"name":"account","type":"address","indexed":true,"internalType":"address"},{"name":"sender","type":"address","indexed":true,"internalType":"address"}],"anonymous":false},{"type":"event","name":"RoleRevoked","inputs":[{"name":"role","type":"bytes32","indexed":true,"internalType":"bytes32"},{"name":"account","type":"address","indexed":true,"internalType":"address"},{"name":"sender","type":"address","indexed":true,"internalType":"address"}],"anonymous":false},{"type":"event","name":"TokenContractApproved","inputs":[{"name":"_tokenContract","type":"address","indexed":false,"internalType":"address"},{"name":"_approved","type":"bool","indexed":false,"internalType":"bool"}],"anonymous":false}],"bytecode":{"object":"0x60806040818152346100e3576000808052602091818352808220338352835260ff8183205416156100ad575b7f3ad8ed3e368783ee4585bc47a56e79dca48fef21d48900016e8700a420ec14aa92838352828152818320338452815260ff828420541615610074575b610b8585816100e98239f35b83835282815281832090338452528120600160ff198254161790553391600080516020610c6e833981519152339280a438808080610068565b8180528183528082203383528352808220600160ff19825416179055333383600080516020610c6e8339815191528180a461002b565b600080fdfe608060408181526004908136101561001657600080fd5b600092833560e01c90816301ffc9a7146104bc575080630e063fcb14610493578063248a9ca3146104695780632d5ad3d5146104135780632f2ff15d1461036a57806332a801a21461030d57806336568abe1461027b5780635705987a146101e457806391d148541461019e578063a217fddf14610183578063cd10534b146100e75763d547741f146100a857600080fd5b346100e357806003193601126100e3576100e091356100db60016100ca61052b565b938387528660205286200154610541565b61088c565b80f35b8280fd5b83823461017f57602036600319011261017f577f76155f7a43ecf42488af976246d070fd4994de62773a83b0ed16175f49f4b02f906001600160a01b0361012c610510565b16610138811515610927565b600080516020610b3083398151915284528360205281842033855260205261016560ff8386205416610965565b61016e816109d7565b50815190815260016020820152a180f35b5080fd5b83823461017f578160031936011261017f5751908152602090f35b5090346100e357816003193601126100e3578160209360ff926101bf61052b565b903582528186528282206001600160a01b039091168252855220549151911615158152f35b83823461017f57602036600319011261017f577f76155f7a43ecf42488af976246d070fd4994de62773a83b0ed16175f49f4b02f906001600160a01b03610229610510565b16610235811515610927565b600080516020610b3083398151915284528360205281842033855260205261026260ff8386205416610965565b61026b81610a59565b508151908152836020820152a180f35b5091903461017f578260031936011261017f5761029661052b565b90336001600160a01b038316036102b257906100e0913561088c565b608490602085519162461bcd60e51b8352820152602f60248201527f416363657373436f6e74726f6c3a2063616e206f6e6c792072656e6f756e636560448201526e103937b632b9903337b91039b2b63360891b6064820152fd5b5090346100e35760203660031901126100e35735908115158092036100e35760ff61035991600080516020610b3083398151915285528460205280852033865260205284205416610965565b60ff80196003541691161760035580f35b5090346100e357816003193601126100e357359061038661052b565b908284528360205261039d60018286200154610541565b82845260208481528185206001600160a01b039093168086529290528084205460ff16156103c9578380f35b828452836020528084208285526020528320600160ff1982541617905533917f2f8788117e7eff1d82e926ec794901d17c78024a50270940304540a733656f0d8480a43880808380f35b83823461017f57602036600319011261017f5790602091610432610510565b9160ff6003541692831561044b575b5050519015158152f35b6001600160a01b031681526002845281902054151591508380610441565b5090346100e35760203660031901126100e357816020936001923581528085522001549051908152f35b83823461017f578160031936011261017f5760209051600080516020610b308339815191528152f35b849084346100e35760203660031901126100e3573563ffffffff60e01b81168091036100e35760209250637965db0b60e01b81149081156104ff575b5015158152f35b6301ffc9a760e01b149050836104f8565b600435906001600160a01b038216820361052657565b600080fd5b602435906001600160a01b038216820361052657565b6000818152602091818352604092838320338452815260ff8484205416156105695750505050565b835167ffffffffffffffff939092336060850186811186821017610855578752602a85528385019187368437855115610841576030835385519160019283101561082d576078602188015360295b8381116107c357506106ed5787519060808201828110898211176107af5789526042825285820192606036853782511561079b5760308453825181101561079b57607860218401536041905b80821161072f5750506106ed5791610682949391889360679899519687936106588886019a7f416363657373436f6e74726f6c3a206163636f756e74200000000000000000008c525180926037880190610869565b8401917001034b99036b4b9b9b4b733903937b6329607d1b60378401525180936048840190610869565b0103602881018552601f199687910116840196848810908811176106d95750926106d060449593601f938880975262461bcd60e51b8752600487015251809281602488015287870190610869565b01168101030190fd5b634e487b7160e01b81526041600452602490fd5b60648589519062461bcd60e51b825280600483015260248201527f537472696e67733a20686578206c656e67746820696e73756666696369656e746044820152fd5b9091600f81166010811015610787576f181899199a1a9b1b9c1cb0b131b232b360811b901a61075e8486610900565b5360041c918015610773576000190190610603565b634e487b7160e01b87526011600452602487fd5b634e487b7160e01b88526032600452602488fd5b634e487b7160e01b86526032600452602486fd5b634e487b7160e01b86526041600452602486fd5b90600f81166010811015610819576f181899199a1a9b1b9c1cb0b131b232b360811b901a6107f1838a610900565b5360041c90801561080557600019016105b7565b634e487b7160e01b86526011600452602486fd5b634e487b7160e01b87526032600452602487fd5b634e487b7160e01b85526032600452602485fd5b634e487b7160e01b84526032600452602484fd5b634e487b7160e01b84526041600452602484fd5b60005b83811061087c5750506000910152565b818101518382015260200161086c565b9060009180835282602052604083209160018060a01b03169182845260205260ff6040842054166108bc57505050565b80835282602052604083208284526020526040832060ff1981541690557ff6391f5c32d9c69d2a47ea670b442974b53935d1edc7fd64eb21e047a839171b339380a4565b908151811015610911570160200190565b634e487b7160e01b600052603260045260246000fd5b1561092e57565b60405162461bcd60e51b815260206004820152600f60248201526e496e76616c6964204164647265737360881b6044820152606490fd5b1561096c57565b60405162461bcd60e51b815260206004820152600c60248201526b155b985d5d1a1bdc9a5e995960a21b6044820152606490fd5b6001548110156109115760016000527fb10e2d527612073b26eecdfd717e6a320cf44b4afac2b0732d9fcbe2b7fa0cf60190600090565b600081815260026020526040812054610a545760015468010000000000000000811015610a40579082610a2c610a15846001604096016001556109a0565b819391549060031b91821b91600019901b19161790565b905560015492815260026020522055600190565b634e487b7160e01b82526041600452602482fd5b905090565b6000818152600260205260408120549091908015610b2a5760001990808201818111610b16576001549083820191821161080557808203610ae2575b5050506001548015610ace57810190610aad826109a0565b909182549160031b1b19169055600155815260026020526040812055600190565b634e487b7160e01b84526031600452602484fd5b610b00610af1610a15936109a0565b90549060031b1c9283926109a0565b9055845260026020526040842055388080610a95565b634e487b7160e01b85526011600452602485fd5b50509056fe3ad8ed3e368783ee4585bc47a56e79dca48fef21d48900016e8700a420ec14aaa26469706673582212200d91f6c2e191de1012c7b14f7e655af076cfd0f25a6d261ae844a301c588ec3964736f6c634300081200332f8788117e7eff1d82e926ec794901d17c78024a50270940304540a733656f0d","linkReferences":{}},"methodIdentifiers":{"DEFAULT_ADMIN_ROLE()":"a217fddf","TOKEN_REGISTER_ROLE()":"0e063fcb","addApprovedToken(address)":"cd10534b","getRoleAdmin(bytes32)":"248a9ca3","grantRole(bytes32,address)":"2f2ff15d","hasRole(bytes32,address)":"91d14854","isApprovedToken(address)":"2d5ad3d5","removeApprovedToken(address)":"5705987a","renounceRole(bytes32,address)":"36568abe","revokeRole(bytes32,address)":"d547741f","setAllTokensApproved(bool)":"32a801a2","supportsInterface(bytes4)":"01ffc9a7"},"id":169}