{"abi":[{"type":"receive","stateMutability":"payable"},{"type":"function","name":"claim","inputs":[{"name":"amount","type":"uint256","internalType":"uint256"},{"name":"proof","type":"bytes32[]","internalType":"bytes32[]"}],"outputs":[],"stateMutability":"nonpayable"},{"type":"function","name":"claimRoot","inputs":[],"outputs":[{"name":"","type":"bytes32","internalType":"bytes32"}],"stateMutability":"view"},{"type":"function","name":"createNewClaim","inputs":[{"name":"newRoot","type":"bytes32","internalType":"bytes32"}],"outputs":[],"stateMutability":"nonpayable"},{"type":"function","name":"currentClaimId","inputs":[],"outputs":[{"name":"","type":"uint256","internalType":"uint256"}],"stateMutability":"view"},{"type":"function","name":"initialize","inputs":[{"name":"merkleRoot","type":"bytes32","internalType":"bytes32"}],"outputs":[],"stateMutability":"nonpayable"},{"type":"function","name":"owner","inputs":[],"outputs":[{"name":"","type":"address","internalType":"address"}],"stateMutability":"view"},{"type":"function","name":"pause","inputs":[],"outputs":[],"stateMutability":"nonpayable"},{"type":"function","name":"paused","inputs":[],"outputs":[{"name":"","type":"bool","internalType":"bool"}],"stateMutability":"view"},{"type":"function","name":"renounceOwnership","inputs":[],"outputs":[],"stateMutability":"nonpayable"},{"type":"function","name":"rewardClaimedForClaim","inputs":[{"name":"","type":"address","internalType":"address"},{"name":"","type":"uint256","internalType":"uint256"}],"outputs":[{"name":"","type":"bool","internalType":"bool"}],"stateMutability":"view"},{"type":"function","name":"setClaimMappingToFalse","inputs":[{"name":"addrs","type":"address[]","internalType":"address[]"},{"name":"claimId","type":"uint256","internalType":"uint256"}],"outputs":[],"stateMutability":"nonpayable"},{"type":"function","name":"transferOwnership","inputs":[{"name":"newOwner","type":"address","internalType":"address"}],"outputs":[],"stateMutability":"nonpayable"},{"type":"function","name":"unpause","inputs":[],"outputs":[],"stateMutability":"nonpayable"},{"type":"function","name":"updateMerkleRoot","inputs":[{"name":"newRoot","type":"bytes32","internalType":"bytes32"}],"outputs":[],"stateMutability":"nonpayable"},{"type":"function","name":"verifyEntitled","inputs":[{"name":"recipient","type":"address","internalType":"address"},{"name":"value","type":"uint256","internalType":"uint256"},{"name":"proof","type":"bytes32[]","internalType":"bytes32[]"}],"outputs":[{"name":"","type":"bool","internalType":"bool"}],"stateMutability":"view"},{"type":"event","name":"Initialized","inputs":[{"name":"version","type":"uint8","indexed":false,"internalType":"uint8"}],"anonymous":false},{"type":"event","name":"NewClaim","inputs":[{"name":"claimId","type":"uint256","indexed":true,"internalType":"uint256"},{"name":"root","type":"bytes32","indexed":true,"internalType":"bytes32"}],"anonymous":false},{"type":"event","name":"OwnershipTransferred","inputs":[{"name":"previousOwner","type":"address","indexed":true,"internalType":"address"},{"name":"newOwner","type":"address","indexed":true,"internalType":"address"}],"anonymous":false},{"type":"event","name":"RoyaltyClaimed","inputs":[{"name":"root","type":"bytes32","indexed":true,"internalType":"bytes32"},{"name":"addr","type":"address","indexed":true,"internalType":"address"},{"name":"claimId","type":"uint256","indexed":true,"internalType":"uint256"},{"name":"amt","type":"uint256","indexed":false,"internalType":"uint256"}],"anonymous":false}],"bytecode":{"object":"0x6080806040523461001657610b77908161001c8239f35b600080fdfe60806040818152600480361015610021575b505050361561001f57600080fd5b005b600092833560e01c90816314ea35e71461084a575080632f52ebb7146106485780633f4ba83a146106225780634783f0ef146106005780635c975abb146105dc57806365d1f30b1461056257806367d9b44c14610473578063715018a61461041657806372806c5a146103f75780638456cb59146103ce5780638da5cb5b146103a55780639498bd7114610217578063aad1a008146101cc578063c3709caf146101635763f2fde38b03610011573461015f57602036600319011261015f576100e86108d2565b916100f161093b565b6001600160a01b0383161561010d578361010a84610993565b80f35b906020608492519162461bcd60e51b8352820152602660248201527f4f776e61626c653a206e6577206f776e657220697320746865207a65726f206160448201526564647265737360d01b6064820152fd5b8280fd5b503461015f57606036600319011261015f5761017d6108d2565b926044359067ffffffffffffffff82116101c957366023830112156101c95750926101b66101c0928560246020973693013591016108ed565b9060243590610a3c565b90519015158152f35b80fd5b50503461021357806003193601126102135760209160ff9082906001600160a01b036101f66108d2565b168152606685528181206024358252855220541690519015158152f35b5080fd5b503461015f57602036600319011261015f57803583549060ff8260081c161592838094610398575b8015610381575b156103275760ff1983811660011787559284610316575b5081156102d3575061027e60ff865460081c16610279816109dc565b6109dc565b61028733610993565b606555836067556068541660685561029d575080f35b60207f7f26b83ff96e1f2b6a682f133852f6798a09c465da95921460cefb38474024989161ff001984541684555160018152a180f35b606490602086519162461bcd60e51b8352820152601960248201527f4d65726b6c65526f6f742063616e7420626520656d7074792e000000000000006044820152fd5b61ffff19166101011786553861025d565b608490602086519162461bcd60e51b8352820152602e60248201527f496e697469616c697a61626c653a20636f6e747261637420697320616c72656160448201526d191e481a5b9a5d1a585b1a5e995960921b6064820152fd5b50303b1580156102465750600160ff841614610246565b50600160ff84161061023f565b50503461021357816003193601126102135760335490516001600160a01b039091168152602090f35b83346101c957806003193601126101c9576103e761093b565b600160ff19606854161760685580f35b5050346102135781600319360112610213576020906067549051908152f35b83346101c957806003193601126101c95761042f61093b565b603380546001600160a01b0319811690915581906001600160a01b03167f8be0079c531659141344cd1fd0a4f28419497f9722a3daafe3b4186f6b6457e08280a380f35b5091903461021357806003193601126102135782359267ffffffffffffffff841161015f573660238501121561015f57830135916104b0836108ba565b936104bd83519586610898565b83855260209360248587019160051b8301019136831161055e57602401905b82821061053b575050506024356104f161093b565b815b855181101561053757610532906001600160a01b036105128289610b17565b51168452606686528484208385528652848420805460ff19169055610af2565b6104f3565b8280f35b81356001600160a01b038116810361055a5781529085019085016104dc565b8480fd5b8380fd5b8382346102135760203660031901126102135780359061058061093b565b60675490600182018092116105c95750806067558160655560ff19606854166068557f567738e2bb1cd8ded1f4f85ada2d94f3ccd4956306e4347c0710f99a011415318380a380f35b634e487b7160e01b845260119052602483fd5b50503461021357816003193601126102135760209060ff6068541690519015158152f35b8382346102135760203660031901126102135761061b61093b565b3560655580f35b83346101c957806003193601126101c95761063b61093b565b60ff196068541660685580f35b503461015f578160031936011261015f578035906024803567ffffffffffffffff808211610846573660238301121561084657818401359081116108465736838260051b840101116108465760ff606854166107f7576106b6916106af91843692016108ed565b8433610a3c565b156107b657338552602091606683528486209160675492838852845260ff868820541661075c575050338552606682528385209085528152828420805460ff191660011790558380838015610752575b8280929181923390f115610746577ef26f7fcd9e9238aed6e2f9ee35e05d5f84b0d8659e2235a2a61377c94170026065549160675494519384523393a480f35b505051903d90823e3d90fd5b6108fc9150610706565b855162461bcd60e51b8152918201849052602f908201527f596f75206861766520616c72656164792077697468647261776e20796f75722060448201526e32b73a34ba3632b2103a37b5b2b71760891b6064820152608490fd5b9060206064928186519362461bcd60e51b85528401528201527f5468652070726f6f6620636f756c64206e6f742062652076657269666965642e6044820152fd5b855162461bcd60e51b81526020818601528084018490527f43616e6e6f742063616c6c207768656e20636f6e74726163742069732070617560448201526339b2b21760e11b6064820152608490fd5b8680fd5b8490346102135781600319360112610213576020906065548152f35b6060810190811067ffffffffffffffff82111761088257604052565b634e487b7160e01b600052604160045260246000fd5b90601f8019910116810190811067ffffffffffffffff82111761088257604052565b67ffffffffffffffff81116108825760051b60200190565b600435906001600160a01b03821682036108e857565b600080fd5b92916108f8826108ba565b916109066040519384610898565b829481845260208094019160051b81019283116108e857905b82821061092c5750505050565b8135815290830190830161091f565b6033546001600160a01b0316330361094f57565b606460405162461bcd60e51b815260206004820152602060248201527f4f776e61626c653a2063616c6c6572206973206e6f7420746865206f776e65726044820152fd5b603380546001600160a01b039283166001600160a01b0319821681179092559091167f8be0079c531659141344cd1fd0a4f28419497f9722a3daafe3b4186f6b6457e0600080a3565b156109e357565b60405162461bcd60e51b815260206004820152602b60248201527f496e697469616c697a61626c653a20636f6e7472616374206973206e6f74206960448201526a6e697469616c697a696e6760a81b6064820152608490fd5b909291926040918251602092838201926bffffffffffffffffffffffff199060601b168352603482015260348152610a7381610866565b51902091600080935b8651851015610ae657610abe90610a938689610b17565b51808211610ac45784519086820192835285820152848152610ab481610866565b5190205b94610af2565b93610a7c565b9084519086820192835285820152848152610ade81610866565b519020610ab8565b60655414955050505050565b6000198114610b015760010190565b634e487b7160e01b600052601160045260246000fd5b8051821015610b2b5760209160051b010190565b634e487b7160e01b600052603260045260246000fdfea2646970667358221220d09a6148d62118acfd123f6a1678acce0a0f5d6f18ca9e7702e2493691123c8564736f6c63430008120033","linkReferences":{}},"methodIdentifiers":{"claim(uint256,bytes32[])":"2f52ebb7","claimRoot()":"14ea35e7","createNewClaim(bytes32)":"65d1f30b","currentClaimId()":"72806c5a","initialize(bytes32)":"9498bd71","owner()":"8da5cb5b","pause()":"8456cb59","paused()":"5c975abb","renounceOwnership()":"715018a6","rewardClaimedForClaim(address,uint256)":"aad1a008","setClaimMappingToFalse(address[],uint256)":"67d9b44c","transferOwnership(address)":"f2fde38b","unpause()":"3f4ba83a","updateMerkleRoot(bytes32)":"4783f0ef","verifyEntitled(address,uint256,bytes32[])":"c3709caf"},"id":177}