{"abi":[{"type":"constructor","inputs":[{"name":"iERC721CreatorImplementations","type":"address[]","internalType":"address[]"}],"stateMutability":"nonpayable"},{"type":"function","name":"overrideCreator","inputs":[{"name":"oldCreatorAddress","type":"address","internalType":"address"},{"name":"newCreatorAddress","type":"address","internalType":"address"}],"outputs":[],"stateMutability":"nonpayable"},{"type":"function","name":"owner","inputs":[],"outputs":[{"name":"","type":"address","internalType":"address"}],"stateMutability":"view"},{"type":"function","name":"renounceOwnership","inputs":[],"outputs":[],"stateMutability":"nonpayable"},{"type":"function","name":"setIERC721Creator","inputs":[{"name":"contractAddress","type":"address","internalType":"address"}],"outputs":[],"stateMutability":"nonpayable"},{"type":"function","name":"tokenCreator","inputs":[{"name":"_contractAddress","type":"address","internalType":"address"},{"name":"_tokenId","type":"uint256","internalType":"uint256"}],"outputs":[{"name":"","type":"address","internalType":"address payable"}],"stateMutability":"view"},{"type":"function","name":"transferOwnership","inputs":[{"name":"newOwner","type":"address","internalType":"address"}],"outputs":[],"stateMutability":"nonpayable"},{"type":"event","name":"CreatorOverrideCreated","inputs":[{"name":"from","type":"address","indexed":true,"internalType":"address"},{"name":"to","type":"address","indexed":true,"internalType":"address"}],"anonymous":false},{"type":"event","name":"OwnershipTransferred","inputs":[{"name":"previousOwner","type":"address","indexed":true,"internalType":"address"},{"name":"newOwner","type":"address","indexed":true,"internalType":"address"}],"anonymous":false}],"bytecode":{"object":"0x604060808152346101ee57610a04908138038061001b81610209565b938439820160209081848203126101ee5783516001600160401b03948582116101ee570181601f820112156101ee5780519485116101f3578460051b908380610065818501610209565b8098815201928201019283116101ee578301905b8282106101cf57505060008054336001600160a01b03198216811783558551929593506001600160a01b03929183167f8be0079c531659141344cd1fd0a4f28419497f9722a3daafe3b4186f6b6457e08780a36103e88651101561015b5750835b855160ff82169081101561014d5780836100f581938a61022e565b5116610126575b505060ff809116908114610112576001016100da565b634e487b7160e01b85526011600452602485fd5b610130908861022e565b5116855260018085528386209060ff1982541617905581386100fc565b83516107ab90816102598239f35b62461bcd60e51b815260048101849052604360248201527f636f6e7374727563746f723a3a43616e6e6f74206d61726b206d6f726520746860448201527f616e2031303030206164647265737365732061732049455243373231437265616064820152623a37b960e91b608482015260a490fd5b81516001600160a01b03811681036101ee578152908301908301610079565b600080fd5b634e487b7160e01b600052604160045260246000fd5b6040519190601f01601f191682016001600160401b038111838210176101f357604052565b80518210156102425760209160051b010190565b634e487b7160e01b600052603260045260246000fdfe6080604052600436101561001257600080fd5b6000803560e01c9081633a85757c1461007a57508063715018a6146100755780638da5cb5b14610070578063b85ed7e41461006b578063e175500e146100665763f2fde38b1461006157600080fd5b61031d565b610206565b6101c9565b6101a0565b610145565b3461012c57602036600319011261012c576004356100978161012f565b61009f6103e4565b6001600160a01b031680156100cc57815260016020526100c960408220600160ff19825416179055565b80f35b60405162461bcd60e51b815260206004820152603260248201527f7365744945524337323143726561746f723a3a5f636f6e747261637441646472604482015271195cdcc818d85b9b9bdd081899481b9d5b1b60721b6064820152608490fd5b80fd5b6001600160a01b0381160361014057565b600080fd5b346101405760008060031936011261012c5761015f6103e4565b80546001600160a01b03198116825581906001600160a01b03167f8be0079c531659141344cd1fd0a4f28419497f9722a3daafe3b4186f6b6457e08280a380f35b34610140576000366003190112610140576000546040516001600160a01b039091168152602090f35b346101405760403660031901126101405760206101f46004356101eb8161012f565b602435906104b4565b6040516001600160a01b039091168152f35b34610140576040366003190112610140576004356102238161012f565b60243561022f8161012f565b6102376103e4565b6001600160a01b038281169182156102be576102786102979282169461025e86151561070f565b6001600160a01b0316600090815260026020526040902090565b80546001600160a01b0319166001600160a01b03909216919091179055565b7fa123a18d8b26c9fe4a71a5b853d75b966847961b0e219a0a06728c2074265735600080a3005b60405162461bcd60e51b815260206004820152603160248201527f6f7665727269646543726561746f723a3a6f6c6443726561746f7241646472656044820152701cdcc818d85b9b9bdd081899481b9d5b1b607a1b6064820152608490fd5b346101405760203660031901126101405760043561033a8161012f565b6103426103e4565b6001600160a01b03908116801561039057600080546001600160a01b03198116831782559092167f8be0079c531659141344cd1fd0a4f28419497f9722a3daafe3b4186f6b6457e08380a380f35b60405162461bcd60e51b815260206004820152602660248201527f4f776e61626c653a206e6577206f776e657220697320746865207a65726f206160448201526564647265737360d01b6064820152608490fd5b6000546001600160a01b031633036103f857565b606460405162461bcd60e51b815260206004820152602060248201527f4f776e61626c653a2063616c6c6572206973206e6f7420746865206f776e65726044820152fd5b6060810190811067ffffffffffffffff82111761045857604052565b634e487b7160e01b600052604160045260246000fd5b90601f8019910116810190811067ffffffffffffffff82111761045857604052565b9081602091031261014057516104a58161012f565b90565b6040513d6000823e3d90fd5b906000916104c1816105d7565b80156105b5575b610543575b50506001600160a01b038116156104a5576001600160a01b03811660009081526002602052604090206105189061050c905b546001600160a01b031690565b6001600160a01b031690565b61051f5790565b6001600160a01b031660009081526002602052604090206104a59061050c906104ff565b604051631030681960e21b81526004810192909252602090829060249082906001600160a01b03165afa9182156105b05791610582575b5038806104cd565b6105a3915060203d81116105a9575b61059b818361046e565b810190610490565b3861057a565b503d610591565b6104a8565b506001600160a01b03811660009081526001602052604090205460ff166104c8565b6040519060208083018160006301ffc9a760e01b95868452866024820152602481526106028161043c565b51617530938685fa933d60005190866106a7575b508561069d575b508461063a575b50505081610630575090565b6104a591506106b2565b83945090600091839460405185810192835263ffffffff60e01b6024820152602481526106668161043c565b5192fa60005190913d83610692575b505081610688575b501590388080610624565b905015153861067d565b101591503880610675565b151594503861061d565b841115955038610616565b6000602091604051838101906301ffc9a760e01b8252631030681960e21b6024820152602481526106e28161043c565b5191617530fa6000513d82610703575b50816106fc575090565b9050151590565b602011159150386106f2565b1561071657565b60405162461bcd60e51b815260206004820152603160248201527f6f7665727269646543726561746f723a3a6e657743726561746f7241646472656044820152701cdcc818d85b9b9bdd081899481b9d5b1b607a1b6064820152608490fdfea264697066735822122011752e5d19f084eb7f14113f46e21c1bd773f37b3a91187271dbfb53365e56b864736f6c63430008120033","linkReferences":{}},"methodIdentifiers":{"overrideCreator(address,address)":"e175500e","owner()":"8da5cb5b","renounceOwnership()":"715018a6","setIERC721Creator(address)":"3a85757c","tokenCreator(address,uint256)":"b85ed7e4","transferOwnership(address)":"f2fde38b"},"id":170}