{"abi":[{"type":"function","name":"approve","inputs":[{"name":"_spender","type":"address","internalType":"address"},{"name":"_id","type":"uint256","internalType":"uint256"}],"outputs":[],"stateMutability":"nonpayable"},{"type":"function","name":"balanceOf","inputs":[{"name":"owner","type":"address","internalType":"address"}],"outputs":[{"name":"","type":"uint256","internalType":"uint256"}],"stateMutability":"view"},{"type":"function","name":"batchAddAddressToRoyaltyList","inputs":[{"name":"_listType","type":"uint8","internalType":"enum IRoyaltyGuard.ListType"},{"name":"_addrs","type":"address[]","internalType":"address[]"}],"outputs":[],"stateMutability":"nonpayable"},{"type":"function","name":"batchRemoveAddressToRoyaltyList","inputs":[{"name":"_listType","type":"uint8","internalType":"enum IRoyaltyGuard.ListType"},{"name":"_addrs","type":"address[]","internalType":"address[]"}],"outputs":[],"stateMutability":"nonpayable"},{"type":"function","name":"burn","inputs":[{"name":"tokenId","type":"uint256","internalType":"uint256"}],"outputs":[],"stateMutability":"nonpayable"},{"type":"function","name":"clearList","inputs":[{"name":"_listType","type":"uint8","internalType":"enum IRoyaltyGuard.ListType"}],"outputs":[],"stateMutability":"nonpayable"},{"type":"function","name":"deleteToken","inputs":[{"name":"_tokenId","type":"uint256","internalType":"uint256"}],"outputs":[],"stateMutability":"nonpayable"},{"type":"function","name":"disableContract","inputs":[],"outputs":[],"stateMutability":"nonpayable"},{"type":"function","name":"disabled","inputs":[],"outputs":[{"name":"","type":"bool","internalType":"bool"}],"stateMutability":"view"},{"type":"function","name":"getApproved","inputs":[{"name":"tokenId","type":"uint256","internalType":"uint256"}],"outputs":[{"name":"","type":"address","internalType":"address"}],"stateMutability":"view"},{"type":"function","name":"getDefaultRoyaltyPercentage","inputs":[],"outputs":[{"name":"","type":"uint256","internalType":"uint256"}],"stateMutability":"view"},{"type":"function","name":"getDefaultRoyaltyReceiver","inputs":[],"outputs":[{"name":"","type":"address","internalType":"address"}],"stateMutability":"view"},{"type":"function","name":"getInUseList","inputs":[],"outputs":[{"name":"","type":"address[]","internalType":"address[]"}],"stateMutability":"view"},{"type":"function","name":"getList","inputs":[{"name":"_listType","type":"uint8","internalType":"enum IRoyaltyGuard.ListType"}],"outputs":[{"name":"","type":"address[]","internalType":"address[]"}],"stateMutability":"view"},{"type":"function","name":"getListType","inputs":[],"outputs":[{"name":"","type":"uint8","internalType":"enum IRoyaltyGuard.ListType"}],"stateMutability":"view"},{"type":"function","name":"getMintConfig","inputs":[],"outputs":[{"name":"","type":"tuple","internalType":"struct LazySovereignNFT.MintConfig","components":[{"name":"numberOfTokens","type":"uint256","internalType":"uint256"},{"name":"baseURI","type":"string","internalType":"string"},{"name":"lockedMetadata","type":"bool","internalType":"bool"}]}],"stateMutability":"view"},{"type":"function","name":"hasAdminPermission","inputs":[{"name":"_addr","type":"address","internalType":"address"}],"outputs":[{"name":"","type":"bool","internalType":"bool"}],"stateMutability":"view"},{"type":"function","name":"init","inputs":[{"name":"_name","type":"string","internalType":"string"},{"name":"_symbol","type":"string","internalType":"string"},{"name":"_creator","type":"address","internalType":"address"},{"name":"_maxTokens","type":"uint256","internalType":"uint256"}],"outputs":[],"stateMutability":"nonpayable"},{"type":"function","name":"isApprovedForAll","inputs":[{"name":"owner","type":"address","internalType":"address"},{"name":"operator","type":"address","internalType":"address"}],"outputs":[{"name":"","type":"bool","internalType":"bool"}],"stateMutability":"view"},{"type":"function","name":"isApprovedMinter","inputs":[{"name":"_address","type":"address","internalType":"address"}],"outputs":[{"name":"","type":"bool","internalType":"bool"}],"stateMutability":"view"},{"type":"function","name":"isOperatorInList","inputs":[{"name":"_operator","type":"address","internalType":"address"}],"outputs":[{"name":"","type":"bool","internalType":"bool"}],"stateMutability":"view"},{"type":"function","name":"lockBaseURI","inputs":[],"outputs":[],"stateMutability":"nonpayable"},{"type":"function","name":"maxTokens","inputs":[],"outputs":[{"name":"","type":"uint256","internalType":"uint256"}],"stateMutability":"view"},{"type":"function","name":"mintTo","inputs":[{"name":"_receiver","type":"address","internalType":"address"}],"outputs":[{"name":"","type":"uint256","internalType":"uint256"}],"stateMutability":"nonpayable"},{"type":"function","name":"name","inputs":[],"outputs":[{"name":"","type":"string","internalType":"string"}],"stateMutability":"view"},{"type":"function","name":"owner","inputs":[],"outputs":[{"name":"","type":"address","internalType":"address"}],"stateMutability":"view"},{"type":"function","name":"ownerOf","inputs":[{"name":"tokenId","type":"uint256","internalType":"uint256"}],"outputs":[{"name":"","type":"address","internalType":"address"}],"stateMutability":"view"},{"type":"function","name":"prepareMint","inputs":[{"name":"_baseURI","type":"string","internalType":"string"},{"name":"_numberOfTokens","type":"uint256","internalType":"uint256"}],"outputs":[],"stateMutability":"nonpayable"},{"type":"function","name":"prepareMintWithMinter","inputs":[{"name":"_baseURI","type":"string","internalType":"string"},{"name":"_numberOfTokens","type":"uint256","internalType":"uint256"},{"name":"_minter","type":"address","internalType":"address"}],"outputs":[],"stateMutability":"nonpayable"},{"type":"function","name":"renounceOwnership","inputs":[],"outputs":[],"stateMutability":"nonpayable"},{"type":"function","name":"royaltyInfo","inputs":[{"name":"_tokenId","type":"uint256","internalType":"uint256"},{"name":"_salePrice","type":"uint256","internalType":"uint256"}],"outputs":[{"name":"receiver","type":"address","internalType":"address"},{"name":"royaltyAmount","type":"uint256","internalType":"uint256"}],"stateMutability":"view"},{"type":"function","name":"safeTransferFrom","inputs":[{"name":"from","type":"address","internalType":"address"},{"name":"to","type":"address","internalType":"address"},{"name":"tokenId","type":"uint256","internalType":"uint256"}],"outputs":[],"stateMutability":"nonpayable"},{"type":"function","name":"safeTransferFrom","inputs":[{"name":"from","type":"address","internalType":"address"},{"name":"to","type":"address","internalType":"address"},{"name":"tokenId","type":"uint256","internalType":"uint256"},{"name":"data","type":"bytes","internalType":"bytes"}],"outputs":[],"stateMutability":"nonpayable"},{"type":"function","name":"setApprovalForAll","inputs":[{"name":"_operator","type":"address","internalType":"address"},{"name":"_approved","type":"bool","internalType":"bool"}],"outputs":[],"stateMutability":"nonpayable"},{"type":"function","name":"setDefaultRoyaltyReceiver","inputs":[{"name":"_receiver","type":"address","internalType":"address"}],"outputs":[],"stateMutability":"nonpayable"},{"type":"function","name":"setMinterApproval","inputs":[{"name":"_minter","type":"address","internalType":"address"},{"name":"_isMinter","type":"bool","internalType":"bool"}],"outputs":[],"stateMutability":"nonpayable"},{"type":"function","name":"setRoyaltyReceiverForToken","inputs":[{"name":"_receiver","type":"address","internalType":"address"},{"name":"_tokenId","type":"uint256","internalType":"uint256"}],"outputs":[],"stateMutability":"nonpayable"},{"type":"function","name":"supportsInterface","inputs":[{"name":"_interfaceId","type":"bytes4","internalType":"bytes4"}],"outputs":[{"name":"","type":"bool","internalType":"bool"}],"stateMutability":"view"},{"type":"function","name":"symbol","inputs":[],"outputs":[{"name":"","type":"string","internalType":"string"}],"stateMutability":"view"},{"type":"function","name":"toggleListType","inputs":[{"name":"_newListType","type":"uint8","internalType":"enum IRoyaltyGuard.ListType"}],"outputs":[],"stateMutability":"nonpayable"},{"type":"function","name":"tokenCreator","inputs":[{"name":"_tokenId","type":"uint256","internalType":"uint256"}],"outputs":[{"name":"","type":"address","internalType":"address payable"}],"stateMutability":"view"},{"type":"function","name":"tokenURI","inputs":[{"name":"_tokenId","type":"uint256","internalType":"uint256"}],"outputs":[{"name":"","type":"string","internalType":"string"}],"stateMutability":"view"},{"type":"function","name":"totalSupply","inputs":[],"outputs":[{"name":"","type":"uint256","internalType":"uint256"}],"stateMutability":"view"},{"type":"function","name":"transferFrom","inputs":[{"name":"from","type":"address","internalType":"address"},{"name":"to","type":"address","internalType":"address"},{"name":"tokenId","type":"uint256","internalType":"uint256"}],"outputs":[],"stateMutability":"nonpayable"},{"type":"function","name":"transferOwnership","inputs":[{"name":"newOwner","type":"address","internalType":"address"}],"outputs":[],"stateMutability":"nonpayable"},{"type":"function","name":"updateBaseURI","inputs":[{"name":"_baseURI","type":"string","internalType":"string"}],"outputs":[],"stateMutability":"nonpayable"},{"type":"function","name":"updateTokenURI","inputs":[{"name":"_tokenId","type":"uint256","internalType":"uint256"},{"name":"_metadataUri","type":"string","internalType":"string"}],"outputs":[],"stateMutability":"nonpayable"},{"type":"event","name":"AddressAddedToList","inputs":[{"name":"_updater","type":"address","indexed":true,"internalType":"address"},{"name":"_addedAddr","type":"address","indexed":true,"internalType":"address"},{"name":"_ListType","type":"uint8","indexed":true,"internalType":"enum IRoyaltyGuard.ListType"}],"anonymous":false},{"type":"event","name":"AddressRemovedList","inputs":[{"name":"_updater","type":"address","indexed":true,"internalType":"address"},{"name":"_removedAddr","type":"address","indexed":true,"internalType":"address"},{"name":"_ListType","type":"uint8","indexed":true,"internalType":"enum IRoyaltyGuard.ListType"}],"anonymous":false},{"type":"event","name":"Approval","inputs":[{"name":"owner","type":"address","indexed":true,"internalType":"address"},{"name":"approved","type":"address","indexed":true,"internalType":"address"},{"name":"tokenId","type":"uint256","indexed":true,"internalType":"uint256"}],"anonymous":false},{"type":"event","name":"ApprovalForAll","inputs":[{"name":"owner","type":"address","indexed":true,"internalType":"address"},{"name":"operator","type":"address","indexed":true,"internalType":"address"},{"name":"approved","type":"bool","indexed":false,"internalType":"bool"}],"anonymous":false},{"type":"event","name":"ContractDisabled","inputs":[{"name":"user","type":"address","indexed":true,"internalType":"address"}],"anonymous":false},{"type":"event","name":"Initialized","inputs":[{"name":"version","type":"uint8","indexed":false,"internalType":"uint8"}],"anonymous":false},{"type":"event","name":"ListCleared","inputs":[{"name":"_updater","type":"address","indexed":true,"internalType":"address"},{"name":"_listType","type":"uint8","indexed":false,"internalType":"enum IRoyaltyGuard.ListType"}],"anonymous":false},{"type":"event","name":"ListTypeUpdated","inputs":[{"name":"_updater","type":"address","indexed":true,"internalType":"address"},{"name":"_oldListType","type":"uint8","indexed":true,"internalType":"enum IRoyaltyGuard.ListType"},{"name":"_newListType","type":"uint8","indexed":true,"internalType":"enum IRoyaltyGuard.ListType"}],"anonymous":false},{"type":"event","name":"MetadataLocked","inputs":[{"name":"baseURI","type":"string","indexed":false,"internalType":"string"}],"anonymous":false},{"type":"event","name":"MetadataUpdated","inputs":[{"name":"baseURI","type":"string","indexed":false,"internalType":"string"}],"anonymous":false},{"type":"event","name":"OwnershipTransferred","inputs":[{"name":"previousOwner","type":"address","indexed":true,"internalType":"address"},{"name":"newOwner","type":"address","indexed":true,"internalType":"address"}],"anonymous":false},{"type":"event","name":"PrepareMint","inputs":[{"name":"numberOfTokens","type":"uint256","indexed":true,"internalType":"uint256"},{"name":"baseURI","type":"string","indexed":false,"internalType":"string"}],"anonymous":false},{"type":"event","name":"TokenURIUpdated","inputs":[{"name":"tokenId","type":"uint256","indexed":true,"internalType":"uint256"},{"name":"metadataUri","type":"string","indexed":false,"internalType":"string"}],"anonymous":false},{"type":"event","name":"Transfer","inputs":[{"name":"from","type":"address","indexed":true,"internalType":"address"},{"name":"to","type":"address","indexed":true,"internalType":"address"},{"name":"tokenId","type":"uint256","indexed":true,"internalType":"uint256"}],"anonymous":false},{"type":"error","name":"CantAddToOFFList","inputs":[]},{"type":"error","name":"MustBeAdmin","inputs":[]},{"type":"error","name":"Unauthorized","inputs":[]}],"bytecode":{"object":"0x60808060405234610016576133b1908161001c8239f35b600080fdfe60406080815260048036101561001457600080fd5b600090813560e01c8063012cf1e81461200c57806301ffc9a714611f3457806306fdde0314611e8a578063081812fc14611e69578063095ea7b314611c4c5780630de54ba014611bfd57806318160ddd14611bdd57806318e97fd1146119f957806320427486146119c557806323b872dd146119a05780632a55205a1461190d5780632ce878da1461189a5780633403c4e9146118715780633a3d146f146118325780633ebc82c5146117f057806340c1a064146117c657806342842e0e1461179257806342966c6814611776578063472a6638146116d757806353df5c7c146116755780635edc7c191461116d5780636297c16c146110ef5780636352211e146110bd57806370a0823114611029578063715018a614610fcc578063755edd1714610d8957806387bc793f14610d61578063894ba83314610d135780638da5cb5b14610cea578063931688cb14610b1d5780639338bb5d14610a8457806395d89b411461099f5780639e860f2a1461089a578063a22cb4651461073c578063ab69607a1461071d578063b390ac25146106e4578063b88d4fde1461065b578063b9fbd25c146105dc578063bc7194551461052e578063c87b56dd146104f2578063e8315742146104d2578063e985e9c514610484578063eab8511814610429578063ee07080514610406578063efc32cd4146103b7578063f2fde38b146103205763ff6e8c8f1461022557600080fd5b3461031c5761023336612206565b6033546001600160a01b0396908716330361030d5760038410156102fa5783156102eb575090610264913691612a3e565b93835b85518110156102e75761028f61027c84612aa4565b83610287848a612abe565b511690612b00565b50828261029c8389612abe565b5116337f14155f749dc3f9cd2bf890d6d3a47069f77ae35befcee11c8b1a3ba41cba15368880a460001981146102d457600101610267565b634e487b7160e01b855260118452602485fd5b8480f35b51632de777a160e11b81528490fd5b634e487b7160e01b865260218552602486fd5b51635c510c8360e11b81528490fd5b5080fd5b508290346103b35760203660031901126103b35761033c612105565b9161034561231d565b6001600160a01b03831615610361578361035e84612375565b80f35b906020608492519162461bcd60e51b8352820152602660248201527f4f776e61626c653a206e6577206f776e657220697320746865207a65726f206160448201526564647265737360d01b6064820152fd5b8280fd5b82843461031c578060031936011261031c576103d1612105565b906103da61231d565b602435835260fd602052822080546001600160a01b0319166001600160a01b0390921691909117905580f35b82843461031c578160031936011261031c5760209060ff80541690519015158152f35b82843461031c57602036600319011261031c5760209061047b61044a612105565b61045960ff6101095416612aa4565b6001600160a01b03909116600090815260019091016020526040902054151590565b90519015158152f35b82843461031c578060031936011261031c5760ff816020936104a4612105565b6104ac612136565b6001600160a01b039182168352609c875283832091168252855220549151911615158152f35b82843461031c578160031936011261031c57602090610100549051908152f35b5091903461052b57602036600319011261052b57506105146105279235612d97565b90519182916020835260208301906120e0565b0390f35b80fd5b5082346103b35760203660031901126103b35781359160038310156105d8576033546001600160a01b031633036105ca575061056982612aa4565b805490848155816105ac575b50507f7efc19cf93d497a6a56103ea89a39d51c0cad74a817ed3cd0ecaff9823d4da249051806105a63394826121dd565b0390a280f35b845260208420908101905b81811015610575578481556001016105b7565b9051635c510c8360e11b8152fd5b8380fd5b508290346103b35760603660031901126103b35780356001600160401b0381116105d85761063a916106109136910161217b565b919061061a612120565b9261062361231d565b61063160ff80541615612d23565b602435916130df565b6001600160a01b031682526101026020528120805460ff1916600117905580f35b503461031c57608036600319011261031c57610675612105565b9061067e612136565b91604435606435936001600160401b0385116106e057366023860112156106e0576106b86106db9486602461035e983693013591016122e6565b926106cb6106c68433612626565b61254d565b6106d68383836126ee565b61291b565b612602565b8580fd5b5082346103b35736600319011261031c5780356001600160401b0381116103b35761035e916107159136910161217b565b61062361231d565b82843461031c578160031936011261031c5760209060fc549051908152f35b5082346103b35761074c3661214c565b919060ff610109541660038110156102fa57600181036108505750600180865261010860209081528387206001600160a01b038416600090815292019052604090205415610841575b6001600160a01b0316923384146107ff5750338452609c6020528084208385526020526107d0828286209060ff801983541691151516179055565b5190151581527f17307eab39ab6107e8899845ad3d59bd9653f200f220920489ca2b5937696c3160203392a380f35b6020606492519162461bcd60e51b8352820152601960248201527f4552433732313a20617070726f766520746f2063616c6c6572000000000000006044820152fd5b81516282b42960e81b81528490fd5b600203610795576002855261010860205261088682862060018060a01b0383169060019160005201602052604060002054151590565b156107955781516282b42960e81b81528490fd5b503461031c576108a936612206565b6033546001600160a01b0396908716330361030d5750906108cb913691612a3e565b936003821015908161098c57826108e0578480f35b845b865181101561097c5761090a6108f785612aa4565b83610902848b612abe565b511690612b73565b508282610917838a612abe565b511690610969578490337fc72e29af1b34de3dec3a764b4ca4d85b9c380ab33b9b268d29b6e7008bd0ed958980a46000198114610956576001016108e2565b634e487b7160e01b865260118552602486fd5b634e487b7160e01b875260218652602487fd5b5050505050905080388080808480f35b634e487b7160e01b855260218452602485fd5b82843461031c578160031936011261031c57805190826098546109c181612430565b80855291600191808316908115610a5c57506001146109ff575b5050506109ed826105279403836122aa565b519182916020835260208301906120e0565b9450609885527f2237a976fa961f5921fd19f2b03c925c725d77b20ce8f790c19709c03de4d8145b828610610a44575050506109ed82602061052795820101946109db565b80546020878701810191909152909501948101610a27565b6105279750869350602092506109ed94915060ff191682840152151560051b820101946109db565b50503461052b578060031936011261052b57818051610aa28161225e565b8281526060602082015201528051610ab98161225e565b610105548152815191610ad683610acf8161246a565b03846122aa565b60208201928352610b1060ff61010754169180840192151583526060815195869560208752516020870152519185015260808401906120e0565b9051151560608301520390f35b503461031c576020806003193601126103b3576001600160401b03908235828111610ce657610b4f903690850161217b565b939092610b5a61231d565b60ff6101075416610c9a578411610c87575061010690610b8384610b7e8454612430565b612cc3565b8490601f8511600114610bf0575094610bdf918486977f1c306e70c05992619e2128ad1ef88df75f36c9476282e59f51401b2abaa42e4e9791610be5575b508560011b906000198760031b1c19161790555b5192839283612d6f565b0390a180f35b905084013538610bc1565b90601f19851683875260008051602061335c8339815191529287905b828210610c6f57505091610bdf9391867f1c306e70c05992619e2128ad1ef88df75f36c9476282e59f51401b2abaa42e4e98999410610c55575b5050600185811b019055610bd5565b850135600019600388901b60f8161c191690553880610c46565b80600185968294968a01358155019501930190610c0c565b634e487b7160e01b855260419052602484fd5b5060849186519162461bcd60e51b8352820152602160248201527f757064617465426173655552493a3a6d65746164617461206973206c6f636b656044820152601960fa1b6064820152fd5b8480fd5b82843461031c578160031936011261031c5760335490516001600160a01b039091168152602090f35b823461052b578060031936011261052b57610d2c61231d565b600160ff1960ff54161760ff55337f793bc6423dd0257d64f9d47db72fd4b2162f4541aa41740ba1c5fb5e2cd41bcd8280a280f35b82843461031c578160031936011261031c576105279060ff61010954169051918291826121dd565b50913461031c57602092836003193601126103b357610da6612105565b92610db560ff80541615612d23565b6033546001600160a01b039190821633148015610fb7575b15610f5b5760fc548260fb541692610104966001885401809855610100548811610f1a57865191610dfd8361228f565b8483528116958615610ed957506106db8794939289610ebc93610e3e610e3883600052609960205260018060a01b0360406000205416151590565b15613093565b600082815260996020526040902054610e61906001600160a01b03161515610e38565b898752609a8d528787206001815401905581875260998d52818888209a6001600160601b0360a01b9b818d825416179055887fddf252ad1be2c89b69c2b068fc378daa952ba7f163c4a11628f55a4df523b3ef8180a46127ff565b86825260fe88528282205560fd8752209182541617905551908152f35b6064908a808a519262461bcd60e51b845283015260248201527f4552433732313a206d696e7420746f20746865207a65726f20616464726573736044820152fd5b6064868a808a519262461bcd60e51b845283015260248201527f5f637265617465546f6b656e3a3a6578636565646564206d6178546f6b656e736044820152fd5b835162461bcd60e51b8152808401879052603060248201527f6c617a794d696e743a3a6f6e6c79206f776e6572206f7220617070726f76656460448201526f081b5a5b9d195c8818d85b881b5a5b9d60821b6064820152608490fd5b50338152610102865260ff8482205416610dcd565b823461052b578060031936011261052b57610fe561231d565b603380546001600160a01b0319811690915581906001600160a01b03167f8be0079c531659141344cd1fd0a4f28419497f9722a3daafe3b4186f6b6457e08280a380f35b503461031c57602036600319011261031c576001600160a01b0361104b612105565b16908115611068576020848085858152609a845220549051908152f35b608490602085519162461bcd60e51b8352820152602960248201527f4552433732313a2061646472657373207a65726f206973206e6f7420612076616044820152683634b21037bbb732b960b91b6064820152fd5b5091903461052b57602036600319011261052b57506110de6020923561240a565b90516001600160a01b039091168152f35b508290346103b35760203660031901126103b35780359161110f8361240a565b336001600160a01b039091160361112a578361035e846129a6565b906020606492519162461bcd60e51b8352820152601f60248201527f4d75737420626520746865206f776e6572206f662074686520746f6b656e2e006044820152fd5b503461031c57608036600319011261031c576001600160401b039281358481116105d85761119e903690840161217b565b92906024358681116106e0576111b7903690840161217b565b6111c2979197612120565b9387549860ff94858b60081c16159889809a611669575b8015611653575b156115f95760ff19808d1660019081178d559b9c999a998a6115e8575b506001600160a01b038916156115a5579161125091611240898f6112589796600a60fc558254168255606435610100555460081c1661123b81612c63565b612c63565b61124933612375565b36916122e6565b9336916122e6565b9061126c858b5460081c1661123b81612c63565b82518481116115925780611281609754612430565b94601f95868111611521575b506020908d8784116001146114a25792611497575b5050600019600383901b1c1916908a1b176097555b815193841161148457506112cc609854612430565b828111611421575b506020918311600114611395579180611349959492611321948b9261138a575b5050600019600383901b1c191690881b176098555b875460081c1661131881612c63565b61123b81612c63565b60fb80546001600160a01b0319166001600160a01b03831617905561134461231d565b612375565b611351578280f35b825461ff0019168355519081527f7f26b83ff96e1f2b6a682f133852f6798a09c465da95921460cefb384740249890602090a138808280f35b0151905038806112f4565b609889528792917f2237a976fa961f5921fd19f2b03c925c725d77b20ce8f790c19709c03de4d81491601f1984168b5b8181106114095750916113219593918561134999989694106113f0575b505050811b01609855611309565b015160001960f88460031b161c191690553880806113e2565b8284015185558b9690940193602093840193016113c5565b60988a527f2237a976fa961f5921fd19f2b03c925c725d77b20ce8f790c19709c03de4d8148380860160051c8201926020871061147b575b0160051c019089905b8281106114705750506112d4565b8b8155018990611462565b92508192611459565b634e487b7160e01b8a5260419052602489fd5b0151905038806112a2565b91908d9450601f198416609784527f354a83ed9988f79f6038d4c7a7dadbad8af32f4ad6df893e0e5807a1b1944ff9935b818110611509575084116114f0575b505050811b016097556112b7565b015160001960f88460031b161c191690553880806114e2565b8284015185558f9690940193602093840193016114d3565b90915060978d527f354a83ed9988f79f6038d4c7a7dadbad8af32f4ad6df893e0e5807a1b1944ff98680850160051c82019260208610611589575b859493910160051c909101908d908f5b83821061157b5750505061128d565b81558594508e91018f61156c565b9250819261155c565b634e487b7160e01b8b526041825260248bfd5b8a5162461bcd60e51b8152602081870152601e60248201527f63726561746f722063616e6e6f74206265206e756c6c206164647265737300006044820152606490fd5b61ffff1916610101178d55386111fd565b885162461bcd60e51b8152602081860152602e60248201527f496e697469616c697a61626c653a20636f6e747261637420697320616c72656160448201526d191e481a5b9a5d1a585b1a5e995960921b6064820152608490fd5b50303b1580156111e057506001878d16146111e0565b506001878d16106111d9565b82843461031c578160031936011261031c577fb634b0cb94234b05eabb1438717e0e645bfd84788ae1263682242327563cde5e906116b161231d565b5160208152806116c36020820161246a565b0390a1610107805460ff1916600117905580f35b508290346103b35760203660031901126103b35780359160038310156105d8576033546001600160a01b0316330361176957506101099182549160ff83169060038210156117565750908060ff92337f12282389323caf08dd4e02c490ef05bc7edb56967c085742687aad3cc81aa15f8880a4169060ff191617905580f35b634e487b7160e01b865260219052602485fd5b51635c510c8360e11b8152fd5b503461031c57602036600319011261031c5761035e90356129a6565b82843461031c576106db61035e916117a9366121a8565b919251926117b68461228f565b8684526106cb6106c68433612626565b82843461031c57602036600319011261031c5760335490516001600160a01b039091168152602090f35b823461052b57602036600319011261052b5761035e61180d612105565b61181561231d565b60018060a01b03166001600160601b0360a01b60fb54161760fb55565b82843461031c57602036600319011261031c5760209160ff9082906001600160a01b0361185d612105565b168152610102855220541690519015158152f35b82843461031c578160031936011261031c5760fb5490516001600160a01b039091168152602090f35b50503461052b578060031936011261052b576118bb60ff6101095416612aa4565b9180519182845490818152602080910195835280832092905b8282106118f65761052786866118ec828b03836122aa565b5191829182612079565b8354875295860195600193840193909101906118d4565b5091903461052b578160031936011261052b578235815260fd60205281812054602435906001600160a01b03908116801561199457925b60fe60205284812054801561198a57925b8381029381850414901517156119775750835192168252606490046020820152f35b634e487b7160e01b815260118652602490fd5b5060fc5492611955565b508060fb541692611944565b823461052b5761035e6119b2366121a8565b916119c06106c68433612626565b6126ee565b82843461031c57602036600319011261031c576020906119e3612105565b60018060a01b0380603354169116149051908152f35b503461031c578260031936011261031c578035906001600160401b0390602435828111610ce657611a2d903690830161217b565b929091611a3861231d565b60ff6101075416611b8f578486526020906101038252878720928511611b7c5750611a638254612430565b601f8111611b39575b508590601f8511600114611ac85750956105a6918487987f931f495b9a8e5d8e61946ea5d61e021f636cfe213a801f97589c18c152e408bd979891610be557508560011b906000198760031b1c19161790555192839283612d6f565b90601f1985168388528288209288905b828210611b21575050916105a69391867f931f495b9a8e5d8e61946ea5d61e021f636cfe213a801f97589c18c152e408bd98999a9410610c55575050600185811b019055610bd5565b80600185968294968a01358155019501930190611ad8565b828752818720601f860160051c810191838710611b72575b601f0160051c01905b818110611b675750611a6c565b878155600101611b5a565b9091508190611b51565b634e487b7160e01b875260419052602486fd5b608490602088519162461bcd60e51b8352820152602260248201527f757064617465546f6b656e5552493a3a6d65746164617461206973206c6f636b604482015261195960f21b6064820152fd5b82843461031c578160031936011261031c57602090610104549051908152f35b82843461031c5761035e90611c113661214c565b9190611c1b61231d565b611c2960ff80541615612d23565b60018060a01b0316845261010260205283209060ff801983541691151516179055565b508290346103b357816003193601126103b357611c67612105565b906024359260ff61010954166003811015611e565760018103611e0f5750600180865261010860209081528287206001600160a01b038616600090815292019052604090205415611e03575b6001600160a01b03918280611cc78761240a565b16941693808514611db657803314908115611d97575b5015611d2f5750838552609b602052842080546001600160a01b03191683179055611d078361240a565b167f8c5be1e5ebec7d5bd14f71427d1e84f3dd0314c0f7b2291e5b200ac8c7c3b9258480a480f35b6020608492519162461bcd60e51b8352820152603d60248201527f4552433732313a20617070726f76652063616c6c6572206973206e6f7420746f60448201527f6b656e206f776e6572206f7220617070726f76656420666f7220616c6c0000006064820152fd5b90508652609c60205281862033875260205260ff828720541687611cdd565b506020608492519162461bcd60e51b8352820152602160248201527f4552433732313a20617070726f76616c20746f2063757272656e74206f776e656044820152603960f91b6064820152fd5b516282b42960e81b8152fd5b600203611cb35760028552610108602052611e4581862060018060a01b0385169060019160005201602052604060002054151590565b15611cb357516282b42960e81b8152fd5b634e487b7160e01b865260218352602486fd5b5091903461052b57602036600319011261052b57506110de6020923561250f565b82843461031c578160031936011261031c5780519082609754611eac81612430565b80855291600191808316908115610a5c5750600114611ed7575050506109ed826105279403836122aa565b9450609785527f354a83ed9988f79f6038d4c7a7dadbad8af32f4ad6df893e0e5807a1b1944ff95b828610611f1c575050506109ed82602061052795820101946109db565b80546020878701810191909152909501948101611eff565b508290346103b35760203660031901126103b35735906001600160e01b031982168083036105d8576020935063fa31a45b60e01b8114928315611ffb575b8315611f83575b5050519015158152f35b919250631030681960e21b811491908215611fea575b8215611fc1575b508115611fb1575b50908380611f79565b611fbb9150613317565b83611fa8565b90915063152a902d60e11b148015611fdb575b9084611fa0565b50611fe581613317565b611fd4565b6301ffc9a760e01b81149250611f99565b6301ffc9a760e01b82149350611f72565b5082346103b357602091826003193601126105d8573560038110156105d85761203490612aa4565b9281518093808654928381520195835280832092905b8282106120625761052786866118ec828b03836122aa565b83548752958601956001938401939091019061204a565b6020908160408183019282815285518094520193019160005b8281106120a0575050505090565b83516001600160a01b031685529381019392810192600101612092565b60005b8381106120d05750506000910152565b81810151838201526020016120c0565b906020916120f9815180928185528580860191016120bd565b601f01601f1916010190565b600435906001600160a01b038216820361211b57565b600080fd5b604435906001600160a01b038216820361211b57565b602435906001600160a01b038216820361211b57565b604090600319011261211b576004356001600160a01b038116810361211b5790602435801515810361211b5790565b9181601f8401121561211b578235916001600160401b03831161211b576020838186019501011161211b57565b606090600319011261211b576001600160a01b0390600435828116810361211b5791602435908116810361211b579060443590565b9190602083019260038210156121f05752565b634e487b7160e01b600052602160045260246000fd5b604060031982011261211b57600435600381101561211b57916024356001600160401b039283821161211b578060238301121561211b57816004013593841161211b5760248460051b8301011161211b576024019190565b606081019081106001600160401b0382111761227957604052565b634e487b7160e01b600052604160045260246000fd5b602081019081106001600160401b0382111761227957604052565b90601f801991011681019081106001600160401b0382111761227957604052565b6001600160401b03811161227957601f01601f191660200190565b9291926122f2826122cb565b9161230060405193846122aa565b82948184528183011161211b578281602093846000960137010152565b6033546001600160a01b0316330361233157565b606460405162461bcd60e51b815260206004820152602060248201527f4f776e61626c653a2063616c6c6572206973206e6f7420746865206f776e65726044820152fd5b603380546001600160a01b039283166001600160a01b0319821681179092559091167f8be0079c531659141344cd1fd0a4f28419497f9722a3daafe3b4186f6b6457e0600080a3565b156123c557565b60405162461bcd60e51b815260206004820152601860248201527f4552433732313a20696e76616c696420746f6b656e20494400000000000000006044820152606490fd5b6000908152609960205260409020546001600160a01b031661242d8115156123be565b90565b90600182811c92168015612460575b602083101461244a57565b634e487b7160e01b600052602260045260246000fd5b91607f169161243f565b9060009161010690815461247d81612430565b808352926001918083169081156124ea575060011461249d575b50505050565b909293945060005260008051602061335c833981519152916000925b8484106124d25750506020925001019038808080612497565b805460208585018101919091529093019281016124b9565b92505050602093945060ff929192191683830152151560051b01019038808080612497565b600081815260996020526040902054612532906001600160a01b031615156123be565b6000908152609b60205260409020546001600160a01b031690565b1561255457565b60405162461bcd60e51b815260206004820152602d60248201527f4552433732313a2063616c6c6572206973206e6f7420746f6b656e206f776e6560448201526c1c881bdc88185c1c1c9bdd9959609a1b6064820152608490fd5b60809060208152603260208201527f4552433732313a207472616e7366657220746f206e6f6e20455243373231526560408201527131b2b4bb32b91034b6b83632b6b2b73a32b960711b60608201520190565b1561260957565b60405162461bcd60e51b815280612622600482016125af565b0390fd5b906001600160a01b03808061263a8461240a565b1693169183831493841561266d575b508315612657575b50505090565b6126639192935061250f565b1614388080612651565b909350600052609c60205260406000208260005260205260ff604060002054169238612649565b1561269b57565b60405162461bcd60e51b815260206004820152602560248201527f4552433732313a207472616e736665722066726f6d20696e636f72726563742060448201526437bbb732b960d91b6064820152608490fd5b90612716916126fc8461240a565b6001600160a01b0393918416928492909183168414612694565b169182156127ae57816127339161272c8661240a565b1614612694565b7fddf252ad1be2c89b69c2b068fc378daa952ba7f163c4a11628f55a4df523b3ef6000848152609b602052604081206001600160601b0360a01b90818154169055838252609a6020526040822060001981540190558482526040822060018154019055858252609960205284604083209182541617905580a4565b60405162461bcd60e51b8152602060048201526024808201527f4552433732313a207472616e7366657220746f20746865207a65726f206164646044820152637265737360e01b6064820152608490fd5b9192600092909190803b156129115761284d946040518092630a85bd0160e11b9485835233600484015287602484015260448301526080606483015281878160209a8b9660848301906120e0565b03926001600160a01b03165af18491816128d1575b506128c0575050503d6000146128b8573d61287c816122cb565b9061288a60405192836122aa565b81528091833d92013e5b805191826128b55760405162461bcd60e51b815280612622600482016125af565b01fd5b506060612894565b6001600160e01b0319161492509050565b9091508581813d831161290a575b6128e981836122aa565b81010312610ce657516001600160e01b031981168103610ce6579038612862565b503d6128df565b5050915050600190565b9293600093909291803b1561299b579484916129759660405180948193630a85bd0160e11b9788845233600485015260018060a01b0380921660248501526044840152608060648401528260209b8c9760848301906120e0565b0393165af18491816128d157506128c0575050503d6000146128b8573d61287c816122cb565b505050915050600190565b6129b36106c68233612626565b6129bc8161240a565b506129c68161240a565b6000828152609b6020908152604080832080546001600160a01b03199081169091556001600160a01b03909416808452609a83528184208054600019019055858452609990925282208054909316909255907fddf252ad1be2c89b69c2b068fc378daa952ba7f163c4a11628f55a4df523b3ef8280a4565b9092916001600160401b038411612279578360051b6040519260208094612a67828501826122aa565b809781520191810192831161211b57905b828210612a855750505050565b81356001600160a01b038116810361211b578152908301908301612a78565b60038110156121f057600052610108602052604060002090565b8051821015612ad25760209160051b010190565b634e487b7160e01b600052603260045260246000fd5b8054821015612ad25760005260206000200190600090565b6000828152600182016020526040902054612b6c57805490680100000000000000008210156122795782612b55612b3e846001809601855584612ae8565b819391549060031b91821b91600019901b19161790565b905580549260005201602052604060002055600190565b5050600090565b90600182019060009281845282602052604084205490811515600014612c5c5760001991808301818111612c4857825490848201918211612c3457808203612bff575b50505080548015612beb57820191612bce8383612ae8565b909182549160031b1b191690555582526020526040812055600190565b634e487b7160e01b86526031600452602486fd5b612c1f612c0f612b3e9386612ae8565b90549060031b1c92839286612ae8565b90558652846020526040862055388080612bb6565b634e487b7160e01b88526011600452602488fd5b634e487b7160e01b87526011600452602487fd5b5050505090565b15612c6a57565b60405162461bcd60e51b815260206004820152602b60248201527f496e697469616c697a61626c653a20636f6e7472616374206973206e6f74206960448201526a6e697469616c697a696e6760a81b6064820152608490fd5b601f8111612ccf575050565b600090610106825260008051602061335c833981519152906020601f850160051c83019410612d19575b601f0160051c01915b828110612d0e57505050565b818155600101612d02565b9092508290612cf9565b15612d2a57565b60405162461bcd60e51b815260206004820152601e60248201527f436f6e7472616374206d757374206e6f742062652064697361626c65642e00006044820152606490fd5b90918060409360208452816020850152848401376000828201840152601f01601f1916010190565b60009080825261010390602090828252604092612db684862054612430565b612feb575092839281907a184f03e93ff9f4daa797ed6e38ed64bf6a1f0100000000000000008581811015612fde575b50506d04ee2d6d415b85acef810000000080861015612fd0575b50662386f26fc1000080861015612fc1575b506305f5e10080861015612fb2575b5061271080861015612fa3575b506064851015612f93575b600a80951015612f89575b60019485840196866021612e6f612e5a8b6122cb565b9a612e6787519c8d6122aa565b808c526122cb565b8a89019790601f19013689378a0101905b612f5a575b505050519485938261010690815491612e9d83612430565b92898116908115612f395750600114612ef2575b505050506006939282612ede64173539b7b760d91b93602f60f81b61242d999652518093868401906120bd565b0191820152036019198101845201826122aa565b8152929350909160008051602061335c8339815191525b828210612f23575050840101908281612ede61242d612eb1565b8054898301850152889650908301908701612f09565b60ff1916858a01525050508015150285010191508281612ede61242d612eb1565b600019019082906f181899199a1a9b1b9c1cb0b131b232b360811b8282061a835304908782612e805750612e85565b9160010191612e44565b9193606460029104940191612e39565b60049193950494019138612e2e565b60089193950494019138612e21565b60109193950494019138612e12565b849193950494019138612e00565b0494509150813880612de6565b908493929352825280832090519283918181549061300882612430565b8086529260019280841690811561306f5750600114613032575b5050505061242d925003826122aa565b815285812095935091905b81831061305757505061242d935082010138808080613022565b8554878401850152948501948694509183019161303d565b935050505061242d94925060ff191682840152151560051b82010138808080613022565b1561309a57565b60405162461bcd60e51b815260206004820152601c60248201527f4552433732313a20746f6b656e20616c7265616479206d696e746564000000006044820152606490fd5b9291906101005482116132d3576101045461327457604051936131018561225e565b82855261310f3683836122e6565b6020908082880152604087019160009788845251610105558151906001600160401b038211613260576101069261314a83610b7e8654612430565b81601f84116001146131cb57509082917f6f1d651e6e0c8f86bd32a20c22a644d1e34fabf72307ff95d51b9f5892ddba1998999a926131c0575b50508160011b916000199060031b1c19161790555b5115156101079060ff801983541691161790556131bb60405192839283612d6f565b0390a2565b015190503880613184565b848b52929960008051602061335c83398151915293601f198c1691905b82821061324857505091600193918b7f6f1d651e6e0c8f86bd32a20c22a644d1e34fabf72307ff95d51b9f5892ddba199a9b9c941061322f575b505050811b019055613199565b015160001960f88460031b161c19169055388080613222565b806001869782949787015181550196019401906131e8565b634e487b7160e01b89526041600452602489fd5b60405162461bcd60e51b815260206004820152603160248201527f5f707265706172654d696e743a3a63616e206f6e6c792070726570617265206d604482015270696e742077697468203020746f6b656e7360781b6064820152608490fd5b606460405162461bcd60e51b815260206004820152602060248201527f5f707265706172654d696e743a3a6578636565646564206d6178546f6b656e736044820152fd5b63ffffffff60e01b166380ac58cd60e01b811490811561334a575b811561333c575090565b6301ffc9a760e01b14919050565b635b5e139f60e01b8114915061333256fec9ef9fceea91e87b2c84ea400a44fde78842aae8aa24cd4b502ce5fb4d91e63ba264697066735822122021d2821b803a3709515d735f1f04f2ed6d9a07724e1875b57b90e344009adabb64736f6c63430008120033","linkReferences":{}},"methodIdentifiers":{"approve(address,uint256)":"095ea7b3","balanceOf(address)":"70a08231","batchAddAddressToRoyaltyList(uint8,address[])":"ff6e8c8f","batchRemoveAddressToRoyaltyList(uint8,address[])":"9e860f2a","burn(uint256)":"42966c68","clearList(uint8)":"bc719455","deleteToken(uint256)":"6297c16c","disableContract()":"894ba833","disabled()":"ee070805","getApproved(uint256)":"081812fc","getDefaultRoyaltyPercentage()":"ab69607a","getDefaultRoyaltyReceiver()":"3403c4e9","getInUseList()":"2ce878da","getList(uint8)":"012cf1e8","getListType()":"87bc793f","getMintConfig()":"9338bb5d","hasAdminPermission(address)":"20427486","init(string,string,address,uint256)":"5edc7c19","isApprovedForAll(address,address)":"e985e9c5","isApprovedMinter(address)":"3a3d146f","isOperatorInList(address)":"eab85118","lockBaseURI()":"53df5c7c","maxTokens()":"e8315742","mintTo(address)":"755edd17","name()":"06fdde03","owner()":"8da5cb5b","ownerOf(uint256)":"6352211e","prepareMint(string,uint256)":"b390ac25","prepareMintWithMinter(string,uint256,address)":"b9fbd25c","renounceOwnership()":"715018a6","royaltyInfo(uint256,uint256)":"2a55205a","safeTransferFrom(address,address,uint256)":"42842e0e","safeTransferFrom(address,address,uint256,bytes)":"b88d4fde","setApprovalForAll(address,bool)":"a22cb465","setDefaultRoyaltyReceiver(address)":"3ebc82c5","setMinterApproval(address,bool)":"0de54ba0","setRoyaltyReceiverForToken(address,uint256)":"efc32cd4","supportsInterface(bytes4)":"01ffc9a7","symbol()":"95d89b41","toggleListType(uint8)":"472a6638","tokenCreator(uint256)":"40c1a064","tokenURI(uint256)":"c87b56dd","totalSupply()":"18160ddd","transferFrom(address,address,uint256)":"23b872dd","transferOwnership(address)":"f2fde38b","updateBaseURI(string)":"931688cb","updateTokenURI(uint256,string)":"18e97fd1"},"id":206}