{"abi":[{"type":"function","name":"activateDeadmanListTrigger","inputs":[],"outputs":[],"stateMutability":"nonpayable"},{"type":"function","name":"approve","inputs":[{"name":"_spender","type":"address","internalType":"address"},{"name":"_id","type":"uint256","internalType":"uint256"}],"outputs":[],"stateMutability":"nonpayable"},{"type":"function","name":"balanceOf","inputs":[{"name":"owner","type":"address","internalType":"address"}],"outputs":[{"name":"","type":"uint256","internalType":"uint256"}],"stateMutability":"view"},{"type":"function","name":"batchAddAddressToRoyaltyList","inputs":[{"name":"_listType","type":"uint8","internalType":"enum IRoyaltyGuard.ListType"},{"name":"_addrs","type":"address[]","internalType":"address[]"}],"outputs":[],"stateMutability":"nonpayable"},{"type":"function","name":"batchRemoveAddressToRoyaltyList","inputs":[{"name":"_listType","type":"uint8","internalType":"enum IRoyaltyGuard.ListType"},{"name":"_addrs","type":"address[]","internalType":"address[]"}],"outputs":[],"stateMutability":"nonpayable"},{"type":"function","name":"burn","inputs":[{"name":"tokenId","type":"uint256","internalType":"uint256"}],"outputs":[],"stateMutability":"nonpayable"},{"type":"function","name":"clearList","inputs":[{"name":"_listType","type":"uint8","internalType":"enum IRoyaltyGuard.ListType"}],"outputs":[],"stateMutability":"nonpayable"},{"type":"function","name":"deleteToken","inputs":[{"name":"_tokenId","type":"uint256","internalType":"uint256"}],"outputs":[],"stateMutability":"nonpayable"},{"type":"function","name":"disableContract","inputs":[],"outputs":[],"stateMutability":"nonpayable"},{"type":"function","name":"disabled","inputs":[],"outputs":[{"name":"","type":"bool","internalType":"bool"}],"stateMutability":"view"},{"type":"function","name":"getApproved","inputs":[{"name":"tokenId","type":"uint256","internalType":"uint256"}],"outputs":[{"name":"","type":"address","internalType":"address"}],"stateMutability":"view"},{"type":"function","name":"getDeadmanTriggerAvailableDatetime","inputs":[],"outputs":[{"name":"","type":"uint256","internalType":"uint256"}],"stateMutability":"view"},{"type":"function","name":"getDefaultRoyaltyPercentage","inputs":[],"outputs":[{"name":"","type":"uint256","internalType":"uint256"}],"stateMutability":"view"},{"type":"function","name":"getDefaultRoyaltyReceiver","inputs":[],"outputs":[{"name":"","type":"address","internalType":"address"}],"stateMutability":"view"},{"type":"function","name":"getInUseList","inputs":[],"outputs":[{"name":"","type":"address[]","internalType":"address[]"}],"stateMutability":"view"},{"type":"function","name":"getList","inputs":[{"name":"_listType","type":"uint8","internalType":"enum IRoyaltyGuard.ListType"}],"outputs":[{"name":"","type":"address[]","internalType":"address[]"}],"stateMutability":"view"},{"type":"function","name":"getListType","inputs":[],"outputs":[{"name":"","type":"uint8","internalType":"enum IRoyaltyGuard.ListType"}],"stateMutability":"view"},{"type":"function","name":"getMintConfig","inputs":[],"outputs":[{"name":"","type":"tuple","internalType":"struct LazySovereignNFT.MintConfig","components":[{"name":"numberOfTokens","type":"uint256","internalType":"uint256"},{"name":"baseURI","type":"string","internalType":"string"},{"name":"lockedMetadata","type":"bool","internalType":"bool"}]}],"stateMutability":"view"},{"type":"function","name":"hasAdminPermission","inputs":[{"name":"_addr","type":"address","internalType":"address"}],"outputs":[{"name":"","type":"bool","internalType":"bool"}],"stateMutability":"view"},{"type":"function","name":"init","inputs":[{"name":"_name","type":"string","internalType":"string"},{"name":"_symbol","type":"string","internalType":"string"},{"name":"_creator","type":"address","internalType":"address"},{"name":"_maxTokens","type":"uint256","internalType":"uint256"}],"outputs":[],"stateMutability":"nonpayable"},{"type":"function","name":"isApprovedForAll","inputs":[{"name":"owner","type":"address","internalType":"address"},{"name":"operator","type":"address","internalType":"address"}],"outputs":[{"name":"","type":"bool","internalType":"bool"}],"stateMutability":"view"},{"type":"function","name":"isApprovedMinter","inputs":[{"name":"_address","type":"address","internalType":"address"}],"outputs":[{"name":"","type":"bool","internalType":"bool"}],"stateMutability":"view"},{"type":"function","name":"isOperatorInList","inputs":[{"name":"_operator","type":"address","internalType":"address"}],"outputs":[{"name":"","type":"bool","internalType":"bool"}],"stateMutability":"view"},{"type":"function","name":"lockBaseURI","inputs":[],"outputs":[],"stateMutability":"nonpayable"},{"type":"function","name":"maxTokens","inputs":[],"outputs":[{"name":"","type":"uint256","internalType":"uint256"}],"stateMutability":"view"},{"type":"function","name":"mintTo","inputs":[{"name":"_receiver","type":"address","internalType":"address"}],"outputs":[{"name":"","type":"uint256","internalType":"uint256"}],"stateMutability":"nonpayable"},{"type":"function","name":"name","inputs":[],"outputs":[{"name":"","type":"string","internalType":"string"}],"stateMutability":"view"},{"type":"function","name":"owner","inputs":[],"outputs":[{"name":"","type":"address","internalType":"address"}],"stateMutability":"view"},{"type":"function","name":"ownerOf","inputs":[{"name":"tokenId","type":"uint256","internalType":"uint256"}],"outputs":[{"name":"","type":"address","internalType":"address"}],"stateMutability":"view"},{"type":"function","name":"prepareMint","inputs":[{"name":"_baseURI","type":"string","internalType":"string"},{"name":"_numberOfTokens","type":"uint256","internalType":"uint256"}],"outputs":[],"stateMutability":"nonpayable"},{"type":"function","name":"prepareMintWithMinter","inputs":[{"name":"_baseURI","type":"string","internalType":"string"},{"name":"_numberOfTokens","type":"uint256","internalType":"uint256"},{"name":"_minter","type":"address","internalType":"address"}],"outputs":[],"stateMutability":"nonpayable"},{"type":"function","name":"renounceOwnership","inputs":[],"outputs":[],"stateMutability":"nonpayable"},{"type":"function","name":"royaltyInfo","inputs":[{"name":"_tokenId","type":"uint256","internalType":"uint256"},{"name":"_salePrice","type":"uint256","internalType":"uint256"}],"outputs":[{"name":"receiver","type":"address","internalType":"address"},{"name":"royaltyAmount","type":"uint256","internalType":"uint256"}],"stateMutability":"view"},{"type":"function","name":"safeTransferFrom","inputs":[{"name":"from","type":"address","internalType":"address"},{"name":"to","type":"address","internalType":"address"},{"name":"tokenId","type":"uint256","internalType":"uint256"}],"outputs":[],"stateMutability":"nonpayable"},{"type":"function","name":"safeTransferFrom","inputs":[{"name":"from","type":"address","internalType":"address"},{"name":"to","type":"address","internalType":"address"},{"name":"tokenId","type":"uint256","internalType":"uint256"},{"name":"data","type":"bytes","internalType":"bytes"}],"outputs":[],"stateMutability":"nonpayable"},{"type":"function","name":"setApprovalForAll","inputs":[{"name":"_operator","type":"address","internalType":"address"},{"name":"_approved","type":"bool","internalType":"bool"}],"outputs":[],"stateMutability":"nonpayable"},{"type":"function","name":"setDeadmanListTriggerRenewalDuration","inputs":[{"name":"_numYears","type":"uint256","internalType":"uint256"}],"outputs":[],"stateMutability":"nonpayable"},{"type":"function","name":"setDefaultRoyaltyReceiver","inputs":[{"name":"_receiver","type":"address","internalType":"address"}],"outputs":[],"stateMutability":"nonpayable"},{"type":"function","name":"setMinterApproval","inputs":[{"name":"_minter","type":"address","internalType":"address"},{"name":"_isMinter","type":"bool","internalType":"bool"}],"outputs":[],"stateMutability":"nonpayable"},{"type":"function","name":"setRoyaltyReceiverForToken","inputs":[{"name":"_receiver","type":"address","internalType":"address"},{"name":"_tokenId","type":"uint256","internalType":"uint256"}],"outputs":[],"stateMutability":"nonpayable"},{"type":"function","name":"supportsInterface","inputs":[{"name":"_interfaceId","type":"bytes4","internalType":"bytes4"}],"outputs":[{"name":"","type":"bool","internalType":"bool"}],"stateMutability":"view"},{"type":"function","name":"symbol","inputs":[],"outputs":[{"name":"","type":"string","internalType":"string"}],"stateMutability":"view"},{"type":"function","name":"toggleListType","inputs":[{"name":"_newListType","type":"uint8","internalType":"enum IRoyaltyGuard.ListType"}],"outputs":[],"stateMutability":"nonpayable"},{"type":"function","name":"tokenCreator","inputs":[{"name":"_tokenId","type":"uint256","internalType":"uint256"}],"outputs":[{"name":"","type":"address","internalType":"address payable"}],"stateMutability":"view"},{"type":"function","name":"tokenURI","inputs":[{"name":"_tokenId","type":"uint256","internalType":"uint256"}],"outputs":[{"name":"","type":"string","internalType":"string"}],"stateMutability":"view"},{"type":"function","name":"totalSupply","inputs":[],"outputs":[{"name":"","type":"uint256","internalType":"uint256"}],"stateMutability":"view"},{"type":"function","name":"transferFrom","inputs":[{"name":"from","type":"address","internalType":"address"},{"name":"to","type":"address","internalType":"address"},{"name":"tokenId","type":"uint256","internalType":"uint256"}],"outputs":[],"stateMutability":"nonpayable"},{"type":"function","name":"transferOwnership","inputs":[{"name":"newOwner","type":"address","internalType":"address"}],"outputs":[],"stateMutability":"nonpayable"},{"type":"function","name":"updateBaseURI","inputs":[{"name":"_baseURI","type":"string","internalType":"string"}],"outputs":[],"stateMutability":"nonpayable"},{"type":"function","name":"updateTokenURI","inputs":[{"name":"_tokenId","type":"uint256","internalType":"uint256"},{"name":"_metadataUri","type":"string","internalType":"string"}],"outputs":[],"stateMutability":"nonpayable"},{"type":"event","name":"AddressAddedToList","inputs":[{"name":"_updater","type":"address","indexed":true,"internalType":"address"},{"name":"_addedAddr","type":"address","indexed":true,"internalType":"address"},{"name":"_ListType","type":"uint8","indexed":true,"internalType":"enum IRoyaltyGuard.ListType"}],"anonymous":false},{"type":"event","name":"AddressRemovedList","inputs":[{"name":"_updater","type":"address","indexed":true,"internalType":"address"},{"name":"_removedAddr","type":"address","indexed":true,"internalType":"address"},{"name":"_ListType","type":"uint8","indexed":true,"internalType":"enum IRoyaltyGuard.ListType"}],"anonymous":false},{"type":"event","name":"Approval","inputs":[{"name":"owner","type":"address","indexed":true,"internalType":"address"},{"name":"approved","type":"address","indexed":true,"internalType":"address"},{"name":"tokenId","type":"uint256","indexed":true,"internalType":"uint256"}],"anonymous":false},{"type":"event","name":"ApprovalForAll","inputs":[{"name":"owner","type":"address","indexed":true,"internalType":"address"},{"name":"operator","type":"address","indexed":true,"internalType":"address"},{"name":"approved","type":"bool","indexed":false,"internalType":"bool"}],"anonymous":false},{"type":"event","name":"ContractDisabled","inputs":[{"name":"user","type":"address","indexed":true,"internalType":"address"}],"anonymous":false},{"type":"event","name":"DeadmanTriggerActivated","inputs":[{"name":"_activator","type":"address","indexed":true,"internalType":"address"}],"anonymous":false},{"type":"event","name":"DeadmanTriggerDatetimeUpdated","inputs":[{"name":"_updater","type":"address","indexed":true,"internalType":"address"},{"name":"_oldDatetime","type":"uint256","indexed":false,"internalType":"uint256"},{"name":"_newDatetime","type":"uint256","indexed":false,"internalType":"uint256"}],"anonymous":false},{"type":"event","name":"Initialized","inputs":[{"name":"version","type":"uint8","indexed":false,"internalType":"uint8"}],"anonymous":false},{"type":"event","name":"ListCleared","inputs":[{"name":"_updater","type":"address","indexed":true,"internalType":"address"},{"name":"_listType","type":"uint8","indexed":false,"internalType":"enum IRoyaltyGuard.ListType"}],"anonymous":false},{"type":"event","name":"ListTypeUpdated","inputs":[{"name":"_updater","type":"address","indexed":true,"internalType":"address"},{"name":"_oldListType","type":"uint8","indexed":true,"internalType":"enum IRoyaltyGuard.ListType"},{"name":"_newListType","type":"uint8","indexed":true,"internalType":"enum IRoyaltyGuard.ListType"}],"anonymous":false},{"type":"event","name":"MetadataLocked","inputs":[{"name":"baseURI","type":"string","indexed":false,"internalType":"string"}],"anonymous":false},{"type":"event","name":"MetadataUpdated","inputs":[{"name":"baseURI","type":"string","indexed":false,"internalType":"string"}],"anonymous":false},{"type":"event","name":"OwnershipTransferred","inputs":[{"name":"previousOwner","type":"address","indexed":true,"internalType":"address"},{"name":"newOwner","type":"address","indexed":true,"internalType":"address"}],"anonymous":false},{"type":"event","name":"PrepareMint","inputs":[{"name":"numberOfTokens","type":"uint256","indexed":true,"internalType":"uint256"},{"name":"baseURI","type":"string","indexed":false,"internalType":"string"}],"anonymous":false},{"type":"event","name":"TokenURIUpdated","inputs":[{"name":"tokenId","type":"uint256","indexed":true,"internalType":"uint256"},{"name":"metadataUri","type":"string","indexed":false,"internalType":"string"}],"anonymous":false},{"type":"event","name":"Transfer","inputs":[{"name":"from","type":"address","indexed":true,"internalType":"address"},{"name":"to","type":"address","indexed":true,"internalType":"address"},{"name":"tokenId","type":"uint256","indexed":true,"internalType":"uint256"}],"anonymous":false},{"type":"error","name":"CantAddToOFFList","inputs":[]},{"type":"error","name":"DeadmanTriggerStillActive","inputs":[]},{"type":"error","name":"MustBeAdmin","inputs":[]},{"type":"error","name":"Unauthorized","inputs":[]}],"bytecode":{"object":"0x6080806040523461001657613551908161001c8239f35b600080fdfe60406080815260048036101561001457600080fd5b600090813560e01c8063012cf1e8146121ac57806301ffc9a7146120d457806306fdde031461202a578063081812fc14612009578063095ea7b314611dec5780630de54ba014611d9d57806318160ddd14611d7d57806318e97fd114611b995780632042748614611b6557806321c4a5d814611aae57806323b872dd14611a895780632a55205a146119f65780632ce878da146119835780633403c4e91461195a5780633a3d146f1461191b5780633ebc82c5146118d957806340c1a064146118af57806342842e0e1461187b57806342966c681461185f578063472a6638146117c057806353df5c7c1461175e5780635aec8d62146116b65780635edc7c19146111ae5780636297c16c146111305780636352211e146110fe57806370a082311461106a578063715018a61461100d578063717392ed14610fed578063755edd1714610daa57806387bc793f14610d82578063894ba83314610d345780638da5cb5b14610d0b578063931688cb14610b3e5780639338bb5d14610aa557806395d89b41146109c05780639e860f2a146108bb578063a22cb4651461075d578063ab69607a1461073e578063b390ac2514610705578063b88d4fde1461067c578063b9fbd25c146105fd578063bc7194551461054f578063c87b56dd14610513578063e8315742146104f3578063e985e9c5146104a5578063eab851181461044a578063ee07080514610427578063efc32cd4146103d8578063f2fde38b146103415763ff6e8c8f1461024657600080fd5b3461033d57610254366123a6565b6033546001600160a01b0396908716330361032e57600384101561031b57831561030c575090610285913691612bde565b93835b8551811015610308576102b061029d84612c44565b836102a8848a612c5e565b511690612ca0565b5082826102bd8389612c5e565b5116337f14155f749dc3f9cd2bf890d6d3a47069f77ae35befcee11c8b1a3ba41cba15368880a460001981146102f557600101610288565b634e487b7160e01b855260118452602485fd5b8480f35b51632de777a160e11b81528490fd5b634e487b7160e01b865260218552602486fd5b51635c510c8360e11b81528490fd5b5080fd5b508290346103d45760203660031901126103d45761035d6122a5565b916103666124bd565b6001600160a01b03831615610382578361037f84612515565b80f35b906020608492519162461bcd60e51b8352820152602660248201527f4f776e61626c653a206e6577206f776e657220697320746865207a65726f206160448201526564647265737360d01b6064820152fd5b8280fd5b82843461033d578060031936011261033d576103f26122a5565b906103fb6124bd565b602435835260fd602052822080546001600160a01b0319166001600160a01b0390921691909117905580f35b82843461033d578160031936011261033d5760209060ff80541690519015158152f35b82843461033d57602036600319011261033d5760209061049c61046b6122a5565b61047a60ff6101095416612c44565b6001600160a01b03909116600090815260019091016020526040902054151590565b90519015158152f35b82843461033d578060031936011261033d5760ff816020936104c56122a5565b6104cd6122d6565b6001600160a01b039182168352609c875283832091168252855220549151911615158152f35b82843461033d578160031936011261033d57602090610100549051908152f35b5091903461054c57602036600319011261054c57506105356105489235612f37565b9051918291602083526020830190612280565b0390f35b80fd5b5082346103d45760203660031901126103d45781359160038310156105f9576033546001600160a01b031633036105eb575061058a82612c44565b805490848155816105cd575b50507f7efc19cf93d497a6a56103ea89a39d51c0cad74a817ed3cd0ecaff9823d4da249051806105c733948261237d565b0390a280f35b845260208420908101905b81811015610596578481556001016105d8565b9051635c510c8360e11b8152fd5b8380fd5b508290346103d45760603660031901126103d45780356001600160401b0381116105f95761065b916106319136910161231b565b919061063b6122c0565b926106446124bd565b61065260ff80541615612ec3565b6024359161327f565b6001600160a01b031682526101026020528120805460ff1916600117905580f35b503461033d57608036600319011261033d576106966122a5565b9061069f6122d6565b91604435606435936001600160401b0385116107015736602386011215610701576106d96106fc9486602461037f98369301359101612486565b926106ec6106e784336127c6565b6126ed565b6106f783838361288e565b612abb565b6127a2565b8580fd5b5082346103d45736600319011261033d5780356001600160401b0381116103d45761037f916107369136910161231b565b6106446124bd565b82843461033d578160031936011261033d5760209060fc549051908152f35b5082346103d45761076d366122ec565b919060ff6101095416600381101561031b57600181036108715750600180865261010860209081528387206001600160a01b038416600090815292019052604090205415610862575b6001600160a01b0316923384146108205750338452609c6020528084208385526020526107f1828286209060ff801983541691151516179055565b5190151581527f17307eab39ab6107e8899845ad3d59bd9653f200f220920489ca2b5937696c3160203392a380f35b6020606492519162461bcd60e51b8352820152601960248201527f4552433732313a20617070726f766520746f2063616c6c6572000000000000006044820152fd5b81516282b42960e81b81528490fd5b6002036107b657600285526101086020526108a782862060018060a01b0383169060019160005201602052604060002054151590565b156107b65781516282b42960e81b81528490fd5b503461033d576108ca366123a6565b6033546001600160a01b0396908716330361032e5750906108ec913691612bde565b93600382101590816109ad5782610901578480f35b845b865181101561099d5761092b61091885612c44565b83610923848b612c5e565b511690612d13565b508282610938838a612c5e565b51169061098a578490337fc72e29af1b34de3dec3a764b4ca4d85b9c380ab33b9b268d29b6e7008bd0ed958980a4600019811461097757600101610903565b634e487b7160e01b865260118552602486fd5b634e487b7160e01b875260218652602487fd5b5050505050905080388080808480f35b634e487b7160e01b855260218452602485fd5b82843461033d578160031936011261033d57805190826098546109e2816125d0565b80855291600191808316908115610a7d5750600114610a20575b505050610a0e8261054894038361244a565b51918291602083526020830190612280565b9450609885527f2237a976fa961f5921fd19f2b03c925c725d77b20ce8f790c19709c03de4d8145b828610610a6557505050610a0e82602061054895820101946109fc565b80546020878701810191909152909501948101610a48565b610548975086935060209250610a0e94915060ff191682840152151560051b820101946109fc565b50503461054c578060031936011261054c57818051610ac3816123fe565b8281526060602082015201528051610ada816123fe565b610105548152815191610af783610af08161260a565b038461244a565b60208201928352610b3160ff6101075416918084019215158352606081519586956020875251602087015251918501526080840190612280565b9051151560608301520390f35b503461033d576020806003193601126103d4576001600160401b03908235828111610d0757610b70903690850161231b565b939092610b7b6124bd565b60ff6101075416610cbb578411610ca8575061010690610ba484610b9f84546125d0565b612e63565b8490601f8511600114610c11575094610c00918486977f1c306e70c05992619e2128ad1ef88df75f36c9476282e59f51401b2abaa42e4e9791610c06575b508560011b906000198760031b1c19161790555b5192839283612f0f565b0390a180f35b905084013538610be2565b90601f1985168387526000805160206134fc8339815191529287905b828210610c9057505091610c009391867f1c306e70c05992619e2128ad1ef88df75f36c9476282e59f51401b2abaa42e4e98999410610c76575b5050600185811b019055610bf6565b850135600019600388901b60f8161c191690553880610c67565b80600185968294968a01358155019501930190610c2d565b634e487b7160e01b855260419052602484fd5b5060849186519162461bcd60e51b8352820152602160248201527f757064617465426173655552493a3a6d65746164617461206973206c6f636b656044820152601960fa1b6064820152fd5b8480fd5b82843461033d578160031936011261033d5760335490516001600160a01b039091168152602090f35b823461054c578060031936011261054c57610d4d6124bd565b600160ff1960ff54161760ff55337f793bc6423dd0257d64f9d47db72fd4b2162f4541aa41740ba1c5fb5e2cd41bcd8280a280f35b82843461033d578160031936011261033d576105489060ff610109541690519182918261237d565b50913461033d57602092836003193601126103d457610dc76122a5565b92610dd660ff80541615612ec3565b6033546001600160a01b039190821633148015610fd8575b15610f7c5760fc548260fb541692610104966001885401809855610100548811610f3b57865191610e1e8361242f565b8483528116958615610efa57506106fc8794939289610edd93610e5f610e5983600052609960205260018060a01b0360406000205416151590565b15613233565b600082815260996020526040902054610e82906001600160a01b03161515610e59565b898752609a8d528787206001815401905581875260998d52818888209a6001600160601b0360a01b9b818d825416179055887fddf252ad1be2c89b69c2b068fc378daa952ba7f163c4a11628f55a4df523b3ef8180a461299f565b86825260fe88528282205560fd8752209182541617905551908152f35b6064908a808a519262461bcd60e51b845283015260248201527f4552433732313a206d696e7420746f20746865207a65726f20616464726573736044820152fd5b6064868a808a519262461bcd60e51b845283015260248201527f5f637265617465546f6b656e3a3a6578636565646564206d6178546f6b656e736044820152fd5b835162461bcd60e51b8152808401879052603060248201527f6c617a794d696e743a3a6f6e6c79206f776e6572206f7220617070726f76656460448201526f081b5a5b9d195c8818d85b881b5a5b9d60821b6064820152608490fd5b50338152610102865260ff8482205416610dee565b82843461033d578160031936011261033d5760209061010a549051908152f35b823461054c578060031936011261054c576110266124bd565b603380546001600160a01b0319811690915581906001600160a01b03167f8be0079c531659141344cd1fd0a4f28419497f9722a3daafe3b4186f6b6457e08280a380f35b503461033d57602036600319011261033d576001600160a01b0361108c6122a5565b169081156110a9576020848085858152609a845220549051908152f35b608490602085519162461bcd60e51b8352820152602960248201527f4552433732313a2061646472657373207a65726f206973206e6f7420612076616044820152683634b21037bbb732b960b91b6064820152fd5b5091903461054c57602036600319011261054c575061111f602092356125aa565b90516001600160a01b039091168152f35b508290346103d45760203660031901126103d457803591611150836125aa565b336001600160a01b039091160361116b578361037f84612b46565b906020606492519162461bcd60e51b8352820152601f60248201527f4d75737420626520746865206f776e6572206f662074686520746f6b656e2e006044820152fd5b503461033d57608036600319011261033d576001600160401b039281358481116105f9576111df903690840161231b565b9290602435868111610701576111f8903690840161231b565b6112039791976122c0565b9387549860ff94858b60081c16159889809a6116aa575b8015611694575b1561163a5760ff19808d1660019081178d559b9c999a998a611629575b506001600160a01b038916156115e6579161129191611281898f6112999796600a60fc558254168255606435610100555460081c1661127c81612e03565b612e03565b61128a33612515565b3691612486565b933691612486565b906112ad858b5460081c1661127c81612e03565b82518481116115d357806112c26097546125d0565b94601f95868111611562575b506020908d8784116001146114e357926114d8575b5050600019600383901b1c1916908a1b176097555b81519384116114c5575061130d6098546125d0565b828111611462575b5060209183116001146113d657918061138a959492611362948b926113cb575b5050600019600383901b1c191690881b176098555b875460081c1661135981612e03565b61127c81612e03565b60fb80546001600160a01b0319166001600160a01b0383161790556113856124bd565b612515565b611392578280f35b825461ff0019168355519081527f7f26b83ff96e1f2b6a682f133852f6798a09c465da95921460cefb384740249890602090a138808280f35b015190503880611335565b609889528792917f2237a976fa961f5921fd19f2b03c925c725d77b20ce8f790c19709c03de4d81491601f1984168b5b81811061144a5750916113629593918561138a9998969410611431575b505050811b0160985561134a565b015160001960f88460031b161c19169055388080611423565b8284015185558b969094019360209384019301611406565b60988a527f2237a976fa961f5921fd19f2b03c925c725d77b20ce8f790c19709c03de4d8148380860160051c820192602087106114bc575b0160051c019089905b8281106114b1575050611315565b8b81550189906114a3565b9250819261149a565b634e487b7160e01b8a5260419052602489fd5b0151905038806112e3565b91908d9450601f198416609784527f354a83ed9988f79f6038d4c7a7dadbad8af32f4ad6df893e0e5807a1b1944ff9935b81811061154a57508411611531575b505050811b016097556112f8565b015160001960f88460031b161c19169055388080611523565b8284015185558f969094019360209384019301611514565b90915060978d527f354a83ed9988f79f6038d4c7a7dadbad8af32f4ad6df893e0e5807a1b1944ff98680850160051c820192602086106115ca575b859493910160051c909101908d908f5b8382106115bc575050506112ce565b81558594508e91018f6115ad565b9250819261159d565b634e487b7160e01b8b526041825260248bfd5b8a5162461bcd60e51b8152602081870152601e60248201527f63726561746f722063616e6e6f74206265206e756c6c206164647265737300006044820152606490fd5b61ffff1916610101178d553861123e565b885162461bcd60e51b8152602081860152602e60248201527f496e697469616c697a61626c653a20636f6e747261637420697320616c72656160448201526d191e481a5b9a5d1a585b1a5e995960921b6064820152608490fd5b50303b15801561122157506001878d1614611221565b506001878d161061121a565b5082346103d457826003193601126103d45761010a54421061175157506101099081549060ff821690600382101561173e57508390337f12282389323caf08dd4e02c490ef05bc7edb56967c085742687aad3cc81aa15f8380a460ff19169055337f60faf76514baf225c418dfc1e3c75bed0bd280f0436999e12cb0a73acb0f9a468280a280f35b634e487b7160e01b855260219052602484fd5b5163807a684760e01b8152fd5b82843461033d578160031936011261033d577fb634b0cb94234b05eabb1438717e0e645bfd84788ae1263682242327563cde5e9061179a6124bd565b5160208152806117ac6020820161260a565b0390a1610107805460ff1916600117905580f35b508290346103d45760203660031901126103d45780359160038310156105f9576033546001600160a01b0316330361185257506101099182549160ff831690600382101561183f5750908060ff92337f12282389323caf08dd4e02c490ef05bc7edb56967c085742687aad3cc81aa15f8880a4169060ff191617905580f35b634e487b7160e01b865260219052602485fd5b51635c510c8360e11b8152fd5b503461033d57602036600319011261033d5761037f9035612b46565b82843461033d576106fc61037f9161189236612348565b9192519261189f8461242f565b8684526106ec6106e784336127c6565b82843461033d57602036600319011261033d5760335490516001600160a01b039091168152602090f35b823461054c57602036600319011261054c5761037f6118f66122a5565b6118fe6124bd565b60018060a01b03166001600160601b0360a01b60fb54161760fb55565b82843461033d57602036600319011261033d5760209160ff9082906001600160a01b036119466122a5565b168152610102855220541690519015158152f35b82843461033d578160031936011261033d5760fb5490516001600160a01b039091168152602090f35b50503461054c578060031936011261054c576119a460ff6101095416612c44565b9180519182845490818152602080910195835280832092905b8282106119df5761054886866119d5828b038361244a565b5191829182612219565b8354875295860195600193840193909101906119bd565b5091903461054c578160031936011261054c578235815260fd60205281812054602435906001600160a01b039081168015611a7d57925b60fe602052848120548015611a7357925b838102938185041490151715611a605750835192168252606490046020820152f35b634e487b7160e01b815260118652602490fd5b5060fc5492611a3e565b508060fb541692611a2d565b823461054c5761037f611a9b36612348565b91611aa96106e784336127c6565b61288e565b5082346103d45760203660031901126103d4576033548235906001600160a01b03163303611b57576301e1338090818102918183041490151715611b4457420191824211611b31575061010a907f6e948191a35d69000746799fef50c705bbdc93bd5a7577e9e9eb879c04bdebc982549180519283528460208401523392a25580f35b634e487b7160e01b845260119052602483fd5b634e487b7160e01b845260118352602484fd5b5051635c510c8360e11b8152fd5b82843461033d57602036600319011261033d57602090611b836122a5565b60018060a01b0380603354169116149051908152f35b503461033d578260031936011261033d578035906001600160401b0390602435828111610d0757611bcd903690830161231b565b929091611bd86124bd565b60ff6101075416611d2f578486526020906101038252878720928511611d1c5750611c0382546125d0565b601f8111611cd9575b508590601f8511600114611c685750956105c7918487987f931f495b9a8e5d8e61946ea5d61e021f636cfe213a801f97589c18c152e408bd979891610c0657508560011b906000198760031b1c19161790555192839283612f0f565b90601f1985168388528288209288905b828210611cc1575050916105c79391867f931f495b9a8e5d8e61946ea5d61e021f636cfe213a801f97589c18c152e408bd98999a9410610c76575050600185811b019055610bf6565b80600185968294968a01358155019501930190611c78565b828752818720601f860160051c810191838710611d12575b601f0160051c01905b818110611d075750611c0c565b878155600101611cfa565b9091508190611cf1565b634e487b7160e01b875260419052602486fd5b608490602088519162461bcd60e51b8352820152602260248201527f757064617465546f6b656e5552493a3a6d65746164617461206973206c6f636b604482015261195960f21b6064820152fd5b82843461033d578160031936011261033d57602090610104549051908152f35b82843461033d5761037f90611db1366122ec565b9190611dbb6124bd565b611dc960ff80541615612ec3565b60018060a01b0316845261010260205283209060ff801983541691151516179055565b508290346103d457816003193601126103d457611e076122a5565b906024359260ff61010954166003811015611ff65760018103611faf5750600180865261010860209081528287206001600160a01b038616600090815292019052604090205415611fa3575b6001600160a01b03918280611e67876125aa565b16941693808514611f5657803314908115611f37575b5015611ecf5750838552609b602052842080546001600160a01b03191683179055611ea7836125aa565b167f8c5be1e5ebec7d5bd14f71427d1e84f3dd0314c0f7b2291e5b200ac8c7c3b9258480a480f35b6020608492519162461bcd60e51b8352820152603d60248201527f4552433732313a20617070726f76652063616c6c6572206973206e6f7420746f60448201527f6b656e206f776e6572206f7220617070726f76656420666f7220616c6c0000006064820152fd5b90508652609c60205281862033875260205260ff828720541687611e7d565b506020608492519162461bcd60e51b8352820152602160248201527f4552433732313a20617070726f76616c20746f2063757272656e74206f776e656044820152603960f91b6064820152fd5b516282b42960e81b8152fd5b600203611e535760028552610108602052611fe581862060018060a01b0385169060019160005201602052604060002054151590565b15611e5357516282b42960e81b8152fd5b634e487b7160e01b865260218352602486fd5b5091903461054c57602036600319011261054c575061111f602092356126af565b82843461033d578160031936011261033d578051908260975461204c816125d0565b80855291600191808316908115610a7d575060011461207757505050610a0e8261054894038361244a565b9450609785527f354a83ed9988f79f6038d4c7a7dadbad8af32f4ad6df893e0e5807a1b1944ff95b8286106120bc57505050610a0e82602061054895820101946109fc565b8054602087870181019190915290950194810161209f565b508290346103d45760203660031901126103d45735906001600160e01b031982168083036105f9576020935063fa31a45b60e01b811492831561219b575b8315612123575b5050519015158152f35b919250631030681960e21b81149190821561218a575b8215612161575b508115612151575b50908380612119565b61215b91506134b7565b83612148565b90915063152a902d60e11b14801561217b575b9084612140565b50612185816134b7565b612174565b6301ffc9a760e01b81149250612139565b6301ffc9a760e01b82149350612112565b5082346103d457602091826003193601126105f9573560038110156105f9576121d490612c44565b9281518093808654928381520195835280832092905b8282106122025761054886866119d5828b038361244a565b8354875295860195600193840193909101906121ea565b6020908160408183019282815285518094520193019160005b828110612240575050505090565b83516001600160a01b031685529381019392810192600101612232565b60005b8381106122705750506000910152565b8181015183820152602001612260565b906020916122998151809281855285808601910161225d565b601f01601f1916010190565b600435906001600160a01b03821682036122bb57565b600080fd5b604435906001600160a01b03821682036122bb57565b602435906001600160a01b03821682036122bb57565b60409060031901126122bb576004356001600160a01b03811681036122bb579060243580151581036122bb5790565b9181601f840112156122bb578235916001600160401b0383116122bb57602083818601950101116122bb57565b60609060031901126122bb576001600160a01b039060043582811681036122bb579160243590811681036122bb579060443590565b9190602083019260038210156123905752565b634e487b7160e01b600052602160045260246000fd5b60406003198201126122bb5760043560038110156122bb57916024356001600160401b03928382116122bb57806023830112156122bb5781600401359384116122bb5760248460051b830101116122bb576024019190565b606081019081106001600160401b0382111761241957604052565b634e487b7160e01b600052604160045260246000fd5b602081019081106001600160401b0382111761241957604052565b90601f801991011681019081106001600160401b0382111761241957604052565b6001600160401b03811161241957601f01601f191660200190565b9291926124928261246b565b916124a0604051938461244a565b8294818452818301116122bb578281602093846000960137010152565b6033546001600160a01b031633036124d157565b606460405162461bcd60e51b815260206004820152602060248201527f4f776e61626c653a2063616c6c6572206973206e6f7420746865206f776e65726044820152fd5b603380546001600160a01b039283166001600160a01b0319821681179092559091167f8be0079c531659141344cd1fd0a4f28419497f9722a3daafe3b4186f6b6457e0600080a3565b1561256557565b60405162461bcd60e51b815260206004820152601860248201527f4552433732313a20696e76616c696420746f6b656e20494400000000000000006044820152606490fd5b6000908152609960205260409020546001600160a01b03166125cd81151561255e565b90565b90600182811c92168015612600575b60208310146125ea57565b634e487b7160e01b600052602260045260246000fd5b91607f16916125df565b9060009161010690815461261d816125d0565b8083529260019180831690811561268a575060011461263d575b50505050565b90929394506000526000805160206134fc833981519152916000925b8484106126725750506020925001019038808080612637565b80546020858501810191909152909301928101612659565b92505050602093945060ff929192191683830152151560051b01019038808080612637565b6000818152609960205260409020546126d2906001600160a01b0316151561255e565b6000908152609b60205260409020546001600160a01b031690565b156126f457565b60405162461bcd60e51b815260206004820152602d60248201527f4552433732313a2063616c6c6572206973206e6f7420746f6b656e206f776e6560448201526c1c881bdc88185c1c1c9bdd9959609a1b6064820152608490fd5b60809060208152603260208201527f4552433732313a207472616e7366657220746f206e6f6e20455243373231526560408201527131b2b4bb32b91034b6b83632b6b2b73a32b960711b60608201520190565b156127a957565b60405162461bcd60e51b8152806127c26004820161274f565b0390fd5b906001600160a01b0380806127da846125aa565b1693169183831493841561280d575b5083156127f7575b50505090565b612803919293506126af565b16143880806127f1565b909350600052609c60205260406000208260005260205260ff6040600020541692386127e9565b1561283b57565b60405162461bcd60e51b815260206004820152602560248201527f4552433732313a207472616e736665722066726f6d20696e636f72726563742060448201526437bbb732b960d91b6064820152608490fd5b906128b69161289c846125aa565b6001600160a01b0393918416928492909183168414612834565b1691821561294e57816128d3916128cc866125aa565b1614612834565b7fddf252ad1be2c89b69c2b068fc378daa952ba7f163c4a11628f55a4df523b3ef6000848152609b602052604081206001600160601b0360a01b90818154169055838252609a6020526040822060001981540190558482526040822060018154019055858252609960205284604083209182541617905580a4565b60405162461bcd60e51b8152602060048201526024808201527f4552433732313a207472616e7366657220746f20746865207a65726f206164646044820152637265737360e01b6064820152608490fd5b9192600092909190803b15612ab1576129ed946040518092630a85bd0160e11b9485835233600484015287602484015260448301526080606483015281878160209a8b966084830190612280565b03926001600160a01b03165af1849181612a71575b50612a60575050503d600014612a58573d612a1c8161246b565b90612a2a604051928361244a565b81528091833d92013e5b80519182612a555760405162461bcd60e51b8152806127c26004820161274f565b01fd5b506060612a34565b6001600160e01b0319161492509050565b9091508581813d8311612aaa575b612a89818361244a565b81010312610d0757516001600160e01b031981168103610d07579038612a02565b503d612a7f565b5050915050600190565b9293600093909291803b15612b3b57948491612b159660405180948193630a85bd0160e11b9788845233600485015260018060a01b0380921660248501526044840152608060648401528260209b8c976084830190612280565b0393165af1849181612a715750612a60575050503d600014612a58573d612a1c8161246b565b505050915050600190565b612b536106e782336127c6565b612b5c816125aa565b50612b66816125aa565b6000828152609b6020908152604080832080546001600160a01b03199081169091556001600160a01b03909416808452609a83528184208054600019019055858452609990925282208054909316909255907fddf252ad1be2c89b69c2b068fc378daa952ba7f163c4a11628f55a4df523b3ef8280a4565b9092916001600160401b038411612419578360051b6040519260208094612c078285018261244a565b80978152019181019283116122bb57905b828210612c255750505050565b81356001600160a01b03811681036122bb578152908301908301612c18565b600381101561239057600052610108602052604060002090565b8051821015612c725760209160051b010190565b634e487b7160e01b600052603260045260246000fd5b8054821015612c725760005260206000200190600090565b6000828152600182016020526040902054612d0c57805490680100000000000000008210156124195782612cf5612cde846001809601855584612c88565b819391549060031b91821b91600019901b19161790565b905580549260005201602052604060002055600190565b5050600090565b90600182019060009281845282602052604084205490811515600014612dfc5760001991808301818111612de857825490848201918211612dd457808203612d9f575b50505080548015612d8b57820191612d6e8383612c88565b909182549160031b1b191690555582526020526040812055600190565b634e487b7160e01b86526031600452602486fd5b612dbf612daf612cde9386612c88565b90549060031b1c92839286612c88565b90558652846020526040862055388080612d56565b634e487b7160e01b88526011600452602488fd5b634e487b7160e01b87526011600452602487fd5b5050505090565b15612e0a57565b60405162461bcd60e51b815260206004820152602b60248201527f496e697469616c697a61626c653a20636f6e7472616374206973206e6f74206960448201526a6e697469616c697a696e6760a81b6064820152608490fd5b601f8111612e6f575050565b60009061010682526000805160206134fc833981519152906020601f850160051c83019410612eb9575b601f0160051c01915b828110612eae57505050565b818155600101612ea2565b9092508290612e99565b15612eca57565b60405162461bcd60e51b815260206004820152601e60248201527f436f6e7472616374206d757374206e6f742062652064697361626c65642e00006044820152606490fd5b90918060409360208452816020850152848401376000828201840152601f01601f1916010190565b60009080825261010390602090828252604092612f56848620546125d0565b61318b575092839281907a184f03e93ff9f4daa797ed6e38ed64bf6a1f010000000000000000858181101561317e575b50506d04ee2d6d415b85acef810000000080861015613170575b50662386f26fc1000080861015613161575b506305f5e10080861015613152575b5061271080861015613143575b506064851015613133575b600a80951015613129575b6001948584019686602161300f612ffa8b61246b565b9a61300787519c8d61244a565b808c5261246b565b8a89019790601f19013689378a0101905b6130fa575b50505051948593826101069081549161303d836125d0565b928981169081156130d95750600114613092575b50505050600693928261307e64173539b7b760d91b93602f60f81b6125cd9996525180938684019061225d565b01918201520360191981018452018261244a565b815292935090916000805160206134fc8339815191525b8282106130c357505084010190828161307e6125cd613051565b80548983018501528896509083019087016130a9565b60ff1916858a0152505050801515028501019150828161307e6125cd613051565b600019019082906f181899199a1a9b1b9c1cb0b131b232b360811b8282061a8353049087826130205750613025565b9160010191612fe4565b9193606460029104940191612fd9565b60049193950494019138612fce565b60089193950494019138612fc1565b60109193950494019138612fb2565b849193950494019138612fa0565b0494509150813880612f86565b90849392935282528083209051928391818154906131a8826125d0565b8086529260019280841690811561320f57506001146131d2575b505050506125cd9250038261244a565b815285812095935091905b8183106131f75750506125cd9350820101388080806131c2565b855487840185015294850194869450918301916131dd565b93505050506125cd94925060ff191682840152151560051b820101388080806131c2565b1561323a57565b60405162461bcd60e51b815260206004820152601c60248201527f4552433732313a20746f6b656e20616c7265616479206d696e746564000000006044820152606490fd5b929190610100548211613473576101045461341457604051936132a1856123fe565b8285526132af368383612486565b6020908082880152604087019160009788845251610105558151906001600160401b03821161340057610106926132ea83610b9f86546125d0565b81601f841160011461336b57509082917f6f1d651e6e0c8f86bd32a20c22a644d1e34fabf72307ff95d51b9f5892ddba1998999a92613360575b50508160011b916000199060031b1c19161790555b5115156101079060ff8019835416911617905561335b60405192839283612f0f565b0390a2565b015190503880613324565b848b5292996000805160206134fc83398151915293601f198c1691905b8282106133e857505091600193918b7f6f1d651e6e0c8f86bd32a20c22a644d1e34fabf72307ff95d51b9f5892ddba199a9b9c94106133cf575b505050811b019055613339565b015160001960f88460031b161c191690553880806133c2565b80600186978294978701518155019601940190613388565b634e487b7160e01b89526041600452602489fd5b60405162461bcd60e51b815260206004820152603160248201527f5f707265706172654d696e743a3a63616e206f6e6c792070726570617265206d604482015270696e742077697468203020746f6b656e7360781b6064820152608490fd5b606460405162461bcd60e51b815260206004820152602060248201527f5f707265706172654d696e743a3a6578636565646564206d6178546f6b656e736044820152fd5b63ffffffff60e01b166380ac58cd60e01b81149081156134ea575b81156134dc575090565b6301ffc9a760e01b14919050565b635b5e139f60e01b811491506134d256fec9ef9fceea91e87b2c84ea400a44fde78842aae8aa24cd4b502ce5fb4d91e63ba2646970667358221220b8968dc29c8c48e0866375ea26516ac82f253e346d7f6867a8d6075fab514a4764736f6c63430008120033","linkReferences":{}},"methodIdentifiers":{"activateDeadmanListTrigger()":"5aec8d62","approve(address,uint256)":"095ea7b3","balanceOf(address)":"70a08231","batchAddAddressToRoyaltyList(uint8,address[])":"ff6e8c8f","batchRemoveAddressToRoyaltyList(uint8,address[])":"9e860f2a","burn(uint256)":"42966c68","clearList(uint8)":"bc719455","deleteToken(uint256)":"6297c16c","disableContract()":"894ba833","disabled()":"ee070805","getApproved(uint256)":"081812fc","getDeadmanTriggerAvailableDatetime()":"717392ed","getDefaultRoyaltyPercentage()":"ab69607a","getDefaultRoyaltyReceiver()":"3403c4e9","getInUseList()":"2ce878da","getList(uint8)":"012cf1e8","getListType()":"87bc793f","getMintConfig()":"9338bb5d","hasAdminPermission(address)":"20427486","init(string,string,address,uint256)":"5edc7c19","isApprovedForAll(address,address)":"e985e9c5","isApprovedMinter(address)":"3a3d146f","isOperatorInList(address)":"eab85118","lockBaseURI()":"53df5c7c","maxTokens()":"e8315742","mintTo(address)":"755edd17","name()":"06fdde03","owner()":"8da5cb5b","ownerOf(uint256)":"6352211e","prepareMint(string,uint256)":"b390ac25","prepareMintWithMinter(string,uint256,address)":"b9fbd25c","renounceOwnership()":"715018a6","royaltyInfo(uint256,uint256)":"2a55205a","safeTransferFrom(address,address,uint256)":"42842e0e","safeTransferFrom(address,address,uint256,bytes)":"b88d4fde","setApprovalForAll(address,bool)":"a22cb465","setDeadmanListTriggerRenewalDuration(uint256)":"21c4a5d8","setDefaultRoyaltyReceiver(address)":"3ebc82c5","setMinterApproval(address,bool)":"0de54ba0","setRoyaltyReceiverForToken(address,uint256)":"efc32cd4","supportsInterface(bytes4)":"01ffc9a7","symbol()":"95d89b41","toggleListType(uint8)":"472a6638","tokenCreator(uint256)":"40c1a064","tokenURI(uint256)":"c87b56dd","totalSupply()":"18160ddd","transferFrom(address,address,uint256)":"23b872dd","transferOwnership(address)":"f2fde38b","updateBaseURI(string)":"931688cb","updateTokenURI(uint256,string)":"18e97fd1"},"id":207}