{"abi":[{"type":"function","name":"approve","inputs":[{"name":"to","type":"address","internalType":"address"},{"name":"tokenId","type":"uint256","internalType":"uint256"}],"outputs":[],"stateMutability":"nonpayable"},{"type":"function","name":"balanceOf","inputs":[{"name":"owner","type":"address","internalType":"address"}],"outputs":[{"name":"","type":"uint256","internalType":"uint256"}],"stateMutability":"view"},{"type":"function","name":"burn","inputs":[{"name":"tokenId","type":"uint256","internalType":"uint256"}],"outputs":[],"stateMutability":"nonpayable"},{"type":"function","name":"deleteToken","inputs":[{"name":"_tokenId","type":"uint256","internalType":"uint256"}],"outputs":[],"stateMutability":"nonpayable"},{"type":"function","name":"disableContract","inputs":[],"outputs":[],"stateMutability":"nonpayable"},{"type":"function","name":"disabled","inputs":[],"outputs":[{"name":"","type":"bool","internalType":"bool"}],"stateMutability":"view"},{"type":"function","name":"getApproved","inputs":[{"name":"tokenId","type":"uint256","internalType":"uint256"}],"outputs":[{"name":"","type":"address","internalType":"address"}],"stateMutability":"view"},{"type":"function","name":"getDefaultRoyaltyPercentage","inputs":[],"outputs":[{"name":"","type":"uint256","internalType":"uint256"}],"stateMutability":"view"},{"type":"function","name":"getDefaultRoyaltyReceiver","inputs":[],"outputs":[{"name":"","type":"address","internalType":"address"}],"stateMutability":"view"},{"type":"function","name":"getMintConfig","inputs":[],"outputs":[{"name":"","type":"tuple","internalType":"struct LazySovereignNFT.MintConfig","components":[{"name":"numberOfTokens","type":"uint256","internalType":"uint256"},{"name":"baseURI","type":"string","internalType":"string"},{"name":"lockedMetadata","type":"bool","internalType":"bool"}]}],"stateMutability":"view"},{"type":"function","name":"init","inputs":[{"name":"_name","type":"string","internalType":"string"},{"name":"_symbol","type":"string","internalType":"string"},{"name":"_creator","type":"address","internalType":"address"},{"name":"_maxTokens","type":"uint256","internalType":"uint256"}],"outputs":[],"stateMutability":"nonpayable"},{"type":"function","name":"isApprovedForAll","inputs":[{"name":"owner","type":"address","internalType":"address"},{"name":"operator","type":"address","internalType":"address"}],"outputs":[{"name":"","type":"bool","internalType":"bool"}],"stateMutability":"view"},{"type":"function","name":"isApprovedMinter","inputs":[{"name":"_address","type":"address","internalType":"address"}],"outputs":[{"name":"","type":"bool","internalType":"bool"}],"stateMutability":"view"},{"type":"function","name":"lockBaseURI","inputs":[],"outputs":[],"stateMutability":"nonpayable"},{"type":"function","name":"maxTokens","inputs":[],"outputs":[{"name":"","type":"uint256","internalType":"uint256"}],"stateMutability":"view"},{"type":"function","name":"mintTo","inputs":[{"name":"_receiver","type":"address","internalType":"address"}],"outputs":[{"name":"","type":"uint256","internalType":"uint256"}],"stateMutability":"nonpayable"},{"type":"function","name":"name","inputs":[],"outputs":[{"name":"","type":"string","internalType":"string"}],"stateMutability":"view"},{"type":"function","name":"owner","inputs":[],"outputs":[{"name":"","type":"address","internalType":"address"}],"stateMutability":"view"},{"type":"function","name":"ownerOf","inputs":[{"name":"tokenId","type":"uint256","internalType":"uint256"}],"outputs":[{"name":"","type":"address","internalType":"address"}],"stateMutability":"view"},{"type":"function","name":"prepareMint","inputs":[{"name":"_baseURI","type":"string","internalType":"string"},{"name":"_numberOfTokens","type":"uint256","internalType":"uint256"}],"outputs":[],"stateMutability":"nonpayable"},{"type":"function","name":"prepareMintWithMinter","inputs":[{"name":"_baseURI","type":"string","internalType":"string"},{"name":"_numberOfTokens","type":"uint256","internalType":"uint256"},{"name":"_minter","type":"address","internalType":"address"}],"outputs":[],"stateMutability":"nonpayable"},{"type":"function","name":"renounceOwnership","inputs":[],"outputs":[],"stateMutability":"nonpayable"},{"type":"function","name":"royaltyInfo","inputs":[{"name":"_tokenId","type":"uint256","internalType":"uint256"},{"name":"_salePrice","type":"uint256","internalType":"uint256"}],"outputs":[{"name":"receiver","type":"address","internalType":"address"},{"name":"royaltyAmount","type":"uint256","internalType":"uint256"}],"stateMutability":"view"},{"type":"function","name":"safeTransferFrom","inputs":[{"name":"from","type":"address","internalType":"address"},{"name":"to","type":"address","internalType":"address"},{"name":"tokenId","type":"uint256","internalType":"uint256"}],"outputs":[],"stateMutability":"nonpayable"},{"type":"function","name":"safeTransferFrom","inputs":[{"name":"from","type":"address","internalType":"address"},{"name":"to","type":"address","internalType":"address"},{"name":"tokenId","type":"uint256","internalType":"uint256"},{"name":"data","type":"bytes","internalType":"bytes"}],"outputs":[],"stateMutability":"nonpayable"},{"type":"function","name":"setApprovalForAll","inputs":[{"name":"operator","type":"address","internalType":"address"},{"name":"approved","type":"bool","internalType":"bool"}],"outputs":[],"stateMutability":"nonpayable"},{"type":"function","name":"setDefaultRoyaltyReceiver","inputs":[{"name":"_receiver","type":"address","internalType":"address"}],"outputs":[],"stateMutability":"nonpayable"},{"type":"function","name":"setMinterApproval","inputs":[{"name":"_minter","type":"address","internalType":"address"},{"name":"_isMinter","type":"bool","internalType":"bool"}],"outputs":[],"stateMutability":"nonpayable"},{"type":"function","name":"setRoyaltyReceiverForToken","inputs":[{"name":"_receiver","type":"address","internalType":"address"},{"name":"_tokenId","type":"uint256","internalType":"uint256"}],"outputs":[],"stateMutability":"nonpayable"},{"type":"function","name":"supportsInterface","inputs":[{"name":"interfaceId","type":"bytes4","internalType":"bytes4"}],"outputs":[{"name":"","type":"bool","internalType":"bool"}],"stateMutability":"view"},{"type":"function","name":"symbol","inputs":[],"outputs":[{"name":"","type":"string","internalType":"string"}],"stateMutability":"view"},{"type":"function","name":"tokenCreator","inputs":[{"name":"_tokenId","type":"uint256","internalType":"uint256"}],"outputs":[{"name":"","type":"address","internalType":"address payable"}],"stateMutability":"view"},{"type":"function","name":"tokenURI","inputs":[{"name":"_tokenId","type":"uint256","internalType":"uint256"}],"outputs":[{"name":"","type":"string","internalType":"string"}],"stateMutability":"view"},{"type":"function","name":"totalSupply","inputs":[],"outputs":[{"name":"","type":"uint256","internalType":"uint256"}],"stateMutability":"view"},{"type":"function","name":"transferFrom","inputs":[{"name":"from","type":"address","internalType":"address"},{"name":"to","type":"address","internalType":"address"},{"name":"tokenId","type":"uint256","internalType":"uint256"}],"outputs":[],"stateMutability":"nonpayable"},{"type":"function","name":"transferOwnership","inputs":[{"name":"newOwner","type":"address","internalType":"address"}],"outputs":[],"stateMutability":"nonpayable"},{"type":"function","name":"updateBaseURI","inputs":[{"name":"_baseURI","type":"string","internalType":"string"}],"outputs":[],"stateMutability":"nonpayable"},{"type":"function","name":"updateTokenURI","inputs":[{"name":"_tokenId","type":"uint256","internalType":"uint256"},{"name":"_metadataUri","type":"string","internalType":"string"}],"outputs":[],"stateMutability":"nonpayable"},{"type":"event","name":"Approval","inputs":[{"name":"owner","type":"address","indexed":true,"internalType":"address"},{"name":"approved","type":"address","indexed":true,"internalType":"address"},{"name":"tokenId","type":"uint256","indexed":true,"internalType":"uint256"}],"anonymous":false},{"type":"event","name":"ApprovalForAll","inputs":[{"name":"owner","type":"address","indexed":true,"internalType":"address"},{"name":"operator","type":"address","indexed":true,"internalType":"address"},{"name":"approved","type":"bool","indexed":false,"internalType":"bool"}],"anonymous":false},{"type":"event","name":"ContractDisabled","inputs":[{"name":"user","type":"address","indexed":true,"internalType":"address"}],"anonymous":false},{"type":"event","name":"Initialized","inputs":[{"name":"version","type":"uint8","indexed":false,"internalType":"uint8"}],"anonymous":false},{"type":"event","name":"MetadataLocked","inputs":[{"name":"baseURI","type":"string","indexed":false,"internalType":"string"}],"anonymous":false},{"type":"event","name":"MetadataUpdated","inputs":[{"name":"baseURI","type":"string","indexed":false,"internalType":"string"}],"anonymous":false},{"type":"event","name":"OwnershipTransferred","inputs":[{"name":"previousOwner","type":"address","indexed":true,"internalType":"address"},{"name":"newOwner","type":"address","indexed":true,"internalType":"address"}],"anonymous":false},{"type":"event","name":"PrepareMint","inputs":[{"name":"numberOfTokens","type":"uint256","indexed":true,"internalType":"uint256"},{"name":"baseURI","type":"string","indexed":false,"internalType":"string"}],"anonymous":false},{"type":"event","name":"TokenURIUpdated","inputs":[{"name":"tokenId","type":"uint256","indexed":true,"internalType":"uint256"},{"name":"metadataUri","type":"string","indexed":false,"internalType":"string"}],"anonymous":false},{"type":"event","name":"Transfer","inputs":[{"name":"from","type":"address","indexed":true,"internalType":"address"},{"name":"to","type":"address","indexed":true,"internalType":"address"},{"name":"tokenId","type":"uint256","indexed":true,"internalType":"uint256"}],"anonymous":false}],"bytecode":{"object":"0x6080806040523461001657612a3d908161001c8239f35b600080fdfe6080604081815260048036101561001557600080fd5b600092833560e01c90816301ffc9a71461194c5750806306fdde03146118a2578063081812fc14611882578063095ea7b3146117125780630de54ba0146116c357806318160ddd146116a357806318e97fd11461149157806323b872dd1461146c5780632a55205a146113da5780633403c4e9146113b15780633a3d146f146113725780633ebc82c51461133057806340c1a0641461130657806342842e0e146112d257806342966c68146112b557806353df5c7c146112535780635edc7c1914610d485780636297c16c14610ccc5780636352211e14610c9b57806370a0823114610c05578063715018a614610ba8578063755edd1714610964578063894ba833146109165780638da5cb5b146108ed578063931688cb1461071d5780639338bb5d1461068457806395d89b411461059f578063a22cb465146104de578063ab69607a146104bf578063b390ac2514610485578063b88d4fde146103fa578063b9fbd25c14610378578063c87b56dd1461033d578063e83157421461031d578063e985e9c5146102cf578063ee070805146102ac578063efc32cd4146102595763f2fde38b146101c557600080fd5b34610255576020366003190112610255576101de611a31565b916101e7611bcd565b6001600160a01b03831615610203578361020084611c25565b80f35b906020608492519162461bcd60e51b8352820152602660248201527f4f776e61626c653a206e6577206f776e657220697320746865207a65726f206160448201526564647265737360d01b6064820152fd5b8280fd5b5050346102a857806003193601126102a857610273611a31565b9061027c611bcd565b602435835260fd602052822080546001600160a01b0319166001600160a01b0390921691909117905580f35b5080fd5b5050346102a857816003193601126102a85760209060ff80541690519015158152f35b5050346102a857806003193601126102a85760ff816020936102ef611a31565b6102f7611a62565b6001600160a01b039182168352609c875283832091168252855220549151911615158152f35b5050346102a857816003193601126102a857602090610100549051908152f35b509134610375576020366003190112610375575061035e6103719235612422565b9051918291602083526020830190611a0c565b0390f35b80fd5b503461025557606036600319011261025557803567ffffffffffffffff81116103f6576103d5916103ab91369101611aa7565b91906103b5611a4c565b926103be611bcd565b6103cc60ff805416156123ae565b602435916127ae565b6001600160a01b031682526101026020528120805460ff1916600117905580f35b8380fd5b8382346102a85760803660031901126102a857610415611a31565b9061041e611a62565b916044356064359367ffffffffffffffff851161048157366023860112156104815761045961047c9486602461020098369301359101611b96565b9261046c6104678433611ed6565b611dfd565b610477838383611f9e565b6121cb565b611eb2565b8580fd5b509034610255573660031901126102a857803567ffffffffffffffff811161025557610200916104b791369101611aa7565b6103be611bcd565b5050346102a857816003193601126102a85760209060fc549051908152f35b509034610255576104ee36611a78565b6001600160a01b039091169290919033841461055d5750338452609c60205280842083855260205261052e828286209060ff801983541691151516179055565b5190151581527f17307eab39ab6107e8899845ad3d59bd9653f200f220920489ca2b5937696c3160203392a380f35b6020606492519162461bcd60e51b8352820152601960248201527f4552433732313a20617070726f766520746f2063616c6c6572000000000000006044820152fd5b5050346102a857816003193601126102a857805190826098546105c181611ce0565b8085529160019180831690811561065c57506001146105ff575b5050506105ed82610371940383611b58565b51918291602083526020830190611a0c565b9450609885527f2237a976fa961f5921fd19f2b03c925c725d77b20ce8f790c19709c03de4d8145b828610610644575050506105ed82602061037195820101946105db565b80546020878701810191909152909501948101610627565b6103719750869350602092506105ed94915060ff191682840152151560051b820101946105db565b8284346103755780600319360112610375578180516106a281611b0a565b82815260606020820152015280516106b981611b0a565b6101055481528151916106d6836106cf81611d1a565b0384611b58565b6020820192835261071060ff6101075416918084019215158352606081519586956020875251602087015251918501526080840190611a0c565b9051151560608301520390f35b508290346102a8576020806003193601126102555767ffffffffffffffff9082358281116108e9576107529036908501611aa7565b93909261075d611bcd565b60ff610107541661089d57841161088a575061010690610786846107818454611ce0565b61234e565b8490601f85116001146107f35750946107e2918486977f1c306e70c05992619e2128ad1ef88df75f36c9476282e59f51401b2abaa42e4e97916107e8575b508560011b906000198760031b1c19161790555b51928392836123fa565b0390a180f35b9050840135886107c4565b90601f1985168387526000805160206129e88339815191529287905b828210610872575050916107e29391867f1c306e70c05992619e2128ad1ef88df75f36c9476282e59f51401b2abaa42e4e98999410610858575b5050600185811b0190556107d8565b850135600019600388901b60f8161c191690558780610849565b80600185968294968a0135815501950193019061080f565b634e487b7160e01b855260419052602484fd5b5060849186519162461bcd60e51b8352820152602160248201527f757064617465426173655552493a3a6d65746164617461206973206c6f636b656044820152601960fa1b6064820152fd5b8480fd5b5050346102a857816003193601126102a85760335490516001600160a01b039091168152602090f35b833461037557806003193601126103755761092f611bcd565b600160ff1960ff54161760ff55337f793bc6423dd0257d64f9d47db72fd4b2162f4541aa41740ba1c5fb5e2cd41bcd8280a280f35b509190346102a8576020928360031936011261025557610982611a31565b9261099160ff805416156123ae565b6033546001600160a01b039190821633148015610b93575b15610b375760fc548260fb541692610104966001885401809855610100548811610af6578651916109d983611b3c565b8483528116958615610ab5575061047c8794939289610a9893610a1a610a1483600052609960205260018060a01b0360406000205416151590565b15612762565b600082815260996020526040902054610a3d906001600160a01b03161515610a14565b898752609a8d528787206001815401905581875260998d52818888209a6001600160601b0360a01b9b818d825416179055887fddf252ad1be2c89b69c2b068fc378daa952ba7f163c4a11628f55a4df523b3ef8180a46120af565b86825260fe88528282205560fd8752209182541617905551908152f35b6064908a808a519262461bcd60e51b845283015260248201527f4552433732313a206d696e7420746f20746865207a65726f20616464726573736044820152fd5b6064868a808a519262461bcd60e51b845283015260248201527f5f637265617465546f6b656e3a3a6578636565646564206d6178546f6b656e736044820152fd5b835162461bcd60e51b8152808401879052603060248201527f6c617a794d696e743a3a6f6e6c79206f776e6572206f7220617070726f76656460448201526f081b5a5b9d195c8818d85b881b5a5b9d60821b6064820152608490fd5b50338152610102865260ff84822054166109a9565b8334610375578060031936011261037557610bc1611bcd565b603380546001600160a01b0319811690915581906001600160a01b03167f8be0079c531659141344cd1fd0a4f28419497f9722a3daafe3b4186f6b6457e08280a380f35b508290346102a85760203660031901126102a8576001600160a01b03610c29611a31565b16908115610c46576020848085858152609a845220549051908152f35b608490602085519162461bcd60e51b8352820152602960248201527f4552433732313a2061646472657373207a65726f206973206e6f7420612076616044820152683634b21037bbb732b960b91b6064820152fd5b5091346103755760203660031901126103755750610cbb60209235611cba565b90516001600160a01b039091168152f35b503461025557602036600319011261025557803591610cea83611cba565b336001600160a01b0390911603610d05578361020084612256565b906020606492519162461bcd60e51b8352820152601f60248201527f4d75737420626520746865206f776e6572206f662074686520746f6b656e2e006044820152fd5b508290346102a85760803660031901126102a85767ffffffffffffffff9281358481116103f657610d7c9036908401611aa7565b929060243586811161048157610d959036908401611aa7565b610da0979197611a4c565b9387549860ff94858b60081c16159889809a611247575b8015611231575b156111d75760ff19808d1660019081178d559b9c999a998a6111c6575b506001600160a01b038916156111835791610e2e91610e1e898f610e369796600a60fc558254168255606435610100555460081c16610e19816122ee565b6122ee565b610e2733611c25565b3691611b96565b933691611b96565b90610e4a858b5460081c16610e19816122ee565b82518481116111705780610e5f609754611ce0565b94601f958681116110ff575b506020908d8784116001146110805792611075575b5050600019600383901b1c1916908a1b176097555b81519384116110625750610eaa609854611ce0565b828111610fff575b506020918311600114610f73579180610f27959492610eff948b92610f68575b5050600019600383901b1c191690881b176098555b875460081c16610ef6816122ee565b610e19816122ee565b60fb80546001600160a01b0319166001600160a01b038316179055610f22611bcd565b611c25565b610f2f578280f35b825461ff0019168355519081527f7f26b83ff96e1f2b6a682f133852f6798a09c465da95921460cefb384740249890602090a181808280f35b015190508a80610ed2565b609889528792917f2237a976fa961f5921fd19f2b03c925c725d77b20ce8f790c19709c03de4d81491601f1984168b5b818110610fe7575091610eff95939185610f279998969410610fce575b505050811b01609855610ee7565b015160001960f88460031b161c191690558a8080610fc0565b8284015185558b969094019360209384019301610fa3565b60988a527f2237a976fa961f5921fd19f2b03c925c725d77b20ce8f790c19709c03de4d8148380860160051c82019260208710611059575b0160051c019089905b82811061104e575050610eb2565b8b8155018990611040565b92508192611037565b634e487b7160e01b8a5260419052602489fd5b015190508c80610e80565b91908d9450601f198416609784527f354a83ed9988f79f6038d4c7a7dadbad8af32f4ad6df893e0e5807a1b1944ff9935b8181106110e7575084116110ce575b505050811b01609755610e95565b015160001960f88460031b161c191690558c80806110c0565b8284015185558f9690940193602093840193016110b1565b90915060978d527f354a83ed9988f79f6038d4c7a7dadbad8af32f4ad6df893e0e5807a1b1944ff98680850160051c82019260208610611167575b859493910160051c909101908d908f5b83821061115957505050610e6b565b81558594508e91018f61114a565b9250819261113a565b634e487b7160e01b8b526041825260248bfd5b8a5162461bcd60e51b8152602081870152601e60248201527f63726561746f722063616e6e6f74206265206e756c6c206164647265737300006044820152606490fd5b61ffff1916610101178d558d610ddb565b885162461bcd60e51b8152602081860152602e60248201527f496e697469616c697a61626c653a20636f6e747261637420697320616c72656160448201526d191e481a5b9a5d1a585b1a5e995960921b6064820152608490fd5b50303b158015610dbe57506001878d1614610dbe565b506001878d1610610db7565b5050346102a857816003193601126102a8577fb634b0cb94234b05eabb1438717e0e645bfd84788ae1263682242327563cde5e9061128f611bcd565b5160208152806112a160208201611d1a565b0390a1610107805460ff1916600117905580f35b8382346102a85760203660031901126102a8576102009035612256565b5050346102a85761047c610200916112e936611ad5565b919251926112f684611b3c565b86845261046c6104678433611ed6565b5050346102a85760203660031901126102a85760335490516001600160a01b039091168152602090f35b83346103755760203660031901126103755761020061134d611a31565b611355611bcd565b60018060a01b03166001600160601b0360a01b60fb54161760fb55565b5050346102a85760203660031901126102a85760209160ff9082906001600160a01b0361139d611a31565b168152610102855220541690519015158152f35b5050346102a857816003193601126102a85760fb5490516001600160a01b039091168152602090f35b5091346103755781600319360112610375578235815260fd60205281812054602435906001600160a01b03908116801561146057925b60fe60205284812054801561145657925b8381029381850414901517156114435750835192168252606490046020820152f35b634e487b7160e01b815260118652602490fd5b5060fc5492611421565b508060fb541692611410565b83346103755761020061147e36611ad5565b9161148c6104678433611ed6565b611f9e565b508290346102a857826003193601126102a85780359067ffffffffffffffff906024358281116108e9576114c89036908301611aa7565b9290916114d3611bcd565b60ff610107541661165557848652602090610103825287872092851161164257506114fe8254611ce0565b601f81116115ff575b508590601f8511600114611574575095611563918487987f931f495b9a8e5d8e61946ea5d61e021f636cfe213a801f97589c18c152e408bd97989161156957508560011b906000198760031b1c191617905551928392836123fa565b0390a280f35b9050840135896107c4565b90601f1985168388528288209288905b8282106115e7575050916115639391867f931f495b9a8e5d8e61946ea5d61e021f636cfe213a801f97589c18c152e408bd98999a94106115cd575050600185811b0190556107d8565b850135600019600388901b60f8161c191690558880610849565b80600185968294968a01358155019501930190611584565b828752818720601f860160051c810191838710611638575b601f0160051c01905b81811061162d5750611507565b878155600101611620565b9091508190611617565b634e487b7160e01b875260419052602486fd5b608490602088519162461bcd60e51b8352820152602260248201527f757064617465546f6b656e5552493a3a6d65746164617461206973206c6f636b604482015261195960f21b6064820152fd5b5050346102a857816003193601126102a857602090610104549051908152f35b5050346102a857610200906116d736611a78565b91906116e1611bcd565b6116ef60ff805416156123ae565b60018060a01b0316845261010260205283209060ff801983541691151516179055565b503461025557816003193601126102555761172b611a31565b6024359290916001600160a01b039190828061174687611cba565b1694169380851461183557803314908115611816575b50156117ae5750838552609b602052842080546001600160a01b0319168317905561178683611cba565b167f8c5be1e5ebec7d5bd14f71427d1e84f3dd0314c0f7b2291e5b200ac8c7c3b9258480a480f35b6020608492519162461bcd60e51b8352820152603d60248201527f4552433732313a20617070726f76652063616c6c6572206973206e6f7420746f60448201527f6b656e206f776e6572206f7220617070726f76656420666f7220616c6c0000006064820152fd5b90508652609c60205281862033875260205260ff82872054163861175c565b506020608492519162461bcd60e51b8352820152602160248201527f4552433732313a20617070726f76616c20746f2063757272656e74206f776e656044820152603960f91b6064820152fd5b5091346103755760203660031901126103755750610cbb60209235611dbf565b5050346102a857816003193601126102a857805190826097546118c481611ce0565b8085529160019180831690811561065c57506001146118ef575050506105ed82610371940383611b58565b9450609785527f354a83ed9988f79f6038d4c7a7dadbad8af32f4ad6df893e0e5807a1b1944ff95b828610611934575050506105ed82602061037195820101946105db565b80546020878701810191909152909501948101611917565b92505034610255576020366003190112610255573563ffffffff60e01b8116908181036103f65760209350631030681960e21b82149182156119d8575b82156119af575b50811561199f575b5015158152f35b6119a9915061271e565b38611998565b90915063152a902d60e11b1480156119c9575b9038611990565b506119d38161271e565b6119c2565b6301ffc9a760e01b81149250611989565b60005b8381106119fc5750506000910152565b81810151838201526020016119ec565b90602091611a25815180928185528580860191016119e9565b601f01601f1916010190565b600435906001600160a01b0382168203611a4757565b600080fd5b604435906001600160a01b0382168203611a4757565b602435906001600160a01b0382168203611a4757565b6040906003190112611a47576004356001600160a01b0381168103611a4757906024358015158103611a475790565b9181601f84011215611a475782359167ffffffffffffffff8311611a475760208381860195010111611a4757565b6060906003190112611a47576001600160a01b03906004358281168103611a4757916024359081168103611a47579060443590565b6060810190811067ffffffffffffffff821117611b2657604052565b634e487b7160e01b600052604160045260246000fd5b6020810190811067ffffffffffffffff821117611b2657604052565b90601f8019910116810190811067ffffffffffffffff821117611b2657604052565b67ffffffffffffffff8111611b2657601f01601f191660200190565b929192611ba282611b7a565b91611bb06040519384611b58565b829481845281830111611a47578281602093846000960137010152565b6033546001600160a01b03163303611be157565b606460405162461bcd60e51b815260206004820152602060248201527f4f776e61626c653a2063616c6c6572206973206e6f7420746865206f776e65726044820152fd5b603380546001600160a01b039283166001600160a01b0319821681179092559091167f8be0079c531659141344cd1fd0a4f28419497f9722a3daafe3b4186f6b6457e0600080a3565b15611c7557565b60405162461bcd60e51b815260206004820152601860248201527f4552433732313a20696e76616c696420746f6b656e20494400000000000000006044820152606490fd5b6000908152609960205260409020546001600160a01b0316611cdd811515611c6e565b90565b90600182811c92168015611d10575b6020831014611cfa57565b634e487b7160e01b600052602260045260246000fd5b91607f1691611cef565b90600091610106908154611d2d81611ce0565b80835292600191808316908115611d9a5750600114611d4d575b50505050565b90929394506000526000805160206129e8833981519152916000925b848410611d825750506020925001019038808080611d47565b80546020858501810191909152909301928101611d69565b92505050602093945060ff929192191683830152151560051b01019038808080611d47565b600081815260996020526040902054611de2906001600160a01b03161515611c6e565b6000908152609b60205260409020546001600160a01b031690565b15611e0457565b60405162461bcd60e51b815260206004820152602d60248201527f4552433732313a2063616c6c6572206973206e6f7420746f6b656e206f776e6560448201526c1c881bdc88185c1c1c9bdd9959609a1b6064820152608490fd5b60809060208152603260208201527f4552433732313a207472616e7366657220746f206e6f6e20455243373231526560408201527131b2b4bb32b91034b6b83632b6b2b73a32b960711b60608201520190565b15611eb957565b60405162461bcd60e51b815280611ed260048201611e5f565b0390fd5b906001600160a01b038080611eea84611cba565b16931691838314938415611f1d575b508315611f07575b50505090565b611f1391929350611dbf565b1614388080611f01565b909350600052609c60205260406000208260005260205260ff604060002054169238611ef9565b15611f4b57565b60405162461bcd60e51b815260206004820152602560248201527f4552433732313a207472616e736665722066726f6d20696e636f72726563742060448201526437bbb732b960d91b6064820152608490fd5b90611fc691611fac84611cba565b6001600160a01b0393918416928492909183168414611f44565b1691821561205e5781611fe391611fdc86611cba565b1614611f44565b7fddf252ad1be2c89b69c2b068fc378daa952ba7f163c4a11628f55a4df523b3ef6000848152609b602052604081206001600160601b0360a01b90818154169055838252609a6020526040822060001981540190558482526040822060018154019055858252609960205284604083209182541617905580a4565b60405162461bcd60e51b8152602060048201526024808201527f4552433732313a207472616e7366657220746f20746865207a65726f206164646044820152637265737360e01b6064820152608490fd5b9192600092909190803b156121c1576120fd946040518092630a85bd0160e11b9485835233600484015287602484015260448301526080606483015281878160209a8b966084830190611a0c565b03926001600160a01b03165af1849181612181575b50612170575050503d600014612168573d61212c81611b7a565b9061213a6040519283611b58565b81528091833d92013e5b805191826121655760405162461bcd60e51b815280611ed260048201611e5f565b01fd5b506060612144565b6001600160e01b0319161492509050565b9091508581813d83116121ba575b6121998183611b58565b810103126108e957516001600160e01b0319811681036108e9579038612112565b503d61218f565b5050915050600190565b9293600093909291803b1561224b579484916122259660405180948193630a85bd0160e11b9788845233600485015260018060a01b0380921660248501526044840152608060648401528260209b8c976084830190611a0c565b0393165af18491816121815750612170575050503d600014612168573d61212c81611b7a565b505050915050600190565b6122636104678233611ed6565b61226c81611cba565b5061227681611cba565b6000828152609b6020908152604080832080546001600160a01b03199081169091556001600160a01b03909416808452609a83528184208054600019019055858452609990925282208054909316909255907fddf252ad1be2c89b69c2b068fc378daa952ba7f163c4a11628f55a4df523b3ef8280a4565b156122f557565b60405162461bcd60e51b815260206004820152602b60248201527f496e697469616c697a61626c653a20636f6e7472616374206973206e6f74206960448201526a6e697469616c697a696e6760a81b6064820152608490fd5b601f811161235a575050565b60009061010682526000805160206129e8833981519152906020601f850160051c830194106123a4575b601f0160051c01915b82811061239957505050565b81815560010161238d565b9092508290612384565b156123b557565b60405162461bcd60e51b815260206004820152601e60248201527f436f6e7472616374206d757374206e6f742062652064697361626c65642e00006044820152606490fd5b90918060409360208452816020850152848401376000828201840152601f01601f1916010190565b6000908082526101039060209082825260409261244184862054611ce0565b612676575092839281907a184f03e93ff9f4daa797ed6e38ed64bf6a1f0100000000000000008581811015612669575b50506d04ee2d6d415b85acef81000000008086101561265b575b50662386f26fc100008086101561264c575b506305f5e1008086101561263d575b506127108086101561262e575b50606485101561261e575b600a80951015612614575b600194858401968660216124fa6124e58b611b7a565b9a6124f287519c8d611b58565b808c52611b7a565b8a89019790601f19013689378a0101905b6125e5575b50505051948593826101069081549161252883611ce0565b928981169081156125c4575060011461257d575b50505050600693928261256964173539b7b760d91b93602f60f81b611cdd999652518093868401906119e9565b019182015203601919810184520182611b58565b815292935090916000805160206129e88339815191525b8282106125ae575050840101908281612569611cdd61253c565b8054898301850152889650908301908701612594565b60ff1916858a01525050508015150285010191508281612569611cdd61253c565b600019019082906f181899199a1a9b1b9c1cb0b131b232b360811b8282061a83530490878261250b5750612510565b91600101916124cf565b91936064600291049401916124c4565b600491939504940191386124b9565b600891939504940191386124ac565b6010919395049401913861249d565b84919395049401913861248b565b0494509150813880612471565b908493929352825280832090519283918181549061269382611ce0565b808652926001928084169081156126fa57506001146126bd575b50505050611cdd92500382611b58565b815285812095935091905b8183106126e2575050611cdd9350820101388080806126ad565b855487840185015294850194869450918301916126c8565b9350505050611cdd94925060ff191682840152151560051b820101388080806126ad565b63ffffffff60e01b166380ac58cd60e01b8114908115612751575b8115612743575090565b6301ffc9a760e01b14919050565b635b5e139f60e01b81149150612739565b1561276957565b60405162461bcd60e51b815260206004820152601c60248201527f4552433732313a20746f6b656e20616c7265616479206d696e746564000000006044820152606490fd5b9291906101005482116129a3576101045461294457604051936127d085611b0a565b8285526127de368383611b96565b60209080828801526040870191600097888452516101055581519067ffffffffffffffff8211612930576101069261281a836107818654611ce0565b81601f841160011461289b57509082917f6f1d651e6e0c8f86bd32a20c22a644d1e34fabf72307ff95d51b9f5892ddba1998999a92612890575b50508160011b916000199060031b1c19161790555b5115156101079060ff8019835416911617905561288b604051928392836123fa565b0390a2565b015190503880612854565b848b5292996000805160206129e883398151915293601f198c1691905b82821061291857505091600193918b7f6f1d651e6e0c8f86bd32a20c22a644d1e34fabf72307ff95d51b9f5892ddba199a9b9c94106128ff575b505050811b019055612869565b015160001960f88460031b161c191690553880806128f2565b806001869782949787015181550196019401906128b8565b634e487b7160e01b89526041600452602489fd5b60405162461bcd60e51b815260206004820152603160248201527f5f707265706172654d696e743a3a63616e206f6e6c792070726570617265206d604482015270696e742077697468203020746f6b656e7360781b6064820152608490fd5b606460405162461bcd60e51b815260206004820152602060248201527f5f707265706172654d696e743a3a6578636565646564206d6178546f6b656e736044820152fdfec9ef9fceea91e87b2c84ea400a44fde78842aae8aa24cd4b502ce5fb4d91e63ba264697066735822122083fb0250c67ec5e0a44bcc829488c3a8af5c1f6a1d23f276998b41c14f58284764736f6c63430008120033","linkReferences":{}},"methodIdentifiers":{"approve(address,uint256)":"095ea7b3","balanceOf(address)":"70a08231","burn(uint256)":"42966c68","deleteToken(uint256)":"6297c16c","disableContract()":"894ba833","disabled()":"ee070805","getApproved(uint256)":"081812fc","getDefaultRoyaltyPercentage()":"ab69607a","getDefaultRoyaltyReceiver()":"3403c4e9","getMintConfig()":"9338bb5d","init(string,string,address,uint256)":"5edc7c19","isApprovedForAll(address,address)":"e985e9c5","isApprovedMinter(address)":"3a3d146f","lockBaseURI()":"53df5c7c","maxTokens()":"e8315742","mintTo(address)":"755edd17","name()":"06fdde03","owner()":"8da5cb5b","ownerOf(uint256)":"6352211e","prepareMint(string,uint256)":"b390ac25","prepareMintWithMinter(string,uint256,address)":"b9fbd25c","renounceOwnership()":"715018a6","royaltyInfo(uint256,uint256)":"2a55205a","safeTransferFrom(address,address,uint256)":"42842e0e","safeTransferFrom(address,address,uint256,bytes)":"b88d4fde","setApprovalForAll(address,bool)":"a22cb465","setDefaultRoyaltyReceiver(address)":"3ebc82c5","setMinterApproval(address,bool)":"0de54ba0","setRoyaltyReceiverForToken(address,uint256)":"efc32cd4","supportsInterface(bytes4)":"01ffc9a7","symbol()":"95d89b41","tokenCreator(uint256)":"40c1a064","tokenURI(uint256)":"c87b56dd","totalSupply()":"18160ddd","transferFrom(address,address,uint256)":"23b872dd","transferOwnership(address)":"f2fde38b","updateBaseURI(string)":"931688cb","updateTokenURI(uint256,string)":"18e97fd1"},"id":204}