{
  "abi": [
    {
      "inputs": [],
      "stateMutability": "nonpayable",
      "type": "constructor"
    },
    {
      "anonymous": false,
      "inputs": [
        {
          "indexed": true,
          "internalType": "address",
          "name": "previousOwner",
          "type": "address"
        },
        {
          "indexed": true,
          "internalType": "address",
          "name": "newOwner",
          "type": "address"
        }
      ],
      "name": "OwnershipTransferred",
      "type": "event"
    },
    {
      "anonymous": false,
      "inputs": [
        {
          "indexed": true,
          "internalType": "address",
          "name": "contractAddress",
          "type": "address"
        },
        {
          "indexed": true,
          "internalType": "address",
          "name": "owner",
          "type": "address"
        }
      ],
      "name": "SovereignNFTContractCreated",
      "type": "event"
    },
    {
      "anonymous": false,
      "inputs": [
        {
          "indexed": true,
          "internalType": "address",
          "name": "contractAddress",
          "type": "address"
        },
        {
          "indexed": true,
          "internalType": "address",
          "name": "owner",
          "type": "address"
        },
        {
          "indexed": true,
          "internalType": "bytes32",
          "name": "contractType",
          "type": "bytes32"
        }
      ],
      "name": "SovereignNFTContractCreated",
      "type": "event"
    },
    {
      "inputs": [],
      "name": "LAZY_ROYALTY_GUARD",
      "outputs": [
        {
          "internalType": "bytes32",
          "name": "",
          "type": "bytes32"
        }
      ],
      "stateMutability": "view",
      "type": "function"
    },
    {
      "inputs": [],
      "name": "LAZY_ROYALTY_GUARD_DEADMAN",
      "outputs": [
        {
          "internalType": "bytes32",
          "name": "",
          "type": "bytes32"
        }
      ],
      "stateMutability": "view",
      "type": "function"
    },
    {
      "inputs": [],
      "name": "LAZY_SOVEREIGN_NFT",
      "outputs": [
        {
          "internalType": "bytes32",
          "name": "",
          "type": "bytes32"
        }
      ],
      "stateMutability": "view",
      "type": "function"
    },
    {
      "inputs": [
        {
          "internalType": "string",
          "name": "_name",
          "type": "string"
        },
        {
          "internalType": "string",
          "name": "_symbol",
          "type": "string"
        },
        {
          "internalType": "uint256",
          "name": "_maxTokens",
          "type": "uint256"
        },
        {
          "internalType": "bytes32",
          "name": "_contractType",
          "type": "bytes32"
        }
      ],
      "name": "createSovereignNFTContract",
      "outputs": [
        {
          "internalType": "address",
          "name": "",
          "type": "address"
        }
      ],
      "stateMutability": "nonpayable",
      "type": "function"
    },
    {
      "inputs": [],
      "name": "lazySovereignNFT",
      "outputs": [
        {
          "internalType": "address",
          "name": "",
          "type": "address"
        }
      ],
      "stateMutability": "view",
      "type": "function"
    },
    {
      "inputs": [],
      "name": "lazySovereignNFTRoyaltyGuard",
      "outputs": [
        {
          "internalType": "address",
          "name": "",
          "type": "address"
        }
      ],
      "stateMutability": "view",
      "type": "function"
    },
    {
      "inputs": [],
      "name": "lazySovereignNFTRoyaltyGuardDeadmanTrigger",
      "outputs": [
        {
          "internalType": "address",
          "name": "",
          "type": "address"
        }
      ],
      "stateMutability": "view",
      "type": "function"
    },
    {
      "inputs": [],
      "name": "owner",
      "outputs": [
        {
          "internalType": "address",
          "name": "",
          "type": "address"
        }
      ],
      "stateMutability": "view",
      "type": "function"
    },
    {
      "inputs": [],
      "name": "renounceOwnership",
      "outputs": [],
      "stateMutability": "nonpayable",
      "type": "function"
    },
    {
      "inputs": [
        {
          "internalType": "address",
          "name": "_sovereignNFT",
          "type": "address"
        },
        {
          "internalType": "bytes32",
          "name": "_contractType",
          "type": "bytes32"
        }
      ],
      "name": "setSovereignNFT",
      "outputs": [],
      "stateMutability": "nonpayable",
      "type": "function"
    },
    {
      "inputs": [
        {
          "internalType": "address",
          "name": "newOwner",
          "type": "address"
        }
      ],
      "name": "transferOwnership",
      "outputs": [],
      "stateMutability": "nonpayable",
      "type": "function"
    }
  ],
  "bytecode": {
    "object": "0x60806040908082523461013f5760008054336001600160a01b031980831682178455936001600160a01b03939290919084167f8be0079c531659141344cd1fd0a4f28419497f9722a3daafe3b4186f6b6457e08480a36001600160401b0390612a59818101908382118383101761012b5790829162000b838339039083f0801561012157831684600154161760015584516133cd808201908282108483111761012b57908291620035dc8339039083f0801561012157831684600254161760025584519061356d808301918383109083111761010d57908291620069a98339039082f090811561010257501690600354161760035551610a3e9081620001458239f35b8451903d90823e3d90fd5b634e487b7160e01b84526041600452602484fd5b85513d84823e3d90fd5b634e487b7160e01b85526041600452602485fd5b600080fdfe608060408181526004918236101561001657600080fd5b600092833560e01c918262e8ece61461069d5750816322d60fcb14610674578163637944f514610639578163715018a6146105df578163740adf31146105a4578163877ebf51146102185781638da5cb5b146101f0578163a55b1c25146101bd578163c4dca7ab14610194578163f2fde38b146100c8575063f5e0e6df1461009d57600080fd5b346100c457816003193601126100c45760015490516001600160a01b039091168152602090f35b5080fd5b905034610190576020366003190112610190576100e3610769565b906100ec61077f565b6001600160a01b0391821692831561013e575050600054826001600160601b0360a01b821617600055167f8be0079c531659141344cd1fd0a4f28419497f9722a3daafe3b4186f6b6457e0600080a380f35b906020608492519162461bcd60e51b8352820152602660248201527f4f776e61626c653a206e6577206f776e657220697320746865207a65726f206160448201526564647265737360d01b6064820152fd5b8280fd5b5050346100c457816003193601126100c45760035490516001600160a01b039091168152602090f35b5050346100c4573660031901126101ed576101ea6101d9610769565b6101e161077f565b602435906107d7565b80f35b80fd5b5050346100c457816003193601126100c457905490516001600160a01b039091168152602090f35b839150346100c45760803660031901126100c45767ffffffffffffffff81358181116104425761024b9036908401610701565b90602435908111610442576102639036908401610701565b606435919060443580156105455785927f8eae45f58440dde5634b0645eea1e0aa7e9dfd92d41ded6de63fc6498057dd6885146104d6575b7f5d53444d40ee2f466d1c91f96d7c4d4b6bcb514ac7911b9a6c947234a2f957c58514610454575b7f6c556facba1fb001f8d830adc0dcceae3a683a8890dc3299db292ca0c662517085146103ca575b5050506001600160a01b03169182156103545750602093519233837f46dd19b0bfeba14ab8b9e9c9e4179a2f8a3ba70420a845ea8da585dd8e59eeec8380a3827feec8a411955d10f84b6b0e3110b206d0888593b71381b8ca931e8f131f7eb365339280a48152f35b60a490602086519162461bcd60e51b8352820152604460248201527f637265617465536f7665726569676e4e4654436f6e74726163743a3a5f636f6e60448201527f74726163745479706520756e737570706f7274656420636f6e747261637420746064820152633cb8329760e11b6084820152fd5b6003546001600160a01b039450919290916103e6908516610974565b93841691823b15610450579186918880946104168c5197889687958694635edc7c1960e01b865233928601610935565b03925af180156104465790859161042e575b806102eb565b610437906106d7565b610442578386610428565b8380fd5b86513d87823e3d90fd5b8780fd5b6002546001600160a01b03945061046c908516610974565b938416803b1561045057878361049b9289838d51809681958294635edc7c1960e01b84528c8b33928601610935565b03925af180156104cc579088916104b4575b50506102c3565b6104bd906106d7565b6104c85786896104ad565b8680fd5b89513d8a823e3d90fd5b6001546001600160a01b0394506104ee908516610974565b938416803b1561045057878361051d9289838d51809681958294635edc7c1960e01b84528c8b33928601610935565b03925af180156104cc57610532575b5061029b565b61053e909791976106d7565b958861052c565b865162461bcd60e51b8152602081870152603360248201527f637265617465536f7665726569676e4e4654436f6e74726163743a3a5f6d6178604482015272546f6b656e732063616e74206265207a65726f60681b6064820152608490fd5b5050346100c457816003193601126100c457602090517f6c556facba1fb001f8d830adc0dcceae3a683a8890dc3299db292ca0c66251708152f35b83346101ed57806003193601126101ed576105f861077f565b80546001600160a01b03198116825581906001600160a01b03167f8be0079c531659141344cd1fd0a4f28419497f9722a3daafe3b4186f6b6457e08280a380f35b5050346100c457816003193601126100c457602090517f8eae45f58440dde5634b0645eea1e0aa7e9dfd92d41ded6de63fc6498057dd688152f35b5050346100c457816003193601126100c45760025490516001600160a01b039091168152602090f35b8490346100c457816003193601126100c457807f5d53444d40ee2f466d1c91f96d7c4d4b6bcb514ac7911b9a6c947234a2f957c560209252f35b67ffffffffffffffff81116106eb57604052565b634e487b7160e01b600052604160045260246000fd5b81601f820112156107645780359067ffffffffffffffff928383116106eb5760405193601f8401601f19908116603f01168501908111858210176106eb576040528284526020838301011161076457816000926020809301838601378301015290565b600080fd5b600435906001600160a01b038216820361076457565b6000546001600160a01b0316330361079357565b606460405162461bcd60e51b815260206004820152602060248201527f4f776e61626c653a2063616c6c6572206973206e6f7420746865206f776e65726044820152fd5b6001600160a01b0316908115610764577f8eae45f58440dde5634b0645eea1e0aa7e9dfd92d41ded6de63fc6498057dd6881146108df577f5d53444d40ee2f466d1c91f96d7c4d4b6bcb514ac7911b9a6c947234a2f957c581146108c9577f6c556facba1fb001f8d830adc0dcceae3a683a8890dc3299db292ca0c6625170146108b45760405162461bcd60e51b815260206004820152602b60248201527f736574536f7665726569676e4e46543a3a556e737570706f72746564205f636f60448201526a373a3930b1ba2a3cb8329760a91b6064820152608490fd5b6001600160601b0360a01b6003541617600355565b506001600160601b0360a01b6002541617600255565b506001600160601b0360a01b6001541617600155565b919082519283825260005b848110610921575050826000602080949584010152601f8019910116010190565b602081830181015184830182015201610900565b9060609261095261096092979695976080855260808501906108f5565b9083820360208501526108f5565b6001600160a01b0390951660408201520152565b6e5af43d82803e903d91602b57fd5bf390763d602d80600a3d3981f3363d3d373d3d3d363d7300000062ffffff8260881c161760005260781b17602052603760096000f0906001600160a01b038216156109ca57565b60405162461bcd60e51b8152602060048201526016602482015275115490cc4c4d8dce8818dc99585d194819985a5b195960521b6044820152606490fdfea264697066735822122024a9d1146a249202ab1e235ef3c815b12e1924234fc3580a0e248507efca4cbd64736f6c634300081200336080806040523461001657612a3d908161001c8239f35b600080fdfe6080604081815260048036101561001557600080fd5b600092833560e01c90816301ffc9a71461194c5750806306fdde03146118a2578063081812fc14611882578063095ea7b3146117125780630de54ba0146116c357806318160ddd146116a357806318e97fd11461149157806323b872dd1461146c5780632a55205a146113da5780633403c4e9146113b15780633a3d146f146113725780633ebc82c51461133057806340c1a0641461130657806342842e0e146112d257806342966c68146112b557806353df5c7c146112535780635edc7c1914610d485780636297c16c14610ccc5780636352211e14610c9b57806370a0823114610c05578063715018a614610ba8578063755edd1714610964578063894ba833146109165780638da5cb5b146108ed578063931688cb1461071d5780639338bb5d1461068457806395d89b411461059f578063a22cb465146104de578063ab69607a146104bf578063b390ac2514610485578063b88d4fde146103fa578063b9fbd25c14610378578063c87b56dd1461033d578063e83157421461031d578063e985e9c5146102cf578063ee070805146102ac578063efc32cd4146102595763f2fde38b146101c557600080fd5b34610255576020366003190112610255576101de611a31565b916101e7611bcd565b6001600160a01b03831615610203578361020084611c25565b80f35b906020608492519162461bcd60e51b8352820152602660248201527f4f776e61626c653a206e6577206f776e657220697320746865207a65726f206160448201526564647265737360d01b6064820152fd5b8280fd5b5050346102a857806003193601126102a857610273611a31565b9061027c611bcd565b602435835260fd602052822080546001600160a01b0319166001600160a01b0390921691909117905580f35b5080fd5b5050346102a857816003193601126102a85760209060ff80541690519015158152f35b5050346102a857806003193601126102a85760ff816020936102ef611a31565b6102f7611a62565b6001600160a01b039182168352609c875283832091168252855220549151911615158152f35b5050346102a857816003193601126102a857602090610100549051908152f35b509134610375576020366003190112610375575061035e6103719235612422565b9051918291602083526020830190611a0c565b0390f35b80fd5b503461025557606036600319011261025557803567ffffffffffffffff81116103f6576103d5916103ab91369101611aa7565b91906103b5611a4c565b926103be611bcd565b6103cc60ff805416156123ae565b602435916127ae565b6001600160a01b031682526101026020528120805460ff1916600117905580f35b8380fd5b8382346102a85760803660031901126102a857610415611a31565b9061041e611a62565b916044356064359367ffffffffffffffff851161048157366023860112156104815761045961047c9486602461020098369301359101611b96565b9261046c6104678433611ed6565b611dfd565b610477838383611f9e565b6121cb565b611eb2565b8580fd5b509034610255573660031901126102a857803567ffffffffffffffff811161025557610200916104b791369101611aa7565b6103be611bcd565b5050346102a857816003193601126102a85760209060fc549051908152f35b509034610255576104ee36611a78565b6001600160a01b039091169290919033841461055d5750338452609c60205280842083855260205261052e828286209060ff801983541691151516179055565b5190151581527f17307eab39ab6107e8899845ad3d59bd9653f200f220920489ca2b5937696c3160203392a380f35b6020606492519162461bcd60e51b8352820152601960248201527f4552433732313a20617070726f766520746f2063616c6c6572000000000000006044820152fd5b5050346102a857816003193601126102a857805190826098546105c181611ce0565b8085529160019180831690811561065c57506001146105ff575b5050506105ed82610371940383611b58565b51918291602083526020830190611a0c565b9450609885527f2237a976fa961f5921fd19f2b03c925c725d77b20ce8f790c19709c03de4d8145b828610610644575050506105ed82602061037195820101946105db565b80546020878701810191909152909501948101610627565b6103719750869350602092506105ed94915060ff191682840152151560051b820101946105db565b8284346103755780600319360112610375578180516106a281611b0a565b82815260606020820152015280516106b981611b0a565b6101055481528151916106d6836106cf81611d1a565b0384611b58565b6020820192835261071060ff6101075416918084019215158352606081519586956020875251602087015251918501526080840190611a0c565b9051151560608301520390f35b508290346102a8576020806003193601126102555767ffffffffffffffff9082358281116108e9576107529036908501611aa7565b93909261075d611bcd565b60ff610107541661089d57841161088a575061010690610786846107818454611ce0565b61234e565b8490601f85116001146107f35750946107e2918486977f1c306e70c05992619e2128ad1ef88df75f36c9476282e59f51401b2abaa42e4e97916107e8575b508560011b906000198760031b1c19161790555b51928392836123fa565b0390a180f35b9050840135886107c4565b90601f1985168387526000805160206129e88339815191529287905b828210610872575050916107e29391867f1c306e70c05992619e2128ad1ef88df75f36c9476282e59f51401b2abaa42e4e98999410610858575b5050600185811b0190556107d8565b850135600019600388901b60f8161c191690558780610849565b80600185968294968a0135815501950193019061080f565b634e487b7160e01b855260419052602484fd5b5060849186519162461bcd60e51b8352820152602160248201527f757064617465426173655552493a3a6d65746164617461206973206c6f636b656044820152601960fa1b6064820152fd5b8480fd5b5050346102a857816003193601126102a85760335490516001600160a01b039091168152602090f35b833461037557806003193601126103755761092f611bcd565b600160ff1960ff54161760ff55337f793bc6423dd0257d64f9d47db72fd4b2162f4541aa41740ba1c5fb5e2cd41bcd8280a280f35b509190346102a8576020928360031936011261025557610982611a31565b9261099160ff805416156123ae565b6033546001600160a01b039190821633148015610b93575b15610b375760fc548260fb541692610104966001885401809855610100548811610af6578651916109d983611b3c565b8483528116958615610ab5575061047c8794939289610a9893610a1a610a1483600052609960205260018060a01b0360406000205416151590565b15612762565b600082815260996020526040902054610a3d906001600160a01b03161515610a14565b898752609a8d528787206001815401905581875260998d52818888209a6001600160601b0360a01b9b818d825416179055887fddf252ad1be2c89b69c2b068fc378daa952ba7f163c4a11628f55a4df523b3ef8180a46120af565b86825260fe88528282205560fd8752209182541617905551908152f35b6064908a808a519262461bcd60e51b845283015260248201527f4552433732313a206d696e7420746f20746865207a65726f20616464726573736044820152fd5b6064868a808a519262461bcd60e51b845283015260248201527f5f637265617465546f6b656e3a3a6578636565646564206d6178546f6b656e736044820152fd5b835162461bcd60e51b8152808401879052603060248201527f6c617a794d696e743a3a6f6e6c79206f776e6572206f7220617070726f76656460448201526f081b5a5b9d195c8818d85b881b5a5b9d60821b6064820152608490fd5b50338152610102865260ff84822054166109a9565b8334610375578060031936011261037557610bc1611bcd565b603380546001600160a01b0319811690915581906001600160a01b03167f8be0079c531659141344cd1fd0a4f28419497f9722a3daafe3b4186f6b6457e08280a380f35b508290346102a85760203660031901126102a8576001600160a01b03610c29611a31565b16908115610c46576020848085858152609a845220549051908152f35b608490602085519162461bcd60e51b8352820152602960248201527f4552433732313a2061646472657373207a65726f206973206e6f7420612076616044820152683634b21037bbb732b960b91b6064820152fd5b5091346103755760203660031901126103755750610cbb60209235611cba565b90516001600160a01b039091168152f35b503461025557602036600319011261025557803591610cea83611cba565b336001600160a01b0390911603610d05578361020084612256565b906020606492519162461bcd60e51b8352820152601f60248201527f4d75737420626520746865206f776e6572206f662074686520746f6b656e2e006044820152fd5b508290346102a85760803660031901126102a85767ffffffffffffffff9281358481116103f657610d7c9036908401611aa7565b929060243586811161048157610d959036908401611aa7565b610da0979197611a4c565b9387549860ff94858b60081c16159889809a611247575b8015611231575b156111d75760ff19808d1660019081178d559b9c999a998a6111c6575b506001600160a01b038916156111835791610e2e91610e1e898f610e369796600a60fc558254168255606435610100555460081c16610e19816122ee565b6122ee565b610e2733611c25565b3691611b96565b933691611b96565b90610e4a858b5460081c16610e19816122ee565b82518481116111705780610e5f609754611ce0565b94601f958681116110ff575b506020908d8784116001146110805792611075575b5050600019600383901b1c1916908a1b176097555b81519384116110625750610eaa609854611ce0565b828111610fff575b506020918311600114610f73579180610f27959492610eff948b92610f68575b5050600019600383901b1c191690881b176098555b875460081c16610ef6816122ee565b610e19816122ee565b60fb80546001600160a01b0319166001600160a01b038316179055610f22611bcd565b611c25565b610f2f578280f35b825461ff0019168355519081527f7f26b83ff96e1f2b6a682f133852f6798a09c465da95921460cefb384740249890602090a181808280f35b015190508a80610ed2565b609889528792917f2237a976fa961f5921fd19f2b03c925c725d77b20ce8f790c19709c03de4d81491601f1984168b5b818110610fe7575091610eff95939185610f279998969410610fce575b505050811b01609855610ee7565b015160001960f88460031b161c191690558a8080610fc0565b8284015185558b969094019360209384019301610fa3565b60988a527f2237a976fa961f5921fd19f2b03c925c725d77b20ce8f790c19709c03de4d8148380860160051c82019260208710611059575b0160051c019089905b82811061104e575050610eb2565b8b8155018990611040565b92508192611037565b634e487b7160e01b8a5260419052602489fd5b015190508c80610e80565b91908d9450601f198416609784527f354a83ed9988f79f6038d4c7a7dadbad8af32f4ad6df893e0e5807a1b1944ff9935b8181106110e7575084116110ce575b505050811b01609755610e95565b015160001960f88460031b161c191690558c80806110c0565b8284015185558f9690940193602093840193016110b1565b90915060978d527f354a83ed9988f79f6038d4c7a7dadbad8af32f4ad6df893e0e5807a1b1944ff98680850160051c82019260208610611167575b859493910160051c909101908d908f5b83821061115957505050610e6b565b81558594508e91018f61114a565b9250819261113a565b634e487b7160e01b8b526041825260248bfd5b8a5162461bcd60e51b8152602081870152601e60248201527f63726561746f722063616e6e6f74206265206e756c6c206164647265737300006044820152606490fd5b61ffff1916610101178d558d610ddb565b885162461bcd60e51b8152602081860152602e60248201527f496e697469616c697a61626c653a20636f6e747261637420697320616c72656160448201526d191e481a5b9a5d1a585b1a5e995960921b6064820152608490fd5b50303b158015610dbe57506001878d1614610dbe565b506001878d1610610db7565b5050346102a857816003193601126102a8577fb634b0cb94234b05eabb1438717e0e645bfd84788ae1263682242327563cde5e9061128f611bcd565b5160208152806112a160208201611d1a565b0390a1610107805460ff1916600117905580f35b8382346102a85760203660031901126102a8576102009035612256565b5050346102a85761047c610200916112e936611ad5565b919251926112f684611b3c565b86845261046c6104678433611ed6565b5050346102a85760203660031901126102a85760335490516001600160a01b039091168152602090f35b83346103755760203660031901126103755761020061134d611a31565b611355611bcd565b60018060a01b03166001600160601b0360a01b60fb54161760fb55565b5050346102a85760203660031901126102a85760209160ff9082906001600160a01b0361139d611a31565b168152610102855220541690519015158152f35b5050346102a857816003193601126102a85760fb5490516001600160a01b039091168152602090f35b5091346103755781600319360112610375578235815260fd60205281812054602435906001600160a01b03908116801561146057925b60fe60205284812054801561145657925b8381029381850414901517156114435750835192168252606490046020820152f35b634e487b7160e01b815260118652602490fd5b5060fc5492611421565b508060fb541692611410565b83346103755761020061147e36611ad5565b9161148c6104678433611ed6565b611f9e565b508290346102a857826003193601126102a85780359067ffffffffffffffff906024358281116108e9576114c89036908301611aa7565b9290916114d3611bcd565b60ff610107541661165557848652602090610103825287872092851161164257506114fe8254611ce0565b601f81116115ff575b508590601f8511600114611574575095611563918487987f931f495b9a8e5d8e61946ea5d61e021f636cfe213a801f97589c18c152e408bd97989161156957508560011b906000198760031b1c191617905551928392836123fa565b0390a280f35b9050840135896107c4565b90601f1985168388528288209288905b8282106115e7575050916115639391867f931f495b9a8e5d8e61946ea5d61e021f636cfe213a801f97589c18c152e408bd98999a94106115cd575050600185811b0190556107d8565b850135600019600388901b60f8161c191690558880610849565b80600185968294968a01358155019501930190611584565b828752818720601f860160051c810191838710611638575b601f0160051c01905b81811061162d5750611507565b878155600101611620565b9091508190611617565b634e487b7160e01b875260419052602486fd5b608490602088519162461bcd60e51b8352820152602260248201527f757064617465546f6b656e5552493a3a6d65746164617461206973206c6f636b604482015261195960f21b6064820152fd5b5050346102a857816003193601126102a857602090610104549051908152f35b5050346102a857610200906116d736611a78565b91906116e1611bcd565b6116ef60ff805416156123ae565b60018060a01b0316845261010260205283209060ff801983541691151516179055565b503461025557816003193601126102555761172b611a31565b6024359290916001600160a01b039190828061174687611cba565b1694169380851461183557803314908115611816575b50156117ae5750838552609b602052842080546001600160a01b0319168317905561178683611cba565b167f8c5be1e5ebec7d5bd14f71427d1e84f3dd0314c0f7b2291e5b200ac8c7c3b9258480a480f35b6020608492519162461bcd60e51b8352820152603d60248201527f4552433732313a20617070726f76652063616c6c6572206973206e6f7420746f60448201527f6b656e206f776e6572206f7220617070726f76656420666f7220616c6c0000006064820152fd5b90508652609c60205281862033875260205260ff82872054163861175c565b506020608492519162461bcd60e51b8352820152602160248201527f4552433732313a20617070726f76616c20746f2063757272656e74206f776e656044820152603960f91b6064820152fd5b5091346103755760203660031901126103755750610cbb60209235611dbf565b5050346102a857816003193601126102a857805190826097546118c481611ce0565b8085529160019180831690811561065c57506001146118ef575050506105ed82610371940383611b58565b9450609785527f354a83ed9988f79f6038d4c7a7dadbad8af32f4ad6df893e0e5807a1b1944ff95b828610611934575050506105ed82602061037195820101946105db565b80546020878701810191909152909501948101611917565b92505034610255576020366003190112610255573563ffffffff60e01b8116908181036103f65760209350631030681960e21b82149182156119d8575b82156119af575b50811561199f575b5015158152f35b6119a9915061271e565b38611998565b90915063152a902d60e11b1480156119c9575b9038611990565b506119d38161271e565b6119c2565b6301ffc9a760e01b81149250611989565b60005b8381106119fc5750506000910152565b81810151838201526020016119ec565b90602091611a25815180928185528580860191016119e9565b601f01601f1916010190565b600435906001600160a01b0382168203611a4757565b600080fd5b604435906001600160a01b0382168203611a4757565b602435906001600160a01b0382168203611a4757565b6040906003190112611a47576004356001600160a01b0381168103611a4757906024358015158103611a475790565b9181601f84011215611a475782359167ffffffffffffffff8311611a475760208381860195010111611a4757565b6060906003190112611a47576001600160a01b03906004358281168103611a4757916024359081168103611a47579060443590565b6060810190811067ffffffffffffffff821117611b2657604052565b634e487b7160e01b600052604160045260246000fd5b6020810190811067ffffffffffffffff821117611b2657604052565b90601f8019910116810190811067ffffffffffffffff821117611b2657604052565b67ffffffffffffffff8111611b2657601f01601f191660200190565b929192611ba282611b7a565b91611bb06040519384611b58565b829481845281830111611a47578281602093846000960137010152565b6033546001600160a01b03163303611be157565b606460405162461bcd60e51b815260206004820152602060248201527f4f776e61626c653a2063616c6c6572206973206e6f7420746865206f776e65726044820152fd5b603380546001600160a01b039283166001600160a01b0319821681179092559091167f8be0079c531659141344cd1fd0a4f28419497f9722a3daafe3b4186f6b6457e0600080a3565b15611c7557565b60405162461bcd60e51b815260206004820152601860248201527f4552433732313a20696e76616c696420746f6b656e20494400000000000000006044820152606490fd5b6000908152609960205260409020546001600160a01b0316611cdd811515611c6e565b90565b90600182811c92168015611d10575b6020831014611cfa57565b634e487b7160e01b600052602260045260246000fd5b91607f1691611cef565b90600091610106908154611d2d81611ce0565b80835292600191808316908115611d9a5750600114611d4d575b50505050565b90929394506000526000805160206129e8833981519152916000925b848410611d825750506020925001019038808080611d47565b80546020858501810191909152909301928101611d69565b92505050602093945060ff929192191683830152151560051b01019038808080611d47565b600081815260996020526040902054611de2906001600160a01b03161515611c6e565b6000908152609b60205260409020546001600160a01b031690565b15611e0457565b60405162461bcd60e51b815260206004820152602d60248201527f4552433732313a2063616c6c6572206973206e6f7420746f6b656e206f776e6560448201526c1c881bdc88185c1c1c9bdd9959609a1b6064820152608490fd5b60809060208152603260208201527f4552433732313a207472616e7366657220746f206e6f6e20455243373231526560408201527131b2b4bb32b91034b6b83632b6b2b73a32b960711b60608201520190565b15611eb957565b60405162461bcd60e51b815280611ed260048201611e5f565b0390fd5b906001600160a01b038080611eea84611cba565b16931691838314938415611f1d575b508315611f07575b50505090565b611f1391929350611dbf565b1614388080611f01565b909350600052609c60205260406000208260005260205260ff604060002054169238611ef9565b15611f4b57565b60405162461bcd60e51b815260206004820152602560248201527f4552433732313a207472616e736665722066726f6d20696e636f72726563742060448201526437bbb732b960d91b6064820152608490fd5b90611fc691611fac84611cba565b6001600160a01b0393918416928492909183168414611f44565b1691821561205e5781611fe391611fdc86611cba565b1614611f44565b7fddf252ad1be2c89b69c2b068fc378daa952ba7f163c4a11628f55a4df523b3ef6000848152609b602052604081206001600160601b0360a01b90818154169055838252609a6020526040822060001981540190558482526040822060018154019055858252609960205284604083209182541617905580a4565b60405162461bcd60e51b8152602060048201526024808201527f4552433732313a207472616e7366657220746f20746865207a65726f206164646044820152637265737360e01b6064820152608490fd5b9192600092909190803b156121c1576120fd946040518092630a85bd0160e11b9485835233600484015287602484015260448301526080606483015281878160209a8b966084830190611a0c565b03926001600160a01b03165af1849181612181575b50612170575050503d600014612168573d61212c81611b7a565b9061213a6040519283611b58565b81528091833d92013e5b805191826121655760405162461bcd60e51b815280611ed260048201611e5f565b01fd5b506060612144565b6001600160e01b0319161492509050565b9091508581813d83116121ba575b6121998183611b58565b810103126108e957516001600160e01b0319811681036108e9579038612112565b503d61218f565b5050915050600190565b9293600093909291803b1561224b579484916122259660405180948193630a85bd0160e11b9788845233600485015260018060a01b0380921660248501526044840152608060648401528260209b8c976084830190611a0c565b0393165af18491816121815750612170575050503d600014612168573d61212c81611b7a565b505050915050600190565b6122636104678233611ed6565b61226c81611cba565b5061227681611cba565b6000828152609b6020908152604080832080546001600160a01b03199081169091556001600160a01b03909416808452609a83528184208054600019019055858452609990925282208054909316909255907fddf252ad1be2c89b69c2b068fc378daa952ba7f163c4a11628f55a4df523b3ef8280a4565b156122f557565b60405162461bcd60e51b815260206004820152602b60248201527f496e697469616c697a61626c653a20636f6e7472616374206973206e6f74206960448201526a6e697469616c697a696e6760a81b6064820152608490fd5b601f811161235a575050565b60009061010682526000805160206129e8833981519152906020601f850160051c830194106123a4575b601f0160051c01915b82811061239957505050565b81815560010161238d565b9092508290612384565b156123b557565b60405162461bcd60e51b815260206004820152601e60248201527f436f6e7472616374206d757374206e6f742062652064697361626c65642e00006044820152606490fd5b90918060409360208452816020850152848401376000828201840152601f01601f1916010190565b6000908082526101039060209082825260409261244184862054611ce0565b612676575092839281907a184f03e93ff9f4daa797ed6e38ed64bf6a1f0100000000000000008581811015612669575b50506d04ee2d6d415b85acef81000000008086101561265b575b50662386f26fc100008086101561264c575b506305f5e1008086101561263d575b506127108086101561262e575b50606485101561261e575b600a80951015612614575b600194858401968660216124fa6124e58b611b7a565b9a6124f287519c8d611b58565b808c52611b7a565b8a89019790601f19013689378a0101905b6125e5575b50505051948593826101069081549161252883611ce0565b928981169081156125c4575060011461257d575b50505050600693928261256964173539b7b760d91b93602f60f81b611cdd999652518093868401906119e9565b019182015203601919810184520182611b58565b815292935090916000805160206129e88339815191525b8282106125ae575050840101908281612569611cdd61253c565b8054898301850152889650908301908701612594565b60ff1916858a01525050508015150285010191508281612569611cdd61253c565b600019019082906f181899199a1a9b1b9c1cb0b131b232b360811b8282061a83530490878261250b5750612510565b91600101916124cf565b91936064600291049401916124c4565b600491939504940191386124b9565b600891939504940191386124ac565b6010919395049401913861249d565b84919395049401913861248b565b0494509150813880612471565b908493929352825280832090519283918181549061269382611ce0565b808652926001928084169081156126fa57506001146126bd575b50505050611cdd92500382611b58565b815285812095935091905b8183106126e2575050611cdd9350820101388080806126ad565b855487840185015294850194869450918301916126c8565b9350505050611cdd94925060ff191682840152151560051b820101388080806126ad565b63ffffffff60e01b166380ac58cd60e01b8114908115612751575b8115612743575090565b6301ffc9a760e01b14919050565b635b5e139f60e01b81149150612739565b1561276957565b60405162461bcd60e51b815260206004820152601c60248201527f4552433732313a20746f6b656e20616c7265616479206d696e746564000000006044820152606490fd5b9291906101005482116129a3576101045461294457604051936127d085611b0a565b8285526127de368383611b96565b60209080828801526040870191600097888452516101055581519067ffffffffffffffff8211612930576101069261281a836107818654611ce0565b81601f841160011461289b57509082917f6f1d651e6e0c8f86bd32a20c22a644d1e34fabf72307ff95d51b9f5892ddba1998999a92612890575b50508160011b916000199060031b1c19161790555b5115156101079060ff8019835416911617905561288b604051928392836123fa565b0390a2565b015190503880612854565b848b5292996000805160206129e883398151915293601f198c1691905b82821061291857505091600193918b7f6f1d651e6e0c8f86bd32a20c22a644d1e34fabf72307ff95d51b9f5892ddba199a9b9c94106128ff575b505050811b019055612869565b015160001960f88460031b161c191690553880806128f2565b806001869782949787015181550196019401906128b8565b634e487b7160e01b89526041600452602489fd5b60405162461bcd60e51b815260206004820152603160248201527f5f707265706172654d696e743a3a63616e206f6e6c792070726570617265206d604482015270696e742077697468203020746f6b656e7360781b6064820152608490fd5b606460405162461bcd60e51b815260206004820152602060248201527f5f707265706172654d696e743a3a6578636565646564206d6178546f6b656e736044820152fdfec9ef9fceea91e87b2c84ea400a44fde78842aae8aa24cd4b502ce5fb4d91e63ba264697066735822122083fb0250c67ec5e0a44bcc829488c3a8af5c1f6a1d23f276998b41c14f58284764736f6c6343000812003360808060405234610016576133b1908161001c8239f35b600080fdfe60406080815260048036101561001457600080fd5b600090813560e01c8063012cf1e81461200c57806301ffc9a714611f3457806306fdde0314611e8a578063081812fc14611e69578063095ea7b314611c4c5780630de54ba014611bfd57806318160ddd14611bdd57806318e97fd1146119f957806320427486146119c557806323b872dd146119a05780632a55205a1461190d5780632ce878da1461189a5780633403c4e9146118715780633a3d146f146118325780633ebc82c5146117f057806340c1a064146117c657806342842e0e1461179257806342966c6814611776578063472a6638146116d757806353df5c7c146116755780635edc7c191461116d5780636297c16c146110ef5780636352211e146110bd57806370a0823114611029578063715018a614610fcc578063755edd1714610d8957806387bc793f14610d61578063894ba83314610d135780638da5cb5b14610cea578063931688cb14610b1d5780639338bb5d14610a8457806395d89b411461099f5780639e860f2a1461089a578063a22cb4651461073c578063ab69607a1461071d578063b390ac25146106e4578063b88d4fde1461065b578063b9fbd25c146105dc578063bc7194551461052e578063c87b56dd146104f2578063e8315742146104d2578063e985e9c514610484578063eab8511814610429578063ee07080514610406578063efc32cd4146103b7578063f2fde38b146103205763ff6e8c8f1461022557600080fd5b3461031c5761023336612206565b6033546001600160a01b0396908716330361030d5760038410156102fa5783156102eb575090610264913691612a3e565b93835b85518110156102e75761028f61027c84612aa4565b83610287848a612abe565b511690612b00565b50828261029c8389612abe565b5116337f14155f749dc3f9cd2bf890d6d3a47069f77ae35befcee11c8b1a3ba41cba15368880a460001981146102d457600101610267565b634e487b7160e01b855260118452602485fd5b8480f35b51632de777a160e11b81528490fd5b634e487b7160e01b865260218552602486fd5b51635c510c8360e11b81528490fd5b5080fd5b508290346103b35760203660031901126103b35761033c612105565b9161034561231d565b6001600160a01b03831615610361578361035e84612375565b80f35b906020608492519162461bcd60e51b8352820152602660248201527f4f776e61626c653a206e6577206f776e657220697320746865207a65726f206160448201526564647265737360d01b6064820152fd5b8280fd5b82843461031c578060031936011261031c576103d1612105565b906103da61231d565b602435835260fd602052822080546001600160a01b0319166001600160a01b0390921691909117905580f35b82843461031c578160031936011261031c5760209060ff80541690519015158152f35b82843461031c57602036600319011261031c5760209061047b61044a612105565b61045960ff6101095416612aa4565b6001600160a01b03909116600090815260019091016020526040902054151590565b90519015158152f35b82843461031c578060031936011261031c5760ff816020936104a4612105565b6104ac612136565b6001600160a01b039182168352609c875283832091168252855220549151911615158152f35b82843461031c578160031936011261031c57602090610100549051908152f35b5091903461052b57602036600319011261052b57506105146105279235612d97565b90519182916020835260208301906120e0565b0390f35b80fd5b5082346103b35760203660031901126103b35781359160038310156105d8576033546001600160a01b031633036105ca575061056982612aa4565b805490848155816105ac575b50507f7efc19cf93d497a6a56103ea89a39d51c0cad74a817ed3cd0ecaff9823d4da249051806105a63394826121dd565b0390a280f35b845260208420908101905b81811015610575578481556001016105b7565b9051635c510c8360e11b8152fd5b8380fd5b508290346103b35760603660031901126103b35780356001600160401b0381116105d85761063a916106109136910161217b565b919061061a612120565b9261062361231d565b61063160ff80541615612d23565b602435916130df565b6001600160a01b031682526101026020528120805460ff1916600117905580f35b503461031c57608036600319011261031c57610675612105565b9061067e612136565b91604435606435936001600160401b0385116106e057366023860112156106e0576106b86106db9486602461035e983693013591016122e6565b926106cb6106c68433612626565b61254d565b6106d68383836126ee565b61291b565b612602565b8580fd5b5082346103b35736600319011261031c5780356001600160401b0381116103b35761035e916107159136910161217b565b61062361231d565b82843461031c578160031936011261031c5760209060fc549051908152f35b5082346103b35761074c3661214c565b919060ff610109541660038110156102fa57600181036108505750600180865261010860209081528387206001600160a01b038416600090815292019052604090205415610841575b6001600160a01b0316923384146107ff5750338452609c6020528084208385526020526107d0828286209060ff801983541691151516179055565b5190151581527f17307eab39ab6107e8899845ad3d59bd9653f200f220920489ca2b5937696c3160203392a380f35b6020606492519162461bcd60e51b8352820152601960248201527f4552433732313a20617070726f766520746f2063616c6c6572000000000000006044820152fd5b81516282b42960e81b81528490fd5b600203610795576002855261010860205261088682862060018060a01b0383169060019160005201602052604060002054151590565b156107955781516282b42960e81b81528490fd5b503461031c576108a936612206565b6033546001600160a01b0396908716330361030d5750906108cb913691612a3e565b936003821015908161098c57826108e0578480f35b845b865181101561097c5761090a6108f785612aa4565b83610902848b612abe565b511690612b73565b508282610917838a612abe565b511690610969578490337fc72e29af1b34de3dec3a764b4ca4d85b9c380ab33b9b268d29b6e7008bd0ed958980a46000198114610956576001016108e2565b634e487b7160e01b865260118552602486fd5b634e487b7160e01b875260218652602487fd5b5050505050905080388080808480f35b634e487b7160e01b855260218452602485fd5b82843461031c578160031936011261031c57805190826098546109c181612430565b80855291600191808316908115610a5c57506001146109ff575b5050506109ed826105279403836122aa565b519182916020835260208301906120e0565b9450609885527f2237a976fa961f5921fd19f2b03c925c725d77b20ce8f790c19709c03de4d8145b828610610a44575050506109ed82602061052795820101946109db565b80546020878701810191909152909501948101610a27565b6105279750869350602092506109ed94915060ff191682840152151560051b820101946109db565b50503461052b578060031936011261052b57818051610aa28161225e565b8281526060602082015201528051610ab98161225e565b610105548152815191610ad683610acf8161246a565b03846122aa565b60208201928352610b1060ff61010754169180840192151583526060815195869560208752516020870152519185015260808401906120e0565b9051151560608301520390f35b503461031c576020806003193601126103b3576001600160401b03908235828111610ce657610b4f903690850161217b565b939092610b5a61231d565b60ff6101075416610c9a578411610c87575061010690610b8384610b7e8454612430565b612cc3565b8490601f8511600114610bf0575094610bdf918486977f1c306e70c05992619e2128ad1ef88df75f36c9476282e59f51401b2abaa42e4e9791610be5575b508560011b906000198760031b1c19161790555b5192839283612d6f565b0390a180f35b905084013538610bc1565b90601f19851683875260008051602061335c8339815191529287905b828210610c6f57505091610bdf9391867f1c306e70c05992619e2128ad1ef88df75f36c9476282e59f51401b2abaa42e4e98999410610c55575b5050600185811b019055610bd5565b850135600019600388901b60f8161c191690553880610c46565b80600185968294968a01358155019501930190610c0c565b634e487b7160e01b855260419052602484fd5b5060849186519162461bcd60e51b8352820152602160248201527f757064617465426173655552493a3a6d65746164617461206973206c6f636b656044820152601960fa1b6064820152fd5b8480fd5b82843461031c578160031936011261031c5760335490516001600160a01b039091168152602090f35b823461052b578060031936011261052b57610d2c61231d565b600160ff1960ff54161760ff55337f793bc6423dd0257d64f9d47db72fd4b2162f4541aa41740ba1c5fb5e2cd41bcd8280a280f35b82843461031c578160031936011261031c576105279060ff61010954169051918291826121dd565b50913461031c57602092836003193601126103b357610da6612105565b92610db560ff80541615612d23565b6033546001600160a01b039190821633148015610fb7575b15610f5b5760fc548260fb541692610104966001885401809855610100548811610f1a57865191610dfd8361228f565b8483528116958615610ed957506106db8794939289610ebc93610e3e610e3883600052609960205260018060a01b0360406000205416151590565b15613093565b600082815260996020526040902054610e61906001600160a01b03161515610e38565b898752609a8d528787206001815401905581875260998d52818888209a6001600160601b0360a01b9b818d825416179055887fddf252ad1be2c89b69c2b068fc378daa952ba7f163c4a11628f55a4df523b3ef8180a46127ff565b86825260fe88528282205560fd8752209182541617905551908152f35b6064908a808a519262461bcd60e51b845283015260248201527f4552433732313a206d696e7420746f20746865207a65726f20616464726573736044820152fd5b6064868a808a519262461bcd60e51b845283015260248201527f5f637265617465546f6b656e3a3a6578636565646564206d6178546f6b656e736044820152fd5b835162461bcd60e51b8152808401879052603060248201527f6c617a794d696e743a3a6f6e6c79206f776e6572206f7220617070726f76656460448201526f081b5a5b9d195c8818d85b881b5a5b9d60821b6064820152608490fd5b50338152610102865260ff8482205416610dcd565b823461052b578060031936011261052b57610fe561231d565b603380546001600160a01b0319811690915581906001600160a01b03167f8be0079c531659141344cd1fd0a4f28419497f9722a3daafe3b4186f6b6457e08280a380f35b503461031c57602036600319011261031c576001600160a01b0361104b612105565b16908115611068576020848085858152609a845220549051908152f35b608490602085519162461bcd60e51b8352820152602960248201527f4552433732313a2061646472657373207a65726f206973206e6f7420612076616044820152683634b21037bbb732b960b91b6064820152fd5b5091903461052b57602036600319011261052b57506110de6020923561240a565b90516001600160a01b039091168152f35b508290346103b35760203660031901126103b35780359161110f8361240a565b336001600160a01b039091160361112a578361035e846129a6565b906020606492519162461bcd60e51b8352820152601f60248201527f4d75737420626520746865206f776e6572206f662074686520746f6b656e2e006044820152fd5b503461031c57608036600319011261031c576001600160401b039281358481116105d85761119e903690840161217b565b92906024358681116106e0576111b7903690840161217b565b6111c2979197612120565b9387549860ff94858b60081c16159889809a611669575b8015611653575b156115f95760ff19808d1660019081178d559b9c999a998a6115e8575b506001600160a01b038916156115a5579161125091611240898f6112589796600a60fc558254168255606435610100555460081c1661123b81612c63565b612c63565b61124933612375565b36916122e6565b9336916122e6565b9061126c858b5460081c1661123b81612c63565b82518481116115925780611281609754612430565b94601f95868111611521575b506020908d8784116001146114a25792611497575b5050600019600383901b1c1916908a1b176097555b815193841161148457506112cc609854612430565b828111611421575b506020918311600114611395579180611349959492611321948b9261138a575b5050600019600383901b1c191690881b176098555b875460081c1661131881612c63565b61123b81612c63565b60fb80546001600160a01b0319166001600160a01b03831617905561134461231d565b612375565b611351578280f35b825461ff0019168355519081527f7f26b83ff96e1f2b6a682f133852f6798a09c465da95921460cefb384740249890602090a138808280f35b0151905038806112f4565b609889528792917f2237a976fa961f5921fd19f2b03c925c725d77b20ce8f790c19709c03de4d81491601f1984168b5b8181106114095750916113219593918561134999989694106113f0575b505050811b01609855611309565b015160001960f88460031b161c191690553880806113e2565b8284015185558b9690940193602093840193016113c5565b60988a527f2237a976fa961f5921fd19f2b03c925c725d77b20ce8f790c19709c03de4d8148380860160051c8201926020871061147b575b0160051c019089905b8281106114705750506112d4565b8b8155018990611462565b92508192611459565b634e487b7160e01b8a5260419052602489fd5b0151905038806112a2565b91908d9450601f198416609784527f354a83ed9988f79f6038d4c7a7dadbad8af32f4ad6df893e0e5807a1b1944ff9935b818110611509575084116114f0575b505050811b016097556112b7565b015160001960f88460031b161c191690553880806114e2565b8284015185558f9690940193602093840193016114d3565b90915060978d527f354a83ed9988f79f6038d4c7a7dadbad8af32f4ad6df893e0e5807a1b1944ff98680850160051c82019260208610611589575b859493910160051c909101908d908f5b83821061157b5750505061128d565b81558594508e91018f61156c565b9250819261155c565b634e487b7160e01b8b526041825260248bfd5b8a5162461bcd60e51b8152602081870152601e60248201527f63726561746f722063616e6e6f74206265206e756c6c206164647265737300006044820152606490fd5b61ffff1916610101178d55386111fd565b885162461bcd60e51b8152602081860152602e60248201527f496e697469616c697a61626c653a20636f6e747261637420697320616c72656160448201526d191e481a5b9a5d1a585b1a5e995960921b6064820152608490fd5b50303b1580156111e057506001878d16146111e0565b506001878d16106111d9565b82843461031c578160031936011261031c577fb634b0cb94234b05eabb1438717e0e645bfd84788ae1263682242327563cde5e906116b161231d565b5160208152806116c36020820161246a565b0390a1610107805460ff1916600117905580f35b508290346103b35760203660031901126103b35780359160038310156105d8576033546001600160a01b0316330361176957506101099182549160ff83169060038210156117565750908060ff92337f12282389323caf08dd4e02c490ef05bc7edb56967c085742687aad3cc81aa15f8880a4169060ff191617905580f35b634e487b7160e01b865260219052602485fd5b51635c510c8360e11b8152fd5b503461031c57602036600319011261031c5761035e90356129a6565b82843461031c576106db61035e916117a9366121a8565b919251926117b68461228f565b8684526106cb6106c68433612626565b82843461031c57602036600319011261031c5760335490516001600160a01b039091168152602090f35b823461052b57602036600319011261052b5761035e61180d612105565b61181561231d565b60018060a01b03166001600160601b0360a01b60fb54161760fb55565b82843461031c57602036600319011261031c5760209160ff9082906001600160a01b0361185d612105565b168152610102855220541690519015158152f35b82843461031c578160031936011261031c5760fb5490516001600160a01b039091168152602090f35b50503461052b578060031936011261052b576118bb60ff6101095416612aa4565b9180519182845490818152602080910195835280832092905b8282106118f65761052786866118ec828b03836122aa565b5191829182612079565b8354875295860195600193840193909101906118d4565b5091903461052b578160031936011261052b578235815260fd60205281812054602435906001600160a01b03908116801561199457925b60fe60205284812054801561198a57925b8381029381850414901517156119775750835192168252606490046020820152f35b634e487b7160e01b815260118652602490fd5b5060fc5492611955565b508060fb541692611944565b823461052b5761035e6119b2366121a8565b916119c06106c68433612626565b6126ee565b82843461031c57602036600319011261031c576020906119e3612105565b60018060a01b0380603354169116149051908152f35b503461031c578260031936011261031c578035906001600160401b0390602435828111610ce657611a2d903690830161217b565b929091611a3861231d565b60ff6101075416611b8f578486526020906101038252878720928511611b7c5750611a638254612430565b601f8111611b39575b508590601f8511600114611ac85750956105a6918487987f931f495b9a8e5d8e61946ea5d61e021f636cfe213a801f97589c18c152e408bd979891610be557508560011b906000198760031b1c19161790555192839283612d6f565b90601f1985168388528288209288905b828210611b21575050916105a69391867f931f495b9a8e5d8e61946ea5d61e021f636cfe213a801f97589c18c152e408bd98999a9410610c55575050600185811b019055610bd5565b80600185968294968a01358155019501930190611ad8565b828752818720601f860160051c810191838710611b72575b601f0160051c01905b818110611b675750611a6c565b878155600101611b5a565b9091508190611b51565b634e487b7160e01b875260419052602486fd5b608490602088519162461bcd60e51b8352820152602260248201527f757064617465546f6b656e5552493a3a6d65746164617461206973206c6f636b604482015261195960f21b6064820152fd5b82843461031c578160031936011261031c57602090610104549051908152f35b82843461031c5761035e90611c113661214c565b9190611c1b61231d565b611c2960ff80541615612d23565b60018060a01b0316845261010260205283209060ff801983541691151516179055565b508290346103b357816003193601126103b357611c67612105565b906024359260ff61010954166003811015611e565760018103611e0f5750600180865261010860209081528287206001600160a01b038616600090815292019052604090205415611e03575b6001600160a01b03918280611cc78761240a565b16941693808514611db657803314908115611d97575b5015611d2f5750838552609b602052842080546001600160a01b03191683179055611d078361240a565b167f8c5be1e5ebec7d5bd14f71427d1e84f3dd0314c0f7b2291e5b200ac8c7c3b9258480a480f35b6020608492519162461bcd60e51b8352820152603d60248201527f4552433732313a20617070726f76652063616c6c6572206973206e6f7420746f60448201527f6b656e206f776e6572206f7220617070726f76656420666f7220616c6c0000006064820152fd5b90508652609c60205281862033875260205260ff828720541687611cdd565b506020608492519162461bcd60e51b8352820152602160248201527f4552433732313a20617070726f76616c20746f2063757272656e74206f776e656044820152603960f91b6064820152fd5b516282b42960e81b8152fd5b600203611cb35760028552610108602052611e4581862060018060a01b0385169060019160005201602052604060002054151590565b15611cb357516282b42960e81b8152fd5b634e487b7160e01b865260218352602486fd5b5091903461052b57602036600319011261052b57506110de6020923561250f565b82843461031c578160031936011261031c5780519082609754611eac81612430565b80855291600191808316908115610a5c5750600114611ed7575050506109ed826105279403836122aa565b9450609785527f354a83ed9988f79f6038d4c7a7dadbad8af32f4ad6df893e0e5807a1b1944ff95b828610611f1c575050506109ed82602061052795820101946109db565b80546020878701810191909152909501948101611eff565b508290346103b35760203660031901126103b35735906001600160e01b031982168083036105d8576020935063fa31a45b60e01b8114928315611ffb575b8315611f83575b5050519015158152f35b919250631030681960e21b811491908215611fea575b8215611fc1575b508115611fb1575b50908380611f79565b611fbb9150613317565b83611fa8565b90915063152a902d60e11b148015611fdb575b9084611fa0565b50611fe581613317565b611fd4565b6301ffc9a760e01b81149250611f99565b6301ffc9a760e01b82149350611f72565b5082346103b357602091826003193601126105d8573560038110156105d85761203490612aa4565b9281518093808654928381520195835280832092905b8282106120625761052786866118ec828b03836122aa565b83548752958601956001938401939091019061204a565b6020908160408183019282815285518094520193019160005b8281106120a0575050505090565b83516001600160a01b031685529381019392810192600101612092565b60005b8381106120d05750506000910152565b81810151838201526020016120c0565b906020916120f9815180928185528580860191016120bd565b601f01601f1916010190565b600435906001600160a01b038216820361211b57565b600080fd5b604435906001600160a01b038216820361211b57565b602435906001600160a01b038216820361211b57565b604090600319011261211b576004356001600160a01b038116810361211b5790602435801515810361211b5790565b9181601f8401121561211b578235916001600160401b03831161211b576020838186019501011161211b57565b606090600319011261211b576001600160a01b0390600435828116810361211b5791602435908116810361211b579060443590565b9190602083019260038210156121f05752565b634e487b7160e01b600052602160045260246000fd5b604060031982011261211b57600435600381101561211b57916024356001600160401b039283821161211b578060238301121561211b57816004013593841161211b5760248460051b8301011161211b576024019190565b606081019081106001600160401b0382111761227957604052565b634e487b7160e01b600052604160045260246000fd5b602081019081106001600160401b0382111761227957604052565b90601f801991011681019081106001600160401b0382111761227957604052565b6001600160401b03811161227957601f01601f191660200190565b9291926122f2826122cb565b9161230060405193846122aa565b82948184528183011161211b578281602093846000960137010152565b6033546001600160a01b0316330361233157565b606460405162461bcd60e51b815260206004820152602060248201527f4f776e61626c653a2063616c6c6572206973206e6f7420746865206f776e65726044820152fd5b603380546001600160a01b039283166001600160a01b0319821681179092559091167f8be0079c531659141344cd1fd0a4f28419497f9722a3daafe3b4186f6b6457e0600080a3565b156123c557565b60405162461bcd60e51b815260206004820152601860248201527f4552433732313a20696e76616c696420746f6b656e20494400000000000000006044820152606490fd5b6000908152609960205260409020546001600160a01b031661242d8115156123be565b90565b90600182811c92168015612460575b602083101461244a57565b634e487b7160e01b600052602260045260246000fd5b91607f169161243f565b9060009161010690815461247d81612430565b808352926001918083169081156124ea575060011461249d575b50505050565b909293945060005260008051602061335c833981519152916000925b8484106124d25750506020925001019038808080612497565b805460208585018101919091529093019281016124b9565b92505050602093945060ff929192191683830152151560051b01019038808080612497565b600081815260996020526040902054612532906001600160a01b031615156123be565b6000908152609b60205260409020546001600160a01b031690565b1561255457565b60405162461bcd60e51b815260206004820152602d60248201527f4552433732313a2063616c6c6572206973206e6f7420746f6b656e206f776e6560448201526c1c881bdc88185c1c1c9bdd9959609a1b6064820152608490fd5b60809060208152603260208201527f4552433732313a207472616e7366657220746f206e6f6e20455243373231526560408201527131b2b4bb32b91034b6b83632b6b2b73a32b960711b60608201520190565b1561260957565b60405162461bcd60e51b815280612622600482016125af565b0390fd5b906001600160a01b03808061263a8461240a565b1693169183831493841561266d575b508315612657575b50505090565b6126639192935061250f565b1614388080612651565b909350600052609c60205260406000208260005260205260ff604060002054169238612649565b1561269b57565b60405162461bcd60e51b815260206004820152602560248201527f4552433732313a207472616e736665722066726f6d20696e636f72726563742060448201526437bbb732b960d91b6064820152608490fd5b90612716916126fc8461240a565b6001600160a01b0393918416928492909183168414612694565b169182156127ae57816127339161272c8661240a565b1614612694565b7fddf252ad1be2c89b69c2b068fc378daa952ba7f163c4a11628f55a4df523b3ef6000848152609b602052604081206001600160601b0360a01b90818154169055838252609a6020526040822060001981540190558482526040822060018154019055858252609960205284604083209182541617905580a4565b60405162461bcd60e51b8152602060048201526024808201527f4552433732313a207472616e7366657220746f20746865207a65726f206164646044820152637265737360e01b6064820152608490fd5b9192600092909190803b156129115761284d946040518092630a85bd0160e11b9485835233600484015287602484015260448301526080606483015281878160209a8b9660848301906120e0565b03926001600160a01b03165af18491816128d1575b506128c0575050503d6000146128b8573d61287c816122cb565b9061288a60405192836122aa565b81528091833d92013e5b805191826128b55760405162461bcd60e51b815280612622600482016125af565b01fd5b506060612894565b6001600160e01b0319161492509050565b9091508581813d831161290a575b6128e981836122aa565b81010312610ce657516001600160e01b031981168103610ce6579038612862565b503d6128df565b5050915050600190565b9293600093909291803b1561299b579484916129759660405180948193630a85bd0160e11b9788845233600485015260018060a01b0380921660248501526044840152608060648401528260209b8c9760848301906120e0565b0393165af18491816128d157506128c0575050503d6000146128b8573d61287c816122cb565b505050915050600190565b6129b36106c68233612626565b6129bc8161240a565b506129c68161240a565b6000828152609b6020908152604080832080546001600160a01b03199081169091556001600160a01b03909416808452609a83528184208054600019019055858452609990925282208054909316909255907fddf252ad1be2c89b69c2b068fc378daa952ba7f163c4a11628f55a4df523b3ef8280a4565b9092916001600160401b038411612279578360051b6040519260208094612a67828501826122aa565b809781520191810192831161211b57905b828210612a855750505050565b81356001600160a01b038116810361211b578152908301908301612a78565b60038110156121f057600052610108602052604060002090565b8051821015612ad25760209160051b010190565b634e487b7160e01b600052603260045260246000fd5b8054821015612ad25760005260206000200190600090565b6000828152600182016020526040902054612b6c57805490680100000000000000008210156122795782612b55612b3e846001809601855584612ae8565b819391549060031b91821b91600019901b19161790565b905580549260005201602052604060002055600190565b5050600090565b90600182019060009281845282602052604084205490811515600014612c5c5760001991808301818111612c4857825490848201918211612c3457808203612bff575b50505080548015612beb57820191612bce8383612ae8565b909182549160031b1b191690555582526020526040812055600190565b634e487b7160e01b86526031600452602486fd5b612c1f612c0f612b3e9386612ae8565b90549060031b1c92839286612ae8565b90558652846020526040862055388080612bb6565b634e487b7160e01b88526011600452602488fd5b634e487b7160e01b87526011600452602487fd5b5050505090565b15612c6a57565b60405162461bcd60e51b815260206004820152602b60248201527f496e697469616c697a61626c653a20636f6e7472616374206973206e6f74206960448201526a6e697469616c697a696e6760a81b6064820152608490fd5b601f8111612ccf575050565b600090610106825260008051602061335c833981519152906020601f850160051c83019410612d19575b601f0160051c01915b828110612d0e57505050565b818155600101612d02565b9092508290612cf9565b15612d2a57565b60405162461bcd60e51b815260206004820152601e60248201527f436f6e7472616374206d757374206e6f742062652064697361626c65642e00006044820152606490fd5b90918060409360208452816020850152848401376000828201840152601f01601f1916010190565b60009080825261010390602090828252604092612db684862054612430565b612feb575092839281907a184f03e93ff9f4daa797ed6e38ed64bf6a1f0100000000000000008581811015612fde575b50506d04ee2d6d415b85acef810000000080861015612fd0575b50662386f26fc1000080861015612fc1575b506305f5e10080861015612fb2575b5061271080861015612fa3575b506064851015612f93575b600a80951015612f89575b60019485840196866021612e6f612e5a8b6122cb565b9a612e6787519c8d6122aa565b808c526122cb565b8a89019790601f19013689378a0101905b612f5a575b505050519485938261010690815491612e9d83612430565b92898116908115612f395750600114612ef2575b505050506006939282612ede64173539b7b760d91b93602f60f81b61242d999652518093868401906120bd565b0191820152036019198101845201826122aa565b8152929350909160008051602061335c8339815191525b828210612f23575050840101908281612ede61242d612eb1565b8054898301850152889650908301908701612f09565b60ff1916858a01525050508015150285010191508281612ede61242d612eb1565b600019019082906f181899199a1a9b1b9c1cb0b131b232b360811b8282061a835304908782612e805750612e85565b9160010191612e44565b9193606460029104940191612e39565b60049193950494019138612e2e565b60089193950494019138612e21565b60109193950494019138612e12565b849193950494019138612e00565b0494509150813880612de6565b908493929352825280832090519283918181549061300882612430565b8086529260019280841690811561306f5750600114613032575b5050505061242d925003826122aa565b815285812095935091905b81831061305757505061242d935082010138808080613022565b8554878401850152948501948694509183019161303d565b935050505061242d94925060ff191682840152151560051b82010138808080613022565b1561309a57565b60405162461bcd60e51b815260206004820152601c60248201527f4552433732313a20746f6b656e20616c7265616479206d696e746564000000006044820152606490fd5b9291906101005482116132d3576101045461327457604051936131018561225e565b82855261310f3683836122e6565b6020908082880152604087019160009788845251610105558151906001600160401b038211613260576101069261314a83610b7e8654612430565b81601f84116001146131cb57509082917f6f1d651e6e0c8f86bd32a20c22a644d1e34fabf72307ff95d51b9f5892ddba1998999a926131c0575b50508160011b916000199060031b1c19161790555b5115156101079060ff801983541691161790556131bb60405192839283612d6f565b0390a2565b015190503880613184565b848b52929960008051602061335c83398151915293601f198c1691905b82821061324857505091600193918b7f6f1d651e6e0c8f86bd32a20c22a644d1e34fabf72307ff95d51b9f5892ddba199a9b9c941061322f575b505050811b019055613199565b015160001960f88460031b161c19169055388080613222565b806001869782949787015181550196019401906131e8565b634e487b7160e01b89526041600452602489fd5b60405162461bcd60e51b815260206004820152603160248201527f5f707265706172654d696e743a3a63616e206f6e6c792070726570617265206d604482015270696e742077697468203020746f6b656e7360781b6064820152608490fd5b606460405162461bcd60e51b815260206004820152602060248201527f5f707265706172654d696e743a3a6578636565646564206d6178546f6b656e736044820152fd5b63ffffffff60e01b166380ac58cd60e01b811490811561334a575b811561333c575090565b6301ffc9a760e01b14919050565b635b5e139f60e01b8114915061333256fec9ef9fceea91e87b2c84ea400a44fde78842aae8aa24cd4b502ce5fb4d91e63ba264697066735822122021d2821b803a3709515d735f1f04f2ed6d9a07724e1875b57b90e344009adabb64736f6c634300081200336080806040523461001657613551908161001c8239f35b600080fdfe60406080815260048036101561001457600080fd5b600090813560e01c8063012cf1e8146121ac57806301ffc9a7146120d457806306fdde031461202a578063081812fc14612009578063095ea7b314611dec5780630de54ba014611d9d57806318160ddd14611d7d57806318e97fd114611b995780632042748614611b6557806321c4a5d814611aae57806323b872dd14611a895780632a55205a146119f65780632ce878da146119835780633403c4e91461195a5780633a3d146f1461191b5780633ebc82c5146118d957806340c1a064146118af57806342842e0e1461187b57806342966c681461185f578063472a6638146117c057806353df5c7c1461175e5780635aec8d62146116b65780635edc7c19146111ae5780636297c16c146111305780636352211e146110fe57806370a082311461106a578063715018a61461100d578063717392ed14610fed578063755edd1714610daa57806387bc793f14610d82578063894ba83314610d345780638da5cb5b14610d0b578063931688cb14610b3e5780639338bb5d14610aa557806395d89b41146109c05780639e860f2a146108bb578063a22cb4651461075d578063ab69607a1461073e578063b390ac2514610705578063b88d4fde1461067c578063b9fbd25c146105fd578063bc7194551461054f578063c87b56dd14610513578063e8315742146104f3578063e985e9c5146104a5578063eab851181461044a578063ee07080514610427578063efc32cd4146103d8578063f2fde38b146103415763ff6e8c8f1461024657600080fd5b3461033d57610254366123a6565b6033546001600160a01b0396908716330361032e57600384101561031b57831561030c575090610285913691612bde565b93835b8551811015610308576102b061029d84612c44565b836102a8848a612c5e565b511690612ca0565b5082826102bd8389612c5e565b5116337f14155f749dc3f9cd2bf890d6d3a47069f77ae35befcee11c8b1a3ba41cba15368880a460001981146102f557600101610288565b634e487b7160e01b855260118452602485fd5b8480f35b51632de777a160e11b81528490fd5b634e487b7160e01b865260218552602486fd5b51635c510c8360e11b81528490fd5b5080fd5b508290346103d45760203660031901126103d45761035d6122a5565b916103666124bd565b6001600160a01b03831615610382578361037f84612515565b80f35b906020608492519162461bcd60e51b8352820152602660248201527f4f776e61626c653a206e6577206f776e657220697320746865207a65726f206160448201526564647265737360d01b6064820152fd5b8280fd5b82843461033d578060031936011261033d576103f26122a5565b906103fb6124bd565b602435835260fd602052822080546001600160a01b0319166001600160a01b0390921691909117905580f35b82843461033d578160031936011261033d5760209060ff80541690519015158152f35b82843461033d57602036600319011261033d5760209061049c61046b6122a5565b61047a60ff6101095416612c44565b6001600160a01b03909116600090815260019091016020526040902054151590565b90519015158152f35b82843461033d578060031936011261033d5760ff816020936104c56122a5565b6104cd6122d6565b6001600160a01b039182168352609c875283832091168252855220549151911615158152f35b82843461033d578160031936011261033d57602090610100549051908152f35b5091903461054c57602036600319011261054c57506105356105489235612f37565b9051918291602083526020830190612280565b0390f35b80fd5b5082346103d45760203660031901126103d45781359160038310156105f9576033546001600160a01b031633036105eb575061058a82612c44565b805490848155816105cd575b50507f7efc19cf93d497a6a56103ea89a39d51c0cad74a817ed3cd0ecaff9823d4da249051806105c733948261237d565b0390a280f35b845260208420908101905b81811015610596578481556001016105d8565b9051635c510c8360e11b8152fd5b8380fd5b508290346103d45760603660031901126103d45780356001600160401b0381116105f95761065b916106319136910161231b565b919061063b6122c0565b926106446124bd565b61065260ff80541615612ec3565b6024359161327f565b6001600160a01b031682526101026020528120805460ff1916600117905580f35b503461033d57608036600319011261033d576106966122a5565b9061069f6122d6565b91604435606435936001600160401b0385116107015736602386011215610701576106d96106fc9486602461037f98369301359101612486565b926106ec6106e784336127c6565b6126ed565b6106f783838361288e565b612abb565b6127a2565b8580fd5b5082346103d45736600319011261033d5780356001600160401b0381116103d45761037f916107369136910161231b565b6106446124bd565b82843461033d578160031936011261033d5760209060fc549051908152f35b5082346103d45761076d366122ec565b919060ff6101095416600381101561031b57600181036108715750600180865261010860209081528387206001600160a01b038416600090815292019052604090205415610862575b6001600160a01b0316923384146108205750338452609c6020528084208385526020526107f1828286209060ff801983541691151516179055565b5190151581527f17307eab39ab6107e8899845ad3d59bd9653f200f220920489ca2b5937696c3160203392a380f35b6020606492519162461bcd60e51b8352820152601960248201527f4552433732313a20617070726f766520746f2063616c6c6572000000000000006044820152fd5b81516282b42960e81b81528490fd5b6002036107b657600285526101086020526108a782862060018060a01b0383169060019160005201602052604060002054151590565b156107b65781516282b42960e81b81528490fd5b503461033d576108ca366123a6565b6033546001600160a01b0396908716330361032e5750906108ec913691612bde565b93600382101590816109ad5782610901578480f35b845b865181101561099d5761092b61091885612c44565b83610923848b612c5e565b511690612d13565b508282610938838a612c5e565b51169061098a578490337fc72e29af1b34de3dec3a764b4ca4d85b9c380ab33b9b268d29b6e7008bd0ed958980a4600019811461097757600101610903565b634e487b7160e01b865260118552602486fd5b634e487b7160e01b875260218652602487fd5b5050505050905080388080808480f35b634e487b7160e01b855260218452602485fd5b82843461033d578160031936011261033d57805190826098546109e2816125d0565b80855291600191808316908115610a7d5750600114610a20575b505050610a0e8261054894038361244a565b51918291602083526020830190612280565b9450609885527f2237a976fa961f5921fd19f2b03c925c725d77b20ce8f790c19709c03de4d8145b828610610a6557505050610a0e82602061054895820101946109fc565b80546020878701810191909152909501948101610a48565b610548975086935060209250610a0e94915060ff191682840152151560051b820101946109fc565b50503461054c578060031936011261054c57818051610ac3816123fe565b8281526060602082015201528051610ada816123fe565b610105548152815191610af783610af08161260a565b038461244a565b60208201928352610b3160ff6101075416918084019215158352606081519586956020875251602087015251918501526080840190612280565b9051151560608301520390f35b503461033d576020806003193601126103d4576001600160401b03908235828111610d0757610b70903690850161231b565b939092610b7b6124bd565b60ff6101075416610cbb578411610ca8575061010690610ba484610b9f84546125d0565b612e63565b8490601f8511600114610c11575094610c00918486977f1c306e70c05992619e2128ad1ef88df75f36c9476282e59f51401b2abaa42e4e9791610c06575b508560011b906000198760031b1c19161790555b5192839283612f0f565b0390a180f35b905084013538610be2565b90601f1985168387526000805160206134fc8339815191529287905b828210610c9057505091610c009391867f1c306e70c05992619e2128ad1ef88df75f36c9476282e59f51401b2abaa42e4e98999410610c76575b5050600185811b019055610bf6565b850135600019600388901b60f8161c191690553880610c67565b80600185968294968a01358155019501930190610c2d565b634e487b7160e01b855260419052602484fd5b5060849186519162461bcd60e51b8352820152602160248201527f757064617465426173655552493a3a6d65746164617461206973206c6f636b656044820152601960fa1b6064820152fd5b8480fd5b82843461033d578160031936011261033d5760335490516001600160a01b039091168152602090f35b823461054c578060031936011261054c57610d4d6124bd565b600160ff1960ff54161760ff55337f793bc6423dd0257d64f9d47db72fd4b2162f4541aa41740ba1c5fb5e2cd41bcd8280a280f35b82843461033d578160031936011261033d576105489060ff610109541690519182918261237d565b50913461033d57602092836003193601126103d457610dc76122a5565b92610dd660ff80541615612ec3565b6033546001600160a01b039190821633148015610fd8575b15610f7c5760fc548260fb541692610104966001885401809855610100548811610f3b57865191610e1e8361242f565b8483528116958615610efa57506106fc8794939289610edd93610e5f610e5983600052609960205260018060a01b0360406000205416151590565b15613233565b600082815260996020526040902054610e82906001600160a01b03161515610e59565b898752609a8d528787206001815401905581875260998d52818888209a6001600160601b0360a01b9b818d825416179055887fddf252ad1be2c89b69c2b068fc378daa952ba7f163c4a11628f55a4df523b3ef8180a461299f565b86825260fe88528282205560fd8752209182541617905551908152f35b6064908a808a519262461bcd60e51b845283015260248201527f4552433732313a206d696e7420746f20746865207a65726f20616464726573736044820152fd5b6064868a808a519262461bcd60e51b845283015260248201527f5f637265617465546f6b656e3a3a6578636565646564206d6178546f6b656e736044820152fd5b835162461bcd60e51b8152808401879052603060248201527f6c617a794d696e743a3a6f6e6c79206f776e6572206f7220617070726f76656460448201526f081b5a5b9d195c8818d85b881b5a5b9d60821b6064820152608490fd5b50338152610102865260ff8482205416610dee565b82843461033d578160031936011261033d5760209061010a549051908152f35b823461054c578060031936011261054c576110266124bd565b603380546001600160a01b0319811690915581906001600160a01b03167f8be0079c531659141344cd1fd0a4f28419497f9722a3daafe3b4186f6b6457e08280a380f35b503461033d57602036600319011261033d576001600160a01b0361108c6122a5565b169081156110a9576020848085858152609a845220549051908152f35b608490602085519162461bcd60e51b8352820152602960248201527f4552433732313a2061646472657373207a65726f206973206e6f7420612076616044820152683634b21037bbb732b960b91b6064820152fd5b5091903461054c57602036600319011261054c575061111f602092356125aa565b90516001600160a01b039091168152f35b508290346103d45760203660031901126103d457803591611150836125aa565b336001600160a01b039091160361116b578361037f84612b46565b906020606492519162461bcd60e51b8352820152601f60248201527f4d75737420626520746865206f776e6572206f662074686520746f6b656e2e006044820152fd5b503461033d57608036600319011261033d576001600160401b039281358481116105f9576111df903690840161231b565b9290602435868111610701576111f8903690840161231b565b6112039791976122c0565b9387549860ff94858b60081c16159889809a6116aa575b8015611694575b1561163a5760ff19808d1660019081178d559b9c999a998a611629575b506001600160a01b038916156115e6579161129191611281898f6112999796600a60fc558254168255606435610100555460081c1661127c81612e03565b612e03565b61128a33612515565b3691612486565b933691612486565b906112ad858b5460081c1661127c81612e03565b82518481116115d357806112c26097546125d0565b94601f95868111611562575b506020908d8784116001146114e357926114d8575b5050600019600383901b1c1916908a1b176097555b81519384116114c5575061130d6098546125d0565b828111611462575b5060209183116001146113d657918061138a959492611362948b926113cb575b5050600019600383901b1c191690881b176098555b875460081c1661135981612e03565b61127c81612e03565b60fb80546001600160a01b0319166001600160a01b0383161790556113856124bd565b612515565b611392578280f35b825461ff0019168355519081527f7f26b83ff96e1f2b6a682f133852f6798a09c465da95921460cefb384740249890602090a138808280f35b015190503880611335565b609889528792917f2237a976fa961f5921fd19f2b03c925c725d77b20ce8f790c19709c03de4d81491601f1984168b5b81811061144a5750916113629593918561138a9998969410611431575b505050811b0160985561134a565b015160001960f88460031b161c19169055388080611423565b8284015185558b969094019360209384019301611406565b60988a527f2237a976fa961f5921fd19f2b03c925c725d77b20ce8f790c19709c03de4d8148380860160051c820192602087106114bc575b0160051c019089905b8281106114b1575050611315565b8b81550189906114a3565b9250819261149a565b634e487b7160e01b8a5260419052602489fd5b0151905038806112e3565b91908d9450601f198416609784527f354a83ed9988f79f6038d4c7a7dadbad8af32f4ad6df893e0e5807a1b1944ff9935b81811061154a57508411611531575b505050811b016097556112f8565b015160001960f88460031b161c19169055388080611523565b8284015185558f969094019360209384019301611514565b90915060978d527f354a83ed9988f79f6038d4c7a7dadbad8af32f4ad6df893e0e5807a1b1944ff98680850160051c820192602086106115ca575b859493910160051c909101908d908f5b8382106115bc575050506112ce565b81558594508e91018f6115ad565b9250819261159d565b634e487b7160e01b8b526041825260248bfd5b8a5162461bcd60e51b8152602081870152601e60248201527f63726561746f722063616e6e6f74206265206e756c6c206164647265737300006044820152606490fd5b61ffff1916610101178d553861123e565b885162461bcd60e51b8152602081860152602e60248201527f496e697469616c697a61626c653a20636f6e747261637420697320616c72656160448201526d191e481a5b9a5d1a585b1a5e995960921b6064820152608490fd5b50303b15801561122157506001878d1614611221565b506001878d161061121a565b5082346103d457826003193601126103d45761010a54421061175157506101099081549060ff821690600382101561173e57508390337f12282389323caf08dd4e02c490ef05bc7edb56967c085742687aad3cc81aa15f8380a460ff19169055337f60faf76514baf225c418dfc1e3c75bed0bd280f0436999e12cb0a73acb0f9a468280a280f35b634e487b7160e01b855260219052602484fd5b5163807a684760e01b8152fd5b82843461033d578160031936011261033d577fb634b0cb94234b05eabb1438717e0e645bfd84788ae1263682242327563cde5e9061179a6124bd565b5160208152806117ac6020820161260a565b0390a1610107805460ff1916600117905580f35b508290346103d45760203660031901126103d45780359160038310156105f9576033546001600160a01b0316330361185257506101099182549160ff831690600382101561183f5750908060ff92337f12282389323caf08dd4e02c490ef05bc7edb56967c085742687aad3cc81aa15f8880a4169060ff191617905580f35b634e487b7160e01b865260219052602485fd5b51635c510c8360e11b8152fd5b503461033d57602036600319011261033d5761037f9035612b46565b82843461033d576106fc61037f9161189236612348565b9192519261189f8461242f565b8684526106ec6106e784336127c6565b82843461033d57602036600319011261033d5760335490516001600160a01b039091168152602090f35b823461054c57602036600319011261054c5761037f6118f66122a5565b6118fe6124bd565b60018060a01b03166001600160601b0360a01b60fb54161760fb55565b82843461033d57602036600319011261033d5760209160ff9082906001600160a01b036119466122a5565b168152610102855220541690519015158152f35b82843461033d578160031936011261033d5760fb5490516001600160a01b039091168152602090f35b50503461054c578060031936011261054c576119a460ff6101095416612c44565b9180519182845490818152602080910195835280832092905b8282106119df5761054886866119d5828b038361244a565b5191829182612219565b8354875295860195600193840193909101906119bd565b5091903461054c578160031936011261054c578235815260fd60205281812054602435906001600160a01b039081168015611a7d57925b60fe602052848120548015611a7357925b838102938185041490151715611a605750835192168252606490046020820152f35b634e487b7160e01b815260118652602490fd5b5060fc5492611a3e565b508060fb541692611a2d565b823461054c5761037f611a9b36612348565b91611aa96106e784336127c6565b61288e565b5082346103d45760203660031901126103d4576033548235906001600160a01b03163303611b57576301e1338090818102918183041490151715611b4457420191824211611b31575061010a907f6e948191a35d69000746799fef50c705bbdc93bd5a7577e9e9eb879c04bdebc982549180519283528460208401523392a25580f35b634e487b7160e01b845260119052602483fd5b634e487b7160e01b845260118352602484fd5b5051635c510c8360e11b8152fd5b82843461033d57602036600319011261033d57602090611b836122a5565b60018060a01b0380603354169116149051908152f35b503461033d578260031936011261033d578035906001600160401b0390602435828111610d0757611bcd903690830161231b565b929091611bd86124bd565b60ff6101075416611d2f578486526020906101038252878720928511611d1c5750611c0382546125d0565b601f8111611cd9575b508590601f8511600114611c685750956105c7918487987f931f495b9a8e5d8e61946ea5d61e021f636cfe213a801f97589c18c152e408bd979891610c0657508560011b906000198760031b1c19161790555192839283612f0f565b90601f1985168388528288209288905b828210611cc1575050916105c79391867f931f495b9a8e5d8e61946ea5d61e021f636cfe213a801f97589c18c152e408bd98999a9410610c76575050600185811b019055610bf6565b80600185968294968a01358155019501930190611c78565b828752818720601f860160051c810191838710611d12575b601f0160051c01905b818110611d075750611c0c565b878155600101611cfa565b9091508190611cf1565b634e487b7160e01b875260419052602486fd5b608490602088519162461bcd60e51b8352820152602260248201527f757064617465546f6b656e5552493a3a6d65746164617461206973206c6f636b604482015261195960f21b6064820152fd5b82843461033d578160031936011261033d57602090610104549051908152f35b82843461033d5761037f90611db1366122ec565b9190611dbb6124bd565b611dc960ff80541615612ec3565b60018060a01b0316845261010260205283209060ff801983541691151516179055565b508290346103d457816003193601126103d457611e076122a5565b906024359260ff61010954166003811015611ff65760018103611faf5750600180865261010860209081528287206001600160a01b038616600090815292019052604090205415611fa3575b6001600160a01b03918280611e67876125aa565b16941693808514611f5657803314908115611f37575b5015611ecf5750838552609b602052842080546001600160a01b03191683179055611ea7836125aa565b167f8c5be1e5ebec7d5bd14f71427d1e84f3dd0314c0f7b2291e5b200ac8c7c3b9258480a480f35b6020608492519162461bcd60e51b8352820152603d60248201527f4552433732313a20617070726f76652063616c6c6572206973206e6f7420746f60448201527f6b656e206f776e6572206f7220617070726f76656420666f7220616c6c0000006064820152fd5b90508652609c60205281862033875260205260ff828720541687611e7d565b506020608492519162461bcd60e51b8352820152602160248201527f4552433732313a20617070726f76616c20746f2063757272656e74206f776e656044820152603960f91b6064820152fd5b516282b42960e81b8152fd5b600203611e535760028552610108602052611fe581862060018060a01b0385169060019160005201602052604060002054151590565b15611e5357516282b42960e81b8152fd5b634e487b7160e01b865260218352602486fd5b5091903461054c57602036600319011261054c575061111f602092356126af565b82843461033d578160031936011261033d578051908260975461204c816125d0565b80855291600191808316908115610a7d575060011461207757505050610a0e8261054894038361244a565b9450609785527f354a83ed9988f79f6038d4c7a7dadbad8af32f4ad6df893e0e5807a1b1944ff95b8286106120bc57505050610a0e82602061054895820101946109fc565b8054602087870181019190915290950194810161209f565b508290346103d45760203660031901126103d45735906001600160e01b031982168083036105f9576020935063fa31a45b60e01b811492831561219b575b8315612123575b5050519015158152f35b919250631030681960e21b81149190821561218a575b8215612161575b508115612151575b50908380612119565b61215b91506134b7565b83612148565b90915063152a902d60e11b14801561217b575b9084612140565b50612185816134b7565b612174565b6301ffc9a760e01b81149250612139565b6301ffc9a760e01b82149350612112565b5082346103d457602091826003193601126105f9573560038110156105f9576121d490612c44565b9281518093808654928381520195835280832092905b8282106122025761054886866119d5828b038361244a565b8354875295860195600193840193909101906121ea565b6020908160408183019282815285518094520193019160005b828110612240575050505090565b83516001600160a01b031685529381019392810192600101612232565b60005b8381106122705750506000910152565b8181015183820152602001612260565b906020916122998151809281855285808601910161225d565b601f01601f1916010190565b600435906001600160a01b03821682036122bb57565b600080fd5b604435906001600160a01b03821682036122bb57565b602435906001600160a01b03821682036122bb57565b60409060031901126122bb576004356001600160a01b03811681036122bb579060243580151581036122bb5790565b9181601f840112156122bb578235916001600160401b0383116122bb57602083818601950101116122bb57565b60609060031901126122bb576001600160a01b039060043582811681036122bb579160243590811681036122bb579060443590565b9190602083019260038210156123905752565b634e487b7160e01b600052602160045260246000fd5b60406003198201126122bb5760043560038110156122bb57916024356001600160401b03928382116122bb57806023830112156122bb5781600401359384116122bb5760248460051b830101116122bb576024019190565b606081019081106001600160401b0382111761241957604052565b634e487b7160e01b600052604160045260246000fd5b602081019081106001600160401b0382111761241957604052565b90601f801991011681019081106001600160401b0382111761241957604052565b6001600160401b03811161241957601f01601f191660200190565b9291926124928261246b565b916124a0604051938461244a565b8294818452818301116122bb578281602093846000960137010152565b6033546001600160a01b031633036124d157565b606460405162461bcd60e51b815260206004820152602060248201527f4f776e61626c653a2063616c6c6572206973206e6f7420746865206f776e65726044820152fd5b603380546001600160a01b039283166001600160a01b0319821681179092559091167f8be0079c531659141344cd1fd0a4f28419497f9722a3daafe3b4186f6b6457e0600080a3565b1561256557565b60405162461bcd60e51b815260206004820152601860248201527f4552433732313a20696e76616c696420746f6b656e20494400000000000000006044820152606490fd5b6000908152609960205260409020546001600160a01b03166125cd81151561255e565b90565b90600182811c92168015612600575b60208310146125ea57565b634e487b7160e01b600052602260045260246000fd5b91607f16916125df565b9060009161010690815461261d816125d0565b8083529260019180831690811561268a575060011461263d575b50505050565b90929394506000526000805160206134fc833981519152916000925b8484106126725750506020925001019038808080612637565b80546020858501810191909152909301928101612659565b92505050602093945060ff929192191683830152151560051b01019038808080612637565b6000818152609960205260409020546126d2906001600160a01b0316151561255e565b6000908152609b60205260409020546001600160a01b031690565b156126f457565b60405162461bcd60e51b815260206004820152602d60248201527f4552433732313a2063616c6c6572206973206e6f7420746f6b656e206f776e6560448201526c1c881bdc88185c1c1c9bdd9959609a1b6064820152608490fd5b60809060208152603260208201527f4552433732313a207472616e7366657220746f206e6f6e20455243373231526560408201527131b2b4bb32b91034b6b83632b6b2b73a32b960711b60608201520190565b156127a957565b60405162461bcd60e51b8152806127c26004820161274f565b0390fd5b906001600160a01b0380806127da846125aa565b1693169183831493841561280d575b5083156127f7575b50505090565b612803919293506126af565b16143880806127f1565b909350600052609c60205260406000208260005260205260ff6040600020541692386127e9565b1561283b57565b60405162461bcd60e51b815260206004820152602560248201527f4552433732313a207472616e736665722066726f6d20696e636f72726563742060448201526437bbb732b960d91b6064820152608490fd5b906128b69161289c846125aa565b6001600160a01b0393918416928492909183168414612834565b1691821561294e57816128d3916128cc866125aa565b1614612834565b7fddf252ad1be2c89b69c2b068fc378daa952ba7f163c4a11628f55a4df523b3ef6000848152609b602052604081206001600160601b0360a01b90818154169055838252609a6020526040822060001981540190558482526040822060018154019055858252609960205284604083209182541617905580a4565b60405162461bcd60e51b8152602060048201526024808201527f4552433732313a207472616e7366657220746f20746865207a65726f206164646044820152637265737360e01b6064820152608490fd5b9192600092909190803b15612ab1576129ed946040518092630a85bd0160e11b9485835233600484015287602484015260448301526080606483015281878160209a8b966084830190612280565b03926001600160a01b03165af1849181612a71575b50612a60575050503d600014612a58573d612a1c8161246b565b90612a2a604051928361244a565b81528091833d92013e5b80519182612a555760405162461bcd60e51b8152806127c26004820161274f565b01fd5b506060612a34565b6001600160e01b0319161492509050565b9091508581813d8311612aaa575b612a89818361244a565b81010312610d0757516001600160e01b031981168103610d07579038612a02565b503d612a7f565b5050915050600190565b9293600093909291803b15612b3b57948491612b159660405180948193630a85bd0160e11b9788845233600485015260018060a01b0380921660248501526044840152608060648401528260209b8c976084830190612280565b0393165af1849181612a715750612a60575050503d600014612a58573d612a1c8161246b565b505050915050600190565b612b536106e782336127c6565b612b5c816125aa565b50612b66816125aa565b6000828152609b6020908152604080832080546001600160a01b03199081169091556001600160a01b03909416808452609a83528184208054600019019055858452609990925282208054909316909255907fddf252ad1be2c89b69c2b068fc378daa952ba7f163c4a11628f55a4df523b3ef8280a4565b9092916001600160401b038411612419578360051b6040519260208094612c078285018261244a565b80978152019181019283116122bb57905b828210612c255750505050565b81356001600160a01b03811681036122bb578152908301908301612c18565b600381101561239057600052610108602052604060002090565b8051821015612c725760209160051b010190565b634e487b7160e01b600052603260045260246000fd5b8054821015612c725760005260206000200190600090565b6000828152600182016020526040902054612d0c57805490680100000000000000008210156124195782612cf5612cde846001809601855584612c88565b819391549060031b91821b91600019901b19161790565b905580549260005201602052604060002055600190565b5050600090565b90600182019060009281845282602052604084205490811515600014612dfc5760001991808301818111612de857825490848201918211612dd457808203612d9f575b50505080548015612d8b57820191612d6e8383612c88565b909182549160031b1b191690555582526020526040812055600190565b634e487b7160e01b86526031600452602486fd5b612dbf612daf612cde9386612c88565b90549060031b1c92839286612c88565b90558652846020526040862055388080612d56565b634e487b7160e01b88526011600452602488fd5b634e487b7160e01b87526011600452602487fd5b5050505090565b15612e0a57565b60405162461bcd60e51b815260206004820152602b60248201527f496e697469616c697a61626c653a20636f6e7472616374206973206e6f74206960448201526a6e697469616c697a696e6760a81b6064820152608490fd5b601f8111612e6f575050565b60009061010682526000805160206134fc833981519152906020601f850160051c83019410612eb9575b601f0160051c01915b828110612eae57505050565b818155600101612ea2565b9092508290612e99565b15612eca57565b60405162461bcd60e51b815260206004820152601e60248201527f436f6e7472616374206d757374206e6f742062652064697361626c65642e00006044820152606490fd5b90918060409360208452816020850152848401376000828201840152601f01601f1916010190565b60009080825261010390602090828252604092612f56848620546125d0565b61318b575092839281907a184f03e93ff9f4daa797ed6e38ed64bf6a1f010000000000000000858181101561317e575b50506d04ee2d6d415b85acef810000000080861015613170575b50662386f26fc1000080861015613161575b506305f5e10080861015613152575b5061271080861015613143575b506064851015613133575b600a80951015613129575b6001948584019686602161300f612ffa8b61246b565b9a61300787519c8d61244a565b808c5261246b565b8a89019790601f19013689378a0101905b6130fa575b50505051948593826101069081549161303d836125d0565b928981169081156130d95750600114613092575b50505050600693928261307e64173539b7b760d91b93602f60f81b6125cd9996525180938684019061225d565b01918201520360191981018452018261244a565b815292935090916000805160206134fc8339815191525b8282106130c357505084010190828161307e6125cd613051565b80548983018501528896509083019087016130a9565b60ff1916858a0152505050801515028501019150828161307e6125cd613051565b600019019082906f181899199a1a9b1b9c1cb0b131b232b360811b8282061a8353049087826130205750613025565b9160010191612fe4565b9193606460029104940191612fd9565b60049193950494019138612fce565b60089193950494019138612fc1565b60109193950494019138612fb2565b849193950494019138612fa0565b0494509150813880612f86565b90849392935282528083209051928391818154906131a8826125d0565b8086529260019280841690811561320f57506001146131d2575b505050506125cd9250038261244a565b815285812095935091905b8183106131f75750506125cd9350820101388080806131c2565b855487840185015294850194869450918301916131dd565b93505050506125cd94925060ff191682840152151560051b820101388080806131c2565b1561323a57565b60405162461bcd60e51b815260206004820152601c60248201527f4552433732313a20746f6b656e20616c7265616479206d696e746564000000006044820152606490fd5b929190610100548211613473576101045461341457604051936132a1856123fe565b8285526132af368383612486565b6020908082880152604087019160009788845251610105558151906001600160401b03821161340057610106926132ea83610b9f86546125d0565b81601f841160011461336b57509082917f6f1d651e6e0c8f86bd32a20c22a644d1e34fabf72307ff95d51b9f5892ddba1998999a92613360575b50508160011b916000199060031b1c19161790555b5115156101079060ff8019835416911617905561335b60405192839283612f0f565b0390a2565b015190503880613324565b848b5292996000805160206134fc83398151915293601f198c1691905b8282106133e857505091600193918b7f6f1d651e6e0c8f86bd32a20c22a644d1e34fabf72307ff95d51b9f5892ddba199a9b9c94106133cf575b505050811b019055613339565b015160001960f88460031b161c191690553880806133c2565b80600186978294978701518155019601940190613388565b634e487b7160e01b89526041600452602489fd5b60405162461bcd60e51b815260206004820152603160248201527f5f707265706172654d696e743a3a63616e206f6e6c792070726570617265206d604482015270696e742077697468203020746f6b656e7360781b6064820152608490fd5b606460405162461bcd60e51b815260206004820152602060248201527f5f707265706172654d696e743a3a6578636565646564206d6178546f6b656e736044820152fd5b63ffffffff60e01b166380ac58cd60e01b81149081156134ea575b81156134dc575090565b6301ffc9a760e01b14919050565b635b5e139f60e01b811491506134d256fec9ef9fceea91e87b2c84ea400a44fde78842aae8aa24cd4b502ce5fb4d91e63ba2646970667358221220b8968dc29c8c48e0866375ea26516ac82f253e346d7f6867a8d6075fab514a4764736f6c63430008120033",
    "linkReferences": {}
  },
  "methodIdentifiers": {
    "LAZY_ROYALTY_GUARD()": "00e8ece6",
    "LAZY_ROYALTY_GUARD_DEADMAN()": "740adf31",
    "LAZY_SOVEREIGN_NFT()": "637944f5",
    "createSovereignNFTContract(string,string,uint256,bytes32)": "877ebf51",
    "lazySovereignNFT()": "f5e0e6df",
    "lazySovereignNFTRoyaltyGuard()": "22d60fcb",
    "lazySovereignNFTRoyaltyGuardDeadmanTrigger()": "c4dca7ab",
    "owner()": "8da5cb5b",
    "renounceOwnership()": "715018a6",
    "setSovereignNFT(address,bytes32)": "a55b1c25",
    "transferOwnership(address)": "f2fde38b"
  },
  "id": 207
}