{"abi":[{"type":"function","name":"generateMarketConfig","inputs":[{"name":"_networkBeneficiary","type":"address","internalType":"address"},{"name":"_marketplaceSettings","type":"address","internalType":"address"},{"name":"_spaceOperatorRegistry","type":"address","internalType":"address"},{"name":"_royaltyEngine","type":"address","internalType":"address"},{"name":"_payments","type":"address","internalType":"address"},{"name":"_approvedTokenRegistry","type":"address","internalType":"address"},{"name":"_stakingSettings","type":"address","internalType":"address"},{"name":"_stakingRegistry","type":"address","internalType":"address"}],"outputs":[{"name":"","type":"tuple","internalType":"struct MarketConfig.Config","components":[{"name":"networkBeneficiary","type":"address","internalType":"address"},{"name":"marketplaceSettings","type":"IMarketplaceSettings","internalType":"contract IMarketplaceSettings"},{"name":"spaceOperatorRegistry","type":"ISpaceOperatorRegistry","internalType":"contract ISpaceOperatorRegistry"},{"name":"royaltyEngine","type":"IRoyaltyEngineV1","internalType":"contract IRoyaltyEngineV1"},{"name":"payments","type":"IPayments","internalType":"contract IPayments"},{"name":"approvedTokenRegistry","type":"IApprovedTokenRegistry","internalType":"contract IApprovedTokenRegistry"},{"name":"stakingSettings","type":"IStakingSettings","internalType":"contract IStakingSettings"},{"name":"stakingRegistry","type":"IRareStakingRegistry","internalType":"contract IRareStakingRegistry"}]}],"stateMutability":"pure"},{"type":"event","name":"ApprovedTokenRegistryUpdated","inputs":[{"name":"newApprovedTokenRegistry","type":"address","indexed":true,"internalType":"address"}],"anonymous":false},{"type":"event","name":"MarketplaceSettingsUpdated","inputs":[{"name":"newMarketplaceSettings","type":"address","indexed":true,"internalType":"address"}],"anonymous":false},{"type":"event","name":"NetworkBeneficiaryUpdated","inputs":[{"name":"newNetworkBeneficiary","type":"address","indexed":true,"internalType":"address"}],"anonymous":false},{"type":"event","name":"PaymentsUpdated","inputs":[{"name":"newPayments","type":"address","indexed":true,"internalType":"address"}],"anonymous":false},{"type":"event","name":"RoyaltyEngineUpdated","inputs":[{"name":"newRoyaltyEngine","type":"address","indexed":true,"internalType":"address"}],"anonymous":false},{"type":"event","name":"SpaceOperatorRegistryUpdated","inputs":[{"name":"newSpaceOperatorRegistry","type":"address","indexed":true,"internalType":"address"}],"anonymous":false},{"type":"event","name":"StakingRegistryUpdated","inputs":[{"name":"newStakingRegistry","type":"address","indexed":true,"internalType":"address"}],"anonymous":false},{"type":"event","name":"StakingSettingsUpdated","inputs":[{"name":"newStakingSettings","type":"address","indexed":true,"internalType":"address"}],"anonymous":false}],"bytecode":{"object":"0x6080806040523461001c5761099490816100228239308160070152f35b600080fdfe6080604052307f00000000000000000000000000000000000000000000000000000000000000001460048036101561003657600080fd5b600091823560e01c80631a34ca77146108ac57806323e95fa9146103445780632c55921b146102e457806333c5081c1461028457806386ce91bd1461022457806386e58007146101c4578063c70c56c714610165578063dec30e33146101085763ebda042b146100a557600080fd5b6101045760403660031901126101045760036001600160a01b036100c761090c565b16913501816001600160601b0360a01b8254161790557fe8f47ab65eb1a00a50621193de0bc029f73205b44c4e0c4d4c883a8f095f1f968280a280f35b5080fd5b5061010457604036600319011261010457356001600160a01b0361012a61090c565b1690816001600160601b0360a01b8254161790557fdeb68ce94dddbc68c0fe17a243912c6af53090be31db2e8a4dccf5c6758fc7e38280a280f35b50610104576040366003190112610104576001600160a01b0361018661090c565b1690803501816001600160601b0360a01b8254161790557f304724bab5a5569aa1febff9983351c6f3a30d43d9df341dd1abf4da4cf5d1458280a280f35b506101045760403660031901126101045760056001600160a01b036101e761090c565b16913501816001600160601b0360a01b8254161790557f7885b52bc25b3d2198a6f0e8dfe81eeb3de635dceae911d3eedd29d1258ccd058280a280f35b506101045760403660031901126101045760076001600160a01b0361024761090c565b16913501816001600160601b0360a01b8254161790557fa5aa720af23083cb0a3e835e4c10666ab0ac4eee7a4396df3ec359de6fc53abf8280a280f35b506101045760403660031901126101045760026001600160a01b036102a761090c565b16913501816001600160601b0360a01b8254161790557f3414ecfc4f469c114dce1f67d2f708d28c64684225cc027439743a0647d4797f8280a280f35b506101045760403660031901126101045760016001600160a01b0361030761090c565b16913501816001600160601b0360a01b8254161790557fccf304d72536db5abe0b333f647f64ab65c749de49a816e0d50c7a34400a2cf48280a280f35b610100848436600319018313610104578035916001600160a01b03831683036108955761036f61090c565b916044908135906001600160a01b03821682036108a8576064918235906001600160a01b03821682036108a45760848035936001600160a01b03851685036108a05760a435956001600160a01b038716870361089c5760c435976001600160a01b03891689036108985760e435996001600160a01b038b168b036108955760e06103f7610927565b8281528260208201528260408201528260608201528260808201528260a08201528260c0820152015260018060a01b038c1615610830576001600160a01b038b16156107c0576001600160a01b0385161561074e576001600160a01b038616156106e9576001600160a01b0387161561068c576001600160a01b0388161561061a576001600160a01b038916156105b5576001600160a01b038a161561055057505050506104a3610927565b6001600160a01b039889168082529789166020808301918252928a166040808401918252948b166060808501918252968c166080808601918252988d1660a08087019182529a8e1660c08088019182529c8f1660e097880190815289519e8f5295518f16978e019790975292518d16968c0196909652518b16958a019590955292518916948801949094529151871693860193909352518516928401929092525190921691810191909152f35b907f67656e65726174654d61726b6574436f6e6669673a3a5374616b696e672072657f67697374727920616464726573732063616e6e6f74206265207a65726f0000009260206040519562461bcd60e51b8752860152603d6024860152840152820152fd5b907f67656e65726174654d61726b6574436f6e6669673a3a5374616b696e672073657f7474696e677320616464726573732063616e6e6f74206265207a65726f0000009260206040519562461bcd60e51b8752860152603d6024860152840152820152fd5b927f6f6b656e20726567697374727920616464726573732063616e6e6f7420626520637a65726f60e01b927f67656e65726174654d61726b6574436f6e6669673a3a417070726f766564207460a49660206040519762461bcd60e51b8952880152806024880152860152840152820152fd5b907f67656e65726174654d61726b6574436f6e6669673a3a5061796d656e74732061746464726573732063616e6e6f74206265207a65726f60581b9260206040519562461bcd60e51b875286015260356024860152840152820152fd5b907f67656e65726174654d61726b6574436f6e6669673a3a526f79616c747920656e7f67696e6520616464726573732063616e6e6f74206265207a65726f00000000009260206040519562461bcd60e51b8752860152603b6024860152840152820152fd5b927f61746f7220726567697374727920616464726573732063616e6e6f7420626520637a65726f60e01b927f67656e65726174654d61726b6574436f6e6669673a3a5370616365206f70657260a49660206040519762461bcd60e51b8952880152806024880152860152840152820152fd5b927f652073657474696e677320616464726573732063616e6e6f74206265207a6572606f60f81b927f67656e65726174654d61726b6574436f6e6669673a3a4d61726b6574706c616360a49660206040519762461bcd60e51b895288015260416024880152860152840152820152fd5b907f67656e65726174654d61726b6574436f6e6669673a3a4e6574776f726b2062657f6e656669636961727920616464726573732063616e6e6f74206265207a65726f9260206040519562461bcd60e51b875286015260406024860152840152820152fd5b80fd5b8980fd5b8880fd5b8780fd5b8580fd5b8380fd5b506101045760403660031901126101045760066001600160a01b036108cf61090c565b16913501816001600160601b0360a01b8254161790557f232234b004f5855fe7784b260c0f551770d2e11be6d9ed34fe39808b7716b0b48280a280f35b602435906001600160a01b038216820361092257565b600080fd5b60405190610100820182811067ffffffffffffffff82111761094857604052565b634e487b7160e01b600052604160045260246000fdfea2646970667358221220d5569a1cde8f9fb4988a736655640bed3599a06f155fff11928dba8185c08ae364736f6c63430008120033","linkReferences":{}},"methodIdentifiers":{"generateMarketConfig(address,address,address,address,address,address,address,address)":"23e95fa9","updateApprovedTokenRegistry(MarketConfig.Config storage,address)":"86e58007","updateMarketplaceSettings(MarketConfig.Config storage,address)":"2c55921b","updateNetworkBeneficiary(MarketConfig.Config storage,address)":"dec30e33","updatePayments(MarketConfig.Config storage,address)":"c70c56c7","updateRoyaltyEngine(MarketConfig.Config storage,address)":"ebda042b","updateSpaceOperatorRegistry(MarketConfig.Config storage,address)":"33c5081c","updateStakingRegistry(MarketConfig.Config storage,address)":"86ce91bd","updateStakingSettings(MarketConfig.Config storage,address)":"1a34ca77"},"id":221}