{
  "abi": [
    {
      "anonymous": false,
      "inputs": [
        {
          "indexed": true,
          "internalType": "address",
          "name": "newApprovedTokenRegistry",
          "type": "address"
        }
      ],
      "name": "ApprovedTokenRegistryUpdated",
      "type": "event"
    },
    {
      "anonymous": false,
      "inputs": [
        {
          "indexed": true,
          "internalType": "address",
          "name": "newMarketplaceSettings",
          "type": "address"
        }
      ],
      "name": "MarketplaceSettingsUpdated",
      "type": "event"
    },
    {
      "anonymous": false,
      "inputs": [
        {
          "indexed": true,
          "internalType": "address",
          "name": "newNetworkBeneficiary",
          "type": "address"
        }
      ],
      "name": "NetworkBeneficiaryUpdated",
      "type": "event"
    },
    {
      "anonymous": false,
      "inputs": [
        {
          "indexed": true,
          "internalType": "address",
          "name": "newPayments",
          "type": "address"
        }
      ],
      "name": "PaymentsUpdated",
      "type": "event"
    },
    {
      "anonymous": false,
      "inputs": [
        {
          "indexed": true,
          "internalType": "address",
          "name": "newRoyaltyEngine",
          "type": "address"
        }
      ],
      "name": "RoyaltyEngineUpdated",
      "type": "event"
    },
    {
      "anonymous": false,
      "inputs": [
        {
          "indexed": true,
          "internalType": "address",
          "name": "newSpaceOperatorRegistry",
          "type": "address"
        }
      ],
      "name": "SpaceOperatorRegistryUpdated",
      "type": "event"
    },
    {
      "anonymous": false,
      "inputs": [
        {
          "indexed": true,
          "internalType": "address",
          "name": "newStakingRegistry",
          "type": "address"
        }
      ],
      "name": "StakingRegistryUpdated",
      "type": "event"
    },
    {
      "anonymous": false,
      "inputs": [
        {
          "indexed": true,
          "internalType": "address",
          "name": "newStakingSettings",
          "type": "address"
        }
      ],
      "name": "StakingSettingsUpdated",
      "type": "event"
    },
    {
      "inputs": [
        {
          "internalType": "address",
          "name": "_networkBeneficiary",
          "type": "address"
        },
        {
          "internalType": "address",
          "name": "_marketplaceSettings",
          "type": "address"
        },
        {
          "internalType": "address",
          "name": "_spaceOperatorRegistry",
          "type": "address"
        },
        {
          "internalType": "address",
          "name": "_royaltyEngine",
          "type": "address"
        },
        {
          "internalType": "address",
          "name": "_payments",
          "type": "address"
        },
        {
          "internalType": "address",
          "name": "_approvedTokenRegistry",
          "type": "address"
        },
        {
          "internalType": "address",
          "name": "_stakingSettings",
          "type": "address"
        },
        {
          "internalType": "address",
          "name": "_stakingRegistry",
          "type": "address"
        }
      ],
      "name": "generateMarketConfig",
      "outputs": [
        {
          "components": [
            {
              "internalType": "address",
              "name": "networkBeneficiary",
              "type": "address"
            },
            {
              "internalType": "contract IMarketplaceSettings",
              "name": "marketplaceSettings",
              "type": "IMarketplaceSettings"
            },
            {
              "internalType": "contract ISpaceOperatorRegistry",
              "name": "spaceOperatorRegistry",
              "type": "ISpaceOperatorRegistry"
            },
            {
              "internalType": "contract IRoyaltyEngineV1",
              "name": "royaltyEngine",
              "type": "IRoyaltyEngineV1"
            },
            {
              "internalType": "contract IPayments",
              "name": "payments",
              "type": "IPayments"
            },
            {
              "internalType": "contract IApprovedTokenRegistry",
              "name": "approvedTokenRegistry",
              "type": "IApprovedTokenRegistry"
            },
            {
              "internalType": "contract IStakingSettings",
              "name": "stakingSettings",
              "type": "IStakingSettings"
            },
            {
              "internalType": "contract IRareStakingRegistry",
              "name": "stakingRegistry",
              "type": "IRareStakingRegistry"
            }
          ],
          "internalType": "struct MarketConfig.Config",
          "name": "",
          "type": "tuple"
        }
      ],
      "stateMutability": "pure",
      "type": "function"
    }
  ],
  "bytecode": {
    "object": "0x610a4661003a600b82828239805160001a60731461002d57634e487b7160e01b600052600060045260246000fd5b30600052607381538281f3fe730000000000000000000000000000000000000000301460806040526004361061009d5760003560e01c806386ce91bd1161007057806386ce91bd1461019457806386e58007146101b4578063c70c56c7146101d4578063dec30e33146101f4578063ebda042b1461021457600080fd5b80631a34ca77146100a257806323e95fa9146100c45780632c55921b1461015457806333c5081c14610174575b600080fd5b8180156100ae57600080fd5b506100c26100bd36600461094d565b610234565b005b6100d76100d2366004610979565b610281565b60405161014b919081516001600160a01b03908116825260208084015182169083015260408084015182169083015260608084015182169083015260808084015182169083015260a08084015182169083015260c08084015182169083015260e09283015116918101919091526101000190565b60405180910390f35b81801561016057600080fd5b506100c261016f36600461094d565b61071b565b81801561018057600080fd5b506100c261018f36600461094d565b610768565b8180156101a057600080fd5b506100c26101af36600461094d565b6107b5565b8180156101c057600080fd5b506100c26101cf36600461094d565b610802565b8180156101e057600080fd5b506100c26101ef36600461094d565b61084f565b81801561020057600080fd5b506100c261020f36600461094d565b61089c565b81801561022057600080fd5b506100c261022f36600461094d565b6108e4565b6006820180546001600160a01b0319166001600160a01b0383169081179091556040517f232234b004f5855fe7784b260c0f551770d2e11be6d9ed34fe39808b7716b0b490600090a25050565b6040805161010081018252600080825260208201819052918101829052606081018290526080810182905260a0810182905260c0810182905260e08101919091526001600160a01b038916610345576040805162461bcd60e51b81526020600482015260248101919091527f67656e65726174654d61726b6574436f6e6669673a3a4e6574776f726b20626560448201527f6e656669636961727920616464726573732063616e6e6f74206265207a65726f60648201526084015b60405180910390fd5b6001600160a01b0388166103cb5760405162461bcd60e51b815260206004820152604160248201527f67656e65726174654d61726b6574436f6e6669673a3a4d61726b6574706c616360448201527f652073657474696e677320616464726573732063616e6e6f74206265207a65726064820152606f60f81b608482015260a40161033c565b6001600160a01b0387166104555760405162461bcd60e51b8152602060048201526044602482018190527f67656e65726174654d61726b6574436f6e6669673a3a5370616365206f706572908201527f61746f7220726567697374727920616464726573732063616e6e6f74206265206064820152637a65726f60e01b608482015260a40161033c565b6001600160a01b0386166104d15760405162461bcd60e51b815260206004820152603b60248201527f67656e65726174654d61726b6574436f6e6669673a3a526f79616c747920656e60448201527f67696e6520616464726573732063616e6e6f74206265207a65726f0000000000606482015260840161033c565b6001600160a01b0385166105455760405162461bcd60e51b815260206004820152603560248201527f67656e65726174654d61726b6574436f6e6669673a3a5061796d656e747320616044820152746464726573732063616e6e6f74206265207a65726f60581b606482015260840161033c565b6001600160a01b0384166105cf5760405162461bcd60e51b8152602060048201526044602482018190527f67656e65726174654d61726b6574436f6e6669673a3a417070726f7665642074908201527f6f6b656e20726567697374727920616464726573732063616e6e6f74206265206064820152637a65726f60e01b608482015260a40161033c565b6001600160a01b03831661064b5760405162461bcd60e51b815260206004820152603d60248201527f67656e65726174654d61726b6574436f6e6669673a3a5374616b696e6720736560448201527f7474696e677320616464726573732063616e6e6f74206265207a65726f000000606482015260840161033c565b6001600160a01b0382166106c75760405162461bcd60e51b815260206004820152603d60248201527f67656e65726174654d61726b6574436f6e6669673a3a5374616b696e6720726560448201527f67697374727920616464726573732063616e6e6f74206265207a65726f000000606482015260840161033c565b5060408051610100810182526001600160a01b03998a16815297891660208901529588169587019590955292861660608601529085166080850152841660a0840152831660c083015290911660e082015290565b6001820180546001600160a01b0319166001600160a01b0383169081179091556040517fccf304d72536db5abe0b333f647f64ab65c749de49a816e0d50c7a34400a2cf490600090a25050565b6002820180546001600160a01b0319166001600160a01b0383169081179091556040517f3414ecfc4f469c114dce1f67d2f708d28c64684225cc027439743a0647d4797f90600090a25050565b6007820180546001600160a01b0319166001600160a01b0383169081179091556040517fa5aa720af23083cb0a3e835e4c10666ab0ac4eee7a4396df3ec359de6fc53abf90600090a25050565b6005820180546001600160a01b0319166001600160a01b0383169081179091556040517f7885b52bc25b3d2198a6f0e8dfe81eeb3de635dceae911d3eedd29d1258ccd0590600090a25050565b6004820180546001600160a01b0319166001600160a01b0383169081179091556040517f304724bab5a5569aa1febff9983351c6f3a30d43d9df341dd1abf4da4cf5d14590600090a25050565b81546001600160a01b0319166001600160a01b03821690811783556040517fdeb68ce94dddbc68c0fe17a243912c6af53090be31db2e8a4dccf5c6758fc7e390600090a25050565b6003820180546001600160a01b0319166001600160a01b0383169081179091556040517fe8f47ab65eb1a00a50621193de0bc029f73205b44c4e0c4d4c883a8f095f1f9690600090a25050565b80356001600160a01b038116811461094857600080fd5b919050565b6000806040838503121561096057600080fd5b8235915061097060208401610931565b90509250929050565b600080600080600080600080610100898b03121561099657600080fd5b61099f89610931565b97506109ad60208a01610931565b96506109bb60408a01610931565b95506109c960608a01610931565b94506109d760808a01610931565b93506109e560a08a01610931565b92506109f360c08a01610931565b9150610a0160e08a01610931565b9050929598509295989093965056fea26469706673582212200ddae6ce71be8c90f352630d7073ff6b16a85a326800f8059752592e9c457aaf64736f6c63430008120033",
    "linkReferences": {}
  },
  "methodIdentifiers": {
    "generateMarketConfig(address,address,address,address,address,address,address,address)": "23e95fa9",
    "updateApprovedTokenRegistry(MarketConfig.Config storage,address)": "86e58007",
    "updateMarketplaceSettings(MarketConfig.Config storage,address)": "2c55921b",
    "updateNetworkBeneficiary(MarketConfig.Config storage,address)": "dec30e33",
    "updatePayments(MarketConfig.Config storage,address)": "c70c56c7",
    "updateRoyaltyEngine(MarketConfig.Config storage,address)": "ebda042b",
    "updateSpaceOperatorRegistry(MarketConfig.Config storage,address)": "33c5081c",
    "updateStakingRegistry(MarketConfig.Config storage,address)": "86ce91bd",
    "updateStakingSettings(MarketConfig.Config storage,address)": "1a34ca77"
  },
  "id": 151
}