{"abi":[{"type":"constructor","inputs":[],"stateMutability":"nonpayable"},{"type":"function","name":"DEFAULT_ADMIN_ROLE","inputs":[],"outputs":[{"name":"","type":"bytes32","internalType":"bytes32"}],"stateMutability":"view"},{"type":"function","name":"TOKEN_MARK_ROLE","inputs":[],"outputs":[{"name":"","type":"bytes32","internalType":"bytes32"}],"stateMutability":"view"},{"type":"function","name":"calculateMarketplaceFee","inputs":[{"name":"_amount","type":"uint256","internalType":"uint256"}],"outputs":[{"name":"","type":"uint256","internalType":"uint256"}],"stateMutability":"view"},{"type":"function","name":"calculatePrimarySaleFee","inputs":[{"name":"_contractAddress","type":"address","internalType":"address"},{"name":"_amount","type":"uint256","internalType":"uint256"}],"outputs":[{"name":"","type":"uint256","internalType":"uint256"}],"stateMutability":"view"},{"type":"function","name":"getERC721ContractPrimarySaleFeePercentage","inputs":[{"name":"_contractAddress","type":"address","internalType":"address"}],"outputs":[{"name":"","type":"uint8","internalType":"uint8"}],"stateMutability":"view"},{"type":"function","name":"getMarketplaceFeePercentage","inputs":[],"outputs":[{"name":"","type":"uint8","internalType":"uint8"}],"stateMutability":"view"},{"type":"function","name":"getMarketplaceMaxValue","inputs":[],"outputs":[{"name":"","type":"uint256","internalType":"uint256"}],"stateMutability":"view"},{"type":"function","name":"getMarketplaceMinValue","inputs":[],"outputs":[{"name":"","type":"uint256","internalType":"uint256"}],"stateMutability":"view"},{"type":"function","name":"getRoleAdmin","inputs":[{"name":"role","type":"bytes32","internalType":"bytes32"}],"outputs":[{"name":"","type":"bytes32","internalType":"bytes32"}],"stateMutability":"view"},{"type":"function","name":"grantMarketplaceAccess","inputs":[{"name":"_account","type":"address","internalType":"address"}],"outputs":[],"stateMutability":"nonpayable"},{"type":"function","name":"grantRole","inputs":[{"name":"role","type":"bytes32","internalType":"bytes32"},{"name":"account","type":"address","internalType":"address"}],"outputs":[],"stateMutability":"nonpayable"},{"type":"function","name":"hasERC721TokenSold","inputs":[{"name":"_contractAddress","type":"address","internalType":"address"},{"name":"_tokenId","type":"uint256","internalType":"uint256"}],"outputs":[{"name":"","type":"bool","internalType":"bool"}],"stateMutability":"view"},{"type":"function","name":"hasRole","inputs":[{"name":"role","type":"bytes32","internalType":"bytes32"},{"name":"account","type":"address","internalType":"address"}],"outputs":[{"name":"","type":"bool","internalType":"bool"}],"stateMutability":"view"},{"type":"function","name":"markERC721Token","inputs":[{"name":"_contractAddress","type":"address","internalType":"address"},{"name":"_tokenId","type":"uint256","internalType":"uint256"},{"name":"_hasSold","type":"bool","internalType":"bool"}],"outputs":[],"stateMutability":"nonpayable"},{"type":"function","name":"markTokensAsSold","inputs":[{"name":"_originContract","type":"address","internalType":"address"},{"name":"_tokenIds","type":"uint256[]","internalType":"uint256[]"}],"outputs":[],"stateMutability":"nonpayable"},{"type":"function","name":"owner","inputs":[],"outputs":[{"name":"","type":"address","internalType":"address"}],"stateMutability":"view"},{"type":"function","name":"renounceOwnership","inputs":[],"outputs":[],"stateMutability":"nonpayable"},{"type":"function","name":"renounceRole","inputs":[{"name":"role","type":"bytes32","internalType":"bytes32"},{"name":"account","type":"address","internalType":"address"}],"outputs":[],"stateMutability":"nonpayable"},{"type":"function","name":"revokeRole","inputs":[{"name":"role","type":"bytes32","internalType":"bytes32"},{"name":"account","type":"address","internalType":"address"}],"outputs":[],"stateMutability":"nonpayable"},{"type":"function","name":"setERC721ContractPrimarySaleFeePercentage","inputs":[{"name":"_contractAddress","type":"address","internalType":"address"},{"name":"_percentage","type":"uint8","internalType":"uint8"}],"outputs":[],"stateMutability":"nonpayable"},{"type":"function","name":"setMarketplaceFeePercentage","inputs":[{"name":"_percentage","type":"uint8","internalType":"uint8"}],"outputs":[],"stateMutability":"nonpayable"},{"type":"function","name":"setMarketplaceMaxValue","inputs":[{"name":"_maxValue","type":"uint256","internalType":"uint256"}],"outputs":[],"stateMutability":"nonpayable"},{"type":"function","name":"setMarketplaceMinValue","inputs":[{"name":"_minValue","type":"uint256","internalType":"uint256"}],"outputs":[],"stateMutability":"nonpayable"},{"type":"function","name":"supportsInterface","inputs":[{"name":"interfaceId","type":"bytes4","internalType":"bytes4"}],"outputs":[{"name":"","type":"bool","internalType":"bool"}],"stateMutability":"view"},{"type":"function","name":"transferOwnership","inputs":[{"name":"newOwner","type":"address","internalType":"address"}],"outputs":[],"stateMutability":"nonpayable"},{"type":"event","name":"OwnershipTransferred","inputs":[{"name":"previousOwner","type":"address","indexed":true,"internalType":"address"},{"name":"newOwner","type":"address","indexed":true,"internalType":"address"}],"anonymous":false},{"type":"event","name":"RoleAdminChanged","inputs":[{"name":"role","type":"bytes32","indexed":true,"internalType":"bytes32"},{"name":"previousAdminRole","type":"bytes32","indexed":true,"internalType":"bytes32"},{"name":"newAdminRole","type":"bytes32","indexed":true,"internalType":"bytes32"}],"anonymous":false},{"type":"event","name":"RoleGranted","inputs":[{"name":"role","type":"bytes32","indexed":true,"internalType":"bytes32"},{"name":"account","type":"address","indexed":true,"internalType":"address"},{"name":"sender","type":"address","indexed":true,"internalType":"address"}],"anonymous":false},{"type":"event","name":"RoleRevoked","inputs":[{"name":"role","type":"bytes32","indexed":true,"internalType":"bytes32"},{"name":"account","type":"address","indexed":true,"internalType":"address"},{"name":"sender","type":"address","indexed":true,"internalType":"address"}],"anonymous":false}],"bytecode":{"object":"0x608060409080825234620004675760008054336001600160a01b031982168117835591926001600160a01b0392909183167f8be0079c531659141344cd1fd0a4f28419497f9722a3daafe3b4186f6b6457e08580a3600160fe1b6002556103e860035560ff19600492600382855416178455848052600190602090828252878720338852825260ff88882054161562000432575b865416946e544f4b454e5f4d41524b5f524f4c4560881b9485885283835283898920015491828952898920338a52845260ff8a8a205416156200013657505050838652818152868620858752815260ff878720541615620000fe575b865161107a9081620004ba8239f35b83865281815286862090858752528585209182541617905560008051602062001534833981519152339380a4388080808080620000ef565b6001600160401b03928491908b908b903390899060608801898111898210176200041f578552602a885286880192853685378851156200040c576030845388518310156200040c57607860218a015360295b838111620003a05750620002cb57845190608082018281108b8211176200038d578652604282528782019260603685378251156200037a576030845382518110156200037a57607860218401536041905b8082116200030c575050620002cb57916200025f9593918593606799989651978893620002348986019b7f416363657373436f6e74726f6c3a206163636f756e74200000000000000000008d5251809260378801906200046c565b8401917001034b99036b4b9b9b4b733903937b6329607d1b603784015251809360488401906200046c565b0103602881018652601f19978891011685019785891090891117620002b8575060449593601f9388969387620002af945262461bcd60e51b8852870152518092816024880152878701906200046c565b01168101030190fd5b634e487b7160e01b815260418352602490fd5b606486888088519262461bcd60e51b845283015260248201527f537472696e67733a20686578206c656e67746820696e73756666696369656e746044820152fd5b9091600f8116601081101562000367576f181899199a1a9b1b9c1cb0b131b232b360811b901a6200033e848662000491565b53881c91801562000354576000190190620001d9565b634e487b7160e01b875260118952602487fd5b634e487b7160e01b885260328a52602488fd5b634e487b7160e01b865260328852602486fd5b634e487b7160e01b865260418852602486fd5b90600f81166010811015620003f9576f181899199a1a9b1b9c1cb0b131b232b360811b901a620003d1838c62000491565b53871c908015620003e6576000190162000188565b634e487b7160e01b865260118852602486fd5b634e487b7160e01b875260328952602487fd5b634e487b7160e01b855260328752602485fd5b634e487b7160e01b855260418752602485fd5b86805282825287872033885282528787208385825416179055333388600080516020620015348339815191528180a462000093565b600080fd5b60005b838110620004805750506000910152565b81810151838201526020016200046f565b908151811015620004a3570160200190565b634e487b7160e01b600052603260045260246000fdfe608060408181526004918236101561001657600080fd5b600092833560e01c91826301ffc9a714610afa57508163248a9ca314610ad05781632b702b5f146109655781632cfda2f1146109435781632f2ff15d1461089657816336568abe146108045781633765628c146107d7578163511bc84c146107905781635a3c652d146107085781635c1b40f1146106e957816362029a1b146106c75781636357f1ac14610689578163715018a61461062f57816382ebaa59146104f957816383475921146104d85781638da5cb5b146104b057816391d1485414610469578163a217fddf1461044e578163ae312a9714610378578163b28a7bad1461033c578163b60c813514610291578163c3fc49521461025e578163d547741f14610220578163f2fde38b14610159575063f9a23e861461013857600080fd5b346101555781600319360112610155576020906002549051908152f35b5080fd5b90503461021c57602036600319011261021c57610174610b4d565b9061017d610f2a565b6001600160a01b039182169283156101ca57505082546001600160a01b0319811683178455167f8be0079c531659141344cd1fd0a4f28419497f9722a3daafe3b4186f6b6457e08380a380f35b906020608492519162461bcd60e51b8352820152602660248201527f4f776e61626c653a206e6577206f776e657220697320746865207a65726f206160448201526564647265737360d01b6064820152fd5b8280fd5b9190503461021c578060031936011261021c5761025b91356102566001610245610b68565b938387528160205286200154610b7e565b610eb4565b80f35b82843461028e57602036600319011261028e575060646102868360ff60209554169035610f82565b049051908152f35b80fd5b9190503461021c57602036600319011261021c5781359060ff8216809203610338576102bb610f2a565b606482116102d05750815460ff191617905580f35b5162461bcd60e51b8152602081840152603760248201527f7365744d61726b6574706c61636546656550657263656e746167653a3a5f706560448201527f7263656e74616765206d757374206265203c3d203130300000000000000000006064820152608490fd5b8380fd5b5050346101555760203660031901126101555760209160ff9082906001600160a01b03610367610b4d565b168152600585522054169051908152f35b9190503461021c578060031936011261021c57610393610b4d565b6024359260ff841680940361044a576103aa610f2a565b606484116103d357506001600160a01b0316835260056020528220805460ff1916909117905580f35b60a490602084519162461bcd60e51b8352820152604560248201527f736574455243373231436f6e74726163745072696d61727953616c654665655060448201527f657263656e746167653a3a5f70657263656e74616765206d757374206265203c60648201526403d203130360dc1b6084820152fd5b8480fd5b50503461015557816003193601126101555751908152602090f35b90503461021c578160031936011261021c578160209360ff9261048a610b68565b90358252600186528282206001600160a01b039091168252855220549151911615158152f35b505034610155578160031936011261015557905490516001600160a01b039091168152602090f35b82843461028e578060031936011261028e575060ff60209254169051908152f35b9190503461021c576020918260031936011261033857610517610b4d565b91848052600191828552818620338752855260ff8287205416156105d157506e544f4b454e5f4d41524b5f524f4c4560881b9384865282815261055e838388200154610b7e565b8486528281528186206001600160a01b039094168087529381528186205460ff1615610588578580f35b848652828152818620908487525284209060ff1982541617905533917f2f8788117e7eff1d82e926ec794901d17c78024a50270940304540a733656f0d8480a438808080808580f35b84608492519162461bcd60e51b8352820152603460248201527f6772616e744d61726b6574706c6163654163636573733a3a4d7573742062652060448201527318591b5a5b881d1bc818d85b1b081b595d1a1bd960621b6064820152fd5b833461028e578060031936011261028e57610648610f2a565b80546001600160a01b03198116825581906001600160a01b03167f8be0079c531659141344cd1fd0a4f28419497f9722a3daafe3b4186f6b6457e08280a380f35b505034610155578060031936011261015557606461028660ff8360209560018060a01b036106b5610b4d565b16815260058752205416602435610f82565b839034610155576020366003190112610155576106e2610f2a565b3560035580f35b5050346101555781600319360112610155576020906003549051908152f35b50503461015557606036600319011261015557610723610b4d565b9060443591821515809303610338576e544f4b454e5f4d41524b5f524f4c4560881b8452600160205281842033855260205261076460ff8386205416610fd2565b60018060a01b031683526006602052808320602435845260205282209060ff8019835416911617905580f35b50503461015557806003193601126101555760209160ff9082906001600160a01b036107ba610b4d565b168152600685528181206024358252855220541690519015158152f35b505034610155578160031936011261015557516e544f4b454e5f4d41524b5f524f4c4560881b8152602090f35b8391503461015557826003193601126101555761081f610b68565b90336001600160a01b0383160361083b579061025b9135610eb4565b608490602085519162461bcd60e51b8352820152602f60248201527f416363657373436f6e74726f6c3a2063616e206f6e6c792072656e6f756e636560448201526e103937b632b9903337b91039b2b63360891b6064820152fd5b90503461021c578160031936011261021c5735906108b2610b68565b9082845260016020526108ca60018286200154610b7e565b828452600160209081528185206001600160a01b039093168086529290528084205460ff16156108f8578380f35b82845260016020528084208285526020528320600160ff1982541617905533917f2f8788117e7eff1d82e926ec794901d17c78024a50270940304540a733656f0d8480a43880808380f35b8390346101555760203660031901126101555761095e610f2a565b3560025580f35b90503461021c578160031936011261021c5761097f610b4d565b9060249081359367ffffffffffffffff808611610acc5736602387011215610acc5785830135908111610acc57600590368582841b89010111610ac8576e544f4b454e5f4d41524b5f524f4c4560881b8852600196602091888352848a20338b5283526109f160ff868c205416610fd2565b6107d08111610a5657966001600160a01b0316895b888110610a11578a80f35b818b5260068452858b2081861b84018901358c528452858b20805460ff19168b1790556000198114610a44578901610a06565b634e487b7160e01b8b5260118752878bfd5b845162461bcd60e51b81528087018490526041818901527f6d61726b546f6b656e734173536f6c643a3a417474656d7074656420746f206d60448201527f61726b206d6f7265207468616e203230303020746f6b656e7320617320736f6c6064820152601960fa1b608482015260a490fd5b8780fd5b8680fd5b90503461021c57602036600319011261021c57816020936001923581528285522001549051908152f35b84913461021c57602036600319011261021c573563ffffffff60e01b811680910361021c5760209250637965db0b60e01b8114908115610b3c575b5015158152f35b6301ffc9a760e01b14905083610b35565b600435906001600160a01b0382168203610b6357565b600080fd5b602435906001600160a01b0382168203610b6357565b60009080825260016020818152604093848120338252825260ff858220541615610ba9575050505050565b33855193606085019567ffffffffffffffff9686811088821117610e7d578852602a86528486019288368537865115610e6957603084538651831015610e69576078602188015360295b838111610dff5750610d29578751906080820182811089821117610deb57895260428252858201926060368537825115610dd757603084538251811015610dd757607860218401536041905b808211610d6b575050610d295791610cbe94939188936067989951968793610c948886019a7f416363657373436f6e74726f6c3a206163636f756e74200000000000000000008c525180926037880190610e91565b8401917001034b99036b4b9b9b4b733903937b6329607d1b60378401525180936048840190610e91565b0103602881018552601f19968791011684019684881090881117610d15575092610d0c60449593601f938880975262461bcd60e51b8752600487015251809281602488015287870190610e91565b01168101030190fd5b634e487b7160e01b81526041600452602490fd5b60648589519062461bcd60e51b825280600483015260248201527f537472696e67733a20686578206c656e67746820696e73756666696369656e746044820152fd5b9091600f81166010811015610dc3576f181899199a1a9b1b9c1cb0b131b232b360811b901a610d9a8486610fab565b5360041c918015610daf576000190190610c3f565b634e487b7160e01b87526011600452602487fd5b634e487b7160e01b88526032600452602488fd5b634e487b7160e01b86526032600452602486fd5b634e487b7160e01b86526041600452602486fd5b90600f81166010811015610e55576f181899199a1a9b1b9c1cb0b131b232b360811b901a610e2d838a610fab565b5360041c908015610e415760001901610bf3565b634e487b7160e01b86526011600452602486fd5b634e487b7160e01b87526032600452602487fd5b634e487b7160e01b85526032600452602485fd5b634e487b7160e01b85526041600452602485fd5b60005b838110610ea45750506000910152565b8181015183820152602001610e94565b906000918083526001602052604083209160018060a01b03169182845260205260ff604084205416610ee557505050565b8083526001602052604083208284526020526040832060ff1981541690557ff6391f5c32d9c69d2a47ea670b442974b53935d1edc7fd64eb21e047a839171b339380a4565b6000546001600160a01b03163303610f3e57565b606460405162461bcd60e51b815260206004820152602060248201527f4f776e61626c653a2063616c6c6572206973206e6f7420746865206f776e65726044820152fd5b81810292918115918404141715610f9557565b634e487b7160e01b600052601160045260246000fd5b908151811015610fbc570160200190565b634e487b7160e01b600052603260045260246000fd5b15610fd957565b60405162461bcd60e51b815260206004820152603e60248201527f6d61726b455243373231546f6b656e3a3a4d757374206861766520544f4b454e60448201527f5f4d41524b5f524f4c4520726f6c6520746f2063616c6c206d6574686f6400006064820152608490fdfea2646970667358221220ffb7bfbc2cf00cd6c651b27cbab69badd024e8517dbb0aabfb4323f5cb077a9c64736f6c634300081200332f8788117e7eff1d82e926ec794901d17c78024a50270940304540a733656f0d","linkReferences":{}},"methodIdentifiers":{"DEFAULT_ADMIN_ROLE()":"a217fddf","TOKEN_MARK_ROLE()":"3765628c","calculateMarketplaceFee(uint256)":"c3fc4952","calculatePrimarySaleFee(address,uint256)":"6357f1ac","getERC721ContractPrimarySaleFeePercentage(address)":"b28a7bad","getMarketplaceFeePercentage()":"83475921","getMarketplaceMaxValue()":"f9a23e86","getMarketplaceMinValue()":"5c1b40f1","getRoleAdmin(bytes32)":"248a9ca3","grantMarketplaceAccess(address)":"82ebaa59","grantRole(bytes32,address)":"2f2ff15d","hasERC721TokenSold(address,uint256)":"511bc84c","hasRole(bytes32,address)":"91d14854","markERC721Token(address,uint256,bool)":"5a3c652d","markTokensAsSold(address,uint256[])":"2b702b5f","owner()":"8da5cb5b","renounceOwnership()":"715018a6","renounceRole(bytes32,address)":"36568abe","revokeRole(bytes32,address)":"d547741f","setERC721ContractPrimarySaleFeePercentage(address,uint8)":"ae312a97","setMarketplaceFeePercentage(uint8)":"b60c8135","setMarketplaceMaxValue(uint256)":"2cfda2f1","setMarketplaceMinValue(uint256)":"62029a1b","supportsInterface(bytes4)":"01ffc9a7","transferOwnership(address)":"f2fde38b"},"id":163}