{"abi":[{"type":"constructor","inputs":[],"stateMutability":"nonpayable"},{"type":"function","name":"DEFAULT_ADMIN_ROLE","inputs":[],"outputs":[{"name":"","type":"bytes32","internalType":"bytes32"}],"stateMutability":"view"},{"type":"function","name":"ENS_SETTER_ROLE","inputs":[],"outputs":[{"name":"","type":"bytes32","internalType":"bytes32"}],"stateMutability":"view"},{"type":"function","name":"STAKING_CONFIG_SETTER_ROLE","inputs":[],"outputs":[{"name":"","type":"bytes32","internalType":"bytes32"}],"stateMutability":"view"},{"type":"function","name":"STAKING_INFO_SETTER_ROLE","inputs":[],"outputs":[{"name":"","type":"bytes32","internalType":"bytes32"}],"stateMutability":"view"},{"type":"function","name":"STAKING_STAT_SETTER_ADMIN_ROLE","inputs":[],"outputs":[{"name":"","type":"bytes32","internalType":"bytes32"}],"stateMutability":"view"},{"type":"function","name":"STAKING_STAT_SETTER_ROLE","inputs":[],"outputs":[{"name":"","type":"bytes32","internalType":"bytes32"}],"stateMutability":"view"},{"type":"function","name":"SWAP_POOL_SETTER_ROLE","inputs":[],"outputs":[{"name":"","type":"bytes32","internalType":"bytes32"}],"stateMutability":"view"},{"type":"function","name":"decreaseAmountStaked","inputs":[{"name":"_staker","type":"address","internalType":"address"},{"name":"_stakedOn","type":"address","internalType":"address"},{"name":"_amount","type":"uint256","internalType":"uint256"}],"outputs":[],"stateMutability":"nonpayable"},{"type":"function","name":"getDefaultPayee","inputs":[],"outputs":[{"name":"","type":"address","internalType":"address"}],"stateMutability":"view"},{"type":"function","name":"getDeflationaryPercentage","inputs":[],"outputs":[{"name":"","type":"uint256","internalType":"uint256"}],"stateMutability":"view"},{"type":"function","name":"getDiscountPercentage","inputs":[],"outputs":[{"name":"","type":"uint256","internalType":"uint256"}],"stateMutability":"view"},{"type":"function","name":"getPeriodLength","inputs":[],"outputs":[{"name":"","type":"uint256","internalType":"uint256"}],"stateMutability":"view"},{"type":"function","name":"getRareAddress","inputs":[],"outputs":[{"name":"","type":"address","internalType":"address"}],"stateMutability":"view"},{"type":"function","name":"getRewardAccumulatorAddressForUser","inputs":[{"name":"_user","type":"address","internalType":"address"}],"outputs":[{"name":"","type":"address","internalType":"address"}],"stateMutability":"view"},{"type":"function","name":"getRoleAdmin","inputs":[{"name":"role","type":"bytes32","internalType":"bytes32"}],"outputs":[{"name":"","type":"bytes32","internalType":"bytes32"}],"stateMutability":"view"},{"type":"function","name":"getRoleMember","inputs":[{"name":"role","type":"bytes32","internalType":"bytes32"},{"name":"index","type":"uint256","internalType":"uint256"}],"outputs":[{"name":"","type":"address","internalType":"address"}],"stateMutability":"view"},{"type":"function","name":"getRoleMemberCount","inputs":[{"name":"role","type":"bytes32","internalType":"bytes32"}],"outputs":[{"name":"","type":"uint256","internalType":"uint256"}],"stateMutability":"view"},{"type":"function","name":"getStakingAddressForUser","inputs":[{"name":"_user","type":"address","internalType":"address"}],"outputs":[{"name":"","type":"address","internalType":"address"}],"stateMutability":"view"},{"type":"function","name":"getStakingInfoForUser","inputs":[{"name":"_user","type":"address","internalType":"address"}],"outputs":[{"name":"","type":"tuple","internalType":"struct IRareStakingRegistry.Info","components":[{"name":"name","type":"string","internalType":"string"},{"name":"symbol","type":"string","internalType":"string"},{"name":"stakingAddress","type":"address","internalType":"address"},{"name":"rewardAddress","type":"address","internalType":"address"}]}],"stateMutability":"view"},{"type":"function","name":"getSwapPool","inputs":[{"name":"_token","type":"address","internalType":"address"}],"outputs":[{"name":"","type":"address","internalType":"address"}],"stateMutability":"view"},{"type":"function","name":"getTotalAmountStakedByUser","inputs":[{"name":"_user","type":"address","internalType":"address"}],"outputs":[{"name":"amount","type":"uint256","internalType":"uint256"}],"stateMutability":"view"},{"type":"function","name":"getTotalAmountStakedOnUser","inputs":[{"name":"_user","type":"address","internalType":"address"}],"outputs":[{"name":"amount","type":"uint256","internalType":"uint256"}],"stateMutability":"view"},{"type":"function","name":"getUsersForStakingAddresses","inputs":[{"name":"_stakingAddrs","type":"address[]","internalType":"address[]"}],"outputs":[{"name":"","type":"address[]","internalType":"address[]"}],"stateMutability":"view"},{"type":"function","name":"getWethAddress","inputs":[],"outputs":[{"name":"","type":"address","internalType":"address"}],"stateMutability":"view"},{"type":"function","name":"grantRole","inputs":[{"name":"role","type":"bytes32","internalType":"bytes32"},{"name":"account","type":"address","internalType":"address"}],"outputs":[],"stateMutability":"nonpayable"},{"type":"function","name":"hasRole","inputs":[{"name":"role","type":"bytes32","internalType":"bytes32"},{"name":"account","type":"address","internalType":"address"}],"outputs":[{"name":"","type":"bool","internalType":"bool"}],"stateMutability":"view"},{"type":"function","name":"increaseAmountStaked","inputs":[{"name":"_staker","type":"address","internalType":"address"},{"name":"_stakedOn","type":"address","internalType":"address"},{"name":"_amount","type":"uint256","internalType":"uint256"}],"outputs":[],"stateMutability":"nonpayable"},{"type":"function","name":"initialize","inputs":[{"name":"_owner","type":"address","internalType":"address"},{"name":"_reverseRegistrar","type":"address","internalType":"address"},{"name":"_resolver","type":"address","internalType":"address"},{"name":"_periodLength","type":"uint256","internalType":"uint256"},{"name":"_deflationaryPercentage","type":"uint256","internalType":"uint256"},{"name":"_discountedPercent","type":"uint256","internalType":"uint256"},{"name":"_rare","type":"address","internalType":"address"},{"name":"_weth","type":"address","internalType":"address"},{"name":"_defaultPayee","type":"address","internalType":"address"}],"outputs":[],"stateMutability":"nonpayable"},{"type":"function","name":"proxiableUUID","inputs":[],"outputs":[{"name":"","type":"bytes32","internalType":"bytes32"}],"stateMutability":"view"},{"type":"function","name":"renounceRole","inputs":[{"name":"role","type":"bytes32","internalType":"bytes32"},{"name":"account","type":"address","internalType":"address"}],"outputs":[],"stateMutability":"nonpayable"},{"type":"function","name":"revokeRole","inputs":[{"name":"role","type":"bytes32","internalType":"bytes32"},{"name":"account","type":"address","internalType":"address"}],"outputs":[],"stateMutability":"nonpayable"},{"type":"function","name":"setDefaultPayee","inputs":[{"name":"_payee","type":"address","internalType":"address"}],"outputs":[],"stateMutability":"nonpayable"},{"type":"function","name":"setDeflationaryPercentage","inputs":[{"name":"_percentage","type":"uint256","internalType":"uint256"}],"outputs":[],"stateMutability":"nonpayable"},{"type":"function","name":"setDiscountPercentage","inputs":[{"name":"_percentage","type":"uint256","internalType":"uint256"}],"outputs":[],"stateMutability":"nonpayable"},{"type":"function","name":"setPeriodLength","inputs":[{"name":"_periodLength","type":"uint256","internalType":"uint256"}],"outputs":[],"stateMutability":"nonpayable"},{"type":"function","name":"setResolver","inputs":[{"name":"_resolver","type":"address","internalType":"address"}],"outputs":[],"stateMutability":"nonpayable"},{"type":"function","name":"setReverseRegistrar","inputs":[{"name":"_reverseRegistrar","type":"address","internalType":"address"}],"outputs":[],"stateMutability":"nonpayable"},{"type":"function","name":"setStakingAddresses","inputs":[{"name":"_user","type":"address","internalType":"address"},{"name":"_stakingAddress","type":"address","internalType":"address"},{"name":"_rewardSwapAddress","type":"address","internalType":"address"}],"outputs":[],"stateMutability":"nonpayable"},{"type":"function","name":"setSwapPool","inputs":[{"name":"_uniswapPool","type":"address","internalType":"address"},{"name":"_token","type":"address","internalType":"address"}],"outputs":[],"stateMutability":"nonpayable"},{"type":"function","name":"supportsInterface","inputs":[{"name":"interfaceId","type":"bytes4","internalType":"bytes4"}],"outputs":[{"name":"","type":"bool","internalType":"bool"}],"stateMutability":"view"},{"type":"function","name":"transferRareFrom","inputs":[{"name":"_from","type":"address","internalType":"address"},{"name":"_to","type":"address","internalType":"address"},{"name":"_amount","type":"uint256","internalType":"uint256"}],"outputs":[],"stateMutability":"nonpayable"},{"type":"function","name":"upgradeTo","inputs":[{"name":"newImplementation","type":"address","internalType":"address"}],"outputs":[],"stateMutability":"nonpayable"},{"type":"function","name":"upgradeToAndCall","inputs":[{"name":"newImplementation","type":"address","internalType":"address"},{"name":"data","type":"bytes","internalType":"bytes"}],"outputs":[],"stateMutability":"payable"},{"type":"event","name":"AdminChanged","inputs":[{"name":"previousAdmin","type":"address","indexed":false,"internalType":"address"},{"name":"newAdmin","type":"address","indexed":false,"internalType":"address"}],"anonymous":false},{"type":"event","name":"BeaconUpgraded","inputs":[{"name":"beacon","type":"address","indexed":true,"internalType":"address"}],"anonymous":false},{"type":"event","name":"DefaultPayeeUpdated","inputs":[{"name":"_payee","type":"address","indexed":false,"internalType":"address"}],"anonymous":false},{"type":"event","name":"DeflationaryPercentageUpdated","inputs":[{"name":"_percentage","type":"uint256","indexed":false,"internalType":"uint256"}],"anonymous":false},{"type":"event","name":"DiscountPercentageUpdated","inputs":[{"name":"_percentage","type":"uint256","indexed":false,"internalType":"uint256"}],"anonymous":false},{"type":"event","name":"Initialized","inputs":[{"name":"version","type":"uint8","indexed":false,"internalType":"uint8"}],"anonymous":false},{"type":"event","name":"PeriodLengthUpdated","inputs":[{"name":"_periodLength","type":"uint256","indexed":false,"internalType":"uint256"}],"anonymous":false},{"type":"event","name":"ResolverUpdated","inputs":[{"name":"_resolver","type":"address","indexed":false,"internalType":"address"}],"anonymous":false},{"type":"event","name":"ReverseRegistrarUpdated","inputs":[{"name":"_percentage","type":"address","indexed":false,"internalType":"address"}],"anonymous":false},{"type":"event","name":"RoleAdminChanged","inputs":[{"name":"role","type":"bytes32","indexed":true,"internalType":"bytes32"},{"name":"previousAdminRole","type":"bytes32","indexed":true,"internalType":"bytes32"},{"name":"newAdminRole","type":"bytes32","indexed":true,"internalType":"bytes32"}],"anonymous":false},{"type":"event","name":"RoleGranted","inputs":[{"name":"role","type":"bytes32","indexed":true,"internalType":"bytes32"},{"name":"account","type":"address","indexed":true,"internalType":"address"},{"name":"sender","type":"address","indexed":true,"internalType":"address"}],"anonymous":false},{"type":"event","name":"RoleRevoked","inputs":[{"name":"role","type":"bytes32","indexed":true,"internalType":"bytes32"},{"name":"account","type":"address","indexed":true,"internalType":"address"},{"name":"sender","type":"address","indexed":true,"internalType":"address"}],"anonymous":false},{"type":"event","name":"SetSwapPool","inputs":[{"name":"_uniswapPool","type":"address","indexed":false,"internalType":"address"},{"name":"_token","type":"address","indexed":false,"internalType":"address"}],"anonymous":false},{"type":"event","name":"Upgraded","inputs":[{"name":"implementation","type":"address","indexed":true,"internalType":"address"}],"anonymous":false},{"type":"error","name":"InsufficientRareAllowance","inputs":[]},{"type":"error","name":"InvalidPool","inputs":[]},{"type":"error","name":"PercentageBeyondLimit","inputs":[]},{"type":"error","name":"PeriodLengthBeyondLimit","inputs":[]},{"type":"error","name":"RenouncingAdmin","inputs":[]},{"type":"error","name":"StakingContractAlreadyExists","inputs":[]},{"type":"error","name":"Unauthorized","inputs":[]},{"type":"error","name":"ZeroAddressUnsupported","inputs":[]}],"bytecode":{"object":"0x60a0604052306080523480156200001557600080fd5b506200002062000026565b620000e7565b600054610100900460ff1615620000935760405162461bcd60e51b815260206004820152602760248201527f496e697469616c697a61626c653a20636f6e747261637420697320696e697469604482015266616c697a696e6760c81b606482015260840160405180910390fd5b60005460ff90811614620000e5576000805460ff191660ff9081179091556040519081527f7f26b83ff96e1f2b6a682f133852f6798a09c465da95921460cefb38474024989060200160405180910390a15b565b608051613af36200011f60003960008181610be301528181610c2c01528181611069015281816110a901526111380152613af36000f3fe60806040526004361061025c5760003560e01c806352d1902d11610144578063a4303a45116100b6578063cac7c65c1161007a578063cac7c65c146107d7578063cb8af2b5146107f7578063d547741f14610817578063e286ef3314610837578063f24bd8a614610874578063f7ef8ead146108a157600080fd5b8063a4303a4514610721578063b3428d1514610743578063bb0544a114610763578063c254498714610783578063ca15c873146107b757600080fd5b806381d0606b1161010857806381d0606b1461065c5780638469ddc7146106965780639010d07c146106ac57806391d14854146106cc57806399247be7146106ec578063a217fddf1461070c57600080fd5b806352d1902d146105c5578063557499ba146105da57806366951bc1146105fa57806376a250a71461061c57806381910e331461063c57600080fd5b80632608ff35116101dd57806336568abe116101a157806336568abe146104fb5780633659cfe61461051b5780633d867d951461053b57806346ccbb40146105725780634e543b26146105925780634f1ef286146105b257600080fd5b80632608ff351461041f578063265718b41461043f57806329b4a590146104735780632f2ff15d146104a7578063363227e5146104c757600080fd5b806318ab58ac1161022457806318ab58ac146103625780631c5633d71461038f5780632210d525146103b157806323a7b42a146103d0578063248a9ca3146103ef57600080fd5b806301ffc9a714610261578063039bcf8e1461029657806306c571d5146102e857806310da95e61461032d578063111029b91461034c575b600080fd5b34801561026d57600080fd5b5061028161027c366004613195565b6108b7565b60405190151581526020015b60405180910390f35b3480156102a257600080fd5b506102d06102b13660046131d4565b6001600160a01b03908116600090815261012f60205260409020541690565b6040516001600160a01b03909116815260200161028d565b3480156102f457600080fd5b5061031f6103033660046131d4565b6001600160a01b03166000908152610130602052604090205490565b60405190815260200161028d565b34801561033957600080fd5b50610139546001600160a01b03166102d0565b34801561035857600080fd5b506101385461031f565b34801561036e57600080fd5b5061038261037d3660046131f1565b6108e2565b60405161028d9190613266565b34801561039b57600080fd5b506103af6103aa3660046132b3565b610a42565b005b3480156103bd57600080fd5b50610136546001600160a01b03166102d0565b3480156103dc57600080fd5b50610137546001600160a01b03166102d0565b3480156103fb57600080fd5b5061031f61040a3660046132b3565b60009081526065602052604090206001015490565b34801561042b57600080fd5b506103af61043a3660046132cc565b610ad8565b34801561044b57600080fd5b5061031f7fcfac5101a9a6e666acfba4416612534dd5edcaa6e3fec2fd00fb2e84b0e5e1d781565b34801561047f57600080fd5b5061031f7f1fb53273153c82fe1363373dd3355bec4bce8bdfe349c78a8ad09156481e622181565b3480156104b357600080fd5b506103af6104c236600461330d565b610b6d565b3480156104d357600080fd5b5061031f7f400c5a1da7685ba9f18764e1fcfab4b29512376de39bc16cc5ea8f80b7b6781981565b34801561050757600080fd5b506103af61051636600461330d565b610b97565b34801561052757600080fd5b506103af6105363660046131d4565b610bd9565b34801561054757600080fd5b5061031f6105563660046131d4565b6001600160a01b03166000908152610131602052604090205490565b34801561057e57600080fd5b506103af61058d36600461333d565b610cc1565b34801561059e57600080fd5b506103af6105ad3660046131d4565b610fa3565b6103af6105c03660046133da565b61105f565b3480156105d157600080fd5b5061031f61112b565b3480156105e657600080fd5b506103af6105f53660046131d4565b6111de565b34801561060657600080fd5b5061031f600080516020613a5783398151915281565b34801561062857600080fd5b506103af61063736600461346d565b61129a565b34801561064857600080fd5b506103af6106573660046132cc565b611404565b34801561066857600080fd5b506102d06106773660046131d4565b6001600160a01b03908116600090815261012d60205260409020541690565b3480156106a257600080fd5b506101345461031f565b3480156106b857600080fd5b506102d06106c73660046134b8565b6114e4565b3480156106d857600080fd5b506102816106e736600461330d565b611503565b3480156106f857600080fd5b506103af6107073660046131d4565b61152e565b34801561071857600080fd5b5061031f600081565b34801561072d57600080fd5b5061031f600080516020613a9e83398151915281565b34801561074f57600080fd5b506103af61075e3660046132b3565b6115d8565b34801561076f57600080fd5b506103af61077e3660046134da565b611665565b34801561078f57600080fd5b5061031f7f6b742d59f502efc664ffa5cec8b4f798ca10dc8c5372b7e9f352dc77e490827b81565b3480156107c357600080fd5b5061031f6107d23660046132b3565b61198c565b3480156107e357600080fd5b506103af6107f23660046132cc565b6119a3565b34801561080357600080fd5b506103af6108123660046132b3565b611a2e565b34801561082357600080fd5b506103af61083236600461330d565b611abb565b34801561084357600080fd5b506102d06108523660046131d4565b6001600160a01b03908116600090815261012d60205260409020600101541690565b34801561088057600080fd5b5061089461088f3660046131d4565b611ae0565b60405161028d91906135cb565b3480156108ad57600080fd5b506101355461031f565b60006001600160e01b03198216635a05180f60e01b14806108dc57506108dc82611d94565b92915050565b606060008267ffffffffffffffff8111156108ff576108ff61336b565b604051908082528060200260200182016040528015610928578160200160208202803683370190505b50905060005b83811015610a3a5784848281811061094857610948613635565b905060200201602081019061095d91906131d4565b6001600160a01b0316633b248c766040518163ffffffff1660e01b8152600401602060405180830381865afa9250505080156109b6575060408051601f3d908101601f191682019092526109b39181019061364b565b60015b6109f35760008282815181106109ce576109ce613635565b60200260200101906001600160a01b031690816001600160a01b031681525050610a28565b80838381518110610a0657610a06613635565b60200260200101906001600160a01b031690816001600160a01b031681525050505b80610a328161367e565b91505061092e565b509392505050565b6301e13380811115610a67576040516333f2123960e21b815260040160405180910390fd5b610a7f600080516020613a9e83398151915233611503565b610a9b576040516282b42960e81b815260040160405180910390fd5b6101348190556040518181527f439c9ef273bcbea625a0b7b93955ba4d4963bc26fdeaafe7dd6e674779464105906020015b60405180910390a150565b610af0600080516020613a5783398151915233611503565b610b0c576040516282b42960e81b815260040160405180910390fd5b6001600160a01b0383166000908152610130602052604081208054839290610b35908490613697565b90915550506001600160a01b0382166000908152610131602052604081208054839290610b63908490613697565b9091555050505050565b600082815260656020526040902060010154610b8881611dc9565b610b928383611dd3565b505050565b81158015610bad5750610ba98261198c565b6001145b15610bcb57604051630f29d08f60e31b815260040160405180910390fd5b610bd58282611df5565b5050565b6001600160a01b037f0000000000000000000000000000000000000000000000000000000000000000163003610c2a5760405162461bcd60e51b8152600401610c21906136aa565b60405180910390fd5b7f00000000000000000000000000000000000000000000000000000000000000006001600160a01b0316610c73600080516020613a37833981519152546001600160a01b031690565b6001600160a01b031614610c995760405162461bcd60e51b8152600401610c21906136f6565b610ca281611e6f565b60408051600080825260208201909252610cbe91839190611ebd565b50565b806001600160a01b0316826001600160a01b0316630dfe16816040518163ffffffff1660e01b8152600401602060405180830381865afa158015610d09573d6000803e3d6000fd5b505050506040513d601f19601f82011682018060405250810190610d2d919061364b565b6001600160a01b031614158015610db75750806001600160a01b0316826001600160a01b031663d21220a76040518163ffffffff1660e01b8152600401602060405180830381865afa158015610d87573d6000803e3d6000fd5b505050506040513d601f19601f82011682018060405250810190610dab919061364b565b6001600160a01b031614155b15610dd45760405162820f3560e61b815260040160405180910390fd5b6101375460408051630dfe168160e01b815290516001600160a01b0392831692851691630dfe16819160048083019260209291908290030181865afa158015610e21573d6000803e3d6000fd5b505050506040513d601f19601f82011682018060405250810190610e45919061364b565b6001600160a01b031614158015610ed45750610137546040805163d21220a760e01b815290516001600160a01b039283169285169163d21220a79160048083019260209291908290030181865afa158015610ea4573d6000803e3d6000fd5b505050506040513d601f19601f82011682018060405250810190610ec8919061364b565b6001600160a01b031614155b15610ef15760405162820f3560e61b815260040160405180910390fd5b610f1b7f400c5a1da7685ba9f18764e1fcfab4b29512376de39bc16cc5ea8f80b7b6781933611503565b610f37576040516282b42960e81b815260040160405180910390fd5b6001600160a01b03818116600081815261012f602090815260409182902080546001600160a01b031916948716948517905581519384528301919091527f90b58464d7ad372751038449eef244602d2be9c82abdab06596a7677272cd427910160405180910390a15050565b6001600160a01b038116610fca57604051637827912560e01b815260040160405180910390fd5b610ff47f6b742d59f502efc664ffa5cec8b4f798ca10dc8c5372b7e9f352dc77e490827b33611503565b611010576040516282b42960e81b815260040160405180910390fd5b61013380546001600160a01b0319166001600160a01b0383169081179091556040519081527f15cd6d20bba01b3fcb790c73829dd07412cbdf689ef818c96a2505889f3736a290602001610acd565b6001600160a01b037f00000000000000000000000000000000000000000000000000000000000000001630036110a75760405162461bcd60e51b8152600401610c21906136aa565b7f00000000000000000000000000000000000000000000000000000000000000006001600160a01b03166110f0600080516020613a37833981519152546001600160a01b031690565b6001600160a01b0316146111165760405162461bcd60e51b8152600401610c21906136f6565b61111f82611e6f565b610bd582826001611ebd565b6000306001600160a01b037f000000000000000000000000000000000000000000000000000000000000000016146111cb5760405162461bcd60e51b815260206004820152603860248201527f555550535570677261646561626c653a206d757374206e6f742062652063616c60448201527f6c6564207468726f7567682064656c656761746563616c6c00000000000000006064820152608401610c21565b50600080516020613a3783398151915290565b6001600160a01b03811661120557604051637827912560e01b815260040160405180910390fd5b61122f7f6b742d59f502efc664ffa5cec8b4f798ca10dc8c5372b7e9f352dc77e490827b33611503565b61124b576040516282b42960e81b815260040160405180910390fd5b61013280546001600160a01b0319166001600160a01b0383169081179091556040519081527fd192c0b229b00473ccb6ccfebf6642805bca1dcdf2d9fb4fd102c7dc7ea4ce2390602001610acd565b6112c47fcfac5101a9a6e666acfba4416612534dd5edcaa6e3fec2fd00fb2e84b0e5e1d733611503565b6112e0576040516282b42960e81b815260040160405180910390fd5b6001600160a01b03831661130757604051637827912560e01b815260040160405180910390fd5b6001600160a01b03821661132e57604051637827912560e01b815260040160405180910390fd5b6001600160a01b03811661135557604051637827912560e01b815260040160405180910390fd5b6001600160a01b03838116600090815261012d6020526040902054161561138f576040516333e9f35b60e11b815260040160405180910390fd5b6040805180820182526001600160a01b039384168082529284166020808301918252958516600081815261012d8852848120935184549088166001600160a01b0319918216178555925160019094018054949097169383169390931790955592815261012e9094529092208054909216179055565b61013654604051636eb1769f60e11b81526001600160a01b038581166004830152306024830152909116908290829063dd62ed3e90604401602060405180830381865afa158015611459573d6000803e3d6000fd5b505050506040513d601f19601f8201168201806040525081019061147d9190613742565b101561149c576040516321a1cc1360e11b815260040160405180910390fd5b33600090815261012e60205260409020546001600160a01b03166114d2576040516282b42960e81b815260040160405180910390fd5b6114de81858585612028565b50505050565b60008281526097602052604081206114fc9083612082565b9392505050565b60009182526065602090815260408084206001600160a01b0393909316845291905290205460ff1690565b6001600160a01b03811661155557604051637827912560e01b815260040160405180910390fd5b61156d600080516020613a9e83398151915233611503565b611589576040516282b42960e81b815260040160405180910390fd5b61013980546001600160a01b0319166001600160a01b0383169081179091556040519081527fa37a7d6d9546ebba206b7200fd6814cc4885bd05277f43db31703508086bac5b90602001610acd565b6127108111156115fb5760405163669a78b160e11b815260040160405180910390fd5b611613600080516020613a9e83398151915233611503565b61162f576040516282b42960e81b815260040160405180910390fd5b6101388190556040518181527f8edc85bde8568f5dc6d7febb4820920db680537ad498b90d003e63d93a3988a190602001610acd565b600054610100900460ff16158080156116855750600054600160ff909116105b8061169f5750303b15801561169f575060005460ff166001145b6117025760405162461bcd60e51b815260206004820152602e60248201527f496e697469616c697a61626c653a20636f6e747261637420697320616c72656160448201526d191e481a5b9a5d1a585b1a5e995960921b6064820152608401610c21565b6000805460ff191660011790558015611725576000805461ff0019166101001790555b6301e1338087111561174a576040516333f2123960e21b815260040160405180910390fd5b61271086111561176d5760405163669a78b160e11b815260040160405180910390fd5b6127108511156117905760405163669a78b160e11b815260040160405180910390fd5b6001600160a01b038a166117b757604051637827912560e01b815260040160405180910390fd5b6001600160a01b0389166117de57604051637827912560e01b815260040160405180910390fd5b6001600160a01b03881661180557604051637827912560e01b815260040160405180910390fd5b6001600160a01b03841661182c57604051637827912560e01b815260040160405180910390fd5b6001600160a01b03831661185357604051637827912560e01b815260040160405180910390fd5b6001600160a01b03821661187a57604051637827912560e01b815260040160405180910390fd5b61188560008b611dd3565b6118bd600080516020613a578339815191527f1fb53273153c82fe1363373dd3355bec4bce8bdfe349c78a8ad09156481e622161208e565b61013280546001600160a01b03199081166001600160a01b038c811691909117909255610133805482168b8416179055610135889055610134899055610136805482168784161790556101378054821686841617905561013887905561013980549091169184169190911790556119326120d9565b61193a6120d9565b8015611980576000805461ff0019169055604051600181527f7f26b83ff96e1f2b6a682f133852f6798a09c465da95921460cefb38474024989060200160405180910390a15b50505050505050505050565b60008181526097602052604081206108dc90612146565b6119bb600080516020613a5783398151915233611503565b6119d7576040516282b42960e81b815260040160405180910390fd5b6001600160a01b0383166000908152610130602052604081208054839290611a0090849061375b565b90915550506001600160a01b0382166000908152610131602052604081208054839290610b6390849061375b565b612710811115611a515760405163669a78b160e11b815260040160405180910390fd5b611a69600080516020613a9e83398151915233611503565b611a85576040516282b42960e81b815260040160405180910390fd5b6101358190556040518181527f392bc62c14254761a14ce86ad9820d13103f5f490089391c7ecf162afd5d68f990602001610acd565b600082815260656020526040902060010154611ad681611dc9565b610b928383612150565b611ae861315b565b6101335461013254604051632ffef98760e21b81526001600160a01b038581166004830152600093611bd4939082169263691f3431929091169063bffbe61c90602401602060405180830381865afa158015611b48573d6000803e3d6000fd5b505050506040513d601f19601f82011682018060405250810190611b6c9190613742565b6040518263ffffffff1660e01b8152600401611b8a91815260200190565b600060405180830381865afa158015611ba7573d6000803e3d6000fd5b505050506040513d6000823e601f3d908101601f19168201604052611bcf919081019061376e565b612172565b9050611bde61315b565b6001600160a01b03808516600081815261012d60208181526040808420805487169188019190915293909252905260010154166060820152611c1f8261219f565b15611cd957611c50611c49604051806040016040528060018152602001601760f91b815250612172565b8390612278565b50611c8d82611c8760405180604001604052806011815260200170029bcb73a3432ba34b1902920a922903e1607d1b815250612172565b9061229e565b8152611ccd611ca6611bcf611ca18561232e565b612397565b611c876040518060400160405280600681526020016578524152455f60d01b815250612172565b60208201529392505050565b6000611ce48561240a565b90506000611cf8611bcf8360066000612420565b90506000611d0c611bcf8460046023612420565b90506000611d1d611bcf848461229e565b9050611d5581611c8760405180604001604052806011815260200170029bcb73a3432ba34b1902920a922903e1607d1b815250612172565b855260408051808201909152600681526578524152455f60d01b6020820152611d83908290611c8790612172565b602086015250929695505050505050565b60006001600160e01b03198216637965db0b60e01b14806108dc57506301ffc9a760e01b6001600160e01b03198316146108dc565b610cbe8133612511565b611ddd828261256a565b6000828152609760205260409020610b9290826125f0565b6001600160a01b0381163314611e655760405162461bcd60e51b815260206004820152602f60248201527f416363657373436f6e74726f6c3a2063616e206f6e6c792072656e6f756e636560448201526e103937b632b9903337b91039b2b63360891b6064820152608401610c21565b610bd58282612150565b611e7a600033611503565b611e96576040516282b42960e81b815260040160405180910390fd5b6001600160a01b038116610cbe57604051637827912560e01b815260040160405180910390fd5b7f4910fdfa16fed3260ed0e7147f7cc6da11a60208b5b9406d12a635614ffd91435460ff1615611ef057610b9283612605565b826001600160a01b03166352d1902d6040518163ffffffff1660e01b8152600401602060405180830381865afa925050508015611f4a575060408051601f3d908101601f19168201909252611f4791810190613742565b60015b611fad5760405162461bcd60e51b815260206004820152602e60248201527f45524331393637557067726164653a206e657720696d706c656d656e7461746960448201526d6f6e206973206e6f74205555505360901b6064820152608401610c21565b600080516020613a37833981519152811461201c5760405162461bcd60e51b815260206004820152602960248201527f45524331393637557067726164653a20756e737570706f727465642070726f786044820152681a58589b195555525160ba1b6064820152608401610c21565b50610b928383836126a1565b604080516001600160a01b0385811660248301528416604482015260648082018490528251808303909101815260849091019091526020810180516001600160e01b03166323b872dd60e01b1790526114de9085906126c6565b60006114fc838361279b565b600082815260656020526040808220600101805490849055905190918391839186917fbd79b86ffe0ab8e8776151514217cd7cacd52c909f66475c3af44e129f0b00ff9190a4505050565b600054610100900460ff166121445760405162461bcd60e51b815260206004820152602b60248201527f496e697469616c697a61626c653a20636f6e7472616374206973206e6f74206960448201526a6e697469616c697a696e6760a81b6064820152608401610c21565b565b60006108dc825490565b61215a82826127c5565b6000828152609760205260409020610b92908261282c565b60408051808201825260008082526020918201528151808301909252825182529182019181019190915290565b600080601f83602001516121b3919061375b565b83519091506000906121c59083613697565b9050600092505b8082101561227157815160ff1660808110156121f4576121ed600184613697565b925061225e565b60e08160ff16101561220b576121ed600284613697565b60f08160ff161015612222576121ed600384613697565b60f88160ff161015612239576121ed600484613697565b60fc8160ff161015612250576121ed600584613697565b61225b600684613697565b92505b50826122698161367e565b9350506121cc565b5050919050565b6040805180820190915260008082526020820152612297838383612841565b5092915050565b805182516060916000916122b29190613697565b67ffffffffffffffff8111156122ca576122ca61336b565b6040519080825280601f01601f1916602001820160405280156122f4576020820181803683370190505b509050600060208201905061231281866020015187600001516128d7565b8451610a3a906123229083613697565b602086015186516128d7565b60606000826000015167ffffffffffffffff81111561234f5761234f61336b565b6040519080825280601f01601f191660200182016040528015612379576020820181803683370190505b509050600060208201905061229781856020015186600001516128d7565b60608160005b8151811015612297576123cf8282815181106123bb576123bb613635565b01602001516001600160f81b031916612951565b8282815181106123e1576123e1613635565b60200101906001600160f81b031916908160001a905350806124028161367e565b91505061239d565b60606108dc6001600160a01b03831660146129a0565b8251606090849061243185856137e5565b111561243f5761243f61380d565b60008467ffffffffffffffff81111561245a5761245a61336b565b6040519080825280601f01601f191660200182016040528015612484576020820181803683370190505b509050806000855b61249688886137e5565b811015612504578481815181106124af576124af613635565b01602001516001600160f81b03191683836124c98161367e565b9450815181106124db576124db613635565b60200101906001600160f81b031916908160001a905350806124fc8161367e565b91505061248c565b5090979650505050505050565b61251b8282611503565b610bd55761252881612b3c565b612533836020612b4e565b604051602001612544929190613823565b60408051601f198184030181529082905262461bcd60e51b8252610c2191600401613898565b6125748282611503565b610bd55760008281526065602090815260408083206001600160a01b03851684529091529020805460ff191660011790556125ac3390565b6001600160a01b0316816001600160a01b0316837f2f8788117e7eff1d82e926ec794901d17c78024a50270940304540a733656f0d60405160405180910390a45050565b60006114fc836001600160a01b038416612c9b565b6001600160a01b0381163b6126725760405162461bcd60e51b815260206004820152602d60248201527f455243313936373a206e657720696d706c656d656e746174696f6e206973206e60448201526c1bdd08184818dbdb9d1c9858dd609a1b6064820152608401610c21565b600080516020613a3783398151915280546001600160a01b0319166001600160a01b0392909216919091179055565b6126aa83612cea565b6000825111806126b75750805b15610b92576114de8383612d2a565b600061271b826040518060400160405280602081526020017f5361666545524332303a206c6f772d6c6576656c2063616c6c206661696c6564815250856001600160a01b0316612d4f9092919063ffffffff16565b905080516000148061273c57508080602001905181019061273c91906138ab565b610b925760405162461bcd60e51b815260206004820152602a60248201527f5361666545524332303a204552433230206f7065726174696f6e20646964206e6044820152691bdd081cdd58d8d9595960b21b6064820152608401610c21565b60008260000182815481106127b2576127b2613635565b9060005260206000200154905092915050565b6127cf8282611503565b15610bd55760008281526065602090815260408083206001600160a01b0385168085529252808320805460ff1916905551339285917ff6391f5c32d9c69d2a47ea670b442974b53935d1edc7fd64eb21e047a839171b9190a45050565b60006114fc836001600160a01b038416612d66565b604080518082019091526000808252602082015260006128738560000151866020015186600001518760200151612e59565b602080850182905286015190915061288b908261375b565b8551612897919061375b565b8352602085015181036128ad57600085526128ce565b835183516128bb9190613697565b855186906128ca90839061375b565b9052505b50909392505050565b6020811061290f57815183526128ee602084613697565b92506128fb602083613697565b915061290860208261375b565b90506128d7565b600019811561293e57600161292583602061375b565b612931906101006139b1565b61293b919061375b565b90505b9151835183169219169190911790915250565b6000606160f81b6001600160f81b031983161080159061297f5750603d60f91b6001600160f81b0319831611155b1561299c57612993602060f884901c6139bd565b60f81b92915050565b5090565b606060006129af8360026139d6565b6129ba906002613697565b67ffffffffffffffff8111156129d2576129d261336b565b6040519080825280601f01601f1916602001820160405280156129fc576020820181803683370190505b509050600360fc1b81600081518110612a1757612a17613635565b60200101906001600160f81b031916908160001a905350600f60fb1b81600181518110612a4657612a46613635565b60200101906001600160f81b031916908160001a9053506000612a6a8460026139d6565b612a75906001613697565b90505b6001811115612aed576f181899199a1a9b1b9c1cb0b131b232b360811b85600f1660108110612aa957612aa9613635565b1a60f81b828281518110612abf57612abf613635565b60200101906001600160f81b031916908160001a90535060049490941c93612ae6816139ed565b9050612a78565b5083156114fc5760405162461bcd60e51b815260206004820181905260248201527f537472696e67733a20686578206c656e67746820696e73756666696369656e746044820152606401610c21565b60606108dc6001600160a01b03831660145b60606000612b5d8360026139d6565b612b68906002613697565b67ffffffffffffffff811115612b8057612b8061336b565b6040519080825280601f01601f191660200182016040528015612baa576020820181803683370190505b509050600360fc1b81600081518110612bc557612bc5613635565b60200101906001600160f81b031916908160001a905350600f60fb1b81600181518110612bf457612bf4613635565b60200101906001600160f81b031916908160001a9053506000612c188460026139d6565b612c23906001613697565b90505b6001811115612aed576f181899199a1a9b1b9c1cb0b131b232b360811b85600f1660108110612c5757612c57613635565b1a60f81b828281518110612c6d57612c6d613635565b60200101906001600160f81b031916908160001a90535060049490941c93612c94816139ed565b9050612c26565b6000818152600183016020526040812054612ce2575081546001818101845560008481526020808220909301849055845484825282860190935260409020919091556108dc565b5060006108dc565b612cf381612605565b6040516001600160a01b038216907fbc7cd75a20ee27fd9adebab32041f755214dbc6bffa90cc0225b39da2e5c2d3b90600090a250565b60606114fc8383604051806060016040528060278152602001613a7760279139612f6a565b6060612d5e8484600085612fe2565b949350505050565b60008181526001830160205260408120548015612e4f576000612d8a60018361375b565b8554909150600090612d9e9060019061375b565b9050818114612e03576000866000018281548110612dbe57612dbe613635565b9060005260206000200154905080876000018481548110612de157612de1613635565b6000918252602080832090910192909255918252600188019052604090208390555b8554869080612e1457612e14613a04565b6001900381819060005260206000200160009055905585600101600086815260200190815260200160002060009055600193505050506108dc565b60009150506108dc565b600080858411612f605760208411612f0c5760008415612ea4576001612e8086602061375b565b612e8b9060086139d6565b612e969060026139b1565b612ea0919061375b565b1990505b8351811685612eb38989613697565b612ebd919061375b565b805190935082165b818114612ef757878411612edf5787945050505050612d5e565b83612ee9816139ed565b945050828451169050612ec5565b612f018785613697565b945050505050612d5e565b838320612f19858861375b565b612f239087613697565b91505b858210612f5e57848220808203612f4b57612f418684613697565b9350505050612d5e565b612f5660018461375b565b925050612f26565b505b5092949350505050565b6060600080856001600160a01b031685604051612f879190613a1a565b600060405180830381855af49150503d8060008114612fc2576040519150601f19603f3d011682016040523d82523d6000602084013e612fc7565b606091505b5091509150612fd8868383876130bd565b9695505050505050565b6060824710156130435760405162461bcd60e51b815260206004820152602660248201527f416464726573733a20696e73756666696369656e742062616c616e636520666f6044820152651c8818d85b1b60d21b6064820152608401610c21565b600080866001600160a01b0316858760405161305f9190613a1a565b60006040518083038185875af1925050503d806000811461309c576040519150601f19603f3d011682016040523d82523d6000602084013e6130a1565b606091505b50915091506130b2878383876130bd565b979650505050505050565b6060831561312c578251600003613125576001600160a01b0385163b6131255760405162461bcd60e51b815260206004820152601d60248201527f416464726573733a2063616c6c20746f206e6f6e2d636f6e74726163740000006044820152606401610c21565b5081612d5e565b612d5e83838151156131415781518083602001fd5b8060405162461bcd60e51b8152600401610c219190613898565b6040518060800160405280606081526020016060815260200160006001600160a01b0316815260200160006001600160a01b031681525090565b6000602082840312156131a757600080fd5b81356001600160e01b0319811681146114fc57600080fd5b6001600160a01b0381168114610cbe57600080fd5b6000602082840312156131e657600080fd5b81356114fc816131bf565b6000806020838503121561320457600080fd5b823567ffffffffffffffff8082111561321c57600080fd5b818501915085601f83011261323057600080fd5b81358181111561323f57600080fd5b8660208260051b850101111561325457600080fd5b60209290920196919550909350505050565b6020808252825182820181905260009190848201906040850190845b818110156132a75783516001600160a01b031683529284019291840191600101613282565b50909695505050505050565b6000602082840312156132c557600080fd5b5035919050565b6000806000606084860312156132e157600080fd5b83356132ec816131bf565b925060208401356132fc816131bf565b929592945050506040919091013590565b6000806040838503121561332057600080fd5b823591506020830135613332816131bf565b809150509250929050565b6000806040838503121561335057600080fd5b823561335b816131bf565b91506020830135613332816131bf565b634e487b7160e01b600052604160045260246000fd5b604051601f8201601f1916810167ffffffffffffffff811182821017156133aa576133aa61336b565b604052919050565b600067ffffffffffffffff8211156133cc576133cc61336b565b50601f01601f191660200190565b600080604083850312156133ed57600080fd5b82356133f8816131bf565b9150602083013567ffffffffffffffff81111561341457600080fd5b8301601f8101851361342557600080fd5b8035613438613433826133b2565b613381565b81815286602083850101111561344d57600080fd5b816020840160208301376000602083830101528093505050509250929050565b60008060006060848603121561348257600080fd5b833561348d816131bf565b9250602084013561349d816131bf565b915060408401356134ad816131bf565b809150509250925092565b600080604083850312156134cb57600080fd5b50508035926020909101359150565b60008060008060008060008060006101208a8c0312156134f957600080fd5b8935613504816131bf565b985060208a0135613514816131bf565b975060408a0135613524816131bf565b965060608a0135955060808a0135945060a08a0135935060c08a0135613549816131bf565b925060e08a0135613559816131bf565b91506101008a013561356a816131bf565b809150509295985092959850929598565b60005b8381101561359657818101518382015260200161357e565b50506000910152565b600081518084526135b781602086016020860161357b565b601f01601f19169290920160200192915050565b6020815260008251608060208401526135e760a084018261359f565b90506020840151601f19848303016040850152613604828261359f565b60408601516001600160a01b0390811660608781019190915290960151909516608090940193909352509192915050565b634e487b7160e01b600052603260045260246000fd5b60006020828403121561365d57600080fd5b81516114fc816131bf565b634e487b7160e01b600052601160045260246000fd5b60006001820161369057613690613668565b5060010190565b808201808211156108dc576108dc613668565b6020808252602c908201527f46756e6374696f6e206d7573742062652063616c6c6564207468726f7567682060408201526b19195b1959d85d1958d85b1b60a21b606082015260800190565b6020808252602c908201527f46756e6374696f6e206d7573742062652063616c6c6564207468726f7567682060408201526b6163746976652070726f787960a01b606082015260800190565b60006020828403121561375457600080fd5b5051919050565b818103818111156108dc576108dc613668565b60006020828403121561378057600080fd5b815167ffffffffffffffff81111561379757600080fd5b8201601f810184136137a857600080fd5b80516137b6613433826133b2565b8181528560208385010111156137cb57600080fd5b6137dc82602083016020860161357b565b95945050505050565b808201828112600083128015821682158216171561380557613805613668565b505092915050565b634e487b7160e01b600052600160045260246000fd5b7f416363657373436f6e74726f6c3a206163636f756e742000000000000000000081526000835161385b81601785016020880161357b565b7001034b99036b4b9b9b4b733903937b6329607d1b601791840191820152835161388c81602884016020880161357b565b01602801949350505050565b6020815260006114fc602083018461359f565b6000602082840312156138bd57600080fd5b815180151581146114fc57600080fd5b600181815b808511156139085781600019048211156138ee576138ee613668565b808516156138fb57918102915b93841c93908002906138d2565b509250929050565b60008261391f575060016108dc565b8161392c575060006108dc565b8160018114613942576002811461394c57613968565b60019150506108dc565b60ff84111561395d5761395d613668565b50506001821b6108dc565b5060208310610133831016604e8410600b841016171561398b575081810a6108dc565b61399583836138cd565b80600019048211156139a9576139a9613668565b029392505050565b60006114fc8383613910565b60ff82811682821603908111156108dc576108dc613668565b80820281158282048414176108dc576108dc613668565b6000816139fc576139fc613668565b506000190190565b634e487b7160e01b600052603160045260246000fd5b60008251613a2c81846020870161357b565b919091019291505056fe360894a13ba1a3210667c828492db98dca3e2076cc3735a920a3ca505d382bbcb6e1aa954ca88134dedc447027c8ef72953bf046c847542dd28babf3f8d9092f416464726573733a206c6f772d6c6576656c2064656c65676174652063616c6c206661696c6564dc0c909fa3135f9237d8a966b8b184ead9db0c05d73609dcb237ff6a00b0717ba2646970667358221220e54dd2927bcfce625e275a628e9d77fca35302ceda0c204ea33c984e624bbb6764736f6c63430008120033","linkReferences":{}},"methodIdentifiers":{"DEFAULT_ADMIN_ROLE()":"a217fddf","ENS_SETTER_ROLE()":"c2544987","STAKING_CONFIG_SETTER_ROLE()":"a4303a45","STAKING_INFO_SETTER_ROLE()":"265718b4","STAKING_STAT_SETTER_ADMIN_ROLE()":"29b4a590","STAKING_STAT_SETTER_ROLE()":"66951bc1","SWAP_POOL_SETTER_ROLE()":"363227e5","decreaseAmountStaked(address,address,uint256)":"cac7c65c","getDefaultPayee()":"10da95e6","getDeflationaryPercentage()":"f7ef8ead","getDiscountPercentage()":"111029b9","getPeriodLength()":"8469ddc7","getRareAddress()":"2210d525","getRewardAccumulatorAddressForUser(address)":"e286ef33","getRoleAdmin(bytes32)":"248a9ca3","getRoleMember(bytes32,uint256)":"9010d07c","getRoleMemberCount(bytes32)":"ca15c873","getStakingAddressForUser(address)":"81d0606b","getStakingInfoForUser(address)":"f24bd8a6","getSwapPool(address)":"039bcf8e","getTotalAmountStakedByUser(address)":"06c571d5","getTotalAmountStakedOnUser(address)":"3d867d95","getUsersForStakingAddresses(address[])":"18ab58ac","getWethAddress()":"23a7b42a","grantRole(bytes32,address)":"2f2ff15d","hasRole(bytes32,address)":"91d14854","increaseAmountStaked(address,address,uint256)":"2608ff35","initialize(address,address,address,uint256,uint256,uint256,address,address,address)":"bb0544a1","proxiableUUID()":"52d1902d","renounceRole(bytes32,address)":"36568abe","revokeRole(bytes32,address)":"d547741f","setDefaultPayee(address)":"99247be7","setDeflationaryPercentage(uint256)":"cb8af2b5","setDiscountPercentage(uint256)":"b3428d15","setPeriodLength(uint256)":"1c5633d7","setResolver(address)":"4e543b26","setReverseRegistrar(address)":"557499ba","setStakingAddresses(address,address,address)":"76a250a7","setSwapPool(address,address)":"46ccbb40","supportsInterface(bytes4)":"01ffc9a7","transferRareFrom(address,address,uint256)":"81910e33","upgradeTo(address)":"3659cfe6","upgradeToAndCall(address,bytes)":"4f1ef286"},"id":142}