{
  "abi": [
    {
      "inputs": [],
      "stateMutability": "nonpayable",
      "type": "constructor"
    },
    {
      "inputs": [],
      "name": "InsufficientRareAllowance",
      "type": "error"
    },
    {
      "inputs": [],
      "name": "InvalidPool",
      "type": "error"
    },
    {
      "inputs": [],
      "name": "PercentageBeyondLimit",
      "type": "error"
    },
    {
      "inputs": [],
      "name": "PeriodLengthBeyondLimit",
      "type": "error"
    },
    {
      "inputs": [],
      "name": "RenouncingAdmin",
      "type": "error"
    },
    {
      "inputs": [],
      "name": "StakingContractAlreadyExists",
      "type": "error"
    },
    {
      "inputs": [],
      "name": "Unauthorized",
      "type": "error"
    },
    {
      "inputs": [],
      "name": "ZeroAddressUnsupported",
      "type": "error"
    },
    {
      "anonymous": false,
      "inputs": [
        {
          "indexed": false,
          "internalType": "address",
          "name": "previousAdmin",
          "type": "address"
        },
        {
          "indexed": false,
          "internalType": "address",
          "name": "newAdmin",
          "type": "address"
        }
      ],
      "name": "AdminChanged",
      "type": "event"
    },
    {
      "anonymous": false,
      "inputs": [
        {
          "indexed": true,
          "internalType": "address",
          "name": "beacon",
          "type": "address"
        }
      ],
      "name": "BeaconUpgraded",
      "type": "event"
    },
    {
      "anonymous": false,
      "inputs": [
        {
          "indexed": false,
          "internalType": "address",
          "name": "_payee",
          "type": "address"
        }
      ],
      "name": "DefaultPayeeUpdated",
      "type": "event"
    },
    {
      "anonymous": false,
      "inputs": [
        {
          "indexed": false,
          "internalType": "uint256",
          "name": "_percentage",
          "type": "uint256"
        }
      ],
      "name": "DeflationaryPercentageUpdated",
      "type": "event"
    },
    {
      "anonymous": false,
      "inputs": [
        {
          "indexed": false,
          "internalType": "uint256",
          "name": "_percentage",
          "type": "uint256"
        }
      ],
      "name": "DiscountPercentageUpdated",
      "type": "event"
    },
    {
      "anonymous": false,
      "inputs": [
        {
          "indexed": false,
          "internalType": "uint8",
          "name": "version",
          "type": "uint8"
        }
      ],
      "name": "Initialized",
      "type": "event"
    },
    {
      "anonymous": false,
      "inputs": [
        {
          "indexed": false,
          "internalType": "uint256",
          "name": "_periodLength",
          "type": "uint256"
        }
      ],
      "name": "PeriodLengthUpdated",
      "type": "event"
    },
    {
      "anonymous": false,
      "inputs": [
        {
          "indexed": false,
          "internalType": "address",
          "name": "_resolver",
          "type": "address"
        }
      ],
      "name": "ResolverUpdated",
      "type": "event"
    },
    {
      "anonymous": false,
      "inputs": [
        {
          "indexed": false,
          "internalType": "address",
          "name": "_percentage",
          "type": "address"
        }
      ],
      "name": "ReverseRegistrarUpdated",
      "type": "event"
    },
    {
      "anonymous": false,
      "inputs": [
        {
          "indexed": true,
          "internalType": "bytes32",
          "name": "role",
          "type": "bytes32"
        },
        {
          "indexed": true,
          "internalType": "bytes32",
          "name": "previousAdminRole",
          "type": "bytes32"
        },
        {
          "indexed": true,
          "internalType": "bytes32",
          "name": "newAdminRole",
          "type": "bytes32"
        }
      ],
      "name": "RoleAdminChanged",
      "type": "event"
    },
    {
      "anonymous": false,
      "inputs": [
        {
          "indexed": true,
          "internalType": "bytes32",
          "name": "role",
          "type": "bytes32"
        },
        {
          "indexed": true,
          "internalType": "address",
          "name": "account",
          "type": "address"
        },
        {
          "indexed": true,
          "internalType": "address",
          "name": "sender",
          "type": "address"
        }
      ],
      "name": "RoleGranted",
      "type": "event"
    },
    {
      "anonymous": false,
      "inputs": [
        {
          "indexed": true,
          "internalType": "bytes32",
          "name": "role",
          "type": "bytes32"
        },
        {
          "indexed": true,
          "internalType": "address",
          "name": "account",
          "type": "address"
        },
        {
          "indexed": true,
          "internalType": "address",
          "name": "sender",
          "type": "address"
        }
      ],
      "name": "RoleRevoked",
      "type": "event"
    },
    {
      "anonymous": false,
      "inputs": [
        {
          "indexed": false,
          "internalType": "address",
          "name": "_uniswapPool",
          "type": "address"
        },
        {
          "indexed": false,
          "internalType": "address",
          "name": "_token",
          "type": "address"
        }
      ],
      "name": "SetSwapPool",
      "type": "event"
    },
    {
      "anonymous": false,
      "inputs": [
        {
          "indexed": true,
          "internalType": "address",
          "name": "implementation",
          "type": "address"
        }
      ],
      "name": "Upgraded",
      "type": "event"
    },
    {
      "inputs": [],
      "name": "DEFAULT_ADMIN_ROLE",
      "outputs": [
        {
          "internalType": "bytes32",
          "name": "",
          "type": "bytes32"
        }
      ],
      "stateMutability": "view",
      "type": "function"
    },
    {
      "inputs": [],
      "name": "ENS_SETTER_ROLE",
      "outputs": [
        {
          "internalType": "bytes32",
          "name": "",
          "type": "bytes32"
        }
      ],
      "stateMutability": "view",
      "type": "function"
    },
    {
      "inputs": [],
      "name": "STAKING_CONFIG_SETTER_ROLE",
      "outputs": [
        {
          "internalType": "bytes32",
          "name": "",
          "type": "bytes32"
        }
      ],
      "stateMutability": "view",
      "type": "function"
    },
    {
      "inputs": [],
      "name": "STAKING_INFO_SETTER_ROLE",
      "outputs": [
        {
          "internalType": "bytes32",
          "name": "",
          "type": "bytes32"
        }
      ],
      "stateMutability": "view",
      "type": "function"
    },
    {
      "inputs": [],
      "name": "STAKING_STAT_SETTER_ADMIN_ROLE",
      "outputs": [
        {
          "internalType": "bytes32",
          "name": "",
          "type": "bytes32"
        }
      ],
      "stateMutability": "view",
      "type": "function"
    },
    {
      "inputs": [],
      "name": "STAKING_STAT_SETTER_ROLE",
      "outputs": [
        {
          "internalType": "bytes32",
          "name": "",
          "type": "bytes32"
        }
      ],
      "stateMutability": "view",
      "type": "function"
    },
    {
      "inputs": [],
      "name": "SWAP_POOL_SETTER_ROLE",
      "outputs": [
        {
          "internalType": "bytes32",
          "name": "",
          "type": "bytes32"
        }
      ],
      "stateMutability": "view",
      "type": "function"
    },
    {
      "inputs": [
        {
          "internalType": "address",
          "name": "_staker",
          "type": "address"
        },
        {
          "internalType": "address",
          "name": "_stakedOn",
          "type": "address"
        },
        {
          "internalType": "uint256",
          "name": "_amount",
          "type": "uint256"
        }
      ],
      "name": "decreaseAmountStaked",
      "outputs": [],
      "stateMutability": "nonpayable",
      "type": "function"
    },
    {
      "inputs": [],
      "name": "getAllStakedOn",
      "outputs": [
        {
          "internalType": "address[]",
          "name": "",
          "type": "address[]"
        }
      ],
      "stateMutability": "view",
      "type": "function"
    },
    {
      "inputs": [],
      "name": "getAllStakers",
      "outputs": [
        {
          "internalType": "address[]",
          "name": "",
          "type": "address[]"
        }
      ],
      "stateMutability": "view",
      "type": "function"
    },
    {
      "inputs": [],
      "name": "getAllStakingContracts",
      "outputs": [
        {
          "internalType": "address[]",
          "name": "",
          "type": "address[]"
        }
      ],
      "stateMutability": "view",
      "type": "function"
    },
    {
      "inputs": [],
      "name": "getDefaultPayee",
      "outputs": [
        {
          "internalType": "address",
          "name": "",
          "type": "address"
        }
      ],
      "stateMutability": "view",
      "type": "function"
    },
    {
      "inputs": [],
      "name": "getDeflationaryPercentage",
      "outputs": [
        {
          "internalType": "uint256",
          "name": "",
          "type": "uint256"
        }
      ],
      "stateMutability": "view",
      "type": "function"
    },
    {
      "inputs": [],
      "name": "getDiscountPercentage",
      "outputs": [
        {
          "internalType": "uint256",
          "name": "",
          "type": "uint256"
        }
      ],
      "stateMutability": "view",
      "type": "function"
    },
    {
      "inputs": [],
      "name": "getPeriodLength",
      "outputs": [
        {
          "internalType": "uint256",
          "name": "",
          "type": "uint256"
        }
      ],
      "stateMutability": "view",
      "type": "function"
    },
    {
      "inputs": [],
      "name": "getRareAddress",
      "outputs": [
        {
          "internalType": "address",
          "name": "",
          "type": "address"
        }
      ],
      "stateMutability": "view",
      "type": "function"
    },
    {
      "inputs": [
        {
          "internalType": "address",
          "name": "_user",
          "type": "address"
        }
      ],
      "name": "getRewardAccumulatorAddressForUser",
      "outputs": [
        {
          "internalType": "address",
          "name": "",
          "type": "address"
        }
      ],
      "stateMutability": "view",
      "type": "function"
    },
    {
      "inputs": [
        {
          "internalType": "bytes32",
          "name": "role",
          "type": "bytes32"
        }
      ],
      "name": "getRoleAdmin",
      "outputs": [
        {
          "internalType": "bytes32",
          "name": "",
          "type": "bytes32"
        }
      ],
      "stateMutability": "view",
      "type": "function"
    },
    {
      "inputs": [
        {
          "internalType": "bytes32",
          "name": "role",
          "type": "bytes32"
        },
        {
          "internalType": "uint256",
          "name": "index",
          "type": "uint256"
        }
      ],
      "name": "getRoleMember",
      "outputs": [
        {
          "internalType": "address",
          "name": "",
          "type": "address"
        }
      ],
      "stateMutability": "view",
      "type": "function"
    },
    {
      "inputs": [
        {
          "internalType": "bytes32",
          "name": "role",
          "type": "bytes32"
        }
      ],
      "name": "getRoleMemberCount",
      "outputs": [
        {
          "internalType": "uint256",
          "name": "",
          "type": "uint256"
        }
      ],
      "stateMutability": "view",
      "type": "function"
    },
    {
      "inputs": [
        {
          "internalType": "address",
          "name": "_user",
          "type": "address"
        }
      ],
      "name": "getStakingAddressForUser",
      "outputs": [
        {
          "internalType": "address",
          "name": "",
          "type": "address"
        }
      ],
      "stateMutability": "view",
      "type": "function"
    },
    {
      "inputs": [
        {
          "internalType": "address",
          "name": "_user",
          "type": "address"
        }
      ],
      "name": "getStakingInfoForUser",
      "outputs": [
        {
          "components": [
            {
              "internalType": "string",
              "name": "name",
              "type": "string"
            },
            {
              "internalType": "string",
              "name": "symbol",
              "type": "string"
            },
            {
              "internalType": "address",
              "name": "stakingAddress",
              "type": "address"
            },
            {
              "internalType": "address",
              "name": "rewardAddress",
              "type": "address"
            }
          ],
          "internalType": "struct IRareStakingRegistry.Info",
          "name": "",
          "type": "tuple"
        }
      ],
      "stateMutability": "view",
      "type": "function"
    },
    {
      "inputs": [
        {
          "internalType": "address",
          "name": "_token",
          "type": "address"
        }
      ],
      "name": "getSwapPool",
      "outputs": [
        {
          "internalType": "address",
          "name": "",
          "type": "address"
        }
      ],
      "stateMutability": "view",
      "type": "function"
    },
    {
      "inputs": [
        {
          "internalType": "address",
          "name": "_user",
          "type": "address"
        }
      ],
      "name": "getTotalAmountStakedByUser",
      "outputs": [
        {
          "internalType": "uint256",
          "name": "amount",
          "type": "uint256"
        }
      ],
      "stateMutability": "view",
      "type": "function"
    },
    {
      "inputs": [
        {
          "internalType": "address",
          "name": "_user",
          "type": "address"
        }
      ],
      "name": "getTotalAmountStakedOnUser",
      "outputs": [
        {
          "internalType": "uint256",
          "name": "amount",
          "type": "uint256"
        }
      ],
      "stateMutability": "view",
      "type": "function"
    },
    {
      "inputs": [
        {
          "internalType": "address[]",
          "name": "_stakingAddrs",
          "type": "address[]"
        }
      ],
      "name": "getUsersForStakingAddresses",
      "outputs": [
        {
          "internalType": "address[]",
          "name": "",
          "type": "address[]"
        }
      ],
      "stateMutability": "view",
      "type": "function"
    },
    {
      "inputs": [],
      "name": "getWethAddress",
      "outputs": [
        {
          "internalType": "address",
          "name": "",
          "type": "address"
        }
      ],
      "stateMutability": "view",
      "type": "function"
    },
    {
      "inputs": [
        {
          "internalType": "bytes32",
          "name": "role",
          "type": "bytes32"
        },
        {
          "internalType": "address",
          "name": "account",
          "type": "address"
        }
      ],
      "name": "grantRole",
      "outputs": [],
      "stateMutability": "nonpayable",
      "type": "function"
    },
    {
      "inputs": [
        {
          "internalType": "bytes32",
          "name": "role",
          "type": "bytes32"
        },
        {
          "internalType": "address",
          "name": "account",
          "type": "address"
        }
      ],
      "name": "hasRole",
      "outputs": [
        {
          "internalType": "bool",
          "name": "",
          "type": "bool"
        }
      ],
      "stateMutability": "view",
      "type": "function"
    },
    {
      "inputs": [
        {
          "internalType": "address",
          "name": "_staker",
          "type": "address"
        },
        {
          "internalType": "address",
          "name": "_stakedOn",
          "type": "address"
        },
        {
          "internalType": "uint256",
          "name": "_amount",
          "type": "uint256"
        }
      ],
      "name": "increaseAmountStaked",
      "outputs": [],
      "stateMutability": "nonpayable",
      "type": "function"
    },
    {
      "inputs": [
        {
          "internalType": "address",
          "name": "_owner",
          "type": "address"
        },
        {
          "internalType": "address",
          "name": "_reverseRegistrar",
          "type": "address"
        },
        {
          "internalType": "address",
          "name": "_resolver",
          "type": "address"
        },
        {
          "internalType": "uint256",
          "name": "_periodLength",
          "type": "uint256"
        },
        {
          "internalType": "uint256",
          "name": "_deflationaryPercentage",
          "type": "uint256"
        },
        {
          "internalType": "uint256",
          "name": "_discountedPercent",
          "type": "uint256"
        },
        {
          "internalType": "address",
          "name": "_rare",
          "type": "address"
        },
        {
          "internalType": "address",
          "name": "_weth",
          "type": "address"
        },
        {
          "internalType": "address",
          "name": "_defaultPayee",
          "type": "address"
        }
      ],
      "name": "initialize",
      "outputs": [],
      "stateMutability": "nonpayable",
      "type": "function"
    },
    {
      "inputs": [],
      "name": "proxiableUUID",
      "outputs": [
        {
          "internalType": "bytes32",
          "name": "",
          "type": "bytes32"
        }
      ],
      "stateMutability": "view",
      "type": "function"
    },
    {
      "inputs": [
        {
          "internalType": "bytes32",
          "name": "role",
          "type": "bytes32"
        },
        {
          "internalType": "address",
          "name": "account",
          "type": "address"
        }
      ],
      "name": "renounceRole",
      "outputs": [],
      "stateMutability": "nonpayable",
      "type": "function"
    },
    {
      "inputs": [
        {
          "internalType": "bytes32",
          "name": "role",
          "type": "bytes32"
        },
        {
          "internalType": "address",
          "name": "account",
          "type": "address"
        }
      ],
      "name": "revokeRole",
      "outputs": [],
      "stateMutability": "nonpayable",
      "type": "function"
    },
    {
      "inputs": [
        {
          "internalType": "address",
          "name": "_payee",
          "type": "address"
        }
      ],
      "name": "setDefaultPayee",
      "outputs": [],
      "stateMutability": "nonpayable",
      "type": "function"
    },
    {
      "inputs": [
        {
          "internalType": "uint256",
          "name": "_percentage",
          "type": "uint256"
        }
      ],
      "name": "setDeflationaryPercentage",
      "outputs": [],
      "stateMutability": "nonpayable",
      "type": "function"
    },
    {
      "inputs": [
        {
          "internalType": "uint256",
          "name": "_percentage",
          "type": "uint256"
        }
      ],
      "name": "setDiscountPercentage",
      "outputs": [],
      "stateMutability": "nonpayable",
      "type": "function"
    },
    {
      "inputs": [
        {
          "internalType": "uint256",
          "name": "_periodLength",
          "type": "uint256"
        }
      ],
      "name": "setPeriodLength",
      "outputs": [],
      "stateMutability": "nonpayable",
      "type": "function"
    },
    {
      "inputs": [
        {
          "internalType": "address",
          "name": "_resolver",
          "type": "address"
        }
      ],
      "name": "setResolver",
      "outputs": [],
      "stateMutability": "nonpayable",
      "type": "function"
    },
    {
      "inputs": [
        {
          "internalType": "address",
          "name": "_reverseRegistrar",
          "type": "address"
        }
      ],
      "name": "setReverseRegistrar",
      "outputs": [],
      "stateMutability": "nonpayable",
      "type": "function"
    },
    {
      "inputs": [
        {
          "internalType": "address",
          "name": "_user",
          "type": "address"
        },
        {
          "internalType": "address",
          "name": "_stakingAddress",
          "type": "address"
        },
        {
          "internalType": "address",
          "name": "_rewardSwapAddress",
          "type": "address"
        }
      ],
      "name": "setStakingAddresses",
      "outputs": [],
      "stateMutability": "nonpayable",
      "type": "function"
    },
    {
      "inputs": [
        {
          "internalType": "address",
          "name": "_uniswapPool",
          "type": "address"
        },
        {
          "internalType": "address",
          "name": "_token",
          "type": "address"
        }
      ],
      "name": "setSwapPool",
      "outputs": [],
      "stateMutability": "nonpayable",
      "type": "function"
    },
    {
      "inputs": [
        {
          "internalType": "bytes4",
          "name": "interfaceId",
          "type": "bytes4"
        }
      ],
      "name": "supportsInterface",
      "outputs": [
        {
          "internalType": "bool",
          "name": "",
          "type": "bool"
        }
      ],
      "stateMutability": "view",
      "type": "function"
    },
    {
      "inputs": [
        {
          "internalType": "address",
          "name": "_from",
          "type": "address"
        },
        {
          "internalType": "address",
          "name": "_to",
          "type": "address"
        },
        {
          "internalType": "uint256",
          "name": "_amount",
          "type": "uint256"
        }
      ],
      "name": "transferRareFrom",
      "outputs": [],
      "stateMutability": "nonpayable",
      "type": "function"
    },
    {
      "inputs": [
        {
          "internalType": "address",
          "name": "newImplementation",
          "type": "address"
        }
      ],
      "name": "upgradeTo",
      "outputs": [],
      "stateMutability": "nonpayable",
      "type": "function"
    },
    {
      "inputs": [
        {
          "internalType": "address",
          "name": "newImplementation",
          "type": "address"
        },
        {
          "internalType": "bytes",
          "name": "data",
          "type": "bytes"
        }
      ],
      "name": "upgradeToAndCall",
      "outputs": [],
      "stateMutability": "payable",
      "type": "function"
    }
  ],
  "bytecode": {
    "object": "0x60a0604052306080523480156200001557600080fd5b506200002062000026565b620000e7565b600054610100900460ff1615620000935760405162461bcd60e51b815260206004820152602760248201527f496e697469616c697a61626c653a20636f6e747261637420697320696e697469604482015266616c697a696e6760c81b606482015260840160405180910390fd5b60005460ff90811614620000e5576000805460ff191660ff9081179091556040519081527f7f26b83ff96e1f2b6a682f133852f6798a09c465da95921460cefb38474024989060200160405180910390a15b565b6080516141326200011f60003960008181610c2801528181610c71015281816110bc015281816110fc015261118b01526141326000f3fe60806040526004361061027d5760003560e01c806366951bc11161014f578063afda0dda116100c1578063cac7c65c1161007a578063cac7c65c1461080c578063cb8af2b51461082c578063d547741f1461084c578063e286ef331461086c578063f24bd8a6146108a9578063f7ef8ead146108d657600080fd5b8063afda0dda1461074e578063b3428d1514610763578063b3a96ead14610783578063bb0544a114610798578063c2544987146107b8578063ca15c873146107ec57600080fd5b80638469ddc7116101135780638469ddc7146106a15780639010d07c146106b757806391d14854146106d757806399247be7146106f7578063a217fddf14610717578063a4303a451461072c57600080fd5b806366951bc1146105ed5780636e4f88c81461060f57806376a250a71461062457806381910e331461064457806381d0606b1461066457600080fd5b8063265718b4116101f35780633d867d95116101ac5780633d867d951461054557806346ccbb40146105655780634e543b26146105855780634f1ef286146105a557806352d1902d146105b8578063557499ba146105cd57600080fd5b8063265718b41461044957806329b4a5901461047d5780632f2ff15d146104b1578063363227e5146104d157806336568abe146105055780633659cfe61461052557600080fd5b806318ab58ac1161024557806318ab58ac1461036c5780631c5633d7146103995780632210d525146103bb57806323a7b42a146103da578063248a9ca3146103f95780632608ff351461042957600080fd5b806301ffc9a714610282578063039bcf8e146102b757806306c571d51461030957806310da95e614610337578063111029b914610356575b600080fd5b34801561028e57600080fd5b506102a261029d3660046136a2565b6108ec565b60405190151581526020015b60405180910390f35b3480156102c357600080fd5b506102f16102d23660046136e1565b6001600160a01b03908116600090815261012e60205260409020541690565b6040516001600160a01b0390911681526020016102ae565b34801561031557600080fd5b506103296103243660046136e1565b610917565b6040519081526020016102ae565b34801561034357600080fd5b5061013e546001600160a01b03166102f1565b34801561036257600080fd5b5061013d54610329565b34801561037857600080fd5b5061038c6103873660046136fe565b61092c565b6040516102ae9190613772565b3480156103a557600080fd5b506103b96103b43660046137bf565b610a8b565b005b3480156103c757600080fd5b5061013b546001600160a01b03166102f1565b3480156103e657600080fd5b5061013c546001600160a01b03166102f1565b34801561040557600080fd5b506103296104143660046137bf565b60009081526065602052604090206001015490565b34801561043557600080fd5b506103b96104443660046137d8565b610b21565b34801561045557600080fd5b506103297fcfac5101a9a6e666acfba4416612534dd5edcaa6e3fec2fd00fb2e84b0e5e1d781565b34801561048957600080fd5b506103297f1fb53273153c82fe1363373dd3355bec4bce8bdfe349c78a8ad09156481e622181565b3480156104bd57600080fd5b506103b96104cc366004613819565b610bb2565b3480156104dd57600080fd5b506103297f400c5a1da7685ba9f18764e1fcfab4b29512376de39bc16cc5ea8f80b7b6781981565b34801561051157600080fd5b506103b9610520366004613819565b610bdc565b34801561053157600080fd5b506103b96105403660046136e1565b610c1e565b34801561055157600080fd5b506103296105603660046136e1565b610d06565b34801561057157600080fd5b506103b9610580366004613849565b610d14565b34801561059157600080fd5b506103b96105a03660046136e1565b610ff6565b6103b96105b33660046138e4565b6110b2565b3480156105c457600080fd5b5061032961117e565b3480156105d957600080fd5b506103b96105e83660046136e1565b611231565b3480156105f957600080fd5b5061032960008051602061409683398151915281565b34801561061b57600080fd5b5061038c6112ed565b34801561063057600080fd5b506103b961063f366004613976565b6113a5565b34801561065057600080fd5b506103b961065f3660046137d8565b61155a565b34801561067057600080fd5b506102f161067f3660046136e1565b6001600160a01b03908116600090815261012d60205260409020600201541690565b3480156106ad57600080fd5b5061013954610329565b3480156106c357600080fd5b506102f16106d23660046139c1565b611626565b3480156106e357600080fd5b506102a26106f2366004613819565b61163e565b34801561070357600080fd5b506103b96107123660046136e1565b611669565b34801561072357600080fd5b50610329600081565b34801561073857600080fd5b506103296000805160206140dd83398151915281565b34801561075a57600080fd5b5061038c611713565b34801561076f57600080fd5b506103b961077e3660046137bf565b6117c4565b34801561078f57600080fd5b5061038c611851565b3480156107a457600080fd5b506103b96107b33660046139e3565b611863565b3480156107c457600080fd5b506103297f6b742d59f502efc664ffa5cec8b4f798ca10dc8c5372b7e9f352dc77e490827b81565b3480156107f857600080fd5b506103296108073660046137bf565b611b8a565b34801561081857600080fd5b506103b96108273660046137d8565b611ba1565b34801561083857600080fd5b506103b96108473660046137bf565b611c64565b34801561085857600080fd5b506103b9610867366004613819565b611cf1565b34801561087857600080fd5b506102f16108873660046136e1565b6001600160a01b03908116600090815261012d60205260409020600301541690565b3480156108b557600080fd5b506108c96108c43660046136e1565b611d16565b6040516102ae9190613ad4565b3480156108e257600080fd5b5061013a54610329565b60006001600160e01b03198216635a05180f60e01b1480610911575061091182612106565b92915050565b60006109256101318361213b565b9392505050565b60606000826001600160401b0381111561094857610948613877565b604051908082528060200260200182016040528015610971578160200160208202803683370190505b50905060005b83811015610a835784848281811061099157610991613b3e565b90506020020160208101906109a691906136e1565b6001600160a01b0316633b248c766040518163ffffffff1660e01b8152600401602060405180830381865afa9250505080156109ff575060408051601f3d908101601f191682019092526109fc91810190613b54565b60015b610a3c576000828281518110610a1757610a17613b3e565b60200260200101906001600160a01b031690816001600160a01b031681525050610a71565b80838381518110610a4f57610a4f613b3e565b60200260200101906001600160a01b031690816001600160a01b031681525050505b80610a7b81613b87565b915050610977565b509392505050565b6301e13380811115610ab0576040516333f2123960e21b815260040160405180910390fd5b610ac86000805160206140dd8339815191523361163e565b610ae4576040516282b42960e81b815260040160405180910390fd5b6101398190556040518181527f439c9ef273bcbea625a0b7b93955ba4d4963bc26fdeaafe7dd6e674779464105906020015b60405180910390a150565b610b396000805160206140968339815191523361163e565b610b55576040516282b42960e81b815260040160405180910390fd5b6000610b636101318561213b565b9150610b7f905084610b758484613ba0565b6101319190612162565b506000610b8e6101348561213b565b9150610baa905084610ba08584613ba0565b6101349190612162565b505050505050565b600082815260656020526040902060010154610bcd81612180565b610bd7838361218a565b505050565b81158015610bf25750610bee82611b8a565b6001145b15610c1057604051630f29d08f60e31b815260040160405180910390fd5b610c1a82826121ac565b5050565b6001600160a01b037f0000000000000000000000000000000000000000000000000000000000000000163003610c6f5760405162461bcd60e51b8152600401610c6690613bb3565b60405180910390fd5b7f00000000000000000000000000000000000000000000000000000000000000006001600160a01b0316610cb8600080516020614076833981519152546001600160a01b031690565b6001600160a01b031614610cde5760405162461bcd60e51b8152600401610c6690613bff565b610ce781612226565b60408051600080825260208201909252610d0391839190612274565b50565b60006109256101348361213b565b806001600160a01b0316826001600160a01b0316630dfe16816040518163ffffffff1660e01b8152600401602060405180830381865afa158015610d5c573d6000803e3d6000fd5b505050506040513d601f19601f82011682018060405250810190610d809190613b54565b6001600160a01b031614158015610e0a5750806001600160a01b0316826001600160a01b031663d21220a76040518163ffffffff1660e01b8152600401602060405180830381865afa158015610dda573d6000803e3d6000fd5b505050506040513d601f19601f82011682018060405250810190610dfe9190613b54565b6001600160a01b031614155b15610e275760405162820f3560e61b815260040160405180910390fd5b61013c5460408051630dfe168160e01b815290516001600160a01b0392831692851691630dfe16819160048083019260209291908290030181865afa158015610e74573d6000803e3d6000fd5b505050506040513d601f19601f82011682018060405250810190610e989190613b54565b6001600160a01b031614158015610f27575061013c546040805163d21220a760e01b815290516001600160a01b039283169285169163d21220a79160048083019260209291908290030181865afa158015610ef7573d6000803e3d6000fd5b505050506040513d601f19601f82011682018060405250810190610f1b9190613b54565b6001600160a01b031614155b15610f445760405162820f3560e61b815260040160405180910390fd5b610f6e7f400c5a1da7685ba9f18764e1fcfab4b29512376de39bc16cc5ea8f80b7b678193361163e565b610f8a576040516282b42960e81b815260040160405180910390fd5b6001600160a01b03818116600081815261012e602090815260409182902080546001600160a01b031916948716948517905581519384528301919091527f90b58464d7ad372751038449eef244602d2be9c82abdab06596a7677272cd427910160405180910390a15050565b6001600160a01b03811661101d57604051637827912560e01b815260040160405180910390fd5b6110477f6b742d59f502efc664ffa5cec8b4f798ca10dc8c5372b7e9f352dc77e490827b3361163e565b611063576040516282b42960e81b815260040160405180910390fd5b61013880546001600160a01b0319166001600160a01b0383169081179091556040519081527f15cd6d20bba01b3fcb790c73829dd07412cbdf689ef818c96a2505889f3736a290602001610b16565b6001600160a01b037f00000000000000000000000000000000000000000000000000000000000000001630036110fa5760405162461bcd60e51b8152600401610c6690613bb3565b7f00000000000000000000000000000000000000000000000000000000000000006001600160a01b0316611143600080516020614076833981519152546001600160a01b031690565b6001600160a01b0316146111695760405162461bcd60e51b8152600401610c6690613bff565b61117282612226565b610c1a82826001612274565b6000306001600160a01b037f0000000000000000000000000000000000000000000000000000000000000000161461121e5760405162461bcd60e51b815260206004820152603860248201527f555550535570677261646561626c653a206d757374206e6f742062652063616c60448201527f6c6564207468726f7567682064656c656761746563616c6c00000000000000006064820152608401610c66565b5060008051602061407683398151915290565b6001600160a01b03811661125857604051637827912560e01b815260040160405180910390fd5b6112827f6b742d59f502efc664ffa5cec8b4f798ca10dc8c5372b7e9f352dc77e490827b3361163e565b61129e576040516282b42960e81b815260040160405180910390fd5b61013780546001600160a01b0319166001600160a01b0383169081179091556040519081527fd192c0b229b00473ccb6ccfebf6642805bca1dcdf2d9fb4fd102c7dc7ea4ce2390602001610b16565b606060006112fc6101316123df565b90506000816001600160401b0381111561131857611318613877565b604051908082528060200260200182016040528015611341578160200160208202803683370190505b50905060005b8281101561139e57600061135d610131836123ea565b5090508083838151811061137357611373613b3e565b6001600160a01b0390921660209283029190910190910152508061139681613b87565b915050611347565b5092915050565b6113cf7fcfac5101a9a6e666acfba4416612534dd5edcaa6e3fec2fd00fb2e84b0e5e1d73361163e565b6113eb576040516282b42960e81b815260040160405180910390fd5b6001600160a01b03831661141257604051637827912560e01b815260040160405180910390fd5b6001600160a01b03821661143957604051637827912560e01b815260040160405180910390fd5b6001600160a01b03811661146057604051637827912560e01b815260040160405180910390fd5b6001600160a01b03838116600090815261012d6020526040902060020154161561149d576040516333e9f35b60e11b815260040160405180910390fd5b6040805160a0810182526000608082018181528252825160208181018552828252808401919091526001600160a01b038087168486015285811660608501528716825261012d905291909120815181906114f79082613ccb565b506020820151600182019061150c9082613ccb565b5060408201516002820180546001600160a01b03199081166001600160a01b039384161790915560609093015160039092018054909316911617905561155461012f836123f9565b50505050565b61013b54604051636eb1769f60e11b81526001600160a01b038581166004830152306024830152909116908290829063dd62ed3e90604401602060405180830381865afa1580156115af573d6000803e3d6000fd5b505050506040513d601f19601f820116820180604052508101906115d39190613d8a565b10156115f2576040516321a1cc1360e11b815260040160405180910390fd5b6115fe61012f3361240e565b61161a576040516282b42960e81b815260040160405180910390fd5b61155481858585612430565b6000828152609760205260408120610925908361248a565b60009182526065602090815260408084206001600160a01b0393909316845291905290205460ff1690565b6001600160a01b03811661169057604051637827912560e01b815260040160405180910390fd5b6116a86000805160206140dd8339815191523361163e565b6116c4576040516282b42960e81b815260040160405180910390fd5b61013e80546001600160a01b0319166001600160a01b0383169081179091556040519081527fa37a7d6d9546ebba206b7200fd6814cc4885bd05277f43db31703508086bac5b90602001610b16565b606060006117226101346123df565b90506000816001600160401b0381111561173e5761173e613877565b604051908082528060200260200182016040528015611767578160200160208202803683370190505b50905060005b8281101561139e576000611783610134836123ea565b5090508083838151811061179957611799613b3e565b6001600160a01b039092166020928302919091019091015250806117bc81613b87565b91505061176d565b6127108111156117e75760405163669a78b160e11b815260040160405180910390fd5b6117ff6000805160206140dd8339815191523361163e565b61181b576040516282b42960e81b815260040160405180910390fd5b61013d8190556040518181527f8edc85bde8568f5dc6d7febb4820920db680537ad498b90d003e63d93a3988a190602001610b16565b606061185e61012f612496565b905090565b600054610100900460ff16158080156118835750600054600160ff909116105b8061189d5750303b15801561189d575060005460ff166001145b6119005760405162461bcd60e51b815260206004820152602e60248201527f496e697469616c697a61626c653a20636f6e747261637420697320616c72656160448201526d191e481a5b9a5d1a585b1a5e995960921b6064820152608401610c66565b6000805460ff191660011790558015611923576000805461ff0019166101001790555b6301e13380871115611948576040516333f2123960e21b815260040160405180910390fd5b61271086111561196b5760405163669a78b160e11b815260040160405180910390fd5b61271085111561198e5760405163669a78b160e11b815260040160405180910390fd5b6001600160a01b038a166119b557604051637827912560e01b815260040160405180910390fd5b6001600160a01b0389166119dc57604051637827912560e01b815260040160405180910390fd5b6001600160a01b038816611a0357604051637827912560e01b815260040160405180910390fd5b6001600160a01b038416611a2a57604051637827912560e01b815260040160405180910390fd5b6001600160a01b038316611a5157604051637827912560e01b815260040160405180910390fd5b6001600160a01b038216611a7857604051637827912560e01b815260040160405180910390fd5b611a8360008b61218a565b611abb6000805160206140968339815191527f1fb53273153c82fe1363373dd3355bec4bce8bdfe349c78a8ad09156481e62216124a3565b61013780546001600160a01b03199081166001600160a01b038c811691909117909255610138805482168b841617905561013a88905561013989905561013b8054821687841617905561013c8054821686841617905561013d87905561013e8054909116918416919091179055611b306124ee565b611b386124ee565b8015611b7e576000805461ff0019169055604051600181527f7f26b83ff96e1f2b6a682f133852f6798a09c465da95921460cefb38474024989060200160405180910390a15b50505050505050505050565b60008181526097602052604081206109119061255b565b611bb96000805160206140968339815191523361163e565b611bd5576040516282b42960e81b815260040160405180910390fd5b6000611be36101318561213b565b9150611bf190508282613da3565b600003611c0a57611c0461013185612565565b50611c1a565b611c1884610b758484613da3565b505b6000611c286101348561213b565b9150611c3690508382613da3565b600003611c4f57611c4961013485612565565b50611c5d565b610baa84610ba08584613da3565b5050505050565b612710811115611c875760405163669a78b160e11b815260040160405180910390fd5b611c9f6000805160206140dd8339815191523361163e565b611cbb576040516282b42960e81b815260040160405180910390fd5b61013a8190556040518181527f392bc62c14254761a14ce86ad9820d13103f5f490089391c7ecf162afd5d68f990602001610b16565b600082815260656020526040902060010154611d0c81612180565b610bd7838361257a565b6040805160808101825260608082526020820181905260009282018390528101919091526001600160a01b038216600090815261012d6020526040808220815160808101909252805482908290611d6c90613c4b565b80601f0160208091040260200160405190810160405280929190818152602001828054611d9890613c4b565b8015611de55780601f10611dba57610100808354040283529160200191611de5565b820191906000526020600020905b815481529060010190602001808311611dc857829003601f168201915b50505050508152602001600182018054611dfe90613c4b565b80601f0160208091040260200160405190810160405280929190818152602001828054611e2a90613c4b565b8015611e775780601f10611e4c57610100808354040283529160200191611e77565b820191906000526020600020905b815481529060010190602001808311611e5a57829003601f168201915b505050918352505060028201546001600160a01b039081166020830152600390920154821660409182015261013854610137549151632ffef98760e21b81528784166004820152939450600093611f86939182169263691f343192169063bffbe61c90602401602060405180830381865afa158015611efa573d6000803e3d6000fd5b505050506040513d601f19601f82011682018060405250810190611f1e9190613d8a565b6040518263ffffffff1660e01b8152600401611f3c91815260200190565b600060405180830381865afa158015611f59573d6000803e3d6000fd5b505050506040513d6000823e601f3d908101601f19168201604052611f819190810190613db6565b61259c565b9050611f91816125c9565b1561204b57611fc2611fbb604051806040016040528060018152602001601760f91b81525061259c565b82906126a2565b50611fff81611ff960405180604001604052806011815260200170029bcb73a3432ba34b1902920a922903e1607d1b81525061259c565b906126c1565b825261203f612018611f8161201384612750565b6127b8565b611ff96040518060400160405280600681526020016578524152455f60d01b81525061259c565b60208301525092915050565b60006120568561282b565b9050600061206a611f818360066000612841565b9050600061207e611f818460046023612841565b9050600061208f611f8184846126c1565b90506120c781611ff960405180604001604052806011815260200170029bcb73a3432ba34b1902920a922903e1607d1b81525061259c565b865260408051808201909152600681526578524152455f60d01b60208201526120f5908290611ff99061259c565b602087015250939695505050505050565b60006001600160e01b03198216637965db0b60e01b148061091157506301ffc9a760e01b6001600160e01b0319831614610911565b6000808080612153866001600160a01b038716612931565b909450925050505b9250929050565b6000612178846001600160a01b03851684612973565b949350505050565b610d038133612990565b61219482826129e9565b6000828152609760205260409020610bd790826123f9565b6001600160a01b038116331461221c5760405162461bcd60e51b815260206004820152602f60248201527f416363657373436f6e74726f6c3a2063616e206f6e6c792072656e6f756e636560448201526e103937b632b9903337b91039b2b63360891b6064820152608401610c66565b610c1a828261257a565b61223160003361163e565b61224d576040516282b42960e81b815260040160405180910390fd5b6001600160a01b038116610d0357604051637827912560e01b815260040160405180910390fd5b7f4910fdfa16fed3260ed0e7147f7cc6da11a60208b5b9406d12a635614ffd91435460ff16156122a757610bd783612a6f565b826001600160a01b03166352d1902d6040518163ffffffff1660e01b8152600401602060405180830381865afa925050508015612301575060408051601f3d908101601f191682019092526122fe91810190613d8a565b60015b6123645760405162461bcd60e51b815260206004820152602e60248201527f45524331393637557067726164653a206e657720696d706c656d656e7461746960448201526d6f6e206973206e6f74205555505360901b6064820152608401610c66565b60008051602061407683398151915281146123d35760405162461bcd60e51b815260206004820152602960248201527f45524331393637557067726164653a20756e737570706f727465642070726f786044820152681a58589b195555525160ba1b6064820152608401610c66565b50610bd7838383612b0b565b600061091182612b30565b60008080806121538686612b3b565b6000610925836001600160a01b038416612b66565b6001600160a01b03811660009081526001830160205260408120541515610925565b604080516001600160a01b0385811660248301528416604482015260648082018490528251808303909101815260849091019091526020810180516001600160e01b03166323b872dd60e01b179052611554908590612bb5565b60006109258383612c8a565b6060600061092583612cb4565b600082815260656020526040808220600101805490849055905190918391839186917fbd79b86ffe0ab8e8776151514217cd7cacd52c909f66475c3af44e129f0b00ff9190a4505050565b600054610100900460ff166125595760405162461bcd60e51b815260206004820152602b60248201527f496e697469616c697a61626c653a20636f6e7472616374206973206e6f74206960448201526a6e697469616c697a696e6760a81b6064820152608401610c66565b565b6000610911825490565b6000610925836001600160a01b038416612d10565b6125848282612d2d565b6000828152609760205260409020610bd79082612d94565b60408051808201825260008082526020918201528151808301909252825182529182019181019190915290565b600080601f83602001516125dd9190613da3565b83519091506000906125ef9083613ba0565b9050600092505b8082101561269b57815160ff16608081101561261e57612617600184613ba0565b9250612688565b60e08160ff16101561263557612617600284613ba0565b60f08160ff16101561264c57612617600384613ba0565b60f88160ff16101561266357612617600484613ba0565b60fc8160ff16101561267a57612617600584613ba0565b612685600684613ba0565b92505b508261269381613b87565b9350506125f6565b5050919050565b604080518082019091526000808252602082015261139e838383612da9565b805182516060916000916126d59190613ba0565b6001600160401b038111156126ec576126ec613877565b6040519080825280601f01601f191660200182016040528015612716576020820181803683370190505b50905060006020820190506127348186602001518760000151612e3f565b8451610a83906127449083613ba0565b60208601518651612e3f565b6060600082600001516001600160401b0381111561277057612770613877565b6040519080825280601f01601f19166020018201604052801561279a576020820181803683370190505b509050600060208201905061139e8185602001518660000151612e3f565b60608160005b815181101561139e576127f08282815181106127dc576127dc613b3e565b01602001516001600160f81b031916612eb9565b82828151811061280257612802613b3e565b60200101906001600160f81b031916908160001a9053508061282381613b87565b9150506127be565b60606109116001600160a01b0383166014612f08565b825160609084906128528585613e2c565b111561286057612860613e54565b6000846001600160401b0381111561287a5761287a613877565b6040519080825280601f01601f1916602001820160405280156128a4576020820181803683370190505b509050806000855b6128b68888613e2c565b811015612924578481815181106128cf576128cf613b3e565b01602001516001600160f81b03191683836128e981613b87565b9450815181106128fb576128fb613b3e565b60200101906001600160f81b031916908160001a9053508061291c81613b87565b9150506128ac565b5090979650505050505050565b60008181526002830160205260408120548190806129605761295385856130a3565b92506000915061215b9050565b60019250905061215b565b509250929050565b6000828152600284016020526040812082905561217884846130af565b61299a828261163e565b610c1a576129a7816130bb565b6129b28360206130cd565b6040516020016129c3929190613e6a565b60408051601f198184030181529082905262461bcd60e51b8252610c6691600401613edf565b6129f3828261163e565b610c1a5760008281526065602090815260408083206001600160a01b03851684529091529020805460ff19166001179055612a2b3390565b6001600160a01b0316816001600160a01b0316837f2f8788117e7eff1d82e926ec794901d17c78024a50270940304540a733656f0d60405160405180910390a45050565b6001600160a01b0381163b612adc5760405162461bcd60e51b815260206004820152602d60248201527f455243313936373a206e657720696d706c656d656e746174696f6e206973206e60448201526c1bdd08184818dbdb9d1c9858dd609a1b6064820152608401610c66565b60008051602061407683398151915280546001600160a01b0319166001600160a01b0392909216919091179055565b612b1483613219565b600082511180612b215750805b15610bd7576115548383613259565b60006109118261255b565b60008080612b49858561248a565b600081815260029690960160205260409095205494959350505050565b6000818152600183016020526040812054612bad57508154600181810184556000848152602080822090930184905584548482528286019093526040902091909155610911565b506000610911565b6000612c0a826040518060400160405280602081526020017f5361666545524332303a206c6f772d6c6576656c2063616c6c206661696c6564815250856001600160a01b031661327e9092919063ffffffff16565b9050805160001480612c2b575080806020019051810190612c2b9190613ef2565b610bd75760405162461bcd60e51b815260206004820152602a60248201527f5361666545524332303a204552433230206f7065726174696f6e20646964206e6044820152691bdd081cdd58d8d9595960b21b6064820152608401610c66565b6000826000018281548110612ca157612ca1613b3e565b9060005260206000200154905092915050565b606081600001805480602002602001604051908101604052809291908181526020018280548015612d0457602002820191906000526020600020905b815481526020019060010190808311612cf0575b50505050509050919050565b60008181526002830160205260408120819055610925838361328d565b612d37828261163e565b15610c1a5760008281526065602090815260408083206001600160a01b0385168085529252808320805460ff1916905551339285917ff6391f5c32d9c69d2a47ea670b442974b53935d1edc7fd64eb21e047a839171b9190a45050565b6000610925836001600160a01b038416613295565b60408051808201909152600080825260208201526000612ddb8560000151866020015186600001518760200151613388565b6020808501829052860151909150612df39082613da3565b8551612dff9190613da3565b835260208501518103612e155760008552612e36565b83518351612e239190613ba0565b85518690612e32908390613da3565b9052505b50909392505050565b60208110612e775781518352612e56602084613ba0565b9250612e63602083613ba0565b9150612e70602082613da3565b9050612e3f565b6000198115612ea6576001612e8d836020613da3565b612e9990610100613ff0565b612ea39190613da3565b90505b9151835183169219169190911790915250565b6000606160f81b6001600160f81b0319831610801590612ee75750603d60f91b6001600160f81b0319831611155b15612f0457612efb602060f884901c613ffc565b60f81b92915050565b5090565b60606000612f17836002614015565b612f22906002613ba0565b6001600160401b03811115612f3957612f39613877565b6040519080825280601f01601f191660200182016040528015612f63576020820181803683370190505b509050600360fc1b81600081518110612f7e57612f7e613b3e565b60200101906001600160f81b031916908160001a905350600f60fb1b81600181518110612fad57612fad613b3e565b60200101906001600160f81b031916908160001a9053506000612fd1846002614015565b612fdc906001613ba0565b90505b6001811115613054576f181899199a1a9b1b9c1cb0b131b232b360811b85600f166010811061301057613010613b3e565b1a60f81b82828151811061302657613026613b3e565b60200101906001600160f81b031916908160001a90535060049490941c9361304d8161402c565b9050612fdf565b5083156109255760405162461bcd60e51b815260206004820181905260248201527f537472696e67733a20686578206c656e67746820696e73756666696369656e746044820152606401610c66565b60006109258383613499565b60006109258383612b66565b60606109116001600160a01b03831660145b606060006130dc836002614015565b6130e7906002613ba0565b6001600160401b038111156130fe576130fe613877565b6040519080825280601f01601f191660200182016040528015613128576020820181803683370190505b509050600360fc1b8160008151811061314357613143613b3e565b60200101906001600160f81b031916908160001a905350600f60fb1b8160018151811061317257613172613b3e565b60200101906001600160f81b031916908160001a9053506000613196846002614015565b6131a1906001613ba0565b90505b6001811115613054576f181899199a1a9b1b9c1cb0b131b232b360811b85600f16601081106131d5576131d5613b3e565b1a60f81b8282815181106131eb576131eb613b3e565b60200101906001600160f81b031916908160001a90535060049490941c936132128161402c565b90506131a4565b61322281612a6f565b6040516001600160a01b038216907fbc7cd75a20ee27fd9adebab32041f755214dbc6bffa90cc0225b39da2e5c2d3b90600090a250565b606061092583836040518060600160405280602781526020016140b6602791396134b1565b60606121788484600085613529565b600061092583835b6000818152600183016020526040812054801561337e5760006132b9600183613da3565b85549091506000906132cd90600190613da3565b90508181146133325760008660000182815481106132ed576132ed613b3e565b906000526020600020015490508087600001848154811061331057613310613b3e565b6000918252602080832090910192909255918252600188019052604090208390555b855486908061334357613343614043565b600190038181906000526020600020016000905590558560010160008681526020019081526020016000206000905560019350505050610911565b6000915050610911565b60008085841161348f576020841161343b57600084156133d35760016133af866020613da3565b6133ba906008614015565b6133c5906002613ff0565b6133cf9190613da3565b1990505b83518116856133e28989613ba0565b6133ec9190613da3565b805190935082165b8181146134265787841161340e5787945050505050612178565b836134188161402c565b9450508284511690506133f4565b6134308785613ba0565b945050505050612178565b8383206134488588613da3565b6134529087613ba0565b91505b85821061348d5784822080820361347a576134708684613ba0565b9350505050612178565b613485600184613da3565b925050613455565b505b5092949350505050565b60008181526001830160205260408120541515610925565b6060600080856001600160a01b0316856040516134ce9190614059565b600060405180830381855af49150503d8060008114613509576040519150601f19603f3d011682016040523d82523d6000602084013e61350e565b606091505b509150915061351f86838387613604565b9695505050505050565b60608247101561358a5760405162461bcd60e51b815260206004820152602660248201527f416464726573733a20696e73756666696369656e742062616c616e636520666f6044820152651c8818d85b1b60d21b6064820152608401610c66565b600080866001600160a01b031685876040516135a69190614059565b60006040518083038185875af1925050503d80600081146135e3576040519150601f19603f3d011682016040523d82523d6000602084013e6135e8565b606091505b50915091506135f987838387613604565b979650505050505050565b6060831561367357825160000361366c576001600160a01b0385163b61366c5760405162461bcd60e51b815260206004820152601d60248201527f416464726573733a2063616c6c20746f206e6f6e2d636f6e74726163740000006044820152606401610c66565b5081612178565b61217883838151156136885781518083602001fd5b8060405162461bcd60e51b8152600401610c669190613edf565b6000602082840312156136b457600080fd5b81356001600160e01b03198116811461092557600080fd5b6001600160a01b0381168114610d0357600080fd5b6000602082840312156136f357600080fd5b8135610925816136cc565b6000806020838503121561371157600080fd5b82356001600160401b038082111561372857600080fd5b818501915085601f83011261373c57600080fd5b81358181111561374b57600080fd5b8660208260051b850101111561376057600080fd5b60209290920196919550909350505050565b6020808252825182820181905260009190848201906040850190845b818110156137b35783516001600160a01b03168352928401929184019160010161378e565b50909695505050505050565b6000602082840312156137d157600080fd5b5035919050565b6000806000606084860312156137ed57600080fd5b83356137f8816136cc565b92506020840135613808816136cc565b929592945050506040919091013590565b6000806040838503121561382c57600080fd5b82359150602083013561383e816136cc565b809150509250929050565b6000806040838503121561385c57600080fd5b8235613867816136cc565b9150602083013561383e816136cc565b634e487b7160e01b600052604160045260246000fd5b604051601f8201601f191681016001600160401b03811182821017156138b5576138b5613877565b604052919050565b60006001600160401b038211156138d6576138d6613877565b50601f01601f191660200190565b600080604083850312156138f757600080fd5b8235613902816136cc565b915060208301356001600160401b0381111561391d57600080fd5b8301601f8101851361392e57600080fd5b803561394161393c826138bd565b61388d565b81815286602083850101111561395657600080fd5b816020840160208301376000602083830101528093505050509250929050565b60008060006060848603121561398b57600080fd5b8335613996816136cc565b925060208401356139a6816136cc565b915060408401356139b6816136cc565b809150509250925092565b600080604083850312156139d457600080fd5b50508035926020909101359150565b60008060008060008060008060006101208a8c031215613a0257600080fd5b8935613a0d816136cc565b985060208a0135613a1d816136cc565b975060408a0135613a2d816136cc565b965060608a0135955060808a0135945060a08a0135935060c08a0135613a52816136cc565b925060e08a0135613a62816136cc565b91506101008a0135613a73816136cc565b809150509295985092959850929598565b60005b83811015613a9f578181015183820152602001613a87565b50506000910152565b60008151808452613ac0816020860160208601613a84565b601f01601f19169290920160200192915050565b602081526000825160806020840152613af060a0840182613aa8565b90506020840151601f19848303016040850152613b0d8282613aa8565b60408601516001600160a01b0390811660608781019190915290960151909516608090940193909352509192915050565b634e487b7160e01b600052603260045260246000fd5b600060208284031215613b6657600080fd5b8151610925816136cc565b634e487b7160e01b600052601160045260246000fd5b600060018201613b9957613b99613b71565b5060010190565b8082018082111561091157610911613b71565b6020808252602c908201527f46756e6374696f6e206d7573742062652063616c6c6564207468726f7567682060408201526b19195b1959d85d1958d85b1b60a21b606082015260800190565b6020808252602c908201527f46756e6374696f6e206d7573742062652063616c6c6564207468726f7567682060408201526b6163746976652070726f787960a01b606082015260800190565b600181811c90821680613c5f57607f821691505b602082108103613c7f57634e487b7160e01b600052602260045260246000fd5b50919050565b601f821115610bd757600081815260208120601f850160051c81016020861015613cac5750805b601f850160051c820191505b81811015610baa57828155600101613cb8565b81516001600160401b03811115613ce457613ce4613877565b613cf881613cf28454613c4b565b84613c85565b602080601f831160018114613d2d5760008415613d155750858301515b600019600386901b1c1916600185901b178555610baa565b600085815260208120601f198616915b82811015613d5c57888601518255948401946001909101908401613d3d565b5085821015613d7a5787850151600019600388901b60f8161c191681555b5050505050600190811b01905550565b600060208284031215613d9c57600080fd5b5051919050565b8181038181111561091157610911613b71565b600060208284031215613dc857600080fd5b81516001600160401b03811115613dde57600080fd5b8201601f81018413613def57600080fd5b8051613dfd61393c826138bd565b818152856020838501011115613e1257600080fd5b613e23826020830160208601613a84565b95945050505050565b8082018281126000831280158216821582161715613e4c57613e4c613b71565b505092915050565b634e487b7160e01b600052600160045260246000fd5b7f416363657373436f6e74726f6c3a206163636f756e7420000000000000000000815260008351613ea2816017850160208801613a84565b7001034b99036b4b9b9b4b733903937b6329607d1b6017918401918201528351613ed3816028840160208801613a84565b01602801949350505050565b6020815260006109256020830184613aa8565b600060208284031215613f0457600080fd5b8151801515811461092557600080fd5b600181815b8085111561296b578160001904821115613f3557613f35613b71565b80851615613f4257918102915b93841c9390800290613f19565b600082613f5e57506001610911565b81613f6b57506000610911565b8160018114613f815760028114613f8b57613fa7565b6001915050610911565b60ff841115613f9c57613f9c613b71565b50506001821b610911565b5060208310610133831016604e8410600b8410161715613fca575081810a610911565b613fd48383613f14565b8060001904821115613fe857613fe8613b71565b029392505050565b60006109258383613f4f565b60ff828116828216039081111561091157610911613b71565b808202811582820484141761091157610911613b71565b60008161403b5761403b613b71565b506000190190565b634e487b7160e01b600052603160045260246000fd5b6000825161406b818460208701613a84565b919091019291505056fe360894a13ba1a3210667c828492db98dca3e2076cc3735a920a3ca505d382bbcb6e1aa954ca88134dedc447027c8ef72953bf046c847542dd28babf3f8d9092f416464726573733a206c6f772d6c6576656c2064656c65676174652063616c6c206661696c6564dc0c909fa3135f9237d8a966b8b184ead9db0c05d73609dcb237ff6a00b0717ba2646970667358221220b9c2825e64795bb0d3d94df6e553bd4fc747b1e16a5f20093c6d4ce4b160420164736f6c63430008120033",
    "linkReferences": {}
  },
  "methodIdentifiers": {
    "DEFAULT_ADMIN_ROLE()": "a217fddf",
    "ENS_SETTER_ROLE()": "c2544987",
    "STAKING_CONFIG_SETTER_ROLE()": "a4303a45",
    "STAKING_INFO_SETTER_ROLE()": "265718b4",
    "STAKING_STAT_SETTER_ADMIN_ROLE()": "29b4a590",
    "STAKING_STAT_SETTER_ROLE()": "66951bc1",
    "SWAP_POOL_SETTER_ROLE()": "363227e5",
    "decreaseAmountStaked(address,address,uint256)": "cac7c65c",
    "getAllStakedOn()": "afda0dda",
    "getAllStakers()": "6e4f88c8",
    "getAllStakingContracts()": "b3a96ead",
    "getDefaultPayee()": "10da95e6",
    "getDeflationaryPercentage()": "f7ef8ead",
    "getDiscountPercentage()": "111029b9",
    "getPeriodLength()": "8469ddc7",
    "getRareAddress()": "2210d525",
    "getRewardAccumulatorAddressForUser(address)": "e286ef33",
    "getRoleAdmin(bytes32)": "248a9ca3",
    "getRoleMember(bytes32,uint256)": "9010d07c",
    "getRoleMemberCount(bytes32)": "ca15c873",
    "getStakingAddressForUser(address)": "81d0606b",
    "getStakingInfoForUser(address)": "f24bd8a6",
    "getSwapPool(address)": "039bcf8e",
    "getTotalAmountStakedByUser(address)": "06c571d5",
    "getTotalAmountStakedOnUser(address)": "3d867d95",
    "getUsersForStakingAddresses(address[])": "18ab58ac",
    "getWethAddress()": "23a7b42a",
    "grantRole(bytes32,address)": "2f2ff15d",
    "hasRole(bytes32,address)": "91d14854",
    "increaseAmountStaked(address,address,uint256)": "2608ff35",
    "initialize(address,address,address,uint256,uint256,uint256,address,address,address)": "bb0544a1",
    "proxiableUUID()": "52d1902d",
    "renounceRole(bytes32,address)": "36568abe",
    "revokeRole(bytes32,address)": "d547741f",
    "setDefaultPayee(address)": "99247be7",
    "setDeflationaryPercentage(uint256)": "cb8af2b5",
    "setDiscountPercentage(uint256)": "b3428d15",
    "setPeriodLength(uint256)": "1c5633d7",
    "setResolver(address)": "4e543b26",
    "setReverseRegistrar(address)": "557499ba",
    "setStakingAddresses(address,address,address)": "76a250a7",
    "setSwapPool(address,address)": "46ccbb40",
    "supportsInterface(bytes4)": "01ffc9a7",
    "transferRareFrom(address,address,uint256)": "81910e33",
    "upgradeTo(address)": "3659cfe6",
    "upgradeToAndCall(address,bytes)": "4f1ef286"
  },
  "id": 141
}