{
  "abi": [
    {
      "anonymous": false,
      "inputs": [
        {
          "indexed": false,
          "internalType": "address",
          "name": "previousAdmin",
          "type": "address"
        },
        {
          "indexed": false,
          "internalType": "address",
          "name": "newAdmin",
          "type": "address"
        }
      ],
      "name": "AdminChanged",
      "type": "event"
    },
    {
      "anonymous": false,
      "inputs": [
        {
          "indexed": true,
          "internalType": "address",
          "name": "beacon",
          "type": "address"
        }
      ],
      "name": "BeaconUpgraded",
      "type": "event"
    },
    {
      "anonymous": false,
      "inputs": [
        {
          "indexed": true,
          "internalType": "address",
          "name": "contractAddress",
          "type": "address"
        },
        {
          "indexed": false,
          "internalType": "uint256",
          "name": "limit",
          "type": "uint256"
        }
      ],
      "name": "ContractMintLimitSet",
      "type": "event"
    },
    {
      "anonymous": false,
      "inputs": [
        {
          "indexed": true,
          "internalType": "address",
          "name": "contractAddress",
          "type": "address"
        },
        {
          "indexed": false,
          "internalType": "uint256",
          "name": "minimum",
          "type": "uint256"
        },
        {
          "indexed": false,
          "internalType": "uint256",
          "name": "endTimestamp",
          "type": "uint256"
        }
      ],
      "name": "ContractStakingMinimumSet",
      "type": "event"
    },
    {
      "anonymous": false,
      "inputs": [
        {
          "indexed": true,
          "internalType": "address",
          "name": "contractAddress",
          "type": "address"
        },
        {
          "indexed": false,
          "internalType": "uint256",
          "name": "limit",
          "type": "uint256"
        }
      ],
      "name": "ContractTxLimitSet",
      "type": "event"
    },
    {
      "anonymous": false,
      "inputs": [
        {
          "indexed": false,
          "internalType": "uint8",
          "name": "version",
          "type": "uint8"
        }
      ],
      "name": "Initialized",
      "type": "event"
    },
    {
      "anonymous": false,
      "inputs": [
        {
          "indexed": true,
          "internalType": "address",
          "name": "_contractAddress",
          "type": "address"
        },
        {
          "indexed": true,
          "internalType": "address",
          "name": "_seller",
          "type": "address"
        },
        {
          "indexed": true,
          "internalType": "address",
          "name": "_buyer",
          "type": "address"
        },
        {
          "indexed": false,
          "internalType": "uint256",
          "name": "_tokenIdStart",
          "type": "uint256"
        },
        {
          "indexed": false,
          "internalType": "uint256",
          "name": "_tokenIdEnd",
          "type": "uint256"
        },
        {
          "indexed": false,
          "internalType": "address",
          "name": "_currency",
          "type": "address"
        },
        {
          "indexed": false,
          "internalType": "uint256",
          "name": "_price",
          "type": "uint256"
        }
      ],
      "name": "MintDirectSale",
      "type": "event"
    },
    {
      "anonymous": false,
      "inputs": [
        {
          "indexed": true,
          "internalType": "address",
          "name": "previousOwner",
          "type": "address"
        },
        {
          "indexed": true,
          "internalType": "address",
          "name": "newOwner",
          "type": "address"
        }
      ],
      "name": "OwnershipTransferred",
      "type": "event"
    },
    {
      "anonymous": false,
      "inputs": [
        {
          "indexed": true,
          "internalType": "address",
          "name": "_contractAddress",
          "type": "address"
        },
        {
          "indexed": true,
          "internalType": "address",
          "name": "_currency",
          "type": "address"
        },
        {
          "indexed": true,
          "internalType": "address",
          "name": "_seller",
          "type": "address"
        },
        {
          "indexed": false,
          "internalType": "uint256",
          "name": "_price",
          "type": "uint256"
        },
        {
          "indexed": false,
          "internalType": "uint256",
          "name": "_startTime",
          "type": "uint256"
        },
        {
          "indexed": false,
          "internalType": "uint256",
          "name": "_maxMints",
          "type": "uint256"
        },
        {
          "indexed": false,
          "internalType": "address payable[]",
          "name": "splitRecipients",
          "type": "address[]"
        },
        {
          "indexed": false,
          "internalType": "uint8[]",
          "name": "splitRatios",
          "type": "uint8[]"
        }
      ],
      "name": "PrepareMintDirectSale",
      "type": "event"
    },
    {
      "anonymous": false,
      "inputs": [
        {
          "indexed": true,
          "internalType": "bytes32",
          "name": "_root",
          "type": "bytes32"
        },
        {
          "indexed": false,
          "internalType": "uint256",
          "name": "_endTimestamp",
          "type": "uint256"
        },
        {
          "indexed": true,
          "internalType": "address",
          "name": "_contractAddress",
          "type": "address"
        }
      ],
      "name": "SetContractAllowListConfig",
      "type": "event"
    },
    {
      "anonymous": false,
      "inputs": [
        {
          "indexed": true,
          "internalType": "address",
          "name": "implementation",
          "type": "address"
        }
      ],
      "name": "Upgraded",
      "type": "event"
    },
    {
      "inputs": [
        {
          "internalType": "address",
          "name": "_contractAddress",
          "type": "address"
        }
      ],
      "name": "getContractAllowListConfig",
      "outputs": [
        {
          "components": [
            {
              "internalType": "bytes32",
              "name": "root",
              "type": "bytes32"
            },
            {
              "internalType": "uint256",
              "name": "endTimestamp",
              "type": "uint256"
            }
          ],
          "internalType": "struct IRareMinter.AllowListConfig",
          "name": "",
          "type": "tuple"
        }
      ],
      "stateMutability": "view",
      "type": "function"
    },
    {
      "inputs": [
        {
          "internalType": "address",
          "name": "_contractAddress",
          "type": "address"
        }
      ],
      "name": "getContractMintLimit",
      "outputs": [
        {
          "internalType": "uint256",
          "name": "",
          "type": "uint256"
        }
      ],
      "stateMutability": "view",
      "type": "function"
    },
    {
      "inputs": [
        {
          "internalType": "address",
          "name": "_contractAddress",
          "type": "address"
        },
        {
          "internalType": "address",
          "name": "_address",
          "type": "address"
        }
      ],
      "name": "getContractMintsPerAddress",
      "outputs": [
        {
          "internalType": "uint256",
          "name": "",
          "type": "uint256"
        }
      ],
      "stateMutability": "view",
      "type": "function"
    },
    {
      "inputs": [
        {
          "internalType": "address",
          "name": "_contractAddress",
          "type": "address"
        }
      ],
      "name": "getContractSellerStakingMinimum",
      "outputs": [
        {
          "components": [
            {
              "internalType": "uint256",
              "name": "amount",
              "type": "uint256"
            },
            {
              "internalType": "uint256",
              "name": "endTimestamp",
              "type": "uint256"
            }
          ],
          "internalType": "struct IRareMinter.StakingMinimum",
          "name": "",
          "type": "tuple"
        }
      ],
      "stateMutability": "view",
      "type": "function"
    },
    {
      "inputs": [
        {
          "internalType": "address",
          "name": "_contractAddress",
          "type": "address"
        }
      ],
      "name": "getContractTxLimit",
      "outputs": [
        {
          "internalType": "uint256",
          "name": "",
          "type": "uint256"
        }
      ],
      "stateMutability": "view",
      "type": "function"
    },
    {
      "inputs": [
        {
          "internalType": "address",
          "name": "_contractAddress",
          "type": "address"
        },
        {
          "internalType": "address",
          "name": "_address",
          "type": "address"
        }
      ],
      "name": "getContractTxsPerAddress",
      "outputs": [
        {
          "internalType": "uint256",
          "name": "",
          "type": "uint256"
        }
      ],
      "stateMutability": "view",
      "type": "function"
    },
    {
      "inputs": [
        {
          "internalType": "address",
          "name": "_contractAddress",
          "type": "address"
        }
      ],
      "name": "getDirectSaleConfig",
      "outputs": [
        {
          "components": [
            {
              "internalType": "address",
              "name": "seller",
              "type": "address"
            },
            {
              "internalType": "address",
              "name": "currencyAddress",
              "type": "address"
            },
            {
              "internalType": "uint256",
              "name": "price",
              "type": "uint256"
            },
            {
              "internalType": "uint256",
              "name": "startTime",
              "type": "uint256"
            },
            {
              "internalType": "uint256",
              "name": "maxMints",
              "type": "uint256"
            },
            {
              "internalType": "address payable[]",
              "name": "splitRecipients",
              "type": "address[]"
            },
            {
              "internalType": "uint8[]",
              "name": "splitRatios",
              "type": "uint8[]"
            }
          ],
          "internalType": "struct IRareMinter.DirectSaleConfig",
          "name": "",
          "type": "tuple"
        }
      ],
      "stateMutability": "view",
      "type": "function"
    },
    {
      "inputs": [
        {
          "internalType": "address",
          "name": "_networkBeneficiary",
          "type": "address"
        },
        {
          "internalType": "address",
          "name": "_marketplaceSettings",
          "type": "address"
        },
        {
          "internalType": "address",
          "name": "_spaceOperatorRegistry",
          "type": "address"
        },
        {
          "internalType": "address",
          "name": "_royaltyEngine",
          "type": "address"
        },
        {
          "internalType": "address",
          "name": "_payments",
          "type": "address"
        },
        {
          "internalType": "address",
          "name": "_approvedTokenRegistry",
          "type": "address"
        },
        {
          "internalType": "address",
          "name": "_stakingSettings",
          "type": "address"
        },
        {
          "internalType": "address",
          "name": "_stakingRegistry",
          "type": "address"
        }
      ],
      "name": "initialize",
      "outputs": [],
      "stateMutability": "nonpayable",
      "type": "function"
    },
    {
      "inputs": [
        {
          "internalType": "address",
          "name": "_contractAddress",
          "type": "address"
        },
        {
          "internalType": "address",
          "name": "_currencyAddress",
          "type": "address"
        },
        {
          "internalType": "uint256",
          "name": "_price",
          "type": "uint256"
        },
        {
          "internalType": "uint8",
          "name": "_numMints",
          "type": "uint8"
        },
        {
          "internalType": "bytes32[]",
          "name": "_proof",
          "type": "bytes32[]"
        }
      ],
      "name": "mintDirectSale",
      "outputs": [],
      "stateMutability": "payable",
      "type": "function"
    },
    {
      "inputs": [],
      "name": "owner",
      "outputs": [
        {
          "internalType": "address",
          "name": "",
          "type": "address"
        }
      ],
      "stateMutability": "view",
      "type": "function"
    },
    {
      "inputs": [
        {
          "internalType": "address",
          "name": "_contractAddress",
          "type": "address"
        },
        {
          "internalType": "address",
          "name": "_currencyAddress",
          "type": "address"
        },
        {
          "internalType": "uint256",
          "name": "_price",
          "type": "uint256"
        },
        {
          "internalType": "uint256",
          "name": "_startTime",
          "type": "uint256"
        },
        {
          "internalType": "uint256",
          "name": "_maxMints",
          "type": "uint256"
        },
        {
          "internalType": "address payable[]",
          "name": "_splitRecipients",
          "type": "address[]"
        },
        {
          "internalType": "uint8[]",
          "name": "_splitRatios",
          "type": "uint8[]"
        }
      ],
      "name": "prepareMintDirectSale",
      "outputs": [],
      "stateMutability": "nonpayable",
      "type": "function"
    },
    {
      "inputs": [],
      "name": "proxiableUUID",
      "outputs": [
        {
          "internalType": "bytes32",
          "name": "",
          "type": "bytes32"
        }
      ],
      "stateMutability": "view",
      "type": "function"
    },
    {
      "inputs": [],
      "name": "renounceOwnership",
      "outputs": [],
      "stateMutability": "nonpayable",
      "type": "function"
    },
    {
      "inputs": [
        {
          "internalType": "address",
          "name": "_approvedTokenRegistry",
          "type": "address"
        }
      ],
      "name": "setApprovedTokenRegistry",
      "outputs": [],
      "stateMutability": "nonpayable",
      "type": "function"
    },
    {
      "inputs": [
        {
          "internalType": "bytes32",
          "name": "_root",
          "type": "bytes32"
        },
        {
          "internalType": "uint256",
          "name": "_endTimestamp",
          "type": "uint256"
        },
        {
          "internalType": "address",
          "name": "_contractAddress",
          "type": "address"
        }
      ],
      "name": "setContractAllowListConfig",
      "outputs": [],
      "stateMutability": "nonpayable",
      "type": "function"
    },
    {
      "inputs": [
        {
          "internalType": "address",
          "name": "_contractAddress",
          "type": "address"
        },
        {
          "internalType": "uint256",
          "name": "_limit",
          "type": "uint256"
        }
      ],
      "name": "setContractMintLimit",
      "outputs": [],
      "stateMutability": "nonpayable",
      "type": "function"
    },
    {
      "inputs": [
        {
          "internalType": "address",
          "name": "_contractAddress",
          "type": "address"
        },
        {
          "internalType": "uint256",
          "name": "_minimum",
          "type": "uint256"
        },
        {
          "internalType": "uint256",
          "name": "_endTimestamp",
          "type": "uint256"
        }
      ],
      "name": "setContractSellerStakingMinimum",
      "outputs": [],
      "stateMutability": "nonpayable",
      "type": "function"
    },
    {
      "inputs": [
        {
          "internalType": "address",
          "name": "_contractAddress",
          "type": "address"
        },
        {
          "internalType": "uint256",
          "name": "_limit",
          "type": "uint256"
        }
      ],
      "name": "setContractTxLimit",
      "outputs": [],
      "stateMutability": "nonpayable",
      "type": "function"
    },
    {
      "inputs": [
        {
          "internalType": "address",
          "name": "_marketplaceSettings",
          "type": "address"
        }
      ],
      "name": "setMarketplaceSettings",
      "outputs": [],
      "stateMutability": "nonpayable",
      "type": "function"
    },
    {
      "inputs": [
        {
          "internalType": "address",
          "name": "_networkBeneficiary",
          "type": "address"
        }
      ],
      "name": "setNetworkBeneficiary",
      "outputs": [],
      "stateMutability": "nonpayable",
      "type": "function"
    },
    {
      "inputs": [
        {
          "internalType": "address",
          "name": "_payments",
          "type": "address"
        }
      ],
      "name": "setPayments",
      "outputs": [],
      "stateMutability": "nonpayable",
      "type": "function"
    },
    {
      "inputs": [
        {
          "internalType": "address",
          "name": "_royaltyEngine",
          "type": "address"
        }
      ],
      "name": "setRoyaltyEngine",
      "outputs": [],
      "stateMutability": "nonpayable",
      "type": "function"
    },
    {
      "inputs": [
        {
          "internalType": "address",
          "name": "_spaceOperatorRegistry",
          "type": "address"
        }
      ],
      "name": "setSpaceOperatorRegistry",
      "outputs": [],
      "stateMutability": "nonpayable",
      "type": "function"
    },
    {
      "inputs": [
        {
          "internalType": "address",
          "name": "newOwner",
          "type": "address"
        }
      ],
      "name": "transferOwnership",
      "outputs": [],
      "stateMutability": "nonpayable",
      "type": "function"
    },
    {
      "inputs": [
        {
          "internalType": "address",
          "name": "newImplementation",
          "type": "address"
        }
      ],
      "name": "upgradeTo",
      "outputs": [],
      "stateMutability": "nonpayable",
      "type": "function"
    },
    {
      "inputs": [
        {
          "internalType": "address",
          "name": "newImplementation",
          "type": "address"
        },
        {
          "internalType": "bytes",
          "name": "data",
          "type": "bytes"
        }
      ],
      "name": "upgradeToAndCall",
      "outputs": [],
      "stateMutability": "payable",
      "type": "function"
    }
  ],
  "bytecode": {
    "object": "0x60a06040523060805234801561001457600080fd5b506080516145c561004c6000396000818161086a015281816108aa01528181610a7f01528181610abf0152610b5201526145c56000f3fe6080604052600436106101815760003560e01c806378c19898116100d1578063a01fa6a91161008a578063d647ed3c11610064578063d647ed3c1461052c578063e4e87e3b1461053f578063f2fde38b1461055f578063fa5312c81461057f57600080fd5b8063a01fa6a914610498578063af231a58146104c5578063ca774e68146104e557600080fd5b806378c198981461038d5780637f358230146103ad5780638a29e2de146103cd5780638da5cb5b146103ed5780639890cddf146104155780639dbef5d11461047857600080fd5b80633492e5a81161013e5780634f1ef286116101185780634f1ef2861461033057806352d1902d14610343578063677b198414610358578063715018a61461037857600080fd5b80633492e5a8146102d05780633659cfe6146102f05780634cf5f9101461031057600080fd5b806304c1ff07146101865780630fc635b314610209578063176ab4401461022b57806321ede0321461024b57806323946f1f1461026b5780632da45e8e146102b0575b600080fd5b34801561019257600080fd5b506101e96101a1366004613a72565b6040805180820190915260008082526020820152506001600160a01b031660009081526101046020908152604091829020825180840190935280548352600101549082015290565b604080518251815260209283015192810192909252015b60405180910390f35b34801561021557600080fd5b50610229610224366004613a8f565b6105b6565b005b34801561023757600080fd5b50610229610246366004613a72565b610716565b34801561025757600080fd5b50610229610266366004613a72565b610794565b34801561027757600080fd5b506102a2610286366004613a72565b6001600160a01b03166000908152610105602052604090205490565b604051908152602001610200565b3480156102bc57600080fd5b506102a26102cb366004613ac8565b6107e3565b3480156102dc57600080fd5b506102296102eb366004613a72565b610811565b3480156102fc57600080fd5b5061022961030b366004613a72565b610860565b34801561031c57600080fd5b5061022961032b366004613b01565b61093f565b61022961033e366004613b74565b610a75565b34801561034f57600080fd5b506102a2610b45565b34801561036457600080fd5b50610229610373366004613c1c565b610bf8565b34801561038457600080fd5b50610229610e08565b34801561039957600080fd5b506102296103a8366004613c9d565b610e1c565b3480156103b957600080fd5b506102296103c8366004613a72565b6110c3565b3480156103d957600080fd5b506102296103e8366004613d51565b611112565b3480156103f957600080fd5b506033546040516001600160a01b039091168152602001610200565b34801561042157600080fd5b506101e9610430366004613a72565b6040805180820190915260008082526020820152506001600160a01b031660009081526101096020908152604091829020825180840190935280548352600101549082015290565b34801561048457600080fd5b50610229610493366004613b01565b61138f565b3480156104a457600080fd5b506104b86104b3366004613a72565b6114b7565b6040516102009190613e38565b3480156104d157600080fd5b506102296104e0366004613a72565b61163c565b3480156104f157600080fd5b506102a2610500366004613ac8565b6001600160a01b0391821660009081526101066020908152604080832093909416825291909152205490565b61022961053a366004613efa565b61168b565b34801561054b57600080fd5b5061022961055a366004613a72565b61205b565b34801561056b57600080fd5b5061022961057a366004613a72565b6120aa565b34801561058b57600080fd5b506102a261059a366004613a72565b6001600160a01b03166000908152610107602052604090205490565b806001600160a01b0316638da5cb5b6040518163ffffffff1660e01b8152600401602060405180830381865afa1580156105f4573d6000803e3d6000fd5b505050506040513d601f19601f820116820180604052508101906106189190613f7f565b6001600160a01b0316336001600160a01b0316146106a35760405162461bcd60e51b815260206004820152603760248201527f736574436f6e7472616374416c6c6f774c697374436f6e6669673a3a4f6e6c7960448201527f20636f6e7472616374206f776e65722063616e2073657400000000000000000060648201526084015b60405180910390fd5b60408051808201825284815260208082018581526001600160a01b038516600081815261010484528590209351845590516001909301929092559151848152909185917fff2ce9a528a62cad638cc9f5bccd36a62ecfa9aa0b1ab82c98957cb3498b4b67910160405180910390a3505050565b61071e612120565b604051632c55921b60e01b815260fb60048201526001600160a01b038216602482015273__$7682c538d2a75d26dfca907f0e750789f4$__90632c55921b906044015b60006040518083038186803b15801561077957600080fd5b505af415801561078d573d6000803e3d6000fd5b5050505050565b61079c612120565b60405163ebda042b60e01b815260fb60048201526001600160a01b038216602482015273__$7682c538d2a75d26dfca907f0e750789f4$__9063ebda042b90604401610761565b6001600160a01b03808316600090815261010860209081526040808320938516835292905220545b92915050565b610819612120565b60405163dec30e3360e01b815260fb60048201526001600160a01b038216602482015273__$7682c538d2a75d26dfca907f0e750789f4$__9063dec30e3390604401610761565b6001600160a01b037f00000000000000000000000000000000000000000000000000000000000000001630036108a85760405162461bcd60e51b815260040161069a90613f9c565b7f00000000000000000000000000000000000000000000000000000000000000006001600160a01b03166108f1600080516020614549833981519152546001600160a01b031690565b6001600160a01b0316146109175760405162461bcd60e51b815260040161069a90613fe8565b6109208161217a565b6040805160008082526020820190925261093c91839190612182565b50565b816001600160a01b0316638da5cb5b6040518163ffffffff1660e01b8152600401602060405180830381865afa15801561097d573d6000803e3d6000fd5b505050506040513d601f19601f820116820180604052508101906109a19190613f7f565b6001600160a01b0316336001600160a01b031614610a1b5760405162461bcd60e51b815260206004820152603160248201527f736574436f6e74726163744d696e744c696d69743a3a4f6e6c7920636f6e74726044820152701858dd081bdddb995c8818d85b881cd95d607a1b606482015260840161069a565b6001600160a01b0382166000818152610105602052604090819020839055517fa9d9d6bd10e1caf4891001b6ccccdad5384a544c63cc903d40182c0a5a139cd990610a699084815260200190565b60405180910390a25050565b6001600160a01b037f0000000000000000000000000000000000000000000000000000000000000000163003610abd5760405162461bcd60e51b815260040161069a90613f9c565b7f00000000000000000000000000000000000000000000000000000000000000006001600160a01b0316610b06600080516020614549833981519152546001600160a01b031690565b6001600160a01b031614610b2c5760405162461bcd60e51b815260040161069a90613fe8565b610b358261217a565b610b4182826001612182565b5050565b6000306001600160a01b037f00000000000000000000000000000000000000000000000000000000000000001614610be55760405162461bcd60e51b815260206004820152603860248201527f555550535570677261646561626c653a206d757374206e6f742062652063616c60448201527f6c6564207468726f7567682064656c656761746563616c6c0000000000000000606482015260840161069a565b5060008051602061454983398151915290565b826001600160a01b0316638da5cb5b6040518163ffffffff1660e01b8152600401602060405180830381865afa158015610c36573d6000803e3d6000fd5b505050506040513d601f19601f82011682018060405250810190610c5a9190613f7f565b6001600160a01b0316336001600160a01b031614610ce05760405162461bcd60e51b815260206004820152603c60248201527f736574436f6e747261637453656c6c65725374616b696e674d696e696d756d3a60448201527f3a4f6e6c7920636f6e7472616374206f776e65722063616e2073657400000000606482015260840161069a565b610102546040516381d0606b60e01b81523360048201526000916001600160a01b0316906381d0606b90602401602060405180830381865afa158015610d2a573d6000803e3d6000fd5b505050506040513d601f19601f82011682018060405250810190610d4e9190613f7f565b90506001600160a01b038116610dcc5760405162461bcd60e51b815260206004820152603c60248201527f736574436f6e747261637453656c6c65725374616b696e674d696e696d756d3a60448201527f3a53656c6c657220646f6573206e6f742068617665206120706f6f6c00000000606482015260840161069a565b5060408051808201825292835260208084019283526001600160a01b039094166000908152610109909452909220905181559051600190910155565b610e10612120565b610e1a60006122f2565b565b336001600160a01b0316896001600160a01b0316638da5cb5b6040518163ffffffff1660e01b8152600401602060405180830381865afa158015610e64573d6000803e3d6000fd5b505050506040513d601f19601f82011682018060405250810190610e889190613f7f565b6001600160a01b031614610f125760405162461bcd60e51b8152602060048201526044602482018190527f707265706172654d696e7444697265637453616c653a3a4f6e6c79206d696e74908201527f20636f6e7472616374206f776e65722063616e207072657061726520746865206064820152631b5a5b9d60e21b608482015260a40161069a565b6040518060e00160405280336001600160a01b03168152602001896001600160a01b03168152602001888152602001878152602001868152602001858580806020026020016040519081016040528093929190818152602001838360200280828437600092019190915250505090825250604080516020858102828101820190935285825292830192909186918691829185019084908082843760009201829052509390945250506001600160a01b03808d1682526101036020908152604092839020855181549084166001600160a01b03199182161782558683015160018301805491909516911617909255918401516002820155606084015160038201556080840151600482015560a08401518051919350611037926005850192910190613946565b5060c082015180516110539160068401916020909101906139ab565b50905050336001600160a01b0316886001600160a01b03168a6001600160a01b03167f36de0d2c8eec9296de665d70b6b6e55d8c29bfa7a36e0178e805ef54725d9f5c8a8a8a8a8a8a8a6040516110b09796959493929190614034565b60405180910390a4505050505050505050565b6110cb612120565b604051630cf1420760e21b815260fb60048201526001600160a01b038216602482015273__$7682c538d2a75d26dfca907f0e750789f4$__906333c5081c90604401610761565b600054610100900460ff16158080156111325750600054600160ff909116105b8061114c5750303b15801561114c575060005460ff166001145b6111af5760405162461bcd60e51b815260206004820152602e60248201527f496e697469616c697a61626c653a20636f6e747261637420697320616c72656160448201526d191e481a5b9a5d1a585b1a5e995960921b606482015260840161069a565b6000805460ff1916600117905580156111d2576000805461ff0019166101001790555b6040516323e95fa960e01b81526001600160a01b03808b166004830152808a16602483015280891660448301528088166064830152808716608483015280861660a483015280851660c4830152831660e482015273__$7682c538d2a75d26dfca907f0e750789f4$__906323e95fa9906101040161010060405180830381865af4158015611264573d6000803e3d6000fd5b505050506040513d601f19601f8201168201806040525081019061128891906140ec565b805160fb80546001600160a01b03199081166001600160a01b0393841617909155602083015160fc80548316918416919091179055604083015160fd80548316918416919091179055606083015160fe80548316918416919091179055608083015160ff8054831691841691909117905560a08301516101008054831691841691909117905560c08301516101018054831691841691909117905560e0909201516101028054909316911617905561133e612344565b8015611384576000805461ff0019169055604051600181527f7f26b83ff96e1f2b6a682f133852f6798a09c465da95921460cefb38474024989060200160405180910390a15b505050505050505050565b816001600160a01b0316638da5cb5b6040518163ffffffff1660e01b8152600401602060405180830381865afa1580156113cd573d6000803e3d6000fd5b505050506040513d601f19601f820116820180604052508101906113f19190613f7f565b6001600160a01b0316336001600160a01b0316146114695760405162461bcd60e51b815260206004820152602f60248201527f736574436f6e747261637454784c696d69743a3a4f6e6c7920636f6e7472616360448201526e1d081bdddb995c8818d85b881cd95d608a1b606482015260840161069a565b6001600160a01b0382166000818152610107602052604090819020839055517f5c8158ce792c8da34f9a8974acdb882c2c9cecc225c4ccf3c4a119aa2c72607090610a699084815260200190565b6115096040518060e0016040528060006001600160a01b0316815260200160006001600160a01b0316815260200160008152602001600081526020016000815260200160608152602001606081525090565b6001600160a01b0380831660009081526101036020908152604091829020825160e0810184528154851681526001820154909416848301526002810154848401526003810154606085015260048101546080850152600581018054845181850281018501909552808552919360a08601939092908301828280156115b657602002820191906000526020600020905b81546001600160a01b03168152600190910190602001808311611598575b505050505081526020016006820180548060200260200160405190810160405280929190818152602001828054801561162c57602002820191906000526020600020906000905b825461010083900a900460ff168152602060019283018181049485019490930390920291018084116115fd5790505b5050505050815250509050919050565b611644612120565b60405163c70c56c760e01b815260fb60048201526001600160a01b038216602482015273__$7682c538d2a75d26dfca907f0e750789f4$__9063c70c56c790604401610761565b611693612373565b6001600160a01b03808716600090815261010360209081526040808320815160e0810183528154861681526001820154909516858401526002810154858301526003810154606086015260048101546080860152600581018054835181860281018601909452808452949594919360a0860193929083018282801561174157602002820191906000526020600020905b81546001600160a01b03168152600190910190602001808311611723575b50505050508152602001600682018054806020026020016040519081016040528092919081815260200182805480156117b757602002820191906000526020600020906000905b825461010083900a900460ff168152602060019283018181049485019490930390920291018084116117885790505b5050509190925250508151919250506001600160a01b03166118395760405162461bcd60e51b815260206004820152603560248201527f6d696e7444697265637453616c653a3a436f6e7472616374206e6f7420707265604482015274706172656420666f72206469726563742073616c6560581b606482015260840161069a565b61187787338585808060200260200160405190810160405280939291908181526020018383602002808284376000920191909152506123cc92505050565b6118858782600001516124c3565b60008460ff16116118ed5760405162461bcd60e51b815260206004820152602c60248201527f6d696e7444697265637453616c653a3a4d696e7473206d75737420626520677260448201526b06561746572207468616e20360a41b606482015260840161069a565b6001600160a01b03871660009081526101056020526040902054158061194e57506001600160a01b0387166000908152610105602090815260408083205461010683528184203385529092529091205461194b9060ff8716906141cc565b11155b6119b25760405162461bcd60e51b815260206004820152602f60248201527f6d696e7444697265637453616c653a3a4578636565646564206d696e74206c6960448201526e6d697420666f72206164647265737360881b606482015260840161069a565b6001600160a01b038716600090815261010760205260409020541580611a1057506001600160a01b03871660009081526101076020908152604080832054610108835281842033855290925290912054611a0d9060016141cc565b11155b611a7b5760405162461bcd60e51b815260206004820152603660248201527f6d696e7444697265637453616c653a3a4578636565646564207472616e73616360448201527574696f6e206c696d697420666f72206164647265737360501b606482015260840161069a565b60808101511580611a93575080608001518460ff1611155b611b055760405162461bcd60e51b815260206004820152603a60248201527f6d696e7444697265637453616c653a3a4d696e7473206d757374206265206c6560448201527f7373207468616e206d61784d696e7420696620656e61626c6564000000000000606482015260840161069a565b4281606001511115611b655760405162461bcd60e51b8152602060048201526024808201527f6d696e7444697265637453616c653a3a53616c6520686173206e6f74207374616044820152631c9d195960e21b606482015260840161069a565b80604001518514611bd45760405162461bcd60e51b815260206004820152603360248201527f6d696e7444697265637453616c653a3a507269636520646f6573206e6f74206d6044820152726174636820726571756972656420707269636560681b606482015260840161069a565b611bdf60fb87612685565b856001600160a01b031681602001516001600160a01b031614611c6a5760405162461bcd60e51b815260206004820152603960248201527f6d696e7444697265637453616c653a3a43757272656e637920646f6573206e6f60448201527f74206d617463682072657175697265642063757272656e637900000000000000606482015260840161069a565b6000611c798660ff87166141df565b90508160400151600014611d0d5760fc546040516361fe24a960e11b8152600481018390526000916001600160a01b03169063c3fc495290602401602060405180830381865afa158015611cd1573d6000803e3d6000fd5b505050506040513d601f19601f82011682018060405250810190611cf591906141f6565b611cff90836141cc565b9050611d0b888261274a565b505b6001600160a01b0388166000908152610105602052604090205415611d69576001600160a01b0388166000908152610106602090815260408083203384529091528120805460ff88169290611d639084906141cc565b90915550505b6001600160a01b0388166000908152610107602052604090205415611dc3576001600160a01b0388166000908152610108602090815260408083203384529091528120805460019290611dbd9084906141cc565b90915550505b60405163755edd1760e01b81523360048201526000906001600160a01b038a169063755edd17906024016020604051808303816000875af1158015611e0c573d6000803e3d6000fd5b505050506040513d601f19601f82011682018060405250810190611e3091906141f6565b60fc54604051635a3c652d60e01b81526001600160a01b038c811660048301526024820184905260016044830152929350911690635a3c652d90606401600060405180830381600087803b158015611e8757600080fd5b505af1925050508015611e98575060015b5060015b8660ff16811015611f9f5760405163755edd1760e01b81523360048201526001600160a01b038b169063755edd17906024016020604051808303816000875af1158015611eed573d6000803e3d6000fd5b505050506040513d601f19601f82011682018060405250810190611f1191906141f6565b5060fc546001600160a01b0316635a3c652d8b611f2e84866141cc565b6040516001600160e01b031960e085901b1681526001600160a01b039092166004830152602482015260016044820152606401600060405180830381600087803b158015611f7b57600080fd5b505af1925050508015611f8c575060015b5080611f978161420f565b915050611e9c565b50604083015115611fca57825160a084015160c0850151611fca9260fb928d9286928e928992612945565b825133906001600160a01b03908116908b167f3bbd73fed0f94290f16db112f6b7113697c2502dd42aa0ddf8f971472523f10084600161200d60ff8d16836141cc565b6120179190614228565b6040805192835260208301919091526001600160a01b038e1690820152606081018c905260800160405180910390a45050506120536001606555565b505050505050565b612063612120565b6040516386e5800760e01b815260fb60048201526001600160a01b038216602482015273__$7682c538d2a75d26dfca907f0e750789f4$__906386e5800790604401610761565b6120b2612120565b6001600160a01b0381166121175760405162461bcd60e51b815260206004820152602660248201527f4f776e61626c653a206e6577206f776e657220697320746865207a65726f206160448201526564647265737360d01b606482015260840161069a565b61093c816122f2565b6033546001600160a01b03163314610e1a5760405162461bcd60e51b815260206004820181905260248201527f4f776e61626c653a2063616c6c6572206973206e6f7420746865206f776e6572604482015260640161069a565b61093c612120565b7f4910fdfa16fed3260ed0e7147f7cc6da11a60208b5b9406d12a635614ffd91435460ff16156121ba576121b58361324f565b505050565b826001600160a01b03166352d1902d6040518163ffffffff1660e01b8152600401602060405180830381865afa925050508015612214575060408051601f3d908101601f19168201909252612211918101906141f6565b60015b6122775760405162461bcd60e51b815260206004820152602e60248201527f45524331393637557067726164653a206e657720696d706c656d656e7461746960448201526d6f6e206973206e6f74205555505360901b606482015260840161069a565b60008051602061454983398151915281146122e65760405162461bcd60e51b815260206004820152602960248201527f45524331393637557067726164653a20756e737570706f727465642070726f786044820152681a58589b195555525160ba1b606482015260840161069a565b506121b58383836132eb565b603380546001600160a01b038381166001600160a01b0319831681179093556040519116919082907f8be0079c531659141344cd1fd0a4f28419497f9722a3daafe3b4186f6b6457e090600090a35050565b600054610100900460ff1661236b5760405162461bcd60e51b815260040161069a9061423b565b610e1a613310565b6002606554036123c55760405162461bcd60e51b815260206004820152601f60248201527f5265656e7472616e637947756172643a207265656e7472616e742063616c6c00604482015260640161069a565b6002606555565b6001600160a01b03831660009081526101046020526040902054806123f15750505050565b6001600160a01b03841660009081526101046020526040902060010154421061241a5750505050565b6040516bffffffffffffffffffffffff19606085901b16602082015261245a90603401604051602081830303815290604052805190602001208284613340565b6124bd5760405162461bcd60e51b815260206004820152602e60248201527f5f656e666f726365416c6c6f774c69737465643a3a41646472657373206e6f7460448201526d081bdb88185b1b1bddc81b1a5cdd60921b606482015260840161069a565b50505050565b6001600160a01b0382166000908152610109602052604081205490036124e7575050565b6001600160a01b03821660009081526101096020526040902060010154421061250e575050565b610102546040516381d0606b60e01b81526001600160a01b03838116600483015260009216906381d0606b90602401602060405180830381865afa15801561255a573d6000803e3d6000fd5b505050506040513d601f19601f8201168201806040525081019061257e9190613f7f565b604051630e67667b60e21b81523360048201526001600160a01b03919091169063399d99ec90602401602060405180830381865afa1580156125c4573d6000803e3d6000fd5b505050506040513d601f19601f820116820180604052508101906125e891906141f6565b6001600160a01b038416600090815261010960205260409020549091508110156121b55760405162461bcd60e51b815260206004820152604260248201527f5f656e666f726365436f6e747261637453656c6c65725374616b696e674d696e60448201527f696d756d3a3a41646472657373206e6f74206f6e207374616b656420656e6f756064820152610ced60f31b608482015260a40161069a565b6001600160a01b038116158061270657506005820154604051632d5ad3d560e01b81526001600160a01b03838116600483015290911690632d5ad3d590602401602060405180830381865afa1580156126e2573d6000803e3d6000fd5b505050506040513d601f19601f820116820180604052508101906127069190614286565b610b415760405162461bcd60e51b81526020600482015260156024820152744e6f7420617070726f7665642063757272656e637960581b604482015260640161069a565b6001600160a01b03821661279d57803414610b415760405162461bcd60e51b81526020600482015260136024820152721b9bdd08195b9bdd59da08195d1a081cd95b9d606a1b604482015260640161069a565b34156127fc5760405162461bcd60e51b815260206004820152602860248201527f6d73672e76616c75652073686f756c642062652030207768656e206e6f7420756044820152670e6d2dcce40cae8d60c31b606482015260840161069a565b6040516370a0823160e01b815230600482015282906000906001600160a01b038316906370a0823190602401602060405180830381865afa158015612845573d6000803e3d6000fd5b505050506040513d601f19601f8201168201806040525081019061286991906141f6565b90506128806001600160a01b038316333086613390565b6040516370a0823160e01b81523060048201526000906001600160a01b038416906370a0823190602401602060405180830381865afa1580156128c7573d6000803e3d6000fd5b505050506040513d601f19601f820116820180604052508101906128eb91906141f6565b9050836128f88383614228565b1461078d5760405162461bcd60e51b815260206004820152601c60248201527f6e6f7420656e6f75676820746f6b656e73207472616e73666572656400000000604482015260640161069a565b80518251146129b25760405162461bcd60e51b815260206004820152603360248201527f4e756d626572206f662073706c69742061646472657373657320616e642072616044820152723a34b7b99036bab9ba1031329032b8bab0b61760691b606482015260840161069a565b60018801546040516361fe24a960e11b81526004810186905285916000916001600160a01b039091169063c3fc495290602401602060405180830381865afa158015612a02573d6000803e3d6000fd5b505050506040513d601f19601f82011682018060405250810190612a2691906141f6565b604080516002808252606082018352929350600092909160208301908036833750508c5482519293506001600160a01b031691839150600090612a6b57612a6b6142a8565b6001600160a01b03928316602091820292909201015260078c015460405163e286ef3360e01b8152888316600482015291169063e286ef3390602401602060405180830381865afa158015612ac4573d6000803e3d6000fd5b505050506040513d601f19601f82011682018060405250810190612ae89190613f7f565b81600181518110612afb57612afb6142a8565b60200260200101906001600160a01b031690816001600160a01b03168152505060006001600160a01b031681600181518110612b3957612b396142a8565b60200260200101516001600160a01b031614612b6f5780600181518110612b6257612b626142a8565b6020026020010151612b7b565b8a546001600160a01b03165b81600181518110612b8e57612b8e6142a8565b6001600160a01b039290921660209283029190910182015260408051600280825260608201835260009391929091830190803683370190505060068d01546040516303fdde1160e21b8152600481018b90529192506001600160a01b031690630ff7784490602401602060405180830381865afa158015612c13573d6000803e3d6000fd5b505050506040513d601f19601f82011682018060405250810190612c3791906141f6565b81600081518110612c4a57612c4a6142a8565b602090810291909101015260068c015460405163470d6ed960e11b8152600481018a90526001600160a01b0390911690638e1addb290602401602060405180830381865afa158015612ca0573d6000803e3d6000fd5b505050506040513d601f19601f82011682018060405250810190612cc491906141f6565b81600181518110612cd757612cd76142a8565b602002602001018181525050612cf08c8a8585856133fb565b60018c0154604051631446f21360e21b81526001600160a01b038d81166004830152602482018d90529091169063511bc84c90604401602060405180830381865afa158015612d43573d6000803e3d6000fd5b505050506040513d601f19601f82011682018060405250810190612d679190614286565b6130485760408051600180825281830190925260009160208083019080368337505060408051600180825281830190925292935060009291506020808301908036833701905050905083600081518110612dc357612dc36142a8565b602002602001015181600081518110612dde57612dde6142a8565b6001600160a01b03928316602091820292909201015260028f0154604051635dc22eff60e01b81528b83166004820152911690635dc22eff90602401602060405180830381865afa158015612e37573d6000803e3d6000fd5b505050506040513d601f19601f82011682018060405250810190612e5b9190614286565b15612f5a5760028e0154604051632260494f60e01b81526001600160a01b038b811660048301526000921690632260494f90602401602060405180830381865afa158015612ead573d6000803e3d6000fd5b505050506040513d601f19601f82011682018060405250810190612ed191906142be565b60ff1690506064612ee2828d6141df565b612eec91906142db565b612ef69088614228565b96506064612f04828d6141df565b612f0e91906142db565b83600081518110612f2157612f216142a8565b602002602001018181525050612f548f8d85600081518110612f4557612f456142a8565b602002602001015185876133fb565b50613041565b60018e015460405163b28a7bad60e01b81526001600160a01b038f81166004830152600092169063b28a7bad90602401602060405180830381865afa158015612fa7573d6000803e3d6000fd5b505050506040513d601f19601f82011682018060405250810190612fcb91906142be565b60ff1690506064612fdc828d6141df565b612fe691906142db565b612ff09088614228565b96506064612ffe828d6141df565b61300891906142db565b8360008151811061301b5761301b6142a8565b60200260200101818152505061303f8f8d85600081518110612f4557612f456142a8565b505b5050613138565b60038c0154604051637a99dc0160e11b81526001600160a01b038d81166004830152602482018d9052604482018b9052600092839291169063f533b802906064016000604051808303816000875af11580156130a8573d6000803e3d6000fd5b505050506040513d6000823e601f3d908101601f191682016040526130d0919081019061438c565b915091506000805b825181101561311a578281815181106130f3576130f36142a8565b60200260200101518261310691906141cc565b9150806131128161420f565b9150506130d8565b506131258188614228565b96506131348f8d8386866133fb565b5050505b6000865167ffffffffffffffff81111561315457613154613b2d565b60405190808252806020026020018201604052801561317d578160200160208202803683370190505b5090506000805b88518110156132315760648882815181106131a1576131a16142a8565b602002602001015160ff16886131b791906141df565b6131c191906142db565b8382815181106131d3576131d36142a8565b60200260200101818152505060648882815181106131f3576131f36142a8565b602002602001015160ff168861320991906141df565b61321391906142db565b61321d90836141cc565b9150806132298161420f565b915050613184565b5061323f8e8c838b866133fb565b5050505050505050505050505050565b6001600160a01b0381163b6132bc5760405162461bcd60e51b815260206004820152602d60248201527f455243313936373a206e657720696d706c656d656e746174696f6e206973206e60448201526c1bdd08184818dbdb9d1c9858dd609a1b606482015260840161069a565b60008051602061454983398151915280546001600160a01b0319166001600160a01b0392909216919091179055565b6132f483613562565b6000825111806133015750805b156121b5576124bd83836135a2565b600054610100900460ff166133375760405162461bcd60e51b815260040161069a9061423b565b610e1a336122f2565b600083815b83518110156133855761337182858381518110613364576133646142a8565b60200260200101516135ce565b91508061337d8161420f565b915050613345565b509092149392505050565b6040516001600160a01b03808516602483015283166044820152606481018290526124bd9085906323b872dd60e01b906084015b60408051601f198184030181529190526020810180516001600160e01b03166001600160e01b031990931692909217909152613634565b6001600160a01b0384166134ea57600485015460405160009182916001600160a01b0390911690869063c176e63960e01b9061343d9088908890602401614451565b60408051601f198184030181529181526020820180516001600160e01b03166001600160e01b031990941693909317909252905161347b91906144f9565b60006040518083038185875af1925050503d80600081146134b8576040519150601f19603f3d011682016040523d82523d6000602084013e6134bd565b606091505b50915091508181906134e25760405162461bcd60e51b815260040161069a9190614515565b50505061078d565b8360005b83518110156135595761354784828151811061350c5761350c6142a8565b6020026020010151848381518110613526576135266142a8565b6020026020010151846001600160a01b03166137099092919063ffffffff16565b806135518161420f565b9150506134ee565b50505050505050565b61356b8161324f565b6040516001600160a01b038216907fbc7cd75a20ee27fd9adebab32041f755214dbc6bffa90cc0225b39da2e5c2d3b90600090a250565b60606135c7838360405180606001604052806027815260200161456960279139613739565b9392505050565b600081831115613607576040805160208101849052908101849052606001604051602081830303815290604052805190602001206135c7565b50604080516020808201949094528082019290925280518083038201815260609092019052805191012090565b6000613689826040518060400160405280602081526020017f5361666545524332303a206c6f772d6c6576656c2063616c6c206661696c6564815250856001600160a01b03166137b19092919063ffffffff16565b90508051600014806136aa5750808060200190518101906136aa9190614286565b6121b55760405162461bcd60e51b815260206004820152602a60248201527f5361666545524332303a204552433230206f7065726174696f6e20646964206e6044820152691bdd081cdd58d8d9595960b21b606482015260840161069a565b6040516001600160a01b0383166024820152604481018290526121b590849063a9059cbb60e01b906064016133c4565b6060600080856001600160a01b03168560405161375691906144f9565b600060405180830381855af49150503d8060008114613791576040519150601f19603f3d011682016040523d82523d6000602084013e613796565b606091505b50915091506137a7868383876137c8565b9695505050505050565b60606137c08484600085613841565b949350505050565b60608315613837578251600003613830576001600160a01b0385163b6138305760405162461bcd60e51b815260206004820152601d60248201527f416464726573733a2063616c6c20746f206e6f6e2d636f6e7472616374000000604482015260640161069a565b50816137c0565b6137c0838361391c565b6060824710156138a25760405162461bcd60e51b815260206004820152602660248201527f416464726573733a20696e73756666696369656e742062616c616e636520666f6044820152651c8818d85b1b60d21b606482015260840161069a565b600080866001600160a01b031685876040516138be91906144f9565b60006040518083038185875af1925050503d80600081146138fb576040519150601f19603f3d011682016040523d82523d6000602084013e613900565b606091505b5091509150613911878383876137c8565b979650505050505050565b81511561392c5781518083602001fd5b8060405162461bcd60e51b815260040161069a9190614515565b82805482825590600052602060002090810192821561399b579160200282015b8281111561399b57825182546001600160a01b0319166001600160a01b03909116178255602090920191600190910190613966565b506139a7929150613a48565b5090565b82805482825590600052602060002090601f0160209004810192821561399b5791602002820160005b83821115613a1257835183826101000a81548160ff021916908360ff16021790555092602001926001016020816000010492830192600103026139d4565b8015613a3f5782816101000a81549060ff0219169055600101602081600001049283019260010302613a12565b50506139a79291505b5b808211156139a75760008155600101613a49565b6001600160a01b038116811461093c57600080fd5b600060208284031215613a8457600080fd5b81356135c781613a5d565b600080600060608486031215613aa457600080fd5b83359250602084013591506040840135613abd81613a5d565b809150509250925092565b60008060408385031215613adb57600080fd5b8235613ae681613a5d565b91506020830135613af681613a5d565b809150509250929050565b60008060408385031215613b1457600080fd5b8235613b1f81613a5d565b946020939093013593505050565b634e487b7160e01b600052604160045260246000fd5b604051601f8201601f1916810167ffffffffffffffff81118282101715613b6c57613b6c613b2d565b604052919050565b60008060408385031215613b8757600080fd5b8235613b9281613a5d565b915060208381013567ffffffffffffffff80821115613bb057600080fd5b818601915086601f830112613bc457600080fd5b813581811115613bd657613bd6613b2d565b613be8601f8201601f19168501613b43565b91508082528784828501011115613bfe57600080fd5b80848401858401376000848284010152508093505050509250929050565b600080600060608486031215613c3157600080fd5b8335613c3c81613a5d565b95602085013595506040909401359392505050565b60008083601f840112613c6357600080fd5b50813567ffffffffffffffff811115613c7b57600080fd5b6020830191508360208260051b8501011115613c9657600080fd5b9250929050565b600080600080600080600080600060e08a8c031215613cbb57600080fd5b8935613cc681613a5d565b985060208a0135613cd681613a5d565b975060408a0135965060608a0135955060808a0135945060a08a013567ffffffffffffffff80821115613d0857600080fd5b613d148d838e01613c51565b909650945060c08c0135915080821115613d2d57600080fd5b50613d3a8c828d01613c51565b915080935050809150509295985092959850929598565b600080600080600080600080610100898b031215613d6e57600080fd5b8835613d7981613a5d565b97506020890135613d8981613a5d565b96506040890135613d9981613a5d565b95506060890135613da981613a5d565b94506080890135613db981613a5d565b935060a0890135613dc981613a5d565b925060c0890135613dd981613a5d565b915060e0890135613de981613a5d565b809150509295985092959890939650565b600081518084526020808501945080840160005b83811015613e2d57815160ff1687529582019590820190600101613e0e565b509495945050505050565b60006020808352610100830160018060a01b03808651168386015280838701511660408601526040860151606086015260608601516080860152608086015160a086015260a086015160e060c0870152828151808552610120880191508583019450600092505b80831015613ec157845184168252938501936001929092019190850190613e9f565b5060c0880151878203601f190160e08901529450613edf8186613dfa565b98975050505050505050565b60ff8116811461093c57600080fd5b60008060008060008060a08789031215613f1357600080fd5b8635613f1e81613a5d565b95506020870135613f2e81613a5d565b9450604087013593506060870135613f4581613eeb565b9250608087013567ffffffffffffffff811115613f6157600080fd5b613f6d89828a01613c51565b979a9699509497509295939492505050565b600060208284031215613f9157600080fd5b81516135c781613a5d565b6020808252602c908201527f46756e6374696f6e206d7573742062652063616c6c6564207468726f7567682060408201526b19195b1959d85d1958d85b1b60a21b606082015260800190565b6020808252602c908201527f46756e6374696f6e206d7573742062652063616c6c6564207468726f7567682060408201526b6163746976652070726f787960a01b606082015260800190565b600060a082018983526020898185015288604085015260a060608501528187835260c08501905088925060005b8881101561408f57833561407481613a5d565b6001600160a01b031682529282019290820190600101614061565b508481036080860152858152810191508560005b868110156140cb5781356140b681613eeb565b60ff16845292820192908201906001016140a3565b50919b9a5050505050505050505050565b80516140e781613a5d565b919050565b600061010080838503121561410057600080fd5b6040519081019067ffffffffffffffff8211818310171561412357614123613b2d565b816040528351915061413482613a5d565b818152614143602085016140dc565b6020820152614154604085016140dc565b6040820152614165606085016140dc565b6060820152614176608085016140dc565b608082015261418760a085016140dc565b60a082015261419860c085016140dc565b60c08201526141a960e085016140dc565b60e0820152949350505050565b634e487b7160e01b600052601160045260246000fd5b8082018082111561080b5761080b6141b6565b808202811582820484141761080b5761080b6141b6565b60006020828403121561420857600080fd5b5051919050565b600060018201614221576142216141b6565b5060010190565b8181038181111561080b5761080b6141b6565b6020808252602b908201527f496e697469616c697a61626c653a20636f6e7472616374206973206e6f74206960408201526a6e697469616c697a696e6760a81b606082015260800190565b60006020828403121561429857600080fd5b815180151581146135c757600080fd5b634e487b7160e01b600052603260045260246000fd5b6000602082840312156142d057600080fd5b81516135c781613eeb565b6000826142f857634e487b7160e01b600052601260045260246000fd5b500490565b600067ffffffffffffffff82111561431757614317613b2d565b5060051b60200190565b600082601f83011261433257600080fd5b81516020614347614342836142fd565b613b43565b82815260059290921b8401810191818101908684111561436657600080fd5b8286015b84811015614381578051835291830191830161436a565b509695505050505050565b6000806040838503121561439f57600080fd5b825167ffffffffffffffff808211156143b757600080fd5b818501915085601f8301126143cb57600080fd5b815160206143db614342836142fd565b82815260059290921b840181019181810190898411156143fa57600080fd5b948201945b8386101561442157855161441281613a5d565b825294820194908201906143ff565b9188015191965090935050508082111561443a57600080fd5b5061444785828601614321565b9150509250929050565b604080825283519082018190526000906020906060840190828701845b828110156144935781516001600160a01b03168452928401929084019060010161446e565b5050508381038285015284518082528583019183019060005b818110156144c8578351835292840192918401916001016144ac565b5090979650505050505050565b60005b838110156144f05781810151838201526020016144d8565b50506000910152565b6000825161450b8184602087016144d5565b9190910192915050565b60208152600082518060208401526145348160408501602087016144d5565b601f01601f1916919091016040019291505056fe360894a13ba1a3210667c828492db98dca3e2076cc3735a920a3ca505d382bbc416464726573733a206c6f772d6c6576656c2064656c65676174652063616c6c206661696c6564a2646970667358221220fd7a06b4954b508b36275cdbbea74e3280124152566a959c504641bd8b7a3bc964736f6c63430008120033",
    "linkReferences": {
      "src/utils/structs/MarketConfig.sol": {
        "MarketConfig": [
          {
            "start": 1935,
            "length": 20
          },
          {
            "start": 2061,
            "length": 20
          },
          {
            "start": 2186,
            "length": 20
          },
          {
            "start": 4412,
            "length": 20
          },
          {
            "start": 4724,
            "length": 20
          },
          {
            "start": 5813,
            "length": 20
          },
          {
            "start": 8404,
            "length": 20
          }
        ]
      }
    }
  },
  "methodIdentifiers": {
    "getContractAllowListConfig(address)": "04c1ff07",
    "getContractMintLimit(address)": "23946f1f",
    "getContractMintsPerAddress(address,address)": "ca774e68",
    "getContractSellerStakingMinimum(address)": "9890cddf",
    "getContractTxLimit(address)": "fa5312c8",
    "getContractTxsPerAddress(address,address)": "2da45e8e",
    "getDirectSaleConfig(address)": "a01fa6a9",
    "initialize(address,address,address,address,address,address,address,address)": "8a29e2de",
    "mintDirectSale(address,address,uint256,uint8,bytes32[])": "d647ed3c",
    "owner()": "8da5cb5b",
    "prepareMintDirectSale(address,address,uint256,uint256,uint256,address[],uint8[])": "78c19898",
    "proxiableUUID()": "52d1902d",
    "renounceOwnership()": "715018a6",
    "setApprovedTokenRegistry(address)": "e4e87e3b",
    "setContractAllowListConfig(bytes32,uint256,address)": "0fc635b3",
    "setContractMintLimit(address,uint256)": "4cf5f910",
    "setContractSellerStakingMinimum(address,uint256,uint256)": "677b1984",
    "setContractTxLimit(address,uint256)": "9dbef5d1",
    "setMarketplaceSettings(address)": "176ab440",
    "setNetworkBeneficiary(address)": "3492e5a8",
    "setPayments(address)": "af231a58",
    "setRoyaltyEngine(address)": "21ede032",
    "setSpaceOperatorRegistry(address)": "7f358230",
    "transferOwnership(address)": "f2fde38b",
    "upgradeTo(address)": "3659cfe6",
    "upgradeToAndCall(address,bytes)": "4f1ef286"
  },
  "id": 70
}