{
  "abi": [
    {
      "anonymous": false,
      "inputs": [
        {
          "indexed": false,
          "internalType": "address",
          "name": "previousAdmin",
          "type": "address"
        },
        {
          "indexed": false,
          "internalType": "address",
          "name": "newAdmin",
          "type": "address"
        }
      ],
      "name": "AdminChanged",
      "type": "event"
    },
    {
      "anonymous": false,
      "inputs": [
        {
          "indexed": true,
          "internalType": "address",
          "name": "beacon",
          "type": "address"
        }
      ],
      "name": "BeaconUpgraded",
      "type": "event"
    },
    {
      "anonymous": false,
      "inputs": [
        {
          "indexed": true,
          "internalType": "address",
          "name": "contractAddress",
          "type": "address"
        },
        {
          "indexed": false,
          "internalType": "uint256",
          "name": "limit",
          "type": "uint256"
        }
      ],
      "name": "ContractMintLimitSet",
      "type": "event"
    },
    {
      "anonymous": false,
      "inputs": [
        {
          "indexed": true,
          "internalType": "address",
          "name": "contractAddress",
          "type": "address"
        },
        {
          "indexed": false,
          "internalType": "uint256",
          "name": "limit",
          "type": "uint256"
        }
      ],
      "name": "ContractTxLimitSet",
      "type": "event"
    },
    {
      "anonymous": false,
      "inputs": [
        {
          "indexed": false,
          "internalType": "uint8",
          "name": "version",
          "type": "uint8"
        }
      ],
      "name": "Initialized",
      "type": "event"
    },
    {
      "anonymous": false,
      "inputs": [
        {
          "indexed": true,
          "internalType": "address",
          "name": "_contractAddress",
          "type": "address"
        },
        {
          "indexed": true,
          "internalType": "address",
          "name": "_seller",
          "type": "address"
        },
        {
          "indexed": true,
          "internalType": "address",
          "name": "_buyer",
          "type": "address"
        },
        {
          "indexed": false,
          "internalType": "uint256",
          "name": "_tokenIdStart",
          "type": "uint256"
        },
        {
          "indexed": false,
          "internalType": "uint256",
          "name": "_tokenIdEnd",
          "type": "uint256"
        },
        {
          "indexed": false,
          "internalType": "address",
          "name": "_currency",
          "type": "address"
        },
        {
          "indexed": false,
          "internalType": "uint256",
          "name": "_price",
          "type": "uint256"
        }
      ],
      "name": "MintDirectSale",
      "type": "event"
    },
    {
      "anonymous": false,
      "inputs": [
        {
          "indexed": true,
          "internalType": "address",
          "name": "previousOwner",
          "type": "address"
        },
        {
          "indexed": true,
          "internalType": "address",
          "name": "newOwner",
          "type": "address"
        }
      ],
      "name": "OwnershipTransferred",
      "type": "event"
    },
    {
      "anonymous": false,
      "inputs": [
        {
          "indexed": true,
          "internalType": "address",
          "name": "_contractAddress",
          "type": "address"
        },
        {
          "indexed": true,
          "internalType": "address",
          "name": "_currency",
          "type": "address"
        },
        {
          "indexed": true,
          "internalType": "address",
          "name": "_seller",
          "type": "address"
        },
        {
          "indexed": false,
          "internalType": "uint256",
          "name": "_price",
          "type": "uint256"
        },
        {
          "indexed": false,
          "internalType": "uint256",
          "name": "_startTime",
          "type": "uint256"
        },
        {
          "indexed": false,
          "internalType": "uint256",
          "name": "_maxMints",
          "type": "uint256"
        },
        {
          "indexed": false,
          "internalType": "address payable[]",
          "name": "splitRecipients",
          "type": "address[]"
        },
        {
          "indexed": false,
          "internalType": "uint8[]",
          "name": "splitRatios",
          "type": "uint8[]"
        }
      ],
      "name": "PrepareMintDirectSale",
      "type": "event"
    },
    {
      "anonymous": false,
      "inputs": [
        {
          "indexed": true,
          "internalType": "bytes32",
          "name": "_root",
          "type": "bytes32"
        },
        {
          "indexed": false,
          "internalType": "uint256",
          "name": "_endTimestamp",
          "type": "uint256"
        },
        {
          "indexed": true,
          "internalType": "address",
          "name": "_contractAddress",
          "type": "address"
        }
      ],
      "name": "SetContractAllowListConfig",
      "type": "event"
    },
    {
      "anonymous": false,
      "inputs": [
        {
          "indexed": true,
          "internalType": "address",
          "name": "implementation",
          "type": "address"
        }
      ],
      "name": "Upgraded",
      "type": "event"
    },
    {
      "inputs": [
        {
          "internalType": "address",
          "name": "_contractAddress",
          "type": "address"
        }
      ],
      "name": "getContractAllowListConfig",
      "outputs": [
        {
          "components": [
            {
              "internalType": "bytes32",
              "name": "root",
              "type": "bytes32"
            },
            {
              "internalType": "uint256",
              "name": "endTimestamp",
              "type": "uint256"
            }
          ],
          "internalType": "struct IRareMinter.AllowListConfig",
          "name": "",
          "type": "tuple"
        }
      ],
      "stateMutability": "view",
      "type": "function"
    },
    {
      "inputs": [
        {
          "internalType": "address",
          "name": "_contractAddress",
          "type": "address"
        }
      ],
      "name": "getContractMintLimit",
      "outputs": [
        {
          "internalType": "uint256",
          "name": "",
          "type": "uint256"
        }
      ],
      "stateMutability": "view",
      "type": "function"
    },
    {
      "inputs": [
        {
          "internalType": "address",
          "name": "_contractAddress",
          "type": "address"
        },
        {
          "internalType": "address",
          "name": "_address",
          "type": "address"
        }
      ],
      "name": "getContractMintsPerAddress",
      "outputs": [
        {
          "internalType": "uint256",
          "name": "",
          "type": "uint256"
        }
      ],
      "stateMutability": "view",
      "type": "function"
    },
    {
      "inputs": [
        {
          "internalType": "address",
          "name": "_contractAddress",
          "type": "address"
        }
      ],
      "name": "getContractTxLimit",
      "outputs": [
        {
          "internalType": "uint256",
          "name": "",
          "type": "uint256"
        }
      ],
      "stateMutability": "view",
      "type": "function"
    },
    {
      "inputs": [
        {
          "internalType": "address",
          "name": "_contractAddress",
          "type": "address"
        },
        {
          "internalType": "address",
          "name": "_address",
          "type": "address"
        }
      ],
      "name": "getContractTxsPerAddress",
      "outputs": [
        {
          "internalType": "uint256",
          "name": "",
          "type": "uint256"
        }
      ],
      "stateMutability": "view",
      "type": "function"
    },
    {
      "inputs": [
        {
          "internalType": "address",
          "name": "_contractAddress",
          "type": "address"
        }
      ],
      "name": "getDirectSaleConfig",
      "outputs": [
        {
          "components": [
            {
              "internalType": "address",
              "name": "seller",
              "type": "address"
            },
            {
              "internalType": "address",
              "name": "currencyAddress",
              "type": "address"
            },
            {
              "internalType": "uint256",
              "name": "price",
              "type": "uint256"
            },
            {
              "internalType": "uint256",
              "name": "startTime",
              "type": "uint256"
            },
            {
              "internalType": "uint256",
              "name": "maxMints",
              "type": "uint256"
            },
            {
              "internalType": "address payable[]",
              "name": "splitRecipients",
              "type": "address[]"
            },
            {
              "internalType": "uint8[]",
              "name": "splitRatios",
              "type": "uint8[]"
            }
          ],
          "internalType": "struct IRareMinter.DirectSaleConfig",
          "name": "",
          "type": "tuple"
        }
      ],
      "stateMutability": "view",
      "type": "function"
    },
    {
      "inputs": [
        {
          "internalType": "address",
          "name": "_networkBeneficiary",
          "type": "address"
        },
        {
          "internalType": "address",
          "name": "_marketplaceSettings",
          "type": "address"
        },
        {
          "internalType": "address",
          "name": "_spaceOperatorRegistry",
          "type": "address"
        },
        {
          "internalType": "address",
          "name": "_royaltyEngine",
          "type": "address"
        },
        {
          "internalType": "address",
          "name": "_payments",
          "type": "address"
        },
        {
          "internalType": "address",
          "name": "_approvedTokenRegistry",
          "type": "address"
        },
        {
          "internalType": "address",
          "name": "_stakingSettings",
          "type": "address"
        },
        {
          "internalType": "address",
          "name": "_stakingRegistry",
          "type": "address"
        }
      ],
      "name": "initialize",
      "outputs": [],
      "stateMutability": "nonpayable",
      "type": "function"
    },
    {
      "inputs": [
        {
          "internalType": "address",
          "name": "_contractAddress",
          "type": "address"
        },
        {
          "internalType": "address",
          "name": "_currencyAddress",
          "type": "address"
        },
        {
          "internalType": "uint256",
          "name": "_price",
          "type": "uint256"
        },
        {
          "internalType": "uint8",
          "name": "_numMints",
          "type": "uint8"
        },
        {
          "internalType": "bytes32[]",
          "name": "_proof",
          "type": "bytes32[]"
        }
      ],
      "name": "mintDirectSale",
      "outputs": [],
      "stateMutability": "payable",
      "type": "function"
    },
    {
      "inputs": [],
      "name": "owner",
      "outputs": [
        {
          "internalType": "address",
          "name": "",
          "type": "address"
        }
      ],
      "stateMutability": "view",
      "type": "function"
    },
    {
      "inputs": [
        {
          "internalType": "address",
          "name": "_contractAddress",
          "type": "address"
        },
        {
          "internalType": "address",
          "name": "_currencyAddress",
          "type": "address"
        },
        {
          "internalType": "uint256",
          "name": "_price",
          "type": "uint256"
        },
        {
          "internalType": "uint256",
          "name": "_startTime",
          "type": "uint256"
        },
        {
          "internalType": "uint256",
          "name": "_maxMints",
          "type": "uint256"
        },
        {
          "internalType": "address payable[]",
          "name": "_splitRecipients",
          "type": "address[]"
        },
        {
          "internalType": "uint8[]",
          "name": "_splitRatios",
          "type": "uint8[]"
        }
      ],
      "name": "prepareMintDirectSale",
      "outputs": [],
      "stateMutability": "nonpayable",
      "type": "function"
    },
    {
      "inputs": [],
      "name": "proxiableUUID",
      "outputs": [
        {
          "internalType": "bytes32",
          "name": "",
          "type": "bytes32"
        }
      ],
      "stateMutability": "view",
      "type": "function"
    },
    {
      "inputs": [],
      "name": "renounceOwnership",
      "outputs": [],
      "stateMutability": "nonpayable",
      "type": "function"
    },
    {
      "inputs": [
        {
          "internalType": "address",
          "name": "_approvedTokenRegistry",
          "type": "address"
        }
      ],
      "name": "setApprovedTokenRegistry",
      "outputs": [],
      "stateMutability": "nonpayable",
      "type": "function"
    },
    {
      "inputs": [
        {
          "internalType": "bytes32",
          "name": "_root",
          "type": "bytes32"
        },
        {
          "internalType": "uint256",
          "name": "_endTimestamp",
          "type": "uint256"
        },
        {
          "internalType": "address",
          "name": "_contractAddress",
          "type": "address"
        }
      ],
      "name": "setContractAllowListConfig",
      "outputs": [],
      "stateMutability": "nonpayable",
      "type": "function"
    },
    {
      "inputs": [
        {
          "internalType": "address",
          "name": "_contractAddress",
          "type": "address"
        },
        {
          "internalType": "uint256",
          "name": "_limit",
          "type": "uint256"
        }
      ],
      "name": "setContractMintLimit",
      "outputs": [],
      "stateMutability": "nonpayable",
      "type": "function"
    },
    {
      "inputs": [
        {
          "internalType": "address",
          "name": "_contractAddress",
          "type": "address"
        },
        {
          "internalType": "uint256",
          "name": "_limit",
          "type": "uint256"
        }
      ],
      "name": "setContractTxLimit",
      "outputs": [],
      "stateMutability": "nonpayable",
      "type": "function"
    },
    {
      "inputs": [
        {
          "internalType": "address",
          "name": "_marketplaceSettings",
          "type": "address"
        }
      ],
      "name": "setMarketplaceSettings",
      "outputs": [],
      "stateMutability": "nonpayable",
      "type": "function"
    },
    {
      "inputs": [
        {
          "internalType": "address",
          "name": "_networkBeneficiary",
          "type": "address"
        }
      ],
      "name": "setNetworkBeneficiary",
      "outputs": [],
      "stateMutability": "nonpayable",
      "type": "function"
    },
    {
      "inputs": [
        {
          "internalType": "address",
          "name": "_payments",
          "type": "address"
        }
      ],
      "name": "setPayments",
      "outputs": [],
      "stateMutability": "nonpayable",
      "type": "function"
    },
    {
      "inputs": [
        {
          "internalType": "address",
          "name": "_royaltyEngine",
          "type": "address"
        }
      ],
      "name": "setRoyaltyEngine",
      "outputs": [],
      "stateMutability": "nonpayable",
      "type": "function"
    },
    {
      "inputs": [
        {
          "internalType": "address",
          "name": "_spaceOperatorRegistry",
          "type": "address"
        }
      ],
      "name": "setSpaceOperatorRegistry",
      "outputs": [],
      "stateMutability": "nonpayable",
      "type": "function"
    },
    {
      "inputs": [
        {
          "internalType": "address",
          "name": "newOwner",
          "type": "address"
        }
      ],
      "name": "transferOwnership",
      "outputs": [],
      "stateMutability": "nonpayable",
      "type": "function"
    },
    {
      "inputs": [
        {
          "internalType": "address",
          "name": "newImplementation",
          "type": "address"
        }
      ],
      "name": "upgradeTo",
      "outputs": [],
      "stateMutability": "nonpayable",
      "type": "function"
    },
    {
      "inputs": [
        {
          "internalType": "address",
          "name": "newImplementation",
          "type": "address"
        },
        {
          "internalType": "bytes",
          "name": "data",
          "type": "bytes"
        }
      ],
      "name": "upgradeToAndCall",
      "outputs": [],
      "stateMutability": "payable",
      "type": "function"
    }
  ],
  "bytecode": {
    "object": "0x60a06040523060805234801561001457600080fd5b506080516140f561004c600039600081816107b1015281816107f1015281816109c601528181610a060152610a9901526140f56000f3fe60806040526004361061014b5760003560e01c806378c19898116100b6578063af231a581161006f578063af231a581461040c578063ca774e681461042c578063d647ed3c14610473578063e4e87e3b14610486578063f2fde38b146104a6578063fa5312c8146104c657600080fd5b806378c19898146103375780637f358230146103575780638a29e2de146103775780638da5cb5b146103975780639dbef5d1146103bf578063a01fa6a9146103df57600080fd5b80633492e5a8116101085780633492e5a81461029a5780633659cfe6146102ba5780634cf5f910146102da5780634f1ef286146102fa57806352d1902d1461030d578063715018a61461032257600080fd5b806304c1ff07146101505780630fc635b3146101d3578063176ab440146101f557806321ede0321461021557806323946f1f146102355780632da45e8e1461027a575b600080fd5b34801561015c57600080fd5b506101b361016b3660046135d7565b6040805180820190915260008082526020820152506001600160a01b031660009081526101046020908152604091829020825180840190935280548352600101549082015290565b604080518251815260209283015192810192909252015b60405180910390f35b3480156101df57600080fd5b506101f36101ee3660046135f4565b6104fd565b005b34801561020157600080fd5b506101f36102103660046135d7565b61065d565b34801561022157600080fd5b506101f36102303660046135d7565b6106db565b34801561024157600080fd5b5061026c6102503660046135d7565b6001600160a01b03166000908152610105602052604090205490565b6040519081526020016101ca565b34801561028657600080fd5b5061026c61029536600461362d565b61072a565b3480156102a657600080fd5b506101f36102b53660046135d7565b610758565b3480156102c657600080fd5b506101f36102d53660046135d7565b6107a7565b3480156102e657600080fd5b506101f36102f5366004613666565b610886565b6101f36103083660046136d9565b6109bc565b34801561031957600080fd5b5061026c610a8c565b34801561032e57600080fd5b506101f3610b3f565b34801561034357600080fd5b506101f36103523660046137cd565b610b53565b34801561036357600080fd5b506101f36103723660046135d7565b610dfa565b34801561038357600080fd5b506101f3610392366004613881565b610e49565b3480156103a357600080fd5b506033546040516001600160a01b0390911681526020016101ca565b3480156103cb57600080fd5b506101f36103da366004613666565b6110c6565b3480156103eb57600080fd5b506103ff6103fa3660046135d7565b6111ee565b6040516101ca9190613968565b34801561041857600080fd5b506101f36104273660046135d7565b611373565b34801561043857600080fd5b5061026c61044736600461362d565b6001600160a01b0391821660009081526101066020908152604080832093909416825291909152205490565b6101f3610481366004613a2a565b6113c2565b34801561049257600080fd5b506101f36104a13660046135d7565b611d82565b3480156104b257600080fd5b506101f36104c13660046135d7565b611dd1565b3480156104d257600080fd5b5061026c6104e13660046135d7565b6001600160a01b03166000908152610107602052604090205490565b806001600160a01b0316638da5cb5b6040518163ffffffff1660e01b8152600401602060405180830381865afa15801561053b573d6000803e3d6000fd5b505050506040513d601f19601f8201168201806040525081019061055f9190613aaf565b6001600160a01b0316336001600160a01b0316146105ea5760405162461bcd60e51b815260206004820152603760248201527f736574436f6e7472616374416c6c6f774c697374436f6e6669673a3a4f6e6c7960448201527f20636f6e7472616374206f776e65722063616e2073657400000000000000000060648201526084015b60405180910390fd5b60408051808201825284815260208082018581526001600160a01b038516600081815261010484528590209351845590516001909301929092559151848152909185917fff2ce9a528a62cad638cc9f5bccd36a62ecfa9aa0b1ab82c98957cb3498b4b67910160405180910390a3505050565b610665611e47565b604051632c55921b60e01b815260fb60048201526001600160a01b038216602482015273__$7682c538d2a75d26dfca907f0e750789f4$__90632c55921b906044015b60006040518083038186803b1580156106c057600080fd5b505af41580156106d4573d6000803e3d6000fd5b5050505050565b6106e3611e47565b60405163ebda042b60e01b815260fb60048201526001600160a01b038216602482015273__$7682c538d2a75d26dfca907f0e750789f4$__9063ebda042b906044016106a8565b6001600160a01b03808316600090815261010860209081526040808320938516835292905220545b92915050565b610760611e47565b60405163dec30e3360e01b815260fb60048201526001600160a01b038216602482015273__$7682c538d2a75d26dfca907f0e750789f4$__9063dec30e33906044016106a8565b6001600160a01b037f00000000000000000000000000000000000000000000000000000000000000001630036107ef5760405162461bcd60e51b81526004016105e190613acc565b7f00000000000000000000000000000000000000000000000000000000000000006001600160a01b0316610838600080516020614079833981519152546001600160a01b031690565b6001600160a01b03161461085e5760405162461bcd60e51b81526004016105e190613b18565b61086781611ea1565b6040805160008082526020820190925261088391839190611ea9565b50565b816001600160a01b0316638da5cb5b6040518163ffffffff1660e01b8152600401602060405180830381865afa1580156108c4573d6000803e3d6000fd5b505050506040513d601f19601f820116820180604052508101906108e89190613aaf565b6001600160a01b0316336001600160a01b0316146109625760405162461bcd60e51b815260206004820152603160248201527f736574436f6e74726163744d696e744c696d69743a3a4f6e6c7920636f6e74726044820152701858dd081bdddb995c8818d85b881cd95d607a1b60648201526084016105e1565b6001600160a01b0382166000818152610105602052604090819020839055517fa9d9d6bd10e1caf4891001b6ccccdad5384a544c63cc903d40182c0a5a139cd9906109b09084815260200190565b60405180910390a25050565b6001600160a01b037f0000000000000000000000000000000000000000000000000000000000000000163003610a045760405162461bcd60e51b81526004016105e190613acc565b7f00000000000000000000000000000000000000000000000000000000000000006001600160a01b0316610a4d600080516020614079833981519152546001600160a01b031690565b6001600160a01b031614610a735760405162461bcd60e51b81526004016105e190613b18565b610a7c82611ea1565b610a8882826001611ea9565b5050565b6000306001600160a01b037f00000000000000000000000000000000000000000000000000000000000000001614610b2c5760405162461bcd60e51b815260206004820152603860248201527f555550535570677261646561626c653a206d757374206e6f742062652063616c60448201527f6c6564207468726f7567682064656c656761746563616c6c000000000000000060648201526084016105e1565b5060008051602061407983398151915290565b610b47611e47565b610b516000612019565b565b336001600160a01b0316896001600160a01b0316638da5cb5b6040518163ffffffff1660e01b8152600401602060405180830381865afa158015610b9b573d6000803e3d6000fd5b505050506040513d601f19601f82011682018060405250810190610bbf9190613aaf565b6001600160a01b031614610c495760405162461bcd60e51b8152602060048201526044602482018190527f707265706172654d696e7444697265637453616c653a3a4f6e6c79206d696e74908201527f20636f6e7472616374206f776e65722063616e207072657061726520746865206064820152631b5a5b9d60e21b608482015260a4016105e1565b6040518060e00160405280336001600160a01b03168152602001896001600160a01b03168152602001888152602001878152602001868152602001858580806020026020016040519081016040528093929190818152602001838360200280828437600092019190915250505090825250604080516020858102828101820190935285825292830192909186918691829185019084908082843760009201829052509390945250506001600160a01b03808d1682526101036020908152604092839020855181549084166001600160a01b03199182161782558683015160018301805491909516911617909255918401516002820155606084015160038201556080840151600482015560a08401518051919350610d6e9260058501929101906134ab565b5060c08201518051610d8a916006840191602090910190613510565b50905050336001600160a01b0316886001600160a01b03168a6001600160a01b03167f36de0d2c8eec9296de665d70b6b6e55d8c29bfa7a36e0178e805ef54725d9f5c8a8a8a8a8a8a8a604051610de79796959493929190613b64565b60405180910390a4505050505050505050565b610e02611e47565b604051630cf1420760e21b815260fb60048201526001600160a01b038216602482015273__$7682c538d2a75d26dfca907f0e750789f4$__906333c5081c906044016106a8565b600054610100900460ff1615808015610e695750600054600160ff909116105b80610e835750303b158015610e83575060005460ff166001145b610ee65760405162461bcd60e51b815260206004820152602e60248201527f496e697469616c697a61626c653a20636f6e747261637420697320616c72656160448201526d191e481a5b9a5d1a585b1a5e995960921b60648201526084016105e1565b6000805460ff191660011790558015610f09576000805461ff0019166101001790555b6040516323e95fa960e01b81526001600160a01b03808b166004830152808a16602483015280891660448301528088166064830152808716608483015280861660a483015280851660c4830152831660e482015273__$7682c538d2a75d26dfca907f0e750789f4$__906323e95fa9906101040161010060405180830381865af4158015610f9b573d6000803e3d6000fd5b505050506040513d601f19601f82011682018060405250810190610fbf9190613c1c565b805160fb80546001600160a01b03199081166001600160a01b0393841617909155602083015160fc80548316918416919091179055604083015160fd80548316918416919091179055606083015160fe80548316918416919091179055608083015160ff8054831691841691909117905560a08301516101008054831691841691909117905560c08301516101018054831691841691909117905560e0909201516101028054909316911617905561107561206b565b80156110bb576000805461ff0019169055604051600181527f7f26b83ff96e1f2b6a682f133852f6798a09c465da95921460cefb38474024989060200160405180910390a15b505050505050505050565b816001600160a01b0316638da5cb5b6040518163ffffffff1660e01b8152600401602060405180830381865afa158015611104573d6000803e3d6000fd5b505050506040513d601f19601f820116820180604052508101906111289190613aaf565b6001600160a01b0316336001600160a01b0316146111a05760405162461bcd60e51b815260206004820152602f60248201527f736574436f6e747261637454784c696d69743a3a4f6e6c7920636f6e7472616360448201526e1d081bdddb995c8818d85b881cd95d608a1b60648201526084016105e1565b6001600160a01b0382166000818152610107602052604090819020839055517f5c8158ce792c8da34f9a8974acdb882c2c9cecc225c4ccf3c4a119aa2c726070906109b09084815260200190565b6112406040518060e0016040528060006001600160a01b0316815260200160006001600160a01b0316815260200160008152602001600081526020016000815260200160608152602001606081525090565b6001600160a01b0380831660009081526101036020908152604091829020825160e0810184528154851681526001820154909416848301526002810154848401526003810154606085015260048101546080850152600581018054845181850281018501909552808552919360a08601939092908301828280156112ed57602002820191906000526020600020905b81546001600160a01b031681526001909101906020018083116112cf575b505050505081526020016006820180548060200260200160405190810160405280929190818152602001828054801561136357602002820191906000526020600020906000905b825461010083900a900460ff168152602060019283018181049485019490930390920291018084116113345790505b5050505050815250509050919050565b61137b611e47565b60405163c70c56c760e01b815260fb60048201526001600160a01b038216602482015273__$7682c538d2a75d26dfca907f0e750789f4$__9063c70c56c7906044016106a8565b6113ca61209a565b6001600160a01b03808716600090815261010360209081526040808320815160e0810183528154861681526001820154909516858401526002810154858301526003810154606086015260048101546080860152600581018054835181860281018601909452808452949594919360a0860193929083018282801561147857602002820191906000526020600020905b81546001600160a01b0316815260019091019060200180831161145a575b50505050508152602001600682018054806020026020016040519081016040528092919081815260200182805480156114ee57602002820191906000526020600020906000905b825461010083900a900460ff168152602060019283018181049485019490930390920291018084116114bf5790505b505050505081525050905061153787338585808060200260200160405190810160405280939291908181526020018383602002808284376000920191909152506120f392505050565b60008460ff161161159f5760405162461bcd60e51b815260206004820152602c60248201527f6d696e7444697265637453616c653a3a4d696e7473206d75737420626520677260448201526b06561746572207468616e20360a41b60648201526084016105e1565b6001600160a01b03871660009081526101056020526040902054158061160057506001600160a01b038716600090815261010560209081526040808320546101068352818420338552909252909120546115fd9060ff871690613cfc565b11155b6116645760405162461bcd60e51b815260206004820152602f60248201527f6d696e7444697265637453616c653a3a4578636565646564206d696e74206c6960448201526e6d697420666f72206164647265737360881b60648201526084016105e1565b6001600160a01b0387166000908152610107602052604090205415806116c257506001600160a01b038716600090815261010760209081526040808320546101088352818420338552909252909120546116bf906001613cfc565b11155b61172d5760405162461bcd60e51b815260206004820152603660248201527f6d696e7444697265637453616c653a3a4578636565646564207472616e73616360448201527574696f6e206c696d697420666f72206164647265737360501b60648201526084016105e1565b60808101511580611745575080608001518460ff1611155b6117b75760405162461bcd60e51b815260206004820152603a60248201527f6d696e7444697265637453616c653a3a4d696e7473206d757374206265206c6560448201527f7373207468616e206d61784d696e7420696620656e61626c656400000000000060648201526084016105e1565b42816060015111156118175760405162461bcd60e51b8152602060048201526024808201527f6d696e7444697265637453616c653a3a53616c6520686173206e6f74207374616044820152631c9d195960e21b60648201526084016105e1565b80516001600160a01b031661188c5760405162461bcd60e51b815260206004820152603560248201527f6d696e7444697265637453616c653a3a436f6e7472616374206e6f7420707265604482015274706172656420666f72206469726563742073616c6560581b60648201526084016105e1565b806040015185146118fb5760405162461bcd60e51b815260206004820152603360248201527f6d696e7444697265637453616c653a3a507269636520646f6573206e6f74206d6044820152726174636820726571756972656420707269636560681b60648201526084016105e1565b61190660fb876121ea565b856001600160a01b031681602001516001600160a01b0316146119915760405162461bcd60e51b815260206004820152603960248201527f6d696e7444697265637453616c653a3a43757272656e637920646f6573206e6f60448201527f74206d617463682072657175697265642063757272656e63790000000000000060648201526084016105e1565b60006119a08660ff8716613d0f565b90508160400151600014611a345760fc546040516361fe24a960e11b8152600481018390526000916001600160a01b03169063c3fc495290602401602060405180830381865afa1580156119f8573d6000803e3d6000fd5b505050506040513d601f19601f82011682018060405250810190611a1c9190613d26565b611a269083613cfc565b9050611a3288826122af565b505b6001600160a01b0388166000908152610105602052604090205415611a90576001600160a01b0388166000908152610106602090815260408083203384529091528120805460ff88169290611a8a908490613cfc565b90915550505b6001600160a01b0388166000908152610107602052604090205415611aea576001600160a01b0388166000908152610108602090815260408083203384529091528120805460019290611ae4908490613cfc565b90915550505b60405163755edd1760e01b81523360048201526000906001600160a01b038a169063755edd17906024016020604051808303816000875af1158015611b33573d6000803e3d6000fd5b505050506040513d601f19601f82011682018060405250810190611b579190613d26565b60fc54604051635a3c652d60e01b81526001600160a01b038c811660048301526024820184905260016044830152929350911690635a3c652d90606401600060405180830381600087803b158015611bae57600080fd5b505af1925050508015611bbf575060015b5060015b8660ff16811015611cc65760405163755edd1760e01b81523360048201526001600160a01b038b169063755edd17906024016020604051808303816000875af1158015611c14573d6000803e3d6000fd5b505050506040513d601f19601f82011682018060405250810190611c389190613d26565b5060fc546001600160a01b0316635a3c652d8b611c558486613cfc565b6040516001600160e01b031960e085901b1681526001600160a01b039092166004830152602482015260016044820152606401600060405180830381600087803b158015611ca257600080fd5b505af1925050508015611cb3575060015b5080611cbe81613d3f565b915050611bc3565b50604083015115611cf157825160a084015160c0850151611cf19260fb928d9286928e9289926124aa565b825133906001600160a01b03908116908b167f3bbd73fed0f94290f16db112f6b7113697c2502dd42aa0ddf8f971472523f100846001611d3460ff8d1683613cfc565b611d3e9190613d58565b6040805192835260208301919091526001600160a01b038e1690820152606081018c905260800160405180910390a4505050611d7a6001606555565b505050505050565b611d8a611e47565b6040516386e5800760e01b815260fb60048201526001600160a01b038216602482015273__$7682c538d2a75d26dfca907f0e750789f4$__906386e58007906044016106a8565b611dd9611e47565b6001600160a01b038116611e3e5760405162461bcd60e51b815260206004820152602660248201527f4f776e61626c653a206e6577206f776e657220697320746865207a65726f206160448201526564647265737360d01b60648201526084016105e1565b61088381612019565b6033546001600160a01b03163314610b515760405162461bcd60e51b815260206004820181905260248201527f4f776e61626c653a2063616c6c6572206973206e6f7420746865206f776e657260448201526064016105e1565b610883611e47565b7f4910fdfa16fed3260ed0e7147f7cc6da11a60208b5b9406d12a635614ffd91435460ff1615611ee157611edc83612db4565b505050565b826001600160a01b03166352d1902d6040518163ffffffff1660e01b8152600401602060405180830381865afa925050508015611f3b575060408051601f3d908101601f19168201909252611f3891810190613d26565b60015b611f9e5760405162461bcd60e51b815260206004820152602e60248201527f45524331393637557067726164653a206e657720696d706c656d656e7461746960448201526d6f6e206973206e6f74205555505360901b60648201526084016105e1565b600080516020614079833981519152811461200d5760405162461bcd60e51b815260206004820152602960248201527f45524331393637557067726164653a20756e737570706f727465642070726f786044820152681a58589b195555525160ba1b60648201526084016105e1565b50611edc838383612e50565b603380546001600160a01b038381166001600160a01b0319831681179093556040519116919082907f8be0079c531659141344cd1fd0a4f28419497f9722a3daafe3b4186f6b6457e090600090a35050565b600054610100900460ff166120925760405162461bcd60e51b81526004016105e190613d6b565b610b51612e75565b6002606554036120ec5760405162461bcd60e51b815260206004820152601f60248201527f5265656e7472616e637947756172643a207265656e7472616e742063616c6c0060448201526064016105e1565b6002606555565b6001600160a01b03831660009081526101046020526040902054806121185750505050565b6001600160a01b0384166000908152610104602052604090206001015442106121415750505050565b6040516bffffffffffffffffffffffff19606085901b16602082015261218190603401604051602081830303815290604052805190602001208284612ea5565b6121e45760405162461bcd60e51b815260206004820152602e60248201527f5f656e666f726365416c6c6f774c69737465643a3a41646472657373206e6f7460448201526d081bdb88185b1b1bddc81b1a5cdd60921b60648201526084016105e1565b50505050565b6001600160a01b038116158061226b57506005820154604051632d5ad3d560e01b81526001600160a01b03838116600483015290911690632d5ad3d590602401602060405180830381865afa158015612247573d6000803e3d6000fd5b505050506040513d601f19601f8201168201806040525081019061226b9190613db6565b610a885760405162461bcd60e51b81526020600482015260156024820152744e6f7420617070726f7665642063757272656e637960581b60448201526064016105e1565b6001600160a01b03821661230257803414610a885760405162461bcd60e51b81526020600482015260136024820152721b9bdd08195b9bdd59da08195d1a081cd95b9d606a1b60448201526064016105e1565b34156123615760405162461bcd60e51b815260206004820152602860248201527f6d73672e76616c75652073686f756c642062652030207768656e206e6f7420756044820152670e6d2dcce40cae8d60c31b60648201526084016105e1565b6040516370a0823160e01b815230600482015282906000906001600160a01b038316906370a0823190602401602060405180830381865afa1580156123aa573d6000803e3d6000fd5b505050506040513d601f19601f820116820180604052508101906123ce9190613d26565b90506123e56001600160a01b038316333086612ef5565b6040516370a0823160e01b81523060048201526000906001600160a01b038416906370a0823190602401602060405180830381865afa15801561242c573d6000803e3d6000fd5b505050506040513d601f19601f820116820180604052508101906124509190613d26565b90508361245d8383613d58565b146106d45760405162461bcd60e51b815260206004820152601c60248201527f6e6f7420656e6f75676820746f6b656e73207472616e7366657265640000000060448201526064016105e1565b80518251146125175760405162461bcd60e51b815260206004820152603360248201527f4e756d626572206f662073706c69742061646472657373657320616e642072616044820152723a34b7b99036bab9ba1031329032b8bab0b61760691b60648201526084016105e1565b60018801546040516361fe24a960e11b81526004810186905285916000916001600160a01b039091169063c3fc495290602401602060405180830381865afa158015612567573d6000803e3d6000fd5b505050506040513d601f19601f8201168201806040525081019061258b9190613d26565b604080516002808252606082018352929350600092909160208301908036833750508c5482519293506001600160a01b0316918391506000906125d0576125d0613dd8565b6001600160a01b03928316602091820292909201015260078c015460405163e286ef3360e01b8152888316600482015291169063e286ef3390602401602060405180830381865afa158015612629573d6000803e3d6000fd5b505050506040513d601f19601f8201168201806040525081019061264d9190613aaf565b8160018151811061266057612660613dd8565b60200260200101906001600160a01b031690816001600160a01b03168152505060006001600160a01b03168160018151811061269e5761269e613dd8565b60200260200101516001600160a01b0316146126d457806001815181106126c7576126c7613dd8565b60200260200101516126e0565b8a546001600160a01b03165b816001815181106126f3576126f3613dd8565b6001600160a01b039290921660209283029190910182015260408051600280825260608201835260009391929091830190803683370190505060068d01546040516303fdde1160e21b8152600481018b90529192506001600160a01b031690630ff7784490602401602060405180830381865afa158015612778573d6000803e3d6000fd5b505050506040513d601f19601f8201168201806040525081019061279c9190613d26565b816000815181106127af576127af613dd8565b602090810291909101015260068c015460405163470d6ed960e11b8152600481018a90526001600160a01b0390911690638e1addb290602401602060405180830381865afa158015612805573d6000803e3d6000fd5b505050506040513d601f19601f820116820180604052508101906128299190613d26565b8160018151811061283c5761283c613dd8565b6020026020010181815250506128558c8a858585612f60565b60018c0154604051631446f21360e21b81526001600160a01b038d81166004830152602482018d90529091169063511bc84c90604401602060405180830381865afa1580156128a8573d6000803e3d6000fd5b505050506040513d601f19601f820116820180604052508101906128cc9190613db6565b612bad576040805160018082528183019092526000916020808301908036833750506040805160018082528183019092529293506000929150602080830190803683370190505090508360008151811061292857612928613dd8565b60200260200101518160008151811061294357612943613dd8565b6001600160a01b03928316602091820292909201015260028f0154604051635dc22eff60e01b81528b83166004820152911690635dc22eff90602401602060405180830381865afa15801561299c573d6000803e3d6000fd5b505050506040513d601f19601f820116820180604052508101906129c09190613db6565b15612abf5760028e0154604051632260494f60e01b81526001600160a01b038b811660048301526000921690632260494f90602401602060405180830381865afa158015612a12573d6000803e3d6000fd5b505050506040513d601f19601f82011682018060405250810190612a369190613dee565b60ff1690506064612a47828d613d0f565b612a519190613e0b565b612a5b9088613d58565b96506064612a69828d613d0f565b612a739190613e0b565b83600081518110612a8657612a86613dd8565b602002602001018181525050612ab98f8d85600081518110612aaa57612aaa613dd8565b60200260200101518587612f60565b50612ba6565b60018e015460405163b28a7bad60e01b81526001600160a01b038f81166004830152600092169063b28a7bad90602401602060405180830381865afa158015612b0c573d6000803e3d6000fd5b505050506040513d601f19601f82011682018060405250810190612b309190613dee565b60ff1690506064612b41828d613d0f565b612b4b9190613e0b565b612b559088613d58565b96506064612b63828d613d0f565b612b6d9190613e0b565b83600081518110612b8057612b80613dd8565b602002602001018181525050612ba48f8d85600081518110612aaa57612aaa613dd8565b505b5050612c9d565b60038c0154604051637a99dc0160e11b81526001600160a01b038d81166004830152602482018d9052604482018b9052600092839291169063f533b802906064016000604051808303816000875af1158015612c0d573d6000803e3d6000fd5b505050506040513d6000823e601f3d908101601f19168201604052612c359190810190613ebc565b915091506000805b8251811015612c7f57828181518110612c5857612c58613dd8565b602002602001015182612c6b9190613cfc565b915080612c7781613d3f565b915050612c3d565b50612c8a8188613d58565b9650612c998f8d838686612f60565b5050505b6000865167ffffffffffffffff811115612cb957612cb9613692565b604051908082528060200260200182016040528015612ce2578160200160208202803683370190505b5090506000805b8851811015612d96576064888281518110612d0657612d06613dd8565b602002602001015160ff1688612d1c9190613d0f565b612d269190613e0b565b838281518110612d3857612d38613dd8565b6020026020010181815250506064888281518110612d5857612d58613dd8565b602002602001015160ff1688612d6e9190613d0f565b612d789190613e0b565b612d829083613cfc565b915080612d8e81613d3f565b915050612ce9565b50612da48e8c838b86612f60565b5050505050505050505050505050565b6001600160a01b0381163b612e215760405162461bcd60e51b815260206004820152602d60248201527f455243313936373a206e657720696d706c656d656e746174696f6e206973206e60448201526c1bdd08184818dbdb9d1c9858dd609a1b60648201526084016105e1565b60008051602061407983398151915280546001600160a01b0319166001600160a01b0392909216919091179055565b612e59836130c7565b600082511180612e665750805b15611edc576121e48383613107565b600054610100900460ff16612e9c5760405162461bcd60e51b81526004016105e190613d6b565b610b5133612019565b600083815b8351811015612eea57612ed682858381518110612ec957612ec9613dd8565b6020026020010151613133565b915080612ee281613d3f565b915050612eaa565b509092149392505050565b6040516001600160a01b03808516602483015283166044820152606481018290526121e49085906323b872dd60e01b906084015b60408051601f198184030181529190526020810180516001600160e01b03166001600160e01b031990931692909217909152613199565b6001600160a01b03841661304f57600485015460405160009182916001600160a01b0390911690869063c176e63960e01b90612fa29088908890602401613f81565b60408051601f198184030181529181526020820180516001600160e01b03166001600160e01b0319909416939093179092529051612fe09190614029565b60006040518083038185875af1925050503d806000811461301d576040519150601f19603f3d011682016040523d82523d6000602084013e613022565b606091505b50915091508181906130475760405162461bcd60e51b81526004016105e19190614045565b5050506106d4565b8360005b83518110156130be576130ac84828151811061307157613071613dd8565b602002602001015184838151811061308b5761308b613dd8565b6020026020010151846001600160a01b031661326e9092919063ffffffff16565b806130b681613d3f565b915050613053565b50505050505050565b6130d081612db4565b6040516001600160a01b038216907fbc7cd75a20ee27fd9adebab32041f755214dbc6bffa90cc0225b39da2e5c2d3b90600090a250565b606061312c83836040518060600160405280602781526020016140996027913961329e565b9392505050565b60008183111561316c5760408051602081018490529081018490526060016040516020818303038152906040528051906020012061312c565b50604080516020808201949094528082019290925280518083038201815260609092019052805191012090565b60006131ee826040518060400160405280602081526020017f5361666545524332303a206c6f772d6c6576656c2063616c6c206661696c6564815250856001600160a01b03166133169092919063ffffffff16565b905080516000148061320f57508080602001905181019061320f9190613db6565b611edc5760405162461bcd60e51b815260206004820152602a60248201527f5361666545524332303a204552433230206f7065726174696f6e20646964206e6044820152691bdd081cdd58d8d9595960b21b60648201526084016105e1565b6040516001600160a01b038316602482015260448101829052611edc90849063a9059cbb60e01b90606401612f29565b6060600080856001600160a01b0316856040516132bb9190614029565b600060405180830381855af49150503d80600081146132f6576040519150601f19603f3d011682016040523d82523d6000602084013e6132fb565b606091505b509150915061330c8683838761332d565b9695505050505050565b606061332584846000856133a6565b949350505050565b6060831561339c578251600003613395576001600160a01b0385163b6133955760405162461bcd60e51b815260206004820152601d60248201527f416464726573733a2063616c6c20746f206e6f6e2d636f6e747261637400000060448201526064016105e1565b5081613325565b6133258383613481565b6060824710156134075760405162461bcd60e51b815260206004820152602660248201527f416464726573733a20696e73756666696369656e742062616c616e636520666f6044820152651c8818d85b1b60d21b60648201526084016105e1565b600080866001600160a01b031685876040516134239190614029565b60006040518083038185875af1925050503d8060008114613460576040519150601f19603f3d011682016040523d82523d6000602084013e613465565b606091505b50915091506134768783838761332d565b979650505050505050565b8151156134915781518083602001fd5b8060405162461bcd60e51b81526004016105e19190614045565b828054828255906000526020600020908101928215613500579160200282015b8281111561350057825182546001600160a01b0319166001600160a01b039091161782556020909201916001909101906134cb565b5061350c9291506135ad565b5090565b82805482825590600052602060002090601f016020900481019282156135005791602002820160005b8382111561357757835183826101000a81548160ff021916908360ff1602179055509260200192600101602081600001049283019260010302613539565b80156135a45782816101000a81549060ff0219169055600101602081600001049283019260010302613577565b505061350c9291505b5b8082111561350c57600081556001016135ae565b6001600160a01b038116811461088357600080fd5b6000602082840312156135e957600080fd5b813561312c816135c2565b60008060006060848603121561360957600080fd5b83359250602084013591506040840135613622816135c2565b809150509250925092565b6000806040838503121561364057600080fd5b823561364b816135c2565b9150602083013561365b816135c2565b809150509250929050565b6000806040838503121561367957600080fd5b8235613684816135c2565b946020939093013593505050565b634e487b7160e01b600052604160045260246000fd5b604051601f8201601f1916810167ffffffffffffffff811182821017156136d1576136d1613692565b604052919050565b600080604083850312156136ec57600080fd5b82356136f7816135c2565b915060208381013567ffffffffffffffff8082111561371557600080fd5b818601915086601f83011261372957600080fd5b81358181111561373b5761373b613692565b61374d601f8201601f191685016136a8565b9150808252878482850101111561376357600080fd5b80848401858401376000848284010152508093505050509250929050565b60008083601f84011261379357600080fd5b50813567ffffffffffffffff8111156137ab57600080fd5b6020830191508360208260051b85010111156137c657600080fd5b9250929050565b600080600080600080600080600060e08a8c0312156137eb57600080fd5b89356137f6816135c2565b985060208a0135613806816135c2565b975060408a0135965060608a0135955060808a0135945060a08a013567ffffffffffffffff8082111561383857600080fd5b6138448d838e01613781565b909650945060c08c013591508082111561385d57600080fd5b5061386a8c828d01613781565b915080935050809150509295985092959850929598565b600080600080600080600080610100898b03121561389e57600080fd5b88356138a9816135c2565b975060208901356138b9816135c2565b965060408901356138c9816135c2565b955060608901356138d9816135c2565b945060808901356138e9816135c2565b935060a08901356138f9816135c2565b925060c0890135613909816135c2565b915060e0890135613919816135c2565b809150509295985092959890939650565b600081518084526020808501945080840160005b8381101561395d57815160ff168752958201959082019060010161393e565b509495945050505050565b60006020808352610100830160018060a01b03808651168386015280838701511660408601526040860151606086015260608601516080860152608086015160a086015260a086015160e060c0870152828151808552610120880191508583019450600092505b808310156139f1578451841682529385019360019290920191908501906139cf565b5060c0880151878203601f190160e08901529450613a0f818661392a565b98975050505050505050565b60ff8116811461088357600080fd5b60008060008060008060a08789031215613a4357600080fd5b8635613a4e816135c2565b95506020870135613a5e816135c2565b9450604087013593506060870135613a7581613a1b565b9250608087013567ffffffffffffffff811115613a9157600080fd5b613a9d89828a01613781565b979a9699509497509295939492505050565b600060208284031215613ac157600080fd5b815161312c816135c2565b6020808252602c908201527f46756e6374696f6e206d7573742062652063616c6c6564207468726f7567682060408201526b19195b1959d85d1958d85b1b60a21b606082015260800190565b6020808252602c908201527f46756e6374696f6e206d7573742062652063616c6c6564207468726f7567682060408201526b6163746976652070726f787960a01b606082015260800190565b600060a082018983526020898185015288604085015260a060608501528187835260c08501905088925060005b88811015613bbf578335613ba4816135c2565b6001600160a01b031682529282019290820190600101613b91565b508481036080860152858152810191508560005b86811015613bfb578135613be681613a1b565b60ff1684529282019290820190600101613bd3565b50919b9a5050505050505050505050565b8051613c17816135c2565b919050565b6000610100808385031215613c3057600080fd5b6040519081019067ffffffffffffffff82118183101715613c5357613c53613692565b8160405283519150613c64826135c2565b818152613c7360208501613c0c565b6020820152613c8460408501613c0c565b6040820152613c9560608501613c0c565b6060820152613ca660808501613c0c565b6080820152613cb760a08501613c0c565b60a0820152613cc860c08501613c0c565b60c0820152613cd960e08501613c0c565b60e0820152949350505050565b634e487b7160e01b600052601160045260246000fd5b8082018082111561075257610752613ce6565b808202811582820484141761075257610752613ce6565b600060208284031215613d3857600080fd5b5051919050565b600060018201613d5157613d51613ce6565b5060010190565b8181038181111561075257610752613ce6565b6020808252602b908201527f496e697469616c697a61626c653a20636f6e7472616374206973206e6f74206960408201526a6e697469616c697a696e6760a81b606082015260800190565b600060208284031215613dc857600080fd5b8151801515811461312c57600080fd5b634e487b7160e01b600052603260045260246000fd5b600060208284031215613e0057600080fd5b815161312c81613a1b565b600082613e2857634e487b7160e01b600052601260045260246000fd5b500490565b600067ffffffffffffffff821115613e4757613e47613692565b5060051b60200190565b600082601f830112613e6257600080fd5b81516020613e77613e7283613e2d565b6136a8565b82815260059290921b84018101918181019086841115613e9657600080fd5b8286015b84811015613eb15780518352918301918301613e9a565b509695505050505050565b60008060408385031215613ecf57600080fd5b825167ffffffffffffffff80821115613ee757600080fd5b818501915085601f830112613efb57600080fd5b81516020613f0b613e7283613e2d565b82815260059290921b84018101918181019089841115613f2a57600080fd5b948201945b83861015613f51578551613f42816135c2565b82529482019490820190613f2f565b91880151919650909350505080821115613f6a57600080fd5b50613f7785828601613e51565b9150509250929050565b604080825283519082018190526000906020906060840190828701845b82811015613fc35781516001600160a01b031684529284019290840190600101613f9e565b5050508381038285015284518082528583019183019060005b81811015613ff857835183529284019291840191600101613fdc565b5090979650505050505050565b60005b83811015614020578181015183820152602001614008565b50506000910152565b6000825161403b818460208701614005565b9190910192915050565b6020815260008251806020840152614064816040850160208701614005565b601f01601f1916919091016040019291505056fe360894a13ba1a3210667c828492db98dca3e2076cc3735a920a3ca505d382bbc416464726573733a206c6f772d6c6576656c2064656c65676174652063616c6c206661696c6564a2646970667358221220ef0b71db6534f219accc034663d81d3861071560ac70b8fddf90a8f5f676a2a064736f6c63430008120033",
    "linkReferences": {
      "src/utils/structs/MarketConfig.sol": {
        "MarketConfig": [
          {
            "start": 1750,
            "length": 20
          },
          {
            "start": 1876,
            "length": 20
          },
          {
            "start": 2001,
            "length": 20
          },
          {
            "start": 3699,
            "length": 20
          },
          {
            "start": 4011,
            "length": 20
          },
          {
            "start": 5100,
            "length": 20
          },
          {
            "start": 7675,
            "length": 20
          }
        ]
      }
    }
  },
  "methodIdentifiers": {
    "getContractAllowListConfig(address)": "04c1ff07",
    "getContractMintLimit(address)": "23946f1f",
    "getContractMintsPerAddress(address,address)": "ca774e68",
    "getContractTxLimit(address)": "fa5312c8",
    "getContractTxsPerAddress(address,address)": "2da45e8e",
    "getDirectSaleConfig(address)": "a01fa6a9",
    "initialize(address,address,address,address,address,address,address,address)": "8a29e2de",
    "mintDirectSale(address,address,uint256,uint8,bytes32[])": "d647ed3c",
    "owner()": "8da5cb5b",
    "prepareMintDirectSale(address,address,uint256,uint256,uint256,address[],uint8[])": "78c19898",
    "proxiableUUID()": "52d1902d",
    "renounceOwnership()": "715018a6",
    "setApprovedTokenRegistry(address)": "e4e87e3b",
    "setContractAllowListConfig(bytes32,uint256,address)": "0fc635b3",
    "setContractMintLimit(address,uint256)": "4cf5f910",
    "setContractTxLimit(address,uint256)": "9dbef5d1",
    "setMarketplaceSettings(address)": "176ab440",
    "setNetworkBeneficiary(address)": "3492e5a8",
    "setPayments(address)": "af231a58",
    "setRoyaltyEngine(address)": "21ede032",
    "setSpaceOperatorRegistry(address)": "7f358230",
    "transferOwnership(address)": "f2fde38b",
    "upgradeTo(address)": "3659cfe6",
    "upgradeToAndCall(address,bytes)": "4f1ef286"
  },
  "id": 67
}