{
  "abi": [
    {
      "anonymous": false,
      "inputs": [
        {
          "indexed": false,
          "internalType": "address",
          "name": "previousAdmin",
          "type": "address"
        },
        {
          "indexed": false,
          "internalType": "address",
          "name": "newAdmin",
          "type": "address"
        }
      ],
      "name": "AdminChanged",
      "type": "event"
    },
    {
      "anonymous": false,
      "inputs": [
        {
          "indexed": true,
          "internalType": "address",
          "name": "beacon",
          "type": "address"
        }
      ],
      "name": "BeaconUpgraded",
      "type": "event"
    },
    {
      "anonymous": false,
      "inputs": [
        {
          "indexed": false,
          "internalType": "uint8",
          "name": "version",
          "type": "uint8"
        }
      ],
      "name": "Initialized",
      "type": "event"
    },
    {
      "anonymous": false,
      "inputs": [
        {
          "indexed": true,
          "internalType": "address",
          "name": "_contractAddress",
          "type": "address"
        },
        {
          "indexed": true,
          "internalType": "address",
          "name": "_seller",
          "type": "address"
        },
        {
          "indexed": true,
          "internalType": "address",
          "name": "_buyer",
          "type": "address"
        },
        {
          "indexed": false,
          "internalType": "uint256",
          "name": "_tokenId",
          "type": "uint256"
        },
        {
          "indexed": false,
          "internalType": "address",
          "name": "_currency",
          "type": "address"
        },
        {
          "indexed": false,
          "internalType": "uint256",
          "name": "_price",
          "type": "uint256"
        }
      ],
      "name": "MintDirectSale",
      "type": "event"
    },
    {
      "anonymous": false,
      "inputs": [
        {
          "indexed": true,
          "internalType": "address",
          "name": "previousOwner",
          "type": "address"
        },
        {
          "indexed": true,
          "internalType": "address",
          "name": "newOwner",
          "type": "address"
        }
      ],
      "name": "OwnershipTransferred",
      "type": "event"
    },
    {
      "anonymous": false,
      "inputs": [
        {
          "indexed": true,
          "internalType": "address",
          "name": "_contractAddress",
          "type": "address"
        },
        {
          "indexed": true,
          "internalType": "address",
          "name": "_currency",
          "type": "address"
        },
        {
          "indexed": true,
          "internalType": "address",
          "name": "_seller",
          "type": "address"
        },
        {
          "indexed": false,
          "internalType": "uint256",
          "name": "_price",
          "type": "uint256"
        },
        {
          "indexed": false,
          "internalType": "address payable[]",
          "name": "splitRecipients",
          "type": "address[]"
        },
        {
          "indexed": false,
          "internalType": "uint8[]",
          "name": "splitRatios",
          "type": "uint8[]"
        }
      ],
      "name": "PrepareMintDirectSale",
      "type": "event"
    },
    {
      "anonymous": false,
      "inputs": [
        {
          "indexed": true,
          "internalType": "address",
          "name": "implementation",
          "type": "address"
        }
      ],
      "name": "Upgraded",
      "type": "event"
    },
    {
      "inputs": [
        {
          "internalType": "address",
          "name": "_contractAddress",
          "type": "address"
        }
      ],
      "name": "getDirectSaleConfig",
      "outputs": [
        {
          "components": [
            {
              "internalType": "address",
              "name": "seller",
              "type": "address"
            },
            {
              "internalType": "address",
              "name": "currencyAddress",
              "type": "address"
            },
            {
              "internalType": "uint256",
              "name": "price",
              "type": "uint256"
            },
            {
              "internalType": "uint256",
              "name": "startTime",
              "type": "uint256"
            },
            {
              "internalType": "address payable[]",
              "name": "splitRecipients",
              "type": "address[]"
            },
            {
              "internalType": "uint8[]",
              "name": "splitRatios",
              "type": "uint8[]"
            }
          ],
          "internalType": "struct IRareMinter.DirectSaleConfig",
          "name": "",
          "type": "tuple"
        }
      ],
      "stateMutability": "view",
      "type": "function"
    },
    {
      "inputs": [
        {
          "internalType": "address",
          "name": "_networkBeneficiary",
          "type": "address"
        },
        {
          "internalType": "address",
          "name": "_marketplaceSettings",
          "type": "address"
        },
        {
          "internalType": "address",
          "name": "_spaceOperatorRegistry",
          "type": "address"
        },
        {
          "internalType": "address",
          "name": "_royaltyEngine",
          "type": "address"
        },
        {
          "internalType": "address",
          "name": "_payments",
          "type": "address"
        },
        {
          "internalType": "address",
          "name": "_approvedTokenRegistry",
          "type": "address"
        },
        {
          "internalType": "address",
          "name": "_stakingSettings",
          "type": "address"
        },
        {
          "internalType": "address",
          "name": "_stakingRegistry",
          "type": "address"
        }
      ],
      "name": "initialize",
      "outputs": [],
      "stateMutability": "nonpayable",
      "type": "function"
    },
    {
      "inputs": [
        {
          "internalType": "address",
          "name": "_contractAddress",
          "type": "address"
        },
        {
          "internalType": "address",
          "name": "_currencyAddress",
          "type": "address"
        },
        {
          "internalType": "uint256",
          "name": "_price",
          "type": "uint256"
        }
      ],
      "name": "mintDirectSale",
      "outputs": [],
      "stateMutability": "payable",
      "type": "function"
    },
    {
      "inputs": [],
      "name": "owner",
      "outputs": [
        {
          "internalType": "address",
          "name": "",
          "type": "address"
        }
      ],
      "stateMutability": "view",
      "type": "function"
    },
    {
      "inputs": [
        {
          "internalType": "address",
          "name": "_contractAddress",
          "type": "address"
        },
        {
          "internalType": "address",
          "name": "_currencyAddress",
          "type": "address"
        },
        {
          "internalType": "uint256",
          "name": "_price",
          "type": "uint256"
        },
        {
          "internalType": "uint256",
          "name": "_startTime",
          "type": "uint256"
        },
        {
          "internalType": "address payable[]",
          "name": "_splitRecipients",
          "type": "address[]"
        },
        {
          "internalType": "uint8[]",
          "name": "_splitRatios",
          "type": "uint8[]"
        }
      ],
      "name": "prepareMintDirectSale",
      "outputs": [],
      "stateMutability": "nonpayable",
      "type": "function"
    },
    {
      "inputs": [],
      "name": "proxiableUUID",
      "outputs": [
        {
          "internalType": "bytes32",
          "name": "",
          "type": "bytes32"
        }
      ],
      "stateMutability": "view",
      "type": "function"
    },
    {
      "inputs": [],
      "name": "renounceOwnership",
      "outputs": [],
      "stateMutability": "nonpayable",
      "type": "function"
    },
    {
      "inputs": [
        {
          "internalType": "address",
          "name": "_approvedTokenRegistry",
          "type": "address"
        }
      ],
      "name": "setApprovedTokenRegistry",
      "outputs": [],
      "stateMutability": "nonpayable",
      "type": "function"
    },
    {
      "inputs": [
        {
          "internalType": "address",
          "name": "_marketplaceSettings",
          "type": "address"
        }
      ],
      "name": "setMarketplaceSettings",
      "outputs": [],
      "stateMutability": "nonpayable",
      "type": "function"
    },
    {
      "inputs": [
        {
          "internalType": "address",
          "name": "_networkBeneficiary",
          "type": "address"
        }
      ],
      "name": "setNetworkBeneficiary",
      "outputs": [],
      "stateMutability": "nonpayable",
      "type": "function"
    },
    {
      "inputs": [
        {
          "internalType": "address",
          "name": "_payments",
          "type": "address"
        }
      ],
      "name": "setPayments",
      "outputs": [],
      "stateMutability": "nonpayable",
      "type": "function"
    },
    {
      "inputs": [
        {
          "internalType": "address",
          "name": "_royaltyEngine",
          "type": "address"
        }
      ],
      "name": "setRoyaltyEngine",
      "outputs": [],
      "stateMutability": "nonpayable",
      "type": "function"
    },
    {
      "inputs": [
        {
          "internalType": "address",
          "name": "_spaceOperatorRegistry",
          "type": "address"
        }
      ],
      "name": "setSpaceOperatorRegistry",
      "outputs": [],
      "stateMutability": "nonpayable",
      "type": "function"
    },
    {
      "inputs": [
        {
          "internalType": "address",
          "name": "newOwner",
          "type": "address"
        }
      ],
      "name": "transferOwnership",
      "outputs": [],
      "stateMutability": "nonpayable",
      "type": "function"
    },
    {
      "inputs": [
        {
          "internalType": "address",
          "name": "newImplementation",
          "type": "address"
        }
      ],
      "name": "upgradeTo",
      "outputs": [],
      "stateMutability": "nonpayable",
      "type": "function"
    },
    {
      "inputs": [
        {
          "internalType": "address",
          "name": "newImplementation",
          "type": "address"
        },
        {
          "internalType": "bytes",
          "name": "data",
          "type": "bytes"
        }
      ],
      "name": "upgradeToAndCall",
      "outputs": [],
      "stateMutability": "payable",
      "type": "function"
    }
  ],
  "bytecode": {
    "object": "0x60a06040523060805234801561001457600080fd5b5060805161336161004c600039600081816106af015281816106ef0152818161078e015281816107ce015261086101526133616000f3fe6080604052600436106100f35760003560e01c80637f3582301161008a578063af231a5811610059578063af231a581461027f578063e4e87e3b1461029f578063ebc25a19146102bf578063f2fde38b146102d257600080fd5b80637f358230146101ea5780638a29e2de1461020a5780638da5cb5b1461022a578063a01fa6a91461025257600080fd5b80633659cfe6116100c65780633659cfe61461017a5780634f1ef2861461019a57806352d1902d146101ad578063715018a6146101d557600080fd5b8063176ab440146100f857806321ddb9451461011a57806321ede0321461013a5780633492e5a81461015a575b600080fd5b34801561010457600080fd5b50610118610113366004612946565b6102f2565b005b34801561012657600080fd5b506101186101353660046129b6565b610370565b34801561014657600080fd5b50610118610155366004612946565b610607565b34801561016657600080fd5b50610118610175366004612946565b610656565b34801561018657600080fd5b50610118610195366004612946565b6106a5565b6101186101a8366004612aa5565b610784565b3480156101b957600080fd5b506101c2610854565b6040519081526020015b60405180910390f35b3480156101e157600080fd5b50610118610907565b3480156101f657600080fd5b50610118610205366004612946565b61091b565b34801561021657600080fd5b50610118610225366004612b4d565b61096a565b34801561023657600080fd5b506033546040516001600160a01b0390911681526020016101cc565b34801561025e57600080fd5b5061027261026d366004612946565b610be7565b6040516101cc9190612c34565b34801561028b57600080fd5b5061011861029a366004612946565b610d5b565b3480156102ab57600080fd5b506101186102ba366004612946565b610daa565b6101186102cd366004612cdc565b610df9565b3480156102de57600080fd5b506101186102ed366004612946565b611403565b6102fa611479565b604051632c55921b60e01b815260fb60048201526001600160a01b038216602482015273__$7682c538d2a75d26dfca907f0e750789f4$__90632c55921b906044015b60006040518083038186803b15801561035557600080fd5b505af4158015610369573d6000803e3d6000fd5b5050505050565b336001600160a01b0316886001600160a01b0316638da5cb5b6040518163ffffffff1660e01b8152600401602060405180830381865afa1580156103b8573d6000803e3d6000fd5b505050506040513d601f19601f820116820180604052508101906103dc9190612d1d565b6001600160a01b03161461046b5760405162461bcd60e51b8152602060048201526044602482018190527f707265706172654d696e7444697265637453616c653a3a4f6e6c79206d696e74908201527f20636f6e7472616374206f776e65722063616e207072657061726520746865206064820152631b5a5b9d60e21b608482015260a4015b60405180910390fd5b6040518060c00160405280336001600160a01b03168152602001886001600160a01b03168152602001878152602001868152602001858580806020026020016040519081016040528093929190818152602001838360200280828437600092019190915250505090825250604080516020858102828101820190935285825292830192909186918691829185019084908082843760009201829052509390945250506001600160a01b03808c1682526101036020908152604092839020855181549084166001600160a01b03199182161782558683015160018301805491909516911617909255918401516002820155606084015160038201556080840151805191935061058092600485019291019061281a565b5060a0820151805161059c91600584019160209091019061287f565b50905050336001600160a01b0316876001600160a01b0316896001600160a01b03167f624f2a614a9a16b488e093795757fe726454947df180a1cc2b8fd558aa199a2089888888886040516105f5959493929190612d49565b60405180910390a45050505050505050565b61060f611479565b60405163ebda042b60e01b815260fb60048201526001600160a01b038216602482015273__$7682c538d2a75d26dfca907f0e750789f4$__9063ebda042b9060440161033d565b61065e611479565b60405163dec30e3360e01b815260fb60048201526001600160a01b038216602482015273__$7682c538d2a75d26dfca907f0e750789f4$__9063dec30e339060440161033d565b6001600160a01b037f00000000000000000000000000000000000000000000000000000000000000001630036106ed5760405162461bcd60e51b815260040161046290612de0565b7f00000000000000000000000000000000000000000000000000000000000000006001600160a01b03166107366000805160206132e5833981519152546001600160a01b031690565b6001600160a01b03161461075c5760405162461bcd60e51b815260040161046290612e2c565b610765816114d3565b60408051600080825260208201909252610781918391906114db565b50565b6001600160a01b037f00000000000000000000000000000000000000000000000000000000000000001630036107cc5760405162461bcd60e51b815260040161046290612de0565b7f00000000000000000000000000000000000000000000000000000000000000006001600160a01b03166108156000805160206132e5833981519152546001600160a01b031690565b6001600160a01b03161461083b5760405162461bcd60e51b815260040161046290612e2c565b610844826114d3565b610850828260016114db565b5050565b6000306001600160a01b037f000000000000000000000000000000000000000000000000000000000000000016146108f45760405162461bcd60e51b815260206004820152603860248201527f555550535570677261646561626c653a206d757374206e6f742062652063616c60448201527f6c6564207468726f7567682064656c656761746563616c6c00000000000000006064820152608401610462565b506000805160206132e583398151915290565b61090f611479565b610919600061164b565b565b610923611479565b604051630cf1420760e21b815260fb60048201526001600160a01b038216602482015273__$7682c538d2a75d26dfca907f0e750789f4$__906333c5081c9060440161033d565b600054610100900460ff161580801561098a5750600054600160ff909116105b806109a45750303b1580156109a4575060005460ff166001145b610a075760405162461bcd60e51b815260206004820152602e60248201527f496e697469616c697a61626c653a20636f6e747261637420697320616c72656160448201526d191e481a5b9a5d1a585b1a5e995960921b6064820152608401610462565b6000805460ff191660011790558015610a2a576000805461ff0019166101001790555b6040516323e95fa960e01b81526001600160a01b03808b166004830152808a16602483015280891660448301528088166064830152808716608483015280861660a483015280851660c4830152831660e482015273__$7682c538d2a75d26dfca907f0e750789f4$__906323e95fa9906101040161010060405180830381865af4158015610abc573d6000803e3d6000fd5b505050506040513d601f19601f82011682018060405250810190610ae09190612e88565b805160fb80546001600160a01b03199081166001600160a01b0393841617909155602083015160fc80548316918416919091179055604083015160fd80548316918416919091179055606083015160fe80548316918416919091179055608083015160ff8054831691841691909117905560a08301516101008054831691841691909117905560c08301516101018054831691841691909117905560e09092015161010280549093169116179055610b9661169d565b8015610bdc576000805461ff0019169055604051600181527f7f26b83ff96e1f2b6a682f133852f6798a09c465da95921460cefb38474024989060200160405180910390a15b505050505050505050565b610c326040518060c0016040528060006001600160a01b0316815260200160006001600160a01b03168152602001600081526020016000815260200160608152602001606081525090565b6001600160a01b0380831660009081526101036020908152604091829020825160c0810184528154851681526001820154909416848301526002810154848401526003810154606085015260048101805484518185028101850190955280855291936080860193909290830182828015610cd557602002820191906000526020600020905b81546001600160a01b03168152600190910190602001808311610cb7575b5050505050815260200160058201805480602002602001604051908101604052809291908181526020018280548015610d4b57602002820191906000526020600020906000905b825461010083900a900460ff16815260206001928301818104948501949093039092029101808411610d1c5790505b5050505050815250509050919050565b610d63611479565b60405163c70c56c760e01b815260fb60048201526001600160a01b038216602482015273__$7682c538d2a75d26dfca907f0e750789f4$__9063c70c56c79060440161033d565b610db2611479565b6040516386e5800760e01b815260fb60048201526001600160a01b038216602482015273__$7682c538d2a75d26dfca907f0e750789f4$__906386e580079060440161033d565b6001600160a01b03808416600090815261010360209081526040808320815160c08101835281548616815260018201549095168584015260028101548583015260038101546060860152600481018054835181860281018601909452808452949594919360808601939290830182828015610e9d57602002820191906000526020600020905b81546001600160a01b03168152600190910190602001808311610e7f575b5050505050815260200160058201805480602002602001604051908101604052809291908181526020018280548015610f1357602002820191906000526020600020906000905b825461010083900a900460ff16815260206001928301818104948501949093039092029101808411610ee45790505b50505050508152505090504281606001511115610f7e5760405162461bcd60e51b8152602060048201526024808201527f6d696e7444697265637453616c653a3a53616c6520686173206e6f74207374616044820152631c9d195960e21b6064820152608401610462565b80516001600160a01b0316610ff35760405162461bcd60e51b815260206004820152603560248201527f6d696e7444697265637453616c653a3a436f6e7472616374206e6f7420707265604482015274706172656420666f72206469726563742073616c6560581b6064820152608401610462565b806040015182146110625760405162461bcd60e51b815260206004820152603360248201527f6d696e7444697265637453616c653a3a507269636520646f6573206e6f74206d6044820152726174636820726571756972656420707269636560681b6064820152608401610462565b826001600160a01b031681602001516001600160a01b0316146110ed5760405162461bcd60e51b815260206004820152603960248201527f6d696e7444697265637453616c653a3a43757272656e637920646f6573206e6f60448201527f74206d617463682072657175697265642063757272656e6379000000000000006064820152608401610462565b806040015160000361122a5760405163755edd1760e01b81523360048201526000906001600160a01b0386169063755edd17906024016020604051808303816000875af1158015611142573d6000803e3d6000fd5b505050506040513d601f19601f820116820180604052508101906111669190612f52565b60fc54604051635a3c652d60e01b81526001600160a01b0388811660048301526024820184905260016044830152929350911690635a3c652d90606401600060405180830381600087803b1580156111bd57600080fd5b505af19250505080156111ce575060015b508151604080518381526001600160a01b03878116602083015291810186905233928216918816907f2896abd69c30384ad3f6c13bdad9835fbc9cfeba416c8ba2c335931a33d3c23c9060600160405180910390a45050505050565b60fc546040516361fe24a960e11b8152600481018490526000916001600160a01b03169063c3fc495290602401602060405180830381865afa158015611274573d6000803e3d6000fd5b505050506040513d601f19601f820116820180604052508101906112989190612f52565b6112a29084612f81565b90506112ae84826116cc565b60405163755edd1760e01b81523360048201526000906001600160a01b0387169063755edd17906024016020604051808303816000875af11580156112f7573d6000803e3d6000fd5b505050506040513d601f19601f8201168201806040525081019061131b9190612f52565b8351608085015160a08601519293506113409260fb928a9286928b928b9290916118c7565b60fc54604051635a3c652d60e01b81526001600160a01b038881166004830152602482018490526001604483015290911690635a3c652d90606401600060405180830381600087803b15801561139557600080fd5b505af19250505080156113a6575060015b508251604080518381526001600160a01b03888116602083015291810187905233928216918916907f2896abd69c30384ad3f6c13bdad9835fbc9cfeba416c8ba2c335931a33d3c23c9060600160405180910390a4505050505050565b61140b611479565b6001600160a01b0381166114705760405162461bcd60e51b815260206004820152602660248201527f4f776e61626c653a206e6577206f776e657220697320746865207a65726f206160448201526564647265737360d01b6064820152608401610462565b6107818161164b565b6033546001600160a01b031633146109195760405162461bcd60e51b815260206004820181905260248201527f4f776e61626c653a2063616c6c6572206973206e6f7420746865206f776e65726044820152606401610462565b610781611479565b7f4910fdfa16fed3260ed0e7147f7cc6da11a60208b5b9406d12a635614ffd91435460ff16156115135761150e836121d1565b505050565b826001600160a01b03166352d1902d6040518163ffffffff1660e01b8152600401602060405180830381865afa92505050801561156d575060408051601f3d908101601f1916820190925261156a91810190612f52565b60015b6115d05760405162461bcd60e51b815260206004820152602e60248201527f45524331393637557067726164653a206e657720696d706c656d656e7461746960448201526d6f6e206973206e6f74205555505360901b6064820152608401610462565b6000805160206132e5833981519152811461163f5760405162461bcd60e51b815260206004820152602960248201527f45524331393637557067726164653a20756e737570706f727465642070726f786044820152681a58589b195555525160ba1b6064820152608401610462565b5061150e83838361226d565b603380546001600160a01b038381166001600160a01b0319831681179093556040519116919082907f8be0079c531659141344cd1fd0a4f28419497f9722a3daafe3b4186f6b6457e090600090a35050565b600054610100900460ff166116c45760405162461bcd60e51b815260040161046290612f94565b610919612298565b6001600160a01b03821661171f578034146108505760405162461bcd60e51b81526020600482015260136024820152721b9bdd08195b9bdd59da08195d1a081cd95b9d606a1b6044820152606401610462565b341561177e5760405162461bcd60e51b815260206004820152602860248201527f6d73672e76616c75652073686f756c642062652030207768656e206e6f7420756044820152670e6d2dcce40cae8d60c31b6064820152608401610462565b6040516370a0823160e01b815230600482015282906000906001600160a01b038316906370a0823190602401602060405180830381865afa1580156117c7573d6000803e3d6000fd5b505050506040513d601f19601f820116820180604052508101906117eb9190612f52565b90506118026001600160a01b0383163330866122c8565b6040516370a0823160e01b81523060048201526000906001600160a01b038416906370a0823190602401602060405180830381865afa158015611849573d6000803e3d6000fd5b505050506040513d601f19601f8201168201806040525081019061186d9190612f52565b90508361187a8383612fdf565b146103695760405162461bcd60e51b815260206004820152601c60248201527f6e6f7420656e6f75676820746f6b656e73207472616e736665726564000000006044820152606401610462565b80518251146119345760405162461bcd60e51b815260206004820152603360248201527f4e756d626572206f662073706c69742061646472657373657320616e642072616044820152723a34b7b99036bab9ba1031329032b8bab0b61760691b6064820152608401610462565b60018801546040516361fe24a960e11b81526004810186905285916000916001600160a01b039091169063c3fc495290602401602060405180830381865afa158015611984573d6000803e3d6000fd5b505050506040513d601f19601f820116820180604052508101906119a89190612f52565b604080516002808252606082018352929350600092909160208301908036833750508c5482519293506001600160a01b0316918391506000906119ed576119ed612ff2565b6001600160a01b03928316602091820292909201015260078c015460405163e286ef3360e01b8152888316600482015291169063e286ef3390602401602060405180830381865afa158015611a46573d6000803e3d6000fd5b505050506040513d601f19601f82011682018060405250810190611a6a9190612d1d565b81600181518110611a7d57611a7d612ff2565b60200260200101906001600160a01b031690816001600160a01b03168152505060006001600160a01b031681600181518110611abb57611abb612ff2565b60200260200101516001600160a01b031614611af15780600181518110611ae457611ae4612ff2565b6020026020010151611afd565b8a546001600160a01b03165b81600181518110611b1057611b10612ff2565b6001600160a01b039290921660209283029190910182015260408051600280825260608201835260009391929091830190803683370190505060068d01546040516303fdde1160e21b8152600481018b90529192506001600160a01b031690630ff7784490602401602060405180830381865afa158015611b95573d6000803e3d6000fd5b505050506040513d601f19601f82011682018060405250810190611bb99190612f52565b81600081518110611bcc57611bcc612ff2565b602090810291909101015260068c015460405163470d6ed960e11b8152600481018a90526001600160a01b0390911690638e1addb290602401602060405180830381865afa158015611c22573d6000803e3d6000fd5b505050506040513d601f19601f82011682018060405250810190611c469190612f52565b81600181518110611c5957611c59612ff2565b602002602001018181525050611c728c8a858585612333565b60018c0154604051631446f21360e21b81526001600160a01b038d81166004830152602482018d90529091169063511bc84c90604401602060405180830381865afa158015611cc5573d6000803e3d6000fd5b505050506040513d601f19601f82011682018060405250810190611ce99190613008565b611fca5760408051600180825281830190925260009160208083019080368337505060408051600180825281830190925292935060009291506020808301908036833701905050905083600081518110611d4557611d45612ff2565b602002602001015181600081518110611d6057611d60612ff2565b6001600160a01b03928316602091820292909201015260028f0154604051635dc22eff60e01b81528b83166004820152911690635dc22eff90602401602060405180830381865afa158015611db9573d6000803e3d6000fd5b505050506040513d601f19601f82011682018060405250810190611ddd9190613008565b15611edc5760028e0154604051632260494f60e01b81526001600160a01b038b811660048301526000921690632260494f90602401602060405180830381865afa158015611e2f573d6000803e3d6000fd5b505050506040513d601f19601f82011682018060405250810190611e53919061302a565b60ff1690506064611e64828d613047565b611e6e919061305e565b611e789088612fdf565b96506064611e86828d613047565b611e90919061305e565b83600081518110611ea357611ea3612ff2565b602002602001018181525050611ed68f8d85600081518110611ec757611ec7612ff2565b60200260200101518587612333565b50611fc3565b60018e015460405163b28a7bad60e01b81526001600160a01b038f81166004830152600092169063b28a7bad90602401602060405180830381865afa158015611f29573d6000803e3d6000fd5b505050506040513d601f19601f82011682018060405250810190611f4d919061302a565b60ff1690506064611f5e828d613047565b611f68919061305e565b611f729088612fdf565b96506064611f80828d613047565b611f8a919061305e565b83600081518110611f9d57611f9d612ff2565b602002602001018181525050611fc18f8d85600081518110611ec757611ec7612ff2565b505b50506120ba565b60038c0154604051637a99dc0160e11b81526001600160a01b038d81166004830152602482018d9052604482018b9052600092839291169063f533b802906064016000604051808303816000875af115801561202a573d6000803e3d6000fd5b505050506040513d6000823e601f3d908101601f19168201604052612052919081019061310f565b915091506000805b825181101561209c5782818151811061207557612075612ff2565b6020026020010151826120889190612f81565b915080612094816131d4565b91505061205a565b506120a78188612fdf565b96506120b68f8d838686612333565b5050505b6000865167ffffffffffffffff8111156120d6576120d6612a5e565b6040519080825280602002602001820160405280156120ff578160200160208202803683370190505b5090506000805b88518110156121b357606488828151811061212357612123612ff2565b602002602001015160ff16886121399190613047565b612143919061305e565b83828151811061215557612155612ff2565b602002602001018181525050606488828151811061217557612175612ff2565b602002602001015160ff168861218b9190613047565b612195919061305e565b61219f9083612f81565b9150806121ab816131d4565b915050612106565b506121c18e8c838b86612333565b5050505050505050505050505050565b6001600160a01b0381163b61223e5760405162461bcd60e51b815260206004820152602d60248201527f455243313936373a206e657720696d706c656d656e746174696f6e206973206e60448201526c1bdd08184818dbdb9d1c9858dd609a1b6064820152608401610462565b6000805160206132e583398151915280546001600160a01b0319166001600160a01b0392909216919091179055565b6122768361249a565b6000825111806122835750805b1561150e5761229283836124da565b50505050565b600054610100900460ff166122bf5760405162461bcd60e51b815260040161046290612f94565b6109193361164b565b6040516001600160a01b03808516602483015283166044820152606481018290526122929085906323b872dd60e01b906084015b60408051601f198184030181529190526020810180516001600160e01b03166001600160e01b031990931692909217909152612508565b6001600160a01b03841661242257600485015460405160009182916001600160a01b0390911690869063c176e63960e01b9061237590889088906024016131ed565b60408051601f198184030181529181526020820180516001600160e01b03166001600160e01b03199094169390931790925290516123b39190613295565b60006040518083038185875af1925050503d80600081146123f0576040519150601f19603f3d011682016040523d82523d6000602084013e6123f5565b606091505b509150915081819061241a5760405162461bcd60e51b815260040161046291906132b1565b505050610369565b8360005b83518110156124915761247f84828151811061244457612444612ff2565b602002602001015184838151811061245e5761245e612ff2565b6020026020010151846001600160a01b03166125dd9092919063ffffffff16565b80612489816131d4565b915050612426565b50505050505050565b6124a3816121d1565b6040516001600160a01b038216907fbc7cd75a20ee27fd9adebab32041f755214dbc6bffa90cc0225b39da2e5c2d3b90600090a250565b60606124ff83836040518060600160405280602781526020016133056027913961260d565b90505b92915050565b600061255d826040518060400160405280602081526020017f5361666545524332303a206c6f772d6c6576656c2063616c6c206661696c6564815250856001600160a01b03166126859092919063ffffffff16565b905080516000148061257e57508080602001905181019061257e9190613008565b61150e5760405162461bcd60e51b815260206004820152602a60248201527f5361666545524332303a204552433230206f7065726174696f6e20646964206e6044820152691bdd081cdd58d8d9595960b21b6064820152608401610462565b6040516001600160a01b03831660248201526044810182905261150e90849063a9059cbb60e01b906064016122fc565b6060600080856001600160a01b03168560405161262a9190613295565b600060405180830381855af49150503d8060008114612665576040519150601f19603f3d011682016040523d82523d6000602084013e61266a565b606091505b509150915061267b8683838761269c565b9695505050505050565b60606126948484600085612715565b949350505050565b6060831561270b578251600003612704576001600160a01b0385163b6127045760405162461bcd60e51b815260206004820152601d60248201527f416464726573733a2063616c6c20746f206e6f6e2d636f6e74726163740000006044820152606401610462565b5081612694565b61269483836127f0565b6060824710156127765760405162461bcd60e51b815260206004820152602660248201527f416464726573733a20696e73756666696369656e742062616c616e636520666f6044820152651c8818d85b1b60d21b6064820152608401610462565b600080866001600160a01b031685876040516127929190613295565b60006040518083038185875af1925050503d80600081146127cf576040519150601f19603f3d011682016040523d82523d6000602084013e6127d4565b606091505b50915091506127e58783838761269c565b979650505050505050565b8151156128005781518083602001fd5b8060405162461bcd60e51b815260040161046291906132b1565b82805482825590600052602060002090810192821561286f579160200282015b8281111561286f57825182546001600160a01b0319166001600160a01b0390911617825560209092019160019091019061283a565b5061287b92915061291c565b5090565b82805482825590600052602060002090601f0160209004810192821561286f5791602002820160005b838211156128e657835183826101000a81548160ff021916908360ff16021790555092602001926001016020816000010492830192600103026128a8565b80156129135782816101000a81549060ff02191690556001016020816000010492830192600103026128e6565b505061287b9291505b5b8082111561287b576000815560010161291d565b6001600160a01b038116811461078157600080fd5b60006020828403121561295857600080fd5b813561296381612931565b9392505050565b60008083601f84011261297c57600080fd5b50813567ffffffffffffffff81111561299457600080fd5b6020830191508360208260051b85010111156129af57600080fd5b9250929050565b60008060008060008060008060c0898b0312156129d257600080fd5b88356129dd81612931565b975060208901356129ed81612931565b96506040890135955060608901359450608089013567ffffffffffffffff80821115612a1857600080fd5b612a248c838d0161296a565b909650945060a08b0135915080821115612a3d57600080fd5b50612a4a8b828c0161296a565b999c989b5096995094979396929594505050565b634e487b7160e01b600052604160045260246000fd5b604051601f8201601f1916810167ffffffffffffffff81118282101715612a9d57612a9d612a5e565b604052919050565b60008060408385031215612ab857600080fd5b8235612ac381612931565b915060208381013567ffffffffffffffff80821115612ae157600080fd5b818601915086601f830112612af557600080fd5b813581811115612b0757612b07612a5e565b612b19601f8201601f19168501612a74565b91508082528784828501011115612b2f57600080fd5b80848401858401376000848284010152508093505050509250929050565b600080600080600080600080610100898b031215612b6a57600080fd5b8835612b7581612931565b97506020890135612b8581612931565b96506040890135612b9581612931565b95506060890135612ba581612931565b94506080890135612bb581612931565b935060a0890135612bc581612931565b925060c0890135612bd581612931565b915060e0890135612be581612931565b809150509295985092959890939650565b600081518084526020808501945080840160005b83811015612c2957815160ff1687529582019590820190600101612c0a565b509495945050505050565b6000602080835260e0830160018060a01b03808651168386015280838701511660408601526040860151606086015260608601516080860152608086015160c060a0870152828151808552610100880191508583019450600092505b80831015612cb257845184168252938501936001929092019190850190612c90565b5060a0880151878203601f190160c08901529450612cd08186612bf6565b98975050505050505050565b600080600060608486031215612cf157600080fd5b8335612cfc81612931565b92506020840135612d0c81612931565b929592945050506040919091013590565b600060208284031215612d2f57600080fd5b815161296381612931565b60ff8116811461078157600080fd5b85815260606020808301829052908201859052600090869060808401835b88811015612d95578335612d7a81612931565b6001600160a01b031682529282019290820190600101612d67565b508481036040860152858152810191508560005b86811015612dd1578135612dbc81612d3a565b60ff1684529282019290820190600101612da9565b50919998505050505050505050565b6020808252602c908201527f46756e6374696f6e206d7573742062652063616c6c6564207468726f7567682060408201526b19195b1959d85d1958d85b1b60a21b606082015260800190565b6020808252602c908201527f46756e6374696f6e206d7573742062652063616c6c6564207468726f7567682060408201526b6163746976652070726f787960a01b606082015260800190565b8051612e8381612931565b919050565b6000610100808385031215612e9c57600080fd5b6040519081019067ffffffffffffffff82118183101715612ebf57612ebf612a5e565b8160405283519150612ed082612931565b818152612edf60208501612e78565b6020820152612ef060408501612e78565b6040820152612f0160608501612e78565b6060820152612f1260808501612e78565b6080820152612f2360a08501612e78565b60a0820152612f3460c08501612e78565b60c0820152612f4560e08501612e78565b60e0820152949350505050565b600060208284031215612f6457600080fd5b5051919050565b634e487b7160e01b600052601160045260246000fd5b8082018082111561250257612502612f6b565b6020808252602b908201527f496e697469616c697a61626c653a20636f6e7472616374206973206e6f74206960408201526a6e697469616c697a696e6760a81b606082015260800190565b8181038181111561250257612502612f6b565b634e487b7160e01b600052603260045260246000fd5b60006020828403121561301a57600080fd5b8151801515811461296357600080fd5b60006020828403121561303c57600080fd5b815161296381612d3a565b808202811582820484141761250257612502612f6b565b60008261307b57634e487b7160e01b600052601260045260246000fd5b500490565b600067ffffffffffffffff82111561309a5761309a612a5e565b5060051b60200190565b600082601f8301126130b557600080fd5b815160206130ca6130c583613080565b612a74565b82815260059290921b840181019181810190868411156130e957600080fd5b8286015b8481101561310457805183529183019183016130ed565b509695505050505050565b6000806040838503121561312257600080fd5b825167ffffffffffffffff8082111561313a57600080fd5b818501915085601f83011261314e57600080fd5b8151602061315e6130c583613080565b82815260059290921b8401810191818101908984111561317d57600080fd5b948201945b838610156131a457855161319581612931565b82529482019490820190613182565b918801519196509093505050808211156131bd57600080fd5b506131ca858286016130a4565b9150509250929050565b6000600182016131e6576131e6612f6b565b5060010190565b604080825283519082018190526000906020906060840190828701845b8281101561322f5781516001600160a01b03168452928401929084019060010161320a565b5050508381038285015284518082528583019183019060005b8181101561326457835183529284019291840191600101613248565b5090979650505050505050565b60005b8381101561328c578181015183820152602001613274565b50506000910152565b600082516132a7818460208701613271565b9190910192915050565b60208152600082518060208401526132d0816040850160208701613271565b601f01601f1916919091016040019291505056fe360894a13ba1a3210667c828492db98dca3e2076cc3735a920a3ca505d382bbc416464726573733a206c6f772d6c6576656c2064656c65676174652063616c6c206661696c6564a264697066735822122039dd68643edc1dfbcf52fac3d91ab37619995434ac90b4692d477fcab6e7fd2b64736f6c63430008120033",
    "linkReferences": {
      "src/utils/structs/MarketConfig.sol": {
        "MarketConfig": [
          {
            "start": 875,
            "length": 20
          },
          {
            "start": 1664,
            "length": 20
          },
          {
            "start": 1743,
            "length": 20
          },
          {
            "start": 2452,
            "length": 20
          },
          {
            "start": 2764,
            "length": 20
          },
          {
            "start": 3540,
            "length": 20
          },
          {
            "start": 3619,
            "length": 20
          }
        ]
      }
    }
  },
  "methodIdentifiers": {
    "getDirectSaleConfig(address)": "a01fa6a9",
    "initialize(address,address,address,address,address,address,address,address)": "8a29e2de",
    "mintDirectSale(address,address,uint256)": "ebc25a19",
    "owner()": "8da5cb5b",
    "prepareMintDirectSale(address,address,uint256,uint256,address[],uint8[])": "21ddb945",
    "proxiableUUID()": "52d1902d",
    "renounceOwnership()": "715018a6",
    "setApprovedTokenRegistry(address)": "e4e87e3b",
    "setMarketplaceSettings(address)": "176ab440",
    "setNetworkBeneficiary(address)": "3492e5a8",
    "setPayments(address)": "af231a58",
    "setRoyaltyEngine(address)": "21ede032",
    "setSpaceOperatorRegistry(address)": "7f358230",
    "transferOwnership(address)": "f2fde38b",
    "upgradeTo(address)": "3659cfe6",
    "upgradeToAndCall(address,bytes)": "4f1ef286"
  },
  "id": 59
}