{
  "abi": [
    {
      "anonymous": false,
      "inputs": [
        {
          "indexed": false,
          "internalType": "address",
          "name": "previousAdmin",
          "type": "address"
        },
        {
          "indexed": false,
          "internalType": "address",
          "name": "newAdmin",
          "type": "address"
        }
      ],
      "name": "AdminChanged",
      "type": "event"
    },
    {
      "anonymous": false,
      "inputs": [
        {
          "indexed": true,
          "internalType": "address",
          "name": "beacon",
          "type": "address"
        }
      ],
      "name": "BeaconUpgraded",
      "type": "event"
    },
    {
      "anonymous": false,
      "inputs": [
        {
          "indexed": false,
          "internalType": "uint8",
          "name": "version",
          "type": "uint8"
        }
      ],
      "name": "Initialized",
      "type": "event"
    },
    {
      "anonymous": false,
      "inputs": [
        {
          "indexed": true,
          "internalType": "address",
          "name": "_contractAddress",
          "type": "address"
        },
        {
          "indexed": true,
          "internalType": "address",
          "name": "_seller",
          "type": "address"
        },
        {
          "indexed": true,
          "internalType": "address",
          "name": "_buyer",
          "type": "address"
        },
        {
          "indexed": false,
          "internalType": "uint256",
          "name": "_tokenIdStart",
          "type": "uint256"
        },
        {
          "indexed": false,
          "internalType": "uint256",
          "name": "_tokenIdEnd",
          "type": "uint256"
        },
        {
          "indexed": false,
          "internalType": "address",
          "name": "_currency",
          "type": "address"
        },
        {
          "indexed": false,
          "internalType": "uint256",
          "name": "_price",
          "type": "uint256"
        }
      ],
      "name": "MintDirectSale",
      "type": "event"
    },
    {
      "anonymous": false,
      "inputs": [
        {
          "indexed": true,
          "internalType": "address",
          "name": "previousOwner",
          "type": "address"
        },
        {
          "indexed": true,
          "internalType": "address",
          "name": "newOwner",
          "type": "address"
        }
      ],
      "name": "OwnershipTransferred",
      "type": "event"
    },
    {
      "anonymous": false,
      "inputs": [
        {
          "indexed": true,
          "internalType": "address",
          "name": "_contractAddress",
          "type": "address"
        },
        {
          "indexed": true,
          "internalType": "address",
          "name": "_currency",
          "type": "address"
        },
        {
          "indexed": true,
          "internalType": "address",
          "name": "_seller",
          "type": "address"
        },
        {
          "indexed": false,
          "internalType": "uint256",
          "name": "_price",
          "type": "uint256"
        },
        {
          "indexed": false,
          "internalType": "uint256",
          "name": "_startTime",
          "type": "uint256"
        },
        {
          "indexed": false,
          "internalType": "uint256",
          "name": "_maxMints",
          "type": "uint256"
        },
        {
          "indexed": false,
          "internalType": "address payable[]",
          "name": "splitRecipients",
          "type": "address[]"
        },
        {
          "indexed": false,
          "internalType": "uint8[]",
          "name": "splitRatios",
          "type": "uint8[]"
        }
      ],
      "name": "PrepareMintDirectSale",
      "type": "event"
    },
    {
      "anonymous": false,
      "inputs": [
        {
          "indexed": true,
          "internalType": "bytes32",
          "name": "_root",
          "type": "bytes32"
        },
        {
          "indexed": false,
          "internalType": "uint256",
          "name": "_endTimestamp",
          "type": "uint256"
        },
        {
          "indexed": true,
          "internalType": "address",
          "name": "_contractAddress",
          "type": "address"
        }
      ],
      "name": "SetContractAllowListConfig",
      "type": "event"
    },
    {
      "anonymous": false,
      "inputs": [
        {
          "indexed": true,
          "internalType": "address",
          "name": "implementation",
          "type": "address"
        }
      ],
      "name": "Upgraded",
      "type": "event"
    },
    {
      "inputs": [
        {
          "internalType": "address",
          "name": "_contractAddress",
          "type": "address"
        }
      ],
      "name": "getDirectSaleConfig",
      "outputs": [
        {
          "components": [
            {
              "internalType": "address",
              "name": "seller",
              "type": "address"
            },
            {
              "internalType": "address",
              "name": "currencyAddress",
              "type": "address"
            },
            {
              "internalType": "uint256",
              "name": "price",
              "type": "uint256"
            },
            {
              "internalType": "uint256",
              "name": "startTime",
              "type": "uint256"
            },
            {
              "internalType": "uint256",
              "name": "maxMints",
              "type": "uint256"
            },
            {
              "internalType": "address payable[]",
              "name": "splitRecipients",
              "type": "address[]"
            },
            {
              "internalType": "uint8[]",
              "name": "splitRatios",
              "type": "uint8[]"
            }
          ],
          "internalType": "struct IRareMinter.DirectSaleConfig",
          "name": "",
          "type": "tuple"
        }
      ],
      "stateMutability": "view",
      "type": "function"
    },
    {
      "inputs": [
        {
          "internalType": "address",
          "name": "_networkBeneficiary",
          "type": "address"
        },
        {
          "internalType": "address",
          "name": "_marketplaceSettings",
          "type": "address"
        },
        {
          "internalType": "address",
          "name": "_spaceOperatorRegistry",
          "type": "address"
        },
        {
          "internalType": "address",
          "name": "_royaltyEngine",
          "type": "address"
        },
        {
          "internalType": "address",
          "name": "_payments",
          "type": "address"
        },
        {
          "internalType": "address",
          "name": "_approvedTokenRegistry",
          "type": "address"
        },
        {
          "internalType": "address",
          "name": "_stakingSettings",
          "type": "address"
        },
        {
          "internalType": "address",
          "name": "_stakingRegistry",
          "type": "address"
        }
      ],
      "name": "initialize",
      "outputs": [],
      "stateMutability": "nonpayable",
      "type": "function"
    },
    {
      "inputs": [
        {
          "internalType": "address",
          "name": "_contractAddress",
          "type": "address"
        },
        {
          "internalType": "address",
          "name": "_currencyAddress",
          "type": "address"
        },
        {
          "internalType": "uint256",
          "name": "_price",
          "type": "uint256"
        },
        {
          "internalType": "uint8",
          "name": "_numMints",
          "type": "uint8"
        },
        {
          "internalType": "bytes32[]",
          "name": "_proof",
          "type": "bytes32[]"
        }
      ],
      "name": "mintDirectSale",
      "outputs": [],
      "stateMutability": "payable",
      "type": "function"
    },
    {
      "inputs": [],
      "name": "owner",
      "outputs": [
        {
          "internalType": "address",
          "name": "",
          "type": "address"
        }
      ],
      "stateMutability": "view",
      "type": "function"
    },
    {
      "inputs": [
        {
          "internalType": "address",
          "name": "_contractAddress",
          "type": "address"
        },
        {
          "internalType": "address",
          "name": "_currencyAddress",
          "type": "address"
        },
        {
          "internalType": "uint256",
          "name": "_price",
          "type": "uint256"
        },
        {
          "internalType": "uint256",
          "name": "_startTime",
          "type": "uint256"
        },
        {
          "internalType": "uint256",
          "name": "_maxMints",
          "type": "uint256"
        },
        {
          "internalType": "address payable[]",
          "name": "_splitRecipients",
          "type": "address[]"
        },
        {
          "internalType": "uint8[]",
          "name": "_splitRatios",
          "type": "uint8[]"
        }
      ],
      "name": "prepareMintDirectSale",
      "outputs": [],
      "stateMutability": "nonpayable",
      "type": "function"
    },
    {
      "inputs": [],
      "name": "proxiableUUID",
      "outputs": [
        {
          "internalType": "bytes32",
          "name": "",
          "type": "bytes32"
        }
      ],
      "stateMutability": "view",
      "type": "function"
    },
    {
      "inputs": [],
      "name": "renounceOwnership",
      "outputs": [],
      "stateMutability": "nonpayable",
      "type": "function"
    },
    {
      "inputs": [
        {
          "internalType": "address",
          "name": "_approvedTokenRegistry",
          "type": "address"
        }
      ],
      "name": "setApprovedTokenRegistry",
      "outputs": [],
      "stateMutability": "nonpayable",
      "type": "function"
    },
    {
      "inputs": [
        {
          "internalType": "bytes32",
          "name": "_root",
          "type": "bytes32"
        },
        {
          "internalType": "uint256",
          "name": "_endTimestamp",
          "type": "uint256"
        },
        {
          "internalType": "address",
          "name": "_contractAddress",
          "type": "address"
        }
      ],
      "name": "setContractAllowListConfig",
      "outputs": [],
      "stateMutability": "nonpayable",
      "type": "function"
    },
    {
      "inputs": [
        {
          "internalType": "address",
          "name": "_marketplaceSettings",
          "type": "address"
        }
      ],
      "name": "setMarketplaceSettings",
      "outputs": [],
      "stateMutability": "nonpayable",
      "type": "function"
    },
    {
      "inputs": [
        {
          "internalType": "address",
          "name": "_networkBeneficiary",
          "type": "address"
        }
      ],
      "name": "setNetworkBeneficiary",
      "outputs": [],
      "stateMutability": "nonpayable",
      "type": "function"
    },
    {
      "inputs": [
        {
          "internalType": "address",
          "name": "_payments",
          "type": "address"
        }
      ],
      "name": "setPayments",
      "outputs": [],
      "stateMutability": "nonpayable",
      "type": "function"
    },
    {
      "inputs": [
        {
          "internalType": "address",
          "name": "_royaltyEngine",
          "type": "address"
        }
      ],
      "name": "setRoyaltyEngine",
      "outputs": [],
      "stateMutability": "nonpayable",
      "type": "function"
    },
    {
      "inputs": [
        {
          "internalType": "address",
          "name": "_spaceOperatorRegistry",
          "type": "address"
        }
      ],
      "name": "setSpaceOperatorRegistry",
      "outputs": [],
      "stateMutability": "nonpayable",
      "type": "function"
    },
    {
      "inputs": [
        {
          "internalType": "address",
          "name": "newOwner",
          "type": "address"
        }
      ],
      "name": "transferOwnership",
      "outputs": [],
      "stateMutability": "nonpayable",
      "type": "function"
    },
    {
      "inputs": [
        {
          "internalType": "address",
          "name": "newImplementation",
          "type": "address"
        }
      ],
      "name": "upgradeTo",
      "outputs": [],
      "stateMutability": "nonpayable",
      "type": "function"
    },
    {
      "inputs": [
        {
          "internalType": "address",
          "name": "newImplementation",
          "type": "address"
        },
        {
          "internalType": "bytes",
          "name": "data",
          "type": "bytes"
        }
      ],
      "name": "upgradeToAndCall",
      "outputs": [],
      "stateMutability": "payable",
      "type": "function"
    }
  ],
  "bytecode": {
    "object": "0x60a06040523060805234801561001457600080fd5b5060805161391961004c600039600081816105a3015281816105e301528181610682015281816106c2015261075501526139196000f3fe6080604052600436106100fe5760003560e01c806378c1989811610095578063a01fa6a911610064578063a01fa6a91461027d578063af231a58146102aa578063d647ed3c146102ca578063e4e87e3b146102dd578063f2fde38b146102fd57600080fd5b806378c19898146101f55780637f358230146102155780638a29e2de146102355780638da5cb5b1461025557600080fd5b80633659cfe6116100d15780633659cfe6146101855780634f1ef286146101a557806352d1902d146101b8578063715018a6146101e057600080fd5b80630fc635b314610103578063176ab4401461012557806321ede032146101455780633492e5a814610165575b600080fd5b34801561010f57600080fd5b5061012361011e366004612e59565b61031d565b005b34801561013157600080fd5b50610123610140366004612e92565b61047d565b34801561015157600080fd5b50610123610160366004612e92565b6104fb565b34801561017157600080fd5b50610123610180366004612e92565b61054a565b34801561019157600080fd5b506101236101a0366004612e92565b610599565b6101236101b3366004612efd565b610678565b3480156101c457600080fd5b506101cd610748565b6040519081526020015b60405180910390f35b3480156101ec57600080fd5b506101236107fb565b34801561020157600080fd5b50610123610210366004612ff1565b61080f565b34801561022157600080fd5b50610123610230366004612e92565b610ab6565b34801561024157600080fd5b506101236102503660046130a5565b610b05565b34801561026157600080fd5b506033546040516001600160a01b0390911681526020016101d7565b34801561028957600080fd5b5061029d610298366004612e92565b610d82565b6040516101d7919061318c565b3480156102b657600080fd5b506101236102c5366004612e92565b610f07565b6101236102d836600461324e565b610f56565b3480156102e957600080fd5b506101236102f8366004612e92565b6116c7565b34801561030957600080fd5b50610123610318366004612e92565b611716565b806001600160a01b0316638da5cb5b6040518163ffffffff1660e01b8152600401602060405180830381865afa15801561035b573d6000803e3d6000fd5b505050506040513d601f19601f8201168201806040525081019061037f91906132d3565b6001600160a01b0316336001600160a01b03161461040a5760405162461bcd60e51b815260206004820152603760248201527f736574436f6e7472616374416c6c6f774c697374436f6e6669673a3a4f6e6c7960448201527f20636f6e7472616374206f776e65722063616e2073657400000000000000000060648201526084015b60405180910390fd5b60408051808201825284815260208082018581526001600160a01b038516600081815261010484528590209351845590516001909301929092559151848152909185917fff2ce9a528a62cad638cc9f5bccd36a62ecfa9aa0b1ab82c98957cb3498b4b67910160405180910390a3505050565b61048561178c565b604051632c55921b60e01b815260fb60048201526001600160a01b038216602482015273__$7682c538d2a75d26dfca907f0e750789f4$__90632c55921b906044015b60006040518083038186803b1580156104e057600080fd5b505af41580156104f4573d6000803e3d6000fd5b5050505050565b61050361178c565b60405163ebda042b60e01b815260fb60048201526001600160a01b038216602482015273__$7682c538d2a75d26dfca907f0e750789f4$__9063ebda042b906044016104c8565b61055261178c565b60405163dec30e3360e01b815260fb60048201526001600160a01b038216602482015273__$7682c538d2a75d26dfca907f0e750789f4$__9063dec30e33906044016104c8565b6001600160a01b037f00000000000000000000000000000000000000000000000000000000000000001630036105e15760405162461bcd60e51b8152600401610401906132f0565b7f00000000000000000000000000000000000000000000000000000000000000006001600160a01b031661062a60008051602061389d833981519152546001600160a01b031690565b6001600160a01b0316146106505760405162461bcd60e51b81526004016104019061333c565b610659816117e6565b60408051600080825260208201909252610675918391906117ee565b50565b6001600160a01b037f00000000000000000000000000000000000000000000000000000000000000001630036106c05760405162461bcd60e51b8152600401610401906132f0565b7f00000000000000000000000000000000000000000000000000000000000000006001600160a01b031661070960008051602061389d833981519152546001600160a01b031690565b6001600160a01b03161461072f5760405162461bcd60e51b81526004016104019061333c565b610738826117e6565b610744828260016117ee565b5050565b6000306001600160a01b037f000000000000000000000000000000000000000000000000000000000000000016146107e85760405162461bcd60e51b815260206004820152603860248201527f555550535570677261646561626c653a206d757374206e6f742062652063616c60448201527f6c6564207468726f7567682064656c656761746563616c6c00000000000000006064820152608401610401565b5060008051602061389d83398151915290565b61080361178c565b61080d600061195e565b565b336001600160a01b0316896001600160a01b0316638da5cb5b6040518163ffffffff1660e01b8152600401602060405180830381865afa158015610857573d6000803e3d6000fd5b505050506040513d601f19601f8201168201806040525081019061087b91906132d3565b6001600160a01b0316146109055760405162461bcd60e51b8152602060048201526044602482018190527f707265706172654d696e7444697265637453616c653a3a4f6e6c79206d696e74908201527f20636f6e7472616374206f776e65722063616e207072657061726520746865206064820152631b5a5b9d60e21b608482015260a401610401565b6040518060e00160405280336001600160a01b03168152602001896001600160a01b03168152602001888152602001878152602001868152602001858580806020026020016040519081016040528093929190818152602001838360200280828437600092019190915250505090825250604080516020858102828101820190935285825292830192909186918691829185019084908082843760009201829052509390945250506001600160a01b03808d1682526101036020908152604092839020855181549084166001600160a01b03199182161782558683015160018301805491909516911617909255918401516002820155606084015160038201556080840151600482015560a08401518051919350610a2a926005850192910190612d2d565b5060c08201518051610a46916006840191602090910190612d92565b50905050336001600160a01b0316886001600160a01b03168a6001600160a01b03167f36de0d2c8eec9296de665d70b6b6e55d8c29bfa7a36e0178e805ef54725d9f5c8a8a8a8a8a8a8a604051610aa39796959493929190613388565b60405180910390a4505050505050505050565b610abe61178c565b604051630cf1420760e21b815260fb60048201526001600160a01b038216602482015273__$7682c538d2a75d26dfca907f0e750789f4$__906333c5081c906044016104c8565b600054610100900460ff1615808015610b255750600054600160ff909116105b80610b3f5750303b158015610b3f575060005460ff166001145b610ba25760405162461bcd60e51b815260206004820152602e60248201527f496e697469616c697a61626c653a20636f6e747261637420697320616c72656160448201526d191e481a5b9a5d1a585b1a5e995960921b6064820152608401610401565b6000805460ff191660011790558015610bc5576000805461ff0019166101001790555b6040516323e95fa960e01b81526001600160a01b03808b166004830152808a16602483015280891660448301528088166064830152808716608483015280861660a483015280851660c4830152831660e482015273__$7682c538d2a75d26dfca907f0e750789f4$__906323e95fa9906101040161010060405180830381865af4158015610c57573d6000803e3d6000fd5b505050506040513d601f19601f82011682018060405250810190610c7b9190613440565b805160fb80546001600160a01b03199081166001600160a01b0393841617909155602083015160fc80548316918416919091179055604083015160fd80548316918416919091179055606083015160fe80548316918416919091179055608083015160ff8054831691841691909117905560a08301516101008054831691841691909117905560c08301516101018054831691841691909117905560e09092015161010280549093169116179055610d316119b0565b8015610d77576000805461ff0019169055604051600181527f7f26b83ff96e1f2b6a682f133852f6798a09c465da95921460cefb38474024989060200160405180910390a15b505050505050505050565b610dd46040518060e0016040528060006001600160a01b0316815260200160006001600160a01b0316815260200160008152602001600081526020016000815260200160608152602001606081525090565b6001600160a01b0380831660009081526101036020908152604091829020825160e0810184528154851681526001820154909416848301526002810154848401526003810154606085015260048101546080850152600581018054845181850281018501909552808552919360a0860193909290830182828015610e8157602002820191906000526020600020905b81546001600160a01b03168152600190910190602001808311610e63575b5050505050815260200160068201805480602002602001604051908101604052809291908181526020018280548015610ef757602002820191906000526020600020906000905b825461010083900a900460ff16815260206001928301818104948501949093039092029101808411610ec85790505b5050505050815250509050919050565b610f0f61178c565b60405163c70c56c760e01b815260fb60048201526001600160a01b038216602482015273__$7682c538d2a75d26dfca907f0e750789f4$__9063c70c56c7906044016104c8565b610f5e6119df565b6001600160a01b03808716600090815261010360209081526040808320815160e0810183528154861681526001820154909516858401526002810154858301526003810154606086015260048101546080860152600581018054835181860281018601909452808452949594919360a0860193929083018282801561100c57602002820191906000526020600020905b81546001600160a01b03168152600190910190602001808311610fee575b505050505081526020016006820180548060200260200160405190810160405280929190818152602001828054801561108257602002820191906000526020600020906000905b825461010083900a900460ff168152602060019283018181049485019490930390920291018084116110535790505b50505050508152505090506110cb8733858580806020026020016040519081016040528093929190818152602001838360200280828437600092019190915250611a3892505050565b60008460ff16116111335760405162461bcd60e51b815260206004820152602c60248201527f6d696e7444697265637453616c653a3a4d696e7473206d75737420626520677260448201526b06561746572207468616e20360a41b6064820152608401610401565b6080810151158061114b575080608001518460ff1611155b6111bd5760405162461bcd60e51b815260206004820152603a60248201527f6d696e7444697265637453616c653a3a4d696e7473206d757374206265206c6560448201527f7373207468616e206d61784d696e7420696620656e61626c65640000000000006064820152608401610401565b428160600151111561121d5760405162461bcd60e51b8152602060048201526024808201527f6d696e7444697265637453616c653a3a53616c6520686173206e6f74207374616044820152631c9d195960e21b6064820152608401610401565b80516001600160a01b03166112925760405162461bcd60e51b815260206004820152603560248201527f6d696e7444697265637453616c653a3a436f6e7472616374206e6f7420707265604482015274706172656420666f72206469726563742073616c6560581b6064820152608401610401565b806040015185146113015760405162461bcd60e51b815260206004820152603360248201527f6d696e7444697265637453616c653a3a507269636520646f6573206e6f74206d6044820152726174636820726571756972656420707269636560681b6064820152608401610401565b856001600160a01b031681602001516001600160a01b03161461138c5760405162461bcd60e51b815260206004820152603960248201527f6d696e7444697265637453616c653a3a43757272656e637920646f6573206e6f60448201527f74206d617463682072657175697265642063757272656e6379000000000000006064820152608401610401565b600061139b8660ff8716613520565b9050816040015160001461142f5760fc546040516361fe24a960e11b8152600481018390526000916001600160a01b03169063c3fc495290602401602060405180830381865afa1580156113f3573d6000803e3d6000fd5b505050506040513d601f19601f820116820180604052508101906114179190613537565b6114219083613550565b905061142d8882611b2f565b505b60405163755edd1760e01b81523360048201526000906001600160a01b038a169063755edd17906024016020604051808303816000875af1158015611478573d6000803e3d6000fd5b505050506040513d601f19601f8201168201806040525081019061149c9190613537565b60fc54604051635a3c652d60e01b81526001600160a01b038c811660048301526024820184905260016044830152929350911690635a3c652d90606401600060405180830381600087803b1580156114f357600080fd5b505af1925050508015611504575060015b5060015b8660ff1681101561160b5760405163755edd1760e01b81523360048201526001600160a01b038b169063755edd17906024016020604051808303816000875af1158015611559573d6000803e3d6000fd5b505050506040513d601f19601f8201168201806040525081019061157d9190613537565b5060fc546001600160a01b0316635a3c652d8b61159a8486613550565b6040516001600160e01b031960e085901b1681526001600160a01b039092166004830152602482015260016044820152606401600060405180830381600087803b1580156115e757600080fd5b505af19250505080156115f8575060015b508061160381613563565b915050611508565b5060408301511561163657825160a084015160c08501516116369260fb928d9286928e928992611d2a565b825133906001600160a01b03908116908b167f3bbd73fed0f94290f16db112f6b7113697c2502dd42aa0ddf8f971472523f10084600161167960ff8d1683613550565b611683919061357c565b6040805192835260208301919091526001600160a01b038e1690820152606081018c905260800160405180910390a45050506116bf6001606555565b505050505050565b6116cf61178c565b6040516386e5800760e01b815260fb60048201526001600160a01b038216602482015273__$7682c538d2a75d26dfca907f0e750789f4$__906386e58007906044016104c8565b61171e61178c565b6001600160a01b0381166117835760405162461bcd60e51b815260206004820152602660248201527f4f776e61626c653a206e6577206f776e657220697320746865207a65726f206160448201526564647265737360d01b6064820152608401610401565b6106758161195e565b6033546001600160a01b0316331461080d5760405162461bcd60e51b815260206004820181905260248201527f4f776e61626c653a2063616c6c6572206973206e6f7420746865206f776e65726044820152606401610401565b61067561178c565b7f4910fdfa16fed3260ed0e7147f7cc6da11a60208b5b9406d12a635614ffd91435460ff16156118265761182183612634565b505050565b826001600160a01b03166352d1902d6040518163ffffffff1660e01b8152600401602060405180830381865afa925050508015611880575060408051601f3d908101601f1916820190925261187d91810190613537565b60015b6118e35760405162461bcd60e51b815260206004820152602e60248201527f45524331393637557067726164653a206e657720696d706c656d656e7461746960448201526d6f6e206973206e6f74205555505360901b6064820152608401610401565b60008051602061389d83398151915281146119525760405162461bcd60e51b815260206004820152602960248201527f45524331393637557067726164653a20756e737570706f727465642070726f786044820152681a58589b195555525160ba1b6064820152608401610401565b506118218383836126d0565b603380546001600160a01b038381166001600160a01b0319831681179093556040519116919082907f8be0079c531659141344cd1fd0a4f28419497f9722a3daafe3b4186f6b6457e090600090a35050565b600054610100900460ff166119d75760405162461bcd60e51b81526004016104019061358f565b61080d6126f5565b600260655403611a315760405162461bcd60e51b815260206004820152601f60248201527f5265656e7472616e637947756172643a207265656e7472616e742063616c6c006044820152606401610401565b6002606555565b6001600160a01b0383166000908152610104602052604090205480611a5d5750505050565b6001600160a01b038416600090815261010460205260409020600101544210611a865750505050565b6040516bffffffffffffffffffffffff19606085901b166020820152611ac690603401604051602081830303815290604052805190602001208284612725565b611b295760405162461bcd60e51b815260206004820152602e60248201527f5f656e666f726365416c6c6f774c69737465643a3a41646472657373206e6f7460448201526d081bdb88185b1b1bddc81b1a5cdd60921b6064820152608401610401565b50505050565b6001600160a01b038216611b82578034146107445760405162461bcd60e51b81526020600482015260136024820152721b9bdd08195b9bdd59da08195d1a081cd95b9d606a1b6044820152606401610401565b3415611be15760405162461bcd60e51b815260206004820152602860248201527f6d73672e76616c75652073686f756c642062652030207768656e206e6f7420756044820152670e6d2dcce40cae8d60c31b6064820152608401610401565b6040516370a0823160e01b815230600482015282906000906001600160a01b038316906370a0823190602401602060405180830381865afa158015611c2a573d6000803e3d6000fd5b505050506040513d601f19601f82011682018060405250810190611c4e9190613537565b9050611c656001600160a01b038316333086612775565b6040516370a0823160e01b81523060048201526000906001600160a01b038416906370a0823190602401602060405180830381865afa158015611cac573d6000803e3d6000fd5b505050506040513d601f19601f82011682018060405250810190611cd09190613537565b905083611cdd838361357c565b146104f45760405162461bcd60e51b815260206004820152601c60248201527f6e6f7420656e6f75676820746f6b656e73207472616e736665726564000000006044820152606401610401565b8051825114611d975760405162461bcd60e51b815260206004820152603360248201527f4e756d626572206f662073706c69742061646472657373657320616e642072616044820152723a34b7b99036bab9ba1031329032b8bab0b61760691b6064820152608401610401565b60018801546040516361fe24a960e11b81526004810186905285916000916001600160a01b039091169063c3fc495290602401602060405180830381865afa158015611de7573d6000803e3d6000fd5b505050506040513d601f19601f82011682018060405250810190611e0b9190613537565b604080516002808252606082018352929350600092909160208301908036833750508c5482519293506001600160a01b031691839150600090611e5057611e506135da565b6001600160a01b03928316602091820292909201015260078c015460405163e286ef3360e01b8152888316600482015291169063e286ef3390602401602060405180830381865afa158015611ea9573d6000803e3d6000fd5b505050506040513d601f19601f82011682018060405250810190611ecd91906132d3565b81600181518110611ee057611ee06135da565b60200260200101906001600160a01b031690816001600160a01b03168152505060006001600160a01b031681600181518110611f1e57611f1e6135da565b60200260200101516001600160a01b031614611f545780600181518110611f4757611f476135da565b6020026020010151611f60565b8a546001600160a01b03165b81600181518110611f7357611f736135da565b6001600160a01b039290921660209283029190910182015260408051600280825260608201835260009391929091830190803683370190505060068d01546040516303fdde1160e21b8152600481018b90529192506001600160a01b031690630ff7784490602401602060405180830381865afa158015611ff8573d6000803e3d6000fd5b505050506040513d601f19601f8201168201806040525081019061201c9190613537565b8160008151811061202f5761202f6135da565b602090810291909101015260068c015460405163470d6ed960e11b8152600481018a90526001600160a01b0390911690638e1addb290602401602060405180830381865afa158015612085573d6000803e3d6000fd5b505050506040513d601f19601f820116820180604052508101906120a99190613537565b816001815181106120bc576120bc6135da565b6020026020010181815250506120d58c8a8585856127e0565b60018c0154604051631446f21360e21b81526001600160a01b038d81166004830152602482018d90529091169063511bc84c90604401602060405180830381865afa158015612128573d6000803e3d6000fd5b505050506040513d601f19601f8201168201806040525081019061214c91906135f0565b61242d57604080516001808252818301909252600091602080830190803683375050604080516001808252818301909252929350600092915060208083019080368337019050509050836000815181106121a8576121a86135da565b6020026020010151816000815181106121c3576121c36135da565b6001600160a01b03928316602091820292909201015260028f0154604051635dc22eff60e01b81528b83166004820152911690635dc22eff90602401602060405180830381865afa15801561221c573d6000803e3d6000fd5b505050506040513d601f19601f8201168201806040525081019061224091906135f0565b1561233f5760028e0154604051632260494f60e01b81526001600160a01b038b811660048301526000921690632260494f90602401602060405180830381865afa158015612292573d6000803e3d6000fd5b505050506040513d601f19601f820116820180604052508101906122b69190613612565b60ff16905060646122c7828d613520565b6122d1919061362f565b6122db908861357c565b965060646122e9828d613520565b6122f3919061362f565b83600081518110612306576123066135da565b6020026020010181815250506123398f8d8560008151811061232a5761232a6135da565b602002602001015185876127e0565b50612426565b60018e015460405163b28a7bad60e01b81526001600160a01b038f81166004830152600092169063b28a7bad90602401602060405180830381865afa15801561238c573d6000803e3d6000fd5b505050506040513d601f19601f820116820180604052508101906123b09190613612565b60ff16905060646123c1828d613520565b6123cb919061362f565b6123d5908861357c565b965060646123e3828d613520565b6123ed919061362f565b83600081518110612400576124006135da565b6020026020010181815250506124248f8d8560008151811061232a5761232a6135da565b505b505061251d565b60038c0154604051637a99dc0160e11b81526001600160a01b038d81166004830152602482018d9052604482018b9052600092839291169063f533b802906064016000604051808303816000875af115801561248d573d6000803e3d6000fd5b505050506040513d6000823e601f3d908101601f191682016040526124b591908101906136e0565b915091506000805b82518110156124ff578281815181106124d8576124d86135da565b6020026020010151826124eb9190613550565b9150806124f781613563565b9150506124bd565b5061250a818861357c565b96506125198f8d8386866127e0565b5050505b6000865167ffffffffffffffff81111561253957612539612eb6565b604051908082528060200260200182016040528015612562578160200160208202803683370190505b5090506000805b8851811015612616576064888281518110612586576125866135da565b602002602001015160ff168861259c9190613520565b6125a6919061362f565b8382815181106125b8576125b86135da565b60200260200101818152505060648882815181106125d8576125d86135da565b602002602001015160ff16886125ee9190613520565b6125f8919061362f565b6126029083613550565b91508061260e81613563565b915050612569565b506126248e8c838b866127e0565b5050505050505050505050505050565b6001600160a01b0381163b6126a15760405162461bcd60e51b815260206004820152602d60248201527f455243313936373a206e657720696d706c656d656e746174696f6e206973206e60448201526c1bdd08184818dbdb9d1c9858dd609a1b6064820152608401610401565b60008051602061389d83398151915280546001600160a01b0319166001600160a01b0392909216919091179055565b6126d983612947565b6000825111806126e65750805b1561182157611b298383612987565b600054610100900460ff1661271c5760405162461bcd60e51b81526004016104019061358f565b61080d3361195e565b600083815b835181101561276a5761275682858381518110612749576127496135da565b60200260200101516129b5565b91508061276281613563565b91505061272a565b509092149392505050565b6040516001600160a01b0380851660248301528316604482015260648101829052611b299085906323b872dd60e01b906084015b60408051601f198184030181529190526020810180516001600160e01b03166001600160e01b031990931692909217909152612a1b565b6001600160a01b0384166128cf57600485015460405160009182916001600160a01b0390911690869063c176e63960e01b9061282290889088906024016137a5565b60408051601f198184030181529181526020820180516001600160e01b03166001600160e01b0319909416939093179092529051612860919061384d565b60006040518083038185875af1925050503d806000811461289d576040519150601f19603f3d011682016040523d82523d6000602084013e6128a2565b606091505b50915091508181906128c75760405162461bcd60e51b81526004016104019190613869565b5050506104f4565b8360005b835181101561293e5761292c8482815181106128f1576128f16135da565b602002602001015184838151811061290b5761290b6135da565b6020026020010151846001600160a01b0316612af09092919063ffffffff16565b8061293681613563565b9150506128d3565b50505050505050565b61295081612634565b6040516001600160a01b038216907fbc7cd75a20ee27fd9adebab32041f755214dbc6bffa90cc0225b39da2e5c2d3b90600090a250565b60606129ac83836040518060600160405280602781526020016138bd60279139612b20565b90505b92915050565b6000818311156129ee576040805160208101849052908101849052606001604051602081830303815290604052805190602001206129ac565b50604080516020808201949094528082019290925280518083038201815260609092019052805191012090565b6000612a70826040518060400160405280602081526020017f5361666545524332303a206c6f772d6c6576656c2063616c6c206661696c6564815250856001600160a01b0316612b989092919063ffffffff16565b9050805160001480612a91575080806020019051810190612a9191906135f0565b6118215760405162461bcd60e51b815260206004820152602a60248201527f5361666545524332303a204552433230206f7065726174696f6e20646964206e6044820152691bdd081cdd58d8d9595960b21b6064820152608401610401565b6040516001600160a01b03831660248201526044810182905261182190849063a9059cbb60e01b906064016127a9565b6060600080856001600160a01b031685604051612b3d919061384d565b600060405180830381855af49150503d8060008114612b78576040519150601f19603f3d011682016040523d82523d6000602084013e612b7d565b606091505b5091509150612b8e86838387612baf565b9695505050505050565b6060612ba78484600085612c28565b949350505050565b60608315612c1e578251600003612c17576001600160a01b0385163b612c175760405162461bcd60e51b815260206004820152601d60248201527f416464726573733a2063616c6c20746f206e6f6e2d636f6e74726163740000006044820152606401610401565b5081612ba7565b612ba78383612d03565b606082471015612c895760405162461bcd60e51b815260206004820152602660248201527f416464726573733a20696e73756666696369656e742062616c616e636520666f6044820152651c8818d85b1b60d21b6064820152608401610401565b600080866001600160a01b03168587604051612ca5919061384d565b60006040518083038185875af1925050503d8060008114612ce2576040519150601f19603f3d011682016040523d82523d6000602084013e612ce7565b606091505b5091509150612cf887838387612baf565b979650505050505050565b815115612d135781518083602001fd5b8060405162461bcd60e51b81526004016104019190613869565b828054828255906000526020600020908101928215612d82579160200282015b82811115612d8257825182546001600160a01b0319166001600160a01b03909116178255602090920191600190910190612d4d565b50612d8e929150612e2f565b5090565b82805482825590600052602060002090601f01602090048101928215612d825791602002820160005b83821115612df957835183826101000a81548160ff021916908360ff1602179055509260200192600101602081600001049283019260010302612dbb565b8015612e265782816101000a81549060ff0219169055600101602081600001049283019260010302612df9565b5050612d8e9291505b5b80821115612d8e5760008155600101612e30565b6001600160a01b038116811461067557600080fd5b600080600060608486031215612e6e57600080fd5b83359250602084013591506040840135612e8781612e44565b809150509250925092565b600060208284031215612ea457600080fd5b8135612eaf81612e44565b9392505050565b634e487b7160e01b600052604160045260246000fd5b604051601f8201601f1916810167ffffffffffffffff81118282101715612ef557612ef5612eb6565b604052919050565b60008060408385031215612f1057600080fd5b8235612f1b81612e44565b915060208381013567ffffffffffffffff80821115612f3957600080fd5b818601915086601f830112612f4d57600080fd5b813581811115612f5f57612f5f612eb6565b612f71601f8201601f19168501612ecc565b91508082528784828501011115612f8757600080fd5b80848401858401376000848284010152508093505050509250929050565b60008083601f840112612fb757600080fd5b50813567ffffffffffffffff811115612fcf57600080fd5b6020830191508360208260051b8501011115612fea57600080fd5b9250929050565b600080600080600080600080600060e08a8c03121561300f57600080fd5b893561301a81612e44565b985060208a013561302a81612e44565b975060408a0135965060608a0135955060808a0135945060a08a013567ffffffffffffffff8082111561305c57600080fd5b6130688d838e01612fa5565b909650945060c08c013591508082111561308157600080fd5b5061308e8c828d01612fa5565b915080935050809150509295985092959850929598565b600080600080600080600080610100898b0312156130c257600080fd5b88356130cd81612e44565b975060208901356130dd81612e44565b965060408901356130ed81612e44565b955060608901356130fd81612e44565b9450608089013561310d81612e44565b935060a089013561311d81612e44565b925060c089013561312d81612e44565b915060e089013561313d81612e44565b809150509295985092959890939650565b600081518084526020808501945080840160005b8381101561318157815160ff1687529582019590820190600101613162565b509495945050505050565b60006020808352610100830160018060a01b03808651168386015280838701511660408601526040860151606086015260608601516080860152608086015160a086015260a086015160e060c0870152828151808552610120880191508583019450600092505b80831015613215578451841682529385019360019290920191908501906131f3565b5060c0880151878203601f190160e08901529450613233818661314e565b98975050505050505050565b60ff8116811461067557600080fd5b60008060008060008060a0878903121561326757600080fd5b863561327281612e44565b9550602087013561328281612e44565b94506040870135935060608701356132998161323f565b9250608087013567ffffffffffffffff8111156132b557600080fd5b6132c189828a01612fa5565b979a9699509497509295939492505050565b6000602082840312156132e557600080fd5b8151612eaf81612e44565b6020808252602c908201527f46756e6374696f6e206d7573742062652063616c6c6564207468726f7567682060408201526b19195b1959d85d1958d85b1b60a21b606082015260800190565b6020808252602c908201527f46756e6374696f6e206d7573742062652063616c6c6564207468726f7567682060408201526b6163746976652070726f787960a01b606082015260800190565b600060a082018983526020898185015288604085015260a060608501528187835260c08501905088925060005b888110156133e35783356133c881612e44565b6001600160a01b0316825292820192908201906001016133b5565b508481036080860152858152810191508560005b8681101561341f57813561340a8161323f565b60ff16845292820192908201906001016133f7565b50919b9a5050505050505050505050565b805161343b81612e44565b919050565b600061010080838503121561345457600080fd5b6040519081019067ffffffffffffffff8211818310171561347757613477612eb6565b816040528351915061348882612e44565b81815261349760208501613430565b60208201526134a860408501613430565b60408201526134b960608501613430565b60608201526134ca60808501613430565b60808201526134db60a08501613430565b60a08201526134ec60c08501613430565b60c08201526134fd60e08501613430565b60e0820152949350505050565b634e487b7160e01b600052601160045260246000fd5b80820281158282048414176129af576129af61350a565b60006020828403121561354957600080fd5b5051919050565b808201808211156129af576129af61350a565b6000600182016135755761357561350a565b5060010190565b818103818111156129af576129af61350a565b6020808252602b908201527f496e697469616c697a61626c653a20636f6e7472616374206973206e6f74206960408201526a6e697469616c697a696e6760a81b606082015260800190565b634e487b7160e01b600052603260045260246000fd5b60006020828403121561360257600080fd5b81518015158114612eaf57600080fd5b60006020828403121561362457600080fd5b8151612eaf8161323f565b60008261364c57634e487b7160e01b600052601260045260246000fd5b500490565b600067ffffffffffffffff82111561366b5761366b612eb6565b5060051b60200190565b600082601f83011261368657600080fd5b8151602061369b61369683613651565b612ecc565b82815260059290921b840181019181810190868411156136ba57600080fd5b8286015b848110156136d557805183529183019183016136be565b509695505050505050565b600080604083850312156136f357600080fd5b825167ffffffffffffffff8082111561370b57600080fd5b818501915085601f83011261371f57600080fd5b8151602061372f61369683613651565b82815260059290921b8401810191818101908984111561374e57600080fd5b948201945b8386101561377557855161376681612e44565b82529482019490820190613753565b9188015191965090935050508082111561378e57600080fd5b5061379b85828601613675565b9150509250929050565b604080825283519082018190526000906020906060840190828701845b828110156137e75781516001600160a01b0316845292840192908401906001016137c2565b5050508381038285015284518082528583019183019060005b8181101561381c57835183529284019291840191600101613800565b5090979650505050505050565b60005b8381101561384457818101518382015260200161382c565b50506000910152565b6000825161385f818460208701613829565b9190910192915050565b6020815260008251806020840152613888816040850160208701613829565b601f01601f1916919091016040019291505056fe360894a13ba1a3210667c828492db98dca3e2076cc3735a920a3ca505d382bbc416464726573733a206c6f772d6c6576656c2064656c65676174652063616c6c206661696c6564a26469706673582212207e194c050d8e2727431057ae8e7e52a11a9fbf2fe4b6d255db5028ce40d5f30e64736f6c63430008120033",
    "linkReferences": {
      "src/utils/structs/MarketConfig.sol": {
        "MarketConfig": [
          {
            "start": 1270,
            "length": 20
          },
          {
            "start": 1396,
            "length": 20
          },
          {
            "start": 1475,
            "length": 20
          },
          {
            "start": 2863,
            "length": 20
          },
          {
            "start": 3175,
            "length": 20
          },
          {
            "start": 3968,
            "length": 20
          },
          {
            "start": 5952,
            "length": 20
          }
        ]
      }
    }
  },
  "methodIdentifiers": {
    "getDirectSaleConfig(address)": "a01fa6a9",
    "initialize(address,address,address,address,address,address,address,address)": "8a29e2de",
    "mintDirectSale(address,address,uint256,uint8,bytes32[])": "d647ed3c",
    "owner()": "8da5cb5b",
    "prepareMintDirectSale(address,address,uint256,uint256,uint256,address[],uint8[])": "78c19898",
    "proxiableUUID()": "52d1902d",
    "renounceOwnership()": "715018a6",
    "setApprovedTokenRegistry(address)": "e4e87e3b",
    "setContractAllowListConfig(bytes32,uint256,address)": "0fc635b3",
    "setMarketplaceSettings(address)": "176ab440",
    "setNetworkBeneficiary(address)": "3492e5a8",
    "setPayments(address)": "af231a58",
    "setRoyaltyEngine(address)": "21ede032",
    "setSpaceOperatorRegistry(address)": "7f358230",
    "transferOwnership(address)": "f2fde38b",
    "upgradeTo(address)": "3659cfe6",
    "upgradeToAndCall(address,bytes)": "4f1ef286"
  },
  "id": 67
}