{
  "abi": [
    {
      "inputs": [],
      "stateMutability": "nonpayable",
      "type": "constructor"
    },
    {
      "inputs": [],
      "name": "InsufficientRareAllowance",
      "type": "error"
    },
    {
      "inputs": [],
      "name": "InvalidPool",
      "type": "error"
    },
    {
      "inputs": [],
      "name": "PercentageBeyondLimit",
      "type": "error"
    },
    {
      "inputs": [],
      "name": "PeriodLengthBeyondLimit",
      "type": "error"
    },
    {
      "inputs": [],
      "name": "RenouncingAdmin",
      "type": "error"
    },
    {
      "inputs": [],
      "name": "StakingContractAlreadyExists",
      "type": "error"
    },
    {
      "inputs": [],
      "name": "Unauthorized",
      "type": "error"
    },
    {
      "inputs": [],
      "name": "ZeroAddressUnsupported",
      "type": "error"
    },
    {
      "anonymous": false,
      "inputs": [
        {
          "indexed": false,
          "internalType": "address",
          "name": "previousAdmin",
          "type": "address"
        },
        {
          "indexed": false,
          "internalType": "address",
          "name": "newAdmin",
          "type": "address"
        }
      ],
      "name": "AdminChanged",
      "type": "event"
    },
    {
      "anonymous": false,
      "inputs": [
        {
          "indexed": true,
          "internalType": "address",
          "name": "beacon",
          "type": "address"
        }
      ],
      "name": "BeaconUpgraded",
      "type": "event"
    },
    {
      "anonymous": false,
      "inputs": [
        {
          "indexed": false,
          "internalType": "address",
          "name": "_payee",
          "type": "address"
        }
      ],
      "name": "DefaultPayeeUpdated",
      "type": "event"
    },
    {
      "anonymous": false,
      "inputs": [
        {
          "indexed": false,
          "internalType": "uint256",
          "name": "_percentage",
          "type": "uint256"
        }
      ],
      "name": "DeflationaryPercentageUpdated",
      "type": "event"
    },
    {
      "anonymous": false,
      "inputs": [
        {
          "indexed": false,
          "internalType": "uint256",
          "name": "_percentage",
          "type": "uint256"
        }
      ],
      "name": "DiscountPercentageUpdated",
      "type": "event"
    },
    {
      "anonymous": false,
      "inputs": [
        {
          "indexed": false,
          "internalType": "uint8",
          "name": "version",
          "type": "uint8"
        }
      ],
      "name": "Initialized",
      "type": "event"
    },
    {
      "anonymous": false,
      "inputs": [
        {
          "indexed": false,
          "internalType": "uint256",
          "name": "_periodLength",
          "type": "uint256"
        }
      ],
      "name": "PeriodLengthUpdated",
      "type": "event"
    },
    {
      "anonymous": false,
      "inputs": [
        {
          "indexed": false,
          "internalType": "address",
          "name": "_resolver",
          "type": "address"
        }
      ],
      "name": "ResolverUpdated",
      "type": "event"
    },
    {
      "anonymous": false,
      "inputs": [
        {
          "indexed": false,
          "internalType": "address",
          "name": "_percentage",
          "type": "address"
        }
      ],
      "name": "ReverseRegistrarUpdated",
      "type": "event"
    },
    {
      "anonymous": false,
      "inputs": [
        {
          "indexed": true,
          "internalType": "bytes32",
          "name": "role",
          "type": "bytes32"
        },
        {
          "indexed": true,
          "internalType": "bytes32",
          "name": "previousAdminRole",
          "type": "bytes32"
        },
        {
          "indexed": true,
          "internalType": "bytes32",
          "name": "newAdminRole",
          "type": "bytes32"
        }
      ],
      "name": "RoleAdminChanged",
      "type": "event"
    },
    {
      "anonymous": false,
      "inputs": [
        {
          "indexed": true,
          "internalType": "bytes32",
          "name": "role",
          "type": "bytes32"
        },
        {
          "indexed": true,
          "internalType": "address",
          "name": "account",
          "type": "address"
        },
        {
          "indexed": true,
          "internalType": "address",
          "name": "sender",
          "type": "address"
        }
      ],
      "name": "RoleGranted",
      "type": "event"
    },
    {
      "anonymous": false,
      "inputs": [
        {
          "indexed": true,
          "internalType": "bytes32",
          "name": "role",
          "type": "bytes32"
        },
        {
          "indexed": true,
          "internalType": "address",
          "name": "account",
          "type": "address"
        },
        {
          "indexed": true,
          "internalType": "address",
          "name": "sender",
          "type": "address"
        }
      ],
      "name": "RoleRevoked",
      "type": "event"
    },
    {
      "anonymous": false,
      "inputs": [
        {
          "indexed": false,
          "internalType": "address",
          "name": "_uniswapPool",
          "type": "address"
        },
        {
          "indexed": false,
          "internalType": "address",
          "name": "_token",
          "type": "address"
        }
      ],
      "name": "SetSwapPool",
      "type": "event"
    },
    {
      "anonymous": false,
      "inputs": [
        {
          "indexed": true,
          "internalType": "address",
          "name": "implementation",
          "type": "address"
        }
      ],
      "name": "Upgraded",
      "type": "event"
    },
    {
      "inputs": [],
      "name": "DEFAULT_ADMIN_ROLE",
      "outputs": [
        {
          "internalType": "bytes32",
          "name": "",
          "type": "bytes32"
        }
      ],
      "stateMutability": "view",
      "type": "function"
    },
    {
      "inputs": [],
      "name": "ENS_SETTER_ROLE",
      "outputs": [
        {
          "internalType": "bytes32",
          "name": "",
          "type": "bytes32"
        }
      ],
      "stateMutability": "view",
      "type": "function"
    },
    {
      "inputs": [],
      "name": "STAKING_CONFIG_SETTER_ROLE",
      "outputs": [
        {
          "internalType": "bytes32",
          "name": "",
          "type": "bytes32"
        }
      ],
      "stateMutability": "view",
      "type": "function"
    },
    {
      "inputs": [],
      "name": "STAKING_INFO_SETTER_ROLE",
      "outputs": [
        {
          "internalType": "bytes32",
          "name": "",
          "type": "bytes32"
        }
      ],
      "stateMutability": "view",
      "type": "function"
    },
    {
      "inputs": [],
      "name": "STAKING_STAT_SETTER_ADMIN_ROLE",
      "outputs": [
        {
          "internalType": "bytes32",
          "name": "",
          "type": "bytes32"
        }
      ],
      "stateMutability": "view",
      "type": "function"
    },
    {
      "inputs": [],
      "name": "STAKING_STAT_SETTER_ROLE",
      "outputs": [
        {
          "internalType": "bytes32",
          "name": "",
          "type": "bytes32"
        }
      ],
      "stateMutability": "view",
      "type": "function"
    },
    {
      "inputs": [],
      "name": "SWAP_POOL_SETTER_ROLE",
      "outputs": [
        {
          "internalType": "bytes32",
          "name": "",
          "type": "bytes32"
        }
      ],
      "stateMutability": "view",
      "type": "function"
    },
    {
      "inputs": [
        {
          "internalType": "address",
          "name": "_staker",
          "type": "address"
        },
        {
          "internalType": "address",
          "name": "_stakedOn",
          "type": "address"
        },
        {
          "internalType": "uint256",
          "name": "_amount",
          "type": "uint256"
        }
      ],
      "name": "decreaseAmountStaked",
      "outputs": [],
      "stateMutability": "nonpayable",
      "type": "function"
    },
    {
      "inputs": [],
      "name": "getDefaultPayee",
      "outputs": [
        {
          "internalType": "address",
          "name": "",
          "type": "address"
        }
      ],
      "stateMutability": "view",
      "type": "function"
    },
    {
      "inputs": [],
      "name": "getDeflationaryPercentage",
      "outputs": [
        {
          "internalType": "uint256",
          "name": "",
          "type": "uint256"
        }
      ],
      "stateMutability": "view",
      "type": "function"
    },
    {
      "inputs": [],
      "name": "getDiscountPercentage",
      "outputs": [
        {
          "internalType": "uint256",
          "name": "",
          "type": "uint256"
        }
      ],
      "stateMutability": "view",
      "type": "function"
    },
    {
      "inputs": [],
      "name": "getPeriodLength",
      "outputs": [
        {
          "internalType": "uint256",
          "name": "",
          "type": "uint256"
        }
      ],
      "stateMutability": "view",
      "type": "function"
    },
    {
      "inputs": [],
      "name": "getRareAddress",
      "outputs": [
        {
          "internalType": "address",
          "name": "",
          "type": "address"
        }
      ],
      "stateMutability": "view",
      "type": "function"
    },
    {
      "inputs": [
        {
          "internalType": "address",
          "name": "_user",
          "type": "address"
        }
      ],
      "name": "getRewardAccumulatorAddressForUser",
      "outputs": [
        {
          "internalType": "address",
          "name": "",
          "type": "address"
        }
      ],
      "stateMutability": "view",
      "type": "function"
    },
    {
      "inputs": [
        {
          "internalType": "bytes32",
          "name": "role",
          "type": "bytes32"
        }
      ],
      "name": "getRoleAdmin",
      "outputs": [
        {
          "internalType": "bytes32",
          "name": "",
          "type": "bytes32"
        }
      ],
      "stateMutability": "view",
      "type": "function"
    },
    {
      "inputs": [
        {
          "internalType": "bytes32",
          "name": "role",
          "type": "bytes32"
        },
        {
          "internalType": "uint256",
          "name": "index",
          "type": "uint256"
        }
      ],
      "name": "getRoleMember",
      "outputs": [
        {
          "internalType": "address",
          "name": "",
          "type": "address"
        }
      ],
      "stateMutability": "view",
      "type": "function"
    },
    {
      "inputs": [
        {
          "internalType": "bytes32",
          "name": "role",
          "type": "bytes32"
        }
      ],
      "name": "getRoleMemberCount",
      "outputs": [
        {
          "internalType": "uint256",
          "name": "",
          "type": "uint256"
        }
      ],
      "stateMutability": "view",
      "type": "function"
    },
    {
      "inputs": [
        {
          "internalType": "address",
          "name": "_user",
          "type": "address"
        }
      ],
      "name": "getStakingAddressForUser",
      "outputs": [
        {
          "internalType": "address",
          "name": "",
          "type": "address"
        }
      ],
      "stateMutability": "view",
      "type": "function"
    },
    {
      "inputs": [
        {
          "internalType": "address",
          "name": "_user",
          "type": "address"
        }
      ],
      "name": "getStakingInfoForUser",
      "outputs": [
        {
          "components": [
            {
              "internalType": "string",
              "name": "name",
              "type": "string"
            },
            {
              "internalType": "string",
              "name": "symbol",
              "type": "string"
            },
            {
              "internalType": "address",
              "name": "stakingAddress",
              "type": "address"
            },
            {
              "internalType": "address",
              "name": "rewardAddress",
              "type": "address"
            }
          ],
          "internalType": "struct IRareStakingRegistry.Info",
          "name": "",
          "type": "tuple"
        }
      ],
      "stateMutability": "view",
      "type": "function"
    },
    {
      "inputs": [
        {
          "internalType": "address",
          "name": "_token",
          "type": "address"
        }
      ],
      "name": "getSwapPool",
      "outputs": [
        {
          "internalType": "address",
          "name": "",
          "type": "address"
        }
      ],
      "stateMutability": "view",
      "type": "function"
    },
    {
      "inputs": [
        {
          "internalType": "address",
          "name": "_user",
          "type": "address"
        }
      ],
      "name": "getTotalAmountStakedByUser",
      "outputs": [
        {
          "internalType": "uint256",
          "name": "amount",
          "type": "uint256"
        }
      ],
      "stateMutability": "view",
      "type": "function"
    },
    {
      "inputs": [
        {
          "internalType": "address",
          "name": "_user",
          "type": "address"
        }
      ],
      "name": "getTotalAmountStakedOnUser",
      "outputs": [
        {
          "internalType": "uint256",
          "name": "amount",
          "type": "uint256"
        }
      ],
      "stateMutability": "view",
      "type": "function"
    },
    {
      "inputs": [
        {
          "internalType": "address[]",
          "name": "_stakingAddrs",
          "type": "address[]"
        }
      ],
      "name": "getUsersForStakingAddresses",
      "outputs": [
        {
          "internalType": "address[]",
          "name": "",
          "type": "address[]"
        }
      ],
      "stateMutability": "view",
      "type": "function"
    },
    {
      "inputs": [],
      "name": "getWethAddress",
      "outputs": [
        {
          "internalType": "address",
          "name": "",
          "type": "address"
        }
      ],
      "stateMutability": "view",
      "type": "function"
    },
    {
      "inputs": [
        {
          "internalType": "bytes32",
          "name": "role",
          "type": "bytes32"
        },
        {
          "internalType": "address",
          "name": "account",
          "type": "address"
        }
      ],
      "name": "grantRole",
      "outputs": [],
      "stateMutability": "nonpayable",
      "type": "function"
    },
    {
      "inputs": [
        {
          "internalType": "bytes32",
          "name": "role",
          "type": "bytes32"
        },
        {
          "internalType": "address",
          "name": "account",
          "type": "address"
        }
      ],
      "name": "hasRole",
      "outputs": [
        {
          "internalType": "bool",
          "name": "",
          "type": "bool"
        }
      ],
      "stateMutability": "view",
      "type": "function"
    },
    {
      "inputs": [
        {
          "internalType": "address",
          "name": "_staker",
          "type": "address"
        },
        {
          "internalType": "address",
          "name": "_stakedOn",
          "type": "address"
        },
        {
          "internalType": "uint256",
          "name": "_amount",
          "type": "uint256"
        }
      ],
      "name": "increaseAmountStaked",
      "outputs": [],
      "stateMutability": "nonpayable",
      "type": "function"
    },
    {
      "inputs": [
        {
          "internalType": "address",
          "name": "_owner",
          "type": "address"
        },
        {
          "internalType": "address",
          "name": "_reverseRegistrar",
          "type": "address"
        },
        {
          "internalType": "address",
          "name": "_resolver",
          "type": "address"
        },
        {
          "internalType": "uint256",
          "name": "_periodLength",
          "type": "uint256"
        },
        {
          "internalType": "uint256",
          "name": "_deflationaryPercentage",
          "type": "uint256"
        },
        {
          "internalType": "uint256",
          "name": "_discountedPercent",
          "type": "uint256"
        },
        {
          "internalType": "address",
          "name": "_rare",
          "type": "address"
        },
        {
          "internalType": "address",
          "name": "_weth",
          "type": "address"
        },
        {
          "internalType": "address",
          "name": "_defaultPayee",
          "type": "address"
        }
      ],
      "name": "initialize",
      "outputs": [],
      "stateMutability": "nonpayable",
      "type": "function"
    },
    {
      "inputs": [],
      "name": "proxiableUUID",
      "outputs": [
        {
          "internalType": "bytes32",
          "name": "",
          "type": "bytes32"
        }
      ],
      "stateMutability": "view",
      "type": "function"
    },
    {
      "inputs": [
        {
          "internalType": "bytes32",
          "name": "role",
          "type": "bytes32"
        },
        {
          "internalType": "address",
          "name": "account",
          "type": "address"
        }
      ],
      "name": "renounceRole",
      "outputs": [],
      "stateMutability": "nonpayable",
      "type": "function"
    },
    {
      "inputs": [
        {
          "internalType": "bytes32",
          "name": "role",
          "type": "bytes32"
        },
        {
          "internalType": "address",
          "name": "account",
          "type": "address"
        }
      ],
      "name": "revokeRole",
      "outputs": [],
      "stateMutability": "nonpayable",
      "type": "function"
    },
    {
      "inputs": [
        {
          "internalType": "address",
          "name": "_payee",
          "type": "address"
        }
      ],
      "name": "setDefaultPayee",
      "outputs": [],
      "stateMutability": "nonpayable",
      "type": "function"
    },
    {
      "inputs": [
        {
          "internalType": "uint256",
          "name": "_percentage",
          "type": "uint256"
        }
      ],
      "name": "setDeflationaryPercentage",
      "outputs": [],
      "stateMutability": "nonpayable",
      "type": "function"
    },
    {
      "inputs": [
        {
          "internalType": "uint256",
          "name": "_percentage",
          "type": "uint256"
        }
      ],
      "name": "setDiscountPercentage",
      "outputs": [],
      "stateMutability": "nonpayable",
      "type": "function"
    },
    {
      "inputs": [
        {
          "internalType": "uint256",
          "name": "_periodLength",
          "type": "uint256"
        }
      ],
      "name": "setPeriodLength",
      "outputs": [],
      "stateMutability": "nonpayable",
      "type": "function"
    },
    {
      "inputs": [
        {
          "internalType": "address",
          "name": "_resolver",
          "type": "address"
        }
      ],
      "name": "setResolver",
      "outputs": [],
      "stateMutability": "nonpayable",
      "type": "function"
    },
    {
      "inputs": [
        {
          "internalType": "address",
          "name": "_reverseRegistrar",
          "type": "address"
        }
      ],
      "name": "setReverseRegistrar",
      "outputs": [],
      "stateMutability": "nonpayable",
      "type": "function"
    },
    {
      "inputs": [
        {
          "internalType": "address",
          "name": "_user",
          "type": "address"
        },
        {
          "internalType": "address",
          "name": "_stakingAddress",
          "type": "address"
        },
        {
          "internalType": "address",
          "name": "_rewardSwapAddress",
          "type": "address"
        }
      ],
      "name": "setStakingAddresses",
      "outputs": [],
      "stateMutability": "nonpayable",
      "type": "function"
    },
    {
      "inputs": [
        {
          "internalType": "address",
          "name": "_uniswapPool",
          "type": "address"
        },
        {
          "internalType": "address",
          "name": "_token",
          "type": "address"
        }
      ],
      "name": "setSwapPool",
      "outputs": [],
      "stateMutability": "nonpayable",
      "type": "function"
    },
    {
      "inputs": [
        {
          "internalType": "bytes4",
          "name": "interfaceId",
          "type": "bytes4"
        }
      ],
      "name": "supportsInterface",
      "outputs": [
        {
          "internalType": "bool",
          "name": "",
          "type": "bool"
        }
      ],
      "stateMutability": "view",
      "type": "function"
    },
    {
      "inputs": [
        {
          "internalType": "address",
          "name": "_from",
          "type": "address"
        },
        {
          "internalType": "address",
          "name": "_to",
          "type": "address"
        },
        {
          "internalType": "uint256",
          "name": "_amount",
          "type": "uint256"
        }
      ],
      "name": "transferRareFrom",
      "outputs": [],
      "stateMutability": "nonpayable",
      "type": "function"
    },
    {
      "inputs": [
        {
          "internalType": "address",
          "name": "newImplementation",
          "type": "address"
        }
      ],
      "name": "upgradeTo",
      "outputs": [],
      "stateMutability": "nonpayable",
      "type": "function"
    },
    {
      "inputs": [
        {
          "internalType": "address",
          "name": "newImplementation",
          "type": "address"
        },
        {
          "internalType": "bytes",
          "name": "data",
          "type": "bytes"
        }
      ],
      "name": "upgradeToAndCall",
      "outputs": [],
      "stateMutability": "payable",
      "type": "function"
    }
  ],
  "bytecode": {
    "object": "0x60a08060405234620000e157306080526000549060ff8260081c166200008f575060ff8082160362000053575b6040516134cc9081620000e7823960805181818161096801528181610fed01526121140152f35b60ff90811916176000557f7f26b83ff96e1f2b6a682f133852f6798a09c465da95921460cefb3847402498602060405160ff8152a1386200002c565b62461bcd60e51b815260206004820152602760248201527f496e697469616c697a61626c653a20636f6e747261637420697320696e697469604482015266616c697a696e6760c81b6064820152608490fd5b600080fdfe6080604052600436101561001257600080fd5b60003560e01c806301ffc9a7146102c7578063039bcf8e146102c257806306c571d5146102bd57806310da95e6146102b8578063111029b9146102b357806318ab58ac146102ae5780631c5633d7146102a95780632210d525146102a457806323a7b42a1461029f578063248a9ca31461029a5780632608ff3514610295578063265718b41461029057806329b4a5901461028b5780632f2ff15d14610286578063363227e51461028157806336568abe1461027c5780633659cfe6146102775780633d867d951461027257806346ccbb401461026d5780634e543b26146102685780634f1ef2861461026357806352d1902d1461025e578063557499ba1461025957806366951bc11461025457806376a250a71461024f57806381910e331461024a57806381d0606b146102455780638469ddc7146102405780639010d07c1461023b57806391d148541461023657806399247be714610231578063a217fddf1461022c578063a4303a4514610227578063b3428d1514610222578063bb0544a11461021d578063c254498714610218578063ca15c87314610213578063cac7c65c1461020e578063cb8af2b514610209578063d547741f14610204578063e286ef33146101ff578063f24bd8a6146101fa5763f7ef8ead146101f557600080fd5b611a98565b611a19565b61198e565b61194c565b6118d4565b61183a565b61180e565b6117d3565b611695565b61160b565b6115d0565b6115b4565b611514565b6114be565b611477565b611458565b611418565b611351565b611191565b611156565b61109f565b610fda565b610f5e565b610dc8565b610ae3565b610aa5565b610941565b610873565b610838565b61073a565b6106ff565b6106c4565b610625565b6105ca565b6105a0565b610576565b6104c2565b610458565b6103f5565b6103cb565b61038d565b61034d565b346103375760203660031901126103375760043563ffffffff60e01b811680910361033757602090635a05180f60e01b811490811561030c575b506040519015158152f35b637965db0b60e01b811491508115610326575b5038610301565b6301ffc9a760e01b1490503861031f565b600080fd5b6001600160a01b0381160361033757565b3461033757602036600319011261033757602060043561036c8161033c565b60018060a01b0380911660005261012f825260406000205416604051908152f35b34610337576020366003190112610337576004356103aa8161033c565b60018060a01b03166000526101306020526020604060002054604051908152f35b3461033757600036600319011261033757610139546040516001600160a01b039091168152602090f35b3461033757600036600319011261033757602061013854604051908152f35b6020908160408183019282815285518094520193019160005b82811061043b575050505090565b83516001600160a01b03168552938101939281019260010161042d565b346103375760203660031901126103375767ffffffffffffffff6004358181116103375736602382011215610337578060040135918211610337573660248360051b83010111610337576104be9160246104b2920161320d565b60405191829182610414565b0390f35b34610337576020366003190112610337576004356301e133808111610564573360009081526000805160206134578339815191526020526040902061050b9060ff905b54161590565b6105535761054e8161053e7f439c9ef273bcbea625a0b7b93955ba4d4963bc26fdeaafe7dd6e6747794641059361013455565b6040519081529081906020820190565b0390a1005b6040516282b42960e81b8152600490fd5b6040516333f2123960e21b8152600490fd5b3461033757600036600319011261033757610136546040516001600160a01b039091168152602090f35b3461033757600036600319011261033757610137546040516001600160a01b039091168152602090f35b346103375760203660031901126103375760043560005260656020526020600160406000200154604051908152f35b6060906003190112610337576004356106118161033c565b9060243561061e8161033c565b9060443590565b3461033757610633366105f9565b3360009081527fdffa92a6dce6c1a7a1a7024ed0f29537adf8ed32f4fa790e2acb86edab375e3d602052604081205490939192919060ff1615610553576001600160a01b031683526101306020526040832080549091908381019081106106bf579091556001600160a01b031660009081526101316020526040902080549182018092116106bf575580f35b6122d7565b346103375760003660031901126103375760206040517fcfac5101a9a6e666acfba4416612534dd5edcaa6e3fec2fd00fb2e84b0e5e1d78152f35b346103375760003660031901126103375760206040517f1fb53273153c82fe1363373dd3355bec4bce8bdfe349c78a8ad09156481e62218152f35b34610337576040366003190112610337576004356107c760243561075d8161033c565b6107b6600093808552606560205261077b6001604087200154611b7e565b8085526065602090815260408087206001600160a01b0386166000908152925290205460ff16156107cb576000526097602052604060002090565b6001600160a01b03909116906124c9565b5080f35b8085526065602090815260408087206001600160a01b038616600090815292529020805460ff19166001179055336001600160a01b038416827f2f8788117e7eff1d82e926ec794901d17c78024a50270940304540a733656f0d8880a46000526097602052604060002090565b346103375760003660031901126103375760206040517f400c5a1da7685ba9f18764e1fcfab4b29512376de39bc16cc5ea8f80b7b678198152f35b34610337576040366003190112610337576004356024356108938161033c565b811580610929575b61091757336001600160a01b038216036108ba576108b891611ce6565b005b60405162461bcd60e51b815260206004820152602f60248201527f416363657373436f6e74726f6c3a2063616e206f6e6c792072656e6f756e636560448201526e103937b632b9903337b91039b2b63360891b6064820152608490fd5b604051630f29d08f60e31b8152600490fd5b5081600052609760205260016040600020541461089b565b346103375760203660031901126103375760043561095e8161033c565b6001600160a01b037f00000000000000000000000000000000000000000000000000000000000000008116919061099730841415611d97565b6109b4600080516020613477833981519152938285541614611df8565b6109bd8261290a565b604051906020820182811067ffffffffffffffff821117610aa057604052600082527f4910fdfa16fed3260ed0e7147f7cc6da11a60208b5b9406d12a635614ffd91435460ff1615610a155750506108b89150611f6e565b6020600491604094939451928380926352d1902d60e01b825286165afa60009181610a70575b50610a5d5760405162461bcd60e51b815280610a5960048201611f1f565b0390fd5b6108b893610a6b9114611ec1565b611ffe565b610a9291925060203d8111610a99575b610a8a8183610f11565b810190611ea6565b9038610a3b565b503d610a80565b610ea7565b3461033757602036600319011261033757600435610ac28161033c565b60018060a01b03166000526101316020526020604060002054604051908152f35b34610337576040806003193601126103375760048035610b028161033c565b60243591610b0f8361033c565b8351630dfe168160e01b8082526020916001600160a01b0385811692909184818781875afa8015610d2d578391600091610dab575b508189169182911614159081610d5e575b50610d4f57875190815283818681865afa938415610d2d5785948392600091610d32575b5061013754610b98906001600160a01b03165b6001600160a01b031690565b93168314159384610cc9575b505050509050610cbc577f400c5a1da7685ba9f18764e1fcfab4b29512376de39bc16cc5ea8f80b7b678196000526065602052610c25610c21610c1a337f6da372cdc135876fa2103f41fd54c8e90256a3695ad8b2c1f9b75bd17585610d5b9060018060a01b0316600052602052604060002090565b5460ff1690565b1590565b610caf575061054e7f90b58464d7ad372751038449eef244602d2be9c82abdab06596a7677272cd42793610c8f83610c708660018060a01b031660005261012f602052604060002090565b80546001600160a01b0319166001600160a01b03909216919091179055565b516001600160a01b03928316815292909116602083015281906040820190565b83516282b42960e81b8152fd5b835162820f3560e61b8152fd5b81939592945089519283809263d21220a760e01b82525afa918215610d2d57600092610d00575b5050161415819038808080610ba4565b610d1f9250803d10610d26575b610d178183610f11565b810190612951565b3880610cf0565b503d610d0d565b611eb5565b610d499150823d8411610d2657610d178183610f11565b38610b79565b875162820f3560e61b81528590fd5b895163d21220a760e01b815290915085818881885afa8015610d2d578491600091610d8e575b5016141538610b55565b610da59150873d8911610d2657610d178183610f11565b38610d84565b610dc29150863d8811610d2657610d178183610f11565b38610b44565b3461033757602036600319011261033757600435610de58161033c565b6001600160a01b0381168015610e95573360009081527fb75ed0fc7a1f85f450afd172cc64f12750d0fc534f29ed31c78a1268f27d62f160205260409020610e3090610c2190610c1a565b6105535761013380546001600160a01b0319166001600160a01b039092169190911790557f15cd6d20bba01b3fcb790c73829dd07412cbdf689ef818c96a2505889f3736a29061054e905b6040516001600160a01b0390911681529081906020820190565b604051637827912560e01b8152600490fd5b634e487b7160e01b600052604160045260246000fd5b6040810190811067ffffffffffffffff821117610aa057604052565b6060810190811067ffffffffffffffff821117610aa057604052565b60a0810190811067ffffffffffffffff821117610aa057604052565b90601f8019910116810190811067ffffffffffffffff821117610aa057604052565b60405190610f4082610ebd565b565b67ffffffffffffffff8111610aa057601f01601f191660200190565b604036600319011261033757600435610f768161033c565b6024359067ffffffffffffffff8211610337573660238301121561033757816004013590610fa382610f42565b91610fb16040519384610f11565b80835236602482860101116103375760208160009260246108b89701838701378401015261210a565b34610337576000366003190112610337577f00000000000000000000000000000000000000000000000000000000000000006001600160a01b03163003611034576040516000805160206134778339815191528152602090f35b60405162461bcd60e51b815260206004820152603860248201527f555550535570677261646561626c653a206d757374206e6f742062652063616c60448201527f6c6564207468726f7567682064656c656761746563616c6c00000000000000006064820152608490fd5b34610337576020366003190112610337576004356110bc8161033c565b6001600160a01b0381168015610e95573360009081527fb75ed0fc7a1f85f450afd172cc64f12750d0fc534f29ed31c78a1268f27d62f16020526040902061110790610c2190610c1a565b6105535761013280546001600160a01b0319166001600160a01b039092169190911790557fd192c0b229b00473ccb6ccfebf6642805bca1dcdf2d9fb4fd102c7dc7ea4ce239061054e90610e7b565b346103375760003660031901126103375760206040517fb6e1aa954ca88134dedc447027c8ef72953bf046c847542dd28babf3f8d9092f8152f35b3461033757606036600319011261033757600480356111af8161033c565b602435916111bc8361033c565b604435906111c98261033c565b7fcfac5101a9a6e666acfba4416612534dd5edcaa6e3fec2fd00fb2e84b0e5e1d76000526065602052611222610c21610c1a337f4a55a3187d78cc664b71aa8dee9295401eef37043156a0c20d7bc2454518a40f610c03565b611343576001600160a01b0383811615611333578085161561133357821615611324576001600160a01b038316600090815261012d6020526040902061127490610b8c905b546001600160a01b031690565b61131557506108b8926112fa610c70926112ac61128f610f33565b6001600160a01b0385168152916001600160a01b03166020830152565b6001600160a01b038516600090815261012d60205260409020815181546001600160a01b039182166001600160a01b0319918216178355602090930151600190920180549093169116179055565b6001600160a01b0316600090815261012e6020526040902090565b6040516333e9f35b60e11b8152fd5b604051637827912560e01b8152fd5b50604051637827912560e01b8152fd5b6040516282b42960e81b8152fd5b346103375761135f366105f9565b61013654909190611378906001600160a01b0316610b8c565b604051636eb1769f60e11b81526001600160a01b038581166004830152306024830152919491906020816044818986165afa8015610d2d5785916000916113fa575b50106113e85733600090815261012e602052604090206113d990611267565b1615610553576108b893612966565b6040516321a1cc1360e11b8152600490fd5b611412915060203d8111610a9957610a8a8183610f11565b386113ba565b346103375760203660031901126103375760206004356114378161033c565b60018060a01b0380911660005261012d825260406000205416604051908152f35b3461033757600036600319011261033757602061013454604051908152f35b3461033757604036600319011261033757600435600052609760205260206114a56024356040600020612493565b905460405160039290921b1c6001600160a01b03168152f35b3461033757604036600319011261033757602060ff6115086024356114e28161033c565b6004356000526065845260406000209060018060a01b0316600052602052604060002090565b54166040519015158152f35b34610337576020366003190112610337576004356115318161033c565b6001600160a01b03811615610e95573360009081526000805160206134578339815191526020526040902061156990610c2190610c1a565b6105535761013980546001600160a01b0319166001600160a01b0383161790557fa37a7d6d9546ebba206b7200fd6814cc4885bd05277f43db31703508086bac5b9061054e90610e7b565b3461033757600036600319011261033757602060405160008152f35b346103375760003660031901126103375760206040517fdc0c909fa3135f9237d8a966b8b184ead9db0c05d73609dcb237ff6a00b0717b8152f35b3461033757602036600319011261033757600435612710811161168357336000908152600080516020613457833981519152602052604090206116509060ff90610505565b6105535761054e8161053e7f8edc85bde8568f5dc6d7febb4820920db680537ad498b90d003e63d93a3988a19361013855565b60405163669a78b160e11b8152600490fd5b3461033757610120366003190112610337576004356116b38161033c565b6117436024356116c28161033c565b6044356116ce8161033c565b60c4356116da8161033c565b60e435916116e78361033c565b61010435936116f58561033c565b6000549661171a60ff8960081c16158099819a6117c5575b81156117a5575b5061266d565b8761172d600160ff196000541617600055565b61178c575b60a4359260843592606435926126d0565b61174957005b61175961ff001960005416600055565b604051600181527f7f26b83ff96e1f2b6a682f133852f6798a09c465da95921460cefb384740249890806020810161054e565b6117a061010061ff00196000541617600055565b611732565b303b159150816117b7575b5038611714565b6001915060ff1614386117b0565b600160ff821610915061170d565b346103375760003660031901126103375760206040517f6b742d59f502efc664ffa5cec8b4f798ca10dc8c5372b7e9f352dc77e490827b8152f35b346103375760203660031901126103375760043560005260976020526020604060002054604051908152f35b3461033757611848366105f9565b3360009081527fdffa92a6dce6c1a7a1a7024ed0f29537adf8ed32f4fa790e2acb86edab375e3d602052604081205490939192919060ff1615610553576001600160a01b031683526101306020526040832080549091908381039081116106bf579091556001600160a01b031660009081526101316020526040902080549182039182116106bf575580f35b3461033757602036600319011261033757600435612710811161168357336000908152600080516020613457833981519152602052604090206119199060ff90610505565b6105535761054e8161053e7f392bc62c14254761a14ce86ad9820d13103f5f490089391c7ecf162afd5d68f99361013555565b34610337576040366003190112610337576108b860243560043561196f8261033c565b806000526065602052611989600160406000200154611b7e565b611ce6565b346103375760203660031901126103375760206004356119ad8161033c565b60018060a01b0380911660005261012d825260016040600020015416604051908152f35b60005b8381106119e45750506000910152565b81810151838201526020016119d4565b90602091611a0d815180928185528580860191016119d1565b601f01601f1916010190565b3461033757602036600319011261033757611a3e600435611a398161033c565b612ba3565b604051809160208252611a76611a6082516080602086015260a08501906119f4565b6020830151848203601f190160408601526119f4565b90606060018060a01b0391826040820151168286015201511660808301520390f35b3461033757600036600319011261033757602061013554604051908152f35b6001600160a01b03811660009081527fffdfc1249c027f9191656349feb0761381bb32c9f557e01f419fd08754bf5a1b602052604080822054611b1993929060ff1615611b1c575b8080526097602052206001600160a01b03909116906124c9565b50565b808052606560209081528282206001600160a01b0385166000908152915260409020805460ff19166001179055336001600160a01b038416827f2f8788117e7eff1d82e926ec794901d17c78024a50270940304540a733656f0d8180a4611aff565b600081815260656020908152604080832033845290915290205460ff1615611ba35750565b3390611bad611e59565b916030611bb98461237c565b536078611bc584612389565b5360295b60018111611c7457610a59611c31611c5c86611c4e611bf188611bec89156123b7565b612402565b611c2b604051958694611c2b602087016017907f416363657373436f6e74726f6c3a206163636f756e742000000000000000000081520190565b90611cbb565b7001034b99036b4b9b9b4b733903937b6329607d1b815260110190565b03601f198101835282610f11565b60405162461bcd60e51b815291829160048301611cd2565b90600f8116906010821015611cb657611cb1916f181899199a1a9b1b9c1cb0b131b232b360811b901a611ca78487612399565b5360041c916123aa565b611bc9565b612366565b90611cce602092828151948592016119d1565b0190565b906020611ce39281815201906119f4565b90565b906040611b1992600090808252606560205260ff611d18858585209060018060a01b0316600052602052604060002090565b5416611d38575b81526097602052206001600160a01b03909116906125b8565b808252606560209081528383206001600160a01b0386166000908152915260409020805460ff19169055336001600160a01b038516827ff6391f5c32d9c69d2a47ea670b442974b53935d1edc7fd64eb21e047a839171b8580a4611d1f565b15611d9e57565b60405162461bcd60e51b815260206004820152602c60248201527f46756e6374696f6e206d7573742062652063616c6c6564207468726f7567682060448201526b19195b1959d85d1958d85b1b60a21b6064820152608490fd5b15611dff57565b60405162461bcd60e51b815260206004820152602c60248201527f46756e6374696f6e206d7573742062652063616c6c6564207468726f7567682060448201526b6163746976652070726f787960a01b6064820152608490fd5b60405190611e6682610ed9565b602a82526040366020840137565b90611e7e82610f42565b611e8b6040519182610f11565b8281528092611e9c601f1991610f42565b0190602036910137565b90816020910312610337575190565b6040513d6000823e3d90fd5b15611ec857565b60405162461bcd60e51b815260206004820152602960248201527f45524331393637557067726164653a20756e737570706f727465642070726f786044820152681a58589b195555525160ba1b6064820152608490fd5b60809060208152602e60208201527f45524331393637557067726164653a206e657720696d706c656d656e7461746960408201526d6f6e206973206e6f74205555505360901b60608201520190565b803b15611fa35760008051602061347783398151915280546001600160a01b0319166001600160a01b03909216919091179055565b60405162461bcd60e51b815260206004820152602d60248201527f455243313936373a206e657720696d706c656d656e746174696f6e206973206e60448201526c1bdd08184818dbdb9d1c9858dd609a1b6064820152608490fd5b9061200882611f6e565b6001600160a01b0382167fbc7cd75a20ee27fd9adebab32041f755214dbc6bffa90cc0225b39da2e5c2d3b600080a28051158015906120af575b61204a575050565b611b19916000806040519361205e85610ed9565b602785527f416464726573733a206c6f772d6c6576656c2064656c65676174652063616c6c6020860152660819985a5b195960ca1b6040860152602081519101845af46120a9612216565b91612246565b506000612042565b906120c182611f6e565b6001600160a01b0382167fbc7cd75a20ee27fd9adebab32041f755214dbc6bffa90cc0225b39da2e5c2d3b600080a28051158015906121025761204a575050565b506001612042565b6001600160a01b037f00000000000000000000000000000000000000000000000000000000000000008116929061214330851415611d97565b612160600080516020613477833981519152948286541614611df8565b6121698361290a565b7f4910fdfa16fed3260ed0e7147f7cc6da11a60208b5b9406d12a635614ffd91435460ff161561219f575050610f409150611f6e565b6020600491604094939451928380926352d1902d60e01b825286165afa600091816121f6575b506121e35760405162461bcd60e51b815280610a5960048201611f1f565b610f40936121f19114611ec1565b6120b7565b61220f91925060203d8111610a9957610a8a8183610f11565b90386121c5565b3d15612241573d9061222782610f42565b916122356040519384610f11565b82523d6000602084013e565b606090565b919290156122a8575081511561225a575090565b3b156122635790565b60405162461bcd60e51b815260206004820152601d60248201527f416464726573733a2063616c6c20746f206e6f6e2d636f6e74726163740000006044820152606490fd5b8251909150156122bb5750805190602001fd5b60405162461bcd60e51b8152908190610a599060048301611cd2565b634e487b7160e01b600052601160045260246000fd5b600381901b91906001600160fd1b038116036106bf57565b90600282018092116106bf57565b90600182018092116106bf57565b90600682018092116106bf57565b90600582018092116106bf57565b90600482018092116106bf57565b90600382018092116106bf57565b919082018092116106bf57565b634e487b7160e01b600052603260045260246000fd5b805115611cb65760200190565b805160011015611cb65760210190565b908151811015611cb6570160200190565b80156106bf576000190190565b156123be57565b606460405162461bcd60e51b815260206004820152602060248201527f537472696e67733a20686578206c656e67746820696e73756666696369656e746044820152fd5b604051906080820182811067ffffffffffffffff821117610aa05760405260428252606036602084013760306124378361237c565b53607861244383612389565b536041905b6001821161245b57611ce39150156123b7565b600f8116906010821015611cb65761248d916f181899199a1a9b1b9c1cb0b131b232b360811b901a611ca78486612399565b90612448565b8054821015611cb65760005260206000200190600090565b916124c59183549060031b91821b91600019901b19161790565b9055565b600181019082600052816020526040600020541560001461253757805468010000000000000000811015610aa05761252261250b826001879401855584612493565b819391549060031b91821b91600019901b19161790565b90555491600052602052604060002055600190565b505050600090565b6000198101919082116106bf57565b601e198101919082116106bf57565b60200390602082116106bf57565b919082039182116106bf57565b80549081156125a257600019918201916125928383612493565b909182549160031b1b1916905555565b634e487b7160e01b600052603160045260246000fd5b60018101918060005282602052604060002054928315156000146126645760001992848401908582116106bf5780549485019485116106bf57600095858361260c9461261b9803612621575b505050612578565b90600052602052604060002090565b55600190565b61264b6126459161263561265b9487612493565b90549060031b1c92839187612493565b906124ab565b8590600052602052604060002090565b55388080612604565b50505050600090565b1561267457565b60405162461bcd60e51b815260206004820152602e60248201527f496e697469616c697a61626c653a20636f6e747261637420697320616c72656160448201526d191e481a5b9a5d1a585b1a5e995960921b6064820152608490fd5b9590979692976301e13380891161056457612710808611611683578611611683576001600160a01b039087821615610e95578116928315610e95578116908115610e955780831615610e955780851615610e9557881615610e9557612814986127a26127ec9661279c6127a89461277a6127ca986127506127f29e611ab7565b612758612889565b61013280546001600160a01b0319166001600160a01b03909216919091179055565b61013380546001600160a01b0319166001600160a01b03909216919091179055565b61013555565b61013455565b61013680546001600160a01b0319166001600160a01b03909216919091179055565b61013780546001600160a01b0319166001600160a01b03909216919091179055565b61013855565b61013980546001600160a01b0319166001600160a01b03909216919091179055565b61281c612820565b610f405b60ff60005460081c161561283057565b60405162461bcd60e51b815260206004820152602b60248201527f496e697469616c697a61626c653a20636f6e7472616374206973206e6f74206960448201526a6e697469616c697a696e6760a81b6064820152608490fd5b7fb6e1aa954ca88134dedc447027c8ef72953bf046c847542dd28babf3f8d9092f8060005260656020526001604060002001908154907f1fb53273153c82fe1363373dd3355bec4bce8bdfe349c78a8ad09156481e62218093557fbd79b86ffe0ab8e8776151514217cd7cacd52c909f66475c3af44e129f0b00ff600080a4565b3360009081527fffdfc1249c027f9191656349feb0761381bb32c9f557e01f419fd08754bf5a1b602052604090205460ff1615610553576001600160a01b031615610e9557565b908160209103126103375751611ce38161033c565b6040516323b872dd60e01b602082019081526001600160a01b039384166024830152938316604482015260648082019590955293845291926129fa929091906129ae83610ef5565b16604051916129bc83610ebd565b602083527f5361666545524332303a206c6f772d6c6576656c2063616c6c206661696c65646020840152600080958192519082855af16120a9612216565b8051908115918215612a13575b5050610f409150612a43565b8192509060209181010312612a3f5760200151908115158203612a3c5750610f40903880612a07565b80fd5b5080fd5b15612a4a57565b60405162461bcd60e51b815260206004820152602a60248201527f5361666545524332303a204552433230206f7065726174696f6e20646964206e6044820152691bdd081cdd58d8d9595960b21b6064820152608490fd5b604051906080820182811067ffffffffffffffff821117610aa05760405260006060838181528160208201528260408201520152565b6020818303126103375780519067ffffffffffffffff8211610337570181601f82011215610337578051612b0b81610f42565b92612b196040519485610f11565b8184526020828401011161033757611ce391602080850191016119d1565b60405190612b4482610ebd565b60018252601760f91b6020830152565b60405190612b6182610ebd565b6011825270029bcb73a3432ba34b1902920a922903e1607d1b6020830152565b60405190612b8e82610ebd565b600682526578524152455f60d01b6020830152565b612bab612aa2565b5061013354612bc2906001600160a01b0316610b8c565b61013254612bd8906001600160a01b0316610b8c565b604051632ffef98760e21b81526001600160a01b038416600482015290602090829060249082905afa8015610d2d57612c36926000928392612da9575b50604051808095819463691f343160e01b8352600483019190602083019252565b03915afa8015610d2d57612c5291600091612d88575b50612e6b565b90612c5b612aa2565b91612c8f612c7f6112678460018060a01b031660005261012d602052604060002090565b6001600160a01b03166040850152565b612cd2612cc26001612cb48560018060a01b031660005261012d602052604060002090565b01546001600160a01b031690565b6001600160a01b03166060850152565b612cdb81612f48565b612d3e5750612d15612d04612cf2612d3693612dc9565b612d0f612d04612d09612d048461337d565b612e6b565b92613400565b9061317d565b612d2981612d24612d04612b54565b61317d565b8352612d24612d04612b81565b602082015290565b612d369150612d57612d51612d04612b37565b82612ff1565b50612d6781612d24612d04612b54565b8352612d0f612d04612d83612d7d612d04612b81565b93612e91565b6132e6565b612da3913d8091833e612d9b8183610f11565b810190612ad8565b38612c4c565b612dc291925060203d8111610a9957610a8a8183610f11565b9038612c15565b604051906001600160a01b0316612ddf82610ed9565b602a825260403660208401376030612df68361237c565b536078612e0283612389565b536029905b60018211612e1a57611ce39150156123b7565b600f8116906010821015611cb657612e4c916f181899199a1a9b1b9c1cb0b131b232b360811b901a611ca78486612399565b90612e07565b60405190612e5f82610ebd565b60006020838281520152565b612e73612e52565b50602081519160405192612e8684610ebd565b835201602082015290565b611ce3612e9e8251611e74565b91602081015190519060208401612ebf565b601f81116106bf576101000a90565b92905b602093848410612ef757815181528481018091116106bf579381018091116106bf5791601f1981019081116106bf5791612ec2565b929193506000199180612f13575b505182518216911916179052565b909150602003602081116106bf57612f2d612f3291612eb0565b61253f565b9038612f05565b60001981146106bf5760010190565b90612f61612f59602084015161254e565b925183612359565b6000925b818110612f70575050565b8051919391612f97919060ff166080811015612f9e5750612f9090612313565b915b612f39565b9290612f65565b60e0811015612fb15750612f9090612305565b60f0811015612fc45750612f909061234b565b60f8811015612fd75750612f909061233d565b60fc1115612fe857612f909061232f565b612f9090612321565b9190612ffb612e52565b92613004612e52565b5080519161302060208301938451835190602085015192613076565b806020870152825193805182038281116106bf5785039485116106bf57848752510361304e57506000915052565b5182018092116106bf5780519182039182116106bf5752565b60ff81116106bf576001901b90565b9291909280821115613089575b50505090565b9193929091906020831161312b57600094836130fb575b836130b5876130ba9395949551169385612359565b61256b565b9181868451165b036130d3575050611ce3929350612359565b9091818111156130f4576130e6906123aa565b9185835116908092916130c1565b5093505050565b94506130ba836130b5613120612f2d61311b6131168561255d565b6122ed565b613067565b1997925050506130a0565b9293613140838061314693959495209461256b565b84612359565b8381101561315957505050388080613083565b81812083146131705761316b9061253f565b613146565b909150611ce39250612359565b908151815181018091116106bf5761319490611e74565b916020808401916131ab8282015182519085612ebf565b518401018091116106bf57816020611ce3930151905191612ebf565b67ffffffffffffffff8111610aa05760051b60200190565b9190811015611cb65760051b0190565b35611ce38161033c565b8051821015611cb65760209160051b010190565b613216826131c7565b91604061322581519485610f11565b818452601f19613234836131c7565b01906020913683870137600092835b8181106132535750505050505090565b80600485613273610b8c610b8c61326e6132a597898e6131df565b6131ef565b8651631d92463b60e11b815292839182905afa8791816132c7575b506132aa57508561329f828a6131f9565b52612f39565b613243565b612f92906132b8838b6131f9565b6001600160a01b039091169052565b6132df919250873d8911610d2657610d178183610f11565b903861328e565b90600091825b815181101561332d57613328906133166001600160f81b031961330f8386612399565b5116613332565b851a6133228285612399565b53612f39565b6132ec565b509150565b6001600160f81b0319606160f81b82821690811015908161336e575b50613357575090565b9060f81c601f190160ff81116106bf5760f81b1690565b603d60f91b101590503861334e565b90815160069081116133ea576040519061339682610ebd565b80825260203681840137600080805b8381106133b55750929450505050565b6133e5906001600160f81b03196133cc828a612399565b5116936133226133db82612f39565b95851a9188612399565b6133a5565b634e487b7160e01b600052600160045260246000fd5b90815160279081116133ea576040519061341982610ebd565b600482526020368184013760008060235b83811061343a5750929450505050565b613451906001600160f81b03196133cc828a612399565b61342a56fe9899ddb638bae7f560cf23f432587b9242d69dff54bc3ebc0eff7ed30028bfb0360894a13ba1a3210667c828492db98dca3e2076cc3735a920a3ca505d382bbca2646970667358221220ff6162c985404048fa3374d4f4bd86064aae0a095a95cb381d966ba72464179f64736f6c63430008120033",
    "linkReferences": {}
  },
  "methodIdentifiers": {
    "DEFAULT_ADMIN_ROLE()": "a217fddf",
    "ENS_SETTER_ROLE()": "c2544987",
    "STAKING_CONFIG_SETTER_ROLE()": "a4303a45",
    "STAKING_INFO_SETTER_ROLE()": "265718b4",
    "STAKING_STAT_SETTER_ADMIN_ROLE()": "29b4a590",
    "STAKING_STAT_SETTER_ROLE()": "66951bc1",
    "SWAP_POOL_SETTER_ROLE()": "363227e5",
    "decreaseAmountStaked(address,address,uint256)": "cac7c65c",
    "getDefaultPayee()": "10da95e6",
    "getDeflationaryPercentage()": "f7ef8ead",
    "getDiscountPercentage()": "111029b9",
    "getPeriodLength()": "8469ddc7",
    "getRareAddress()": "2210d525",
    "getRewardAccumulatorAddressForUser(address)": "e286ef33",
    "getRoleAdmin(bytes32)": "248a9ca3",
    "getRoleMember(bytes32,uint256)": "9010d07c",
    "getRoleMemberCount(bytes32)": "ca15c873",
    "getStakingAddressForUser(address)": "81d0606b",
    "getStakingInfoForUser(address)": "f24bd8a6",
    "getSwapPool(address)": "039bcf8e",
    "getTotalAmountStakedByUser(address)": "06c571d5",
    "getTotalAmountStakedOnUser(address)": "3d867d95",
    "getUsersForStakingAddresses(address[])": "18ab58ac",
    "getWethAddress()": "23a7b42a",
    "grantRole(bytes32,address)": "2f2ff15d",
    "hasRole(bytes32,address)": "91d14854",
    "increaseAmountStaked(address,address,uint256)": "2608ff35",
    "initialize(address,address,address,uint256,uint256,uint256,address,address,address)": "bb0544a1",
    "proxiableUUID()": "52d1902d",
    "renounceRole(bytes32,address)": "36568abe",
    "revokeRole(bytes32,address)": "d547741f",
    "setDefaultPayee(address)": "99247be7",
    "setDeflationaryPercentage(uint256)": "cb8af2b5",
    "setDiscountPercentage(uint256)": "b3428d15",
    "setPeriodLength(uint256)": "1c5633d7",
    "setResolver(address)": "4e543b26",
    "setReverseRegistrar(address)": "557499ba",
    "setStakingAddresses(address,address,address)": "76a250a7",
    "setSwapPool(address,address)": "46ccbb40",
    "supportsInterface(bytes4)": "01ffc9a7",
    "transferRareFrom(address,address,uint256)": "81910e33",
    "upgradeTo(address)": "3659cfe6",
    "upgradeToAndCall(address,bytes)": "4f1ef286"
  },
  "id": 184
}