{
  "abi": [
    {
      "anonymous": false,
      "inputs": [
        {
          "indexed": false,
          "internalType": "address",
          "name": "previousAdmin",
          "type": "address"
        },
        {
          "indexed": false,
          "internalType": "address",
          "name": "newAdmin",
          "type": "address"
        }
      ],
      "name": "AdminChanged",
      "type": "event"
    },
    {
      "anonymous": false,
      "inputs": [
        {
          "indexed": true,
          "internalType": "address",
          "name": "beacon",
          "type": "address"
        }
      ],
      "name": "BeaconUpgraded",
      "type": "event"
    },
    {
      "anonymous": false,
      "inputs": [
        {
          "indexed": true,
          "internalType": "address",
          "name": "contractAddress",
          "type": "address"
        },
        {
          "indexed": false,
          "internalType": "uint256",
          "name": "limit",
          "type": "uint256"
        }
      ],
      "name": "ContractMintLimitSet",
      "type": "event"
    },
    {
      "anonymous": false,
      "inputs": [
        {
          "indexed": true,
          "internalType": "address",
          "name": "contractAddress",
          "type": "address"
        },
        {
          "indexed": false,
          "internalType": "uint256",
          "name": "minimum",
          "type": "uint256"
        }
      ],
      "name": "ContractStakingMinimumSet",
      "type": "event"
    },
    {
      "anonymous": false,
      "inputs": [
        {
          "indexed": true,
          "internalType": "address",
          "name": "contractAddress",
          "type": "address"
        },
        {
          "indexed": false,
          "internalType": "uint256",
          "name": "limit",
          "type": "uint256"
        }
      ],
      "name": "ContractTxLimitSet",
      "type": "event"
    },
    {
      "anonymous": false,
      "inputs": [
        {
          "indexed": false,
          "internalType": "uint8",
          "name": "version",
          "type": "uint8"
        }
      ],
      "name": "Initialized",
      "type": "event"
    },
    {
      "anonymous": false,
      "inputs": [
        {
          "indexed": true,
          "internalType": "address",
          "name": "_contractAddress",
          "type": "address"
        },
        {
          "indexed": true,
          "internalType": "address",
          "name": "_seller",
          "type": "address"
        },
        {
          "indexed": true,
          "internalType": "address",
          "name": "_buyer",
          "type": "address"
        },
        {
          "indexed": false,
          "internalType": "uint256",
          "name": "_tokenIdStart",
          "type": "uint256"
        },
        {
          "indexed": false,
          "internalType": "uint256",
          "name": "_tokenIdEnd",
          "type": "uint256"
        },
        {
          "indexed": false,
          "internalType": "address",
          "name": "_currency",
          "type": "address"
        },
        {
          "indexed": false,
          "internalType": "uint256",
          "name": "_price",
          "type": "uint256"
        }
      ],
      "name": "MintDirectSale",
      "type": "event"
    },
    {
      "anonymous": false,
      "inputs": [
        {
          "indexed": true,
          "internalType": "address",
          "name": "previousOwner",
          "type": "address"
        },
        {
          "indexed": true,
          "internalType": "address",
          "name": "newOwner",
          "type": "address"
        }
      ],
      "name": "OwnershipTransferred",
      "type": "event"
    },
    {
      "anonymous": false,
      "inputs": [
        {
          "indexed": true,
          "internalType": "address",
          "name": "_contractAddress",
          "type": "address"
        },
        {
          "indexed": true,
          "internalType": "address",
          "name": "_currency",
          "type": "address"
        },
        {
          "indexed": true,
          "internalType": "address",
          "name": "_seller",
          "type": "address"
        },
        {
          "indexed": false,
          "internalType": "uint256",
          "name": "_price",
          "type": "uint256"
        },
        {
          "indexed": false,
          "internalType": "uint256",
          "name": "_startTime",
          "type": "uint256"
        },
        {
          "indexed": false,
          "internalType": "uint256",
          "name": "_maxMints",
          "type": "uint256"
        },
        {
          "indexed": false,
          "internalType": "address payable[]",
          "name": "splitRecipients",
          "type": "address[]"
        },
        {
          "indexed": false,
          "internalType": "uint8[]",
          "name": "splitRatios",
          "type": "uint8[]"
        }
      ],
      "name": "PrepareMintDirectSale",
      "type": "event"
    },
    {
      "anonymous": false,
      "inputs": [
        {
          "indexed": true,
          "internalType": "bytes32",
          "name": "_root",
          "type": "bytes32"
        },
        {
          "indexed": false,
          "internalType": "uint256",
          "name": "_endTimestamp",
          "type": "uint256"
        },
        {
          "indexed": true,
          "internalType": "address",
          "name": "_contractAddress",
          "type": "address"
        }
      ],
      "name": "SetContractAllowListConfig",
      "type": "event"
    },
    {
      "anonymous": false,
      "inputs": [
        {
          "indexed": true,
          "internalType": "address",
          "name": "implementation",
          "type": "address"
        }
      ],
      "name": "Upgraded",
      "type": "event"
    },
    {
      "inputs": [
        {
          "internalType": "address",
          "name": "_contractAddress",
          "type": "address"
        }
      ],
      "name": "getContractAllowListConfig",
      "outputs": [
        {
          "components": [
            {
              "internalType": "bytes32",
              "name": "root",
              "type": "bytes32"
            },
            {
              "internalType": "uint256",
              "name": "endTimestamp",
              "type": "uint256"
            }
          ],
          "internalType": "struct IRareMinter.AllowListConfig",
          "name": "",
          "type": "tuple"
        }
      ],
      "stateMutability": "view",
      "type": "function"
    },
    {
      "inputs": [
        {
          "internalType": "address",
          "name": "_contractAddress",
          "type": "address"
        }
      ],
      "name": "getContractMintLimit",
      "outputs": [
        {
          "internalType": "uint256",
          "name": "",
          "type": "uint256"
        }
      ],
      "stateMutability": "view",
      "type": "function"
    },
    {
      "inputs": [
        {
          "internalType": "address",
          "name": "_contractAddress",
          "type": "address"
        },
        {
          "internalType": "address",
          "name": "_address",
          "type": "address"
        }
      ],
      "name": "getContractMintsPerAddress",
      "outputs": [
        {
          "internalType": "uint256",
          "name": "",
          "type": "uint256"
        }
      ],
      "stateMutability": "view",
      "type": "function"
    },
    {
      "inputs": [
        {
          "internalType": "address",
          "name": "_contractAddress",
          "type": "address"
        }
      ],
      "name": "getContractSellerStakingMinimum",
      "outputs": [
        {
          "internalType": "uint256",
          "name": "",
          "type": "uint256"
        }
      ],
      "stateMutability": "view",
      "type": "function"
    },
    {
      "inputs": [
        {
          "internalType": "address",
          "name": "_contractAddress",
          "type": "address"
        }
      ],
      "name": "getContractTxLimit",
      "outputs": [
        {
          "internalType": "uint256",
          "name": "",
          "type": "uint256"
        }
      ],
      "stateMutability": "view",
      "type": "function"
    },
    {
      "inputs": [
        {
          "internalType": "address",
          "name": "_contractAddress",
          "type": "address"
        },
        {
          "internalType": "address",
          "name": "_address",
          "type": "address"
        }
      ],
      "name": "getContractTxsPerAddress",
      "outputs": [
        {
          "internalType": "uint256",
          "name": "",
          "type": "uint256"
        }
      ],
      "stateMutability": "view",
      "type": "function"
    },
    {
      "inputs": [
        {
          "internalType": "address",
          "name": "_contractAddress",
          "type": "address"
        }
      ],
      "name": "getDirectSaleConfig",
      "outputs": [
        {
          "components": [
            {
              "internalType": "address",
              "name": "seller",
              "type": "address"
            },
            {
              "internalType": "address",
              "name": "currencyAddress",
              "type": "address"
            },
            {
              "internalType": "uint256",
              "name": "price",
              "type": "uint256"
            },
            {
              "internalType": "uint256",
              "name": "startTime",
              "type": "uint256"
            },
            {
              "internalType": "uint256",
              "name": "maxMints",
              "type": "uint256"
            },
            {
              "internalType": "address payable[]",
              "name": "splitRecipients",
              "type": "address[]"
            },
            {
              "internalType": "uint8[]",
              "name": "splitRatios",
              "type": "uint8[]"
            }
          ],
          "internalType": "struct IRareMinter.DirectSaleConfig",
          "name": "",
          "type": "tuple"
        }
      ],
      "stateMutability": "view",
      "type": "function"
    },
    {
      "inputs": [
        {
          "internalType": "address",
          "name": "_networkBeneficiary",
          "type": "address"
        },
        {
          "internalType": "address",
          "name": "_marketplaceSettings",
          "type": "address"
        },
        {
          "internalType": "address",
          "name": "_spaceOperatorRegistry",
          "type": "address"
        },
        {
          "internalType": "address",
          "name": "_royaltyEngine",
          "type": "address"
        },
        {
          "internalType": "address",
          "name": "_payments",
          "type": "address"
        },
        {
          "internalType": "address",
          "name": "_approvedTokenRegistry",
          "type": "address"
        },
        {
          "internalType": "address",
          "name": "_stakingSettings",
          "type": "address"
        },
        {
          "internalType": "address",
          "name": "_stakingRegistry",
          "type": "address"
        }
      ],
      "name": "initialize",
      "outputs": [],
      "stateMutability": "nonpayable",
      "type": "function"
    },
    {
      "inputs": [
        {
          "internalType": "address",
          "name": "_contractAddress",
          "type": "address"
        },
        {
          "internalType": "address",
          "name": "_currencyAddress",
          "type": "address"
        },
        {
          "internalType": "uint256",
          "name": "_price",
          "type": "uint256"
        },
        {
          "internalType": "uint8",
          "name": "_numMints",
          "type": "uint8"
        },
        {
          "internalType": "bytes32[]",
          "name": "_proof",
          "type": "bytes32[]"
        }
      ],
      "name": "mintDirectSale",
      "outputs": [],
      "stateMutability": "payable",
      "type": "function"
    },
    {
      "inputs": [],
      "name": "owner",
      "outputs": [
        {
          "internalType": "address",
          "name": "",
          "type": "address"
        }
      ],
      "stateMutability": "view",
      "type": "function"
    },
    {
      "inputs": [
        {
          "internalType": "address",
          "name": "_contractAddress",
          "type": "address"
        },
        {
          "internalType": "address",
          "name": "_currencyAddress",
          "type": "address"
        },
        {
          "internalType": "uint256",
          "name": "_price",
          "type": "uint256"
        },
        {
          "internalType": "uint256",
          "name": "_startTime",
          "type": "uint256"
        },
        {
          "internalType": "uint256",
          "name": "_maxMints",
          "type": "uint256"
        },
        {
          "internalType": "address payable[]",
          "name": "_splitRecipients",
          "type": "address[]"
        },
        {
          "internalType": "uint8[]",
          "name": "_splitRatios",
          "type": "uint8[]"
        }
      ],
      "name": "prepareMintDirectSale",
      "outputs": [],
      "stateMutability": "nonpayable",
      "type": "function"
    },
    {
      "inputs": [],
      "name": "proxiableUUID",
      "outputs": [
        {
          "internalType": "bytes32",
          "name": "",
          "type": "bytes32"
        }
      ],
      "stateMutability": "view",
      "type": "function"
    },
    {
      "inputs": [],
      "name": "renounceOwnership",
      "outputs": [],
      "stateMutability": "nonpayable",
      "type": "function"
    },
    {
      "inputs": [
        {
          "internalType": "address",
          "name": "_approvedTokenRegistry",
          "type": "address"
        }
      ],
      "name": "setApprovedTokenRegistry",
      "outputs": [],
      "stateMutability": "nonpayable",
      "type": "function"
    },
    {
      "inputs": [
        {
          "internalType": "bytes32",
          "name": "_root",
          "type": "bytes32"
        },
        {
          "internalType": "uint256",
          "name": "_endTimestamp",
          "type": "uint256"
        },
        {
          "internalType": "address",
          "name": "_contractAddress",
          "type": "address"
        }
      ],
      "name": "setContractAllowListConfig",
      "outputs": [],
      "stateMutability": "nonpayable",
      "type": "function"
    },
    {
      "inputs": [
        {
          "internalType": "address",
          "name": "_contractAddress",
          "type": "address"
        },
        {
          "internalType": "uint256",
          "name": "_limit",
          "type": "uint256"
        }
      ],
      "name": "setContractMintLimit",
      "outputs": [],
      "stateMutability": "nonpayable",
      "type": "function"
    },
    {
      "inputs": [
        {
          "internalType": "address",
          "name": "_contractAddress",
          "type": "address"
        },
        {
          "internalType": "uint256",
          "name": "_minimum",
          "type": "uint256"
        }
      ],
      "name": "setContractSellerStakingMinimum",
      "outputs": [],
      "stateMutability": "nonpayable",
      "type": "function"
    },
    {
      "inputs": [
        {
          "internalType": "address",
          "name": "_contractAddress",
          "type": "address"
        },
        {
          "internalType": "uint256",
          "name": "_limit",
          "type": "uint256"
        }
      ],
      "name": "setContractTxLimit",
      "outputs": [],
      "stateMutability": "nonpayable",
      "type": "function"
    },
    {
      "inputs": [
        {
          "internalType": "address",
          "name": "_marketplaceSettings",
          "type": "address"
        }
      ],
      "name": "setMarketplaceSettings",
      "outputs": [],
      "stateMutability": "nonpayable",
      "type": "function"
    },
    {
      "inputs": [
        {
          "internalType": "address",
          "name": "_networkBeneficiary",
          "type": "address"
        }
      ],
      "name": "setNetworkBeneficiary",
      "outputs": [],
      "stateMutability": "nonpayable",
      "type": "function"
    },
    {
      "inputs": [
        {
          "internalType": "address",
          "name": "_payments",
          "type": "address"
        }
      ],
      "name": "setPayments",
      "outputs": [],
      "stateMutability": "nonpayable",
      "type": "function"
    },
    {
      "inputs": [
        {
          "internalType": "address",
          "name": "_royaltyEngine",
          "type": "address"
        }
      ],
      "name": "setRoyaltyEngine",
      "outputs": [],
      "stateMutability": "nonpayable",
      "type": "function"
    },
    {
      "inputs": [
        {
          "internalType": "address",
          "name": "_spaceOperatorRegistry",
          "type": "address"
        }
      ],
      "name": "setSpaceOperatorRegistry",
      "outputs": [],
      "stateMutability": "nonpayable",
      "type": "function"
    },
    {
      "inputs": [
        {
          "internalType": "address",
          "name": "newOwner",
          "type": "address"
        }
      ],
      "name": "transferOwnership",
      "outputs": [],
      "stateMutability": "nonpayable",
      "type": "function"
    },
    {
      "inputs": [
        {
          "internalType": "address",
          "name": "newImplementation",
          "type": "address"
        }
      ],
      "name": "upgradeTo",
      "outputs": [],
      "stateMutability": "nonpayable",
      "type": "function"
    },
    {
      "inputs": [
        {
          "internalType": "address",
          "name": "newImplementation",
          "type": "address"
        },
        {
          "internalType": "bytes",
          "name": "data",
          "type": "bytes"
        }
      ],
      "name": "upgradeToAndCall",
      "outputs": [],
      "stateMutability": "payable",
      "type": "function"
    }
  ],
  "bytecode": {
    "object": "0x60a06040523060805234801561001457600080fd5b5060805161451f61004c6000396000818161083e0152818161087e01528181610c4501528181610c850152610d18015261451f6000f3fe6080604052600436106101815760003560e01c806378c19898116100d1578063a01fa6a91161008a578063d647ed3c11610064578063d647ed3c14610500578063e4e87e3b14610513578063f2fde38b14610533578063fa5312c81461055357600080fd5b8063a01fa6a91461046c578063af231a5814610499578063ca774e68146104b957600080fd5b806378c198981461038d5780637f358230146103ad5780638a29e2de146103cd5780638da5cb5b146103ed5780639890cddf146104155780639dbef5d11461044c57600080fd5b80633492e5a81161013e5780634cf5f910116101185780634cf5f910146103305780634f1ef2861461035057806352d1902d14610363578063715018a61461037857600080fd5b80633492e5a8146102d05780633659cfe6146102f057806348f0a3a41461031057600080fd5b806304c1ff07146101865780630fc635b314610209578063176ab4401461022b57806321ede0321461024b57806323946f1f1461026b5780632da45e8e146102b0575b600080fd5b34801561019257600080fd5b506101e96101a1366004613a01565b6040805180820190915260008082526020820152506001600160a01b031660009081526101046020908152604091829020825180840190935280548352600101549082015290565b604080518251815260209283015192810192909252015b60405180910390f35b34801561021557600080fd5b50610229610224366004613a1e565b61058a565b005b34801561023757600080fd5b50610229610246366004613a01565b6106ea565b34801561025757600080fd5b50610229610266366004613a01565b610768565b34801561027757600080fd5b506102a2610286366004613a01565b6001600160a01b03166000908152610105602052604090205490565b604051908152602001610200565b3480156102bc57600080fd5b506102a26102cb366004613a57565b6107b7565b3480156102dc57600080fd5b506102296102eb366004613a01565b6107e5565b3480156102fc57600080fd5b5061022961030b366004613a01565b610834565b34801561031c57600080fd5b5061022961032b366004613a90565b610913565b34801561033c57600080fd5b5061022961034b366004613a90565b610b05565b61022961035e366004613b03565b610c3b565b34801561036f57600080fd5b506102a2610d0b565b34801561038457600080fd5b50610229610dbe565b34801561039957600080fd5b506102296103a8366004613bf7565b610dd2565b3480156103b957600080fd5b506102296103c8366004613a01565b611079565b3480156103d957600080fd5b506102296103e8366004613cab565b6110c8565b3480156103f957600080fd5b506033546040516001600160a01b039091168152602001610200565b34801561042157600080fd5b506102a2610430366004613a01565b6001600160a01b03166000908152610109602052604090205490565b34801561045857600080fd5b50610229610467366004613a90565b611345565b34801561047857600080fd5b5061048c610487366004613a01565b61146d565b6040516102009190613d92565b3480156104a557600080fd5b506102296104b4366004613a01565b6115f2565b3480156104c557600080fd5b506102a26104d4366004613a57565b6001600160a01b0391821660009081526101066020908152604080832093909416825291909152205490565b61022961050e366004613e54565b611641565b34801561051f57600080fd5b5061022961052e366004613a01565b612011565b34801561053f57600080fd5b5061022961054e366004613a01565b612060565b34801561055f57600080fd5b506102a261056e366004613a01565b6001600160a01b03166000908152610107602052604090205490565b806001600160a01b0316638da5cb5b6040518163ffffffff1660e01b8152600401602060405180830381865afa1580156105c8573d6000803e3d6000fd5b505050506040513d601f19601f820116820180604052508101906105ec9190613ed9565b6001600160a01b0316336001600160a01b0316146106775760405162461bcd60e51b815260206004820152603760248201527f736574436f6e7472616374416c6c6f774c697374436f6e6669673a3a4f6e6c7960448201527f20636f6e7472616374206f776e65722063616e2073657400000000000000000060648201526084015b60405180910390fd5b60408051808201825284815260208082018581526001600160a01b038516600081815261010484528590209351845590516001909301929092559151848152909185917fff2ce9a528a62cad638cc9f5bccd36a62ecfa9aa0b1ab82c98957cb3498b4b67910160405180910390a3505050565b6106f26120d6565b604051632c55921b60e01b815260fb60048201526001600160a01b038216602482015273__$7682c538d2a75d26dfca907f0e750789f4$__90632c55921b906044015b60006040518083038186803b15801561074d57600080fd5b505af4158015610761573d6000803e3d6000fd5b5050505050565b6107706120d6565b60405163ebda042b60e01b815260fb60048201526001600160a01b038216602482015273__$7682c538d2a75d26dfca907f0e750789f4$__9063ebda042b90604401610735565b6001600160a01b03808316600090815261010860209081526040808320938516835292905220545b92915050565b6107ed6120d6565b60405163dec30e3360e01b815260fb60048201526001600160a01b038216602482015273__$7682c538d2a75d26dfca907f0e750789f4$__9063dec30e3390604401610735565b6001600160a01b037f000000000000000000000000000000000000000000000000000000000000000016300361087c5760405162461bcd60e51b815260040161066e90613ef6565b7f00000000000000000000000000000000000000000000000000000000000000006001600160a01b03166108c56000805160206144a3833981519152546001600160a01b031690565b6001600160a01b0316146108eb5760405162461bcd60e51b815260040161066e90613f42565b6108f481612130565b6040805160008082526020820190925261091091839190612138565b50565b816001600160a01b0316638da5cb5b6040518163ffffffff1660e01b8152600401602060405180830381865afa158015610951573d6000803e3d6000fd5b505050506040513d601f19601f820116820180604052508101906109759190613ed9565b6001600160a01b0316336001600160a01b0316146109fb5760405162461bcd60e51b815260206004820152603c60248201527f736574436f6e747261637453656c6c65725374616b696e674d696e696d756d3a60448201527f3a4f6e6c7920636f6e7472616374206f776e65722063616e2073657400000000606482015260840161066e565b610102546040516381d0606b60e01b81523360048201526000916001600160a01b0316906381d0606b90602401602060405180830381865afa158015610a45573d6000803e3d6000fd5b505050506040513d601f19601f82011682018060405250810190610a699190613ed9565b90506001600160a01b038116610ae75760405162461bcd60e51b815260206004820152603c60248201527f736574436f6e747261637453656c6c65725374616b696e674d696e696d756d3a60448201527f3a53656c6c657220646f6573206e6f742068617665206120706f6f6c00000000606482015260840161066e565b506001600160a01b0390911660009081526101096020526040902055565b816001600160a01b0316638da5cb5b6040518163ffffffff1660e01b8152600401602060405180830381865afa158015610b43573d6000803e3d6000fd5b505050506040513d601f19601f82011682018060405250810190610b679190613ed9565b6001600160a01b0316336001600160a01b031614610be15760405162461bcd60e51b815260206004820152603160248201527f736574436f6e74726163744d696e744c696d69743a3a4f6e6c7920636f6e74726044820152701858dd081bdddb995c8818d85b881cd95d607a1b606482015260840161066e565b6001600160a01b0382166000818152610105602052604090819020839055517fa9d9d6bd10e1caf4891001b6ccccdad5384a544c63cc903d40182c0a5a139cd990610c2f9084815260200190565b60405180910390a25050565b6001600160a01b037f0000000000000000000000000000000000000000000000000000000000000000163003610c835760405162461bcd60e51b815260040161066e90613ef6565b7f00000000000000000000000000000000000000000000000000000000000000006001600160a01b0316610ccc6000805160206144a3833981519152546001600160a01b031690565b6001600160a01b031614610cf25760405162461bcd60e51b815260040161066e90613f42565b610cfb82612130565b610d0782826001612138565b5050565b6000306001600160a01b037f00000000000000000000000000000000000000000000000000000000000000001614610dab5760405162461bcd60e51b815260206004820152603860248201527f555550535570677261646561626c653a206d757374206e6f742062652063616c60448201527f6c6564207468726f7567682064656c656761746563616c6c0000000000000000606482015260840161066e565b506000805160206144a383398151915290565b610dc66120d6565b610dd060006122a8565b565b336001600160a01b0316896001600160a01b0316638da5cb5b6040518163ffffffff1660e01b8152600401602060405180830381865afa158015610e1a573d6000803e3d6000fd5b505050506040513d601f19601f82011682018060405250810190610e3e9190613ed9565b6001600160a01b031614610ec85760405162461bcd60e51b8152602060048201526044602482018190527f707265706172654d696e7444697265637453616c653a3a4f6e6c79206d696e74908201527f20636f6e7472616374206f776e65722063616e207072657061726520746865206064820152631b5a5b9d60e21b608482015260a40161066e565b6040518060e00160405280336001600160a01b03168152602001896001600160a01b03168152602001888152602001878152602001868152602001858580806020026020016040519081016040528093929190818152602001838360200280828437600092019190915250505090825250604080516020858102828101820190935285825292830192909186918691829185019084908082843760009201829052509390945250506001600160a01b03808d1682526101036020908152604092839020855181549084166001600160a01b03199182161782558683015160018301805491909516911617909255918401516002820155606084015160038201556080840151600482015560a08401518051919350610fed9260058501929101906138d5565b5060c0820151805161100991600684019160209091019061393a565b50905050336001600160a01b0316886001600160a01b03168a6001600160a01b03167f36de0d2c8eec9296de665d70b6b6e55d8c29bfa7a36e0178e805ef54725d9f5c8a8a8a8a8a8a8a6040516110669796959493929190613f8e565b60405180910390a4505050505050505050565b6110816120d6565b604051630cf1420760e21b815260fb60048201526001600160a01b038216602482015273__$7682c538d2a75d26dfca907f0e750789f4$__906333c5081c90604401610735565b600054610100900460ff16158080156110e85750600054600160ff909116105b806111025750303b158015611102575060005460ff166001145b6111655760405162461bcd60e51b815260206004820152602e60248201527f496e697469616c697a61626c653a20636f6e747261637420697320616c72656160448201526d191e481a5b9a5d1a585b1a5e995960921b606482015260840161066e565b6000805460ff191660011790558015611188576000805461ff0019166101001790555b6040516323e95fa960e01b81526001600160a01b03808b166004830152808a16602483015280891660448301528088166064830152808716608483015280861660a483015280851660c4830152831660e482015273__$7682c538d2a75d26dfca907f0e750789f4$__906323e95fa9906101040161010060405180830381865af415801561121a573d6000803e3d6000fd5b505050506040513d601f19601f8201168201806040525081019061123e9190614046565b805160fb80546001600160a01b03199081166001600160a01b0393841617909155602083015160fc80548316918416919091179055604083015160fd80548316918416919091179055606083015160fe80548316918416919091179055608083015160ff8054831691841691909117905560a08301516101008054831691841691909117905560c08301516101018054831691841691909117905560e090920151610102805490931691161790556112f46122fa565b801561133a576000805461ff0019169055604051600181527f7f26b83ff96e1f2b6a682f133852f6798a09c465da95921460cefb38474024989060200160405180910390a15b505050505050505050565b816001600160a01b0316638da5cb5b6040518163ffffffff1660e01b8152600401602060405180830381865afa158015611383573d6000803e3d6000fd5b505050506040513d601f19601f820116820180604052508101906113a79190613ed9565b6001600160a01b0316336001600160a01b03161461141f5760405162461bcd60e51b815260206004820152602f60248201527f736574436f6e747261637454784c696d69743a3a4f6e6c7920636f6e7472616360448201526e1d081bdddb995c8818d85b881cd95d608a1b606482015260840161066e565b6001600160a01b0382166000818152610107602052604090819020839055517f5c8158ce792c8da34f9a8974acdb882c2c9cecc225c4ccf3c4a119aa2c72607090610c2f9084815260200190565b6114bf6040518060e0016040528060006001600160a01b0316815260200160006001600160a01b0316815260200160008152602001600081526020016000815260200160608152602001606081525090565b6001600160a01b0380831660009081526101036020908152604091829020825160e0810184528154851681526001820154909416848301526002810154848401526003810154606085015260048101546080850152600581018054845181850281018501909552808552919360a086019390929083018282801561156c57602002820191906000526020600020905b81546001600160a01b0316815260019091019060200180831161154e575b50505050508152602001600682018054806020026020016040519081016040528092919081815260200182805480156115e257602002820191906000526020600020906000905b825461010083900a900460ff168152602060019283018181049485019490930390920291018084116115b35790505b5050505050815250509050919050565b6115fa6120d6565b60405163c70c56c760e01b815260fb60048201526001600160a01b038216602482015273__$7682c538d2a75d26dfca907f0e750789f4$__9063c70c56c790604401610735565b611649612329565b6001600160a01b03808716600090815261010360209081526040808320815160e0810183528154861681526001820154909516858401526002810154858301526003810154606086015260048101546080860152600581018054835181860281018601909452808452949594919360a086019392908301828280156116f757602002820191906000526020600020905b81546001600160a01b031681526001909101906020018083116116d9575b505050505081526020016006820180548060200260200160405190810160405280929190818152602001828054801561176d57602002820191906000526020600020906000905b825461010083900a900460ff1681526020600192830181810494850194909303909202910180841161173e5790505b5050509190925250508151919250506001600160a01b03166117ef5760405162461bcd60e51b815260206004820152603560248201527f6d696e7444697265637453616c653a3a436f6e7472616374206e6f7420707265604482015274706172656420666f72206469726563742073616c6560581b606482015260840161066e565b61182d873385858080602002602001604051908101604052809392919081815260200183836020028082843760009201919091525061238292505050565b61183b878260000151612479565b60008460ff16116118a35760405162461bcd60e51b815260206004820152602c60248201527f6d696e7444697265637453616c653a3a4d696e7473206d75737420626520677260448201526b06561746572207468616e20360a41b606482015260840161066e565b6001600160a01b03871660009081526101056020526040902054158061190457506001600160a01b038716600090815261010560209081526040808320546101068352818420338552909252909120546119019060ff871690614126565b11155b6119685760405162461bcd60e51b815260206004820152602f60248201527f6d696e7444697265637453616c653a3a4578636565646564206d696e74206c6960448201526e6d697420666f72206164647265737360881b606482015260840161066e565b6001600160a01b0387166000908152610107602052604090205415806119c657506001600160a01b038716600090815261010760209081526040808320546101088352818420338552909252909120546119c3906001614126565b11155b611a315760405162461bcd60e51b815260206004820152603660248201527f6d696e7444697265637453616c653a3a4578636565646564207472616e73616360448201527574696f6e206c696d697420666f72206164647265737360501b606482015260840161066e565b60808101511580611a49575080608001518460ff1611155b611abb5760405162461bcd60e51b815260206004820152603a60248201527f6d696e7444697265637453616c653a3a4d696e7473206d757374206265206c6560448201527f7373207468616e206d61784d696e7420696620656e61626c6564000000000000606482015260840161066e565b4281606001511115611b1b5760405162461bcd60e51b8152602060048201526024808201527f6d696e7444697265637453616c653a3a53616c6520686173206e6f74207374616044820152631c9d195960e21b606482015260840161066e565b80604001518514611b8a5760405162461bcd60e51b815260206004820152603360248201527f6d696e7444697265637453616c653a3a507269636520646f6573206e6f74206d6044820152726174636820726571756972656420707269636560681b606482015260840161066e565b611b9560fb87612614565b856001600160a01b031681602001516001600160a01b031614611c205760405162461bcd60e51b815260206004820152603960248201527f6d696e7444697265637453616c653a3a43757272656e637920646f6573206e6f60448201527f74206d617463682072657175697265642063757272656e637900000000000000606482015260840161066e565b6000611c2f8660ff8716614139565b90508160400151600014611cc35760fc546040516361fe24a960e11b8152600481018390526000916001600160a01b03169063c3fc495290602401602060405180830381865afa158015611c87573d6000803e3d6000fd5b505050506040513d601f19601f82011682018060405250810190611cab9190614150565b611cb59083614126565b9050611cc188826126d9565b505b6001600160a01b0388166000908152610105602052604090205415611d1f576001600160a01b0388166000908152610106602090815260408083203384529091528120805460ff88169290611d19908490614126565b90915550505b6001600160a01b0388166000908152610107602052604090205415611d79576001600160a01b0388166000908152610108602090815260408083203384529091528120805460019290611d73908490614126565b90915550505b60405163755edd1760e01b81523360048201526000906001600160a01b038a169063755edd17906024016020604051808303816000875af1158015611dc2573d6000803e3d6000fd5b505050506040513d601f19601f82011682018060405250810190611de69190614150565b60fc54604051635a3c652d60e01b81526001600160a01b038c811660048301526024820184905260016044830152929350911690635a3c652d90606401600060405180830381600087803b158015611e3d57600080fd5b505af1925050508015611e4e575060015b5060015b8660ff16811015611f555760405163755edd1760e01b81523360048201526001600160a01b038b169063755edd17906024016020604051808303816000875af1158015611ea3573d6000803e3d6000fd5b505050506040513d601f19601f82011682018060405250810190611ec79190614150565b5060fc546001600160a01b0316635a3c652d8b611ee48486614126565b6040516001600160e01b031960e085901b1681526001600160a01b039092166004830152602482015260016044820152606401600060405180830381600087803b158015611f3157600080fd5b505af1925050508015611f42575060015b5080611f4d81614169565b915050611e52565b50604083015115611f8057825160a084015160c0850151611f809260fb928d9286928e9289926128d4565b825133906001600160a01b03908116908b167f3bbd73fed0f94290f16db112f6b7113697c2502dd42aa0ddf8f971472523f100846001611fc360ff8d1683614126565b611fcd9190614182565b6040805192835260208301919091526001600160a01b038e1690820152606081018c905260800160405180910390a45050506120096001606555565b505050505050565b6120196120d6565b6040516386e5800760e01b815260fb60048201526001600160a01b038216602482015273__$7682c538d2a75d26dfca907f0e750789f4$__906386e5800790604401610735565b6120686120d6565b6001600160a01b0381166120cd5760405162461bcd60e51b815260206004820152602660248201527f4f776e61626c653a206e6577206f776e657220697320746865207a65726f206160448201526564647265737360d01b606482015260840161066e565b610910816122a8565b6033546001600160a01b03163314610dd05760405162461bcd60e51b815260206004820181905260248201527f4f776e61626c653a2063616c6c6572206973206e6f7420746865206f776e6572604482015260640161066e565b6109106120d6565b7f4910fdfa16fed3260ed0e7147f7cc6da11a60208b5b9406d12a635614ffd91435460ff16156121705761216b836131de565b505050565b826001600160a01b03166352d1902d6040518163ffffffff1660e01b8152600401602060405180830381865afa9250505080156121ca575060408051601f3d908101601f191682019092526121c791810190614150565b60015b61222d5760405162461bcd60e51b815260206004820152602e60248201527f45524331393637557067726164653a206e657720696d706c656d656e7461746960448201526d6f6e206973206e6f74205555505360901b606482015260840161066e565b6000805160206144a3833981519152811461229c5760405162461bcd60e51b815260206004820152602960248201527f45524331393637557067726164653a20756e737570706f727465642070726f786044820152681a58589b195555525160ba1b606482015260840161066e565b5061216b83838361327a565b603380546001600160a01b038381166001600160a01b0319831681179093556040519116919082907f8be0079c531659141344cd1fd0a4f28419497f9722a3daafe3b4186f6b6457e090600090a35050565b600054610100900460ff166123215760405162461bcd60e51b815260040161066e90614195565b610dd061329f565b60026065540361237b5760405162461bcd60e51b815260206004820152601f60248201527f5265656e7472616e637947756172643a207265656e7472616e742063616c6c00604482015260640161066e565b6002606555565b6001600160a01b03831660009081526101046020526040902054806123a75750505050565b6001600160a01b0384166000908152610104602052604090206001015442106123d05750505050565b6040516bffffffffffffffffffffffff19606085901b166020820152612410906034016040516020818303038152906040528051906020012082846132cf565b6124735760405162461bcd60e51b815260206004820152602e60248201527f5f656e666f726365416c6c6f774c69737465643a3a41646472657373206e6f7460448201526d081bdb88185b1b1bddc81b1a5cdd60921b606482015260840161066e565b50505050565b6001600160a01b03821660009081526101096020526040812054900361249d575050565b610102546040516381d0606b60e01b81526001600160a01b03838116600483015260009216906381d0606b90602401602060405180830381865afa1580156124e9573d6000803e3d6000fd5b505050506040513d601f19601f8201168201806040525081019061250d9190613ed9565b604051630e67667b60e21b81523360048201526001600160a01b03919091169063399d99ec90602401602060405180830381865afa158015612553573d6000803e3d6000fd5b505050506040513d601f19601f820116820180604052508101906125779190614150565b6001600160a01b0384166000908152610109602052604090205490915081101561216b5760405162461bcd60e51b815260206004820152604260248201527f5f656e666f726365436f6e747261637453656c6c65725374616b696e674d696e60448201527f696d756d3a3a41646472657373206e6f74206f6e207374616b656420656e6f756064820152610ced60f31b608482015260a40161066e565b6001600160a01b038116158061269557506005820154604051632d5ad3d560e01b81526001600160a01b03838116600483015290911690632d5ad3d590602401602060405180830381865afa158015612671573d6000803e3d6000fd5b505050506040513d601f19601f8201168201806040525081019061269591906141e0565b610d075760405162461bcd60e51b81526020600482015260156024820152744e6f7420617070726f7665642063757272656e637960581b604482015260640161066e565b6001600160a01b03821661272c57803414610d075760405162461bcd60e51b81526020600482015260136024820152721b9bdd08195b9bdd59da08195d1a081cd95b9d606a1b604482015260640161066e565b341561278b5760405162461bcd60e51b815260206004820152602860248201527f6d73672e76616c75652073686f756c642062652030207768656e206e6f7420756044820152670e6d2dcce40cae8d60c31b606482015260840161066e565b6040516370a0823160e01b815230600482015282906000906001600160a01b038316906370a0823190602401602060405180830381865afa1580156127d4573d6000803e3d6000fd5b505050506040513d601f19601f820116820180604052508101906127f89190614150565b905061280f6001600160a01b03831633308661331f565b6040516370a0823160e01b81523060048201526000906001600160a01b038416906370a0823190602401602060405180830381865afa158015612856573d6000803e3d6000fd5b505050506040513d601f19601f8201168201806040525081019061287a9190614150565b9050836128878383614182565b146107615760405162461bcd60e51b815260206004820152601c60248201527f6e6f7420656e6f75676820746f6b656e73207472616e73666572656400000000604482015260640161066e565b80518251146129415760405162461bcd60e51b815260206004820152603360248201527f4e756d626572206f662073706c69742061646472657373657320616e642072616044820152723a34b7b99036bab9ba1031329032b8bab0b61760691b606482015260840161066e565b60018801546040516361fe24a960e11b81526004810186905285916000916001600160a01b039091169063c3fc495290602401602060405180830381865afa158015612991573d6000803e3d6000fd5b505050506040513d601f19601f820116820180604052508101906129b59190614150565b604080516002808252606082018352929350600092909160208301908036833750508c5482519293506001600160a01b0316918391506000906129fa576129fa614202565b6001600160a01b03928316602091820292909201015260078c015460405163e286ef3360e01b8152888316600482015291169063e286ef3390602401602060405180830381865afa158015612a53573d6000803e3d6000fd5b505050506040513d601f19601f82011682018060405250810190612a779190613ed9565b81600181518110612a8a57612a8a614202565b60200260200101906001600160a01b031690816001600160a01b03168152505060006001600160a01b031681600181518110612ac857612ac8614202565b60200260200101516001600160a01b031614612afe5780600181518110612af157612af1614202565b6020026020010151612b0a565b8a546001600160a01b03165b81600181518110612b1d57612b1d614202565b6001600160a01b039290921660209283029190910182015260408051600280825260608201835260009391929091830190803683370190505060068d01546040516303fdde1160e21b8152600481018b90529192506001600160a01b031690630ff7784490602401602060405180830381865afa158015612ba2573d6000803e3d6000fd5b505050506040513d601f19601f82011682018060405250810190612bc69190614150565b81600081518110612bd957612bd9614202565b602090810291909101015260068c015460405163470d6ed960e11b8152600481018a90526001600160a01b0390911690638e1addb290602401602060405180830381865afa158015612c2f573d6000803e3d6000fd5b505050506040513d601f19601f82011682018060405250810190612c539190614150565b81600181518110612c6657612c66614202565b602002602001018181525050612c7f8c8a85858561338a565b60018c0154604051631446f21360e21b81526001600160a01b038d81166004830152602482018d90529091169063511bc84c90604401602060405180830381865afa158015612cd2573d6000803e3d6000fd5b505050506040513d601f19601f82011682018060405250810190612cf691906141e0565b612fd75760408051600180825281830190925260009160208083019080368337505060408051600180825281830190925292935060009291506020808301908036833701905050905083600081518110612d5257612d52614202565b602002602001015181600081518110612d6d57612d6d614202565b6001600160a01b03928316602091820292909201015260028f0154604051635dc22eff60e01b81528b83166004820152911690635dc22eff90602401602060405180830381865afa158015612dc6573d6000803e3d6000fd5b505050506040513d601f19601f82011682018060405250810190612dea91906141e0565b15612ee95760028e0154604051632260494f60e01b81526001600160a01b038b811660048301526000921690632260494f90602401602060405180830381865afa158015612e3c573d6000803e3d6000fd5b505050506040513d601f19601f82011682018060405250810190612e609190614218565b60ff1690506064612e71828d614139565b612e7b9190614235565b612e859088614182565b96506064612e93828d614139565b612e9d9190614235565b83600081518110612eb057612eb0614202565b602002602001018181525050612ee38f8d85600081518110612ed457612ed4614202565b6020026020010151858761338a565b50612fd0565b60018e015460405163b28a7bad60e01b81526001600160a01b038f81166004830152600092169063b28a7bad90602401602060405180830381865afa158015612f36573d6000803e3d6000fd5b505050506040513d601f19601f82011682018060405250810190612f5a9190614218565b60ff1690506064612f6b828d614139565b612f759190614235565b612f7f9088614182565b96506064612f8d828d614139565b612f979190614235565b83600081518110612faa57612faa614202565b602002602001018181525050612fce8f8d85600081518110612ed457612ed4614202565b505b50506130c7565b60038c0154604051637a99dc0160e11b81526001600160a01b038d81166004830152602482018d9052604482018b9052600092839291169063f533b802906064016000604051808303816000875af1158015613037573d6000803e3d6000fd5b505050506040513d6000823e601f3d908101601f1916820160405261305f91908101906142e6565b915091506000805b82518110156130a95782818151811061308257613082614202565b6020026020010151826130959190614126565b9150806130a181614169565b915050613067565b506130b48188614182565b96506130c38f8d83868661338a565b5050505b6000865167ffffffffffffffff8111156130e3576130e3613abc565b60405190808252806020026020018201604052801561310c578160200160208202803683370190505b5090506000805b88518110156131c057606488828151811061313057613130614202565b602002602001015160ff16886131469190614139565b6131509190614235565b83828151811061316257613162614202565b602002602001018181525050606488828151811061318257613182614202565b602002602001015160ff16886131989190614139565b6131a29190614235565b6131ac9083614126565b9150806131b881614169565b915050613113565b506131ce8e8c838b8661338a565b5050505050505050505050505050565b6001600160a01b0381163b61324b5760405162461bcd60e51b815260206004820152602d60248201527f455243313936373a206e657720696d706c656d656e746174696f6e206973206e60448201526c1bdd08184818dbdb9d1c9858dd609a1b606482015260840161066e565b6000805160206144a383398151915280546001600160a01b0319166001600160a01b0392909216919091179055565b613283836134f1565b6000825111806132905750805b1561216b576124738383613531565b600054610100900460ff166132c65760405162461bcd60e51b815260040161066e90614195565b610dd0336122a8565b600083815b835181101561331457613300828583815181106132f3576132f3614202565b602002602001015161355d565b91508061330c81614169565b9150506132d4565b509092149392505050565b6040516001600160a01b03808516602483015283166044820152606481018290526124739085906323b872dd60e01b906084015b60408051601f198184030181529190526020810180516001600160e01b03166001600160e01b0319909316929092179091526135c3565b6001600160a01b03841661347957600485015460405160009182916001600160a01b0390911690869063c176e63960e01b906133cc90889088906024016143ab565b60408051601f198184030181529181526020820180516001600160e01b03166001600160e01b031990941693909317909252905161340a9190614453565b60006040518083038185875af1925050503d8060008114613447576040519150601f19603f3d011682016040523d82523d6000602084013e61344c565b606091505b50915091508181906134715760405162461bcd60e51b815260040161066e919061446f565b505050610761565b8360005b83518110156134e8576134d684828151811061349b5761349b614202565b60200260200101518483815181106134b5576134b5614202565b6020026020010151846001600160a01b03166136989092919063ffffffff16565b806134e081614169565b91505061347d565b50505050505050565b6134fa816131de565b6040516001600160a01b038216907fbc7cd75a20ee27fd9adebab32041f755214dbc6bffa90cc0225b39da2e5c2d3b90600090a250565b606061355683836040518060600160405280602781526020016144c3602791396136c8565b9392505050565b60008183111561359657604080516020810184905290810184905260600160405160208183030381529060405280519060200120613556565b50604080516020808201949094528082019290925280518083038201815260609092019052805191012090565b6000613618826040518060400160405280602081526020017f5361666545524332303a206c6f772d6c6576656c2063616c6c206661696c6564815250856001600160a01b03166137409092919063ffffffff16565b905080516000148061363957508080602001905181019061363991906141e0565b61216b5760405162461bcd60e51b815260206004820152602a60248201527f5361666545524332303a204552433230206f7065726174696f6e20646964206e6044820152691bdd081cdd58d8d9595960b21b606482015260840161066e565b6040516001600160a01b03831660248201526044810182905261216b90849063a9059cbb60e01b90606401613353565b6060600080856001600160a01b0316856040516136e59190614453565b600060405180830381855af49150503d8060008114613720576040519150601f19603f3d011682016040523d82523d6000602084013e613725565b606091505b509150915061373686838387613757565b9695505050505050565b606061374f84846000856137d0565b949350505050565b606083156137c65782516000036137bf576001600160a01b0385163b6137bf5760405162461bcd60e51b815260206004820152601d60248201527f416464726573733a2063616c6c20746f206e6f6e2d636f6e7472616374000000604482015260640161066e565b508161374f565b61374f83836138ab565b6060824710156138315760405162461bcd60e51b815260206004820152602660248201527f416464726573733a20696e73756666696369656e742062616c616e636520666f6044820152651c8818d85b1b60d21b606482015260840161066e565b600080866001600160a01b0316858760405161384d9190614453565b60006040518083038185875af1925050503d806000811461388a576040519150601f19603f3d011682016040523d82523d6000602084013e61388f565b606091505b50915091506138a087838387613757565b979650505050505050565b8151156138bb5781518083602001fd5b8060405162461bcd60e51b815260040161066e919061446f565b82805482825590600052602060002090810192821561392a579160200282015b8281111561392a57825182546001600160a01b0319166001600160a01b039091161782556020909201916001909101906138f5565b506139369291506139d7565b5090565b82805482825590600052602060002090601f0160209004810192821561392a5791602002820160005b838211156139a157835183826101000a81548160ff021916908360ff1602179055509260200192600101602081600001049283019260010302613963565b80156139ce5782816101000a81549060ff02191690556001016020816000010492830192600103026139a1565b50506139369291505b5b8082111561393657600081556001016139d8565b6001600160a01b038116811461091057600080fd5b600060208284031215613a1357600080fd5b8135613556816139ec565b600080600060608486031215613a3357600080fd5b83359250602084013591506040840135613a4c816139ec565b809150509250925092565b60008060408385031215613a6a57600080fd5b8235613a75816139ec565b91506020830135613a85816139ec565b809150509250929050565b60008060408385031215613aa357600080fd5b8235613aae816139ec565b946020939093013593505050565b634e487b7160e01b600052604160045260246000fd5b604051601f8201601f1916810167ffffffffffffffff81118282101715613afb57613afb613abc565b604052919050565b60008060408385031215613b1657600080fd5b8235613b21816139ec565b915060208381013567ffffffffffffffff80821115613b3f57600080fd5b818601915086601f830112613b5357600080fd5b813581811115613b6557613b65613abc565b613b77601f8201601f19168501613ad2565b91508082528784828501011115613b8d57600080fd5b80848401858401376000848284010152508093505050509250929050565b60008083601f840112613bbd57600080fd5b50813567ffffffffffffffff811115613bd557600080fd5b6020830191508360208260051b8501011115613bf057600080fd5b9250929050565b600080600080600080600080600060e08a8c031215613c1557600080fd5b8935613c20816139ec565b985060208a0135613c30816139ec565b975060408a0135965060608a0135955060808a0135945060a08a013567ffffffffffffffff80821115613c6257600080fd5b613c6e8d838e01613bab565b909650945060c08c0135915080821115613c8757600080fd5b50613c948c828d01613bab565b915080935050809150509295985092959850929598565b600080600080600080600080610100898b031215613cc857600080fd5b8835613cd3816139ec565b97506020890135613ce3816139ec565b96506040890135613cf3816139ec565b95506060890135613d03816139ec565b94506080890135613d13816139ec565b935060a0890135613d23816139ec565b925060c0890135613d33816139ec565b915060e0890135613d43816139ec565b809150509295985092959890939650565b600081518084526020808501945080840160005b83811015613d8757815160ff1687529582019590820190600101613d68565b509495945050505050565b60006020808352610100830160018060a01b03808651168386015280838701511660408601526040860151606086015260608601516080860152608086015160a086015260a086015160e060c0870152828151808552610120880191508583019450600092505b80831015613e1b57845184168252938501936001929092019190850190613df9565b5060c0880151878203601f190160e08901529450613e398186613d54565b98975050505050505050565b60ff8116811461091057600080fd5b60008060008060008060a08789031215613e6d57600080fd5b8635613e78816139ec565b95506020870135613e88816139ec565b9450604087013593506060870135613e9f81613e45565b9250608087013567ffffffffffffffff811115613ebb57600080fd5b613ec789828a01613bab565b979a9699509497509295939492505050565b600060208284031215613eeb57600080fd5b8151613556816139ec565b6020808252602c908201527f46756e6374696f6e206d7573742062652063616c6c6564207468726f7567682060408201526b19195b1959d85d1958d85b1b60a21b606082015260800190565b6020808252602c908201527f46756e6374696f6e206d7573742062652063616c6c6564207468726f7567682060408201526b6163746976652070726f787960a01b606082015260800190565b600060a082018983526020898185015288604085015260a060608501528187835260c08501905088925060005b88811015613fe9578335613fce816139ec565b6001600160a01b031682529282019290820190600101613fbb565b508481036080860152858152810191508560005b8681101561402557813561401081613e45565b60ff1684529282019290820190600101613ffd565b50919b9a5050505050505050505050565b8051614041816139ec565b919050565b600061010080838503121561405a57600080fd5b6040519081019067ffffffffffffffff8211818310171561407d5761407d613abc565b816040528351915061408e826139ec565b81815261409d60208501614036565b60208201526140ae60408501614036565b60408201526140bf60608501614036565b60608201526140d060808501614036565b60808201526140e160a08501614036565b60a08201526140f260c08501614036565b60c082015261410360e08501614036565b60e0820152949350505050565b634e487b7160e01b600052601160045260246000fd5b808201808211156107df576107df614110565b80820281158282048414176107df576107df614110565b60006020828403121561416257600080fd5b5051919050565b60006001820161417b5761417b614110565b5060010190565b818103818111156107df576107df614110565b6020808252602b908201527f496e697469616c697a61626c653a20636f6e7472616374206973206e6f74206960408201526a6e697469616c697a696e6760a81b606082015260800190565b6000602082840312156141f257600080fd5b8151801515811461355657600080fd5b634e487b7160e01b600052603260045260246000fd5b60006020828403121561422a57600080fd5b815161355681613e45565b60008261425257634e487b7160e01b600052601260045260246000fd5b500490565b600067ffffffffffffffff82111561427157614271613abc565b5060051b60200190565b600082601f83011261428c57600080fd5b815160206142a161429c83614257565b613ad2565b82815260059290921b840181019181810190868411156142c057600080fd5b8286015b848110156142db57805183529183019183016142c4565b509695505050505050565b600080604083850312156142f957600080fd5b825167ffffffffffffffff8082111561431157600080fd5b818501915085601f83011261432557600080fd5b8151602061433561429c83614257565b82815260059290921b8401810191818101908984111561435457600080fd5b948201945b8386101561437b57855161436c816139ec565b82529482019490820190614359565b9188015191965090935050508082111561439457600080fd5b506143a18582860161427b565b9150509250929050565b604080825283519082018190526000906020906060840190828701845b828110156143ed5781516001600160a01b0316845292840192908401906001016143c8565b5050508381038285015284518082528583019183019060005b8181101561442257835183529284019291840191600101614406565b5090979650505050505050565b60005b8381101561444a578181015183820152602001614432565b50506000910152565b6000825161446581846020870161442f565b9190910192915050565b602081526000825180602084015261448e81604085016020870161442f565b601f01601f1916919091016040019291505056fe360894a13ba1a3210667c828492db98dca3e2076cc3735a920a3ca505d382bbc416464726573733a206c6f772d6c6576656c2064656c65676174652063616c6c206661696c6564a2646970667358221220b064bf92ff99467fd6bc6d102ca4e663cba1f3bbebff26ee23153076764c623f64736f6c63430008120033",
    "linkReferences": {
      "src/utils/structs/MarketConfig.sol": {
        "MarketConfig": [
          {
            "start": 1891,
            "length": 20
          },
          {
            "start": 2017,
            "length": 20
          },
          {
            "start": 2142,
            "length": 20
          },
          {
            "start": 4338,
            "length": 20
          },
          {
            "start": 4650,
            "length": 20
          },
          {
            "start": 5739,
            "length": 20
          },
          {
            "start": 8330,
            "length": 20
          }
        ]
      }
    }
  },
  "methodIdentifiers": {
    "getContractAllowListConfig(address)": "04c1ff07",
    "getContractMintLimit(address)": "23946f1f",
    "getContractMintsPerAddress(address,address)": "ca774e68",
    "getContractSellerStakingMinimum(address)": "9890cddf",
    "getContractTxLimit(address)": "fa5312c8",
    "getContractTxsPerAddress(address,address)": "2da45e8e",
    "getDirectSaleConfig(address)": "a01fa6a9",
    "initialize(address,address,address,address,address,address,address,address)": "8a29e2de",
    "mintDirectSale(address,address,uint256,uint8,bytes32[])": "d647ed3c",
    "owner()": "8da5cb5b",
    "prepareMintDirectSale(address,address,uint256,uint256,uint256,address[],uint8[])": "78c19898",
    "proxiableUUID()": "52d1902d",
    "renounceOwnership()": "715018a6",
    "setApprovedTokenRegistry(address)": "e4e87e3b",
    "setContractAllowListConfig(bytes32,uint256,address)": "0fc635b3",
    "setContractMintLimit(address,uint256)": "4cf5f910",
    "setContractSellerStakingMinimum(address,uint256)": "48f0a3a4",
    "setContractTxLimit(address,uint256)": "9dbef5d1",
    "setMarketplaceSettings(address)": "176ab440",
    "setNetworkBeneficiary(address)": "3492e5a8",
    "setPayments(address)": "af231a58",
    "setRoyaltyEngine(address)": "21ede032",
    "setSpaceOperatorRegistry(address)": "7f358230",
    "transferOwnership(address)": "f2fde38b",
    "upgradeTo(address)": "3659cfe6",
    "upgradeToAndCall(address,bytes)": "4f1ef286"
  },
  "id": 69
}