{
  "abi": [
    {
      "anonymous": false,
      "inputs": [
        {
          "indexed": false,
          "internalType": "address",
          "name": "previousAdmin",
          "type": "address"
        },
        {
          "indexed": false,
          "internalType": "address",
          "name": "newAdmin",
          "type": "address"
        }
      ],
      "name": "AdminChanged",
      "type": "event"
    },
    {
      "anonymous": false,
      "inputs": [
        {
          "indexed": true,
          "internalType": "address",
          "name": "beacon",
          "type": "address"
        }
      ],
      "name": "BeaconUpgraded",
      "type": "event"
    },
    {
      "anonymous": false,
      "inputs": [
        {
          "indexed": true,
          "internalType": "address",
          "name": "contractAddress",
          "type": "address"
        },
        {
          "indexed": false,
          "internalType": "uint256",
          "name": "limit",
          "type": "uint256"
        }
      ],
      "name": "ContractMintLimitSet",
      "type": "event"
    },
    {
      "anonymous": false,
      "inputs": [
        {
          "indexed": true,
          "internalType": "address",
          "name": "contractAddress",
          "type": "address"
        },
        {
          "indexed": false,
          "internalType": "uint256",
          "name": "minimum",
          "type": "uint256"
        },
        {
          "indexed": false,
          "internalType": "uint256",
          "name": "endTimestamp",
          "type": "uint256"
        }
      ],
      "name": "ContractStakingMinimumSet",
      "type": "event"
    },
    {
      "anonymous": false,
      "inputs": [
        {
          "indexed": true,
          "internalType": "address",
          "name": "contractAddress",
          "type": "address"
        },
        {
          "indexed": false,
          "internalType": "uint256",
          "name": "limit",
          "type": "uint256"
        }
      ],
      "name": "ContractTxLimitSet",
      "type": "event"
    },
    {
      "anonymous": false,
      "inputs": [
        {
          "indexed": false,
          "internalType": "uint8",
          "name": "version",
          "type": "uint8"
        }
      ],
      "name": "Initialized",
      "type": "event"
    },
    {
      "anonymous": false,
      "inputs": [
        {
          "indexed": true,
          "internalType": "address",
          "name": "_contractAddress",
          "type": "address"
        },
        {
          "indexed": true,
          "internalType": "address",
          "name": "_seller",
          "type": "address"
        },
        {
          "indexed": true,
          "internalType": "address",
          "name": "_buyer",
          "type": "address"
        },
        {
          "indexed": false,
          "internalType": "uint256",
          "name": "_tokenIdStart",
          "type": "uint256"
        },
        {
          "indexed": false,
          "internalType": "uint256",
          "name": "_tokenIdEnd",
          "type": "uint256"
        },
        {
          "indexed": false,
          "internalType": "address",
          "name": "_currency",
          "type": "address"
        },
        {
          "indexed": false,
          "internalType": "uint256",
          "name": "_price",
          "type": "uint256"
        }
      ],
      "name": "MintDirectSale",
      "type": "event"
    },
    {
      "anonymous": false,
      "inputs": [
        {
          "indexed": true,
          "internalType": "address",
          "name": "previousOwner",
          "type": "address"
        },
        {
          "indexed": true,
          "internalType": "address",
          "name": "newOwner",
          "type": "address"
        }
      ],
      "name": "OwnershipTransferred",
      "type": "event"
    },
    {
      "anonymous": false,
      "inputs": [
        {
          "indexed": true,
          "internalType": "address",
          "name": "_contractAddress",
          "type": "address"
        },
        {
          "indexed": true,
          "internalType": "address",
          "name": "_currency",
          "type": "address"
        },
        {
          "indexed": true,
          "internalType": "address",
          "name": "_seller",
          "type": "address"
        },
        {
          "indexed": false,
          "internalType": "uint256",
          "name": "_price",
          "type": "uint256"
        },
        {
          "indexed": false,
          "internalType": "uint256",
          "name": "_startTime",
          "type": "uint256"
        },
        {
          "indexed": false,
          "internalType": "uint256",
          "name": "_maxMints",
          "type": "uint256"
        },
        {
          "indexed": false,
          "internalType": "address payable[]",
          "name": "splitRecipients",
          "type": "address[]"
        },
        {
          "indexed": false,
          "internalType": "uint8[]",
          "name": "splitRatios",
          "type": "uint8[]"
        }
      ],
      "name": "PrepareMintDirectSale",
      "type": "event"
    },
    {
      "anonymous": false,
      "inputs": [
        {
          "indexed": true,
          "internalType": "bytes32",
          "name": "_root",
          "type": "bytes32"
        },
        {
          "indexed": false,
          "internalType": "uint256",
          "name": "_endTimestamp",
          "type": "uint256"
        },
        {
          "indexed": true,
          "internalType": "address",
          "name": "_contractAddress",
          "type": "address"
        }
      ],
      "name": "SetContractAllowListConfig",
      "type": "event"
    },
    {
      "anonymous": false,
      "inputs": [
        {
          "indexed": true,
          "internalType": "address",
          "name": "implementation",
          "type": "address"
        }
      ],
      "name": "Upgraded",
      "type": "event"
    },
    {
      "inputs": [
        {
          "internalType": "address",
          "name": "_contractAddress",
          "type": "address"
        }
      ],
      "name": "getContractAllowListConfig",
      "outputs": [
        {
          "components": [
            {
              "internalType": "bytes32",
              "name": "root",
              "type": "bytes32"
            },
            {
              "internalType": "uint256",
              "name": "endTimestamp",
              "type": "uint256"
            }
          ],
          "internalType": "struct IRareMinter.AllowListConfig",
          "name": "",
          "type": "tuple"
        }
      ],
      "stateMutability": "view",
      "type": "function"
    },
    {
      "inputs": [
        {
          "internalType": "address",
          "name": "_contractAddress",
          "type": "address"
        }
      ],
      "name": "getContractMintLimit",
      "outputs": [
        {
          "internalType": "uint256",
          "name": "",
          "type": "uint256"
        }
      ],
      "stateMutability": "view",
      "type": "function"
    },
    {
      "inputs": [
        {
          "internalType": "address",
          "name": "_contractAddress",
          "type": "address"
        },
        {
          "internalType": "address",
          "name": "_address",
          "type": "address"
        }
      ],
      "name": "getContractMintsPerAddress",
      "outputs": [
        {
          "internalType": "uint256",
          "name": "",
          "type": "uint256"
        }
      ],
      "stateMutability": "view",
      "type": "function"
    },
    {
      "inputs": [
        {
          "internalType": "address",
          "name": "_contractAddress",
          "type": "address"
        }
      ],
      "name": "getContractSellerStakingMinimum",
      "outputs": [
        {
          "components": [
            {
              "internalType": "uint256",
              "name": "amount",
              "type": "uint256"
            },
            {
              "internalType": "uint256",
              "name": "endTimestamp",
              "type": "uint256"
            }
          ],
          "internalType": "struct IRareMinter.StakingMinimum",
          "name": "",
          "type": "tuple"
        }
      ],
      "stateMutability": "view",
      "type": "function"
    },
    {
      "inputs": [
        {
          "internalType": "address",
          "name": "_contractAddress",
          "type": "address"
        }
      ],
      "name": "getContractTxLimit",
      "outputs": [
        {
          "internalType": "uint256",
          "name": "",
          "type": "uint256"
        }
      ],
      "stateMutability": "view",
      "type": "function"
    },
    {
      "inputs": [
        {
          "internalType": "address",
          "name": "_contractAddress",
          "type": "address"
        },
        {
          "internalType": "address",
          "name": "_address",
          "type": "address"
        }
      ],
      "name": "getContractTxsPerAddress",
      "outputs": [
        {
          "internalType": "uint256",
          "name": "",
          "type": "uint256"
        }
      ],
      "stateMutability": "view",
      "type": "function"
    },
    {
      "inputs": [
        {
          "internalType": "address",
          "name": "_contractAddress",
          "type": "address"
        }
      ],
      "name": "getDirectSaleConfig",
      "outputs": [
        {
          "components": [
            {
              "internalType": "address",
              "name": "seller",
              "type": "address"
            },
            {
              "internalType": "address",
              "name": "currencyAddress",
              "type": "address"
            },
            {
              "internalType": "uint256",
              "name": "price",
              "type": "uint256"
            },
            {
              "internalType": "uint256",
              "name": "startTime",
              "type": "uint256"
            },
            {
              "internalType": "uint256",
              "name": "maxMints",
              "type": "uint256"
            },
            {
              "internalType": "address payable[]",
              "name": "splitRecipients",
              "type": "address[]"
            },
            {
              "internalType": "uint8[]",
              "name": "splitRatios",
              "type": "uint8[]"
            }
          ],
          "internalType": "struct IRareMinter.DirectSaleConfig",
          "name": "",
          "type": "tuple"
        }
      ],
      "stateMutability": "view",
      "type": "function"
    },
    {
      "inputs": [
        {
          "internalType": "address",
          "name": "_networkBeneficiary",
          "type": "address"
        },
        {
          "internalType": "address",
          "name": "_marketplaceSettings",
          "type": "address"
        },
        {
          "internalType": "address",
          "name": "_spaceOperatorRegistry",
          "type": "address"
        },
        {
          "internalType": "address",
          "name": "_royaltyEngine",
          "type": "address"
        },
        {
          "internalType": "address",
          "name": "_payments",
          "type": "address"
        },
        {
          "internalType": "address",
          "name": "_approvedTokenRegistry",
          "type": "address"
        },
        {
          "internalType": "address",
          "name": "_stakingSettings",
          "type": "address"
        },
        {
          "internalType": "address",
          "name": "_stakingRegistry",
          "type": "address"
        }
      ],
      "name": "initialize",
      "outputs": [],
      "stateMutability": "nonpayable",
      "type": "function"
    },
    {
      "inputs": [
        {
          "internalType": "address",
          "name": "_contractAddress",
          "type": "address"
        },
        {
          "internalType": "address",
          "name": "_currencyAddress",
          "type": "address"
        },
        {
          "internalType": "uint256",
          "name": "_price",
          "type": "uint256"
        },
        {
          "internalType": "uint8",
          "name": "_numMints",
          "type": "uint8"
        },
        {
          "internalType": "bytes32[]",
          "name": "_proof",
          "type": "bytes32[]"
        }
      ],
      "name": "mintDirectSale",
      "outputs": [],
      "stateMutability": "payable",
      "type": "function"
    },
    {
      "inputs": [],
      "name": "owner",
      "outputs": [
        {
          "internalType": "address",
          "name": "",
          "type": "address"
        }
      ],
      "stateMutability": "view",
      "type": "function"
    },
    {
      "inputs": [
        {
          "internalType": "address",
          "name": "_contractAddress",
          "type": "address"
        },
        {
          "internalType": "address",
          "name": "_currencyAddress",
          "type": "address"
        },
        {
          "internalType": "uint256",
          "name": "_price",
          "type": "uint256"
        },
        {
          "internalType": "uint256",
          "name": "_startTime",
          "type": "uint256"
        },
        {
          "internalType": "uint256",
          "name": "_maxMints",
          "type": "uint256"
        },
        {
          "internalType": "address payable[]",
          "name": "_splitRecipients",
          "type": "address[]"
        },
        {
          "internalType": "uint8[]",
          "name": "_splitRatios",
          "type": "uint8[]"
        }
      ],
      "name": "prepareMintDirectSale",
      "outputs": [],
      "stateMutability": "nonpayable",
      "type": "function"
    },
    {
      "inputs": [],
      "name": "proxiableUUID",
      "outputs": [
        {
          "internalType": "bytes32",
          "name": "",
          "type": "bytes32"
        }
      ],
      "stateMutability": "view",
      "type": "function"
    },
    {
      "inputs": [],
      "name": "renounceOwnership",
      "outputs": [],
      "stateMutability": "nonpayable",
      "type": "function"
    },
    {
      "inputs": [
        {
          "internalType": "address",
          "name": "_approvedTokenRegistry",
          "type": "address"
        }
      ],
      "name": "setApprovedTokenRegistry",
      "outputs": [],
      "stateMutability": "nonpayable",
      "type": "function"
    },
    {
      "inputs": [
        {
          "internalType": "bytes32",
          "name": "_root",
          "type": "bytes32"
        },
        {
          "internalType": "uint256",
          "name": "_endTimestamp",
          "type": "uint256"
        },
        {
          "internalType": "address",
          "name": "_contractAddress",
          "type": "address"
        }
      ],
      "name": "setContractAllowListConfig",
      "outputs": [],
      "stateMutability": "nonpayable",
      "type": "function"
    },
    {
      "inputs": [
        {
          "internalType": "address",
          "name": "_contractAddress",
          "type": "address"
        },
        {
          "internalType": "uint256",
          "name": "_limit",
          "type": "uint256"
        }
      ],
      "name": "setContractMintLimit",
      "outputs": [],
      "stateMutability": "nonpayable",
      "type": "function"
    },
    {
      "inputs": [
        {
          "internalType": "address",
          "name": "_contractAddress",
          "type": "address"
        },
        {
          "internalType": "uint256",
          "name": "_minimum",
          "type": "uint256"
        },
        {
          "internalType": "uint256",
          "name": "_endTimestamp",
          "type": "uint256"
        }
      ],
      "name": "setContractSellerStakingMinimum",
      "outputs": [],
      "stateMutability": "nonpayable",
      "type": "function"
    },
    {
      "inputs": [
        {
          "internalType": "address",
          "name": "_contractAddress",
          "type": "address"
        },
        {
          "internalType": "uint256",
          "name": "_limit",
          "type": "uint256"
        }
      ],
      "name": "setContractTxLimit",
      "outputs": [],
      "stateMutability": "nonpayable",
      "type": "function"
    },
    {
      "inputs": [
        {
          "internalType": "address",
          "name": "_marketplaceSettings",
          "type": "address"
        }
      ],
      "name": "setMarketplaceSettings",
      "outputs": [],
      "stateMutability": "nonpayable",
      "type": "function"
    },
    {
      "inputs": [
        {
          "internalType": "address",
          "name": "_networkBeneficiary",
          "type": "address"
        }
      ],
      "name": "setNetworkBeneficiary",
      "outputs": [],
      "stateMutability": "nonpayable",
      "type": "function"
    },
    {
      "inputs": [
        {
          "internalType": "address",
          "name": "_payments",
          "type": "address"
        }
      ],
      "name": "setPayments",
      "outputs": [],
      "stateMutability": "nonpayable",
      "type": "function"
    },
    {
      "inputs": [
        {
          "internalType": "address",
          "name": "_royaltyEngine",
          "type": "address"
        }
      ],
      "name": "setRoyaltyEngine",
      "outputs": [],
      "stateMutability": "nonpayable",
      "type": "function"
    },
    {
      "inputs": [
        {
          "internalType": "address",
          "name": "_spaceOperatorRegistry",
          "type": "address"
        }
      ],
      "name": "setSpaceOperatorRegistry",
      "outputs": [],
      "stateMutability": "nonpayable",
      "type": "function"
    },
    {
      "inputs": [
        {
          "internalType": "address",
          "name": "newOwner",
          "type": "address"
        }
      ],
      "name": "transferOwnership",
      "outputs": [],
      "stateMutability": "nonpayable",
      "type": "function"
    },
    {
      "inputs": [
        {
          "internalType": "address",
          "name": "newImplementation",
          "type": "address"
        }
      ],
      "name": "upgradeTo",
      "outputs": [],
      "stateMutability": "nonpayable",
      "type": "function"
    },
    {
      "inputs": [
        {
          "internalType": "address",
          "name": "newImplementation",
          "type": "address"
        },
        {
          "internalType": "bytes",
          "name": "data",
          "type": "bytes"
        }
      ],
      "name": "upgradeToAndCall",
      "outputs": [],
      "stateMutability": "payable",
      "type": "function"
    }
  ],
  "bytecode": {
    "object": "0x60a08060405234610031573060805261461b90816100378239608051818181612eb101528181612fdd015261337e0152f35b600080fdfe608080604052600436101561001357600080fd5b600090813560e01c90816304c1ff071461388d575080630fc635b31461373b578063176ab440146136b657806321ede0321461363957806323946f1f146135ff5780632da45e8e146135af5780633492e5a8146135325780633659cfe6146133595780634cf5f910146132315780634f1ef28614612f6257806352d1902d14612e9e578063677b198414612c92578063715018a614612c3457806378c19898146126bc5780637f3582301461263f5780638a29e2de146122175780638da5cb5b146121ee5780639890cddf146121815780639dbef5d114612057578063a01fa6a914611bb3578063af231a5814611b36578063ca774e6814611ae6578063d647ed3c146102a8578063e4e87e3b1461020c578063f2fde38b1461017b5763fa5312c81461013f57600080fd5b34610178576020366003190112610178576020906040906001600160a01b036101666138dc565b16815261010783522054604051908152f35b80fd5b5034610178576020366003190112610178576101956138dc565b61019d6139fc565b6001600160a01b038116156101b8576101b590613a54565b80f35b60405162461bcd60e51b815260206004820152602660248201527f4f776e61626c653a206e6577206f776e657220697320746865207a65726f206160448201526564647265737360d01b6064820152608490fd5b503461017857602036600319011261017857806102276138dc565b61022f6139fc565b73__$7682c538d2a75d26dfca907f0e750789f4$__90813b156102a4576040516386e5800760e01b815260fb60048201526001600160a01b039091166024820152908290829060449082905af48015610299576102895750f35b61029290613939565b6101785780f35b6040513d84823e3d90fd5b5050fd5b5060a0366003190112610178576102bd6138dc565b6102c5613908565b6064359060ff82168203610e64576084356001600160401b038111610de6576102f29036906004016139be565b9190600260655414611aa15760026065556001600160a01b03851686526101036020526040808720905193906103278561394c565b60018060a01b03815416855260018060a01b036001820154166020860152600281015460408601526003810154606086015260048101546080860152604051806005830190602082549182815201918b5260208b20908b5b818110611a82575050509061039981600694930382613982565b60a0870152604051910180548083529089526020808a209183918201908b905b80601f8301106118ed576104cf9454918181106118d9575b8181106118c2575b8181106118ab575b818110611894575b81811061187e575b818110611867575b818110611850575b818110611839575b818110611822575b81811061180b575b8181106117f4575b8181106117dd575b8181106117c6575b8181106117af575b818110611798575b818110611781575b81811061176a575b818110611753575b81811061173c575b818110611725575b81811061170e575b8181106116f7575b8181106116e0575b8181106116c9575b8181106116b2575b81811061169b575b818110611684575b81811061166d575b818110611656575b81811061163f575b818110611628575b1061161a575b500382613982565b60c085015283516001600160a01b0316156115b7576104ed81613d71565b916104fb6040519384613982565b8183526020830190368360051b820111610e0a5780915b8360051b820183106115a7575050505061052d903386613fb7565b8151610542906001600160a01b031685613e05565b60ff83161561154d576001600160a01b0384168552610105602052604085205415801561150b575b156114ae576001600160a01b03841685526101076020526040852054158015611468575b1561140457608082015180159081156113f6575b501561138b576060820151421061133a576040820151604435036112d9576001600160a01b038116158015611275575b156112385760208201516001600160a01b038281169116036111cd576105fd60443560ff8516613d9c565b916040810151611145575b6001600160a01b0385168652610105602052604086205461111a575b6001600160a01b038516865261010760205260408620546110da575b60405163755edd1760e01b8152336004820152926020846024818a6001600160a01b038b165af1938415610b6e5787946110a6575b5060fc5487906001600160a01b0316803b156110a257604051635a3c652d60e01b81526001600160a01b038916600482015260248101879052600160448201529082908290606490829084905af161108e575b505060015b60ff86168110610fac57506040820151610773575b50516001600160a01b0316926106fb9060ff1683613ddc565b600019810190811161075f576040805193845260208401919091526001600160a01b03918216908301526044356060830152339316907f3bbd73fed0f94290f16db112f6b7113697c2502dd42aa0ddf8f971472523f10090608090a4600160655580f35b634e487b7160e01b86526011600452602486fd5b92909491939560018060a01b038651169260a08701519760c0880151948951865103610f4b5760fc546040516361fe24a960e11b815260048101899052908890602090839060249082906001600160a01b03165afa918215610f40578692610f0c575b50604051916107e483613967565b60028352604036602085013760fb546001600160a01b031680610806856140ff565b526101025460405163e286ef3360e01b81526004810187905290602090829060249082906001600160a01b03165afa908115610e71578991610ed2575b506001600160a01b031661085685614122565b526001600160a01b0361086885614122565b5116610eb9575b61087884614122565b6001600160a01b03909116905260405161089181613967565b600281526040366020830137610101546040516303fdde1160e21b8152600481018d90526001600160a01b0390911690602081602481855afa908115610eae578a91610e7c575b506108e2836140ff565b5260208c60246040518094819363470d6ed960e11b835260048301525afa908115610e71579085918a91610e35575b50926109279361092084614122565b528d61446e565b60fc54604051631446f21360e21b81526001600160a01b038781166004830152602482018a9052909160209183916044918391165afa908115610b6e578791610e16575b50610c15576040519261097d8461391e565b6001845260203681860137604051926109958461391e565b60018452602036818601376001600160a01b03906109b2906140ff565b51166109bd846140ff565b5260fd54604051635dc22eff60e01b81526004810183905290602090829060249082906001600160a01b03165afa908115610c0a578891610bdb575b5015610b795760fd54604051632260494f60e01b81526004810192909252602090829060249082906001600160a01b03165afa908115610b6e578a610a61610a829695946064610a5a60ff8297610a67978f91610b3f575b50168095613d9c565b0490613df8565b9b613d9c565b04610a71836140ff565b52610a7b826140ff565b518a61446e565b885193610a8e85613d71565b94610a9c6040519687613982565b808652610aab601f1991613d71565b01366020870137839784985b8b518a1015610b1b57610b0f610b15916064610b0860ff610b008f8f8f908f908388610af3610afa9389610aeb8589614132565b511690613d9c565b0492614132565b52614132565b51168d613d9c565b0490613ddc565b99613de9565b98610ab7565b610b389399506106fb9692985060ff959b9197509993998761446e565b91506106e2565b610b61915060203d602011610b67575b610b598183613982565b810190614455565b38610a51565b503d610b4f565b6040513d89823e3d90fd5b5060fc5460405163b28a7bad60e01b81526001600160a01b038781166004830152909160209183916024918391165afa908115610b6e578a610a61610bd69695946064610a5a60ff8297610a67978f91610b3f5750168095613d9c565b610a82565b610bfd915060203d602011610c03575b610bf58183613982565b810190614146565b386109f9565b503d610beb565b6040513d8a823e3d90fd5b5050509794969391809693918160018060a01b0360fe541660648b6040519b8c938492637a99dc0160e11b845260018060a01b038816600485015289602485015260448401525af1998a15610299578298839b610cc1575b50829883995b8c518b1015610ca157610c95610c9b91610c8e8f8e90614132565b5190613ddc565b9a613de9565b99610c73565b989b919395979a610bd69395979a5089610cba91613df8565b988a61446e565b985099503d978883823e610cd58982613982565b6040818a81010312610e125780516001600160401b038111610e0e57810190898101601f83011215610e0e57815191610d0d83613d71565b92610d1b6040519485613982565b80845260208401918c840160208360051b83010111610de25760208101925b60208360051b8301018410610dea57505050506020810151996001600160401b038b11610de657808201601f8c8401011215610de6578a82015191610d7e83613d71565b9b610d8c6040519d8e613982565b838d5260208d0192820160208560051b838501010111610de2579190602083820101925b60208560051b82840101018410610dce575050505050979938610c6d565b602080809486518152019401939250610db0565b8680fd5b8480fd5b83516001600160a01b0381168103610e0a57815260209384019301610d3a565b8880fd5b8380fd5b8280fd5b610e2f915060203d602011610c0357610bf58183613982565b3861096b565b9150506020813d602011610e69575b81610e5160209383613982565b81010312610e6457518490610927610911565b600080fd5b3d9150610e44565b6040513d8b823e3d90fd5b90506020813d602011610ea6575b81610e9760209383613982565b81010312610e645751386108d8565b3d9150610e8a565b6040513d8c823e3d90fd5b506001600160a01b03610ecb84614122565b511661086f565b90506020813d602011610f04575b81610eed60209383613982565b81010312610e0a57610efe90613cfd565b38610843565b3d9150610ee0565b9091506020813d602011610f38575b81610f2860209383613982565b81010312610e64575190386107d6565b3d9150610f1b565b6040513d88823e3d90fd5b60405162461bcd60e51b815260206004820152603360248201527f4e756d626572206f662073706c69742061646472657373657320616e642072616044820152723a34b7b99036bab9ba1031329032b8bab0b61760691b6064820152608490fd5b60405163755edd1760e01b81523360048201526020816024818c6001600160a01b038d165af18015610e7157611063575b5060fc5488906001600160a01b0316610ff68388613ddc565b813b15610e1257604051635a3c652d60e01b81526001600160a01b038b1660048201526024810191909152600160448201529082908290606490829084905af161104b575b505061104690613de9565b6106cd565b61105490613939565b61105f57873861103b565b8780fd5b602090813d8311611087575b6110798183613982565b81010312610e645738610fdd565b503d61106f565b61109790613939565b610de25786386106c8565b5080fd5b9093506020813d6020116110d2575b816110c260209383613982565b81010312610e6457519238610675565b3d91506110b5565b610108602052604086203360005260205260406000208054600181018111611106576001019055610640565b634e487b7160e01b88526011600452602488fd5b6101066020526040862033600052602052604060002061113e60ff86168254613ddc565b9055610624565b60fc546040516361fe24a960e11b81526004810185905290602090829060249082906001600160a01b03165afa908115610b6e578791611199575b5061118e6111949185613ddc565b8361415e565b610608565b90506020813d6020116111c5575b816111b460209383613982565b81010312610e64575161118e611180565b3d91506111a7565b60405162461bcd60e51b815260206004820152603960248201527f6d696e7444697265637453616c653a3a43757272656e637920646f6573206e6f60448201527f74206d617463682072657175697265642063757272656e6379000000000000006064820152608490fd5b60405162461bcd60e51b81526020600482015260156024820152744e6f7420617070726f7665642063757272656e637960581b6044820152606490fd5b5061010054604051632d5ad3d560e01b81526001600160a01b038381166004830152909160209183916024918391165afa908115610f405786916112ba575b506105d2565b6112d3915060203d602011610c0357610bf58183613982565b386112b4565b60405162461bcd60e51b815260206004820152603360248201527f6d696e7444697265637453616c653a3a507269636520646f6573206e6f74206d6044820152726174636820726571756972656420707269636560681b6064820152608490fd5b60405162461bcd60e51b8152602060048201526024808201527f6d696e7444697265637453616c653a3a53616c6520686173206e6f74207374616044820152631c9d195960e21b6064820152608490fd5b60405162461bcd60e51b815260206004820152603a60248201527f6d696e7444697265637453616c653a3a4d696e7473206d757374206265206c6560448201527f7373207468616e206d61784d696e7420696620656e61626c65640000000000006064820152608490fd5b905060ff84161115386105a2565b60405162461bcd60e51b815260206004820152603660248201527f6d696e7444697265637453616c653a3a4578636565646564207472616e73616360448201527574696f6e206c696d697420666f72206164647265737360501b6064820152608490fd5b50610108602052604085203360005260205260406000205460018101811161075f576001600160a01b03851686526101076020526040862054600191909101111561058e565b60405162461bcd60e51b815260206004820152602f60248201527f6d696e7444697265637453616c653a3a4578636565646564206d696e74206c6960448201526e6d697420666f72206164647265737360881b6064820152608490fd5b50610106602052604085203360005260205261152f60ff8416604060002054613ddc565b6001600160a01b03851686526101056020526040862054101561056a565b60405162461bcd60e51b815260206004820152602c60248201527f6d696e7444697265637453616c653a3a4d696e7473206d75737420626520677260448201526b06561746572207468616e20360a41b6064820152608490fd5b8235815260209283019201610512565b60405162461bcd60e51b815260206004820152603560248201527f6d696e7444697265637453616c653a3a436f6e7472616374206e6f7420707265604482015274706172656420666f72206469726563742073616c6560581b6064820152608490fd5b60f81c8152602001386104c7565b92602060019160ff8560f01c1681520193016104c1565b92602060019160ff8560e81c1681520193016104b9565b92602060019160ff8560e01c1681520193016104b1565b92602060019160ff8560d81c1681520193016104a9565b92602060019160ff8560d01c1681520193016104a1565b92602060019160ff8560c81c168152019301610499565b92602060019160ff8560c01c168152019301610491565b92602060019160ff8560b81c168152019301610489565b92602060019160ff8560b01c168152019301610481565b92602060019160ff8560a81c168152019301610479565b92602060019160ff8560a01c168152019301610471565b92602060019160ff8560981c168152019301610469565b92602060019160ff8560901c168152019301610461565b92602060019160ff8560881c168152019301610459565b92602060019160ff8560801c168152019301610451565b92602060019160ff8560781c168152019301610449565b92602060019160ff8560701c168152019301610441565b92602060019160ff8560681c168152019301610439565b92602060019160ff8560601c168152019301610431565b92602060019160ff8560581c168152019301610429565b92602060019160ff8560501c168152019301610421565b92602060019160ff8560481c168152019301610419565b92602060019160ff8560401c168152019301610411565b92602060019160ff8560381c168152019301610409565b92602060019160ff8560301c168152019301610401565b92602060019160ff8560281c1681520193016103f9565b92602060019160ff85831c1681520193016103f1565b92602060019160ff8560181c1681520193016103e9565b92602060019160ff8560101c1681520193016103e1565b92602060019160ff8560081c1681520193016103d9565b92602060019160ff851681520193016103d1565b916020919350610400600191865460ff8116825260ff8160081c168583015260ff8160101c16604083015260ff8160181c16606083015260ff81861c16608083015260ff8160281c1660a083015260ff8160c0828260301c1681860152828260381c1660e0860152828260401c16610100860152828260481c16610120860152828260501c16610140860152828260581c16610160860152828260601c16610180860152828260681c166101a0860152828260701c166101c0860152828260781c166101e0860152828260801c16610200860152828260881c16610220860152828260901c16610240860152828260981c16610260860152828260a01c16610280860152828260a81c166102a0860152828260b01c166102c0860152828260b81c166102e08601521c1661030083015260ff8160c81c1661032083015260ff8160d01c1661034083015260ff8160d81c1661036083015260ff8160e01c1661038083015260ff8160e81c166103a083015260ff8160f01c166103c083015260f81c6103e08201520194019201849293916103b9565b82546001600160a01b031684526020909301926001928301920161037f565b60405162461bcd60e51b815260206004820152601f60248201527f5265656e7472616e637947756172643a207265656e7472616e742063616c6c006044820152606490fd5b503461017857604036600319011261017857611b006138dc565b6040611b0a613908565b9260018060a01b0380931681526101066020522091166000526020526020604060002054604051908152f35b50346101785760203660031901126101785780611b516138dc565b611b596139fc565b73__$7682c538d2a75d26dfca907f0e750789f4$__90813b156102a45760405163c70c56c760e01b815260fb60048201526001600160a01b039091166024820152908290829060449082905af48015610299576102895750f35b503461017857602036600319011261017857611bcd6138dc565b606060c0604051611bdd8161394c565b84815284602082015284604082015284838201528460808201528260a0820152015260018060a01b03168152610103602052604081209060405191611c218361394c565b60018060a01b03815416835260018060a01b0360018201541660208401526002810154604084015260038101546060840152600481015460808401526005810160405190816020825491828152019185526020852090855b8181106120385750505090611c9381600694930382613982565b60a085015260405191018054808352908352602080842091839182019085905b80601f830110611e9057611da99454918181106118d9578181106118c2578181106118ab578181106118945781811061187e578181106118675781811061185057818110611839578181106118225781811061180b578181106117f4578181106117dd578181106117c6578181106117af57818110611798578181106117815781811061176a578181106117535781811061173c578181106117255781811061170e578181106116f7578181106116e0578181106116c9578181106116b25781811061169b578181106116845781811061166d578181106116565781811061163f57818110611628571061161a57500382613982565b60c08301526040519182916020835261010083019160018060a01b03815116602085015260018060a01b0360208201511660408501526040810151606085015260608101516080850152608081015160a085015260a08101519260e060c0860152835180915260206101208601940190835b818110611e6e5750505060c0015191601f198482030160e0850152602080845192838152019301915b818110611e52575050500390f35b825160ff16845285945060209384019390920191600101611e44565b82516001600160a01b0316865287965060209586019590920191600101611e1b565b916020919350610400600191865460ff8116825260ff8160081c168583015260ff8160101c16604083015260ff8160181c16606083015260ff81861c16608083015260ff8160281c1660a083015260ff8160301c1660c083015260ff8160381c1660e083015260ff8160401c1661010083015260ff8160481c1661012083015260ff8160501c1661014083015260ff8160581c1661016083015260ff8160601c1661018083015260ff8160681c166101a083015260ff8160701c166101c083015260ff8160781c166101e083015260ff8160801c1661020083015260ff8160881c1661022083015260ff8160901c1661024083015260ff8160981c1661026083015260ff8160a01c1661028083015260ff8160a81c166102a083015260ff8160b01c166102c083015260ff8160b81c166102e083015260ff8160c01c1661030083015260ff8160c81c1661032083015260ff8160d01c1661034083015260ff8160d81c1661036083015260ff8160e01c1661038083015260ff8160e81c166103a083015260ff8160f01c166103c083015260f81c6103e0820152019401920184929391611cb3565b82546001600160a01b0316845260209093019260019283019201611c79565b5034610178576040366003190112610178576120716138dc565b604051638da5cb5b60e01b81526001600160a01b039182169160209160243591908381600481885afa908115610f40578691612148575b501633036120eb57907f5c8158ce792c8da34f9a8974acdb882c2c9cecc225c4ccf3c4a119aa2c726070918385526101078252806040862055604051908152a280f35b60405162461bcd60e51b815260048101839052602f60248201527f736574436f6e747261637454784c696d69743a3a4f6e6c7920636f6e7472616360448201526e1d081bdddb995c8818d85b881cd95d608a1b6064820152608490fd5b90508381813d831161217a575b61215f8183613982565b810103126121765761217090613cfd565b386120a8565b8580fd5b503d612155565b5034610178576020366003190112610178576040809161219f6138dc565b6000602084516121ae8161391e565b82815201526001600160a01b031681526101096020522081516121d08161391e565b60206001835493848452015491019081528251918252516020820152f35b50346101785780600319360112610178576033546040516001600160a01b039091168152602090f35b503461017857610100366003190112610178576122326138dc565b61223a613908565b906122436138f2565b6064356001600160a01b0381168103610e64576084356001600160a01b0381168103610e645760a435906001600160a01b0382168203610e645760c435926001600160a01b0384168403610e645760e435946001600160a01b0386168603610e645788549760ff8960081c16159889809a612632575b801561261b575b156125bf5760ff1981166001178b55896125ae575b506040516323e95fa960e01b81526001600160a01b039889166004820152908816602482015290871660448201529086166064820152908516608482015290841660a482015290831660c4820152911660e4820152610100816101048173__$7682c538d2a75d26dfca907f0e750789f4$__5af49081156125a3578391612477575b5060018060a01b03815116906001600160601b0360a01b918260fb54161760fb5560018060a01b036020820151168260fc54161760fc5560018060a01b036040820151168260fd54161760fd5560018060a01b036060820151168260fe54161760fe5560018060a01b036080820151168260ff54161760ff5560018060a01b0360a082015116826101005416176101005560018060a01b0360c082015116610101908382541617905560e060018060a01b03910151166101029182541617905561243060ff835460081c1661242b81613d11565b613d11565b61243933613a54565b6124405780f35b61ff001981541681557f7f26b83ff96e1f2b6a682f133852f6798a09c465da95921460cefb3847402498602060405160018152a180f35b9050610100813d6101001161259b575b816124956101009383613982565b81010312610e12576040519061010082018281106001600160401b03821117612585576040526124c481613cfd565b825260208101516001600160a01b0381168103610de657602083015260408101516001600160a01b0381168103610de657604083015260608101516001600160a01b0381168103610de657606083015260808101516001600160a01b0381168103610de657608083015260a08101516001600160a01b0381168103610de65760a083015260c0810151906001600160a01b0382168203610de65760c083019190915260e001516001600160a01b0381168103610e0e5760e082015238612357565b634e487b7160e01b600052604160045260246000fd5b3d9150612487565b6040513d85823e3d90fd5b61ffff1916610101178a55386122d5565b60405162461bcd60e51b815260206004820152602e60248201527f496e697469616c697a61626c653a20636f6e747261637420697320616c72656160448201526d191e481a5b9a5d1a585b1a5e995960921b6064820152608490fd5b50303b1580156122c05750600160ff8216146122c0565b50600160ff8216106122b9565b5034610178576020366003190112610178578061265a6138dc565b6126626139fc565b73__$7682c538d2a75d26dfca907f0e750789f4$__90813b156102a457604051630cf1420760e21b815260fb60048201526001600160a01b039091166024820152908290829060449082905af48015610299576102895750f35b50346101785760e0366003190112610178576126d66138dc565b6126de613908565b9060a4356001600160401b038111610e0e576126fe9036906004016139be565b60c4356001600160401b0381116121765761271d9036906004016139be565b604051638da5cb5b60e01b8152919390916020816004816001600160a01b038a165afa908115610c0a578891612bfa575b50336001600160a01b0390911603612b835760405161276c8161394c565b3381526001600160a01b038716602082015260443560408201526064356060820152608435608082015261279f84613d71565b6127ac6040519182613982565b84815260208101368660051b850111612b675783905b8660051b85018210612b6b57505060a08201526127de83613d71565b6127eb6040519182613982565b83815260208101368560051b880111612b675786905b8560051b88018210612b4f57505060c082015260018060a01b0386168852610103602052604088209060018060a01b038151166001600160601b0360a01b8354161782556001820160018060a01b036020830151166001600160601b0360a01b82541617905560408101516002830155606081015160038301556080810151600483015560a08101518051906001600160401b038211612b3b57600160401b8211612b3b576020908b600586015484600588015584818110612b1d575b50505001600584018b5260208b208b5b838110612b00575050505060c00151908151906001600160401b038211612aec57600160401b8211612aec57600660209101928354838555808410612aa2575b50019189526020892090895b8160051c8110612a635750601f198116810380612a16575b5050505091604051928160a0850160443586526064356020870152608435604087015260a060608701525260c084019091885b8181106129ea575050602091508381036080850152828152019290865b8181106129c8575033956001600160a01b039081169516937f36de0d2c8eec9296de665d70b6b6e55d8c29bfa7a36e0178e805ef54725d9f5c939081900392509050a480f35b90919360208060019260ff6129dc896139ee565b168152019501929101612982565b909160019060209081906001600160a01b03612a0588613d88565b168152019401910192919092612965565b928a938b5b818110612a335750505060051c015538808080612932565b9091946020612a596001928460ff8a5116919060ff809160031b9316831b921b19161790565b9601929101612a1b565b8a8b5b60208110612a7b57508382015560010161291a565b855190959160019160209160ff60038a901b81811b199092169216901b1792019501612a66565b612acc90858d52838d20601f80870160051c82019281881680612ad2575b500160051c0190613dc5565b3861290e565b60001990818601918254918a0360031b1c16905538612ac0565b634e487b7160e01b8a52604160045260248afd5b82516001600160a01b0316818301556020909201916001016128ce565b84612b339360058a018152209182019101613dc5565b8b38846128be565b634e487b7160e01b8b52604160045260248bfd5b60208091612b5c846139ee565b815201910190612801565b8980fd5b60208091612b7884613d88565b8152019101906127c2565b60a460405162461bcd60e51b815260206004820152604460248201527f707265706172654d696e7444697265637453616c653a3a4f6e6c79206d696e7460448201527f20636f6e7472616374206f776e65722063616e207072657061726520746865206064820152631b5a5b9d60e21b6084820152fd5b90506020813d602011612c2c575b81612c1560209383613982565b8101031261105f57612c2690613cfd565b3861274e565b3d9150612c08565b5034610178578060031936011261017857612c4d6139fc565b603380546001600160a01b031981169091556000906001600160a01b03167f8be0079c531659141344cd1fd0a4f28419497f9722a3daafe3b4186f6b6457e08280a380f35b5034610178576060366003190112610178576001600160a01b0380612cb56138dc565b1660405191638da5cb5b60e01b83526020928381600481865afa8015612df05782918691612e66575b50163303612dfb57602483826101025416604051928380926381d0606b60e01b82523360048301525afa908115612df0578591612dbb575b501615612d505760019061010960405193612d308561391e565b602435855280850192604435845286525260408420925183555191015580f35b60405162461bcd60e51b815260048101839052603c60248201527f736574436f6e747261637453656c6c65725374616b696e674d696e696d756d3a60448201527f3a53656c6c657220646f6573206e6f742068617665206120706f6f6c000000006064820152608490fd5b90508381813d8311612de9575b612dd28183613982565b81010312610de657612de390613cfd565b38612d16565b503d612dc8565b6040513d87823e3d90fd5b60405162461bcd60e51b815260048101849052603c60248201527f736574436f6e747261637453656c6c65725374616b696e674d696e696d756d3a60448201527f3a4f6e6c7920636f6e7472616374206f776e65722063616e20736574000000006064820152608490fd5b809250858092503d8311612e97575b612e7f8183613982565b81010312610de657612e918291613cfd565b38612cde565b503d612e75565b50346101785780600319360112610178577f00000000000000000000000000000000000000000000000000000000000000006001600160a01b03163003612ef75760206040516000805160206145c68339815191528152f35b60405162461bcd60e51b815260206004820152603860248201527f555550535570677261646561626c653a206d757374206e6f742062652063616c60448201527f6c6564207468726f7567682064656c656761746563616c6c00000000000000006064820152608490fd5b50604036600319011261017857612f776138dc565b602435906001600160401b038211610e125736602383011215610e12578160040135612fa2816139a3565b90612fb06040519283613982565b80825284602094858401923660248284010111610e12578060248893018537840101526001600160a01b037f000000000000000000000000000000000000000000000000000000000000000081169061300b30831415613a9d565b6130286000805160206145c6833981519152928284541614613afe565b6130306139fc565b7f4910fdfa16fed3260ed0e7147f7cc6da11a60208b5b9406d12a635614ffd91435460ff161561306857505050506101b59150613b5f565b84939416906040516352d1902d60e01b81528681600481865afa60009181613202575b506130ec5760405162461bcd60e51b815260048101889052602e60248201527f45524331393637557067726164653a206e657720696d706c656d656e7461746960448201526d6f6e206973206e6f74205555505360901b6064820152608490fd5b959495036131ab576130fd83613b5f565b7fbc7cd75a20ee27fd9adebab32041f755214dbc6bffa90cc0225b39da2e5c2d3b600080a28351158015906131a3575b613139575b5050505080f35b60008091613199957f416464726573733a206c6f772d6c6576656c2064656c65676174652063616c6c6040519661316f88613967565b60278852870152660819985a5b195960ca1b60408701525190845af4613193613bef565b91613c1f565b5038808080613132565b50600161312d565b60405162461bcd60e51b815260048101859052602960248201527f45524331393637557067726164653a20756e737570706f727465642070726f786044820152681a58589b195555525160ba1b6064820152608490fd5b90918882813d831161322a575b6132198183613982565b81010312610178575051903861308b565b503d61320f565b50346101785760403660031901126101785761324b6138dc565b604051638da5cb5b60e01b81526001600160a01b039182169160209160243591908381600481885afa908115610f40578691613324575b501633036132c557907fa9d9d6bd10e1caf4891001b6ccccdad5384a544c63cc903d40182c0a5a139cd9918385526101058252806040862055604051908152a280f35b60405162461bcd60e51b815260048101839052603160248201527f736574436f6e74726163744d696e744c696d69743a3a4f6e6c7920636f6e74726044820152701858dd081bdddb995c8818d85b881cd95d607a1b6064820152608490fd5b90508381813d8311613352575b61333b8183613982565b810103126121765761334c90613cfd565b38613282565b503d613331565b5034610178576020806003193601126110a2576133746138dc565b6001600160a01b037f00000000000000000000000000000000000000000000000000000000000000008116906133ac30831415613a9d565b6133c96000805160206145c6833981519152928284541614613afe565b6133d16139fc565b60405191848301918383106001600160401b03841117612585578260405286845260ff7f4910fdfa16fed3260ed0e7147f7cc6da11a60208b5b9406d12a635614ffd9143541660001461342c57505050506101b59150613b5f565b84939416906040516352d1902d60e01b81528681600481865afa60009181613503575b506134b05760405162461bcd60e51b815260048101889052602e60248201527f45524331393637557067726164653a206e657720696d706c656d656e7461746960448201526d6f6e206973206e6f74205555505360901b6064820152608490fd5b959495036131ab576134c183613b5f565b7fbc7cd75a20ee27fd9adebab32041f755214dbc6bffa90cc0225b39da2e5c2d3b600080a28351158015906134fb57613139575050505080f35b50600061312d565b90918882813d831161352b575b61351a8183613982565b81010312610178575051903861344f565b503d613510565b5034610178576020366003190112610178578061354d6138dc565b6135556139fc565b73__$7682c538d2a75d26dfca907f0e750789f4$__90813b156102a45760405163dec30e3360e01b815260fb60048201526001600160a01b039091166024820152908290829060449082905af48015610299576102895750f35b5034610178576040366003190112610178576135c96138dc565b60406135d3613908565b9260018060a01b0380931681526101086020522091166000526020526020604060002054604051908152f35b5034610178576020366003190112610178576020906040906001600160a01b036136276138dc565b16815261010583522054604051908152f35b503461017857602036600319011261017857806136546138dc565b61365c6139fc565b73__$7682c538d2a75d26dfca907f0e750789f4$__90813b156102a45760405163ebda042b60e01b815260fb60048201526001600160a01b039091166024820152908290829060449082905af48015610299576102895750f35b5034610178576020366003190112610178576136d06138dc565b6136d86139fc565b8173__$7682c538d2a75d26dfca907f0e750789f4$__91823b156110a257604051632c55921b60e01b815260fb60048201526001600160a01b03909116602482015291829060449082905af4801561029957613732575080f35b6101b590613939565b5034610178576060366003190112610178576024356004356001600160a01b03806137646138f2565b169260405191638da5cb5b60e01b83526020928381600481895afa908115610b6e578791613858575b501633036137ed57907fff2ce9a528a62cad638cc9f5bccd36a62ecfa9aa0b1ab82c98957cb3498b4b67916040516137c48161391e565b84815260018382018381528789526101048552604089209251835551910155604051908152a380f35b60405162461bcd60e51b815260048101839052603760248201527f736574436f6e7472616374416c6c6f774c697374436f6e6669673a3a4f6e6c7960448201527f20636f6e7472616374206f776e65722063616e207365740000000000000000006064820152608490fd5b90508381813d8311613886575b61386f8183613982565b81010312610de25761388090613cfd565b3861378d565b503d613865565b9050346110a25760203660031901126110a25760408281928160206138b06138dc565b926138ba8161391e565b82815201526001600160a01b031681526101046020522081516121d08161391e565b600435906001600160a01b0382168203610e6457565b604435906001600160a01b0382168203610e6457565b602435906001600160a01b0382168203610e6457565b604081019081106001600160401b0382111761258557604052565b6001600160401b03811161258557604052565b60e081019081106001600160401b0382111761258557604052565b606081019081106001600160401b0382111761258557604052565b90601f801991011681019081106001600160401b0382111761258557604052565b6001600160401b03811161258557601f01601f191660200190565b9181601f84011215610e64578235916001600160401b038311610e64576020808501948460051b010111610e6457565b359060ff82168203610e6457565b6033546001600160a01b03163303613a1057565b606460405162461bcd60e51b815260206004820152602060248201527f4f776e61626c653a2063616c6c6572206973206e6f7420746865206f776e65726044820152fd5b603380546001600160a01b039283166001600160a01b0319821681179092559091167f8be0079c531659141344cd1fd0a4f28419497f9722a3daafe3b4186f6b6457e0600080a3565b15613aa457565b60405162461bcd60e51b815260206004820152602c60248201527f46756e6374696f6e206d7573742062652063616c6c6564207468726f7567682060448201526b19195b1959d85d1958d85b1b60a21b6064820152608490fd5b15613b0557565b60405162461bcd60e51b815260206004820152602c60248201527f46756e6374696f6e206d7573742062652063616c6c6564207468726f7567682060448201526b6163746976652070726f787960a01b6064820152608490fd5b803b15613b94576000805160206145c683398151915280546001600160a01b0319166001600160a01b03909216919091179055565b60405162461bcd60e51b815260206004820152602d60248201527f455243313936373a206e657720696d706c656d656e746174696f6e206973206e60448201526c1bdd08184818dbdb9d1c9858dd609a1b6064820152608490fd5b3d15613c1a573d90613c00826139a3565b91613c0e6040519384613982565b82523d6000602084013e565b606090565b91929015613c815750815115613c33575090565b3b15613c3c5790565b60405162461bcd60e51b815260206004820152601d60248201527f416464726573733a2063616c6c20746f206e6f6e2d636f6e74726163740000006044820152606490fd5b825190915015613c945750805190602001fd5b60405162461bcd60e51b8152908190613cb09060048301613cb4565b0390fd5b6020808252825181830181905290939260005b828110613ce957505060409293506000838284010152601f8019910116010190565b818101860151848201604001528501613cc7565b51906001600160a01b0382168203610e6457565b15613d1857565b60405162461bcd60e51b815260206004820152602b60248201527f496e697469616c697a61626c653a20636f6e7472616374206973206e6f74206960448201526a6e697469616c697a696e6760a81b6064820152608490fd5b6001600160401b0381116125855760051b60200190565b35906001600160a01b0382168203610e6457565b81810292918115918404141715613daf57565b634e487b7160e01b600052601160045260246000fd5b818110613dd0575050565b60008155600101613dc5565b91908201809211613daf57565b6000198114613daf5760010190565b91908203918211613daf57565b6001600160a01b03908116600081815261010960208181526040808420805492979196959215613fad5760010154421015613fa4576101025486516381d0606b60e01b8152918616600483015287908290602490829089165afa908115613f9a579087918591613f64575b506024875180978193630e67667b60e21b8352336004840152165afa938415613f5a5790839291869495613f23575b5082528552205411613eaf575050565b60a49250519062461bcd60e51b82526004820152604260248201527f5f656e666f726365436f6e747261637453656c6c65725374616b696e674d696e60448201527f696d756d3a3a41646472657373206e6f74206f6e207374616b656420656e6f756064820152610ced60f31b6084820152fd5b878092965081939495503d8311613f53575b613f3f8183613982565b81010312610e125790849291519338613e9f565b503d613f35565b85513d85823e3d90fd5b82819392503d8311613f93575b613f7b8183613982565b81010312610e0e57613f8d8791613cfd565b38613e70565b503d613f71565b86513d86823e3d90fd5b50505050505050565b5050505050505050565b6001600160a01b03166000908152610104602090815260408083208054929591949293928415613fa457600180920154421015613fa457908092918651888101916001600160601b03199060601b168252601481526140158161391e565b5190209380935b614088575b505050500361402e575050565b60849250519062461bcd60e51b82526004820152602e60248201527f5f656e666f726365416c6c6f774c69737465643a3a41646472657373206e6f7460448201526d081bdb88185b1b1bddc81b1a5cdd60921b6064820152fd5b9091929383518510156140f9576140ce906140a38686614132565b518082116140d7578851908a8201928352898201528881526140c481613967565b5190205b94613de9565b9291908161401c565b908851908a8201928352898201528881526140f181613967565b5190206140c8565b93614021565b80511561410c5760200190565b634e487b7160e01b600052603260045260246000fd5b80516001101561410c5760400190565b805182101561410c5760209160051b010190565b90816020910312610e6457518015158103610e645790565b6001600160a01b031690811561433057346142da5760409081516370a0823160e01b938482523060048301526020948583602481855afa9283156142cf576000936142a0575b5084516323b872dd60e01b87820152336024820152306044820152606480820186905281529060a082016001600160401b038111838210176125855787926141ee91885284614375565b602486518094819382523060048301525afa90811561429557600091614266575b509061421a91613df8565b03614223575050565b60649250519062461bcd60e51b82526004820152601c60248201527f6e6f7420656e6f75676820746f6b656e73207472616e736665726564000000006044820152fd5b908582813d831161428e575b61427c8183613982565b8101031261017857505161421a61420f565b503d614272565b84513d6000823e3d90fd5b90928682813d83116142c8575b6142b78183613982565b8101031261017857505191386141a4565b503d6142ad565b85513d6000823e3d90fd5b60405162461bcd60e51b815260206004820152602860248201527f6d73672e76616c75652073686f756c642062652030207768656e206e6f7420756044820152670e6d2dcce40cae8d60c31b6064820152608490fd5b9050340361433a57565b60405162461bcd60e51b81526020600482015260136024820152721b9bdd08195b9bdd59da08195d1a081cd95b9d606a1b6044820152606490fd5b6040516143cd916001600160a01b031661438e8261391e565b6000806020958685527f5361666545524332303a206c6f772d6c6576656c2063616c6c206661696c656487860152868151910182855af1613193613bef565b80519082821592831561443d575b505050156143e65750565b6084906040519062461bcd60e51b82526004820152602a60248201527f5361666545524332303a204552433230206f7065726174696f6e20646964206e6044820152691bdd081cdd58d8d9595960b21b6064820152fd5b61444d9350820181019101614146565b3882816143db565b90816020910312610e64575160ff81168103610e645790565b6001600160a01b03929083168061454557508260ff541693604051916020908184019563c176e63960e01b87526064850160406024870152825180915283608487019301916000905b82821061452c575050505083810360231901604485015282518082529082019282019160005b82811061451857505050509181614503600096949387969403601f198101835282613982565b51925af161450f613bef565b9015613c945750565b8351855293810193928101926001016144dd565b83518116855293850193928501926001909101906144b7565b92915060009493945b81518110156145bd57806145b3846145696145b89486614132565b51166145ad614578848b614132565b5160405163a9059cbb60e01b60208201526001600160a01b039390931660248401526044808401919091528252606482613982565b86614375565b613de9565b61454e565b50505050905056fe360894a13ba1a3210667c828492db98dca3e2076cc3735a920a3ca505d382bbca2646970667358221220b88ac79906979228270ad66cca8e9483b428a46912fc5ac02deb74d625d85a0064736f6c63430008120033",
    "linkReferences": {
      "src/utils/structs/MarketConfig.sol": {
        "MarketConfig": [
          {
            "start": 616,
            "length": 20
          },
          {
            "start": 7058,
            "length": 20
          },
          {
            "start": 9067,
            "length": 20
          },
          {
            "start": 9883,
            "length": 20
          },
          {
            "start": 13710,
            "length": 20
          },
          {
            "start": 13973,
            "length": 20
          },
          {
            "start": 14098,
            "length": 20
          }
        ]
      }
    }
  },
  "methodIdentifiers": {
    "getContractAllowListConfig(address)": "04c1ff07",
    "getContractMintLimit(address)": "23946f1f",
    "getContractMintsPerAddress(address,address)": "ca774e68",
    "getContractSellerStakingMinimum(address)": "9890cddf",
    "getContractTxLimit(address)": "fa5312c8",
    "getContractTxsPerAddress(address,address)": "2da45e8e",
    "getDirectSaleConfig(address)": "a01fa6a9",
    "initialize(address,address,address,address,address,address,address,address)": "8a29e2de",
    "mintDirectSale(address,address,uint256,uint8,bytes32[])": "d647ed3c",
    "owner()": "8da5cb5b",
    "prepareMintDirectSale(address,address,uint256,uint256,uint256,address[],uint8[])": "78c19898",
    "proxiableUUID()": "52d1902d",
    "renounceOwnership()": "715018a6",
    "setApprovedTokenRegistry(address)": "e4e87e3b",
    "setContractAllowListConfig(bytes32,uint256,address)": "0fc635b3",
    "setContractMintLimit(address,uint256)": "4cf5f910",
    "setContractSellerStakingMinimum(address,uint256,uint256)": "677b1984",
    "setContractTxLimit(address,uint256)": "9dbef5d1",
    "setMarketplaceSettings(address)": "176ab440",
    "setNetworkBeneficiary(address)": "3492e5a8",
    "setPayments(address)": "af231a58",
    "setRoyaltyEngine(address)": "21ede032",
    "setSpaceOperatorRegistry(address)": "7f358230",
    "transferOwnership(address)": "f2fde38b",
    "upgradeTo(address)": "3659cfe6",
    "upgradeToAndCall(address,bytes)": "4f1ef286"
  },
  "id": 159
}