{"abi":[{"type":"function","name":"addToWhitelist","inputs":[{"name":"_newAddress","type":"address","internalType":"address"}],"outputs":[],"stateMutability":"nonpayable"},{"type":"function","name":"approve","inputs":[{"name":"to","type":"address","internalType":"address"},{"name":"tokenId","type":"uint256","internalType":"uint256"}],"outputs":[],"stateMutability":"nonpayable"},{"type":"function","name":"balanceOf","inputs":[{"name":"owner","type":"address","internalType":"address"}],"outputs":[{"name":"","type":"uint256","internalType":"uint256"}],"stateMutability":"view"},{"type":"function","name":"burn","inputs":[{"name":"tokenId","type":"uint256","internalType":"uint256"}],"outputs":[],"stateMutability":"nonpayable"},{"type":"function","name":"defaultRoyaltyPercentage","inputs":[],"outputs":[{"name":"","type":"uint256","internalType":"uint256"}],"stateMutability":"view"},{"type":"function","name":"deleteToken","inputs":[{"name":"_tokenId","type":"uint256","internalType":"uint256"}],"outputs":[],"stateMutability":"nonpayable"},{"type":"function","name":"getApproved","inputs":[{"name":"tokenId","type":"uint256","internalType":"uint256"}],"outputs":[{"name":"","type":"address","internalType":"address"}],"stateMutability":"view"},{"type":"function","name":"getDefaultRoyaltyPercentage","inputs":[],"outputs":[{"name":"","type":"uint256","internalType":"uint256"}],"stateMutability":"view"},{"type":"function","name":"getDefaultRoyaltyReceiver","inputs":[],"outputs":[{"name":"","type":"address","internalType":"address"}],"stateMutability":"view"},{"type":"function","name":"getMintingAllowance","inputs":[{"name":"_address","type":"address","internalType":"address"}],"outputs":[{"name":"","type":"uint256","internalType":"uint256"}],"stateMutability":"view"},{"type":"function","name":"init","inputs":[{"name":"_name","type":"string","internalType":"string"},{"name":"_symbol","type":"string","internalType":"string"},{"name":"_operator","type":"address","internalType":"address"}],"outputs":[],"stateMutability":"nonpayable"},{"type":"function","name":"initWhitelist","inputs":[{"name":"_creators","type":"address[]","internalType":"address[]"},{"name":"_numMints","type":"uint256[]","internalType":"uint256[]"}],"outputs":[],"stateMutability":"nonpayable"},{"type":"function","name":"isApprovedForAll","inputs":[{"name":"owner","type":"address","internalType":"address"},{"name":"operator","type":"address","internalType":"address"}],"outputs":[{"name":"","type":"bool","internalType":"bool"}],"stateMutability":"view"},{"type":"function","name":"isWhitelisted","inputs":[{"name":"_address","type":"address","internalType":"address"}],"outputs":[{"name":"","type":"bool","internalType":"bool"}],"stateMutability":"view"},{"type":"function","name":"mintTo","inputs":[{"name":"_uri","type":"string","internalType":"string"},{"name":"_receiver","type":"address","internalType":"address"},{"name":"_royaltyReceiver","type":"address","internalType":"address"}],"outputs":[],"stateMutability":"nonpayable"},{"type":"function","name":"mintingAllowance","inputs":[{"name":"","type":"address","internalType":"address"}],"outputs":[{"name":"","type":"uint256","internalType":"uint256"}],"stateMutability":"view"},{"type":"function","name":"name","inputs":[],"outputs":[{"name":"","type":"string","internalType":"string"}],"stateMutability":"view"},{"type":"function","name":"owner","inputs":[],"outputs":[{"name":"","type":"address","internalType":"address"}],"stateMutability":"view"},{"type":"function","name":"ownerOf","inputs":[{"name":"tokenId","type":"uint256","internalType":"uint256"}],"outputs":[{"name":"","type":"address","internalType":"address"}],"stateMutability":"view"},{"type":"function","name":"removeFromWhitelist","inputs":[{"name":"_newAddress","type":"address","internalType":"address"}],"outputs":[],"stateMutability":"nonpayable"},{"type":"function","name":"renounceOwnership","inputs":[],"outputs":[],"stateMutability":"nonpayable"},{"type":"function","name":"royaltyInfo","inputs":[{"name":"_tokenId","type":"uint256","internalType":"uint256"},{"name":"_salePrice","type":"uint256","internalType":"uint256"}],"outputs":[{"name":"receiver","type":"address","internalType":"address"},{"name":"royaltyAmount","type":"uint256","internalType":"uint256"}],"stateMutability":"view"},{"type":"function","name":"safeTransferFrom","inputs":[{"name":"from","type":"address","internalType":"address"},{"name":"to","type":"address","internalType":"address"},{"name":"tokenId","type":"uint256","internalType":"uint256"}],"outputs":[],"stateMutability":"nonpayable"},{"type":"function","name":"safeTransferFrom","inputs":[{"name":"from","type":"address","internalType":"address"},{"name":"to","type":"address","internalType":"address"},{"name":"tokenId","type":"uint256","internalType":"uint256"},{"name":"data","type":"bytes","internalType":"bytes"}],"outputs":[],"stateMutability":"nonpayable"},{"type":"function","name":"setApprovalForAll","inputs":[{"name":"operator","type":"address","internalType":"address"},{"name":"approved","type":"bool","internalType":"bool"}],"outputs":[],"stateMutability":"nonpayable"},{"type":"function","name":"setRoyaltyReceiver","inputs":[{"name":"_tokenId","type":"uint256","internalType":"uint256"},{"name":"_receiver","type":"address","internalType":"address"}],"outputs":[],"stateMutability":"nonpayable"},{"type":"function","name":"supportsInterface","inputs":[{"name":"interfaceId","type":"bytes4","internalType":"bytes4"}],"outputs":[{"name":"","type":"bool","internalType":"bool"}],"stateMutability":"view"},{"type":"function","name":"symbol","inputs":[],"outputs":[{"name":"","type":"string","internalType":"string"}],"stateMutability":"view"},{"type":"function","name":"toggleWhitelist","inputs":[{"name":"_enabled","type":"bool","internalType":"bool"}],"outputs":[],"stateMutability":"nonpayable"},{"type":"function","name":"tokenCreator","inputs":[{"name":"_tokenId","type":"uint256","internalType":"uint256"}],"outputs":[{"name":"","type":"address","internalType":"address payable"}],"stateMutability":"view"},{"type":"function","name":"tokenURI","inputs":[{"name":"tokenId","type":"uint256","internalType":"uint256"}],"outputs":[{"name":"","type":"string","internalType":"string"}],"stateMutability":"view"},{"type":"function","name":"transferFrom","inputs":[{"name":"from","type":"address","internalType":"address"},{"name":"to","type":"address","internalType":"address"},{"name":"tokenId","type":"uint256","internalType":"uint256"}],"outputs":[],"stateMutability":"nonpayable"},{"type":"function","name":"transferOwnership","inputs":[{"name":"newOwner","type":"address","internalType":"address"}],"outputs":[],"stateMutability":"nonpayable"},{"type":"function","name":"updateMintingAllowance","inputs":[{"name":"_newAddress","type":"address","internalType":"address"},{"name":"_newAllowance","type":"uint256","internalType":"uint256"}],"outputs":[],"stateMutability":"nonpayable"},{"type":"function","name":"whitelistEnabled","inputs":[],"outputs":[{"name":"","type":"bool","internalType":"bool"}],"stateMutability":"view"},{"type":"event","name":"Approval","inputs":[{"name":"owner","type":"address","indexed":true,"internalType":"address"},{"name":"approved","type":"address","indexed":true,"internalType":"address"},{"name":"tokenId","type":"uint256","indexed":true,"internalType":"uint256"}],"anonymous":false},{"type":"event","name":"ApprovalForAll","inputs":[{"name":"owner","type":"address","indexed":true,"internalType":"address"},{"name":"operator","type":"address","indexed":true,"internalType":"address"},{"name":"approved","type":"bool","indexed":false,"internalType":"bool"}],"anonymous":false},{"type":"event","name":"Initialized","inputs":[{"name":"version","type":"uint8","indexed":false,"internalType":"uint8"}],"anonymous":false},{"type":"event","name":"MintingAllowanceUpdated","inputs":[{"name":"_address","type":"address","indexed":true,"internalType":"address"},{"name":"_allowedAmount","type":"uint256","indexed":false,"internalType":"uint256"}],"anonymous":false},{"type":"event","name":"OwnershipTransferred","inputs":[{"name":"previousOwner","type":"address","indexed":true,"internalType":"address"},{"name":"newOwner","type":"address","indexed":true,"internalType":"address"}],"anonymous":false},{"type":"event","name":"Transfer","inputs":[{"name":"from","type":"address","indexed":true,"internalType":"address"},{"name":"to","type":"address","indexed":true,"internalType":"address"},{"name":"tokenId","type":"uint256","indexed":true,"internalType":"uint256"}],"anonymous":false}],"bytecode":{"object":"0x6080806040523461002457610101805460ff19166001179055611f27908161002a8239f35b600080fdfe6080604081815260048036101561001557600080fd5b600092833560e01c90816301ffc9a71461151c5750806306fdde0314611472578063081812fc14611452578063095ea7b3146112e25780631029f467146112b5578063139d8325146112955780631ef87a5d146111e757806323b872dd146111bd5780632a55205a1461112b5780632d13f7d8146111035780633403c4e9146110da5780633af32abf1461109c57806340c1a0641461106a57806342842e0e1461104157806342966c68146110245780634aa52c4114610cfd57806351fb012d14610cd85780636297c16c14610ca15780636352211e14610c705780636ee5741a1461081e57806370a0823114610788578063715018a61461072857806380e3f1ad146106ef57806381b97161146106b65780638ab1d681146106505780638da5cb5b1461062757806395d89b4114610542578063a22cb46514610477578063ab69607a14610458578063b88d4fde146103f3578063c87b56dd14610383578063e43252d714610318578063e5cff4871461028a578063e985e9c5146102385763f2fde38b146101a457600080fd5b34610234576020366003190112610234576101bd6115fc565b916101c661176e565b6001600160a01b038316156101e257836101df846117c6565b80f35b906020608492519162461bcd60e51b8352820152602660248201527f4f776e61626c653a206e6577206f776e657220697320746865207a65726f206160448201526564647265737360d01b6064820152fd5b8280fd5b50503461028657806003193601126102865760ff816020936102586115fc565b610260611617565b6001600160a01b039182168352609c875283832091168252855220549151911615158152f35b5080fd5b50346102345781600319360112610234578035916102a6611617565b83855260c96020528185205490936001600160a01b03939091841633036102e75750845260fe602052832091166001600160601b0360a01b82541617905580f35b606490602084519162461bcd60e51b8352820152600b60248201526a2737ba1031b932b0ba37b960a91b6044820152fd5b505034610286576020366003190112610286577fbc6a3f008d10f4c6e9c2a833342ba74f94b2beb3479cfb358034d6e1bc7e5c3e60206103566115fc565b61035e61176e565b6001600160a01b0316808552610100825283852060001990819055935193845292a280f35b50919034610286576020366003190112610286576103c26103bd6103ef9435600052609960205260018060a01b0360406000205416151590565b61180f565b8181516103ce816116a9565b528051916103db836116a9565b8252519182916020835260208301906115bc565b0390f35b8382346102865760803660031901126102865761040e6115fc565b610416611617565b9060643567ffffffffffffffff81116104545736602382011215610454576101df9381602461044a93369301359101611719565b9160443591611958565b8480fd5b50503461028657816003193601126102865760209060fd549051908152f35b5090346102345780600319360112610234576104916115fc565b9060243591821515809303610454576001600160a01b0316923384146105005750338452609c60205280842083855260205280842060ff1981541660ff8416179055519081527f17307eab39ab6107e8899845ad3d59bd9653f200f220920489ca2b5937696c3160203392a380f35b6020606492519162461bcd60e51b8352820152601960248201527f4552433732313a20617070726f766520746f2063616c6c6572000000000000006044820152fd5b505034610286578160031936011261028657805190826098546105648161187e565b808552916001918083169081156105ff57506001146105a2575b505050610590826103ef9403836116db565b519182916020835260208301906115bc565b9450609885527f2237a976fa961f5921fd19f2b03c925c725d77b20ce8f790c19709c03de4d8145b8286106105e7575050506105908260206103ef958201019461057e565b805460208787018101919091529095019481016105ca565b6103ef97508693506020925061059094915060ff191682840152151560051b8201019461057e565b50503461028657816003193601126102865760335490516001600160a01b039091168152602090f35b505034610286576020366003190112610286577fbc6a3f008d10f4c6e9c2a833342ba74f94b2beb3479cfb358034d6e1bc7e5c3e602061068e6115fc565b61069661176e565b6001600160a01b031680855261010082528385208590559251848152a280f35b5050346102865760203660031901126102865760209181906001600160a01b036106de6115fc565b168152610100845220549051908152f35b83823461028657602036600319011261028657358015158091036102865761071561176e565b6101019060ff8019835416911617905580f35b833461078557806003193601126107855761074161176e565b603380546001600160a01b0319811690915581906001600160a01b03167f8be0079c531659141344cd1fd0a4f28419497f9722a3daafe3b4186f6b6457e08280a380f35b80fd5b50829034610286576020366003190112610286576001600160a01b036107ac6115fc565b169081156107c9576020848085858152609a845220549051908152f35b608490602085519162461bcd60e51b8352820152602960248201527f4552433732313a2061646472657373207a65726f206973206e6f7420612076616044820152683634b21037bbb732b960b91b6064820152fd5b5090346102345760603660031901126102345767ffffffffffffffff918035838111610454576108519036908301611750565b602435848111610c6c576108689036908401611750565b9361087161162d565b9186549560ff8760081c161594858096610c5f575b8015610c48575b15610bee57600197868960ff198316178b55610bdd575b506001600160a01b03851615610bd957600a610104556108d360ff8a5460081c166108ce81611d85565b611d85565b8251848111610bc657806108e860975461187e565b94601f95868111610b58575b50602090868311600114610ad9578c92610ace575b5050600019600383901b1c191690891b176097555b8151938411610abb575061093360985461187e565b828111610a58575b5060209183116001146109d4576109889392918891836109c9575b5050600019600383901b1c191690861b176098555b61097b60ff875460081c16611d85565b61098361176e565b6117c6565b610990578280f35b825461ff0019168355519081527f7f26b83ff96e1f2b6a682f133852f6798a09c465da95921460cefb384740249890602090a138808280f35b015190503880610956565b60988852929186917f2237a976fa961f5921fd19f2b03c925c725d77b20ce8f790c19709c03de4d81490601f1983168a5b818110610a40575095836109889710610a27575b505050811b0160985561096b565b015160001960f88460031b161c19169055388080610a19565b8288015184558a959093019260209283019201610a05565b609889527f2237a976fa961f5921fd19f2b03c925c725d77b20ce8f790c19709c03de4d8148380860160051c82019260208710610ab2575b0160051c019088905b828110610aa757505061093b565b8a8155018890610a99565b92508192610a90565b634e487b7160e01b895260419052602488fd5b015190503880610909565b60978d528b93507f354a83ed9988f79f6038d4c7a7dadbad8af32f4ad6df893e0e5807a1b1944ff99190601f1984168e5b818110610b4057508411610b27575b505050811b0160975561091e565b015160001960f88460031b161c19169055388080610b19565b8284015185558e969094019360209384019301610b0a565b90915060978c527f354a83ed9988f79f6038d4c7a7dadbad8af32f4ad6df893e0e5807a1b1944ff98680850160051c82019260208610610bbd575b918d91869594930160051c01915b828110610baf5750506108f4565b8e81558594508d9101610ba1565b92508192610b93565b634e487b7160e01b8a526041825260248afd5b8880fd5b61ffff1916610101178955386108a4565b608490602088519162461bcd60e51b8352820152602e60248201527f496e697469616c697a61626c653a20636f6e747261637420697320616c72656160448201526d191e481a5b9a5d1a585b1a5e995960921b6064820152fd5b50303b15801561088d5750600160ff89161461088d565b50600160ff891610610886565b8580fd5b5091346107855760203660031901126107855750610c906020923561185b565b90516001600160a01b039091168152f35b8382346102865760203660031901126102865735610cbe8161185b565b336001600160a01b0390911603610286576101df90611ced565b50503461028657816003193601126102865760209060ff610101541690519015158152f35b50903461023457606036600319011261023457813567ffffffffffffffff8082116104545736602383011215610454578184013590808211610c6c573660248385010111610c6c57610d4d611617565b90610d5661162d565b9060019485610d6433611ec2565b10610bd957610d7c9061010454956024369201611719565b9261010393610d8b8554611de5565b808655966001600160a01b03928316938415610fe157600089815260996020526040902054610dc6906001600160a01b031615155b15611e30565b600089815260996020526040902054610de9906001600160a01b03161515610dc0565b848c52602098609a8a528a8d20838154019055808d5260998a528a8d20956001600160601b0360a01b9681888254161790558d7fddf252ad1be2c89b69c2b068fc378daa952ba7f163c4a11628f55a4df523b3ef8180a486548c526101028952898c20928051918211610fce578c8a610e62865461187e565b91601f8311610f86575b9150505089908d601f8411600114610f255791839491849394610f1a575b50501b916000199060031b1c19161790555b8354895260c9865286892033838254161790558354895260fe865286892092169082541617905554855260ff82528285205560ff6101015416610edd578380f35b3384526101009081815282852054936000198501948511610f075750338552528220553880808380f35b634e487b7160e01b865260119052602485fd5b015192503880610e8a565b919083601f1981168785528d80862095905b88838310610f6e5750505010610f55575b505050811b019055610e9c565b015160001960f88460031b161c19169055388080610f48565b8686015188559096019594850194879350018e610f37565b86815220601f840160051c8101918c8510610fc4575b601f0160051c019084908f5b838210610fb95790508c9150610e6c565b81550184908f610fa8565b9091508190610f9c565b634e487b7160e01b8d5260418c5260248dfd5b895162461bcd60e51b81526020818d0181905260248201527f4552433732313a206d696e7420746f20746865207a65726f20616464726573736044820152606490fd5b838234610286576020366003190112610286576101df9035611ced565b505034610286576101df9061105536611674565b91925192611062846116a9565b858452611958565b50346102345760203660031901126102345735825260c96020908152918190205490516001600160a01b039091168152f35b505034610286576020366003190112610286576020916110c26110bd6115fc565b611ec2565b156110d457506001905b519015158152f35b906110cc565b50503461028657816003193601126102865760fc5490516001600160a01b039091168152602090f35b505034610286576020366003190112610286576020906111246110bd6115fc565b9051908152f35b5091346107855781600319360112610785578235815260fe60205281812054602435906001600160a01b0390811680156111b157925b60ff6020528481205480156111a757925b8381029381850414901517156111945750835192168252606490046020820152f35b634e487b7160e01b815260118652602490fd5b5060fd5492611172565b508060fc541692611161565b8334610785576101df6111cf36611674565b916111e26111dd84336119f3565b6118f6565b611abb565b509034610234573660031901126102865767ffffffffffffffff8135818111611291576112179036908401611643565b9190926024359182116104545761123091369101611643565b9161123961176e565b82810361045457845b81811061124d578580f35b611258818387611e0a565b35906001600160a01b038216820361128d576112836112889261127c838888611e0a565b3590611e7c565b611de5565b611242565b8680fd5b8380fd5b505034610286578160031936011261028657602090610104549051908152f35b50503461028657366003190112610785576101df6112d16115fc565b6112d961176e565b60243590611e7c565b50346102345781600319360112610234576112fb6115fc565b6024359290916001600160a01b03919082806113168761185b565b16941693808514611405578033149081156113e6575b501561137e5750838552609b602052842080546001600160a01b031916831790556113568361185b565b167f8c5be1e5ebec7d5bd14f71427d1e84f3dd0314c0f7b2291e5b200ac8c7c3b9258480a480f35b6020608492519162461bcd60e51b8352820152603d60248201527f4552433732313a20617070726f76652063616c6c6572206973206e6f7420746f60448201527f6b656e206f776e6572206f7220617070726f76656420666f7220616c6c0000006064820152fd5b90508652609c60205281862033875260205260ff82872054163861132c565b506020608492519162461bcd60e51b8352820152602160248201527f4552433732313a20617070726f76616c20746f2063757272656e74206f776e656044820152603960f91b6064820152fd5b5091346107855760203660031901126107855750610c90602092356118b8565b505034610286578160031936011261028657805190826097546114948161187e565b808552916001918083169081156105ff57506001146114bf57505050610590826103ef9403836116db565b9450609785527f354a83ed9988f79f6038d4c7a7dadbad8af32f4ad6df893e0e5807a1b1944ff95b828610611504575050506105908260206103ef958201019461057e565b805460208787018101919091529095019481016114e7565b92505034610234576020366003190112610234573563ffffffff60e01b81168091036102345760209250631030681960e21b811490811561155f575b5015158152f35b63152a902d60e11b811491508115611579575b5038611558565b6380ac58cd60e01b8114915081156115ab575b811561159a575b5038611572565b6301ffc9a760e01b14905038611593565b635b5e139f60e01b8114915061158c565b919082519283825260005b8481106115e8575050826000602080949584010152601f8019910116010190565b6020818301810151848301820152016115c7565b600435906001600160a01b038216820361161257565b600080fd5b602435906001600160a01b038216820361161257565b604435906001600160a01b038216820361161257565b9181601f840112156116125782359167ffffffffffffffff8311611612576020808501948460051b01011161161257565b6060906003190112611612576001600160a01b0390600435828116810361161257916024359081168103611612579060443590565b6020810190811067ffffffffffffffff8211176116c557604052565b634e487b7160e01b600052604160045260246000fd5b90601f8019910116810190811067ffffffffffffffff8211176116c557604052565b67ffffffffffffffff81116116c557601f01601f191660200190565b929192611725826116fd565b9161173360405193846116db565b829481845281830111611612578281602093846000960137010152565b9080601f830112156116125781602061176b93359101611719565b90565b6033546001600160a01b0316330361178257565b606460405162461bcd60e51b815260206004820152602060248201527f4f776e61626c653a2063616c6c6572206973206e6f7420746865206f776e65726044820152fd5b603380546001600160a01b039283166001600160a01b0319821681179092559091167f8be0079c531659141344cd1fd0a4f28419497f9722a3daafe3b4186f6b6457e0600080a3565b1561181657565b60405162461bcd60e51b815260206004820152601860248201527f4552433732313a20696e76616c696420746f6b656e20494400000000000000006044820152606490fd5b6000908152609960205260409020546001600160a01b031661176b81151561180f565b90600182811c921680156118ae575b602083101461189857565b634e487b7160e01b600052602260045260246000fd5b91607f169161188d565b6000818152609960205260409020546118db906001600160a01b0316151561180f565b6000908152609b60205260409020546001600160a01b031690565b156118fd57565b60405162461bcd60e51b815260206004820152602d60248201527f4552433732313a2063616c6c6572206973206e6f7420746f6b656e206f776e6560448201526c1c881bdc88185c1c1c9bdd9959609a1b6064820152608490fd5b9061197c93929161196c6111dd84336119f3565b611977838383611abb565b611bcc565b1561198357565b60405162461bcd60e51b81528061199c600482016119a0565b0390fd5b60809060208152603260208201527f4552433732313a207472616e7366657220746f206e6f6e20455243373231526560408201527131b2b4bb32b91034b6b83632b6b2b73a32b960711b60608201520190565b906001600160a01b038080611a078461185b565b16931691838314938415611a3a575b508315611a24575b50505090565b611a30919293506118b8565b1614388080611a1e565b909350600052609c60205260406000208260005260205260ff604060002054169238611a16565b15611a6857565b60405162461bcd60e51b815260206004820152602560248201527f4552433732313a207472616e736665722066726f6d20696e636f72726563742060448201526437bbb732b960d91b6064820152608490fd5b90611ae391611ac98461185b565b6001600160a01b0393918416928492909183168414611a61565b16918215611b7b5781611b0091611af98661185b565b1614611a61565b7fddf252ad1be2c89b69c2b068fc378daa952ba7f163c4a11628f55a4df523b3ef6000848152609b602052604081206001600160601b0360a01b90818154169055838252609a6020526040822060001981540190558482526040822060018154019055858252609960205284604083209182541617905580a4565b60405162461bcd60e51b8152602060048201526024808201527f4552433732313a207472616e7366657220746f20746865207a65726f206164646044820152637265737360e01b6064820152608490fd5b9293600093909291803b15611ce257948491611c269660405180948193630a85bd0160e11b9788845233600485015260018060a01b0380921660248501526044840152608060648401528260209b8c9760848301906115bc565b0393165af1849181611ca2575b50611c91575050503d600014611c89573d611c4d816116fd565b90611c5b60405192836116db565b81528091833d92013e5b80519182611c865760405162461bcd60e51b81528061199c600482016119a0565b01fd5b506060611c65565b6001600160e01b0319161492509050565b9091508581813d8311611cdb575b611cba81836116db565b8101031261045457516001600160e01b031981168103610454579038611c33565b503d611cb0565b505050915050600190565b611cfa6111dd82336119f3565b611d038161185b565b50611d0d8161185b565b6000828152609b6020908152604080832080546001600160a01b03199081169091556001600160a01b03909416808452609a83528184208054600019019055858452609990925282208054909316909255907fddf252ad1be2c89b69c2b068fc378daa952ba7f163c4a11628f55a4df523b3ef8280a4565b15611d8c57565b60405162461bcd60e51b815260206004820152602b60248201527f496e697469616c697a61626c653a20636f6e7472616374206973206e6f74206960448201526a6e697469616c697a696e6760a81b6064820152608490fd5b6000198114611df45760010190565b634e487b7160e01b600052601160045260246000fd5b9190811015611e1a5760051b0190565b634e487b7160e01b600052603260045260246000fd5b15611e3757565b60405162461bcd60e51b815260206004820152601c60248201527f4552433732313a20746f6b656e20616c7265616479206d696e746564000000006044820152606490fd5b60207fbc6a3f008d10f4c6e9c2a833342ba74f94b2beb3479cfb358034d6e1bc7e5c3e9160018060a01b03169283600052610100825280604060002055604051908152a2565b6101015460ff1615611eea576001600160a01b03166000908152610100602052604090205490565b506000199056fea2646970667358221220abaf90842bb9529d01f39b83875ff572a62f874ba2707bbc52ea0dfacf97bede64736f6c63430008120033","linkReferences":{}},"methodIdentifiers":{"addToWhitelist(address)":"e43252d7","approve(address,uint256)":"095ea7b3","balanceOf(address)":"70a08231","burn(uint256)":"42966c68","defaultRoyaltyPercentage()":"139d8325","deleteToken(uint256)":"6297c16c","getApproved(uint256)":"081812fc","getDefaultRoyaltyPercentage()":"ab69607a","getDefaultRoyaltyReceiver()":"3403c4e9","getMintingAllowance(address)":"2d13f7d8","init(string,string,address)":"6ee5741a","initWhitelist(address[],uint256[])":"1ef87a5d","isApprovedForAll(address,address)":"e985e9c5","isWhitelisted(address)":"3af32abf","mintTo(string,address,address)":"4aa52c41","mintingAllowance(address)":"81b97161","name()":"06fdde03","owner()":"8da5cb5b","ownerOf(uint256)":"6352211e","removeFromWhitelist(address)":"8ab1d681","renounceOwnership()":"715018a6","royaltyInfo(uint256,uint256)":"2a55205a","safeTransferFrom(address,address,uint256)":"42842e0e","safeTransferFrom(address,address,uint256,bytes)":"b88d4fde","setApprovalForAll(address,bool)":"a22cb465","setRoyaltyReceiver(uint256,address)":"e5cff487","supportsInterface(bytes4)":"01ffc9a7","symbol()":"95d89b41","toggleWhitelist(bool)":"80e3f1ad","tokenCreator(uint256)":"40c1a064","tokenURI(uint256)":"c87b56dd","transferFrom(address,address,uint256)":"23b872dd","transferOwnership(address)":"f2fde38b","updateMintingAllowance(address,uint256)":"1029f467","whitelistEnabled()":"51fb012d"},"id":208}