{"abi":[{"type":"function","name":"acceptCollectionOffer","inputs":[{"name":"_buyer","type":"address","internalType":"address"},{"name":"_originContract","type":"address","internalType":"address"},{"name":"_tokenId","type":"uint256","internalType":"uint256"},{"name":"_currencyAddress","type":"address","internalType":"address"},{"name":"_amount","type":"uint256","internalType":"uint256"},{"name":"_splitAddrs","type":"address[]","internalType":"address payable[]"},{"name":"_splitRatios","type":"uint8[]","internalType":"uint8[]"}],"outputs":[],"stateMutability":"nonpayable"},{"type":"function","name":"buyFromCollection","inputs":[{"name":"_originContract","type":"address","internalType":"address"},{"name":"_tokenId","type":"uint256","internalType":"uint256"},{"name":"_currencyAddress","type":"address","internalType":"address"},{"name":"_amount","type":"uint256","internalType":"uint256"}],"outputs":[],"stateMutability":"payable"},{"type":"function","name":"cancelCollectionOffer","inputs":[{"name":"_originContract","type":"address","internalType":"address"}],"outputs":[],"stateMutability":"nonpayable"},{"type":"function","name":"cancelCollectionSalePrice","inputs":[{"name":"_originContract","type":"address","internalType":"address"}],"outputs":[],"stateMutability":"nonpayable"},{"type":"function","name":"getCollectionOffer","inputs":[{"name":"_originContract","type":"address","internalType":"address"},{"name":"_buyer","type":"address","internalType":"address"}],"outputs":[{"name":"","type":"tuple","internalType":"struct IRareCollectionMarket.CollectionOffer","components":[{"name":"currencyAddress","type":"address","internalType":"address"},{"name":"amount","type":"uint256","internalType":"uint256"},{"name":"marketplaceFee","type":"uint256","internalType":"uint256"}]}],"stateMutability":"view"},{"type":"function","name":"getCollectionSalePrice","inputs":[{"name":"_originContract","type":"address","internalType":"address"},{"name":"_seller","type":"address","internalType":"address"}],"outputs":[{"name":"","type":"tuple","internalType":"struct IRareCollectionMarket.CollectionSalePrice","components":[{"name":"currencyAddress","type":"address","internalType":"address"},{"name":"amount","type":"uint256","internalType":"uint256"},{"name":"splitRecipients","type":"address[]","internalType":"address payable[]"},{"name":"splitRatios","type":"uint8[]","internalType":"uint8[]"}]}],"stateMutability":"view"},{"type":"function","name":"getMarketConfig","inputs":[],"outputs":[{"name":"","type":"tuple","internalType":"struct MarketConfig.Config","components":[{"name":"networkBeneficiary","type":"address","internalType":"address"},{"name":"marketplaceSettings","type":"address","internalType":"contract IMarketplaceSettings"},{"name":"spaceOperatorRegistry","type":"address","internalType":"contract ISpaceOperatorRegistry"},{"name":"royaltyEngine","type":"address","internalType":"contract IRoyaltyEngineV1"},{"name":"payments","type":"address","internalType":"contract IPayments"},{"name":"approvedTokenRegistry","type":"address","internalType":"contract IApprovedTokenRegistry"},{"name":"stakingSettings","type":"address","internalType":"contract IStakingSettings"},{"name":"stakingRegistry","type":"address","internalType":"contract IRareStakingRegistry"}]}],"stateMutability":"view"},{"type":"function","name":"initialize","inputs":[{"name":"_networkBeneficiary","type":"address","internalType":"address"},{"name":"_marketplaceSettings","type":"address","internalType":"address"},{"name":"_spaceOperatorRegistry","type":"address","internalType":"address"},{"name":"_royaltyEngine","type":"address","internalType":"address"},{"name":"_payments","type":"address","internalType":"address"},{"name":"_approvedTokenRegistry","type":"address","internalType":"address"},{"name":"_stakingSettings","type":"address","internalType":"address"},{"name":"_stakingRegistry","type":"address","internalType":"address"}],"outputs":[],"stateMutability":"nonpayable"},{"type":"function","name":"isPaused","inputs":[],"outputs":[{"name":"","type":"bool","internalType":"bool"}],"stateMutability":"view"},{"type":"function","name":"makeCollectionOffer","inputs":[{"name":"_originContract","type":"address","internalType":"address"},{"name":"_currencyAddress","type":"address","internalType":"address"},{"name":"_amount","type":"uint256","internalType":"uint256"}],"outputs":[],"stateMutability":"payable"},{"type":"function","name":"owner","inputs":[],"outputs":[{"name":"","type":"address","internalType":"address"}],"stateMutability":"view"},{"type":"function","name":"proxiableUUID","inputs":[],"outputs":[{"name":"","type":"bytes32","internalType":"bytes32"}],"stateMutability":"view"},{"type":"function","name":"renounceOwnership","inputs":[],"outputs":[],"stateMutability":"nonpayable"},{"type":"function","name":"setApprovedTokenRegistry","inputs":[{"name":"_approvedTokenRegistry","type":"address","internalType":"address"}],"outputs":[],"stateMutability":"nonpayable"},{"type":"function","name":"setCollectionSalePrice","inputs":[{"name":"_originContract","type":"address","internalType":"address"},{"name":"_currencyAddress","type":"address","internalType":"address"},{"name":"_amount","type":"uint256","internalType":"uint256"},{"name":"_splitAddrs","type":"address[]","internalType":"address payable[]"},{"name":"_splitRatios","type":"uint8[]","internalType":"uint8[]"}],"outputs":[],"stateMutability":"nonpayable"},{"type":"function","name":"setContractPaused","inputs":[{"name":"_isPaused","type":"bool","internalType":"bool"}],"outputs":[],"stateMutability":"nonpayable"},{"type":"function","name":"setMarketplaceSettings","inputs":[{"name":"_marketplaceSettings","type":"address","internalType":"address"}],"outputs":[],"stateMutability":"nonpayable"},{"type":"function","name":"setNetworkBeneficiary","inputs":[{"name":"_networkBeneficiary","type":"address","internalType":"address"}],"outputs":[],"stateMutability":"nonpayable"},{"type":"function","name":"setPayments","inputs":[{"name":"_payments","type":"address","internalType":"address"}],"outputs":[],"stateMutability":"nonpayable"},{"type":"function","name":"setRoyaltyEngine","inputs":[{"name":"_royaltyEngine","type":"address","internalType":"address"}],"outputs":[],"stateMutability":"nonpayable"},{"type":"function","name":"setSpaceOperatorRegistry","inputs":[{"name":"_spaceOperatorRegistry","type":"address","internalType":"address"}],"outputs":[],"stateMutability":"nonpayable"},{"type":"function","name":"transferOwnership","inputs":[{"name":"newOwner","type":"address","internalType":"address"}],"outputs":[],"stateMutability":"nonpayable"},{"type":"function","name":"upgradeTo","inputs":[{"name":"newImplementation","type":"address","internalType":"address"}],"outputs":[],"stateMutability":"nonpayable"},{"type":"function","name":"upgradeToAndCall","inputs":[{"name":"newImplementation","type":"address","internalType":"address"},{"name":"data","type":"bytes","internalType":"bytes"}],"outputs":[],"stateMutability":"payable"},{"type":"event","name":"AcceptCollectionOffer","inputs":[{"name":"_seller","type":"address","indexed":true,"internalType":"address"},{"name":"_buyer","type":"address","indexed":true,"internalType":"address"},{"name":"_originContract","type":"address","indexed":true,"internalType":"address"},{"name":"_currencyAddress","type":"address","indexed":false,"internalType":"address"},{"name":"_amount","type":"uint256","indexed":false,"internalType":"uint256"},{"name":"_tokenId","type":"uint256","indexed":false,"internalType":"uint256"}],"anonymous":false},{"type":"event","name":"AdminChanged","inputs":[{"name":"previousAdmin","type":"address","indexed":false,"internalType":"address"},{"name":"newAdmin","type":"address","indexed":false,"internalType":"address"}],"anonymous":false},{"type":"event","name":"BeaconUpgraded","inputs":[{"name":"beacon","type":"address","indexed":true,"internalType":"address"}],"anonymous":false},{"type":"event","name":"CollectionOfferCancelled","inputs":[{"name":"_buyer","type":"address","indexed":true,"internalType":"address"},{"name":"_originContract","type":"address","indexed":true,"internalType":"address"}],"anonymous":false},{"type":"event","name":"CollectionOfferPlaced","inputs":[{"name":"_buyer","type":"address","indexed":true,"internalType":"address"},{"name":"_originContract","type":"address","indexed":true,"internalType":"address"},{"name":"_currencyAddress","type":"address","indexed":true,"internalType":"address"},{"name":"_amount","type":"uint256","indexed":false,"internalType":"uint256"}],"anonymous":false},{"type":"event","name":"CollectionSalePriceCancelled","inputs":[{"name":"_seller","type":"address","indexed":true,"internalType":"address"},{"name":"_originContract","type":"address","indexed":true,"internalType":"address"}],"anonymous":false},{"type":"event","name":"CollectionSalePriceSet","inputs":[{"name":"_seller","type":"address","indexed":true,"internalType":"address"},{"name":"_originContract","type":"address","indexed":true,"internalType":"address"},{"name":"_currencyAddress","type":"address","indexed":true,"internalType":"address"},{"name":"_amount","type":"uint256","indexed":false,"internalType":"uint256"}],"anonymous":false},{"type":"event","name":"Initialized","inputs":[{"name":"version","type":"uint8","indexed":false,"internalType":"uint8"}],"anonymous":false},{"type":"event","name":"OwnershipTransferred","inputs":[{"name":"previousOwner","type":"address","indexed":true,"internalType":"address"},{"name":"newOwner","type":"address","indexed":true,"internalType":"address"}],"anonymous":false},{"type":"event","name":"Sold","inputs":[{"name":"_seller","type":"address","indexed":true,"internalType":"address"},{"name":"_buyer","type":"address","indexed":true,"internalType":"address"},{"name":"_originContract","type":"address","indexed":true,"internalType":"address"},{"name":"_currencyAddress","type":"address","indexed":false,"internalType":"address"},{"name":"_amount","type":"uint256","indexed":false,"internalType":"uint256"},{"name":"_tokenId","type":"uint256","indexed":false,"internalType":"uint256"}],"anonymous":false},{"type":"event","name":"Upgraded","inputs":[{"name":"implementation","type":"address","indexed":true,"internalType":"address"}],"anonymous":false},{"type":"error","name":"AmountCantBeZero","inputs":[]},{"type":"error","name":"ContractPaused","inputs":[]},{"type":"error","name":"CurrencyMismatch","inputs":[{"name":"_suppliedCurrency","type":"address","internalType":"address"},{"name":"_configuredCurrency","type":"address","internalType":"address"}]},{"type":"error","name":"IncorrectAmount","inputs":[{"name":"_requiredAmount","type":"uint256","internalType":"uint256"},{"name":"_specifiedAmount","type":"uint256","internalType":"uint256"}]},{"type":"error","name":"InvalidTokenRange","inputs":[]},{"type":"error","name":"NoOfferExistsForBuyer","inputs":[{"name":"_originContract","type":"address","internalType":"address"},{"name":"_buyer","type":"address","internalType":"address"}]},{"type":"error","name":"SalePriceDoesntExist","inputs":[{"name":"_seller","type":"address","internalType":"address"},{"name":"_originContract","type":"address","internalType":"address"}]},{"type":"error","name":"TokenNotPartOfSalePrice","inputs":[{"name":"_seller","type":"address","internalType":"address"},{"name":"_originContract","type":"address","internalType":"address"},{"name":"_tokenId","type":"uint256","internalType":"uint256"}]}],"bytecode":{"object":"0x60a08060405234610031573060805261541090816100378239608051818181612c7401528181612da001526130bc0152f35b600080fdfe6080604052600436101561001257600080fd5b6000803560e01c8063176ab44014613d8f57806321ede03214613d1257806322f193d014613a2157806325bc1330146132ed5780633492e5a8146132705780633659cfe614613097578063381eff7c14612ff45780634f1ef28614612d2557806352d1902d14612c61578063614bd94414612b045780636d374d8114611af3578063715018a614611a955780637f35823014611a1857806385b1eb27146119ea578063882796f1146119b05780638a29e2de146115b65780638da5cb5b1461158d5780639214be521461154f578063af231a58146114d2578063b187bd26146114ae578063d9ed209614610fa8578063e4e87e3b14610f17578063e5fc48ee146101b85763f2fde38b1461012557600080fd5b346101b55760203660031901126101b55761013e613e14565b610146613f58565b6001600160a01b038116156101615761015e90613fb0565b80f35b60405162461bcd60e51b815260206004820152602660248201527f4f776e61626c653a206e6577206f776e657220697320746865207a65726f206160448201526564647265737360d01b6064820152608490fd5b80fd5b50346101b55760e03660031901126101b5576101d2613e14565b6101da613e2a565b906101e3613e56565b9060a4356001600160401b038111610f1357610203903690600401613f28565b939060c4356001600160401b038111610f0f57610224903690600401613f28565b9561022d614320565b60ff6101055416610efd576040516331a9108f60e11b815260443560048201526020816024816001600160a01b0389165afa908115610ef2578991610eb8575b50336001600160a01b0390911603610e73576102898433614cb6565b8015610e1e5760058111610dcd57868103610d73576000805b888210610d42576064915003610ced5760018060a01b03851688526101036020526040882060018060a01b0385166000526020526040600020604051906102e882613e7f565b80546001600160a01b03168252600181015460208301818152600290920154604084015215610cc457518060843503610ca45750516001600160a01b039081169087168103610c7557506001600160a01b03858116895261010360209081526040808b20928716600081815293909252822082815560018101839055600201919091553b15610aea57604051632142170760e11b81523360048201526001600160a01b038616602482015260448035908201528890818180606481010381836001600160a01b038b165af1801561081d57610c61575b50506103d7926103cf91369161438d565b9536916143eb565b908451825103610c005760fc546040516361fe24a960e11b8152608435600482018190529491602090829060249082906001600160a01b03165afa90811561085b57600091610bce575b506040519061042f82613e7f565b60028252604036602084013760fb546001600160a01b03168061045184615231565b526101025460405163e286ef3360e01b815233600482015290602090829060249082906001600160a01b03165afa90811561085b57600091610b94575b506001600160a01b03166104a184615254565b526001600160a01b036104b384615254565b5116610b7b575b6104c383615254565b6001600160a01b0390911690526040516104dc81613e7f565b600281526040366020830137610101546040516303fdde1160e21b815260843560048201526001600160a01b0390911690602081602481855afa90811561085b57600091610b48575b5060249160209161053585615231565b5260405163470d6ed960e11b8152608435600482015292839182905afa92831561085b578491600094610b0d575b506105789361057184615254565b52896152aa565b60fc54604051631446f21360e21b81526001600160a01b0385811660048301526044803560248401529192602092849290918391165afa90811561085b57600091610aee575b506108f3576040516024916105d282613ed1565b6001825260203681840137604051906105ea82613ed1565b60018252602036818401376001600160a01b039061060790615231565b511661061282615231565b5260fd54604051635dc22eff60e01b81523360048201529360209185919082906001600160a01b03165afa801561085b576024936000916108c4575b50156108675760fd54604051632260494f60e01b81523360048201529360209185919082906001600160a01b03165afa801561085b576106bb6106b260ff6064936106d69760009161082c575b501699836106ab8c608435614300565b0490614313565b98608435614300565b046106c583615231565b526106cf82615231565b51886152aa565b6106e08651615278565b91600095865b885188101561073f5761073361073991606461070f60ff6107078d8c615264565b51168b614300565b0461071a8b89615264565b52606461072c60ff6107078d8c615264565b04906142c4565b97614d6b565b966106e6565b89948961074c92846152aa565b60fc5484906001600160a01b0316803b1561082857604051635a3c652d60e01b81526001600160a01b03851660048201526044803560248301526001908201529082908290606490829084905af1801561081d57610805575b5050604080516001600160a01b03928316815260843560208201526044359181019190915291811692169033907fd746eda767465ff5307bdf346d8f0e530205a4dc2c0b8e7241a9fefc7e6dec7b9080606081015b0390a4600160655580f35b61080e90613e6c565b6108195783856107a5565b8380fd5b6040513d84823e3d90fd5b5080fd5b61084e915060203d602011610854575b6108468183613eec565b8101906142e7565b3861069b565b503d61083c565b6040513d6000823e3d90fd5b60fc5460405163b28a7bad60e01b81526001600160a01b038781166004830152909460209286928391165afa801561085b576106bb6106b260ff6064936108bf9760009161082c57501699836106ab8c608435614300565b6106d6565b6108e6915060203d6020116108ec575b6108de8183613eec565b810190614be9565b3861064e565b503d6108d4565b5060fe54604051637a99dc0160e11b81526001600160a01b0384811660048301526044803560248401526084359083015293989097929690955091939192600091889160649183918591165af196871561085b57600096879861099e575b50600095865b895188101561097e57610733610978916109718a8d615264565b51906142c4565b96610957565b9598909294976108bf9294975061099787608435614313565b96886152aa565b9097503d908188823e6109b18282613eec565b6040818381010312610aea578051916001600160401b038311610ae657808201601f848401011215610ae657828201516109ea81614376565b936109f86040519586613eec565b81855260208086019260051b8286010101908385018211610ae2578401602001915b818310610abe575050506020820151916001600160401b038311610aba57818101601f848301011215610aba578281015192610a5584614376565b9a610a636040519c8d613eec565b848c5260208c0193830160208660051b8486010101116101b557509190602083820101925b60208560051b82840101018410610aa6575050505050959638610951565b602080809486518152019401939250610a88565b8980fd5b82516001600160a01b0381168103610ade57815260209283019201610a1a565b8c80fd5b8b80fd5b8880fd5b8780fd5b610b07915060203d6020116108ec576108de8183613eec565b386105be565b915091926020823d602011610b40575b81610b2a60209383613eec565b810103126101b557505191908390610578610563565b3d9150610b1d565b906020823d602011610b73575b81610b6260209383613eec565b810103126101b55750516024610525565b3d9150610b55565b506001600160a01b03610b8d83615254565b51166104ba565b906020823d602011610bc6575b81610bae60209383613eec565b810103126101b55750610bc090614250565b3861048e565b3d9150610ba1565b906020823d602011610bf8575b81610be860209383613eec565b810103126101b557505138610421565b3d9150610bdb565b60405162461bcd60e51b815260206004820152603360248201527f4e756d626572206f662073706c69742061646472657373657320616e642072616044820152723a34b7b99036bab9ba1031329032b8bab0b61760691b6064820152608490fd5b610c6a90613e6c565b610aea5787386103be565b604051632e834cbf60e11b81526001600160a01b038881166004830152919091166024820152604490fd5b0390fd5b60449060405190630f81919b60e21b825260048201526084356024820152fd5b604051633ef5628160e01b81526001600160a01b03878116600483015288166024820152604490fd5b60405162461bcd60e51b815260206004820152602760248201527f636865636b53706c6974733a3a546f74616c206d75737420626520657175616c604482015266020746f203130360cc1b6064820152608490fd5b8160051b8401359060ff8216809203610d6e57610d6891610d62916142c4565b91614d6b565b906102a2565b600080fd5b60405162461bcd60e51b815260206004820152602c60248201527f636865636b53706c6974733a3a53706c69747320616e6420726174696f73206d60448201526b1d5cdd08189948195c5d585b60a21b6064820152608490fd5b60405162461bcd60e51b8152602060048201526024808201527f636865636b53706c6974733a3a53706c6974206578636565646564206d61782060448201526373697a6560e01b6064820152608490fd5b60405162461bcd60e51b815260206004820152602760248201527f636865636b53706c6974733a3a4d7573742068617665206174206c65617374206044820152660c481cdc1b1a5d60ca1b6064820152608490fd5b60405162461bcd60e51b815260206004820152601e60248201527f73656e646572206d7573742062652074686520746f6b656e206f776e657200006044820152606490fd5b90506020813d602011610eea575b81610ed360209383613eec565b81010312610ae657610ee490614250565b3861026d565b3d9150610ec6565b6040513d8b823e3d90fd5b60405163ab35696f60e01b8152600490fd5b8680fd5b8480fd5b50346101b55760203660031901126101b55780610f32613e14565b610f3a613f58565b73__$7682c538d2a75d26dfca907f0e750789f4$__90813b15610fa4576040516386e5800760e01b815260fb60048201526001600160a01b039091166024820152908290829060449082905af4801561081d57610f945750f35b610f9d90613e6c565b6101b55780f35b5050fd5b50346101b55760a03660031901126101b557610fc2613e14565b610fca613e2a565b606480356001600160401b038111610f1357610fea903690600401613f28565b916084356001600160401b038111610f0f5761100a903690600401613f28565b909160ff6101055416610efd5761102086614c01565b61102a8733614cb6565b841561145a576005851161140a578185036113b157806000805b84811061138757500361133357506044351561132157611089611095936040519561106e87613e9a565b6001600160a01b03881687526044356020880152369161438d565b604085015236916143eb565b60608201523384526101046020526040842060018060a01b038416600052602052604060002060018060a01b038251166001600160601b0360a01b8254161781556020820151600182015560408201518051906001600160401b03821161130d57600160401b82116112a65760209060028401548360028601558084106112ed575b500160028301875260208720875b8381106112d057505050506003606091019101518051906001600160401b0382116112bc57600160401b82116112a657602090835483855580841061125a575b5001918552602085208160051c91865b83811061121b5750601f1981169003806111d1575b505060405160443581526001600160a01b0393841694909316923392507f4c172f9d7dfc4fbab9c54966d9334e977ce1ae637bbc08489b2762715ae1f6a09150602090a480f35b928693875b8181106111eb5750505001553880808061118a565b90919460206112116001928460ff8a5116919060ff809160031b9316831b921b19161790565b96019291016111d6565b87885b60208110611233575083820155600101611175565b865190969160019160209160ff60038b901b81811b199092169216901b179201960161121e565b611286908560005283600020601f80870160051c8201928188168061128c575b500160051c01906144fb565b38611165565b60001990818601918254918a0360031b1c1690553861127a565b634e487b7160e01b600052604160045260246000fd5b634e487b7160e01b86526041600452602486fd5b82516001600160a01b031681830155602090920191600101611125565b6113079060028601600052848460002091820191016144fb565b38611117565b634e487b7160e01b87526041600452602487fd5b6040516346f1397d60e01b8152600490fd5b60849066020746f203130360cc1b6040519162461bcd60e51b835260206004840152602760248401527f636865636b53706c6974733a3a546f74616c206d75737420626520657175616c6044840152820152fd5b80925060051b8501359060ff8216809203610d6e576113a991610d62916142c4565b908291611044565b6084906b1d5cdd08189948195c5d585b60a21b6040519162461bcd60e51b835260206004840152602c60248401527f636865636b53706c6974733a3a53706c69747320616e6420726174696f73206d6044840152820152fd5b6084906373697a6560e01b6040519162461bcd60e51b8352602060048401526024808401527f636865636b53706c6974733a3a53706c6974206578636565646564206d6178206044840152820152fd5b608490660c481cdc1b1a5d60ca1b6040519162461bcd60e51b835260206004840152602760248401527f636865636b53706c6974733a3a4d7573742068617665206174206c65617374206044840152820152fd5b50346101b557806003193601126101b557602060ff61010554166040519015158152f35b50346101b55760203660031901126101b557806114ed613e14565b6114f5613f58565b73__$7682c538d2a75d26dfca907f0e750789f4$__90813b15610fa45760405163c70c56c760e01b815260fb60048201526001600160a01b039091166024820152908290829060449082905af4801561081d57610f945750f35b50346101b55760203660031901126101b557611569613e14565b611571614320565b60ff6101055416610efd5761158590614443565b600160655580f35b50346101b557806003193601126101b5576033546040516001600160a01b039091168152602090f35b50346101b5576101003660031901126101b5576115d1613e14565b6115d9613e2a565b906115e2613e40565b6115ea613e56565b6084356001600160a01b0381168103610d6e5760a435906001600160a01b0382168203610d6e5760c435926001600160a01b0384168403610d6e5760e435946001600160a01b0386168603610d6e5788549760ff8960081c16159889809a6119a3575b801561198c575b156119305760ff1981166001178b558961191f575b506040516323e95fa960e01b81526001600160a01b039889166004820152908816602482015290871660448201529086166064820152908516608482015290841660a482015290831660c4820152911660e4820152610100816101048173__$7682c538d2a75d26dfca907f0e750789f4$__5af490811561191457839161180b575b5060018060a01b03815116906001600160601b0360a01b918260fb54161760fb5560018060a01b036020820151168260fc54161760fc5560018060a01b036040820151168260fd54161760fd5560018060a01b036060820151168260fe54161760fe5560018060a01b036080820151168260ff54161760ff5560018060a01b0360a082015116826101005416176101005560018060a01b0360c082015116610101908382541617905560e060018060a01b0391015116610102918254161790556117c460ff835460081c166117bf81614264565b614264565b6117cd33613fb0565b6117d45780f35b61ff001981541681557f7f26b83ff96e1f2b6a682f133852f6798a09c465da95921460cefb3847402498602060405160018152a180f35b9050610100813d6101001161190c575b816118296101009383613eec565b81010312611908576040519061183e82613eb5565b61184781614250565b825260208101516001600160a01b0381168103610f1357602083015260408101516001600160a01b0381168103610f1357604083015260608101516001600160a01b0381168103610f1357606083015260808101516001600160a01b0381168103610f1357608083015260a08101516001600160a01b0381168103610f135760a083015260c0810151906001600160a01b0382168203610f135760c083019190915260e001516001600160a01b03811681036108195760e0820152386116eb565b8280fd5b3d915061181b565b6040513d85823e3d90fd5b61ffff1916610101178a5538611669565b60405162461bcd60e51b815260206004820152602e60248201527f496e697469616c697a61626c653a20636f6e747261637420697320616c72656160448201526d191e481a5b9a5d1a585b1a5e995960921b6064820152608490fd5b50303b1580156116545750600160ff821614611654565b50600160ff82161061164d565b50346101b55760203660031901126101b557600435801515809103610828576119d7613f58565b6101059060ff8019835416911617905580f35b50346101b55760203660031901126101b557611a04613e14565b60ff6101055416610efd5761015e90614512565b50346101b55760203660031901126101b55780611a33613e14565b611a3b613f58565b73__$7682c538d2a75d26dfca907f0e750789f4$__90813b15610fa457604051630cf1420760e21b815260fb60048201526001600160a01b039091166024820152908290829060449082905af4801561081d57610f945750f35b50346101b557806003193601126101b557611aae613f58565b603380546001600160a01b031981169091556000906001600160a01b03167f8be0079c531659141344cd1fd0a4f28419497f9722a3daafe3b4186f6b6457e08280a380f35b5060803660031901126101b557611b08613e14565b611b10613e40565b611b18614320565b60ff6101055416610efd576040516331a9108f60e11b81526024803560048301529092906020908490816001600160a01b0385165afa928315612af9578493612abd575b50611b678184614cb6565b60fc546040516361fe24a960e11b8152606435600482015290602090829060249082906001600160a01b03165afa8015612ab2578590612a7e575b611baf91506064356142c4565b9260018060a01b03811685526101046020526040852060018060a01b03831660005260205260406000209360405194611be786613e9a565b60018060a01b03815416865260018101546020870152600281016040519081602082549182815201918a5260208a20908a5b818110612a5f5750505090611c3381600394930382613eec565b6040880152604051908192839101602081549384815201908a5260208a20928a905b80601f8301106128ce57611d6b9454918181106128ba575b8181106128a3575b81811061288c575b818110612875575b81811061285f575b818110612848575b818110612831575b81811061281a575b818110612803575b8181106127ec575b8181106127d5575b8181106127be575b8181106127a7575b818110612790575b818110612779575b818110612762575b81811061274b575b818110612734575b81811061271d575b818110612706575b8181106126ef575b8181106126d8575b8181106126c1575b8181106126aa575b818110612693575b81811061267c575b818110612665575b81811061264e575b818110612637575b818110612620575b818110612609575b106125fb575b500382613eec565b60608601526020850151156125d15784516001600160a01b0390811690851681036125a65750602085015180606435036125865750611daa9084614e59565b6001600160a01b0382163b15610f1357604051632142170760e11b81526001600160a01b0382166004820152336024808301919091523560448201528590818180606481010381836001600160a01b0389165af1801561081d57612572575b505060606040850151940151908451825103610c005760fc546040516361fe24a960e11b8152606435600482018190529491602090829060249082906001600160a01b03165afa90811561085b57600091612540575b5060405190611e6d82613e7f565b60028252604036602084013760fb546001600160a01b031680611e8f84615231565b526101025460405163e286ef3360e01b81526001600160a01b038781166004830152909160209183916024918391165afa90811561085b57600091612506575b506001600160a01b0316611ee284615254565b526001600160a01b03611ef484615254565b51166124ed575b611f0483615254565b6001600160a01b039091169052604051611f1d81613e7f565b600281526040366020830137610101546040516303fdde1160e21b815260643560048201526001600160a01b0390911690602081602481855afa90811561085b576000916124ba575b50602491602091611f7685615231565b5260405163470d6ed960e11b8152606435600482015292839182905afa92831561085b57849160009461247f575b50611fb29361057184615254565b60fc54604051631446f21360e21b81526001600160a01b0384811660048301526024803590830152909160209183916044918391165afa90811561085b57600091612460575b506122965760405160249161200c82613ed1565b60018252602036818401376040519061202482613ed1565b60018252602036818401376001600160a01b039061204190615231565b511661204c82615231565b5260fd54604051635dc22eff60e01b81526001600160a01b038781166004830152909460209286928391165afa801561085b57602493600091612277575b501561221b5760fd54604051632260494f60e01b81526001600160a01b038781166004830152909460209286928391165afa801561085b576106bb6120e860ff6064936120f0976000916121fc575b501699836106ab8c8235614300565b988235614300565b6120fa8651615278565b91600095865b88518810156121275761073361212191606461070f60ff6107078d8c615264565b96612100565b89948961213492846152aa565b60fc5484906001600160a01b0316803b1561082857604051635a3c652d60e01b81526001600160a01b03861660048201526024803590820152600160448201529082908290606490829084905af1801561081d576121e8575b5050604080516001600160a01b039283168152606435602082015260243591810191909152928116923392909116907f6f9e7bc841408072f4a49e469f90e1a634b85251803662bc8e5c220b287824729080606081016107fa565b6121f190613e6c565b61081957838561218d565b612215915060203d602011610854576108468183613eec565b386120d9565b60fc5460405163b28a7bad60e01b81526001600160a01b038681166004830152909460209286928391165afa801561085b576106bb6120e860ff606493612272976000916121fc57501699836106ab8c8235614300565b6120f0565b612290915060203d6020116108ec576108de8183613eec565b3861208a565b5060fe54604051637a99dc0160e11b81526001600160a01b038381166004830152602480359083015260648035604484015294999198939791965092949093909260009289929183918591165af196871561085b576000968798612334575b50600095865b895188101561231b57610733612315916109718a8d615264565b966122fb565b9598909294976122729294975061099787606435614313565b9097503d8088833e6123468183613eec565b8101604082820312610aea578151906001600160401b0391828111610aba5783019281601f85011215610aba57835161237e81614376565b9461238c6040519687613eec565b81865260208087019260051b82010190848211610ade57602001915b81831061243c575050506020810151928311610aba5781601f848301011215610aba5782810151926123d984614376565b9a6123e76040519c8d613eec565b848c5260208c019360208660051b8486010101116101b557509190602083820101925b60208560051b828401010184106124285750505050509596386122f5565b60208080948651815201940193925061240a565b82516001600160a01b038116810361245c578152602092830192016123a8565b8d80fd5b612479915060203d6020116108ec576108de8183613eec565b38611ff8565b915091926020823d6020116124b2575b8161249c60209383613eec565b810103126101b557505191908390611fb2611fa4565b3d915061248f565b906020823d6020116124e5575b816124d460209383613eec565b810103126101b55750516024611f66565b3d91506124c7565b506001600160a01b036124ff83615254565b5116611efb565b906020823d602011612538575b8161252060209383613eec565b810103126101b5575061253290614250565b38611ecf565b3d9150612513565b906020823d60201161256a575b8161255a60209383613eec565b810103126101b557505138611e5f565b3d915061254d565b61257b90613e6c565b610f13578438611e09565b60449060405190630f81919b60e21b825260048201526064356024820152fd5b604051632e834cbf60e11b81526001600160a01b038681166004830152919091166024820152604490fd5b50604051630e587c8f60e41b81526001600160a01b03918216600482015291166024820152604490fd5b60f81c815260200138611d63565b92602060019160ff8560f01c168152019301611d5d565b92602060019160ff8560e81c168152019301611d55565b92602060019160ff8560e01c168152019301611d4d565b92602060019160ff8560d81c168152019301611d45565b92602060019160ff8560d01c168152019301611d3d565b92602060019160ff8560c81c168152019301611d35565b92602060019160ff8560c01c168152019301611d2d565b92602060019160ff8560b81c168152019301611d25565b92602060019160ff8560b01c168152019301611d1d565b92602060019160ff8560a81c168152019301611d15565b92602060019160ff8560a01c168152019301611d0d565b92602060019160ff8560981c168152019301611d05565b92602060019160ff8560901c168152019301611cfd565b92602060019160ff8560881c168152019301611cf5565b92602060019160ff8560801c168152019301611ced565b92602060019160ff8560781c168152019301611ce5565b92602060019160ff8560701c168152019301611cdd565b92602060019160ff8560681c168152019301611cd5565b92602060019160ff8560601c168152019301611ccd565b92602060019160ff8560581c168152019301611cc5565b92602060019160ff8560501c168152019301611cbd565b92602060019160ff8560481c168152019301611cb5565b92602060019160ff8560401c168152019301611cad565b92602060019160ff8560381c168152019301611ca5565b92602060019160ff8560301c168152019301611c9d565b92602060019160ff8560281c168152019301611c95565b92602060019160ff85831c168152019301611c8d565b92602060019160ff8560181c168152019301611c85565b92602060019160ff8560101c168152019301611c7d565b92602060019160ff8560081c168152019301611c75565b92602060019160ff85168152019301611c6d565b916020919350610400600191865460ff8116825260ff8160081c168583015260ff8160101c16604083015260ff816060828260181c16818601528282891c166080860152828260a0828260281c1681890152828260c095828260301c16878c0152828260381c1660e08c0152828260401c166101008c0152828260481c166101208c0152828260501c166101408c0152828260581c166101608c01521c16610180890152828260681c166101a0890152828260701c166101c0890152828260781c166101e0890152828260801c16610200890152828260881c16610220890152828260901c16610240890152828260981c166102608901521c16610280860152828260a81c166102a0860152828260b01c166102c0860152828260b81c166102e08601521c1661030083015260ff8160c81c1661032083015260ff8160d01c1661034083015260ff8160d81c1661036083015260ff8160e01c1661038083015260ff8160e81c166103a083015260ff8160f01c166103c083015260f81c6103e0820152019401920184929391611c55565b82546001600160a01b0316845260209093019260019283019201611c19565b506020813d602011612aaa575b81612a9860209383613eec565b81010312610d6e57611baf9051611ba2565b3d9150612a8b565b6040513d87823e3d90fd5b9092506020813d602011612af1575b81612ad960209383613eec565b8101031261081957612aea90614250565b9138611b5c565b3d9150612acc565b6040513d86823e3d90fd5b50346101b557806003193601126101b55760e0604051612b2381613eb5565b8281528260208201528260408201528260608201528260808201528260a08201528260c08201520152610100604051612b5b81613eb5565b60018060a01b0360fb54169081815260018060a01b0360fc5416602082015260018060a01b0360fd5416604082015260018060a01b0360fe5416606082015260018060a01b0360ff5416608082015260018060a01b0383541660a082015260018060a01b03610101541660c082015260018060a01b03610102541660e082015260405191825260018060a01b03602082015116602083015260018060a01b03604082015116604083015260018060a01b03606082015116606083015260018060a01b03608082015116608083015260018060a01b0360a08201511660a083015260018060a01b0360c08201511660c083015260e060018060a01b039101511660e0820152f35b50346101b557806003193601126101b5577f00000000000000000000000000000000000000000000000000000000000000006001600160a01b03163003612cba5760206040516000805160206153bb8339815191528152f35b60405162461bcd60e51b815260206004820152603860248201527f555550535570677261646561626c653a206d757374206e6f742062652063616c60448201527f6c6564207468726f7567682064656c656761746563616c6c00000000000000006064820152608490fd5b5060403660031901126101b557612d3a613e14565b602435906001600160401b0382116119085736602383011215611908578160040135612d6581613f0d565b90612d736040519283613eec565b80825284602094858401923660248284010111611908578060248893018537840101526001600160a01b037f0000000000000000000000000000000000000000000000000000000000000000811690612dce30831415613ff9565b612deb6000805160206153bb83398151915292828454161461405a565b612df3613f58565b7f4910fdfa16fed3260ed0e7147f7cc6da11a60208b5b9406d12a635614ffd91435460ff1615612e2b575050505061015e91506140bb565b84939416906040516352d1902d60e01b81528681600481865afa60009181612fc5575b50612eaf5760405162461bcd60e51b815260048101889052602e60248201527f45524331393637557067726164653a206e657720696d706c656d656e7461746960448201526d6f6e206973206e6f74205555505360901b6064820152608490fd5b95949503612f6e57612ec0836140bb565b7fbc7cd75a20ee27fd9adebab32041f755214dbc6bffa90cc0225b39da2e5c2d3b600080a2835115801590612f66575b612efc575b5050505080f35b60008091612f5c957f416464726573733a206c6f772d6c6576656c2064656c65676174652063616c6c60405196612f3288613e7f565b60278852870152660819985a5b195960ca1b60408701525190845af4612f5661414b565b9161417b565b5038808080612ef5565b506001612ef0565b60405162461bcd60e51b815260048101859052602960248201527f45524331393637557067726164653a20756e737570706f727465642070726f786044820152681a58589b195555525160ba1b6064820152608490fd5b90918882813d8311612fed575b612fdc8183613eec565b810103126101b55750519038612e4e565b503d612fd2565b50346101b55760403660031901126101b557606090613011613e14565b613019613e2a565b826040805161302781613e7f565b8281528260208201520152604060018060a01b03938480931681526101036020522091166000526020526040600020906040519061306482613e7f565b82541691828252604060026001830154926020850193845201549201918252604051928352516020830152516040820152f35b50346101b557602080600319360112610828576130b2613e14565b6001600160a01b037f00000000000000000000000000000000000000000000000000000000000000008116906130ea30831415613ff9565b6131076000805160206153bb83398151915292828454161461405a565b61310f613f58565b60405191848301918383106001600160401b038411176112a6578260405286845260ff7f4910fdfa16fed3260ed0e7147f7cc6da11a60208b5b9406d12a635614ffd9143541660001461316a575050505061015e91506140bb565b84939416906040516352d1902d60e01b81528681600481865afa60009181613241575b506131ee5760405162461bcd60e51b815260048101889052602e60248201527f45524331393637557067726164653a206e657720696d706c656d656e7461746960448201526d6f6e206973206e6f74205555505360901b6064820152608490fd5b95949503612f6e576131ff836140bb565b7fbc7cd75a20ee27fd9adebab32041f755214dbc6bffa90cc0225b39da2e5c2d3b600080a283511580159061323957612efc575050505080f35b506000612ef0565b90918882813d8311613269575b6132588183613eec565b810103126101b5575051903861318d565b503d61324e565b50346101b55760203660031901126101b5578061328b613e14565b613293613f58565b73__$7682c538d2a75d26dfca907f0e750789f4$__90813b15610fa45760405163dec30e3360e01b815260fb60048201526001600160a01b039091166024820152908290829060449082905af4801561081d57610f945750f35b50346101b55760403660031901126101b557613307613e14565b61330f613e2a565b60608060405161331e81613e9a565b858152856020820152816040820152015260018060a01b03168252610104602052604082209060018060a01b03166000526020526040600020906040519161336583613e9a565b60018060a01b038154168352600181015460208401526002810160405190816020825491828152019185526020852090855b818110613a0257505050906133b181600394930382613eec565b60408501520191604051808460208296549384815201908552602085209285905b80601f83011061387a576134eb945491818110613866575b81811061384f575b818110613838575b818110613821575b81811061380b575b8181106137f4575b8181106137dd575b8181106137c6575b8181106137af575b818110613798575b818110613781575b81811061376a575b818110613753575b81811061373c575b818110613725575b81811061370e575b8181106136f7575b8181106136e0575b8181106136c9575b8181106136b2575b81811061369b575b818110613684575b81811061366d575b818110613656575b81811061363f575b818110613628575b818110613611575b8181106135fa575b8181106135e3575b8181106135cc575b8181106135b5575b106135a7575b509493940383613eec565b6060810191825260405192839260208452604060a085019360018060a01b038151166020870152602081015182870152015192608060608601528351809152602060c08601940190835b818110613585575050505191601f19848203016080850152602080845192838152019301915b818110613569575050500390f35b825160ff1684528594506020938401939092019160010161355b565b82516001600160a01b0316865287965060209586019590920191600101613535565b60f81c8152602001386134e0565b92602060019160ff8560f01c1681520193016134da565b92602060019160ff8560e81c1681520193016134d2565b92602060019160ff8560e01c1681520193016134ca565b92602060019160ff8560d81c1681520193016134c2565b92602060019160ff8560d01c1681520193016134ba565b92602060019160ff8560c81c1681520193016134b2565b92602060019160ff8560c01c1681520193016134aa565b92602060019160ff8560b81c1681520193016134a2565b92602060019160ff8560b01c16815201930161349a565b92602060019160ff8560a81c168152019301613492565b92602060019160ff8560a01c16815201930161348a565b92602060019160ff8560981c168152019301613482565b92602060019160ff8560901c16815201930161347a565b92602060019160ff8560881c168152019301613472565b92602060019160ff8560801c16815201930161346a565b92602060019160ff8560781c168152019301613462565b92602060019160ff8560701c16815201930161345a565b92602060019160ff8560681c168152019301613452565b92602060019160ff8560601c16815201930161344a565b92602060019160ff8560581c168152019301613442565b92602060019160ff8560501c16815201930161343a565b92602060019160ff8560481c168152019301613432565b92602060019160ff8560401c16815201930161342a565b92602060019160ff8560381c168152019301613422565b92602060019160ff8560301c16815201930161341a565b92602060019160ff8560281c168152019301613412565b92602060019160ff85831c16815201930161340a565b92602060019160ff8560181c168152019301613402565b92602060019160ff8560101c1681520193016133fa565b92602060019160ff8560081c1681520193016133f2565b92602060019160ff851681520193016133ea565b916020919350610400600191865460ff8082168352808260081c1686840152808260101c166040840152808260181c1660608401528082608082828a1c1681870152828260a0828260281c16818a0152828260c095828260301c16878d0152828260381c1660e08d0152828260401c166101008d0152828260481c166101208d0152828260501c166101408d0152828260581c166101608d0152828260601c166101808d0152828260681c166101a08d0152828260701c166101c08d0152828260781c166101e08d01521c166102008a0152828260881c166102208a0152828260901c166102408a0152828260981c166102608a01521c16610280870152828260a81c166102a0870152828260b01c166102c0870152828260b81c166102e08701521c16610300840152808260c81c16610320840152808260d01c16610340840152808260d81c16610360840152808260e01c16610380840152808260e81c166103a08401528160f01c166103c083015260f81c6103e08201520194019201869293916133d2565b82546001600160a01b0316845260209093019260019283019201613397565b5060603660031901126101b557613a36613e14565b613a3e613e2a565b90604435613a4a614320565b60ff6101055416610efd57613a5e83614c01565b80156113215760fc546040516361fe24a960e11b8152600481018390526001600160a01b0394918516916020918281602481875afa8015613bea578890613ce3575b613aab9150856142c4565b92338852610103938484528760408a20971696876000528452604060002060405190613ad682613e7f565b8981541682526001810154908b8760028186019385855201549360408601948552613bf5575b5050505050613b169150613b108184614d7a565b82614e59565b6004828760fc541660405192838092638347592160e01b82525afa8015613bea577fa47b480b3eb82e8148b782528faf6afad69b7f3da51fc0160764a4f78723c90a946002928a92613bcb575b508860405194613b7286613e7f565b16988985528585019188835260ff6040870194168452338c52865260408b2089600052865260406000209451166001600160601b0360a01b855416178455516001840155519101556040519283523392a4600160655580f35b613be3919250853d8711610854576108468183613eec565b9038613b63565b6040513d8a823e3d90fd5b600492949660409694965193848092638347592160e01b82525afa958615613cd6578a9660ff938e9391613cb9575b5086519316831480613cab575b15613c94575050508151848111600014613c6e575050613c5f92613c559151614313565b3391519084615157565b613b16875b3880808b87613afc565b613b169450613c89919250606461072c613c8f955183614300565b90614313565b613c64565b613b169650613c8f94939550511633925190615157565b508181511682891614613c31565b613cd091508a3d8c11610854576108468183613eec565b38613c24565b50604051903d90823e3d90fd5b508281813d8311613d0b575b613cf98183613eec565b81010312610d6e57613aab9051613aa0565b503d613cef565b50346101b55760203660031901126101b55780613d2d613e14565b613d35613f58565b73__$7682c538d2a75d26dfca907f0e750789f4$__90813b15610fa45760405163ebda042b60e01b815260fb60048201526001600160a01b039091166024820152908290829060449082905af4801561081d57610f945750f35b50346101b55760203660031901126101b557613da9613e14565b613db1613f58565b8173__$7682c538d2a75d26dfca907f0e750789f4$__91823b1561082857604051632c55921b60e01b815260fb60048201526001600160a01b03909116602482015291829060449082905af4801561081d57613e0b575080f35b61015e90613e6c565b600435906001600160a01b0382168203610d6e57565b602435906001600160a01b0382168203610d6e57565b604435906001600160a01b0382168203610d6e57565b606435906001600160a01b0382168203610d6e57565b6001600160401b0381116112a657604052565b606081019081106001600160401b038211176112a657604052565b608081019081106001600160401b038211176112a657604052565b61010081019081106001600160401b038211176112a657604052565b604081019081106001600160401b038211176112a657604052565b90601f801991011681019081106001600160401b038211176112a657604052565b6001600160401b0381116112a657601f01601f191660200190565b9181601f84011215610d6e578235916001600160401b038311610d6e576020808501948460051b010111610d6e57565b6033546001600160a01b03163303613f6c57565b606460405162461bcd60e51b815260206004820152602060248201527f4f776e61626c653a2063616c6c6572206973206e6f7420746865206f776e65726044820152fd5b603380546001600160a01b039283166001600160a01b0319821681179092559091167f8be0079c531659141344cd1fd0a4f28419497f9722a3daafe3b4186f6b6457e0600080a3565b1561400057565b60405162461bcd60e51b815260206004820152602c60248201527f46756e6374696f6e206d7573742062652063616c6c6564207468726f7567682060448201526b19195b1959d85d1958d85b1b60a21b6064820152608490fd5b1561406157565b60405162461bcd60e51b815260206004820152602c60248201527f46756e6374696f6e206d7573742062652063616c6c6564207468726f7567682060448201526b6163746976652070726f787960a01b6064820152608490fd5b803b156140f0576000805160206153bb83398151915280546001600160a01b0319166001600160a01b03909216919091179055565b60405162461bcd60e51b815260206004820152602d60248201527f455243313936373a206e657720696d706c656d656e746174696f6e206973206e60448201526c1bdd08184818dbdb9d1c9858dd609a1b6064820152608490fd5b3d15614176573d9061415c82613f0d565b9161416a6040519384613eec565b82523d6000602084013e565b606090565b919290156141dd575081511561418f575090565b3b156141985790565b60405162461bcd60e51b815260206004820152601d60248201527f416464726573733a2063616c6c20746f206e6f6e2d636f6e74726163740000006044820152606490fd5b8251909150156141f05750805190602001fd5b60405162461bcd60e51b815260206004820181815283516024840181905292938493610ca0929160005b82811061423c57505060409293506000838284010152601f8019910116010190565b81810186015184820160400152850161421a565b51906001600160a01b0382168203610d6e57565b1561426b57565b60405162461bcd60e51b815260206004820152602b60248201527f496e697469616c697a61626c653a20636f6e7472616374206973206e6f74206960448201526a6e697469616c697a696e6760a81b6064820152608490fd5b919082018092116142d157565b634e487b7160e01b600052601160045260246000fd5b90816020910312610d6e575160ff81168103610d6e5790565b818102929181159184041417156142d157565b919082039182116142d157565b600260655414614331576002606555565b60405162461bcd60e51b815260206004820152601f60248201527f5265656e7472616e637947756172643a207265656e7472616e742063616c6c006044820152606490fd5b6001600160401b0381116112a65760051b60200190565b929161439882614376565b916143a66040519384613eec565b829481845260208094019160051b8101928311610d6e57905b8282106143cc5750505050565b81356001600160a01b0381168103610d6e5781529083019083016143bf565b92916143f682614376565b916144046040519384613eec565b829481845260208094019160051b8101928311610d6e57905b82821061442a5750505050565b813560ff81168103610d6e57815290830190830161441d565b60003381526101038060205260408083209360018060a01b038091169485855260205281842090825161447581613e7f565b81835416815260018301549360026020830194868652015494818301958652156144f157600287916144ca973384526020528083208a8452602052822082815582600182015501555116905133925191615157565b7f7d0e940828cac20ee2f9b4bc116a5b9303f4de2f3e08c0731becff862d0aa1b0339180a3565b5050505050505050565b818110614506575050565b600081556001016144fb565b6000338152610104602090808252604083209360018060a01b03809116948585528352604084209060405161454681613e9a565b8183541681528460019384810154938284019485526002820160405191828583549182815201928c52858c20918c905b8a838310614bcf5750505050509061459381600394930382613eec565b60408501520191604051809384918482549182815201918b52848b20908b915b8982601f850110614a375750916146d89493916060979354918b85838310614a24575b838310614a0e575b8383106149f8575b8383106149e2575b8383106149cd575b8383106149b7575b8383106149a1575b83831061498b575b838310614975575b83831061495f575b838310614949575b838310614933575b83831061491e575b838310614908575b8383106148f2575b8383106148dc575b8383106148c6575b8383106148b0575b83831061489a575b838310614884575b83831061486e575b838310614858575b838310614842575b83831061482c575b838310614816575b838310614800575b8383106147ea575b8383106147d4575b8383106147be575b8383106147a8575b838310614792575b505010614784575b5090500384613eec565b0152511561477d57600391338552835260408420858552835283604081209181835582015560028101805485825580614764575b50500180549083815581614745575b5050507f2ee913c883151f0ab8f63c8bed5b91afe9c0ef1a2074398ff1c07c35c04cb55e339180a3565b835290822061475c91601f0160051c8101906144fb565b38808061471b565b614776918652848620908101906144fb565b388061470c565b5050505050565b60f81c8152018990386146ce565b90919460ff8560f01c1681520193018b856146c6565b90919460ff8560e81c1681520193018b856146be565b90919460ff8560e01c1681520193018b856146b6565b90919460ff8560d81c1681520193018b856146ae565b90919460ff8560d01c1681520193018b856146a6565b90919460ff8560c81c1681520193018b8561469e565b90919460ff8560c01c1681520193018b85614696565b90919460ff8560b81c1681520193018b8561468e565b90919460ff8560b01c1681520193018b85614686565b90919460ff8560a81c1681520193018b8561467e565b90919460ff8560a01c1681520193018b85614676565b90919460ff8560981c1681520193018b8561466e565b90919460ff8560901c1681520193018b85614666565b90919460ff8560881c1681520193018b8561465e565b90919460ff8560801c1681520193018b85614656565b90919460ff8560781c1681520193018b8561464e565b90919460ff8560701c1681520193018b85614646565b90919460ff8560681c1681520193018b8561463e565b90919460ff858c1c1681520193018b85614636565b90919460ff8560581c1681520193018b8561462e565b90919460ff8560501c1681520193018b85614626565b90919460ff8560481c1681520193018b8561461e565b90919460ff8560401c1681520193018b85614616565b90919460ff8560381c1681520193018b8561460e565b90919460ff8560301c1681520193018b85614606565b90919460ff8560281c1681520193018b856145fe565b90919460ff85831c1681520193018b856145f6565b90919460ff8560181c1681520193018b856145ee565b90919460ff8560101c1681520193018b856145e6565b90919460ff8560081c1681520193018b856145de565b90919460ff851681520193018b856145d6565b9193816104009297989496505460ff8116825260ff8160081c168583015260ff8160101c16604083015260ff816060828260181c16818601528282608082828c1c1681890152828260a092828260281c16848c0152828260c0988d8a848460301c169101528d60e0848460381c169101528d610100848460401c169101528d610120848460481c169101528d610140848460501c169101528d610160848460581c169101521c166101808c0152828260681c166101a08c0152828260701c166101c08c0152828260781c166101e08c01521c16610200890152828260881c16610220890152828260901c16610240890152828260981c166102608901521c16610280860152828260a81c166102a0860152828260b01c166102c0860152828260b81c166102e08601521c1661030083015260ff8160c81c1661032083015260ff8160d01c1661034083015260ff8160d81c1661036083015260ff8160e01c1661038083015260ff8160e81c166103a083015260ff8160f01c166103c083015260f81c6103e082015201940192018994939186936145b3565b8454821686528d9890950194938401939190910190614576565b90816020910312610d6e57518015158103610d6e5790565b6001600160a01b039081168015918215614c5c575b505015614c1f57565b60405162461bcd60e51b81526020600482015260156024820152744e6f7420617070726f7665642063757272656e637960581b6044820152606490fd5b6020919250610100541691602460405180948193632d5ad3d560e01b835260048301525afa90811561085b57600091614c98575b503880614c16565b614cb0915060203d81116108ec576108de8183613eec565b38614c90565b60405163e985e9c560e01b81526001600160a01b0391821660048201523060248201529160209183916044918391165afa90811561085b57600091614d4d575b5015614cfe57565b60405162461bcd60e51b815260206004820152602160248201527f6f776e6572206d757374206861766520617070726f76656420636f6e747261636044820152601d60fa1b6064820152608490fd5b614d65915060203d81116108ec576108de8183613eec565b38614cf6565b60001981146142d15760010190565b6001600160a01b03168015614e5557604051636eb1769f60e11b815233600482015230602482015290602090829060449082905afa90811561085b57600091614e24575b5010614dc657565b60405162461bcd60e51b815260206004820152603060248201527f73656e646572206e6565647320746f20617070726f7665206d61726b6574706c60448201526f61636520666f722063757272656e637960801b6064820152608490fd5b906020823d8211614e4d575b81614e3d60209383613eec565b810103126101b557505138614dbe565b3d9150614e30565b5050565b6001600160a01b031690811561502a5734614fd45760409081516370a0823160e01b938482523060048301526020948583602481855afa928315614fc957908691600094614f97575b5085516323b872dd60e01b8382015233602482015230604482015260648101869052614ee590614edf81608481015b03601f198101835282613eec565b8461506f565b602486518094819382523060048301525afa908115614f8c57600091614f5d575b5090614f1191614313565b03614f1a575050565b60649250519062461bcd60e51b82526004820152601c60248201527f6e6f7420656e6f75676820746f6b656e73207472616e736665726564000000006044820152fd5b908582813d8311614f85575b614f738183613eec565b810103126101b5575051614f11614f06565b503d614f69565b84513d6000823e3d90fd5b9182819592953d8311614fc2575b614faf8183613eec565b810103126101b557508590519238614ea2565b503d614fa5565b85513d6000823e3d90fd5b60405162461bcd60e51b815260206004820152602860248201527f6d73672e76616c75652073686f756c642062652030207768656e206e6f7420756044820152670e6d2dcce40cae8d60c31b6064820152608490fd5b9050340361503457565b60405162461bcd60e51b81526020600482015260136024820152721b9bdd08195b9bdd59da08195d1a081cd95b9d606a1b6044820152606490fd5b6040516150c7916001600160a01b031661508882613ed1565b6000806020958685527f5361666545524332303a206c6f772d6c6576656c2063616c6c206661696c656487860152868151910182855af1612f5661414b565b805190828215928315615137575b505050156150e05750565b6084906040519062461bcd60e51b82526004820152602a60248201527f5361666545524332303a204552433230206f7065726174696f6e20646964206e6044820152691bdd081cdd58d8d9595960b21b6064820152fd5b6151479350820181019101614be9565b3882816150d5565b156141f05750565b92919080156151ea57606461072c61516f9383614300565b6001600160a01b03929091908316801561518f5761518d93506151f0565b565b5060ff5460405163410085df60e01b602082019081526001600160a01b0390931660248201526044810184905261518d9460009485949390911692916151d88160648101614ed1565b51925af16151e461414b565b9061514f565b50505050565b60405163a9059cbb60e01b60208201526001600160a01b0392909216602483015260448083019390935291815261518d9161522c606483613eec565b61506f565b80511561523e5760200190565b634e487b7160e01b600052603260045260246000fd5b80516001101561523e5760400190565b805182101561523e5760209160051b010190565b9061528282614376565b61528f6040519182613eec565b82815280926152a0601f1991614376565b0190602036910137565b9293926001600160a01b03919082168061537257508160ff541692604051906020908183019463c176e63960e01b86526064840160406024860152825180915283608486019301916000905b828210615359575050505082810360231901604484015287518082529082019782019160005b82811061534557505050509160009391836151d8869561518d989903601f198101835282613eec565b83518a52988101989281019260010161531c565b83518116855293850193928501926001909101906152f6565b9492905060005b81518110156153b257806153a8846153946153ad9486615264565b51166153a08388615264565b5190896151f0565b614d6b565b615379565b50505050905056fe360894a13ba1a3210667c828492db98dca3e2076cc3735a920a3ca505d382bbca2646970667358221220d70323061e6bc784597490f77bfaf8111e56a10638311c8b286fe24b680300f564736f6c63430008120033","linkReferences":{"src/utils/structs/MarketConfig.sol":{"MarketConfig":[{"start":3955,"length":20},{"start":5422,"length":20},{"start":5887,"length":20},{"start":6772,"length":20},{"start":13004,"length":20},{"start":15726,"length":20},{"start":15851,"length":20}]}}},"methodIdentifiers":{"acceptCollectionOffer(address,address,uint256,address,uint256,address[],uint8[])":"e5fc48ee","buyFromCollection(address,uint256,address,uint256)":"6d374d81","cancelCollectionOffer(address)":"9214be52","cancelCollectionSalePrice(address)":"85b1eb27","getCollectionOffer(address,address)":"381eff7c","getCollectionSalePrice(address,address)":"25bc1330","getMarketConfig()":"614bd944","initialize(address,address,address,address,address,address,address,address)":"8a29e2de","isPaused()":"b187bd26","makeCollectionOffer(address,address,uint256)":"22f193d0","owner()":"8da5cb5b","proxiableUUID()":"52d1902d","renounceOwnership()":"715018a6","setApprovedTokenRegistry(address)":"e4e87e3b","setCollectionSalePrice(address,address,uint256,address[],uint8[])":"d9ed2096","setContractPaused(bool)":"882796f1","setMarketplaceSettings(address)":"176ab440","setNetworkBeneficiary(address)":"3492e5a8","setPayments(address)":"af231a58","setRoyaltyEngine(address)":"21ede032","setSpaceOperatorRegistry(address)":"7f358230","transferOwnership(address)":"f2fde38b","upgradeTo(address)":"3659cfe6","upgradeToAndCall(address,bytes)":"4f1ef286"},"id":157}