{
  "abi": [
    {
      "anonymous": false,
      "inputs": [
        {
          "indexed": false,
          "internalType": "address",
          "name": "previousAdmin",
          "type": "address"
        },
        {
          "indexed": false,
          "internalType": "address",
          "name": "newAdmin",
          "type": "address"
        }
      ],
      "name": "AdminChanged",
      "type": "event"
    },
    {
      "anonymous": false,
      "inputs": [
        {
          "indexed": true,
          "internalType": "address",
          "name": "beacon",
          "type": "address"
        }
      ],
      "name": "BeaconUpgraded",
      "type": "event"
    },
    {
      "anonymous": false,
      "inputs": [
        {
          "indexed": false,
          "internalType": "uint8",
          "name": "version",
          "type": "uint8"
        }
      ],
      "name": "Initialized",
      "type": "event"
    },
    {
      "anonymous": false,
      "inputs": [
        {
          "indexed": true,
          "internalType": "address",
          "name": "_contractAddress",
          "type": "address"
        },
        {
          "indexed": true,
          "internalType": "address",
          "name": "_seller",
          "type": "address"
        },
        {
          "indexed": true,
          "internalType": "address",
          "name": "_buyer",
          "type": "address"
        },
        {
          "indexed": false,
          "internalType": "uint256",
          "name": "_tokenIdStart",
          "type": "uint256"
        },
        {
          "indexed": false,
          "internalType": "uint256",
          "name": "_tokenIdEnd",
          "type": "uint256"
        },
        {
          "indexed": false,
          "internalType": "address",
          "name": "_currency",
          "type": "address"
        },
        {
          "indexed": false,
          "internalType": "uint256",
          "name": "_price",
          "type": "uint256"
        }
      ],
      "name": "MintDirectSale",
      "type": "event"
    },
    {
      "anonymous": false,
      "inputs": [
        {
          "indexed": true,
          "internalType": "address",
          "name": "previousOwner",
          "type": "address"
        },
        {
          "indexed": true,
          "internalType": "address",
          "name": "newOwner",
          "type": "address"
        }
      ],
      "name": "OwnershipTransferred",
      "type": "event"
    },
    {
      "anonymous": false,
      "inputs": [
        {
          "indexed": true,
          "internalType": "address",
          "name": "_contractAddress",
          "type": "address"
        },
        {
          "indexed": true,
          "internalType": "address",
          "name": "_currency",
          "type": "address"
        },
        {
          "indexed": true,
          "internalType": "address",
          "name": "_seller",
          "type": "address"
        },
        {
          "indexed": false,
          "internalType": "uint256",
          "name": "_price",
          "type": "uint256"
        },
        {
          "indexed": false,
          "internalType": "address payable[]",
          "name": "splitRecipients",
          "type": "address[]"
        },
        {
          "indexed": false,
          "internalType": "uint8[]",
          "name": "splitRatios",
          "type": "uint8[]"
        }
      ],
      "name": "PrepareMintDirectSale",
      "type": "event"
    },
    {
      "anonymous": false,
      "inputs": [
        {
          "indexed": true,
          "internalType": "address",
          "name": "implementation",
          "type": "address"
        }
      ],
      "name": "Upgraded",
      "type": "event"
    },
    {
      "inputs": [
        {
          "internalType": "address",
          "name": "_contractAddress",
          "type": "address"
        }
      ],
      "name": "getDirectSaleConfig",
      "outputs": [
        {
          "components": [
            {
              "internalType": "address",
              "name": "seller",
              "type": "address"
            },
            {
              "internalType": "address",
              "name": "currencyAddress",
              "type": "address"
            },
            {
              "internalType": "uint256",
              "name": "price",
              "type": "uint256"
            },
            {
              "internalType": "uint256",
              "name": "startTime",
              "type": "uint256"
            },
            {
              "internalType": "address payable[]",
              "name": "splitRecipients",
              "type": "address[]"
            },
            {
              "internalType": "uint8[]",
              "name": "splitRatios",
              "type": "uint8[]"
            }
          ],
          "internalType": "struct IRareMinter.DirectSaleConfig",
          "name": "",
          "type": "tuple"
        }
      ],
      "stateMutability": "view",
      "type": "function"
    },
    {
      "inputs": [
        {
          "internalType": "address",
          "name": "_networkBeneficiary",
          "type": "address"
        },
        {
          "internalType": "address",
          "name": "_marketplaceSettings",
          "type": "address"
        },
        {
          "internalType": "address",
          "name": "_spaceOperatorRegistry",
          "type": "address"
        },
        {
          "internalType": "address",
          "name": "_royaltyEngine",
          "type": "address"
        },
        {
          "internalType": "address",
          "name": "_payments",
          "type": "address"
        },
        {
          "internalType": "address",
          "name": "_approvedTokenRegistry",
          "type": "address"
        },
        {
          "internalType": "address",
          "name": "_stakingSettings",
          "type": "address"
        },
        {
          "internalType": "address",
          "name": "_stakingRegistry",
          "type": "address"
        }
      ],
      "name": "initialize",
      "outputs": [],
      "stateMutability": "nonpayable",
      "type": "function"
    },
    {
      "inputs": [
        {
          "internalType": "address",
          "name": "_contractAddress",
          "type": "address"
        },
        {
          "internalType": "address",
          "name": "_currencyAddress",
          "type": "address"
        },
        {
          "internalType": "uint256",
          "name": "_price",
          "type": "uint256"
        },
        {
          "internalType": "uint8",
          "name": "_numMints",
          "type": "uint8"
        }
      ],
      "name": "mintDirectSale",
      "outputs": [],
      "stateMutability": "payable",
      "type": "function"
    },
    {
      "inputs": [],
      "name": "owner",
      "outputs": [
        {
          "internalType": "address",
          "name": "",
          "type": "address"
        }
      ],
      "stateMutability": "view",
      "type": "function"
    },
    {
      "inputs": [
        {
          "internalType": "address",
          "name": "_contractAddress",
          "type": "address"
        },
        {
          "internalType": "address",
          "name": "_currencyAddress",
          "type": "address"
        },
        {
          "internalType": "uint256",
          "name": "_price",
          "type": "uint256"
        },
        {
          "internalType": "uint256",
          "name": "_startTime",
          "type": "uint256"
        },
        {
          "internalType": "address payable[]",
          "name": "_splitRecipients",
          "type": "address[]"
        },
        {
          "internalType": "uint8[]",
          "name": "_splitRatios",
          "type": "uint8[]"
        }
      ],
      "name": "prepareMintDirectSale",
      "outputs": [],
      "stateMutability": "nonpayable",
      "type": "function"
    },
    {
      "inputs": [],
      "name": "proxiableUUID",
      "outputs": [
        {
          "internalType": "bytes32",
          "name": "",
          "type": "bytes32"
        }
      ],
      "stateMutability": "view",
      "type": "function"
    },
    {
      "inputs": [],
      "name": "renounceOwnership",
      "outputs": [],
      "stateMutability": "nonpayable",
      "type": "function"
    },
    {
      "inputs": [
        {
          "internalType": "address",
          "name": "_approvedTokenRegistry",
          "type": "address"
        }
      ],
      "name": "setApprovedTokenRegistry",
      "outputs": [],
      "stateMutability": "nonpayable",
      "type": "function"
    },
    {
      "inputs": [
        {
          "internalType": "address",
          "name": "_marketplaceSettings",
          "type": "address"
        }
      ],
      "name": "setMarketplaceSettings",
      "outputs": [],
      "stateMutability": "nonpayable",
      "type": "function"
    },
    {
      "inputs": [
        {
          "internalType": "address",
          "name": "_networkBeneficiary",
          "type": "address"
        }
      ],
      "name": "setNetworkBeneficiary",
      "outputs": [],
      "stateMutability": "nonpayable",
      "type": "function"
    },
    {
      "inputs": [
        {
          "internalType": "address",
          "name": "_payments",
          "type": "address"
        }
      ],
      "name": "setPayments",
      "outputs": [],
      "stateMutability": "nonpayable",
      "type": "function"
    },
    {
      "inputs": [
        {
          "internalType": "address",
          "name": "_royaltyEngine",
          "type": "address"
        }
      ],
      "name": "setRoyaltyEngine",
      "outputs": [],
      "stateMutability": "nonpayable",
      "type": "function"
    },
    {
      "inputs": [
        {
          "internalType": "address",
          "name": "_spaceOperatorRegistry",
          "type": "address"
        }
      ],
      "name": "setSpaceOperatorRegistry",
      "outputs": [],
      "stateMutability": "nonpayable",
      "type": "function"
    },
    {
      "inputs": [
        {
          "internalType": "address",
          "name": "newOwner",
          "type": "address"
        }
      ],
      "name": "transferOwnership",
      "outputs": [],
      "stateMutability": "nonpayable",
      "type": "function"
    },
    {
      "inputs": [
        {
          "internalType": "address",
          "name": "newImplementation",
          "type": "address"
        }
      ],
      "name": "upgradeTo",
      "outputs": [],
      "stateMutability": "nonpayable",
      "type": "function"
    },
    {
      "inputs": [
        {
          "internalType": "address",
          "name": "newImplementation",
          "type": "address"
        },
        {
          "internalType": "bytes",
          "name": "data",
          "type": "bytes"
        }
      ],
      "name": "upgradeToAndCall",
      "outputs": [],
      "stateMutability": "payable",
      "type": "function"
    }
  ],
  "bytecode": {
    "object": "0x60a06040523060805234801561001457600080fd5b506080516133ef61004c60003960008181610d3a01528181610d7a01528181610e1901528181610e590152610eec01526133ef6000f3fe6080604052600436106100f35760003560e01c8063715018a61161008a578063a01fa6a911610059578063a01fa6a914610265578063af231a5814610292578063e4e87e3b146102b2578063f2fde38b146102d257600080fd5b8063715018a6146101e85780637f358230146101fd5780638a29e2de1461021d5780638da5cb5b1461023d57600080fd5b80633492e5a8116100c65780633492e5a81461016d5780633659cfe61461018d5780634f1ef286146101ad57806352d1902d146101c057600080fd5b806303831374146100f8578063176ab4401461010d57806321ddb9451461012d57806321ede0321461014d575b600080fd5b61010b6101063660046129d1565b6102f2565b005b34801561011957600080fd5b5061010b610128366004612a24565b610982565b34801561013957600080fd5b5061010b610148366004612a94565b610a00565b34801561015957600080fd5b5061010b610168366004612a24565b610c92565b34801561017957600080fd5b5061010b610188366004612a24565b610ce1565b34801561019957600080fd5b5061010b6101a8366004612a24565b610d30565b61010b6101bb366004612b83565b610e0f565b3480156101cc57600080fd5b506101d5610edf565b6040519081526020015b60405180910390f35b3480156101f457600080fd5b5061010b610f92565b34801561020957600080fd5b5061010b610218366004612a24565b610fa6565b34801561022957600080fd5b5061010b610238366004612c2b565b610ff5565b34801561024957600080fd5b506033546040516001600160a01b0390911681526020016101df565b34801561027157600080fd5b50610285610280366004612a24565b611272565b6040516101df9190612d12565b34801561029e57600080fd5b5061010b6102ad366004612a24565b6113e6565b3480156102be57600080fd5b5061010b6102cd366004612a24565b611435565b3480156102de57600080fd5b5061010b6102ed366004612a24565b611484565b6001600160a01b03808516600090815261010360209081526040808320815160c0810183528154861681526001820154909516858401526002810154858301526003810154606086015260048101805483518186028101860190945280845294959491936080860193929083018282801561039657602002820191906000526020600020905b81546001600160a01b03168152600190910190602001808311610378575b505050505081526020016005820180548060200260200160405190810160405280929190818152602001828054801561040c57602002820191906000526020600020906000905b825461010083900a900460ff168152602060019283018181049485019490930390920291018084116103dd5790505b505050505081525050905060008260ff16116104845760405162461bcd60e51b815260206004820152602c60248201527f6d696e7444697265637453616c653a3a4d696e7473206d75737420626520677260448201526b06561746572207468616e20360a41b60648201526084015b60405180910390fd5b42816060015111156104e45760405162461bcd60e51b8152602060048201526024808201527f6d696e7444697265637453616c653a3a53616c6520686173206e6f74207374616044820152631c9d195960e21b606482015260840161047b565b80516001600160a01b03166105595760405162461bcd60e51b815260206004820152603560248201527f6d696e7444697265637453616c653a3a436f6e7472616374206e6f7420707265604482015274706172656420666f72206469726563742073616c6560581b606482015260840161047b565b806040015183146105c85760405162461bcd60e51b815260206004820152603360248201527f6d696e7444697265637453616c653a3a507269636520646f6573206e6f74206d6044820152726174636820726571756972656420707269636560681b606482015260840161047b565b836001600160a01b031681602001516001600160a01b0316146106535760405162461bcd60e51b815260206004820152603960248201527f6d696e7444697265637453616c653a3a43757272656e637920646f6573206e6f60448201527f74206d617463682072657175697265642063757272656e637900000000000000606482015260840161047b565b60006106628460ff8516612dd0565b905081604001516000146106f65760fc546040516361fe24a960e11b8152600481018390526000916001600160a01b03169063c3fc495290602401602060405180830381865afa1580156106ba573d6000803e3d6000fd5b505050506040513d601f19601f820116820180604052508101906106de9190612de7565b6106e89083612e00565b90506106f486826114fa565b505b60405163755edd1760e01b81523360048201526000906001600160a01b0388169063755edd17906024016020604051808303816000875af115801561073f573d6000803e3d6000fd5b505050506040513d601f19601f820116820180604052508101906107639190612de7565b60fc54604051635a3c652d60e01b81526001600160a01b038a811660048301526024820184905260016044830152929350911690635a3c652d90606401600060405180830381600087803b1580156107ba57600080fd5b505af19250505080156107cb575060015b5060015b8460ff168110156108d25760405163755edd1760e01b81523360048201526001600160a01b0389169063755edd17906024016020604051808303816000875af1158015610820573d6000803e3d6000fd5b505050506040513d601f19601f820116820180604052508101906108449190612de7565b5060fc546001600160a01b0316635a3c652d896108618486612e00565b6040516001600160e01b031960e085901b1681526001600160a01b039092166004830152602482015260016044820152606401600060405180830381600087803b1580156108ae57600080fd5b505af19250505080156108bf575060015b50806108ca81612e13565b9150506107cf565b506040830151156108fd578251608084015160a08501516108fd9260fb928b9286928c9289926116f5565b825133906001600160a01b039081169089167f3bbd73fed0f94290f16db112f6b7113697c2502dd42aa0ddf8f971472523f10084600161094060ff8b1683612e00565b61094a9190612e2c565b6040805192835260208301919091526001600160a01b038c1690820152606081018a905260800160405180910390a450505050505050565b61098a611fff565b604051632c55921b60e01b815260fb60048201526001600160a01b038216602482015273__$7682c538d2a75d26dfca907f0e750789f4$__90632c55921b906044015b60006040518083038186803b1580156109e557600080fd5b505af41580156109f9573d6000803e3d6000fd5b5050505050565b336001600160a01b0316886001600160a01b0316638da5cb5b6040518163ffffffff1660e01b8152600401602060405180830381865afa158015610a48573d6000803e3d6000fd5b505050506040513d601f19601f82011682018060405250810190610a6c9190612e3f565b6001600160a01b031614610af65760405162461bcd60e51b8152602060048201526044602482018190527f707265706172654d696e7444697265637453616c653a3a4f6e6c79206d696e74908201527f20636f6e7472616374206f776e65722063616e207072657061726520746865206064820152631b5a5b9d60e21b608482015260a40161047b565b6040518060c00160405280336001600160a01b03168152602001886001600160a01b03168152602001878152602001868152602001858580806020026020016040519081016040528093929190818152602001838360200280828437600092019190915250505090825250604080516020858102828101820190935285825292830192909186918691829185019084908082843760009201829052509390945250506001600160a01b03808c1682526101036020908152604092839020855181549084166001600160a01b031991821617825586830151600183018054919095169116179092559184015160028201556060840151600382015560808401518051919350610c0b926004850192910190612896565b5060a08201518051610c279160058401916020909101906128fb565b50905050336001600160a01b0316876001600160a01b0316896001600160a01b03167f624f2a614a9a16b488e093795757fe726454947df180a1cc2b8fd558aa199a208988888888604051610c80959493929190612e5c565b60405180910390a45050505050505050565b610c9a611fff565b60405163ebda042b60e01b815260fb60048201526001600160a01b038216602482015273__$7682c538d2a75d26dfca907f0e750789f4$__9063ebda042b906044016109cd565b610ce9611fff565b60405163dec30e3360e01b815260fb60048201526001600160a01b038216602482015273__$7682c538d2a75d26dfca907f0e750789f4$__9063dec30e33906044016109cd565b6001600160a01b037f0000000000000000000000000000000000000000000000000000000000000000163003610d785760405162461bcd60e51b815260040161047b90612ef3565b7f00000000000000000000000000000000000000000000000000000000000000006001600160a01b0316610dc1600080516020613373833981519152546001600160a01b031690565b6001600160a01b031614610de75760405162461bcd60e51b815260040161047b90612f3f565b610df081612059565b60408051600080825260208201909252610e0c91839190612061565b50565b6001600160a01b037f0000000000000000000000000000000000000000000000000000000000000000163003610e575760405162461bcd60e51b815260040161047b90612ef3565b7f00000000000000000000000000000000000000000000000000000000000000006001600160a01b0316610ea0600080516020613373833981519152546001600160a01b031690565b6001600160a01b031614610ec65760405162461bcd60e51b815260040161047b90612f3f565b610ecf82612059565b610edb82826001612061565b5050565b6000306001600160a01b037f00000000000000000000000000000000000000000000000000000000000000001614610f7f5760405162461bcd60e51b815260206004820152603860248201527f555550535570677261646561626c653a206d757374206e6f742062652063616c60448201527f6c6564207468726f7567682064656c656761746563616c6c0000000000000000606482015260840161047b565b5060008051602061337383398151915290565b610f9a611fff565b610fa460006121d1565b565b610fae611fff565b604051630cf1420760e21b815260fb60048201526001600160a01b038216602482015273__$7682c538d2a75d26dfca907f0e750789f4$__906333c5081c906044016109cd565b600054610100900460ff16158080156110155750600054600160ff909116105b8061102f5750303b15801561102f575060005460ff166001145b6110925760405162461bcd60e51b815260206004820152602e60248201527f496e697469616c697a61626c653a20636f6e747261637420697320616c72656160448201526d191e481a5b9a5d1a585b1a5e995960921b606482015260840161047b565b6000805460ff1916600117905580156110b5576000805461ff0019166101001790555b6040516323e95fa960e01b81526001600160a01b03808b166004830152808a16602483015280891660448301528088166064830152808716608483015280861660a483015280851660c4830152831660e482015273__$7682c538d2a75d26dfca907f0e750789f4$__906323e95fa9906101040161010060405180830381865af4158015611147573d6000803e3d6000fd5b505050506040513d601f19601f8201168201806040525081019061116b9190612f9b565b805160fb80546001600160a01b03199081166001600160a01b0393841617909155602083015160fc80548316918416919091179055604083015160fd80548316918416919091179055606083015160fe80548316918416919091179055608083015160ff8054831691841691909117905560a08301516101008054831691841691909117905560c08301516101018054831691841691909117905560e09092015161010280549093169116179055611221612223565b8015611267576000805461ff0019169055604051600181527f7f26b83ff96e1f2b6a682f133852f6798a09c465da95921460cefb38474024989060200160405180910390a15b505050505050505050565b6112bd6040518060c0016040528060006001600160a01b0316815260200160006001600160a01b03168152602001600081526020016000815260200160608152602001606081525090565b6001600160a01b0380831660009081526101036020908152604091829020825160c081018452815485168152600182015490941684830152600281015484840152600381015460608501526004810180548451818502810185019095528085529193608086019390929083018282801561136057602002820191906000526020600020905b81546001600160a01b03168152600190910190602001808311611342575b50505050508152602001600582018054806020026020016040519081016040528092919081815260200182805480156113d657602002820191906000526020600020906000905b825461010083900a900460ff168152602060019283018181049485019490930390920291018084116113a75790505b5050505050815250509050919050565b6113ee611fff565b60405163c70c56c760e01b815260fb60048201526001600160a01b038216602482015273__$7682c538d2a75d26dfca907f0e750789f4$__9063c70c56c7906044016109cd565b61143d611fff565b6040516386e5800760e01b815260fb60048201526001600160a01b038216602482015273__$7682c538d2a75d26dfca907f0e750789f4$__906386e58007906044016109cd565b61148c611fff565b6001600160a01b0381166114f15760405162461bcd60e51b815260206004820152602660248201527f4f776e61626c653a206e6577206f776e657220697320746865207a65726f206160448201526564647265737360d01b606482015260840161047b565b610e0c816121d1565b6001600160a01b03821661154d57803414610edb5760405162461bcd60e51b81526020600482015260136024820152721b9bdd08195b9bdd59da08195d1a081cd95b9d606a1b604482015260640161047b565b34156115ac5760405162461bcd60e51b815260206004820152602860248201527f6d73672e76616c75652073686f756c642062652030207768656e206e6f7420756044820152670e6d2dcce40cae8d60c31b606482015260840161047b565b6040516370a0823160e01b815230600482015282906000906001600160a01b038316906370a0823190602401602060405180830381865afa1580156115f5573d6000803e3d6000fd5b505050506040513d601f19601f820116820180604052508101906116199190612de7565b90506116306001600160a01b038316333086612252565b6040516370a0823160e01b81523060048201526000906001600160a01b038416906370a0823190602401602060405180830381865afa158015611677573d6000803e3d6000fd5b505050506040513d601f19601f8201168201806040525081019061169b9190612de7565b9050836116a88383612e2c565b146109f95760405162461bcd60e51b815260206004820152601c60248201527f6e6f7420656e6f75676820746f6b656e73207472616e73666572656400000000604482015260640161047b565b80518251146117625760405162461bcd60e51b815260206004820152603360248201527f4e756d626572206f662073706c69742061646472657373657320616e642072616044820152723a34b7b99036bab9ba1031329032b8bab0b61760691b606482015260840161047b565b60018801546040516361fe24a960e11b81526004810186905285916000916001600160a01b039091169063c3fc495290602401602060405180830381865afa1580156117b2573d6000803e3d6000fd5b505050506040513d601f19601f820116820180604052508101906117d69190612de7565b604080516002808252606082018352929350600092909160208301908036833750508c5482519293506001600160a01b03169183915060009061181b5761181b613065565b6001600160a01b03928316602091820292909201015260078c015460405163e286ef3360e01b8152888316600482015291169063e286ef3390602401602060405180830381865afa158015611874573d6000803e3d6000fd5b505050506040513d601f19601f820116820180604052508101906118989190612e3f565b816001815181106118ab576118ab613065565b60200260200101906001600160a01b031690816001600160a01b03168152505060006001600160a01b0316816001815181106118e9576118e9613065565b60200260200101516001600160a01b03161461191f578060018151811061191257611912613065565b602002602001015161192b565b8a546001600160a01b03165b8160018151811061193e5761193e613065565b6001600160a01b039290921660209283029190910182015260408051600280825260608201835260009391929091830190803683370190505060068d01546040516303fdde1160e21b8152600481018b90529192506001600160a01b031690630ff7784490602401602060405180830381865afa1580156119c3573d6000803e3d6000fd5b505050506040513d601f19601f820116820180604052508101906119e79190612de7565b816000815181106119fa576119fa613065565b602090810291909101015260068c015460405163470d6ed960e11b8152600481018a90526001600160a01b0390911690638e1addb290602401602060405180830381865afa158015611a50573d6000803e3d6000fd5b505050506040513d601f19601f82011682018060405250810190611a749190612de7565b81600181518110611a8757611a87613065565b602002602001018181525050611aa08c8a8585856122c3565b60018c0154604051631446f21360e21b81526001600160a01b038d81166004830152602482018d90529091169063511bc84c90604401602060405180830381865afa158015611af3573d6000803e3d6000fd5b505050506040513d601f19601f82011682018060405250810190611b17919061307b565b611df85760408051600180825281830190925260009160208083019080368337505060408051600180825281830190925292935060009291506020808301908036833701905050905083600081518110611b7357611b73613065565b602002602001015181600081518110611b8e57611b8e613065565b6001600160a01b03928316602091820292909201015260028f0154604051635dc22eff60e01b81528b83166004820152911690635dc22eff90602401602060405180830381865afa158015611be7573d6000803e3d6000fd5b505050506040513d601f19601f82011682018060405250810190611c0b919061307b565b15611d0a5760028e0154604051632260494f60e01b81526001600160a01b038b811660048301526000921690632260494f90602401602060405180830381865afa158015611c5d573d6000803e3d6000fd5b505050506040513d601f19601f82011682018060405250810190611c81919061309d565b60ff1690506064611c92828d612dd0565b611c9c91906130ba565b611ca69088612e2c565b96506064611cb4828d612dd0565b611cbe91906130ba565b83600081518110611cd157611cd1613065565b602002602001018181525050611d048f8d85600081518110611cf557611cf5613065565b602002602001015185876122c3565b50611df1565b60018e015460405163b28a7bad60e01b81526001600160a01b038f81166004830152600092169063b28a7bad90602401602060405180830381865afa158015611d57573d6000803e3d6000fd5b505050506040513d601f19601f82011682018060405250810190611d7b919061309d565b60ff1690506064611d8c828d612dd0565b611d9691906130ba565b611da09088612e2c565b96506064611dae828d612dd0565b611db891906130ba565b83600081518110611dcb57611dcb613065565b602002602001018181525050611def8f8d85600081518110611cf557611cf5613065565b505b5050611ee8565b60038c0154604051637a99dc0160e11b81526001600160a01b038d81166004830152602482018d9052604482018b9052600092839291169063f533b802906064016000604051808303816000875af1158015611e58573d6000803e3d6000fd5b505050506040513d6000823e601f3d908101601f19168201604052611e80919081019061316b565b915091506000805b8251811015611eca57828181518110611ea357611ea3613065565b602002602001015182611eb69190612e00565b915080611ec281612e13565b915050611e88565b50611ed58188612e2c565b9650611ee48f8d8386866122c3565b5050505b6000865167ffffffffffffffff811115611f0457611f04612b3c565b604051908082528060200260200182016040528015611f2d578160200160208202803683370190505b5090506000805b8851811015611fe1576064888281518110611f5157611f51613065565b602002602001015160ff1688611f679190612dd0565b611f7191906130ba565b838281518110611f8357611f83613065565b6020026020010181815250506064888281518110611fa357611fa3613065565b602002602001015160ff1688611fb99190612dd0565b611fc391906130ba565b611fcd9083612e00565b915080611fd981612e13565b915050611f34565b50611fef8e8c838b866122c3565b5050505050505050505050505050565b6033546001600160a01b03163314610fa45760405162461bcd60e51b815260206004820181905260248201527f4f776e61626c653a2063616c6c6572206973206e6f7420746865206f776e6572604482015260640161047b565b610e0c611fff565b7f4910fdfa16fed3260ed0e7147f7cc6da11a60208b5b9406d12a635614ffd91435460ff1615612099576120948361242a565b505050565b826001600160a01b03166352d1902d6040518163ffffffff1660e01b8152600401602060405180830381865afa9250505080156120f3575060408051601f3d908101601f191682019092526120f091810190612de7565b60015b6121565760405162461bcd60e51b815260206004820152602e60248201527f45524331393637557067726164653a206e657720696d706c656d656e7461746960448201526d6f6e206973206e6f74205555505360901b606482015260840161047b565b60008051602061337383398151915281146121c55760405162461bcd60e51b815260206004820152602960248201527f45524331393637557067726164653a20756e737570706f727465642070726f786044820152681a58589b195555525160ba1b606482015260840161047b565b506120948383836124c6565b603380546001600160a01b038381166001600160a01b0319831681179093556040519116919082907f8be0079c531659141344cd1fd0a4f28419497f9722a3daafe3b4186f6b6457e090600090a35050565b600054610100900460ff1661224a5760405162461bcd60e51b815260040161047b90613230565b610fa46124eb565b6040516001600160a01b03808516602483015283166044820152606481018290526122bd9085906323b872dd60e01b906084015b60408051601f198184030181529190526020810180516001600160e01b03166001600160e01b03199093169290921790915261251b565b50505050565b6001600160a01b0384166123b257600485015460405160009182916001600160a01b0390911690869063c176e63960e01b90612305908890889060240161327b565b60408051601f198184030181529181526020820180516001600160e01b03166001600160e01b03199094169390931790925290516123439190613323565b60006040518083038185875af1925050503d8060008114612380576040519150601f19603f3d011682016040523d82523d6000602084013e612385565b606091505b50915091508181906123aa5760405162461bcd60e51b815260040161047b919061333f565b5050506109f9565b8360005b83518110156124215761240f8482815181106123d4576123d4613065565b60200260200101518483815181106123ee576123ee613065565b6020026020010151846001600160a01b03166125f09092919063ffffffff16565b8061241981612e13565b9150506123b6565b50505050505050565b6001600160a01b0381163b6124975760405162461bcd60e51b815260206004820152602d60248201527f455243313936373a206e657720696d706c656d656e746174696f6e206973206e60448201526c1bdd08184818dbdb9d1c9858dd609a1b606482015260840161047b565b60008051602061337383398151915280546001600160a01b0319166001600160a01b0392909216919091179055565b6124cf83612620565b6000825111806124dc5750805b15612094576122bd8383612660565b600054610100900460ff166125125760405162461bcd60e51b815260040161047b90613230565b610fa4336121d1565b6000612570826040518060400160405280602081526020017f5361666545524332303a206c6f772d6c6576656c2063616c6c206661696c6564815250856001600160a01b031661268e9092919063ffffffff16565b9050805160001480612591575080806020019051810190612591919061307b565b6120945760405162461bcd60e51b815260206004820152602a60248201527f5361666545524332303a204552433230206f7065726174696f6e20646964206e6044820152691bdd081cdd58d8d9595960b21b606482015260840161047b565b6040516001600160a01b03831660248201526044810182905261209490849063a9059cbb60e01b90606401612286565b6126298161242a565b6040516001600160a01b038216907fbc7cd75a20ee27fd9adebab32041f755214dbc6bffa90cc0225b39da2e5c2d3b90600090a250565b60606126858383604051806060016040528060278152602001613393602791396126a5565b90505b92915050565b606061269d848460008561271d565b949350505050565b6060600080856001600160a01b0316856040516126c29190613323565b600060405180830381855af49150503d80600081146126fd576040519150601f19603f3d011682016040523d82523d6000602084013e612702565b606091505b5091509150612713868383876127f8565b9695505050505050565b60608247101561277e5760405162461bcd60e51b815260206004820152602660248201527f416464726573733a20696e73756666696369656e742062616c616e636520666f6044820152651c8818d85b1b60d21b606482015260840161047b565b600080866001600160a01b0316858760405161279a9190613323565b60006040518083038185875af1925050503d80600081146127d7576040519150601f19603f3d011682016040523d82523d6000602084013e6127dc565b606091505b50915091506127ed878383876127f8565b979650505050505050565b60608315612867578251600003612860576001600160a01b0385163b6128605760405162461bcd60e51b815260206004820152601d60248201527f416464726573733a2063616c6c20746f206e6f6e2d636f6e7472616374000000604482015260640161047b565b508161269d565b61269d838381511561287c5781518083602001fd5b8060405162461bcd60e51b815260040161047b919061333f565b8280548282559060005260206000209081019282156128eb579160200282015b828111156128eb57825182546001600160a01b0319166001600160a01b039091161782556020909201916001909101906128b6565b506128f7929150612998565b5090565b82805482825590600052602060002090601f016020900481019282156128eb5791602002820160005b8382111561296257835183826101000a81548160ff021916908360ff1602179055509260200192600101602081600001049283019260010302612924565b801561298f5782816101000a81549060ff0219169055600101602081600001049283019260010302612962565b50506128f79291505b5b808211156128f75760008155600101612999565b6001600160a01b0381168114610e0c57600080fd5b60ff81168114610e0c57600080fd5b600080600080608085870312156129e757600080fd5b84356129f2816129ad565b93506020850135612a02816129ad565b9250604085013591506060850135612a19816129c2565b939692955090935050565b600060208284031215612a3657600080fd5b8135612a41816129ad565b9392505050565b60008083601f840112612a5a57600080fd5b50813567ffffffffffffffff811115612a7257600080fd5b6020830191508360208260051b8501011115612a8d57600080fd5b9250929050565b60008060008060008060008060c0898b031215612ab057600080fd5b8835612abb816129ad565b97506020890135612acb816129ad565b96506040890135955060608901359450608089013567ffffffffffffffff80821115612af657600080fd5b612b028c838d01612a48565b909650945060a08b0135915080821115612b1b57600080fd5b50612b288b828c01612a48565b999c989b5096995094979396929594505050565b634e487b7160e01b600052604160045260246000fd5b604051601f8201601f1916810167ffffffffffffffff81118282101715612b7b57612b7b612b3c565b604052919050565b60008060408385031215612b9657600080fd5b8235612ba1816129ad565b915060208381013567ffffffffffffffff80821115612bbf57600080fd5b818601915086601f830112612bd357600080fd5b813581811115612be557612be5612b3c565b612bf7601f8201601f19168501612b52565b91508082528784828501011115612c0d57600080fd5b80848401858401376000848284010152508093505050509250929050565b600080600080600080600080610100898b031215612c4857600080fd5b8835612c53816129ad565b97506020890135612c63816129ad565b96506040890135612c73816129ad565b95506060890135612c83816129ad565b94506080890135612c93816129ad565b935060a0890135612ca3816129ad565b925060c0890135612cb3816129ad565b915060e0890135612cc3816129ad565b809150509295985092959890939650565b600081518084526020808501945080840160005b83811015612d0757815160ff1687529582019590820190600101612ce8565b509495945050505050565b6000602080835260e0830160018060a01b03808651168386015280838701511660408601526040860151606086015260608601516080860152608086015160c060a0870152828151808552610100880191508583019450600092505b80831015612d9057845184168252938501936001929092019190850190612d6e565b5060a0880151878203601f190160c08901529450612dae8186612cd4565b98975050505050505050565b634e487b7160e01b600052601160045260246000fd5b808202811582820484141761268857612688612dba565b600060208284031215612df957600080fd5b5051919050565b8082018082111561268857612688612dba565b600060018201612e2557612e25612dba565b5060010190565b8181038181111561268857612688612dba565b600060208284031215612e5157600080fd5b8151612a41816129ad565b85815260606020808301829052908201859052600090869060808401835b88811015612ea8578335612e8d816129ad565b6001600160a01b031682529282019290820190600101612e7a565b508481036040860152858152810191508560005b86811015612ee4578135612ecf816129c2565b60ff1684529282019290820190600101612ebc565b50919998505050505050505050565b6020808252602c908201527f46756e6374696f6e206d7573742062652063616c6c6564207468726f7567682060408201526b19195b1959d85d1958d85b1b60a21b606082015260800190565b6020808252602c908201527f46756e6374696f6e206d7573742062652063616c6c6564207468726f7567682060408201526b6163746976652070726f787960a01b606082015260800190565b8051612f96816129ad565b919050565b6000610100808385031215612faf57600080fd5b6040519081019067ffffffffffffffff82118183101715612fd257612fd2612b3c565b8160405283519150612fe3826129ad565b818152612ff260208501612f8b565b602082015261300360408501612f8b565b604082015261301460608501612f8b565b606082015261302560808501612f8b565b608082015261303660a08501612f8b565b60a082015261304760c08501612f8b565b60c082015261305860e08501612f8b565b60e0820152949350505050565b634e487b7160e01b600052603260045260246000fd5b60006020828403121561308d57600080fd5b81518015158114612a4157600080fd5b6000602082840312156130af57600080fd5b8151612a41816129c2565b6000826130d757634e487b7160e01b600052601260045260246000fd5b500490565b600067ffffffffffffffff8211156130f6576130f6612b3c565b5060051b60200190565b600082601f83011261311157600080fd5b81516020613126613121836130dc565b612b52565b82815260059290921b8401810191818101908684111561314557600080fd5b8286015b848110156131605780518352918301918301613149565b509695505050505050565b6000806040838503121561317e57600080fd5b825167ffffffffffffffff8082111561319657600080fd5b818501915085601f8301126131aa57600080fd5b815160206131ba613121836130dc565b82815260059290921b840181019181810190898411156131d957600080fd5b948201945b838610156132005785516131f1816129ad565b825294820194908201906131de565b9188015191965090935050508082111561321957600080fd5b5061322685828601613100565b9150509250929050565b6020808252602b908201527f496e697469616c697a61626c653a20636f6e7472616374206973206e6f74206960408201526a6e697469616c697a696e6760a81b606082015260800190565b604080825283519082018190526000906020906060840190828701845b828110156132bd5781516001600160a01b031684529284019290840190600101613298565b5050508381038285015284518082528583019183019060005b818110156132f2578351835292840192918401916001016132d6565b5090979650505050505050565b60005b8381101561331a578181015183820152602001613302565b50506000910152565b600082516133358184602087016132ff565b9190910192915050565b602081526000825180602084015261335e8160408501602087016132ff565b601f01601f1916919091016040019291505056fe360894a13ba1a3210667c828492db98dca3e2076cc3735a920a3ca505d382bbc416464726573733a206c6f772d6c6576656c2064656c65676174652063616c6c206661696c6564a26469706673582212203c569e53f2f363ec41c142528811fbc2a32d3bc91fae4e3fbe1cfa4cebdb218664736f6c63430008120033",
    "linkReferences": {
      "src/utils/structs/MarketConfig.sol": {
        "MarketConfig": [
          {
            "start": 2555,
            "length": 20
          },
          {
            "start": 3339,
            "length": 20
          },
          {
            "start": 3418,
            "length": 20
          },
          {
            "start": 4127,
            "length": 20
          },
          {
            "start": 4439,
            "length": 20
          },
          {
            "start": 5215,
            "length": 20
          },
          {
            "start": 5294,
            "length": 20
          }
        ]
      }
    }
  },
  "methodIdentifiers": {
    "getDirectSaleConfig(address)": "a01fa6a9",
    "initialize(address,address,address,address,address,address,address,address)": "8a29e2de",
    "mintDirectSale(address,address,uint256,uint8)": "03831374",
    "owner()": "8da5cb5b",
    "prepareMintDirectSale(address,address,uint256,uint256,address[],uint8[])": "21ddb945",
    "proxiableUUID()": "52d1902d",
    "renounceOwnership()": "715018a6",
    "setApprovedTokenRegistry(address)": "e4e87e3b",
    "setMarketplaceSettings(address)": "176ab440",
    "setNetworkBeneficiary(address)": "3492e5a8",
    "setPayments(address)": "af231a58",
    "setRoyaltyEngine(address)": "21ede032",
    "setSpaceOperatorRegistry(address)": "7f358230",
    "transferOwnership(address)": "f2fde38b",
    "upgradeTo(address)": "3659cfe6",
    "upgradeToAndCall(address,bytes)": "4f1ef286"
  },
  "id": 67
}