{
  "abi": [
    {
      "inputs": [],
      "name": "AmountCantBeZero",
      "type": "error"
    },
    {
      "inputs": [],
      "name": "ContractPaused",
      "type": "error"
    },
    {
      "inputs": [
        {
          "internalType": "address",
          "name": "_suppliedCurrency",
          "type": "address"
        },
        {
          "internalType": "address",
          "name": "_configuredCurrency",
          "type": "address"
        }
      ],
      "name": "CurrencyMismatch",
      "type": "error"
    },
    {
      "inputs": [
        {
          "internalType": "uint256",
          "name": "_requiredAmount",
          "type": "uint256"
        },
        {
          "internalType": "uint256",
          "name": "_specifiedAmount",
          "type": "uint256"
        }
      ],
      "name": "IncorrectAmount",
      "type": "error"
    },
    {
      "inputs": [],
      "name": "InvalidTokenRange",
      "type": "error"
    },
    {
      "inputs": [
        {
          "internalType": "address",
          "name": "_originContract",
          "type": "address"
        },
        {
          "internalType": "address",
          "name": "_buyer",
          "type": "address"
        }
      ],
      "name": "NoOfferExistsForBuyer",
      "type": "error"
    },
    {
      "inputs": [
        {
          "internalType": "address",
          "name": "_seller",
          "type": "address"
        },
        {
          "internalType": "address",
          "name": "_originContract",
          "type": "address"
        }
      ],
      "name": "SalePriceDoesntExist",
      "type": "error"
    },
    {
      "inputs": [
        {
          "internalType": "address",
          "name": "_seller",
          "type": "address"
        },
        {
          "internalType": "address",
          "name": "_originContract",
          "type": "address"
        },
        {
          "internalType": "uint256",
          "name": "_tokenId",
          "type": "uint256"
        }
      ],
      "name": "TokenNotPartOfSalePrice",
      "type": "error"
    },
    {
      "anonymous": false,
      "inputs": [
        {
          "indexed": true,
          "internalType": "address",
          "name": "_seller",
          "type": "address"
        },
        {
          "indexed": true,
          "internalType": "address",
          "name": "_buyer",
          "type": "address"
        },
        {
          "indexed": true,
          "internalType": "address",
          "name": "_originContract",
          "type": "address"
        },
        {
          "indexed": false,
          "internalType": "address",
          "name": "_currencyAddress",
          "type": "address"
        },
        {
          "indexed": false,
          "internalType": "uint256",
          "name": "_amount",
          "type": "uint256"
        },
        {
          "indexed": false,
          "internalType": "uint256",
          "name": "_tokenId",
          "type": "uint256"
        }
      ],
      "name": "AcceptCollectionOffer",
      "type": "event"
    },
    {
      "anonymous": false,
      "inputs": [
        {
          "indexed": false,
          "internalType": "address",
          "name": "previousAdmin",
          "type": "address"
        },
        {
          "indexed": false,
          "internalType": "address",
          "name": "newAdmin",
          "type": "address"
        }
      ],
      "name": "AdminChanged",
      "type": "event"
    },
    {
      "anonymous": false,
      "inputs": [
        {
          "indexed": true,
          "internalType": "address",
          "name": "beacon",
          "type": "address"
        }
      ],
      "name": "BeaconUpgraded",
      "type": "event"
    },
    {
      "anonymous": false,
      "inputs": [
        {
          "indexed": true,
          "internalType": "address",
          "name": "_buyer",
          "type": "address"
        },
        {
          "indexed": true,
          "internalType": "address",
          "name": "_originContract",
          "type": "address"
        }
      ],
      "name": "CollectionOfferCancelled",
      "type": "event"
    },
    {
      "anonymous": false,
      "inputs": [
        {
          "indexed": true,
          "internalType": "address",
          "name": "_buyer",
          "type": "address"
        },
        {
          "indexed": true,
          "internalType": "address",
          "name": "_originContract",
          "type": "address"
        },
        {
          "indexed": true,
          "internalType": "address",
          "name": "_currencyAddress",
          "type": "address"
        },
        {
          "indexed": false,
          "internalType": "uint256",
          "name": "_amount",
          "type": "uint256"
        }
      ],
      "name": "CollectionOfferPlaced",
      "type": "event"
    },
    {
      "anonymous": false,
      "inputs": [
        {
          "indexed": true,
          "internalType": "address",
          "name": "_seller",
          "type": "address"
        },
        {
          "indexed": true,
          "internalType": "address",
          "name": "_originContract",
          "type": "address"
        }
      ],
      "name": "CollectionSalePriceCancelled",
      "type": "event"
    },
    {
      "anonymous": false,
      "inputs": [
        {
          "indexed": true,
          "internalType": "address",
          "name": "_seller",
          "type": "address"
        },
        {
          "indexed": true,
          "internalType": "address",
          "name": "_originContract",
          "type": "address"
        },
        {
          "indexed": true,
          "internalType": "address",
          "name": "_currencyAddress",
          "type": "address"
        },
        {
          "indexed": false,
          "internalType": "uint256",
          "name": "_amount",
          "type": "uint256"
        }
      ],
      "name": "CollectionSalePriceSet",
      "type": "event"
    },
    {
      "anonymous": false,
      "inputs": [
        {
          "indexed": false,
          "internalType": "uint8",
          "name": "version",
          "type": "uint8"
        }
      ],
      "name": "Initialized",
      "type": "event"
    },
    {
      "anonymous": false,
      "inputs": [
        {
          "indexed": true,
          "internalType": "address",
          "name": "previousOwner",
          "type": "address"
        },
        {
          "indexed": true,
          "internalType": "address",
          "name": "newOwner",
          "type": "address"
        }
      ],
      "name": "OwnershipTransferred",
      "type": "event"
    },
    {
      "anonymous": false,
      "inputs": [
        {
          "indexed": true,
          "internalType": "address",
          "name": "_seller",
          "type": "address"
        },
        {
          "indexed": true,
          "internalType": "address",
          "name": "_buyer",
          "type": "address"
        },
        {
          "indexed": true,
          "internalType": "address",
          "name": "_originContract",
          "type": "address"
        },
        {
          "indexed": false,
          "internalType": "address",
          "name": "_currencyAddress",
          "type": "address"
        },
        {
          "indexed": false,
          "internalType": "uint256",
          "name": "_amount",
          "type": "uint256"
        },
        {
          "indexed": false,
          "internalType": "uint256",
          "name": "_tokenId",
          "type": "uint256"
        }
      ],
      "name": "Sold",
      "type": "event"
    },
    {
      "anonymous": false,
      "inputs": [
        {
          "indexed": true,
          "internalType": "address",
          "name": "implementation",
          "type": "address"
        }
      ],
      "name": "Upgraded",
      "type": "event"
    },
    {
      "inputs": [
        {
          "internalType": "address",
          "name": "_buyer",
          "type": "address"
        },
        {
          "internalType": "address",
          "name": "_originContract",
          "type": "address"
        },
        {
          "internalType": "uint256",
          "name": "_tokenId",
          "type": "uint256"
        },
        {
          "internalType": "address",
          "name": "_currencyAddress",
          "type": "address"
        },
        {
          "internalType": "uint256",
          "name": "_amount",
          "type": "uint256"
        },
        {
          "internalType": "address payable[]",
          "name": "_splitAddrs",
          "type": "address[]"
        },
        {
          "internalType": "uint8[]",
          "name": "_splitRatios",
          "type": "uint8[]"
        }
      ],
      "name": "acceptCollectionOffer",
      "outputs": [],
      "stateMutability": "nonpayable",
      "type": "function"
    },
    {
      "inputs": [
        {
          "internalType": "address",
          "name": "_originContract",
          "type": "address"
        },
        {
          "internalType": "uint256",
          "name": "_tokenId",
          "type": "uint256"
        },
        {
          "internalType": "address",
          "name": "_currencyAddress",
          "type": "address"
        },
        {
          "internalType": "uint256",
          "name": "_amount",
          "type": "uint256"
        }
      ],
      "name": "buyFromCollection",
      "outputs": [],
      "stateMutability": "payable",
      "type": "function"
    },
    {
      "inputs": [
        {
          "internalType": "address",
          "name": "_originContract",
          "type": "address"
        }
      ],
      "name": "cancelCollectionOffer",
      "outputs": [],
      "stateMutability": "nonpayable",
      "type": "function"
    },
    {
      "inputs": [
        {
          "internalType": "address",
          "name": "_originContract",
          "type": "address"
        }
      ],
      "name": "cancelCollectionSalePrice",
      "outputs": [],
      "stateMutability": "nonpayable",
      "type": "function"
    },
    {
      "inputs": [
        {
          "internalType": "address",
          "name": "_originContract",
          "type": "address"
        },
        {
          "internalType": "address",
          "name": "_buyer",
          "type": "address"
        }
      ],
      "name": "getCollectionOffer",
      "outputs": [
        {
          "components": [
            {
              "internalType": "address",
              "name": "currencyAddress",
              "type": "address"
            },
            {
              "internalType": "uint256",
              "name": "amount",
              "type": "uint256"
            },
            {
              "internalType": "uint256",
              "name": "marketplaceFee",
              "type": "uint256"
            }
          ],
          "internalType": "struct IRareCollectionMarket.CollectionOffer",
          "name": "",
          "type": "tuple"
        }
      ],
      "stateMutability": "view",
      "type": "function"
    },
    {
      "inputs": [
        {
          "internalType": "address",
          "name": "_originContract",
          "type": "address"
        },
        {
          "internalType": "address",
          "name": "_seller",
          "type": "address"
        }
      ],
      "name": "getCollectionSalePrice",
      "outputs": [
        {
          "components": [
            {
              "internalType": "address",
              "name": "currencyAddress",
              "type": "address"
            },
            {
              "internalType": "uint256",
              "name": "amount",
              "type": "uint256"
            },
            {
              "internalType": "address payable[]",
              "name": "splitRecipients",
              "type": "address[]"
            },
            {
              "internalType": "uint8[]",
              "name": "splitRatios",
              "type": "uint8[]"
            }
          ],
          "internalType": "struct IRareCollectionMarket.CollectionSalePrice",
          "name": "",
          "type": "tuple"
        }
      ],
      "stateMutability": "view",
      "type": "function"
    },
    {
      "inputs": [],
      "name": "getMarketConfig",
      "outputs": [
        {
          "components": [
            {
              "internalType": "address",
              "name": "networkBeneficiary",
              "type": "address"
            },
            {
              "internalType": "contract IMarketplaceSettings",
              "name": "marketplaceSettings",
              "type": "address"
            },
            {
              "internalType": "contract ISpaceOperatorRegistry",
              "name": "spaceOperatorRegistry",
              "type": "address"
            },
            {
              "internalType": "contract IRoyaltyEngineV1",
              "name": "royaltyEngine",
              "type": "address"
            },
            {
              "internalType": "contract IPayments",
              "name": "payments",
              "type": "address"
            },
            {
              "internalType": "contract IApprovedTokenRegistry",
              "name": "approvedTokenRegistry",
              "type": "address"
            },
            {
              "internalType": "contract IStakingSettings",
              "name": "stakingSettings",
              "type": "address"
            },
            {
              "internalType": "contract IRareStakingRegistry",
              "name": "stakingRegistry",
              "type": "address"
            }
          ],
          "internalType": "struct MarketConfig.Config",
          "name": "",
          "type": "tuple"
        }
      ],
      "stateMutability": "view",
      "type": "function"
    },
    {
      "inputs": [
        {
          "internalType": "address",
          "name": "_networkBeneficiary",
          "type": "address"
        },
        {
          "internalType": "address",
          "name": "_marketplaceSettings",
          "type": "address"
        },
        {
          "internalType": "address",
          "name": "_spaceOperatorRegistry",
          "type": "address"
        },
        {
          "internalType": "address",
          "name": "_royaltyEngine",
          "type": "address"
        },
        {
          "internalType": "address",
          "name": "_payments",
          "type": "address"
        },
        {
          "internalType": "address",
          "name": "_approvedTokenRegistry",
          "type": "address"
        },
        {
          "internalType": "address",
          "name": "_stakingSettings",
          "type": "address"
        },
        {
          "internalType": "address",
          "name": "_stakingRegistry",
          "type": "address"
        }
      ],
      "name": "initialize",
      "outputs": [],
      "stateMutability": "nonpayable",
      "type": "function"
    },
    {
      "inputs": [],
      "name": "isPaused",
      "outputs": [
        {
          "internalType": "bool",
          "name": "",
          "type": "bool"
        }
      ],
      "stateMutability": "view",
      "type": "function"
    },
    {
      "inputs": [
        {
          "internalType": "address",
          "name": "_originContract",
          "type": "address"
        },
        {
          "internalType": "address",
          "name": "_currencyAddress",
          "type": "address"
        },
        {
          "internalType": "uint256",
          "name": "_amount",
          "type": "uint256"
        }
      ],
      "name": "makeCollectionOffer",
      "outputs": [],
      "stateMutability": "payable",
      "type": "function"
    },
    {
      "inputs": [],
      "name": "owner",
      "outputs": [
        {
          "internalType": "address",
          "name": "",
          "type": "address"
        }
      ],
      "stateMutability": "view",
      "type": "function"
    },
    {
      "inputs": [],
      "name": "proxiableUUID",
      "outputs": [
        {
          "internalType": "bytes32",
          "name": "",
          "type": "bytes32"
        }
      ],
      "stateMutability": "view",
      "type": "function"
    },
    {
      "inputs": [],
      "name": "renounceOwnership",
      "outputs": [],
      "stateMutability": "nonpayable",
      "type": "function"
    },
    {
      "inputs": [
        {
          "internalType": "address",
          "name": "_approvedTokenRegistry",
          "type": "address"
        }
      ],
      "name": "setApprovedTokenRegistry",
      "outputs": [],
      "stateMutability": "nonpayable",
      "type": "function"
    },
    {
      "inputs": [
        {
          "internalType": "address",
          "name": "_originContract",
          "type": "address"
        },
        {
          "internalType": "address",
          "name": "_currencyAddress",
          "type": "address"
        },
        {
          "internalType": "uint256",
          "name": "_amount",
          "type": "uint256"
        },
        {
          "internalType": "address payable[]",
          "name": "_splitAddrs",
          "type": "address[]"
        },
        {
          "internalType": "uint8[]",
          "name": "_splitRatios",
          "type": "uint8[]"
        }
      ],
      "name": "setCollectionSalePrice",
      "outputs": [],
      "stateMutability": "nonpayable",
      "type": "function"
    },
    {
      "inputs": [
        {
          "internalType": "bool",
          "name": "_isPaused",
          "type": "bool"
        }
      ],
      "name": "setContractPaused",
      "outputs": [],
      "stateMutability": "nonpayable",
      "type": "function"
    },
    {
      "inputs": [
        {
          "internalType": "address",
          "name": "_marketplaceSettings",
          "type": "address"
        }
      ],
      "name": "setMarketplaceSettings",
      "outputs": [],
      "stateMutability": "nonpayable",
      "type": "function"
    },
    {
      "inputs": [
        {
          "internalType": "address",
          "name": "_networkBeneficiary",
          "type": "address"
        }
      ],
      "name": "setNetworkBeneficiary",
      "outputs": [],
      "stateMutability": "nonpayable",
      "type": "function"
    },
    {
      "inputs": [
        {
          "internalType": "address",
          "name": "_payments",
          "type": "address"
        }
      ],
      "name": "setPayments",
      "outputs": [],
      "stateMutability": "nonpayable",
      "type": "function"
    },
    {
      "inputs": [
        {
          "internalType": "address",
          "name": "_royaltyEngine",
          "type": "address"
        }
      ],
      "name": "setRoyaltyEngine",
      "outputs": [],
      "stateMutability": "nonpayable",
      "type": "function"
    },
    {
      "inputs": [
        {
          "internalType": "address",
          "name": "_spaceOperatorRegistry",
          "type": "address"
        }
      ],
      "name": "setSpaceOperatorRegistry",
      "outputs": [],
      "stateMutability": "nonpayable",
      "type": "function"
    },
    {
      "inputs": [
        {
          "internalType": "address",
          "name": "newOwner",
          "type": "address"
        }
      ],
      "name": "transferOwnership",
      "outputs": [],
      "stateMutability": "nonpayable",
      "type": "function"
    },
    {
      "inputs": [
        {
          "internalType": "address",
          "name": "newImplementation",
          "type": "address"
        }
      ],
      "name": "upgradeTo",
      "outputs": [],
      "stateMutability": "nonpayable",
      "type": "function"
    },
    {
      "inputs": [
        {
          "internalType": "address",
          "name": "newImplementation",
          "type": "address"
        },
        {
          "internalType": "bytes",
          "name": "data",
          "type": "bytes"
        }
      ],
      "name": "upgradeToAndCall",
      "outputs": [],
      "stateMutability": "payable",
      "type": "function"
    }
  ],
  "bytecode": {
    "object": "0x60a06040523060805234801561001457600080fd5b5060805161453861004c60003960008181610b9d01528181610be601528181610d0401528181610d440152610dd701526145386000f3fe60806040526004361061014b5760003560e01c80637f358230116100b6578063af231a581161006f578063af231a58146104ba578063b187bd26146104da578063d9ed2096146104fe578063e4e87e3b1461051e578063e5fc48ee1461053e578063f2fde38b1461055e57600080fd5b80637f358230146103f257806385b1eb2714610412578063882796f1146104325780638a29e2de146104525780638da5cb5b146104725780639214be521461049a57600080fd5b8063381eff7c11610108578063381eff7c1461021b5780634f1ef2861461026657806352d1902d14610279578063614bd9441461029c5780636d374d81146103ca578063715018a6146103dd57600080fd5b8063176ab4401461015057806321ede0321461017257806322f193d01461019257806325bc1330146101a55780633492e5a8146101db5780633659cfe6146101fb575b600080fd5b34801561015c57600080fd5b5061017061016b366004613a58565b61057e565b005b34801561017e57600080fd5b5061017061018d366004613a58565b6105fc565b6101706101a0366004613a75565b61064b565b3480156101b157600080fd5b506101c56101c0366004613ab6565b6109f6565b6040516101d29190613b2d565b60405180910390f35b3480156101e757600080fd5b506101706101f6366004613a58565b610b44565b34801561020757600080fd5b50610170610216366004613a58565b610b93565b34801561022757600080fd5b5061023b610236366004613ab6565b610c7b565b6040805182516001600160a01b031681526020808401519082015291810151908201526060016101d2565b610170610274366004613c07565b610cfa565b34801561028557600080fd5b5061028e610dca565b6040519081526020016101d2565b3480156102a857600080fd5b506103566040805161010081018252600080825260208201819052918101829052606081018290526080810182905260a0810182905260c0810182905260e08101919091525060408051610100808201835260fb546001600160a01b03908116835260fc548116602084015260fd5481169383019390935260fe548316606083015260ff548316608083015254821660a082015261010154821660c08201526101025490911660e082015290565b6040516101d2919081516001600160a01b03908116825260208084015182169083015260408084015182169083015260608084015182169083015260808084015182169083015260a08084015182169083015260c08084015182169083015260e09283015116918101919091526101000190565b6101706103d8366004613caf565b610e7d565b3480156103e957600080fd5b506101706112d8565b3480156103fe57600080fd5b5061017061040d366004613a58565b6112ec565b34801561041e57600080fd5b5061017061042d366004613a58565b61133b565b34801561043e57600080fd5b5061017061044d366004613d05565b611515565b34801561045e57600080fd5b5061017061046d366004613d22565b611531565b34801561047e57600080fd5b506033546040516001600160a01b0390911681526020016101d2565b3480156104a657600080fd5b506101706104b5366004613a58565b6117ae565b3480156104c657600080fd5b506101706104d5366004613a58565b6118cc565b3480156104e657600080fd5b506101055460ff1660405190151581526020016101d2565b34801561050a57600080fd5b50610170610519366004613e17565b61191b565b34801561052a57600080fd5b50610170610539366004613a58565b611ad9565b34801561054a57600080fd5b50610170610559366004613eb6565b611b28565b34801561056a57600080fd5b50610170610579366004613a58565b611e5e565b610586611ed4565b604051632c55921b60e01b815260fb60048201526001600160a01b038216602482015273__$7682c538d2a75d26dfca907f0e750789f4$__90632c55921b906044015b60006040518083038186803b1580156105e157600080fd5b505af41580156105f5573d6000803e3d6000fd5b5050505050565b610604611ed4565b60405163ebda042b60e01b815260fb60048201526001600160a01b038216602482015273__$7682c538d2a75d26dfca907f0e750789f4$__9063ebda042b906044016105c9565b610653611f2e565b6101055460ff16156106785760405163ab35696f60e01b815260040160405180910390fd5b61068360fb83611f87565b806000036106a4576040516346f1397d60e01b815260040160405180910390fd5b60fc546040516361fe24a960e11b8152600481018390526000916001600160a01b03169063c3fc495290602401602060405180830381865afa1580156106ee573d6000803e3d6000fd5b505050506040513d601f19601f820116820180604052508101906107129190613f73565b61071c9083613fa2565b336000908152610103602090815260408083206001600160a01b038981168552908352928190208151606081018352815490941684526001810154928401839052600201549083015291925090156108ab57806040015160fb60010160009054906101000a90046001600160a01b03166001600160a01b031663834759216040518163ffffffff1660e01b8152600401602060405180830381865afa1580156107c9573d6000803e3d6000fd5b505050506040513d601f19601f820116820180604052508101906107ed9190613fc4565b60ff161480156108125750836001600160a01b031681600001516001600160a01b0316145b1561089057828160200151111561085057610847848483602001516108379190613fe1565b604084015160fb9291903361204c565b600091506108ab565b6064816040015182602001516108669190613ff4565b610870919061400b565b816020015161087f9190613fa2565b6108899083613fe1565b91506108ab565b8051602082015160408301516108ab9260fb9290913361204c565b6108b58483612173565b6108bf848361225e565b6040518060600160405280856001600160a01b0316815260200184815260200160fb60010160009054906101000a90046001600160a01b03166001600160a01b031663834759216040518163ffffffff1660e01b8152600401602060405180830381865afa158015610935573d6000803e3d6000fd5b505050506040513d601f19601f820116820180604052508101906109599190613fc4565b60ff169052336000818152610103602090815260408083206001600160a01b038b811680865291845293829020865181546001600160a01b03191690861617815586840151600182015595820151600290960195909555518781529188169392917fa47b480b3eb82e8148b782528faf6afad69b7f3da51fc0160764a4f78723c90a910160405180910390a450506109f16001606555565b505050565b610a2a604051806080016040528060006001600160a01b031681526020016000815260200160608152602001606081525090565b6001600160a01b03808316600090815261010460209081526040808320878516845282529182902082516080810184528154909416845260018101548483015260028101805484518185028101850186528181529294860193830182828015610abc57602002820191906000526020600020905b81546001600160a01b03168152600190910190602001808311610a9e575b5050505050815260200160038201805480602002602001604051908101604052809291908181526020018280548015610b3257602002820191906000526020600020906000905b825461010083900a900460ff16815260206001928301818104948501949093039092029101808411610b035790505b50505050508152505090505b92915050565b610b4c611ed4565b60405163dec30e3360e01b815260fb60048201526001600160a01b038216602482015273__$7682c538d2a75d26dfca907f0e750789f4$__9063dec30e33906044016105c9565b6001600160a01b037f0000000000000000000000000000000000000000000000000000000000000000163003610be45760405162461bcd60e51b8152600401610bdb9061402d565b60405180910390fd5b7f00000000000000000000000000000000000000000000000000000000000000006001600160a01b0316610c2d6000805160206144bc833981519152546001600160a01b031690565b6001600160a01b031614610c535760405162461bcd60e51b8152600401610bdb90614079565b610c5c81612459565b60408051600080825260208201909252610c7891839190612461565b50565b610ca8604051806060016040528060006001600160a01b0316815260200160008152602001600081525090565b506001600160a01b038082166000908152610103602090815260408083208685168452825291829020825160608101845281549094168452600181015491840191909152600201549082015292915050565b6001600160a01b037f0000000000000000000000000000000000000000000000000000000000000000163003610d425760405162461bcd60e51b8152600401610bdb9061402d565b7f00000000000000000000000000000000000000000000000000000000000000006001600160a01b0316610d8b6000805160206144bc833981519152546001600160a01b031690565b6001600160a01b031614610db15760405162461bcd60e51b8152600401610bdb90614079565b610dba82612459565b610dc682826001612461565b5050565b6000306001600160a01b037f00000000000000000000000000000000000000000000000000000000000000001614610e6a5760405162461bcd60e51b815260206004820152603860248201527f555550535570677261646561626c653a206d757374206e6f742062652063616c60448201527f6c6564207468726f7567682064656c656761746563616c6c00000000000000006064820152608401610bdb565b506000805160206144bc83398151915290565b610e85611f2e565b6101055460ff1615610eaa5760405163ab35696f60e01b815260040160405180910390fd5b6040516331a9108f60e11b81526004810184905284906000906001600160a01b03831690636352211e90602401602060405180830381865afa158015610ef4573d6000803e3d6000fd5b505050506040513d601f19601f82011682018060405250810190610f1891906140c5565b9050610f2481876125cc565b60fc546040516361fe24a960e11b8152600481018590526000916001600160a01b03169063c3fc495290602401602060405180830381865afa158015610f6e573d6000803e3d6000fd5b505050506040513d601f19601f82011682018060405250810190610f929190613f73565b610f9c9085613fa2565b6001600160a01b038084166000908152610104602090815260408083208c851684528252808320815160808101835281549095168552600181015485840152600281018054835181860281018601855281815297985094969194928601939192909183018282801561103757602002820191906000526020600020905b81546001600160a01b03168152600190910190602001808311611019575b50505050508152602001600382018054806020026020016040519081016040528092919081815260200182805480156110ad57602002820191906000526020600020906000905b825461010083900a900460ff1681526020600192830181810494850194909303909202910180841161107e5790505b505050505081525050905080602001516000036110f057604051630e587c8f60e41b81526001600160a01b03808516600483015289166024820152604401610bdb565b856001600160a01b031681600001516001600160a01b03161461113c578051604051632e834cbf60e11b81526001600160a01b0380891660048301529091166024820152604401610bdb565b80602001518514611170576020810151604051630f81919b60e21b8152600481019190915260248101869052604401610bdb565b61117a868361225e565b604051632142170760e11b81526001600160a01b038481166004830152336024830152604482018990528516906342842e0e90606401600060405180830381600087803b1580156111ca57600080fd5b505af11580156111de573d6000803e3d6000fd5b50505060408201516060830151611202925060fb918b918b918b918b918a91612695565b60fc54604051635a3c652d60e01b81526001600160a01b038a81166004830152602482018a90526001604483015290911690635a3c652d90606401600060405180830381600087803b15801561125757600080fd5b505af115801561126b573d6000803e3d6000fd5b5050604080516001600160a01b038a81168252602082018a90529181018b9052818c169350339250908616907f6f9e7bc841408072f4a49e469f90e1a634b85251803662bc8e5c220b287824729060600160405180910390a4505050506112d26001606555565b50505050565b6112e0611ed4565b6112ea6000612f9f565b565b6112f4611ed4565b604051630cf1420760e21b815260fb60048201526001600160a01b038216602482015273__$7682c538d2a75d26dfca907f0e750789f4$__906333c5081c906044016105c9565b6101055460ff16156113605760405163ab35696f60e01b815260040160405180910390fd5b336000908152610104602090815260408083206001600160a01b038581168552908352818420825160808101845281549092168252600181015482850152600281018054845181870281018701865281815293959294860193928301828280156113f357602002820191906000526020600020905b81546001600160a01b031681526001909101906020018083116113d5575b505050505081526020016003820180548060200260200160405190810160405280929190818152602001828054801561146957602002820191906000526020600020906000905b825461010083900a900460ff1681526020600192830181810494850194909303909202910180841161143a5790505b50505050508152505090508060200151600003611484575050565b336000908152610104602090815260408083206001600160a01b0386168452909152812080546001600160a01b031916815560018101829055906114cb60028301826138e9565b6114d9600383016000613907565b50506040516001600160a01b0383169033907f2ee913c883151f0ab8f63c8bed5b91afe9c0ef1a2074398ff1c07c35c04cb55e90600090a35050565b61151d611ed4565b610105805460ff1916911515919091179055565b600054610100900460ff16158080156115515750600054600160ff909116105b8061156b5750303b15801561156b575060005460ff166001145b6115ce5760405162461bcd60e51b815260206004820152602e60248201527f496e697469616c697a61626c653a20636f6e747261637420697320616c72656160448201526d191e481a5b9a5d1a585b1a5e995960921b6064820152608401610bdb565b6000805460ff1916600117905580156115f1576000805461ff0019166101001790555b6040516323e95fa960e01b81526001600160a01b03808b166004830152808a16602483015280891660448301528088166064830152808716608483015280861660a483015280851660c4830152831660e482015273__$7682c538d2a75d26dfca907f0e750789f4$__906323e95fa9906101040161010060405180830381865af4158015611683573d6000803e3d6000fd5b505050506040513d601f19601f820116820180604052508101906116a791906140f2565b805160fb80546001600160a01b03199081166001600160a01b0393841617909155602083015160fc80548316918416919091179055604083015160fd80548316918416919091179055606083015160fe80548316918416919091179055608083015160ff8054831691841691909117905560a08301516101008054831691841691909117905560c08301516101018054831691841691909117905560e0909201516101028054909316911617905561175d612ff1565b80156117a3576000805461ff0019169055604051600181527f7f26b83ff96e1f2b6a682f133852f6798a09c465da95921460cefb38474024989060200160405180910390a15b505050505050505050565b6117b6611f2e565b6101055460ff16156117db5760405163ab35696f60e01b815260040160405180910390fd5b336000908152610103602090815260408083206001600160a01b03858116855290835281842082516060810184528154909216825260018101549382018490526002015491810191909152910361183257506118c2565b336000818152610103602090815260408083206001600160a01b0387168452825280832080546001600160a01b031916815560018101849055600201929092558351908401519184015161188a9360fb93919061204c565b6040516001600160a01b0383169033907f7d0e940828cac20ee2f9b4bc116a5b9303f4de2f3e08c0731becff862d0aa1b090600090a3505b610c786001606555565b6118d4611ed4565b60405163c70c56c760e01b815260fb60048201526001600160a01b038216602482015273__$7682c538d2a75d26dfca907f0e750789f4$__9063c70c56c7906044016105c9565b6101055460ff16156119405760405163ab35696f60e01b815260040160405180910390fd5b61194b60fb87611f87565b61195533886125cc565b61196184848484613020565b84600003611982576040516346f1397d60e01b815260040160405180910390fd5b6040518060800160405280876001600160a01b0316815260200186815260200185858080602002602001604051908101604052809392919081815260200183836020028082843760009201919091525050509082525060408051602085810282810182019093528582529283019290918691869182918501908490808284376000920182905250939094525050338152610104602090815260408083206001600160a01b038d8116855290835292819020855181546001600160a01b03191694169390931783558482015160018401558401518051929350611a6d926002850192919091019061392c565b5060608201518051611a89916003840191602090910190613991565b50506040518681526001600160a01b03808916925089169033907f4c172f9d7dfc4fbab9c54966d9334e977ce1ae637bbc08489b2762715ae1f6a09060200160405180910390a450505050505050565b611ae1611ed4565b6040516386e5800760e01b815260fb60048201526001600160a01b038216602482015273__$7682c538d2a75d26dfca907f0e750789f4$__906386e58007906044016105c9565b611b30611f2e565b6101055460ff1615611b555760405163ab35696f60e01b815260040160405180910390fd5b611b5f88886131f3565b611b6933896125cc565b611b7584848484613020565b6001600160a01b03808a166000908152610103602090815260408083208c851684528252808320815160608101835281549095168552600181015492850183905260020154908401529003611bf057604051633ef5628160e01b81526001600160a01b03808b1660048301528b166024820152604401610bdb565b80602001518614611c24576020810151604051630f81919b60e21b8152600481019190915260248101879052604401610bdb565b866001600160a01b031681600001516001600160a01b031614611c70578051604051632e834cbf60e11b81526001600160a01b03808a1660048301529091166024820152604401610bdb565b6001600160a01b038a8116600081815261010360209081526040808320948e168084529490915280822080546001600160a01b0319168155600181018390556002019190915551632142170760e11b81523360048201526024810191909152604481018a90528a91906342842e0e90606401600060405180830381600087803b158015611cfc57600080fd5b505af1158015611d10573d6000803e3d6000fd5b50505050611d908a8a8a8a338b8b8080602002602001604051908101604052809392919081815260200183836020028082843760009201919091525050604080516020808f0282810182019093528e82529093508e92508d91829185019084908082843760009201919091525060fb999897969594939250506126959050565b60fc54604051635a3c652d60e01b81526001600160a01b038c81166004830152602482018c90526001604483015290911690635a3c652d90606401600060405180830381600087803b158015611de557600080fd5b505af1158015611df9573d6000803e3d6000fd5b5050604080516001600160a01b038c81168252602082018c90529181018d9052818e169350908e16915033907fd746eda767465ff5307bdf346d8f0e530205a4dc2c0b8e7241a9fefc7e6dec7b9060600160405180910390a450506117a36001606555565b611e66611ed4565b6001600160a01b038116611ecb5760405162461bcd60e51b815260206004820152602660248201527f4f776e61626c653a206e6577206f776e657220697320746865207a65726f206160448201526564647265737360d01b6064820152608401610bdb565b610c7881612f9f565b6033546001600160a01b031633146112ea5760405162461bcd60e51b815260206004820181905260248201527f4f776e61626c653a2063616c6c6572206973206e6f7420746865206f776e65726044820152606401610bdb565b600260655403611f805760405162461bcd60e51b815260206004820152601f60248201527f5265656e7472616e637947756172643a207265656e7472616e742063616c6c006044820152606401610bdb565b6002606555565b6001600160a01b038116158061200857506005820154604051632d5ad3d560e01b81526001600160a01b03838116600483015290911690632d5ad3d590602401602060405180830381865afa158015611fe4573d6000803e3d6000fd5b505050506040513d601f19601f8201168201806040525081019061200891906141bc565b610dc65760405162461bcd60e51b81526020600482015260156024820152744e6f7420617070726f7665642063757272656e637960581b6044820152606401610bdb565b82156105f557600060646120608486613ff4565b61206a919061400b565b6120749085613fa2565b90506001600160a01b0385166121555760048601546040516001600160a01b038481166024830152604482018490526000928392911690849060640160408051601f198184030181529181526020820180516001600160e01b031663410085df60e01b179052516120e591906141fd565b60006040518083038185875af1925050503d8060008114612122576040519150601f19603f3d011682016040523d82523d6000602084013e612127565b606091505b509150915081819061214c5760405162461bcd60e51b8152600401610bdb9190614219565b505050506105f5565b8461216a6001600160a01b03821684846132b6565b50505050505050565b6001600160a01b038216612185575050565b604051636eb1769f60e11b8152336004820152306024820152829082906001600160a01b0383169063dd62ed3e90604401602060405180830381865afa1580156121d3573d6000803e3d6000fd5b505050506040513d601f19601f820116820180604052508101906121f79190613f73565b10156109f15760405162461bcd60e51b815260206004820152603060248201527f73656e646572206e6565647320746f20617070726f7665206d61726b6574706c60448201526f61636520666f722063757272656e637960801b6064820152608401610bdb565b6001600160a01b0382166122b157803414610dc65760405162461bcd60e51b81526020600482015260136024820152721b9bdd08195b9bdd59da08195d1a081cd95b9d606a1b6044820152606401610bdb565b34156123105760405162461bcd60e51b815260206004820152602860248201527f6d73672e76616c75652073686f756c642062652030207768656e206e6f7420756044820152670e6d2dcce40cae8d60c31b6064820152608401610bdb565b6040516370a0823160e01b815230600482015282906000906001600160a01b038316906370a0823190602401602060405180830381865afa158015612359573d6000803e3d6000fd5b505050506040513d601f19601f8201168201806040525081019061237d9190613f73565b90506123946001600160a01b038316333086613319565b6040516370a0823160e01b81523060048201526000906001600160a01b038416906370a0823190602401602060405180830381865afa1580156123db573d6000803e3d6000fd5b505050506040513d601f19601f820116820180604052508101906123ff9190613f73565b90508361240c8383613fe1565b146105f55760405162461bcd60e51b815260206004820152601c60248201527f6e6f7420656e6f75676820746f6b656e73207472616e736665726564000000006044820152606401610bdb565b610c78611ed4565b7f4910fdfa16fed3260ed0e7147f7cc6da11a60208b5b9406d12a635614ffd91435460ff1615612494576109f183613351565b826001600160a01b03166352d1902d6040518163ffffffff1660e01b8152600401602060405180830381865afa9250505080156124ee575060408051601f3d908101601f191682019092526124eb91810190613f73565b60015b6125515760405162461bcd60e51b815260206004820152602e60248201527f45524331393637557067726164653a206e657720696d706c656d656e7461746960448201526d6f6e206973206e6f74205555505360901b6064820152608401610bdb565b6000805160206144bc83398151915281146125c05760405162461bcd60e51b815260206004820152602960248201527f45524331393637557067726164653a20756e737570706f727465642070726f786044820152681a58589b195555525160ba1b6064820152608401610bdb565b506109f18383836133ed565b60405163e985e9c560e01b81526001600160a01b03838116600483015230602483015282919082169063e985e9c590604401602060405180830381865afa15801561261b573d6000803e3d6000fd5b505050506040513d601f19601f8201168201806040525081019061263f91906141bc565b6109f15760405162461bcd60e51b815260206004820152602160248201527f6f776e6572206d757374206861766520617070726f76656420636f6e747261636044820152601d60fa1b6064820152608401610bdb565b80518251146127025760405162461bcd60e51b815260206004820152603360248201527f4e756d626572206f662073706c69742061646472657373657320616e642072616044820152723a34b7b99036bab9ba1031329032b8bab0b61760691b6064820152608401610bdb565b60018801546040516361fe24a960e11b81526004810186905285916000916001600160a01b039091169063c3fc495290602401602060405180830381865afa158015612752573d6000803e3d6000fd5b505050506040513d601f19601f820116820180604052508101906127769190613f73565b604080516002808252606082018352929350600092909160208301908036833750508c5482519293506001600160a01b0316918391506000906127bb576127bb61424c565b6001600160a01b03928316602091820292909201015260078c015460405163e286ef3360e01b8152888316600482015291169063e286ef3390602401602060405180830381865afa158015612814573d6000803e3d6000fd5b505050506040513d601f19601f8201168201806040525081019061283891906140c5565b8160018151811061284b5761284b61424c565b60200260200101906001600160a01b031690816001600160a01b03168152505060006001600160a01b0316816001815181106128895761288961424c565b60200260200101516001600160a01b0316146128bf57806001815181106128b2576128b261424c565b60200260200101516128cb565b8a546001600160a01b03165b816001815181106128de576128de61424c565b6001600160a01b039290921660209283029190910182015260408051600280825260608201835260009391929091830190803683370190505060068d01546040516303fdde1160e21b8152600481018b90529192506001600160a01b031690630ff7784490602401602060405180830381865afa158015612963573d6000803e3d6000fd5b505050506040513d601f19601f820116820180604052508101906129879190613f73565b8160008151811061299a5761299a61424c565b602090810291909101015260068c015460405163470d6ed960e11b8152600481018a90526001600160a01b0390911690638e1addb290602401602060405180830381865afa1580156129f0573d6000803e3d6000fd5b505050506040513d601f19601f82011682018060405250810190612a149190613f73565b81600181518110612a2757612a2761424c565b602002602001018181525050612a408c8a858585613412565b60018c0154604051631446f21360e21b81526001600160a01b038d81166004830152602482018d90529091169063511bc84c90604401602060405180830381865afa158015612a93573d6000803e3d6000fd5b505050506040513d601f19601f82011682018060405250810190612ab791906141bc565b612d985760408051600180825281830190925260009160208083019080368337505060408051600180825281830190925292935060009291506020808301908036833701905050905083600081518110612b1357612b1361424c565b602002602001015181600081518110612b2e57612b2e61424c565b6001600160a01b03928316602091820292909201015260028f0154604051635dc22eff60e01b81528b83166004820152911690635dc22eff90602401602060405180830381865afa158015612b87573d6000803e3d6000fd5b505050506040513d601f19601f82011682018060405250810190612bab91906141bc565b15612caa5760028e0154604051632260494f60e01b81526001600160a01b038b811660048301526000921690632260494f90602401602060405180830381865afa158015612bfd573d6000803e3d6000fd5b505050506040513d601f19601f82011682018060405250810190612c219190613fc4565b60ff1690506064612c32828d613ff4565b612c3c919061400b565b612c469088613fe1565b96506064612c54828d613ff4565b612c5e919061400b565b83600081518110612c7157612c7161424c565b602002602001018181525050612ca48f8d85600081518110612c9557612c9561424c565b60200260200101518587613412565b50612d91565b60018e015460405163b28a7bad60e01b81526001600160a01b038f81166004830152600092169063b28a7bad90602401602060405180830381865afa158015612cf7573d6000803e3d6000fd5b505050506040513d601f19601f82011682018060405250810190612d1b9190613fc4565b60ff1690506064612d2c828d613ff4565b612d36919061400b565b612d409088613fe1565b96506064612d4e828d613ff4565b612d58919061400b565b83600081518110612d6b57612d6b61424c565b602002602001018181525050612d8f8f8d85600081518110612c9557612c9561424c565b505b5050612e88565b60038c0154604051637a99dc0160e11b81526001600160a01b038d81166004830152602482018d9052604482018b9052600092839291169063f533b802906064016000604051808303816000875af1158015612df8573d6000803e3d6000fd5b505050506040513d6000823e601f3d908101601f19168201604052612e2091908101906142f1565b915091506000805b8251811015612e6a57828181518110612e4357612e4361424c565b602002602001015182612e569190613fa2565b915080612e62816143b6565b915050612e28565b50612e758188613fe1565b9650612e848f8d838686613412565b5050505b6000865167ffffffffffffffff811115612ea457612ea4613bc0565b604051908082528060200260200182016040528015612ecd578160200160208202803683370190505b5090506000805b8851811015612f81576064888281518110612ef157612ef161424c565b602002602001015160ff1688612f079190613ff4565b612f11919061400b565b838281518110612f2357612f2361424c565b6020026020010181815250506064888281518110612f4357612f4361424c565b602002602001015160ff1688612f599190613ff4565b612f63919061400b565b612f6d9083613fa2565b915080612f79816143b6565b915050612ed4565b50612f8f8e8c838b86613412565b5050505050505050505050505050565b603380546001600160a01b038381166001600160a01b0319831681179093556040519116919082907f8be0079c531659141344cd1fd0a4f28419497f9722a3daafe3b4186f6b6457e090600090a35050565b600054610100900460ff166130185760405162461bcd60e51b8152600401610bdb906143cf565b6112ea613570565b8261307d5760405162461bcd60e51b815260206004820152602760248201527f636865636b53706c6974733a3a4d7573742068617665206174206c65617374206044820152660c481cdc1b1a5d60ca1b6064820152608401610bdb565b60058311156130da5760405162461bcd60e51b8152602060048201526024808201527f636865636b53706c6974733a3a53706c6974206578636565646564206d61782060448201526373697a6560e01b6064820152608401610bdb565b82811461313e5760405162461bcd60e51b815260206004820152602c60248201527f636865636b53706c6974733a3a53706c69747320616e6420726174696f73206d60448201526b1d5cdd08189948195c5d585b60a21b6064820152608401610bdb565b6000805b828110156131925783838281811061315c5761315c61424c565b9050602002016020810190613171919061441a565b61317e9060ff1683613fa2565b91508061318a816143b6565b915050613142565b50806064146105f55760405162461bcd60e51b815260206004820152602760248201527f636865636b53706c6974733a3a546f74616c206d75737420626520657175616c604482015266020746f203130360cc1b6064820152608401610bdb565b6040516331a9108f60e11b815260048101829052829033906001600160a01b03831690636352211e90602401602060405180830381865afa15801561323c573d6000803e3d6000fd5b505050506040513d601f19601f8201168201806040525081019061326091906140c5565b6001600160a01b0316146109f15760405162461bcd60e51b815260206004820152601e60248201527f73656e646572206d7573742062652074686520746f6b656e206f776e657200006044820152606401610bdb565b6040516001600160a01b0383166024820152604481018290526109f190849063a9059cbb60e01b906064015b60408051601f198184030181529190526020810180516001600160e01b03166001600160e01b0319909316929092179091526135a0565b6040516001600160a01b03808516602483015283166044820152606481018290526112d29085906323b872dd60e01b906084016132e2565b6001600160a01b0381163b6133be5760405162461bcd60e51b815260206004820152602d60248201527f455243313936373a206e657720696d706c656d656e746174696f6e206973206e60448201526c1bdd08184818dbdb9d1c9858dd609a1b6064820152608401610bdb565b6000805160206144bc83398151915280546001600160a01b0319166001600160a01b0392909216919091179055565b6133f683613675565b6000825111806134035750805b156109f1576112d283836136b5565b6001600160a01b03841661350157600485015460405160009182916001600160a01b0390911690869063c176e63960e01b906134549088908890602401614437565b60408051601f198184030181529181526020820180516001600160e01b03166001600160e01b031990941693909317909252905161349291906141fd565b60006040518083038185875af1925050503d80600081146134cf576040519150601f19603f3d011682016040523d82523d6000602084013e6134d4565b606091505b50915091508181906134f95760405162461bcd60e51b8152600401610bdb9190614219565b5050506105f5565b8360005b835181101561216a5761355e8482815181106135235761352361424c565b602002602001015184838151811061353d5761353d61424c565b6020026020010151846001600160a01b03166132b69092919063ffffffff16565b80613568816143b6565b915050613505565b600054610100900460ff166135975760405162461bcd60e51b8152600401610bdb906143cf565b6112ea33612f9f565b60006135f5826040518060400160405280602081526020017f5361666545524332303a206c6f772d6c6576656c2063616c6c206661696c6564815250856001600160a01b03166136e19092919063ffffffff16565b905080516000148061361657508080602001905181019061361691906141bc565b6109f15760405162461bcd60e51b815260206004820152602a60248201527f5361666545524332303a204552433230206f7065726174696f6e20646964206e6044820152691bdd081cdd58d8d9595960b21b6064820152608401610bdb565b61367e81613351565b6040516001600160a01b038216907fbc7cd75a20ee27fd9adebab32041f755214dbc6bffa90cc0225b39da2e5c2d3b90600090a250565b60606136da83836040518060600160405280602781526020016144dc602791396136f8565b9392505050565b60606136f08484600085613770565b949350505050565b6060600080856001600160a01b03168560405161371591906141fd565b600060405180830381855af49150503d8060008114613750576040519150601f19603f3d011682016040523d82523d6000602084013e613755565b606091505b50915091506137668683838761384b565b9695505050505050565b6060824710156137d15760405162461bcd60e51b815260206004820152602660248201527f416464726573733a20696e73756666696369656e742062616c616e636520666f6044820152651c8818d85b1b60d21b6064820152608401610bdb565b600080866001600160a01b031685876040516137ed91906141fd565b60006040518083038185875af1925050503d806000811461382a576040519150601f19603f3d011682016040523d82523d6000602084013e61382f565b606091505b50915091506138408783838761384b565b979650505050505050565b606083156138ba5782516000036138b3576001600160a01b0385163b6138b35760405162461bcd60e51b815260206004820152601d60248201527f416464726573733a2063616c6c20746f206e6f6e2d636f6e74726163740000006044820152606401610bdb565b50816136f0565b6136f083838151156138cf5781518083602001fd5b8060405162461bcd60e51b8152600401610bdb9190614219565b5080546000825590600052602060002090810190610c789190613a2e565b50805460008255601f016020900490600052602060002090810190610c789190613a2e565b828054828255906000526020600020908101928215613981579160200282015b8281111561398157825182546001600160a01b0319166001600160a01b0390911617825560209092019160019091019061394c565b5061398d929150613a2e565b5090565b82805482825590600052602060002090601f016020900481019282156139815791602002820160005b838211156139f857835183826101000a81548160ff021916908360ff16021790555092602001926001016020816000010492830192600103026139ba565b8015613a255782816101000a81549060ff02191690556001016020816000010492830192600103026139f8565b505061398d9291505b5b8082111561398d5760008155600101613a2f565b6001600160a01b0381168114610c7857600080fd5b600060208284031215613a6a57600080fd5b81356136da81613a43565b600080600060608486031215613a8a57600080fd5b8335613a9581613a43565b92506020840135613aa581613a43565b929592945050506040919091013590565b60008060408385031215613ac957600080fd5b8235613ad481613a43565b91506020830135613ae481613a43565b809150509250929050565b600081518084526020808501945080840160005b83811015613b2257815160ff1687529582019590820190600101613b03565b509495945050505050565b602080825282516001600160a01b03908116838301528382015160408085019190915284015160806060850152805160a08501819052600093929183019190849060c08701905b80831015613b9657845184168252938501936001929092019190850190613b74565b506060880151878203601f190160808901529450613bb48186613aef565b98975050505050505050565b634e487b7160e01b600052604160045260246000fd5b604051601f8201601f1916810167ffffffffffffffff81118282101715613bff57613bff613bc0565b604052919050565b60008060408385031215613c1a57600080fd5b8235613c2581613a43565b915060208381013567ffffffffffffffff80821115613c4357600080fd5b818601915086601f830112613c5757600080fd5b813581811115613c6957613c69613bc0565b613c7b601f8201601f19168501613bd6565b91508082528784828501011115613c9157600080fd5b80848401858401376000848284010152508093505050509250929050565b60008060008060808587031215613cc557600080fd5b8435613cd081613a43565b9350602085013592506040850135613ce781613a43565b9396929550929360600135925050565b8015158114610c7857600080fd5b600060208284031215613d1757600080fd5b81356136da81613cf7565b600080600080600080600080610100898b031215613d3f57600080fd5b8835613d4a81613a43565b97506020890135613d5a81613a43565b96506040890135613d6a81613a43565b95506060890135613d7a81613a43565b94506080890135613d8a81613a43565b935060a0890135613d9a81613a43565b925060c0890135613daa81613a43565b915060e0890135613dba81613a43565b809150509295985092959890939650565b60008083601f840112613ddd57600080fd5b50813567ffffffffffffffff811115613df557600080fd5b6020830191508360208260051b8501011115613e1057600080fd5b9250929050565b600080600080600080600060a0888a031215613e3257600080fd5b8735613e3d81613a43565b96506020880135613e4d81613a43565b955060408801359450606088013567ffffffffffffffff80821115613e7157600080fd5b613e7d8b838c01613dcb565b909650945060808a0135915080821115613e9657600080fd5b50613ea38a828b01613dcb565b989b979a50959850939692959293505050565b600080600080600080600080600060e08a8c031215613ed457600080fd5b8935613edf81613a43565b985060208a0135613eef81613a43565b975060408a0135965060608a0135613f0681613a43565b955060808a0135945060a08a013567ffffffffffffffff80821115613f2a57600080fd5b613f368d838e01613dcb565b909650945060c08c0135915080821115613f4f57600080fd5b50613f5c8c828d01613dcb565b915080935050809150509295985092959850929598565b600060208284031215613f8557600080fd5b5051919050565b634e487b7160e01b600052601160045260246000fd5b80820180821115610b3e57610b3e613f8c565b60ff81168114610c7857600080fd5b600060208284031215613fd657600080fd5b81516136da81613fb5565b81810381811115610b3e57610b3e613f8c565b8082028115828204841417610b3e57610b3e613f8c565b60008261402857634e487b7160e01b600052601260045260246000fd5b500490565b6020808252602c908201527f46756e6374696f6e206d7573742062652063616c6c6564207468726f7567682060408201526b19195b1959d85d1958d85b1b60a21b606082015260800190565b6020808252602c908201527f46756e6374696f6e206d7573742062652063616c6c6564207468726f7567682060408201526b6163746976652070726f787960a01b606082015260800190565b6000602082840312156140d757600080fd5b81516136da81613a43565b80516140ed81613a43565b919050565b600061010080838503121561410657600080fd5b6040519081019067ffffffffffffffff8211818310171561412957614129613bc0565b816040528351915061413a82613a43565b818152614149602085016140e2565b602082015261415a604085016140e2565b604082015261416b606085016140e2565b606082015261417c608085016140e2565b608082015261418d60a085016140e2565b60a082015261419e60c085016140e2565b60c08201526141af60e085016140e2565b60e0820152949350505050565b6000602082840312156141ce57600080fd5b81516136da81613cf7565b60005b838110156141f45781810151838201526020016141dc565b50506000910152565b6000825161420f8184602087016141d9565b9190910192915050565b60208152600082518060208401526142388160408501602087016141d9565b601f01601f19169190910160400192915050565b634e487b7160e01b600052603260045260246000fd5b600067ffffffffffffffff82111561427c5761427c613bc0565b5060051b60200190565b600082601f83011261429757600080fd5b815160206142ac6142a783614262565b613bd6565b82815260059290921b840181019181810190868411156142cb57600080fd5b8286015b848110156142e657805183529183019183016142cf565b509695505050505050565b6000806040838503121561430457600080fd5b825167ffffffffffffffff8082111561431c57600080fd5b818501915085601f83011261433057600080fd5b815160206143406142a783614262565b82815260059290921b8401810191818101908984111561435f57600080fd5b948201945b8386101561438657855161437781613a43565b82529482019490820190614364565b9188015191965090935050508082111561439f57600080fd5b506143ac85828601614286565b9150509250929050565b6000600182016143c8576143c8613f8c565b5060010190565b6020808252602b908201527f496e697469616c697a61626c653a20636f6e7472616374206973206e6f74206960408201526a6e697469616c697a696e6760a81b606082015260800190565b60006020828403121561442c57600080fd5b81356136da81613fb5565b604080825283519082018190526000906020906060840190828701845b828110156144795781516001600160a01b031684529284019290840190600101614454565b5050508381038285015284518082528583019183019060005b818110156144ae57835183529284019291840191600101614492565b509097965050505050505056fe360894a13ba1a3210667c828492db98dca3e2076cc3735a920a3ca505d382bbc416464726573733a206c6f772d6c6576656c2064656c65676174652063616c6c206661696c6564a264697066735822122067a4ba0c61c92698bb648d9b579a0dee43c2fc775ed1f8b4de25c76b98071bee64736f6c63430008120033",
    "linkReferences": {
      "src/utils/structs/MarketConfig.sol": {
        "MarketConfig": [
          {
            "start": 1527,
            "length": 20
          },
          {
            "start": 1653,
            "length": 20
          },
          {
            "start": 3005,
            "length": 20
          },
          {
            "start": 4965,
            "length": 20
          },
          {
            "start": 5779,
            "length": 20
          },
          {
            "start": 6469,
            "length": 20
          },
          {
            "start": 6994,
            "length": 20
          }
        ]
      }
    }
  },
  "methodIdentifiers": {
    "acceptCollectionOffer(address,address,uint256,address,uint256,address[],uint8[])": "e5fc48ee",
    "buyFromCollection(address,uint256,address,uint256)": "6d374d81",
    "cancelCollectionOffer(address)": "9214be52",
    "cancelCollectionSalePrice(address)": "85b1eb27",
    "getCollectionOffer(address,address)": "381eff7c",
    "getCollectionSalePrice(address,address)": "25bc1330",
    "getMarketConfig()": "614bd944",
    "initialize(address,address,address,address,address,address,address,address)": "8a29e2de",
    "isPaused()": "b187bd26",
    "makeCollectionOffer(address,address,uint256)": "22f193d0",
    "owner()": "8da5cb5b",
    "proxiableUUID()": "52d1902d",
    "renounceOwnership()": "715018a6",
    "setApprovedTokenRegistry(address)": "e4e87e3b",
    "setCollectionSalePrice(address,address,uint256,address[],uint8[])": "d9ed2096",
    "setContractPaused(bool)": "882796f1",
    "setMarketplaceSettings(address)": "176ab440",
    "setNetworkBeneficiary(address)": "3492e5a8",
    "setPayments(address)": "af231a58",
    "setRoyaltyEngine(address)": "21ede032",
    "setSpaceOperatorRegistry(address)": "7f358230",
    "transferOwnership(address)": "f2fde38b",
    "upgradeTo(address)": "3659cfe6",
    "upgradeToAndCall(address,bytes)": "4f1ef286"
  },
  "id": 133
}