{
  "abi": [
    {
      "inputs": [],
      "name": "InsufficientRareAllowance",
      "type": "error"
    },
    {
      "inputs": [],
      "name": "InvalidPool",
      "type": "error"
    },
    {
      "inputs": [],
      "name": "PercentageBeyondLimit",
      "type": "error"
    },
    {
      "inputs": [],
      "name": "PeriodLengthBeyondLimit",
      "type": "error"
    },
    {
      "inputs": [],
      "name": "StakingContractAlreadyExists",
      "type": "error"
    },
    {
      "inputs": [],
      "name": "Unauthorized",
      "type": "error"
    },
    {
      "inputs": [],
      "name": "ZeroAddressUnsupported",
      "type": "error"
    },
    {
      "anonymous": false,
      "inputs": [
        {
          "indexed": false,
          "internalType": "address",
          "name": "previousAdmin",
          "type": "address"
        },
        {
          "indexed": false,
          "internalType": "address",
          "name": "newAdmin",
          "type": "address"
        }
      ],
      "name": "AdminChanged",
      "type": "event"
    },
    {
      "anonymous": false,
      "inputs": [
        {
          "indexed": true,
          "internalType": "address",
          "name": "beacon",
          "type": "address"
        }
      ],
      "name": "BeaconUpgraded",
      "type": "event"
    },
    {
      "anonymous": false,
      "inputs": [
        {
          "indexed": true,
          "internalType": "address",
          "name": "_user",
          "type": "address"
        },
        {
          "indexed": false,
          "internalType": "uint256",
          "name": "_percentage",
          "type": "uint256"
        }
      ],
      "name": "ClaimerPercentageUpdated",
      "type": "event"
    },
    {
      "anonymous": false,
      "inputs": [
        {
          "indexed": false,
          "internalType": "address",
          "name": "_payee",
          "type": "address"
        }
      ],
      "name": "DefaultPayeeUpdated",
      "type": "event"
    },
    {
      "anonymous": false,
      "inputs": [
        {
          "indexed": false,
          "internalType": "uint256",
          "name": "_percentage",
          "type": "uint256"
        }
      ],
      "name": "DeflationaryPercentageUpdated",
      "type": "event"
    },
    {
      "anonymous": false,
      "inputs": [
        {
          "indexed": false,
          "internalType": "uint256",
          "name": "_percentage",
          "type": "uint256"
        }
      ],
      "name": "DiscountPercentageUpdated",
      "type": "event"
    },
    {
      "anonymous": false,
      "inputs": [
        {
          "indexed": false,
          "internalType": "uint8",
          "name": "version",
          "type": "uint8"
        }
      ],
      "name": "Initialized",
      "type": "event"
    },
    {
      "anonymous": false,
      "inputs": [
        {
          "indexed": false,
          "internalType": "uint256",
          "name": "_periodLength",
          "type": "uint256"
        }
      ],
      "name": "PeriodLengthUpdated",
      "type": "event"
    },
    {
      "anonymous": false,
      "inputs": [
        {
          "indexed": false,
          "internalType": "address",
          "name": "_resolver",
          "type": "address"
        }
      ],
      "name": "ResolverUpdated",
      "type": "event"
    },
    {
      "anonymous": false,
      "inputs": [
        {
          "indexed": false,
          "internalType": "address",
          "name": "_percentage",
          "type": "address"
        }
      ],
      "name": "ReverseRegistrarUpdated",
      "type": "event"
    },
    {
      "anonymous": false,
      "inputs": [
        {
          "indexed": true,
          "internalType": "bytes32",
          "name": "role",
          "type": "bytes32"
        },
        {
          "indexed": true,
          "internalType": "bytes32",
          "name": "previousAdminRole",
          "type": "bytes32"
        },
        {
          "indexed": true,
          "internalType": "bytes32",
          "name": "newAdminRole",
          "type": "bytes32"
        }
      ],
      "name": "RoleAdminChanged",
      "type": "event"
    },
    {
      "anonymous": false,
      "inputs": [
        {
          "indexed": true,
          "internalType": "bytes32",
          "name": "role",
          "type": "bytes32"
        },
        {
          "indexed": true,
          "internalType": "address",
          "name": "account",
          "type": "address"
        },
        {
          "indexed": true,
          "internalType": "address",
          "name": "sender",
          "type": "address"
        }
      ],
      "name": "RoleGranted",
      "type": "event"
    },
    {
      "anonymous": false,
      "inputs": [
        {
          "indexed": true,
          "internalType": "bytes32",
          "name": "role",
          "type": "bytes32"
        },
        {
          "indexed": true,
          "internalType": "address",
          "name": "account",
          "type": "address"
        },
        {
          "indexed": true,
          "internalType": "address",
          "name": "sender",
          "type": "address"
        }
      ],
      "name": "RoleRevoked",
      "type": "event"
    },
    {
      "anonymous": false,
      "inputs": [
        {
          "indexed": false,
          "internalType": "address",
          "name": "_uniswapPool",
          "type": "address"
        },
        {
          "indexed": false,
          "internalType": "address",
          "name": "_token",
          "type": "address"
        }
      ],
      "name": "SetSwapPool",
      "type": "event"
    },
    {
      "anonymous": false,
      "inputs": [
        {
          "indexed": true,
          "internalType": "address",
          "name": "_user",
          "type": "address"
        },
        {
          "indexed": false,
          "internalType": "uint256",
          "name": "_percentage",
          "type": "uint256"
        }
      ],
      "name": "StakeePercentageUpdated",
      "type": "event"
    },
    {
      "anonymous": false,
      "inputs": [
        {
          "indexed": true,
          "internalType": "address",
          "name": "implementation",
          "type": "address"
        }
      ],
      "name": "Upgraded",
      "type": "event"
    },
    {
      "inputs": [],
      "name": "DEFAULT_ADMIN_ROLE",
      "outputs": [
        {
          "internalType": "bytes32",
          "name": "",
          "type": "bytes32"
        }
      ],
      "stateMutability": "view",
      "type": "function"
    },
    {
      "inputs": [],
      "name": "ENS_SETTER_ROLE",
      "outputs": [
        {
          "internalType": "bytes32",
          "name": "",
          "type": "bytes32"
        }
      ],
      "stateMutability": "view",
      "type": "function"
    },
    {
      "inputs": [],
      "name": "STAKING_CONFIG_SETTER_ROLE",
      "outputs": [
        {
          "internalType": "bytes32",
          "name": "",
          "type": "bytes32"
        }
      ],
      "stateMutability": "view",
      "type": "function"
    },
    {
      "inputs": [],
      "name": "STAKING_INFO_SETTER_ROLE",
      "outputs": [
        {
          "internalType": "bytes32",
          "name": "",
          "type": "bytes32"
        }
      ],
      "stateMutability": "view",
      "type": "function"
    },
    {
      "inputs": [],
      "name": "STAKING_STAT_SETTER_ADMIN_ROLE",
      "outputs": [
        {
          "internalType": "bytes32",
          "name": "",
          "type": "bytes32"
        }
      ],
      "stateMutability": "view",
      "type": "function"
    },
    {
      "inputs": [],
      "name": "STAKING_STAT_SETTER_ROLE",
      "outputs": [
        {
          "internalType": "bytes32",
          "name": "",
          "type": "bytes32"
        }
      ],
      "stateMutability": "view",
      "type": "function"
    },
    {
      "inputs": [],
      "name": "SWAP_POOL_SETTER_ROLE",
      "outputs": [
        {
          "internalType": "bytes32",
          "name": "",
          "type": "bytes32"
        }
      ],
      "stateMutability": "view",
      "type": "function"
    },
    {
      "inputs": [
        {
          "internalType": "address",
          "name": "_staker",
          "type": "address"
        },
        {
          "internalType": "address",
          "name": "_stakedOn",
          "type": "address"
        },
        {
          "internalType": "uint256",
          "name": "_amount",
          "type": "uint256"
        }
      ],
      "name": "decreaseAmountStaked",
      "outputs": [],
      "stateMutability": "nonpayable",
      "type": "function"
    },
    {
      "inputs": [],
      "name": "getAllStakedOn",
      "outputs": [
        {
          "internalType": "address[]",
          "name": "",
          "type": "address[]"
        }
      ],
      "stateMutability": "view",
      "type": "function"
    },
    {
      "inputs": [],
      "name": "getAllStakers",
      "outputs": [
        {
          "internalType": "address[]",
          "name": "",
          "type": "address[]"
        }
      ],
      "stateMutability": "view",
      "type": "function"
    },
    {
      "inputs": [],
      "name": "getAllStakingContracts",
      "outputs": [
        {
          "internalType": "address[]",
          "name": "",
          "type": "address[]"
        }
      ],
      "stateMutability": "view",
      "type": "function"
    },
    {
      "inputs": [
        {
          "internalType": "address",
          "name": "_user",
          "type": "address"
        }
      ],
      "name": "getClaimerPercentage",
      "outputs": [
        {
          "internalType": "uint256",
          "name": "",
          "type": "uint256"
        }
      ],
      "stateMutability": "view",
      "type": "function"
    },
    {
      "inputs": [],
      "name": "getDefaultPayee",
      "outputs": [
        {
          "internalType": "address",
          "name": "",
          "type": "address"
        }
      ],
      "stateMutability": "view",
      "type": "function"
    },
    {
      "inputs": [],
      "name": "getDeflationaryPercentage",
      "outputs": [
        {
          "internalType": "uint256",
          "name": "",
          "type": "uint256"
        }
      ],
      "stateMutability": "view",
      "type": "function"
    },
    {
      "inputs": [],
      "name": "getDiscountPercentage",
      "outputs": [
        {
          "internalType": "uint256",
          "name": "",
          "type": "uint256"
        }
      ],
      "stateMutability": "view",
      "type": "function"
    },
    {
      "inputs": [],
      "name": "getPeriodLength",
      "outputs": [
        {
          "internalType": "uint256",
          "name": "",
          "type": "uint256"
        }
      ],
      "stateMutability": "view",
      "type": "function"
    },
    {
      "inputs": [],
      "name": "getRareAddress",
      "outputs": [
        {
          "internalType": "address",
          "name": "",
          "type": "address"
        }
      ],
      "stateMutability": "view",
      "type": "function"
    },
    {
      "inputs": [
        {
          "internalType": "bytes32",
          "name": "role",
          "type": "bytes32"
        }
      ],
      "name": "getRoleAdmin",
      "outputs": [
        {
          "internalType": "bytes32",
          "name": "",
          "type": "bytes32"
        }
      ],
      "stateMutability": "view",
      "type": "function"
    },
    {
      "inputs": [
        {
          "internalType": "address",
          "name": "_user",
          "type": "address"
        }
      ],
      "name": "getStakeePercentage",
      "outputs": [
        {
          "internalType": "uint256",
          "name": "amount",
          "type": "uint256"
        }
      ],
      "stateMutability": "view",
      "type": "function"
    },
    {
      "inputs": [
        {
          "internalType": "address",
          "name": "_user",
          "type": "address"
        }
      ],
      "name": "getStakingInfoForUser",
      "outputs": [
        {
          "components": [
            {
              "internalType": "string",
              "name": "name",
              "type": "string"
            },
            {
              "internalType": "string",
              "name": "symbol",
              "type": "string"
            },
            {
              "internalType": "address",
              "name": "stakingAddress",
              "type": "address"
            },
            {
              "internalType": "address",
              "name": "rewardAddress",
              "type": "address"
            }
          ],
          "internalType": "struct IRareStakingRegistry.Info",
          "name": "",
          "type": "tuple"
        }
      ],
      "stateMutability": "view",
      "type": "function"
    },
    {
      "inputs": [
        {
          "internalType": "address",
          "name": "_token",
          "type": "address"
        }
      ],
      "name": "getSwapPool",
      "outputs": [
        {
          "internalType": "address",
          "name": "",
          "type": "address"
        }
      ],
      "stateMutability": "view",
      "type": "function"
    },
    {
      "inputs": [
        {
          "internalType": "address",
          "name": "_user",
          "type": "address"
        }
      ],
      "name": "getTotalAmountStakedByUser",
      "outputs": [
        {
          "internalType": "uint256",
          "name": "amount",
          "type": "uint256"
        }
      ],
      "stateMutability": "view",
      "type": "function"
    },
    {
      "inputs": [
        {
          "internalType": "address",
          "name": "_user",
          "type": "address"
        }
      ],
      "name": "getTotalAmountStakedOnUser",
      "outputs": [
        {
          "internalType": "uint256",
          "name": "amount",
          "type": "uint256"
        }
      ],
      "stateMutability": "view",
      "type": "function"
    },
    {
      "inputs": [
        {
          "internalType": "address[]",
          "name": "_stakingAddrs",
          "type": "address[]"
        }
      ],
      "name": "getUsersForStakingAddresses",
      "outputs": [
        {
          "internalType": "address[]",
          "name": "",
          "type": "address[]"
        }
      ],
      "stateMutability": "view",
      "type": "function"
    },
    {
      "inputs": [],
      "name": "getWethAddress",
      "outputs": [
        {
          "internalType": "address",
          "name": "",
          "type": "address"
        }
      ],
      "stateMutability": "view",
      "type": "function"
    },
    {
      "inputs": [
        {
          "internalType": "bytes32",
          "name": "role",
          "type": "bytes32"
        },
        {
          "internalType": "address",
          "name": "account",
          "type": "address"
        }
      ],
      "name": "grantRole",
      "outputs": [],
      "stateMutability": "nonpayable",
      "type": "function"
    },
    {
      "inputs": [
        {
          "internalType": "bytes32",
          "name": "role",
          "type": "bytes32"
        },
        {
          "internalType": "address",
          "name": "account",
          "type": "address"
        }
      ],
      "name": "hasRole",
      "outputs": [
        {
          "internalType": "bool",
          "name": "",
          "type": "bool"
        }
      ],
      "stateMutability": "view",
      "type": "function"
    },
    {
      "inputs": [
        {
          "internalType": "address",
          "name": "_staker",
          "type": "address"
        },
        {
          "internalType": "address",
          "name": "_stakedOn",
          "type": "address"
        },
        {
          "internalType": "uint256",
          "name": "_amount",
          "type": "uint256"
        }
      ],
      "name": "increaseAmountStaked",
      "outputs": [],
      "stateMutability": "nonpayable",
      "type": "function"
    },
    {
      "inputs": [
        {
          "internalType": "address",
          "name": "_owner",
          "type": "address"
        },
        {
          "internalType": "address",
          "name": "_reverseRegistrar",
          "type": "address"
        },
        {
          "internalType": "address",
          "name": "_resolver",
          "type": "address"
        },
        {
          "internalType": "uint256",
          "name": "_periodLength",
          "type": "uint256"
        },
        {
          "internalType": "uint256",
          "name": "_deflationaryPercentage",
          "type": "uint256"
        },
        {
          "internalType": "uint256",
          "name": "_discountedPercent",
          "type": "uint256"
        },
        {
          "internalType": "address",
          "name": "_rare",
          "type": "address"
        },
        {
          "internalType": "address",
          "name": "_weth",
          "type": "address"
        },
        {
          "internalType": "address",
          "name": "_defaultPayee",
          "type": "address"
        }
      ],
      "name": "initialize",
      "outputs": [],
      "stateMutability": "nonpayable",
      "type": "function"
    },
    {
      "inputs": [],
      "name": "proxiableUUID",
      "outputs": [
        {
          "internalType": "bytes32",
          "name": "",
          "type": "bytes32"
        }
      ],
      "stateMutability": "view",
      "type": "function"
    },
    {
      "inputs": [
        {
          "internalType": "bytes32",
          "name": "role",
          "type": "bytes32"
        },
        {
          "internalType": "address",
          "name": "account",
          "type": "address"
        }
      ],
      "name": "renounceRole",
      "outputs": [],
      "stateMutability": "nonpayable",
      "type": "function"
    },
    {
      "inputs": [
        {
          "internalType": "bytes32",
          "name": "role",
          "type": "bytes32"
        },
        {
          "internalType": "address",
          "name": "account",
          "type": "address"
        }
      ],
      "name": "revokeRole",
      "outputs": [],
      "stateMutability": "nonpayable",
      "type": "function"
    },
    {
      "inputs": [
        {
          "internalType": "uint256",
          "name": "_claimerPercentage",
          "type": "uint256"
        }
      ],
      "name": "setClaimerPercentage",
      "outputs": [],
      "stateMutability": "nonpayable",
      "type": "function"
    },
    {
      "inputs": [
        {
          "internalType": "address",
          "name": "_payee",
          "type": "address"
        }
      ],
      "name": "setDefaultPayee",
      "outputs": [],
      "stateMutability": "nonpayable",
      "type": "function"
    },
    {
      "inputs": [
        {
          "internalType": "uint256",
          "name": "_percentage",
          "type": "uint256"
        }
      ],
      "name": "setDeflationaryPercentage",
      "outputs": [],
      "stateMutability": "nonpayable",
      "type": "function"
    },
    {
      "inputs": [
        {
          "internalType": "uint256",
          "name": "_percentage",
          "type": "uint256"
        }
      ],
      "name": "setDiscountPercentage",
      "outputs": [],
      "stateMutability": "nonpayable",
      "type": "function"
    },
    {
      "inputs": [
        {
          "internalType": "uint256",
          "name": "_periodLength",
          "type": "uint256"
        }
      ],
      "name": "setPeriodLength",
      "outputs": [],
      "stateMutability": "nonpayable",
      "type": "function"
    },
    {
      "inputs": [
        {
          "internalType": "address",
          "name": "_resolver",
          "type": "address"
        }
      ],
      "name": "setResolver",
      "outputs": [],
      "stateMutability": "nonpayable",
      "type": "function"
    },
    {
      "inputs": [
        {
          "internalType": "address",
          "name": "_reverseRegistrar",
          "type": "address"
        }
      ],
      "name": "setReverseRegistrar",
      "outputs": [],
      "stateMutability": "nonpayable",
      "type": "function"
    },
    {
      "inputs": [
        {
          "internalType": "uint256",
          "name": "_stakeePercentage",
          "type": "uint256"
        }
      ],
      "name": "setStakeePercentage",
      "outputs": [],
      "stateMutability": "nonpayable",
      "type": "function"
    },
    {
      "inputs": [
        {
          "internalType": "address",
          "name": "_user",
          "type": "address"
        },
        {
          "internalType": "address",
          "name": "_stakingAddress",
          "type": "address"
        },
        {
          "internalType": "address",
          "name": "_rewardSwapAddress",
          "type": "address"
        }
      ],
      "name": "setStakingAddresses",
      "outputs": [],
      "stateMutability": "nonpayable",
      "type": "function"
    },
    {
      "inputs": [
        {
          "internalType": "address",
          "name": "_uniswapPool",
          "type": "address"
        },
        {
          "internalType": "address",
          "name": "_token",
          "type": "address"
        }
      ],
      "name": "setSwapPool",
      "outputs": [],
      "stateMutability": "nonpayable",
      "type": "function"
    },
    {
      "inputs": [
        {
          "internalType": "bytes4",
          "name": "interfaceId",
          "type": "bytes4"
        }
      ],
      "name": "supportsInterface",
      "outputs": [
        {
          "internalType": "bool",
          "name": "",
          "type": "bool"
        }
      ],
      "stateMutability": "view",
      "type": "function"
    },
    {
      "inputs": [
        {
          "internalType": "address",
          "name": "_from",
          "type": "address"
        },
        {
          "internalType": "address",
          "name": "_to",
          "type": "address"
        },
        {
          "internalType": "uint256",
          "name": "_amount",
          "type": "uint256"
        }
      ],
      "name": "transferRareTo",
      "outputs": [],
      "stateMutability": "nonpayable",
      "type": "function"
    },
    {
      "inputs": [
        {
          "internalType": "address",
          "name": "newImplementation",
          "type": "address"
        }
      ],
      "name": "upgradeTo",
      "outputs": [],
      "stateMutability": "nonpayable",
      "type": "function"
    },
    {
      "inputs": [
        {
          "internalType": "address",
          "name": "newImplementation",
          "type": "address"
        },
        {
          "internalType": "bytes",
          "name": "data",
          "type": "bytes"
        }
      ],
      "name": "upgradeToAndCall",
      "outputs": [],
      "stateMutability": "payable",
      "type": "function"
    }
  ],
  "bytecode": {
    "object": "0x60a06040523060805234801561001457600080fd5b50608051613f6c61004c60003960008181610cd801528181610d18015281816110490152818161108901526111180152613f6c6000f3fe60806040526004361061027d5760003560e01c806352d1902d1161014f578063a4303a45116100c1578063cac7c65c1161007a578063cac7c65c14610804578063cb8af2b514610824578063d547741f14610844578063d8f03c7f14610864578063f24bd8a61461089a578063f7ef8ead146108c757600080fd5b8063a4303a4514610744578063afda0dda14610766578063b3428d151461077b578063b3a96ead1461079b578063bb0544a1146107b0578063c2544987146107d057600080fd5b806376a250a71161011357806376a250a7146106995780637d6380b7146106b95780638469ddc7146106d957806391d14854146106ef57806399247be71461070f578063a217fddf1461072f57600080fd5b806352d1902d1461060d578063557499ba14610622578063562b94c41461064257806366951bc1146106625780636e4f88c81461068457600080fd5b80632608ff35116101f35780633659cfe6116101ac5780633659cfe614610544578063399ebbe5146105645780633d867d951461059a57806346ccbb40146105ba5780634e543b26146105da5780634f1ef286146105fa57600080fd5b80632608ff3514610448578063265718b41461046857806329b4a5901461049c5780632f2ff15d146104d0578063363227e5146104f057806336568abe1461052457600080fd5b8063125cb67c11610245578063125cb67c1461036b57806318ab58ac1461038d5780631c5633d7146103ba5780632210d525146103da57806323a7b42a146103f9578063248a9ca31461041857600080fd5b806301ffc9a714610282578063039bcf8e146102b757806306c571d51461030857806310da95e614610336578063111029b914610355575b600080fd5b34801561028e57600080fd5b506102a261029d3660046134c2565b6108dd565b60405190151581526020015b60405180910390f35b3480156102c357600080fd5b506102f06102d2366004613501565b6001600160a01b03908116600090815260fc60205260409020541690565b6040516001600160a01b0390911681526020016102ae565b34801561031457600080fd5b50610328610323366004613501565b610914565b6040519081526020016102ae565b34801561034257600080fd5b5061010e546001600160a01b03166102f0565b34801561036157600080fd5b5061010d54610328565b34801561037757600080fd5b5061038b61038636600461351e565b610929565b005b34801561039957600080fd5b506103ad6103a8366004613537565b61099b565b6040516102ae91906135ab565b3480156103c657600080fd5b5061038b6103d536600461351e565b610afa565b3480156103e657600080fd5b5061010b546001600160a01b03166102f0565b34801561040557600080fd5b5061010c546001600160a01b03166102f0565b34801561042457600080fd5b5061032861043336600461351e565b60009081526065602052604090206001015490565b34801561045457600080fd5b5061038b6104633660046135f8565b610b90565b34801561047457600080fd5b506103287fcfac5101a9a6e666acfba4416612534dd5edcaa6e3fec2fd00fb2e84b0e5e1d781565b3480156104a857600080fd5b506103287f1fb53273153c82fe1363373dd3355bec4bce8bdfe349c78a8ad09156481e622181565b3480156104dc57600080fd5b5061038b6104eb366004613639565b610c21565b3480156104fc57600080fd5b506103287f400c5a1da7685ba9f18764e1fcfab4b29512376de39bc16cc5ea8f80b7b6781981565b34801561053057600080fd5b5061038b61053f366004613639565b610c4b565b34801561055057600080fd5b5061038b61055f366004613501565b610cce565b34801561057057600080fd5b5061032861057f366004613501565b6001600160a01b0316600090815260fe602052604090205490565b3480156105a657600080fd5b506103286105b5366004613501565b610dad565b3480156105c657600080fd5b5061038b6105d5366004613669565b610dbb565b3480156105e657600080fd5b5061038b6105f5366004613501565b610f83565b61038b610608366004613704565b61103f565b34801561061957600080fd5b5061032861110b565b34801561062e57600080fd5b5061038b61063d366004613501565b6111be565b34801561064e57600080fd5b5061038b61065d36600461351e565b61127a565b34801561066e57600080fd5b50610328600080516020613ed083398151915281565b34801561069057600080fd5b506103ad6112e1565b3480156106a557600080fd5b5061038b6106b4366004613796565b611399565b3480156106c557600080fd5b5061038b6106d43660046135f8565b6114d6565b3480156106e557600080fd5b5061010954610328565b3480156106fb57600080fd5b506102a261070a366004613639565b6115aa565b34801561071b57600080fd5b5061038b61072a366004613501565b6115d5565b34801561073b57600080fd5b50610328600081565b34801561075057600080fd5b50610328600080516020613f1783398151915281565b34801561077257600080fd5b506103ad61167f565b34801561078757600080fd5b5061038b61079636600461351e565b611730565b3480156107a757600080fd5b506103ad6117bd565b3480156107bc57600080fd5b5061038b6107cb3660046137e1565b6117ce565b3480156107dc57600080fd5b506103287f6b742d59f502efc664ffa5cec8b4f798ca10dc8c5372b7e9f352dc77e490827b81565b34801561081057600080fd5b5061038b61081f3660046135f8565b611aed565b34801561083057600080fd5b5061038b61083f36600461351e565b611bb0565b34801561085057600080fd5b5061038b61085f366004613639565b611c3d565b34801561087057600080fd5b5061032861087f366004613501565b6001600160a01b0316600090815260fd602052604090205490565b3480156108a657600080fd5b506108ba6108b5366004613501565b611c62565b6040516102ae91906138da565b3480156108d357600080fd5b5061010a54610328565b60006001600160e01b03198216637965db0b60e01b148061090e57506301ffc9a760e01b6001600160e01b03198316145b92915050565b600061092261010183612051565b9392505050565b61138881111561094c5760405163669a78b160e11b815260040160405180910390fd5b33600081815260fd602052604090819020839055517f0b30ce602b0c5b380fbf2ceb9d0103e4c8dabd60aaf250251e75635e1b516576906109909084815260200190565b60405180910390a250565b60606000826001600160401b038111156109b7576109b7613697565b6040519080825280602002602001820160405280156109e0578160200160208202803683370190505b50905060005b83811015610af257848482818110610a0057610a00613944565b9050602002016020810190610a159190613501565b6001600160a01b0316633b248c766040518163ffffffff1660e01b8152600401602060405180830381865afa925050508015610a6e575060408051601f3d908101601f19168201909252610a6b9181019061395a565b60015b610aab576000828281518110610a8657610a86613944565b60200260200101906001600160a01b031690816001600160a01b031681525050610ae0565b80838381518110610abe57610abe613944565b60200260200101906001600160a01b031690816001600160a01b031681525050505b80610aea8161398d565b9150506109e6565b509392505050565b6301e13380811115610b1f576040516333f2123960e21b815260040160405180910390fd5b610b37600080516020613f17833981519152336115aa565b610b53576040516282b42960e81b815260040160405180910390fd5b6101098190556040518181527f439c9ef273bcbea625a0b7b93955ba4d4963bc26fdeaafe7dd6e674779464105906020015b60405180910390a150565b610ba8600080516020613ed0833981519152336115aa565b610bc4576040516282b42960e81b815260040160405180910390fd5b6000610bd261010185612051565b9150610bee905084610be484846139a6565b6101019190612078565b506000610bfd61010485612051565b9150610c19905084610c0f85846139a6565b6101049190612078565b505050505050565b600082815260656020526040902060010154610c3c81612096565b610c4683836120a0565b505050565b6001600160a01b0381163314610cc05760405162461bcd60e51b815260206004820152602f60248201527f416363657373436f6e74726f6c3a2063616e206f6e6c792072656e6f756e636560448201526e103937b632b9903337b91039b2b63360891b60648201526084015b60405180910390fd5b610cca8282612126565b5050565b6001600160a01b037f0000000000000000000000000000000000000000000000000000000000000000163003610d165760405162461bcd60e51b8152600401610cb7906139be565b7f00000000000000000000000000000000000000000000000000000000000000006001600160a01b0316610d5f600080516020613eb0833981519152546001600160a01b031690565b6001600160a01b031614610d855760405162461bcd60e51b8152600401610cb790613a0a565b610d8e8161218d565b60408051600080825260208201909252610daa918391906121b4565b50565b600061092261010483612051565b806001600160a01b0316826001600160a01b0316630dfe16816040518163ffffffff1660e01b8152600401602060405180830381865afa158015610e03573d6000803e3d6000fd5b505050506040513d601f19601f82011682018060405250810190610e27919061395a565b6001600160a01b0316141580610eb5575061010c546040805163d21220a760e01b815290516001600160a01b039283169285169163d21220a79160048083019260209291908290030181865afa158015610e85573d6000803e3d6000fd5b505050506040513d601f19601f82011682018060405250810190610ea9919061395a565b6001600160a01b031614155b15610ed25760405162820f3560e61b815260040160405180910390fd5b610efc7f400c5a1da7685ba9f18764e1fcfab4b29512376de39bc16cc5ea8f80b7b67819336115aa565b610f18576040516282b42960e81b815260040160405180910390fd5b6001600160a01b03818116600081815260fc602090815260409182902080546001600160a01b031916948716948517905581519384528301919091527f90b58464d7ad372751038449eef244602d2be9c82abdab06596a7677272cd427910160405180910390a15050565b6001600160a01b038116610faa57604051637827912560e01b815260040160405180910390fd5b610fd47f6b742d59f502efc664ffa5cec8b4f798ca10dc8c5372b7e9f352dc77e490827b336115aa565b610ff0576040516282b42960e81b815260040160405180910390fd5b61010880546001600160a01b0319166001600160a01b0383169081179091556040519081527f15cd6d20bba01b3fcb790c73829dd07412cbdf689ef818c96a2505889f3736a290602001610b85565b6001600160a01b037f00000000000000000000000000000000000000000000000000000000000000001630036110875760405162461bcd60e51b8152600401610cb7906139be565b7f00000000000000000000000000000000000000000000000000000000000000006001600160a01b03166110d0600080516020613eb0833981519152546001600160a01b031690565b6001600160a01b0316146110f65760405162461bcd60e51b8152600401610cb790613a0a565b6110ff8261218d565b610cca828260016121b4565b6000306001600160a01b037f000000000000000000000000000000000000000000000000000000000000000016146111ab5760405162461bcd60e51b815260206004820152603860248201527f555550535570677261646561626c653a206d757374206e6f742062652063616c60448201527f6c6564207468726f7567682064656c656761746563616c6c00000000000000006064820152608401610cb7565b50600080516020613eb083398151915290565b6001600160a01b0381166111e557604051637827912560e01b815260040160405180910390fd5b61120f7f6b742d59f502efc664ffa5cec8b4f798ca10dc8c5372b7e9f352dc77e490827b336115aa565b61122b576040516282b42960e81b815260040160405180910390fd5b61010780546001600160a01b0319166001600160a01b0383169081179091556040519081527fd192c0b229b00473ccb6ccfebf6642805bca1dcdf2d9fb4fd102c7dc7ea4ce2390602001610b85565b61138881111561129d5760405163669a78b160e11b815260040160405180910390fd5b33600081815260fe602052604090819020839055517ffc84a428923edfa3baecab93b8c5a4f4e5fca6af7ecf147d9880cfb2abfa1247906109909084815260200190565b606060006112f061010161231f565b90506000816001600160401b0381111561130c5761130c613697565b604051908082528060200260200182016040528015611335578160200160208202803683370190505b50905060005b828110156113925760006113516101018361232a565b5090508083838151811061136757611367613944565b6001600160a01b0390921660209283029190910190910152508061138a8161398d565b91505061133b565b5092915050565b6113c37fcfac5101a9a6e666acfba4416612534dd5edcaa6e3fec2fd00fb2e84b0e5e1d7336115aa565b6113df576040516282b42960e81b815260040160405180910390fd5b6001600160a01b03838116600090815260fb6020526040902060020154161561141b576040516333e9f35b60e11b815260040160405180910390fd5b6040805160a0810182526000608082018181528252825160208181018552828252808401919091526001600160a01b038087168486015285811660608501528716825260fb905291909120815181906114749082613ad6565b50602082015160018201906114899082613ad6565b5060408201516002820180546001600160a01b03199081166001600160a01b03938416179091556060909301516003909201805490931691161790556114d060ff83612339565b50505050565b61010b54604051636eb1769f60e11b81526001600160a01b0385811660048301523060248301528392169063dd62ed3e90604401602060405180830381865afa158015611527573d6000803e3d6000fd5b505050506040513d601f19601f8201168201806040525081019061154b9190613b95565b101561156a576040516321a1cc1360e11b815260040160405180910390fd5b61157560ff3361234e565b611591576040516282b42960e81b815260040160405180910390fd5b61010b54610c46906001600160a01b0316848484612370565b60009182526065602090815260408084206001600160a01b0393909316845291905290205460ff1690565b6001600160a01b0381166115fc57604051637827912560e01b815260040160405180910390fd5b611614600080516020613f17833981519152336115aa565b611630576040516282b42960e81b815260040160405180910390fd5b61010e80546001600160a01b0319166001600160a01b0383169081179091556040519081527fa37a7d6d9546ebba206b7200fd6814cc4885bd05277f43db31703508086bac5b90602001610b85565b6060600061168e61010461231f565b90506000816001600160401b038111156116aa576116aa613697565b6040519080825280602002602001820160405280156116d3578160200160208202803683370190505b50905060005b828110156113925760006116ef6101048361232a565b5090508083838151811061170557611705613944565b6001600160a01b039092166020928302919091019091015250806117288161398d565b9150506116d9565b6127108111156117535760405163669a78b160e11b815260040160405180910390fd5b61176b600080516020613f17833981519152336115aa565b611787576040516282b42960e81b815260040160405180910390fd5b61010d8190556040518181527f8edc85bde8568f5dc6d7febb4820920db680537ad498b90d003e63d93a3988a190602001610b85565b60606117c960ff6123ca565b905090565b600054610100900460ff16158080156117ee5750600054600160ff909116105b806118085750303b158015611808575060005460ff166001145b61186b5760405162461bcd60e51b815260206004820152602e60248201527f496e697469616c697a61626c653a20636f6e747261637420697320616c72656160448201526d191e481a5b9a5d1a585b1a5e995960921b6064820152608401610cb7565b6000805460ff19166001179055801561188e576000805461ff0019166101001790555b6301e133808711156118b3576040516333f2123960e21b815260040160405180910390fd5b6127108611156118d65760405163669a78b160e11b815260040160405180910390fd5b6127108511156118f95760405163669a78b160e11b815260040160405180910390fd5b6001600160a01b038a1661192057604051637827912560e01b815260040160405180910390fd5b6001600160a01b03891661194757604051637827912560e01b815260040160405180910390fd5b6001600160a01b03881661196e57604051637827912560e01b815260040160405180910390fd5b6001600160a01b03841661199557604051637827912560e01b815260040160405180910390fd5b6001600160a01b0383166119bc57604051637827912560e01b815260040160405180910390fd5b6001600160a01b0382166119e357604051637827912560e01b815260040160405180910390fd5b6119ee60008b6120a0565b611a26600080516020613ed08339815191527f1fb53273153c82fe1363373dd3355bec4bce8bdfe349c78a8ad09156481e62216123d7565b61010780546001600160a01b03199081166001600160a01b038c811691909117909255610108805482168b841617905561010a88905561010989905561010b8054821687841617905561010c8054821686841617905561010d87905561010e8054909116918416919091179055611a9b612422565b8015611ae1576000805461ff0019169055604051600181527f7f26b83ff96e1f2b6a682f133852f6798a09c465da95921460cefb38474024989060200160405180910390a15b50505050505050505050565b611b05600080516020613ed0833981519152336115aa565b611b21576040516282b42960e81b815260040160405180910390fd5b6000611b2f61010185612051565b9150611b3d90508282613bae565b600003611b5657611b506101018561248f565b50611b66565b611b6484610be48484613bae565b505b6000611b7461010485612051565b9150611b8290508382613bae565b600003611b9b57611b956101048561248f565b50611ba9565b610c1984610c0f8584613bae565b5050505050565b612710811115611bd35760405163669a78b160e11b815260040160405180910390fd5b611beb600080516020613f17833981519152336115aa565b611c07576040516282b42960e81b815260040160405180910390fd5b61010a8190556040518181527f392bc62c14254761a14ce86ad9820d13103f5f490089391c7ecf162afd5d68f990602001610b85565b600082815260656020526040902060010154611c5881612096565b610c468383612126565b6040805160808101825260608082526020820181905260009282018390528101919091526001600160a01b038216600090815260fb6020526040808220815160808101909252805482908290611cb790613a56565b80601f0160208091040260200160405190810160405280929190818152602001828054611ce390613a56565b8015611d305780601f10611d0557610100808354040283529160200191611d30565b820191906000526020600020905b815481529060010190602001808311611d1357829003601f168201915b50505050508152602001600182018054611d4990613a56565b80601f0160208091040260200160405190810160405280929190818152602001828054611d7590613a56565b8015611dc25780601f10611d9757610100808354040283529160200191611dc2565b820191906000526020600020905b815481529060010190602001808311611da557829003601f168201915b505050918352505060028201546001600160a01b039081166020830152600390920154821660409182015261010854610107549151632ffef98760e21b81528784166004820152939450600093611ed1939182169263691f343192169063bffbe61c90602401602060405180830381865afa158015611e45573d6000803e3d6000fd5b505050506040513d601f19601f82011682018060405250810190611e699190613b95565b6040518263ffffffff1660e01b8152600401611e8791815260200190565b600060405180830381865afa158015611ea4573d6000803e3d6000fd5b505050506040513d6000823e601f3d908101601f19168201604052611ecc9190810190613bc5565b6124a4565b9050611edc816124d1565b15611f9657611f0d611f06604051806040016040528060018152602001601760f91b8152506124a4565b82906125aa565b50611f4a81611f4460405180604001604052806011815260200170029bcb73a3432ba34b1902920a922903e1607d1b8152506124a4565b906125c9565b8252611f8a611f63611ecc611f5e84612658565b6126c0565b611f446040518060400160405280600681526020016578524152455f60d01b8152506124a4565b60208301525092915050565b6000611fa185612733565b90506000611fb5611ecc8360066000612749565b90506000611fc9611ecc8460046023612749565b90506000611fda611ecc84846125c9565b905061201281611f4460405180604001604052806011815260200170029bcb73a3432ba34b1902920a922903e1607d1b8152506124a4565b865260408051808201909152600681526578524152455f60d01b6020820152612040908290611f44906124a4565b602087015250939695505050505050565b6000808080612069866001600160a01b038716612839565b909450925050505b9250929050565b600061208e846001600160a01b0385168461287b565b949350505050565b610daa8133612898565b6120aa82826115aa565b610cca5760008281526065602090815260408083206001600160a01b03851684529091529020805460ff191660011790556120e23390565b6001600160a01b0316816001600160a01b0316837f2f8788117e7eff1d82e926ec794901d17c78024a50270940304540a733656f0d60405160405180910390a45050565b61213082826115aa565b15610cca5760008281526065602090815260408083206001600160a01b0385168085529252808320805460ff1916905551339285917ff6391f5c32d9c69d2a47ea670b442974b53935d1edc7fd64eb21e047a839171b9190a45050565b6121986000336115aa565b610daa576040516282b42960e81b815260040160405180910390fd5b7f4910fdfa16fed3260ed0e7147f7cc6da11a60208b5b9406d12a635614ffd91435460ff16156121e757610c46836128f1565b826001600160a01b03166352d1902d6040518163ffffffff1660e01b8152600401602060405180830381865afa925050508015612241575060408051601f3d908101601f1916820190925261223e91810190613b95565b60015b6122a45760405162461bcd60e51b815260206004820152602e60248201527f45524331393637557067726164653a206e657720696d706c656d656e7461746960448201526d6f6e206973206e6f74205555505360901b6064820152608401610cb7565b600080516020613eb083398151915281146123135760405162461bcd60e51b815260206004820152602960248201527f45524331393637557067726164653a20756e737570706f727465642070726f786044820152681a58589b195555525160ba1b6064820152608401610cb7565b50610c4683838361298d565b600061090e826129b2565b600080808061206986866129bd565b6000610922836001600160a01b0384166129e8565b6001600160a01b03811660009081526001830160205260408120541515610922565b604080516001600160a01b0385811660248301528416604482015260648082018490528251808303909101815260849091019091526020810180516001600160e01b03166323b872dd60e01b1790526114d0908590612a37565b6060600061092283612b0c565b600082815260656020526040808220600101805490849055905190918391839186917fbd79b86ffe0ab8e8776151514217cd7cacd52c909f66475c3af44e129f0b00ff9190a4505050565b600054610100900460ff1661248d5760405162461bcd60e51b815260206004820152602b60248201527f496e697469616c697a61626c653a20636f6e7472616374206973206e6f74206960448201526a6e697469616c697a696e6760a81b6064820152608401610cb7565b565b6000610922836001600160a01b038416612b68565b60408051808201825260008082526020918201528151808301909252825182529182019181019190915290565b600080601f83602001516124e59190613bae565b83519091506000906124f790836139a6565b9050600092505b808210156125a357815160ff1660808110156125265761251f6001846139a6565b9250612590565b60e08160ff16101561253d5761251f6002846139a6565b60f08160ff1610156125545761251f6003846139a6565b60f88160ff16101561256b5761251f6004846139a6565b60fc8160ff1610156125825761251f6005846139a6565b61258d6006846139a6565b92505b508261259b8161398d565b9350506124fe565b5050919050565b6040805180820190915260008082526020820152611392838383612b85565b805182516060916000916125dd91906139a6565b6001600160401b038111156125f4576125f4613697565b6040519080825280601f01601f19166020018201604052801561261e576020820181803683370190505b509050600060208201905061263c8186602001518760000151612c1b565b8451610af29061264c90836139a6565b60208601518651612c1b565b6060600082600001516001600160401b0381111561267857612678613697565b6040519080825280601f01601f1916602001820160405280156126a2576020820181803683370190505b50905060006020820190506113928185602001518660000151612c1b565b60608160005b8151811015611392576126f88282815181106126e4576126e4613944565b01602001516001600160f81b031916612c95565b82828151811061270a5761270a613944565b60200101906001600160f81b031916908160001a9053508061272b8161398d565b9150506126c6565b606061090e6001600160a01b0383166014612ce4565b8251606090849061275a8585613c3b565b111561276857612768613c7c565b6000846001600160401b0381111561278257612782613697565b6040519080825280601f01601f1916602001820160405280156127ac576020820181803683370190505b509050806000855b6127be8888613c3b565b81101561282c578481815181106127d7576127d7613944565b01602001516001600160f81b03191683836127f18161398d565b94508151811061280357612803613944565b60200101906001600160f81b031916908160001a905350806128248161398d565b9150506127b4565b5090979650505050505050565b60008181526002830160205260408120548190806128685761285b8585612e7f565b9250600091506120719050565b600192509050612071565b509250929050565b6000828152600284016020526040812082905561208e8484612e8b565b6128a282826115aa565b610cca576128af81612e97565b6128ba836020612ea9565b6040516020016128cb929190613c92565b60408051601f198184030181529082905262461bcd60e51b8252610cb791600401613d07565b6001600160a01b0381163b61295e5760405162461bcd60e51b815260206004820152602d60248201527f455243313936373a206e657720696d706c656d656e746174696f6e206973206e60448201526c1bdd08184818dbdb9d1c9858dd609a1b6064820152608401610cb7565b600080516020613eb083398151915280546001600160a01b0319166001600160a01b0392909216919091179055565b61299683612ff5565b6000825111806129a35750805b15610c46576114d08383613035565b600061090e8261305a565b600080806129cb8585613064565b600081815260029690960160205260409095205494959350505050565b6000818152600183016020526040812054612a2f5750815460018181018455600084815260208082209093018490558454848252828601909352604090209190915561090e565b50600061090e565b6000612a8c826040518060400160405280602081526020017f5361666545524332303a206c6f772d6c6576656c2063616c6c206661696c6564815250856001600160a01b03166130709092919063ffffffff16565b9050805160001480612aad575080806020019051810190612aad9190613d1a565b610c465760405162461bcd60e51b815260206004820152602a60248201527f5361666545524332303a204552433230206f7065726174696f6e20646964206e6044820152691bdd081cdd58d8d9595960b21b6064820152608401610cb7565b606081600001805480602002602001604051908101604052809291908181526020018280548015612b5c57602002820191906000526020600020905b815481526020019060010190808311612b48575b50505050509050919050565b60008181526002830160205260408120819055610922838361307f565b60408051808201909152600080825260208201526000612bb7856000015186602001518660000151876020015161308b565b6020808501829052860151909150612bcf9082613bae565b8551612bdb9190613bae565b835260208501518103612bf15760008552612c12565b83518351612bff91906139a6565b85518690612c0e908390613bae565b9052505b50909392505050565b60208110612c535781518352612c326020846139a6565b9250612c3f6020836139a6565b9150612c4c602082613bae565b9050612c1b565b6000198115612c82576001612c69836020613bae565b612c7590610100613e18565b612c7f9190613bae565b90505b9151835183169219169190911790915250565b6000606160f81b6001600160f81b0319831610801590612cc35750603d60f91b6001600160f81b0319831611155b15612ce057612cd7602060f884901c613e24565b60f81b92915050565b5090565b60606000612cf3836002613e47565b612cfe9060026139a6565b6001600160401b03811115612d1557612d15613697565b6040519080825280601f01601f191660200182016040528015612d3f576020820181803683370190505b509050600360fc1b81600081518110612d5a57612d5a613944565b60200101906001600160f81b031916908160001a905350600f60fb1b81600181518110612d8957612d89613944565b60200101906001600160f81b031916908160001a9053506000612dad846002613e47565b612db89060016139a6565b90505b6001811115612e30576f181899199a1a9b1b9c1cb0b131b232b360811b85600f1660108110612dec57612dec613944565b1a60f81b828281518110612e0257612e02613944565b60200101906001600160f81b031916908160001a90535060049490941c93612e2981613e66565b9050612dbb565b5083156109225760405162461bcd60e51b815260206004820181905260248201527f537472696e67733a20686578206c656e67746820696e73756666696369656e746044820152606401610cb7565b6000610922838361319c565b600061092283836129e8565b606061090e6001600160a01b03831660145b60606000612eb8836002613e47565b612ec39060026139a6565b6001600160401b03811115612eda57612eda613697565b6040519080825280601f01601f191660200182016040528015612f04576020820181803683370190505b509050600360fc1b81600081518110612f1f57612f1f613944565b60200101906001600160f81b031916908160001a905350600f60fb1b81600181518110612f4e57612f4e613944565b60200101906001600160f81b031916908160001a9053506000612f72846002613e47565b612f7d9060016139a6565b90505b6001811115612e30576f181899199a1a9b1b9c1cb0b131b232b360811b85600f1660108110612fb157612fb1613944565b1a60f81b828281518110612fc757612fc7613944565b60200101906001600160f81b031916908160001a90535060049490941c93612fee81613e66565b9050612f80565b612ffe816128f1565b6040516001600160a01b038216907fbc7cd75a20ee27fd9adebab32041f755214dbc6bffa90cc0225b39da2e5c2d3b90600090a250565b60606109228383604051806060016040528060278152602001613ef0602791396131b4565b600061090e825490565b6000610922838361322c565b606061208e8484600085613256565b60006109228383613331565b600080858411613192576020841161313e57600084156130d65760016130b2866020613bae565b6130bd906008613e47565b6130c8906002613e18565b6130d29190613bae565b1990505b83518116856130e589896139a6565b6130ef9190613bae565b805190935082165b81811461312957878411613111578794505050505061208e565b8361311b81613e66565b9450508284511690506130f7565b61313387856139a6565b94505050505061208e565b83832061314b8588613bae565b61315590876139a6565b91505b8582106131905784822080820361317d5761317386846139a6565b935050505061208e565b613188600184613bae565b925050613158565b505b5092949350505050565b60008181526001830160205260408120541515610922565b6060600080856001600160a01b0316856040516131d19190613e7d565b600060405180830381855af49150503d806000811461320c576040519150601f19603f3d011682016040523d82523d6000602084013e613211565b606091505b509150915061322286838387613424565b9695505050505050565b600082600001828154811061324357613243613944565b9060005260206000200154905092915050565b6060824710156132b75760405162461bcd60e51b815260206004820152602660248201527f416464726573733a20696e73756666696369656e742062616c616e636520666f6044820152651c8818d85b1b60d21b6064820152608401610cb7565b600080866001600160a01b031685876040516132d39190613e7d565b60006040518083038185875af1925050503d8060008114613310576040519150601f19603f3d011682016040523d82523d6000602084013e613315565b606091505b509150915061332687838387613424565b979650505050505050565b6000818152600183016020526040812054801561341a576000613355600183613bae565b855490915060009061336990600190613bae565b90508181146133ce57600086600001828154811061338957613389613944565b90600052602060002001549050808760000184815481106133ac576133ac613944565b6000918252602080832090910192909255918252600188019052604090208390555b85548690806133df576133df613e99565b60019003818190600052602060002001600090559055856001016000868152602001908152602001600020600090556001935050505061090e565b600091505061090e565b6060831561349357825160000361348c576001600160a01b0385163b61348c5760405162461bcd60e51b815260206004820152601d60248201527f416464726573733a2063616c6c20746f206e6f6e2d636f6e74726163740000006044820152606401610cb7565b508161208e565b61208e83838151156134a85781518083602001fd5b8060405162461bcd60e51b8152600401610cb79190613d07565b6000602082840312156134d457600080fd5b81356001600160e01b03198116811461092257600080fd5b6001600160a01b0381168114610daa57600080fd5b60006020828403121561351357600080fd5b8135610922816134ec565b60006020828403121561353057600080fd5b5035919050565b6000806020838503121561354a57600080fd5b82356001600160401b038082111561356157600080fd5b818501915085601f83011261357557600080fd5b81358181111561358457600080fd5b8660208260051b850101111561359957600080fd5b60209290920196919550909350505050565b6020808252825182820181905260009190848201906040850190845b818110156135ec5783516001600160a01b0316835292840192918401916001016135c7565b50909695505050505050565b60008060006060848603121561360d57600080fd5b8335613618816134ec565b92506020840135613628816134ec565b929592945050506040919091013590565b6000806040838503121561364c57600080fd5b82359150602083013561365e816134ec565b809150509250929050565b6000806040838503121561367c57600080fd5b8235613687816134ec565b9150602083013561365e816134ec565b634e487b7160e01b600052604160045260246000fd5b604051601f8201601f191681016001600160401b03811182821017156136d5576136d5613697565b604052919050565b60006001600160401b038211156136f6576136f6613697565b50601f01601f191660200190565b6000806040838503121561371757600080fd5b8235613722816134ec565b915060208301356001600160401b0381111561373d57600080fd5b8301601f8101851361374e57600080fd5b803561376161375c826136dd565b6136ad565b81815286602083850101111561377657600080fd5b816020840160208301376000602083830101528093505050509250929050565b6000806000606084860312156137ab57600080fd5b83356137b6816134ec565b925060208401356137c6816134ec565b915060408401356137d6816134ec565b809150509250925092565b60008060008060008060008060006101208a8c03121561380057600080fd5b893561380b816134ec565b985060208a013561381b816134ec565b975060408a013561382b816134ec565b965060608a0135955060808a0135945060a08a0135935060c08a0135613850816134ec565b925060e08a0135613860816134ec565b91506101008a0135613871816134ec565b809150509295985092959850929598565b60005b8381101561389d578181015183820152602001613885565b838111156114d05750506000910152565b600081518084526138c6816020860160208601613882565b601f01601f19169290920160200192915050565b6020815260008251608060208401526138f660a08401826138ae565b90506020840151601f1984830301604085015261391382826138ae565b60408601516001600160a01b0390811660608781019190915290960151909516608090940193909352509192915050565b634e487b7160e01b600052603260045260246000fd5b60006020828403121561396c57600080fd5b8151610922816134ec565b634e487b7160e01b600052601160045260246000fd5b60006001820161399f5761399f613977565b5060010190565b600082198211156139b9576139b9613977565b500190565b6020808252602c908201527f46756e6374696f6e206d7573742062652063616c6c6564207468726f7567682060408201526b19195b1959d85d1958d85b1b60a21b606082015260800190565b6020808252602c908201527f46756e6374696f6e206d7573742062652063616c6c6564207468726f7567682060408201526b6163746976652070726f787960a01b606082015260800190565b600181811c90821680613a6a57607f821691505b602082108103613a8a57634e487b7160e01b600052602260045260246000fd5b50919050565b601f821115610c4657600081815260208120601f850160051c81016020861015613ab75750805b601f850160051c820191505b81811015610c1957828155600101613ac3565b81516001600160401b03811115613aef57613aef613697565b613b0381613afd8454613a56565b84613a90565b602080601f831160018114613b385760008415613b205750858301515b600019600386901b1c1916600185901b178555610c19565b600085815260208120601f198616915b82811015613b6757888601518255948401946001909101908401613b48565b5085821015613b855787850151600019600388901b60f8161c191681555b5050505050600190811b01905550565b600060208284031215613ba757600080fd5b5051919050565b600082821015613bc057613bc0613977565b500390565b600060208284031215613bd757600080fd5b81516001600160401b03811115613bed57600080fd5b8201601f81018413613bfe57600080fd5b8051613c0c61375c826136dd565b818152856020838501011115613c2157600080fd5b613c32826020830160208601613882565b95945050505050565b600080821280156001600160ff1b0384900385131615613c5d57613c5d613977565b600160ff1b8390038412811615613c7657613c76613977565b50500190565b634e487b7160e01b600052600160045260246000fd5b7f416363657373436f6e74726f6c3a206163636f756e7420000000000000000000815260008351613cca816017850160208801613882565b7001034b99036b4b9b9b4b733903937b6329607d1b6017918401918201528351613cfb816028840160208801613882565b01602801949350505050565b60208152600061092260208301846138ae565b600060208284031215613d2c57600080fd5b8151801515811461092257600080fd5b600181815b80851115612873578160001904821115613d5d57613d5d613977565b80851615613d6a57918102915b93841c9390800290613d41565b600082613d865750600161090e565b81613d935750600061090e565b8160018114613da95760028114613db357613dcf565b600191505061090e565b60ff841115613dc457613dc4613977565b50506001821b61090e565b5060208310610133831016604e8410600b8410161715613df2575081810a61090e565b613dfc8383613d3c565b8060001904821115613e1057613e10613977565b029392505050565b60006109228383613d77565b600060ff821660ff841680821015613e3e57613e3e613977565b90039392505050565b6000816000190483118215151615613e6157613e61613977565b500290565b600081613e7557613e75613977565b506000190190565b60008251613e8f818460208701613882565b9190910192915050565b634e487b7160e01b600052603160045260246000fdfe360894a13ba1a3210667c828492db98dca3e2076cc3735a920a3ca505d382bbcb6e1aa954ca88134dedc447027c8ef72953bf046c847542dd28babf3f8d9092f416464726573733a206c6f772d6c6576656c2064656c65676174652063616c6c206661696c6564dc0c909fa3135f9237d8a966b8b184ead9db0c05d73609dcb237ff6a00b0717ba26469706673582212208d712a10db574b58d6e9a978831325c875e6fb50a43023b6936a1a8645bd5e1064736f6c634300080f0033",
    "linkReferences": {}
  },
  "methodIdentifiers": {
    "DEFAULT_ADMIN_ROLE()": "a217fddf",
    "ENS_SETTER_ROLE()": "c2544987",
    "STAKING_CONFIG_SETTER_ROLE()": "a4303a45",
    "STAKING_INFO_SETTER_ROLE()": "265718b4",
    "STAKING_STAT_SETTER_ADMIN_ROLE()": "29b4a590",
    "STAKING_STAT_SETTER_ROLE()": "66951bc1",
    "SWAP_POOL_SETTER_ROLE()": "363227e5",
    "decreaseAmountStaked(address,address,uint256)": "cac7c65c",
    "getAllStakedOn()": "afda0dda",
    "getAllStakers()": "6e4f88c8",
    "getAllStakingContracts()": "b3a96ead",
    "getClaimerPercentage(address)": "d8f03c7f",
    "getDefaultPayee()": "10da95e6",
    "getDeflationaryPercentage()": "f7ef8ead",
    "getDiscountPercentage()": "111029b9",
    "getPeriodLength()": "8469ddc7",
    "getRareAddress()": "2210d525",
    "getRoleAdmin(bytes32)": "248a9ca3",
    "getStakeePercentage(address)": "399ebbe5",
    "getStakingInfoForUser(address)": "f24bd8a6",
    "getSwapPool(address)": "039bcf8e",
    "getTotalAmountStakedByUser(address)": "06c571d5",
    "getTotalAmountStakedOnUser(address)": "3d867d95",
    "getUsersForStakingAddresses(address[])": "18ab58ac",
    "getWethAddress()": "23a7b42a",
    "grantRole(bytes32,address)": "2f2ff15d",
    "hasRole(bytes32,address)": "91d14854",
    "increaseAmountStaked(address,address,uint256)": "2608ff35",
    "initialize(address,address,address,uint256,uint256,uint256,address,address,address)": "bb0544a1",
    "proxiableUUID()": "52d1902d",
    "renounceRole(bytes32,address)": "36568abe",
    "revokeRole(bytes32,address)": "d547741f",
    "setClaimerPercentage(uint256)": "125cb67c",
    "setDefaultPayee(address)": "99247be7",
    "setDeflationaryPercentage(uint256)": "cb8af2b5",
    "setDiscountPercentage(uint256)": "b3428d15",
    "setPeriodLength(uint256)": "1c5633d7",
    "setResolver(address)": "4e543b26",
    "setReverseRegistrar(address)": "557499ba",
    "setStakeePercentage(uint256)": "562b94c4",
    "setStakingAddresses(address,address,address)": "76a250a7",
    "setSwapPool(address,address)": "46ccbb40",
    "supportsInterface(bytes4)": "01ffc9a7",
    "transferRareTo(address,address,uint256)": "7d6380b7",
    "upgradeTo(address)": "3659cfe6",
    "upgradeToAndCall(address,bytes)": "4f1ef286"
  },
  "id": 112
}