{
  "abi": [
    {
      "anonymous": false,
      "inputs": [
        {
          "indexed": false,
          "internalType": "address",
          "name": "previousAdmin",
          "type": "address"
        },
        {
          "indexed": false,
          "internalType": "address",
          "name": "newAdmin",
          "type": "address"
        }
      ],
      "name": "AdminChanged",
      "type": "event"
    },
    {
      "anonymous": false,
      "inputs": [
        {
          "indexed": true,
          "internalType": "address",
          "name": "beacon",
          "type": "address"
        }
      ],
      "name": "BeaconUpgraded",
      "type": "event"
    },
    {
      "anonymous": false,
      "inputs": [
        {
          "indexed": false,
          "internalType": "uint8",
          "name": "version",
          "type": "uint8"
        }
      ],
      "name": "Initialized",
      "type": "event"
    },
    {
      "anonymous": false,
      "inputs": [
        {
          "indexed": true,
          "internalType": "address",
          "name": "previousOwner",
          "type": "address"
        },
        {
          "indexed": true,
          "internalType": "address",
          "name": "newOwner",
          "type": "address"
        }
      ],
      "name": "OwnershipTransferred",
      "type": "event"
    },
    {
      "anonymous": false,
      "inputs": [
        {
          "indexed": true,
          "internalType": "address",
          "name": "_deployingUser",
          "type": "address"
        },
        {
          "indexed": true,
          "internalType": "address",
          "name": "_userStakedOn",
          "type": "address"
        },
        {
          "indexed": true,
          "internalType": "address",
          "name": "_stakingAddress",
          "type": "address"
        }
      ],
      "name": "StakingContractCreated",
      "type": "event"
    },
    {
      "anonymous": false,
      "inputs": [
        {
          "indexed": true,
          "internalType": "address",
          "name": "implementation",
          "type": "address"
        }
      ],
      "name": "Upgraded",
      "type": "event"
    },
    {
      "inputs": [
        {
          "internalType": "address",
          "name": "_user",
          "type": "address"
        }
      ],
      "name": "deployStaking",
      "outputs": [
        {
          "internalType": "address",
          "name": "",
          "type": "address"
        }
      ],
      "stateMutability": "nonpayable",
      "type": "function"
    },
    {
      "inputs": [],
      "name": "getRareStakingTemplateAddress",
      "outputs": [
        {
          "internalType": "address",
          "name": "",
          "type": "address"
        }
      ],
      "stateMutability": "view",
      "type": "function"
    },
    {
      "inputs": [],
      "name": "getStakingRegistryAddress",
      "outputs": [
        {
          "internalType": "address",
          "name": "",
          "type": "address"
        }
      ],
      "stateMutability": "view",
      "type": "function"
    },
    {
      "inputs": [],
      "name": "implementation",
      "outputs": [
        {
          "internalType": "address",
          "name": "",
          "type": "address"
        }
      ],
      "stateMutability": "view",
      "type": "function"
    },
    {
      "inputs": [
        {
          "internalType": "address",
          "name": "_stakingRegistry",
          "type": "address"
        },
        {
          "internalType": "address",
          "name": "_rareStakingTemplate",
          "type": "address"
        },
        {
          "internalType": "address",
          "name": "_rewardSwapFactory",
          "type": "address"
        },
        {
          "internalType": "address",
          "name": "_newOwner",
          "type": "address"
        }
      ],
      "name": "initialize",
      "outputs": [],
      "stateMutability": "nonpayable",
      "type": "function"
    },
    {
      "inputs": [],
      "name": "owner",
      "outputs": [
        {
          "internalType": "address",
          "name": "",
          "type": "address"
        }
      ],
      "stateMutability": "view",
      "type": "function"
    },
    {
      "inputs": [],
      "name": "proxiableUUID",
      "outputs": [
        {
          "internalType": "bytes32",
          "name": "",
          "type": "bytes32"
        }
      ],
      "stateMutability": "view",
      "type": "function"
    },
    {
      "inputs": [],
      "name": "renounceOwnership",
      "outputs": [],
      "stateMutability": "nonpayable",
      "type": "function"
    },
    {
      "inputs": [
        {
          "internalType": "address",
          "name": "_rareStakingTemplate",
          "type": "address"
        }
      ],
      "name": "setRareStakingTemplate",
      "outputs": [],
      "stateMutability": "nonpayable",
      "type": "function"
    },
    {
      "inputs": [
        {
          "internalType": "address",
          "name": "_stakingRegistry",
          "type": "address"
        }
      ],
      "name": "setStakingRegistry",
      "outputs": [],
      "stateMutability": "nonpayable",
      "type": "function"
    },
    {
      "inputs": [
        {
          "internalType": "address",
          "name": "newOwner",
          "type": "address"
        }
      ],
      "name": "transferOwnership",
      "outputs": [],
      "stateMutability": "nonpayable",
      "type": "function"
    },
    {
      "inputs": [
        {
          "internalType": "address",
          "name": "newImplementation",
          "type": "address"
        }
      ],
      "name": "upgradeTo",
      "outputs": [],
      "stateMutability": "nonpayable",
      "type": "function"
    },
    {
      "inputs": [
        {
          "internalType": "address",
          "name": "newImplementation",
          "type": "address"
        },
        {
          "internalType": "bytes",
          "name": "data",
          "type": "bytes"
        }
      ],
      "name": "upgradeToAndCall",
      "outputs": [],
      "stateMutability": "payable",
      "type": "function"
    }
  ],
  "bytecode": {
    "object": "0x60a06040523060805234801561001457600080fd5b5060805161213661004c600039600081816107c501528181610808015281816108b0015281816108f3015261098f01526121366000f3fe608060405260043610620000d25760003560e01c8063715018a611620000895780639f997eb011620000605780639f997eb01462000220578063c8cb01d814620001a3578063f2fde38b1462000240578063f8c8765e146200026557600080fd5b8063715018a614620001c35780637ed155de14620001db5780638da5cb5b146200020057600080fd5b80631249ed2314620000d75780632c74084414620001195780633659cfe614620001405780634f1ef286146200016557806352d1902d146200017c5780635c60da1b14620001a3575b600080fd5b348015620000e457600080fd5b50620000fc620000f636600462001467565b6200028a565b6040516001600160a01b0390911681526020015b60405180910390f35b3480156200012657600080fd5b506200013e6200013836600462001467565b6200062e565b005b3480156200014d57600080fd5b506200013e6200015f36600462001467565b620007bb565b6200013e620001763660046200149d565b620008a6565b3480156200018957600080fd5b506200019462000982565b60405190815260200162000110565b348015620001b057600080fd5b5060cb546001600160a01b0316620000fc565b348015620001d057600080fd5b506200013e62000a38565b348015620001e857600080fd5b506200013e620001fa36600462001467565b62000a50565b3480156200020d57600080fd5b506033546001600160a01b0316620000fc565b3480156200022d57600080fd5b5060c9546001600160a01b0316620000fc565b3480156200024d57600080fd5b506200013e6200025f36600462001467565b62000b06565b3480156200027257600080fd5b506200013e620002843660046200156d565b62000b82565b60006001600160a01b038216620002fc5760405162461bcd60e51b815260206004820152602b60248201527f6465706c6f795374616b696e673a3a5f757365722063616e6e6f74206265207a60448201526a65726f206164647265737360a81b60648201526084015b60405180910390fd5b60003063f8c8765e60e01b60c960009054906101000a90046001600160a01b03166001600160a01b0316632210d5256040518163ffffffff1660e01b8152600401602060405180830381865afa1580156200035b573d6000803e3d6000fd5b505050506040513d601f19601f82011682018060405250810190620003819190620015d2565b60c9546040516001600160a01b03928316602482015282881660448201529116606482015233608482015260a40160408051601f198184030181529181526020820180516001600160e01b03166001600160e01b0319909416939093179092529051620003ee9062001443565b620003fb9291906200164f565b604051809103906000f08015801562000418573d6000803e3d6000fd5b5060ca5460405163399fe9a160e11b81526001600160a01b0380841660048301529293506000929091169063733fd342906024016020604051808303816000875af11580156200046c573d6000803e3d6000fd5b505050506040513d601f19601f82011682018060405250810190620004929190620015d2565b60c9546040516376a250a760e01b81526001600160a01b038781166004830152858116602483015280841660448301529293509116906376a250a790606401600060405180830381600087803b158015620004ec57600080fd5b505af115801562000501573d6000803e3d6000fd5b50505050600060c960009054906101000a90046001600160a01b03166001600160a01b03166366951bc16040518163ffffffff1660e01b8152600401602060405180830381865afa1580156200055b573d6000803e3d6000fd5b505050506040513d601f19601f8201168201806040525081019062000581919062001675565b60c954604051632f2ff15d60e01b8152600481018390526001600160a01b038681166024830152929350911690632f2ff15d90604401600060405180830381600087803b158015620005d257600080fd5b505af1158015620005e7573d6000803e3d6000fd5b50506040516001600160a01b0380871693508816915033907f4a2dd45842063d5cdb0ba4ccb3b677af33701f706cdfa90ddf5fe291e6f9987890600090a450909392505050565b6200063862000f31565b6001600160a01b038116620006b65760405162461bcd60e51b815260206004820152603b60248201527f7365745374616b696e6752656769737472793a3a5f7374616b696e675265676960448201527f737472792063616e6e6f74206265207a65726f206164647265737300000000006064820152608401620002f3565b60ca54604080516309f997eb60e41b815290516001600160a01b03808516931691639f997eb09160048083019260209291908290030181865afa15801562000702573d6000803e3d6000fd5b505050506040513d601f19601f82011682018060405250810190620007289190620015d2565b6001600160a01b031614620007995760405162461bcd60e51b815260206004820152603060248201527f7365745374616b696e6752656769737472793a3a5374616b696e67526567697360448201526f0e8e4d2cae640daeae6e840dac2e8c6d60831b6064820152608401620002f3565b60c980546001600160a01b0319166001600160a01b0392909216919091179055565b6001600160a01b037f0000000000000000000000000000000000000000000000000000000000000000163003620008065760405162461bcd60e51b8152600401620002f3906200168f565b7f00000000000000000000000000000000000000000000000000000000000000006001600160a01b031662000851600080516020620020ba833981519152546001600160a01b031690565b6001600160a01b0316146200087a5760405162461bcd60e51b8152600401620002f390620016db565b620008858162000f8d565b60408051600080825260208201909252620008a39183919062000f97565b50565b6001600160a01b037f0000000000000000000000000000000000000000000000000000000000000000163003620008f15760405162461bcd60e51b8152600401620002f3906200168f565b7f00000000000000000000000000000000000000000000000000000000000000006001600160a01b03166200093c600080516020620020ba833981519152546001600160a01b031690565b6001600160a01b031614620009655760405162461bcd60e51b8152600401620002f390620016db565b620009708262000f8d565b6200097e8282600162000f97565b5050565b6000306001600160a01b037f0000000000000000000000000000000000000000000000000000000000000000161462000a245760405162461bcd60e51b815260206004820152603860248201527f555550535570677261646561626c653a206d757374206e6f742062652063616c60448201527f6c6564207468726f7567682064656c656761746563616c6c00000000000000006064820152608401620002f3565b50600080516020620020ba83398151915290565b62000a4262000f31565b62000a4e600062001114565b565b62000a5a62000f31565b6001600160a01b03811662000ae45760405162461bcd60e51b815260206004820152604360248201527f736574526172655374616b696e6754656d706c6174653a3a5f7261726553746160448201527f6b696e6754656d706c6174652063616e6e6f74206265207a65726f206164647260648201526265737360e81b608482015260a401620002f3565b60cb80546001600160a01b0319166001600160a01b0392909216919091179055565b62000b1062000f31565b6001600160a01b03811662000b775760405162461bcd60e51b815260206004820152602660248201527f4f776e61626c653a206e6577206f776e657220697320746865207a65726f206160448201526564647265737360d01b6064820152608401620002f3565b620008a38162001114565b600054610100900460ff161580801562000ba35750600054600160ff909116105b8062000bbf5750303b15801562000bbf575060005460ff166001145b62000c245760405162461bcd60e51b815260206004820152602e60248201527f496e697469616c697a61626c653a20636f6e747261637420697320616c72656160448201526d191e481a5b9a5d1a585b1a5e995960921b6064820152608401620002f3565b6000805460ff19166001179055801562000c48576000805461ff0019166101001790555b6001600160a01b03851662000cbc5760405162461bcd60e51b815260206004820152603360248201527f696e697469616c697a653a3a5f7374616b696e6752656769737472792063616e6044820152726e6f74206265207a65726f206164647265737360681b6064820152608401620002f3565b6001600160a01b03841662000d3a5760405162461bcd60e51b815260206004820152603760248201527f696e697469616c697a653a3a5f726172655374616b696e6754656d706c61746560448201527f2063616e6e6f74206265207a65726f20616464726573730000000000000000006064820152608401620002f3565b6001600160a01b03831662000db05760405162461bcd60e51b815260206004820152603560248201527f696e697469616c697a653a3a5f72657761726453776170466163746f72792063604482015274616e6e6f74206265207a65726f206164647265737360581b6064820152608401620002f3565b60ca80546001600160a01b0319166001600160a01b03858116918217909255604080516309f997eb60e41b8152905192881692639f997eb0916004808201926020929091908290030181865afa15801562000e0f573d6000803e3d6000fd5b505050506040513d601f19601f8201168201806040525081019062000e359190620015d2565b6001600160a01b03161462000e9e5760405162461bcd60e51b815260206004820152602860248201527f696e697469616c697a653a3a5374616b696e6752656769737472696573206d756044820152670e6e840dac2e8c6d60c31b6064820152608401620002f3565b60cb80546001600160a01b038087166001600160a01b03199283161790925560c980549288169290911691909117905562000ed862001166565b62000ee38262001114565b801562000f2a576000805461ff0019169055604051600181527f7f26b83ff96e1f2b6a682f133852f6798a09c465da95921460cefb38474024989060200160405180910390a15b5050505050565b6033546001600160a01b0316331462000a4e5760405162461bcd60e51b815260206004820181905260248201527f4f776e61626c653a2063616c6c6572206973206e6f7420746865206f776e65726044820152606401620002f3565b620008a362000f31565b7f4910fdfa16fed3260ed0e7147f7cc6da11a60208b5b9406d12a635614ffd91435460ff161562000fd25762000fcd836200119a565b505050565b826001600160a01b03166352d1902d6040518163ffffffff1660e01b8152600401602060405180830381865afa9250505080156200102f575060408051601f3d908101601f191682019092526200102c9181019062001675565b60015b620010945760405162461bcd60e51b815260206004820152602e60248201527f45524331393637557067726164653a206e657720696d706c656d656e7461746960448201526d6f6e206973206e6f74205555505360901b6064820152608401620002f3565b600080516020620020ba8339815191528114620011065760405162461bcd60e51b815260206004820152602960248201527f45524331393637557067726164653a20756e737570706f727465642070726f786044820152681a58589b195555525160ba1b6064820152608401620002f3565b5062000fcd83838362001239565b603380546001600160a01b038381166001600160a01b0319831681179093556040519116919082907f8be0079c531659141344cd1fd0a4f28419497f9722a3daafe3b4186f6b6457e090600090a35050565b600054610100900460ff16620011905760405162461bcd60e51b8152600401620002f39062001727565b62000a4e6200126a565b6001600160a01b0381163b620012095760405162461bcd60e51b815260206004820152602d60248201527f455243313936373a206e657720696d706c656d656e746174696f6e206973206e60448201526c1bdd08184818dbdb9d1c9858dd609a1b6064820152608401620002f3565b600080516020620020ba83398151915280546001600160a01b0319166001600160a01b0392909216919091179055565b62001244836200129f565b600082511180620012525750805b1562000fcd57620012648383620012e1565b50505050565b600054610100900460ff16620012945760405162461bcd60e51b8152600401620002f39062001727565b62000a4e3362001114565b620012aa816200119a565b6040516001600160a01b038216907fbc7cd75a20ee27fd9adebab32041f755214dbc6bffa90cc0225b39da2e5c2d3b90600090a250565b6060620013098383604051806060016040528060278152602001620020da6027913962001310565b9392505050565b6060600080856001600160a01b0316856040516200132f919062001772565b600060405180830381855af49150503d80600081146200136c576040519150601f19603f3d011682016040523d82523d6000602084013e62001371565b606091505b509150915062001384868383876200138e565b9695505050505050565b6060831562001402578251600003620013fa576001600160a01b0385163b620013fa5760405162461bcd60e51b815260206004820152601d60248201527f416464726573733a2063616c6c20746f206e6f6e2d636f6e74726163740000006044820152606401620002f3565b50816200140e565b6200140e838362001416565b949350505050565b815115620014275781518083602001fd5b8060405162461bcd60e51b8152600401620002f3919062001790565b61091480620017a683390190565b6001600160a01b0381168114620008a357600080fd5b6000602082840312156200147a57600080fd5b8135620013098162001451565b634e487b7160e01b600052604160045260246000fd5b60008060408385031215620014b157600080fd5b8235620014be8162001451565b9150602083013567ffffffffffffffff80821115620014dc57600080fd5b818501915085601f830112620014f157600080fd5b81358181111562001506576200150662001487565b604051601f8201601f19908116603f0116810190838211818310171562001531576200153162001487565b816040528281528860208487010111156200154b57600080fd5b8260208601602083013760006020848301015280955050505050509250929050565b600080600080608085870312156200158457600080fd5b8435620015918162001451565b93506020850135620015a38162001451565b92506040850135620015b58162001451565b91506060850135620015c78162001451565b939692955090935050565b600060208284031215620015e557600080fd5b8151620013098162001451565b60005b838110156200160f578181015183820152602001620015f5565b83811115620012645750506000910152565b600081518084526200163b816020860160208601620015f2565b601f01601f19169290920160200192915050565b6001600160a01b03831681526040602082018190526000906200140e9083018462001621565b6000602082840312156200168857600080fd5b5051919050565b6020808252602c908201527f46756e6374696f6e206d7573742062652063616c6c6564207468726f7567682060408201526b19195b1959d85d1958d85b1b60a21b606082015260800190565b6020808252602c908201527f46756e6374696f6e206d7573742062652063616c6c6564207468726f7567682060408201526b6163746976652070726f787960a01b606082015260800190565b6020808252602b908201527f496e697469616c697a61626c653a20636f6e7472616374206973206e6f74206960408201526a6e697469616c697a696e6760a81b606082015260800190565b6000825162001786818460208701620015f2565b9190910192915050565b6020815260006200130960208301846200162156fe608060405260405161091438038061091483398101604081905261002291610463565b61002e82826000610035565b505061058d565b61003e83610100565b6040516001600160a01b038416907f1cf3b03a6cf19fa2baba4df148e9dcabedea7f8a5c07840e207e5c089be95d3e90600090a260008251118061007f5750805b156100fb576100f9836001600160a01b0316635c60da1b6040518163ffffffff1660e01b8152600401602060405180830381865afa1580156100c5573d6000803e3d6000fd5b505050506040513d601f19601f820116820180604052508101906100e99190610523565b836102a360201b6100291760201c565b505b505050565b610113816102cf60201b6100551760201c565b6101725760405162461bcd60e51b815260206004820152602560248201527f455243313936373a206e657720626561636f6e206973206e6f74206120636f6e6044820152641d1c9858dd60da1b60648201526084015b60405180910390fd5b6101e6816001600160a01b0316635c60da1b6040518163ffffffff1660e01b8152600401602060405180830381865afa1580156101b3573d6000803e3d6000fd5b505050506040513d601f19601f820116820180604052508101906101d79190610523565b6102cf60201b6100551760201c565b61024b5760405162461bcd60e51b815260206004820152603060248201527f455243313936373a20626561636f6e20696d706c656d656e746174696f6e206960448201526f1cc81b9bdd08184818dbdb9d1c9858dd60821b6064820152608401610169565b806102827fa3f0ad74e5423aebfd80d3ef4346578335a9a72aeaee59ff6cb3582b35133d5060001b6102de60201b6100641760201c565b80546001600160a01b0319166001600160a01b039290921691909117905550565b60606102c883836040518060600160405280602781526020016108ed602791396102e1565b9392505050565b6001600160a01b03163b151590565b90565b6060600080856001600160a01b0316856040516102fe919061053e565b600060405180830381855af49150503d8060008114610339576040519150601f19603f3d011682016040523d82523d6000602084013e61033e565b606091505b5090925090506103508683838761035a565b9695505050505050565b606083156103c95782516000036103c2576001600160a01b0385163b6103c25760405162461bcd60e51b815260206004820152601d60248201527f416464726573733a2063616c6c20746f206e6f6e2d636f6e74726163740000006044820152606401610169565b50816103d3565b6103d383836103db565b949350505050565b8151156103eb5781518083602001fd5b8060405162461bcd60e51b8152600401610169919061055a565b80516001600160a01b038116811461041c57600080fd5b919050565b634e487b7160e01b600052604160045260246000fd5b60005b8381101561045257818101518382015260200161043a565b838111156100f95750506000910152565b6000806040838503121561047657600080fd5b61047f83610405565b60208401519092506001600160401b038082111561049c57600080fd5b818501915085601f8301126104b057600080fd5b8151818111156104c2576104c2610421565b604051601f8201601f19908116603f011681019083821181831017156104ea576104ea610421565b8160405282815288602084870101111561050357600080fd5b610514836020830160208801610437565b80955050505050509250929050565b60006020828403121561053557600080fd5b6102c882610405565b60008251610550818460208701610437565b9190910192915050565b6020815260008251806020840152610579816040850160208701610437565b601f01601f19169190910160400192915050565b6103518061059c6000396000f3fe60806040523661001357610011610017565b005b6100115b610027610022610067565b610100565b565b606061004e83836040518060600160405280602781526020016102f560279139610124565b9392505050565b6001600160a01b03163b151590565b90565b600061009a7fa3f0ad74e5423aebfd80d3ef4346578335a9a72aeaee59ff6cb3582b35133d50546001600160a01b031690565b6001600160a01b0316635c60da1b6040518163ffffffff1660e01b8152600401602060405180830381865afa1580156100d7573d6000803e3d6000fd5b505050506040513d601f19601f820116820180604052508101906100fb919061024c565b905090565b3660008037600080366000845af43d6000803e80801561011f573d6000f35b3d6000fd5b6060600080856001600160a01b03168560405161014191906102a5565b600060405180830381855af49150503d806000811461017c576040519150601f19603f3d011682016040523d82523d6000602084013e610181565b606091505b50915091506101928683838761019c565b9695505050505050565b60608315610210578251600003610209576001600160a01b0385163b6102095760405162461bcd60e51b815260206004820152601d60248201527f416464726573733a2063616c6c20746f206e6f6e2d636f6e747261637400000060448201526064015b60405180910390fd5b508161021a565b61021a8383610222565b949350505050565b8151156102325781518083602001fd5b8060405162461bcd60e51b815260040161020091906102c1565b60006020828403121561025e57600080fd5b81516001600160a01b038116811461004e57600080fd5b60005b83811015610290578181015183820152602001610278565b8381111561029f576000848401525b50505050565b600082516102b7818460208701610275565b9190910192915050565b60208152600082518060208401526102e0816040850160208701610275565b601f01601f1916919091016040019291505056fe416464726573733a206c6f772d6c6576656c2064656c65676174652063616c6c206661696c6564a264697066735822122052aa7b706638253994753d44b5f7903e95850a17bddcd3f1d819a939a9d1023f64736f6c634300080f0033416464726573733a206c6f772d6c6576656c2064656c65676174652063616c6c206661696c6564360894a13ba1a3210667c828492db98dca3e2076cc3735a920a3ca505d382bbc416464726573733a206c6f772d6c6576656c2064656c65676174652063616c6c206661696c6564a26469706673582212203390f32242ffb61da4a31527bd859272b039cf7b89ca438d8f7816c22714a50764736f6c634300080f0033",
    "linkReferences": {}
  },
  "methodIdentifiers": {
    "deployStaking(address)": "1249ed23",
    "getRareStakingTemplateAddress()": "c8cb01d8",
    "getStakingRegistryAddress()": "9f997eb0",
    "implementation()": "5c60da1b",
    "initialize(address,address,address,address)": "f8c8765e",
    "owner()": "8da5cb5b",
    "proxiableUUID()": "52d1902d",
    "renounceOwnership()": "715018a6",
    "setRareStakingTemplate(address)": "7ed155de",
    "setStakingRegistry(address)": "2c740844",
    "transferOwnership(address)": "f2fde38b",
    "upgradeTo(address)": "3659cfe6",
    "upgradeToAndCall(address,bytes)": "4f1ef286"
  },
  "id": 109
}