{
  "abi": [
    {
      "inputs": [],
      "name": "CannotAddZeroRewards",
      "type": "error"
    },
    {
      "inputs": [],
      "name": "CannotClaimCurrentRound",
      "type": "error"
    },
    {
      "inputs": [],
      "name": "ClaimingTooManyRounds",
      "type": "error"
    },
    {
      "inputs": [],
      "name": "ClaimingZeroRounds",
      "type": "error"
    },
    {
      "inputs": [],
      "name": "InsufficientStakedRare",
      "type": "error"
    },
    {
      "inputs": [],
      "name": "InsufficientSyntheticRare",
      "type": "error"
    },
    {
      "inputs": [],
      "name": "RewardAlreadyClaimed",
      "type": "error"
    },
    {
      "inputs": [],
      "name": "Unauthorized",
      "type": "error"
    },
    {
      "anonymous": false,
      "inputs": [
        {
          "indexed": true,
          "internalType": "address",
          "name": "_donor",
          "type": "address"
        },
        {
          "indexed": true,
          "internalType": "uint256",
          "name": "_round",
          "type": "uint256"
        },
        {
          "indexed": false,
          "internalType": "uint256",
          "name": "_amount",
          "type": "uint256"
        },
        {
          "indexed": false,
          "internalType": "uint256",
          "name": "_totalAmountAdded",
          "type": "uint256"
        },
        {
          "indexed": false,
          "internalType": "uint256",
          "name": "_newRoundRewardAmount",
          "type": "uint256"
        }
      ],
      "name": "AddRewards",
      "type": "event"
    },
    {
      "anonymous": false,
      "inputs": [
        {
          "indexed": true,
          "internalType": "address",
          "name": "owner",
          "type": "address"
        },
        {
          "indexed": true,
          "internalType": "address",
          "name": "spender",
          "type": "address"
        },
        {
          "indexed": false,
          "internalType": "uint256",
          "name": "value",
          "type": "uint256"
        }
      ],
      "name": "Approval",
      "type": "event"
    },
    {
      "anonymous": false,
      "inputs": [
        {
          "indexed": false,
          "internalType": "uint8",
          "name": "version",
          "type": "uint8"
        }
      ],
      "name": "Initialized",
      "type": "event"
    },
    {
      "anonymous": false,
      "inputs": [
        {
          "indexed": true,
          "internalType": "address",
          "name": "_msgSender",
          "type": "address"
        },
        {
          "indexed": true,
          "internalType": "address",
          "name": "_claimer",
          "type": "address"
        },
        {
          "indexed": false,
          "internalType": "uint256",
          "name": "_amountToStaker",
          "type": "uint256"
        },
        {
          "indexed": false,
          "internalType": "uint256",
          "name": "_amountToClaimer",
          "type": "uint256"
        },
        {
          "indexed": false,
          "internalType": "uint256",
          "name": "_amountToStakee",
          "type": "uint256"
        }
      ],
      "name": "RewardClaimed",
      "type": "event"
    },
    {
      "anonymous": false,
      "inputs": [
        {
          "indexed": false,
          "internalType": "uint256",
          "name": "id",
          "type": "uint256"
        }
      ],
      "name": "Snapshot",
      "type": "event"
    },
    {
      "anonymous": false,
      "inputs": [
        {
          "indexed": true,
          "internalType": "address",
          "name": "_staker",
          "type": "address"
        },
        {
          "indexed": false,
          "internalType": "uint256",
          "name": "_amountStaking",
          "type": "uint256"
        },
        {
          "indexed": false,
          "internalType": "uint256",
          "name": "_totalAmountStaked",
          "type": "uint256"
        },
        {
          "indexed": false,
          "internalType": "uint256",
          "name": "_amountSRareReceived",
          "type": "uint256"
        }
      ],
      "name": "Stake",
      "type": "event"
    },
    {
      "anonymous": false,
      "inputs": [
        {
          "indexed": false,
          "internalType": "uint256",
          "name": "_lastSnapshotTimestamp",
          "type": "uint256"
        },
        {
          "indexed": false,
          "internalType": "uint256",
          "name": "_currentSnapshotTimestamp",
          "type": "uint256"
        },
        {
          "indexed": false,
          "internalType": "uint256",
          "name": "_round",
          "type": "uint256"
        }
      ],
      "name": "StakingSnapshot",
      "type": "event"
    },
    {
      "anonymous": false,
      "inputs": [
        {
          "indexed": true,
          "internalType": "address",
          "name": "from",
          "type": "address"
        },
        {
          "indexed": true,
          "internalType": "address",
          "name": "to",
          "type": "address"
        },
        {
          "indexed": false,
          "internalType": "uint256",
          "name": "value",
          "type": "uint256"
        }
      ],
      "name": "Transfer",
      "type": "event"
    },
    {
      "anonymous": false,
      "inputs": [
        {
          "indexed": true,
          "internalType": "address",
          "name": "_staker",
          "type": "address"
        },
        {
          "indexed": false,
          "internalType": "uint256",
          "name": "_amountUnstaking",
          "type": "uint256"
        },
        {
          "indexed": false,
          "internalType": "uint256",
          "name": "_totalAmountStaked",
          "type": "uint256"
        },
        {
          "indexed": false,
          "internalType": "uint256",
          "name": "_amountRareBurned",
          "type": "uint256"
        },
        {
          "indexed": false,
          "internalType": "uint256",
          "name": "_amountSRareSold",
          "type": "uint256"
        }
      ],
      "name": "Unstake",
      "type": "event"
    },
    {
      "inputs": [
        {
          "internalType": "address",
          "name": "_donor",
          "type": "address"
        },
        {
          "internalType": "uint256",
          "name": "_amount",
          "type": "uint256"
        }
      ],
      "name": "addRewards",
      "outputs": [],
      "stateMutability": "nonpayable",
      "type": "function"
    },
    {
      "inputs": [
        {
          "internalType": "address",
          "name": "owner",
          "type": "address"
        },
        {
          "internalType": "address",
          "name": "spender",
          "type": "address"
        }
      ],
      "name": "allowance",
      "outputs": [
        {
          "internalType": "uint256",
          "name": "",
          "type": "uint256"
        }
      ],
      "stateMutability": "view",
      "type": "function"
    },
    {
      "inputs": [
        {
          "internalType": "address",
          "name": "spender",
          "type": "address"
        },
        {
          "internalType": "uint256",
          "name": "amount",
          "type": "uint256"
        }
      ],
      "name": "approve",
      "outputs": [
        {
          "internalType": "bool",
          "name": "",
          "type": "bool"
        }
      ],
      "stateMutability": "nonpayable",
      "type": "function"
    },
    {
      "inputs": [
        {
          "internalType": "address",
          "name": "account",
          "type": "address"
        }
      ],
      "name": "balanceOf",
      "outputs": [
        {
          "internalType": "uint256",
          "name": "",
          "type": "uint256"
        }
      ],
      "stateMutability": "view",
      "type": "function"
    },
    {
      "inputs": [
        {
          "internalType": "address",
          "name": "account",
          "type": "address"
        },
        {
          "internalType": "uint256",
          "name": "snapshotId",
          "type": "uint256"
        }
      ],
      "name": "balanceOfAt",
      "outputs": [
        {
          "internalType": "uint256",
          "name": "",
          "type": "uint256"
        }
      ],
      "stateMutability": "view",
      "type": "function"
    },
    {
      "inputs": [
        {
          "internalType": "uint256",
          "name": "_totalSRare",
          "type": "uint256"
        },
        {
          "internalType": "uint256",
          "name": "_stakedAmount",
          "type": "uint256"
        }
      ],
      "name": "calculatePurchaseReturn",
      "outputs": [
        {
          "internalType": "uint256",
          "name": "",
          "type": "uint256"
        }
      ],
      "stateMutability": "pure",
      "type": "function"
    },
    {
      "inputs": [
        {
          "internalType": "uint256",
          "name": "_totalSRareByUser",
          "type": "uint256"
        },
        {
          "internalType": "uint256",
          "name": "_totalRareStakedByUser",
          "type": "uint256"
        },
        {
          "internalType": "uint256",
          "name": "_unstakeAmount",
          "type": "uint256"
        }
      ],
      "name": "calculateSaleReturn",
      "outputs": [
        {
          "internalType": "uint256",
          "name": "",
          "type": "uint256"
        }
      ],
      "stateMutability": "pure",
      "type": "function"
    },
    {
      "inputs": [
        {
          "internalType": "address",
          "name": "_user",
          "type": "address"
        },
        {
          "internalType": "uint256[]",
          "name": "_rounds",
          "type": "uint256[]"
        }
      ],
      "name": "claimRewardsForRounds",
      "outputs": [],
      "stateMutability": "nonpayable",
      "type": "function"
    },
    {
      "inputs": [],
      "name": "decimals",
      "outputs": [
        {
          "internalType": "uint8",
          "name": "",
          "type": "uint8"
        }
      ],
      "stateMutability": "view",
      "type": "function"
    },
    {
      "inputs": [
        {
          "internalType": "address",
          "name": "spender",
          "type": "address"
        },
        {
          "internalType": "uint256",
          "name": "subtractedValue",
          "type": "uint256"
        }
      ],
      "name": "decreaseAllowance",
      "outputs": [
        {
          "internalType": "bool",
          "name": "",
          "type": "bool"
        }
      ],
      "stateMutability": "nonpayable",
      "type": "function"
    },
    {
      "inputs": [],
      "name": "getAllStakers",
      "outputs": [
        {
          "internalType": "address[]",
          "name": "",
          "type": "address[]"
        }
      ],
      "stateMutability": "view",
      "type": "function"
    },
    {
      "inputs": [],
      "name": "getAllTimeRewards",
      "outputs": [
        {
          "internalType": "uint256",
          "name": "",
          "type": "uint256"
        }
      ],
      "stateMutability": "view",
      "type": "function"
    },
    {
      "inputs": [
        {
          "internalType": "address",
          "name": "_user",
          "type": "address"
        }
      ],
      "name": "getAmountStakedByUser",
      "outputs": [
        {
          "internalType": "uint256",
          "name": "",
          "type": "uint256"
        }
      ],
      "stateMutability": "view",
      "type": "function"
    },
    {
      "inputs": [],
      "name": "getClaimRounds",
      "outputs": [
        {
          "internalType": "uint256[]",
          "name": "",
          "type": "uint256[]"
        }
      ],
      "stateMutability": "view",
      "type": "function"
    },
    {
      "inputs": [
        {
          "internalType": "address",
          "name": "_user",
          "type": "address"
        },
        {
          "internalType": "uint256[]",
          "name": "_rounds",
          "type": "uint256[]"
        }
      ],
      "name": "getClaimableRewardsForUserForRounds",
      "outputs": [
        {
          "internalType": "uint256",
          "name": "",
          "type": "uint256"
        }
      ],
      "stateMutability": "view",
      "type": "function"
    },
    {
      "inputs": [],
      "name": "getCreationTime",
      "outputs": [
        {
          "internalType": "uint256",
          "name": "",
          "type": "uint256"
        }
      ],
      "stateMutability": "view",
      "type": "function"
    },
    {
      "inputs": [],
      "name": "getCurrentRound",
      "outputs": [
        {
          "internalType": "uint256",
          "name": "",
          "type": "uint256"
        }
      ],
      "stateMutability": "view",
      "type": "function"
    },
    {
      "inputs": [
        {
          "internalType": "address",
          "name": "_user",
          "type": "address"
        },
        {
          "internalType": "uint256[]",
          "name": "_rounds",
          "type": "uint256[]"
        }
      ],
      "name": "getHistoricalRewardsForUserForRounds",
      "outputs": [
        {
          "internalType": "uint256",
          "name": "",
          "type": "uint256"
        }
      ],
      "stateMutability": "view",
      "type": "function"
    },
    {
      "inputs": [],
      "name": "getLastSnapshotTimestamp",
      "outputs": [
        {
          "internalType": "uint256",
          "name": "",
          "type": "uint256"
        }
      ],
      "stateMutability": "view",
      "type": "function"
    },
    {
      "inputs": [
        {
          "internalType": "uint256",
          "name": "_round",
          "type": "uint256"
        }
      ],
      "name": "getRoundRewards",
      "outputs": [
        {
          "internalType": "uint256",
          "name": "",
          "type": "uint256"
        }
      ],
      "stateMutability": "view",
      "type": "function"
    },
    {
      "inputs": [],
      "name": "getStakingRegistry",
      "outputs": [
        {
          "internalType": "address",
          "name": "",
          "type": "address"
        }
      ],
      "stateMutability": "view",
      "type": "function"
    },
    {
      "inputs": [],
      "name": "getSumOfAllClaimed",
      "outputs": [
        {
          "internalType": "uint256",
          "name": "",
          "type": "uint256"
        }
      ],
      "stateMutability": "view",
      "type": "function"
    },
    {
      "inputs": [],
      "name": "getTargetBeingStakedOn",
      "outputs": [
        {
          "internalType": "address",
          "name": "",
          "type": "address"
        }
      ],
      "stateMutability": "view",
      "type": "function"
    },
    {
      "inputs": [
        {
          "internalType": "address",
          "name": "spender",
          "type": "address"
        },
        {
          "internalType": "uint256",
          "name": "addedValue",
          "type": "uint256"
        }
      ],
      "name": "increaseAllowance",
      "outputs": [
        {
          "internalType": "bool",
          "name": "",
          "type": "bool"
        }
      ],
      "stateMutability": "nonpayable",
      "type": "function"
    },
    {
      "inputs": [
        {
          "internalType": "address",
          "name": "_rare",
          "type": "address"
        },
        {
          "internalType": "address",
          "name": "_userStakedTo",
          "type": "address"
        },
        {
          "internalType": "address",
          "name": "_stakingRegistry",
          "type": "address"
        },
        {
          "internalType": "address",
          "name": "_creator",
          "type": "address"
        }
      ],
      "name": "initialize",
      "outputs": [],
      "stateMutability": "nonpayable",
      "type": "function"
    },
    {
      "inputs": [],
      "name": "name",
      "outputs": [
        {
          "internalType": "string",
          "name": "",
          "type": "string"
        }
      ],
      "stateMutability": "view",
      "type": "function"
    },
    {
      "inputs": [
        {
          "internalType": "uint256",
          "name": "_amount",
          "type": "uint256"
        }
      ],
      "name": "stake",
      "outputs": [],
      "stateMutability": "nonpayable",
      "type": "function"
    },
    {
      "inputs": [
        {
          "internalType": "address",
          "name": "_staker",
          "type": "address"
        },
        {
          "internalType": "uint256",
          "name": "_round",
          "type": "uint256"
        }
      ],
      "name": "stakerHasClaimedForRound",
      "outputs": [
        {
          "internalType": "bool",
          "name": "",
          "type": "bool"
        }
      ],
      "stateMutability": "view",
      "type": "function"
    },
    {
      "inputs": [],
      "name": "symbol",
      "outputs": [
        {
          "internalType": "string",
          "name": "",
          "type": "string"
        }
      ],
      "stateMutability": "view",
      "type": "function"
    },
    {
      "inputs": [],
      "name": "takeSnapshot",
      "outputs": [],
      "stateMutability": "nonpayable",
      "type": "function"
    },
    {
      "inputs": [],
      "name": "totalSupply",
      "outputs": [
        {
          "internalType": "uint256",
          "name": "",
          "type": "uint256"
        }
      ],
      "stateMutability": "view",
      "type": "function"
    },
    {
      "inputs": [
        {
          "internalType": "uint256",
          "name": "snapshotId",
          "type": "uint256"
        }
      ],
      "name": "totalSupplyAt",
      "outputs": [
        {
          "internalType": "uint256",
          "name": "",
          "type": "uint256"
        }
      ],
      "stateMutability": "view",
      "type": "function"
    },
    {
      "inputs": [
        {
          "internalType": "address",
          "name": "to",
          "type": "address"
        },
        {
          "internalType": "uint256",
          "name": "amount",
          "type": "uint256"
        }
      ],
      "name": "transfer",
      "outputs": [
        {
          "internalType": "bool",
          "name": "",
          "type": "bool"
        }
      ],
      "stateMutability": "nonpayable",
      "type": "function"
    },
    {
      "inputs": [
        {
          "internalType": "address",
          "name": "from",
          "type": "address"
        },
        {
          "internalType": "address",
          "name": "to",
          "type": "address"
        },
        {
          "internalType": "uint256",
          "name": "amount",
          "type": "uint256"
        }
      ],
      "name": "transferFrom",
      "outputs": [
        {
          "internalType": "bool",
          "name": "",
          "type": "bool"
        }
      ],
      "stateMutability": "nonpayable",
      "type": "function"
    },
    {
      "inputs": [
        {
          "internalType": "uint256",
          "name": "_amount",
          "type": "uint256"
        }
      ],
      "name": "unstake",
      "outputs": [],
      "stateMutability": "nonpayable",
      "type": "function"
    }
  ],
  "bytecode": {
    "object": "0x608060405234801561001057600080fd5b5060016097556130f1806100256000396000f3fe608060405234801561001057600080fd5b50600436106102115760003560e01c806391e2057e11610125578063ace4e824116100ad578063cae069441161007c578063cae0694414610480578063d78744d614610493578063dd62ed3e146104a8578063e6519a35146104bb578063f8c8765e146104c357600080fd5b8063ace4e8241461041a578063ad23785b1461042d578063b3d3d37e14610465578063c55578831461046d57600080fd5b8063a32bf597116100f4578063a32bf597146103c6578063a457c2d7146103ce578063a694fc3a146103e1578063a9059cbb146103f4578063a9fc507b1461040757600080fd5b806391e2057e1461038357806394616420146103a357806395d89b41146103ab578063981b24d0146103b357600080fd5b80633b1c612e116101a8578063613477821161017757806361347782146103195780636e4f88c81461032a57806370a082311461033f57806374293bf8146103685780637c27ff861461037b57600080fd5b80633b1c612e146102c65780633b248c76146102ce5780634ee2cd7e146102f35780634f7395ce1461030657600080fd5b80632e17de78116101e45780632e17de781461027c578063313ce5671461029157806339509351146102a0578063399d99ec146102b357600080fd5b806306fdde0314610216578063095ea7b31461023457806318160ddd1461025757806323b872dd14610269575b600080fd5b61021e6104d6565b60405161022b91906129ca565b60405180910390f35b610247610242366004612a12565b610556565b604051901515815260200161022b565b6035545b60405190815260200161022b565b610247610277366004612a3e565b610570565b61028f61028a366004612a7f565b610594565b005b6040516012815260200161022b565b6102476102ae366004612a12565b6108aa565b61025b6102c1366004612a98565b6108cc565b60a45461025b565b609f546001600160a01b03165b6040516001600160a01b03909116815260200161022b565b61025b610301366004612a12565b6108e2565b61025b610314366004612b25565b61093b565b60a1546001600160a01b03166102db565b610332610a5c565b60405161022b9190612be0565b61025b61034d366004612a98565b6001600160a01b031660009081526033602052604090205490565b61025b610376366004612c2d565b610b13565b60a65461025b565b61025b610391366004612a7f565b60009081526099602052604090205490565b60a35461025b565b61021e610b41565b61025b6103c1366004612a7f565b610bc4565b61025b610bec565b6102476103dc366004612a12565b610c8e565b61028f6103ef366004612a7f565b610d0e565b610247610402366004612a12565b610e8f565b61028f610415366004612a12565b610e9d565b61025b610428366004612c59565b611321565b61024761043b366004612a12565b60009081526098602090815260408083206001600160a01b03949094168352929052205460ff1690565b61028f611385565b61028f61047b366004612b25565b611464565b61025b61048e366004612b25565b611929565b61049b611989565b60405161022b9190612c7b565b61025b6104b6366004612cb3565b611995565b60a55461025b565b61028f6104d1366004612cec565b6119c0565b60a154609f54604051637925ec5360e11b81526001600160a01b039182166004820152606092600092169063f24bd8a690602401600060405180830381865afa158015610527573d6000803e3d6000fd5b505050506040513d6000823e601f3d908101601f1916820160405261054f9190810190612dac565b5192915050565b600033610564818585611b4c565b60019150505b92915050565b60003361057e858285611c70565b610589858585611cea565b506001949350505050565b61059c611d19565b6105a4611385565b33600090815260336020526040902054808211156105d557604051631694941360e11b815260040160405180910390fd5b60006105e2609a33611d72565b336000908152603360205260408120549193509150610602908386610b13565b90508181111561062557604051631360e97760e21b815260040160405180910390fd5b61062f8183612e80565b156106505761064b336106428385612e80565b609a9190611d99565b61065b565b61065b609a33611daf565b5060a154609f546040516332b1f19760e21b81526001600160a01b039283169263cac7c65c92610695923392909116908690600401612e97565b600060405180830381600087803b1580156106af57600080fd5b505af11580156106c3573d6000803e3d6000fd5b505050506106d13385611dc4565b600061271060a160009054906101000a90046001600160a01b03166001600160a01b031663f7ef8ead6040518163ffffffff1660e01b8152600401602060405180830381865afa158015610729573d6000803e3d6000fd5b505050506040513d601f19601f8201168201806040525081019061074d9190612ebb565b6107579084612ed4565b6107619190612ef3565b60a054604051630852cd8d60e31b8152600481018390529192506001600160a01b0316906342966c6890602401600060405180830381600087803b1580156107a857600080fd5b505af11580156107bc573d6000803e3d6000fd5b50505050600081836107ce9190612e80565b60a05460405163a9059cbb60e01b8152336004820152602481018390529192506001600160a01b03169063a9059cbb906044016020604051808303816000875af1158015610820573d6000803e3d6000fd5b505050506040513d601f19601f820116820180604052508101906108449190612f15565b50337f05b744e3e9358bc00ba3cc0c6606a4d6536134dba00b2d2ee4b5de169acd6427846108728188612e80565b60408051928352602083019190915281018590526060810189905260800160405180910390a250505050506108a76001609755565b50565b6000336105648185856108bd8383611995565b6108c79190612f37565b611b4c565b6000806108da609a84611d72565b949350505050565b6001600160a01b038216600090815260656020526040812081908190610909908590611f04565b9150915081610930576001600160a01b038516600090815260336020526040902054610932565b805b95945050505050565b60008080610947610bec565b90506000610953611fff565b905060005b85518160ff161015610a515782868260ff168151811061097a5761097a612f4f565b6020026020010151036109a057604051632eeefa0960e21b815260040160405180910390fd5b60986000878360ff16815181106109b9576109b9612f4f565b602090810291909101810151825281810192909252604090810160009081206001600160a01b038b16825290925290205460ff1615610a0b57604051632cfe303760e21b815260040160405180910390fd5b610a3387878360ff1681518110610a2457610a24612f4f565b6020026020010151858561200a565b610a3d9085612f37565b935080610a4981612f65565b915050610958565b509195945050505050565b60606000610a6a609a6120e0565b905060008167ffffffffffffffff811115610a8757610a87612ab5565b604051908082528060200260200182016040528015610ab0578160200160208202803683370190505b50905060005b82811015610b0c576000610acb609a836120eb565b50905080838381518110610ae157610ae1612f4f565b6001600160a01b03909216602092830291909101909101525080610b0481612f84565b915050610ab6565b5092915050565b600060648484610b238584612ed4565b610b2d9190612ed4565b610b379190612ef3565b6108da9190612ef3565b60a154609f54604051637925ec5360e11b81526001600160a01b039182166004820152606092600092169063f24bd8a690602401600060405180830381865afa158015610b92573d6000803e3d6000fd5b505050506040513d6000823e601f3d908101601f19168201604052610bba9190810190612dac565b6020015192915050565b6000806000610bd4846066611f04565b9150915081610be5576035546108da565b9392505050565b60a15460408051638469ddc760e01b815290516000926001600160a01b031691638469ddc79160048083019260209291908290030181865afa158015610c36573d6000803e3d6000fd5b505050506040513d601f19601f82011682018060405250810190610c5a9190612ebb565b60a654610c679190612f37565b421015610c7b57610c76611fff565b905090565b610c83611fff565b610c76906001612f37565b60003381610c9c8286611995565b905083811015610d015760405162461bcd60e51b815260206004820152602560248201527f45524332303a2064656372656173656420616c6c6f77616e63652062656c6f77604482015264207a65726f60d81b60648201526084015b60405180910390fd5b6105898286868403611b4c565b610d16611d19565b610d1e611385565b6000610d32610d2c60355490565b83611321565b60a154604051637d6380b760e01b81529192506001600160a01b031690637d6380b790610d6790339030908790600401612e97565b600060405180830381600087803b158015610d8157600080fd5b505af1158015610d95573d6000803e3d6000fd5b505050506000610daf33609a611d7290919063ffffffff16565b9150610dc19050336106428584612f37565b5060a154609f54604051632608ff3560e01b81526001600160a01b0392831692632608ff3592610dfb923392909116908890600401612e97565b600060405180830381600087803b158015610e1557600080fd5b505af1158015610e29573d6000803e3d6000fd5b50505050610e3733836120fa565b337ff556991011e831bcfac4f406d547e5e32cdd98267efab83935230d5f8d02c44684610e648185612f37565b604080519283526020830191909152810185905260600160405180910390a250506108a76001609755565b600033610564818585611cea565b6001600160a01b0382163314801590610f3f575060a154609f54604051637925ec5360e11b81526001600160a01b03918216600482015291169063f24bd8a690602401600060405180830381865afa158015610efd573d6000803e3d6000fd5b505050506040513d6000823e601f3d908101601f19168201604052610f259190810190612dac565b606001516001600160a01b0316336001600160a01b031614155b15610f5c576040516282b42960e81b815260040160405180910390fd5b80600003610f7d57604051631b6330bf60e31b815260040160405180910390fd5b610f85611385565b6000610f8f610bec565b90506000610f9b611fff565b90508082118015610fac5750603554155b1561107f5760a1546040805163086d4af360e11b815290516001600160a01b0390921691637d6380b791879184916310da95e69160048083019260209291908290030181865afa158015611004573d6000803e3d6000fd5b505050506040513d601f19601f820116820180604052508101906110289190612f9d565b866040518463ffffffff1660e01b815260040161104793929190612e97565b600060405180830381600087803b15801561106157600080fd5b505af1158015611075573d6000803e3d6000fd5b5050505050505050565b8082148015611094575061109282610bc4565b155b156110ec5760a1546040805163086d4af360e11b815290516001600160a01b0390921691637d6380b791879184916310da95e69160048083019260209291908290030181865afa158015611004573d6000803e3d6000fd5b600060a45460a3546110fe9190612e80565b60a154609f54604051633d867d9560e01b81526001600160a01b039182166004820152911690633d867d9590602401602060405180830381865afa15801561114a573d6000803e3d6000fd5b505050506040513d601f19601f8201168201806040525081019061116e9190612ebb565b60a0546040516370a0823160e01b81523060048201526001600160a01b03909116906370a0823190602401602060405180830381865afa1580156111b6573d6000803e3d6000fd5b505050506040513d601f19601f820116820180604052508101906111da9190612ebb565b6111e49190612e80565b6111ee9190612e80565b6111f89085612f37565b90508060a3600082825461120c9190612f37565b90915550506000838152609960205260408120805483929061122f908490612f37565b909155505060a154604051637d6380b760e01b81526001600160a01b0390911690637d6380b79061126890889030908990600401612e97565b600060405180830381600087803b15801561128257600080fd5b505af1158015611296573d6000803e3d6000fd5b505050506112ae83609d6121c790919063ffffffff16565b6112bf576112bd609d846121df565b505b60008381526099602090815260409182902054825187815291820184905281830152905184916001600160a01b038816917f8f1f72719a43990ee22667a803313283dbcb7402f1ab7dbf4ab92527e7414aa19181900360600190a35050505050565b60006509184e72a000611333836121eb565b84611367611342600283613096565b611358876b409f9cbc7c4a04c220000000612ed4565b6113629190612f37565b6121eb565b6113719190612e80565b61137b9190612ed4565b610be59190612ef3565b60a15460408051638469ddc760e01b8152905142926001600160a01b031691638469ddc79160048083019260209291908290030181865afa1580156113ce573d6000803e3d6000fd5b505050506040513d601f19601f820116820180604052508101906113f29190612ebb565b60a6546113ff9190612f37565b116114625760a6805442909155611414612296565b507ff93143fb49fc8d2b453d1e417424c14ace8efd210d63494dbaa7998e5affe0258160a654611442610bec565b6040805193845260208401929092529082015260600160405180910390a1505b565b61146c611d19565b611474611385565b805160000361149657604051631520048160e21b815260040160405180910390fd5b60ff815111156114b957604051637e5e383560e11b815260040160405180910390fd5b6000806114c4610bec565b905060006114d0611fff565b905060005b84518160ff1610156116195782858260ff16815181106114f7576114f7612f4f565b60200260200101510361151d57604051632eeefa0960e21b815260040160405180910390fd5b60986000868360ff168151811061153657611536612f4f565b602090810291909101810151825281810192909252604090810160009081206001600160a01b038a16825290925290205460ff161561158857604051632cfe303760e21b815260040160405180910390fd5b6115a186868360ff1681518110610a2457610a24612f4f565b6115ab9085612f37565b9350600160986000878460ff16815181106115c8576115c8612f4f565b602090810291909101810151825281810192909252604090810160009081206001600160a01b038b1682529092529020805460ff19169115159190911790558061161181612f65565b9150506114d5565b5060a154609f5460405163399ebbe560e01b81526001600160a01b03918216600482015260009261271092169063399ebbe590602401602060405180830381865afa15801561166c573d6000803e3d6000fd5b505050506040513d601f19601f820116820180604052508101906116909190612ebb565b61169a9086612ed4565b6116a49190612ef3565b60a15460405163d8f03c7f60e01b81526001600160a01b03898116600483015292935060009261271092169063d8f03c7f90602401602060405180830381865afa1580156116f6573d6000803e3d6000fd5b505050506040513d601f19601f8201168201806040525081019061171a9190612ebb565b6117249087612ed4565b61172e9190612ef3565b905060008161173d8488612e80565b6117479190612e80565b60a05460405163a9059cbb60e01b8152336004820152602481018590529192506001600160a01b03169063a9059cbb906044016020604051808303816000875af1158015611799573d6000803e3d6000fd5b505050506040513d601f19601f820116820180604052508101906117bd9190612f15565b5060a05460405163a9059cbb60e01b81526001600160a01b038a81166004830152602482018490529091169063a9059cbb906044016020604051808303816000875af1158015611811573d6000803e3d6000fd5b505050506040513d601f19601f820116820180604052508101906118359190612f15565b5060a054609f5460405163a9059cbb60e01b81526001600160a01b0391821660048201526024810186905291169063a9059cbb906044016020604051808303816000875af115801561188b573d6000803e3d6000fd5b505050506040513d601f19601f820116820180604052508101906118af9190612f15565b508560a460008282546118c29190612f37565b909155505060408051828152602081018490529081018490526001600160a01b0389169033907f17db246e2b79d27e01c800967d89cbee46000807213e933b6e4c4fddac899a789060600160405180910390a35050505050506119256001609755565b5050565b60008080611935610bec565b90506000611941611fff565b905060005b85518160ff161015610a515761196b87878360ff1681518110610a2457610a24612f4f565b6119759085612f37565b93508061198181612f65565b915050611946565b6060610c76609d6122f0565b6001600160a01b03918216600090815260346020908152604080832093909416825291909152205490565b600054610100900460ff16158080156119e05750600054600160ff909116105b806119fa5750303b1580156119fa575060005460ff166001145b611a5d5760405162461bcd60e51b815260206004820152602e60248201527f496e697469616c697a61626c653a20636f6e747261637420697320616c72656160448201526d191e481a5b9a5d1a585b1a5e995960921b6064820152608401610cf8565b6000805460ff191660011790558015611a80576000805461ff0019166101001790555b611a886122fd565b609f80546001600160a01b038087166001600160a01b03199283161790925560a0805488841690831617905560a18054928616929091169190911790554260a555600060a655611ae082670de0b6b3a76400006120fa565b611aed609a836000611d99565b50611af6612296565b50611aff611385565b8015611b45576000805461ff0019169055604051600181527f7f26b83ff96e1f2b6a682f133852f6798a09c465da95921460cefb38474024989060200160405180910390a15b5050505050565b6001600160a01b038316611bae5760405162461bcd60e51b8152602060048201526024808201527f45524332303a20617070726f76652066726f6d20746865207a65726f206164646044820152637265737360e01b6064820152608401610cf8565b6001600160a01b038216611c0f5760405162461bcd60e51b815260206004820152602260248201527f45524332303a20617070726f766520746f20746865207a65726f206164647265604482015261737360f01b6064820152608401610cf8565b6001600160a01b0383811660008181526034602090815260408083209487168084529482529182902085905590518481527f8c5be1e5ebec7d5bd14f71427d1e84f3dd0314c0f7b2291e5b200ac8c7c3b925910160405180910390a3505050565b6000611c7c8484611995565b90506000198114611ce45781811015611cd75760405162461bcd60e51b815260206004820152601d60248201527f45524332303a20696e73756666696369656e7420616c6c6f77616e63650000006044820152606401610cf8565b611ce48484848403611b4c565b50505050565b333014611d09576040516282b42960e81b815260040160405180910390fd5b611d14838383612368565b505050565b600260975403611d6b5760405162461bcd60e51b815260206004820152601f60248201527f5265656e7472616e637947756172643a207265656e7472616e742063616c6c006044820152606401610cf8565b6002609755565b6000808080611d8a866001600160a01b03871661251e565b909450925050505b9250929050565b60006108da846001600160a01b03851684612558565b6000610be5836001600160a01b038416612575565b6001600160a01b038216611e245760405162461bcd60e51b815260206004820152602160248201527f45524332303a206275726e2066726f6d20746865207a65726f206164647265736044820152607360f81b6064820152608401610cf8565b611e3082600083612592565b6001600160a01b03821660009081526033602052604090205481811015611ea45760405162461bcd60e51b815260206004820152602260248201527f45524332303a206275726e20616d6f756e7420657863656564732062616c616e604482015261636560f01b6064820152608401610cf8565b6001600160a01b03831660008181526033602090815260408083208686039055603580548790039055518581529192917fddf252ad1be2c89b69c2b068fc378daa952ba7f163c4a11628f55a4df523b3ef910160405180910390a3505050565b60008060008411611f505760405162461bcd60e51b815260206004820152601660248201527504552433230536e617073686f743a20696420697320360541b6044820152606401610cf8565b611f58611fff565b841115611fa75760405162461bcd60e51b815260206004820152601d60248201527f4552433230536e617073686f743a206e6f6e6578697374656e742069640000006044820152606401610cf8565b6000611fb384866125da565b84549091508103611fcb576000809250925050611d92565b6001846001018281548110611fe257611fe2612f4f565b90600052602060002001549250925050611d92565b509250929050565b6000610c7660685490565b60008284111561201c575060006108da565b60008284116120335761202e85610bc4565b612037565b6035545b90508060000361204b5760009150506108da565b60008385116120635761205e87876108e2565b61207d565b6001600160a01b0387166000908152603360205260409020545b90506a084595161401484a000000826120a28860009081526099602052604090205490565b6120b7846a084595161401484a000000612ed4565b6120c19190612ed4565b6120cb9190612ef3565b6120d59190612ef3565b979650505050505050565b600061056a82612687565b6000808080611d8a8686612692565b6001600160a01b0382166121505760405162461bcd60e51b815260206004820152601f60248201527f45524332303a206d696e7420746f20746865207a65726f2061646472657373006044820152606401610cf8565b61215c60008383612592565b806035600082825461216e9190612f37565b90915550506001600160a01b0382166000818152603360209081526040808320805486019055518481527fddf252ad1be2c89b69c2b068fc378daa952ba7f163c4a11628f55a4df523b3ef910160405180910390a35050565b60008181526001830160205260408120541515610be5565b6000610be583836126bd565b60b581600160881b81106122045760409190911b9060801c5b690100000000000000000081106122205760209190911b9060401c5b6501000000000081106122385760109190911b9060201c5b6301000000811061224e5760089190911b9060101c5b62010000010260121c80820401600190811c80830401811c80830401811c80830401811c80830401811c80830401811c80830401901c8082048111156122915781045b919050565b60006122a6606880546001019055565b60006122b0611fff565b90507f8030e83b04d87bef53480e26263266d6ca66863aa8506aca6f2559d18aa1cb67816040516122e391815260200190565b60405180910390a1919050565b60606000610be58361270c565b600054610100900460ff166114625760405162461bcd60e51b815260206004820152602b60248201527f496e697469616c697a61626c653a20636f6e7472616374206973206e6f74206960448201526a6e697469616c697a696e6760a81b6064820152608401610cf8565b6001600160a01b0383166123cc5760405162461bcd60e51b815260206004820152602560248201527f45524332303a207472616e736665722066726f6d20746865207a65726f206164604482015264647265737360d81b6064820152608401610cf8565b6001600160a01b03821661242e5760405162461bcd60e51b815260206004820152602360248201527f45524332303a207472616e7366657220746f20746865207a65726f206164647260448201526265737360e81b6064820152608401610cf8565b612439838383612592565b6001600160a01b038316600090815260336020526040902054818110156124b15760405162461bcd60e51b815260206004820152602660248201527f45524332303a207472616e7366657220616d6f756e7420657863656564732062604482015265616c616e636560d01b6064820152608401610cf8565b6001600160a01b0380851660008181526033602052604080822086860390559286168082529083902080548601905591517fddf252ad1be2c89b69c2b068fc378daa952ba7f163c4a11628f55a4df523b3ef906125119086815260200190565b60405180910390a3611ce4565b600081815260028301602052604081205481908061254d576125408585612768565b925060009150611d929050565b600192509050611d92565b600082815260028401602052604081208290556108da84846121df565b60008181526002830160205260408120819055610be58383612774565b6001600160a01b0383166125b1576125a982612780565b611d146127b3565b6001600160a01b0382166125c8576125a983612780565b6125d183612780565b611d1482612780565b815460009081036125ed5750600061056a565b82546000905b8082101561263a57600061260783836127c1565b6000878152602090209091508590820154111561262657809150612634565b612631816001612f37565b92505b506125f3565b60008211801561266657508361266386612655600186612e80565b600091825260209091200190565b54145b1561267f57612676600183612e80565b9250505061056a565b50905061056a565b600061056a826127dc565b600080806126a085856127e6565b600081815260029690960160205260409095205494959350505050565b60008181526001830160205260408120546127045750815460018181018455600084815260208082209093018490558454848252828601909352604090209190915561056a565b50600061056a565b60608160000180548060200260200160405190810160405280929190818152602001828054801561275c57602002820191906000526020600020905b815481526020019060010190808311612748575b50505050509050919050565b6000610be583836121c7565b6000610be583836127f2565b6001600160a01b03811660009081526065602090815260408083206033909252909120546108a791906128e5565b6128e5565b61146260666127ae60355490565b60006127d06002848418612ef3565b610be590848416612f37565b600061056a825490565b6000610be5838361292f565b600081815260018301602052604081205480156128db576000612816600183612e80565b855490915060009061282a90600190612e80565b905081811461288f57600086600001828154811061284a5761284a612f4f565b906000526020600020015490508087600001848154811061286d5761286d612f4f565b6000918252602080832090910192909255918252600188019052604090208390555b85548690806128a0576128a06130a5565b60019003818190600052602060002001600090559055856001016000868152602001908152602001600020600090556001935050505061056a565b600091505061056a565b60006128ef611fff565b9050806128fb84612959565b1015611d14578254600180820185556000858152602080822090930193909355938401805494850181558252902090910155565b600082600001828154811061294657612946612f4f565b9060005260206000200154905092915050565b8054600090810361296c57506000919050565b8154829061297c90600190612e80565b8154811061298c5761298c612f4f565b90600052602060002001549050919050565b60005b838110156129b95781810151838201526020016129a1565b83811115611ce45750506000910152565b60208152600082518060208401526129e981604085016020870161299e565b601f01601f19169190910160400192915050565b6001600160a01b03811681146108a757600080fd5b60008060408385031215612a2557600080fd5b8235612a30816129fd565b946020939093013593505050565b600080600060608486031215612a5357600080fd5b8335612a5e816129fd565b92506020840135612a6e816129fd565b929592945050506040919091013590565b600060208284031215612a9157600080fd5b5035919050565b600060208284031215612aaa57600080fd5b8135610be5816129fd565b634e487b7160e01b600052604160045260246000fd5b6040516080810167ffffffffffffffff81118282101715612aee57612aee612ab5565b60405290565b604051601f8201601f1916810167ffffffffffffffff81118282101715612b1d57612b1d612ab5565b604052919050565b60008060408385031215612b3857600080fd5b8235612b43816129fd565b915060208381013567ffffffffffffffff80821115612b6157600080fd5b818601915086601f830112612b7557600080fd5b813581811115612b8757612b87612ab5565b8060051b9150612b98848301612af4565b8181529183018401918481019089841115612bb257600080fd5b938501935b83851015612bd057843582529385019390850190612bb7565b8096505050505050509250929050565b6020808252825182820181905260009190848201906040850190845b81811015612c215783516001600160a01b031683529284019291840191600101612bfc565b50909695505050505050565b600080600060608486031215612c4257600080fd5b505081359360208301359350604090920135919050565b60008060408385031215612c6c57600080fd5b50508035926020909101359150565b6020808252825182820181905260009190848201906040850190845b81811015612c2157835183529284019291840191600101612c97565b60008060408385031215612cc657600080fd5b8235612cd1816129fd565b91506020830135612ce1816129fd565b809150509250929050565b60008060008060808587031215612d0257600080fd5b8435612d0d816129fd565b93506020850135612d1d816129fd565b92506040850135612d2d816129fd565b91506060850135612d3d816129fd565b939692955090935050565b600082601f830112612d5957600080fd5b815167ffffffffffffffff811115612d7357612d73612ab5565b612d86601f8201601f1916602001612af4565b818152846020838601011115612d9b57600080fd5b61093082602083016020870161299e565b600060208284031215612dbe57600080fd5b815167ffffffffffffffff80821115612dd657600080fd5b9083019060808286031215612dea57600080fd5b612df2612acb565b825182811115612e0157600080fd5b612e0d87828601612d48565b825250602083015182811115612e2257600080fd5b612e2e87828601612d48565b60208301525060408301519150612e44826129fd565b81604082015260608301519250612e5a836129fd565b6060810192909252509392505050565b634e487b7160e01b600052601160045260246000fd5b600082821015612e9257612e92612e6a565b500390565b6001600160a01b039384168152919092166020820152604081019190915260600190565b600060208284031215612ecd57600080fd5b5051919050565b6000816000190483118215151615612eee57612eee612e6a565b500290565b600082612f1057634e487b7160e01b600052601260045260246000fd5b500490565b600060208284031215612f2757600080fd5b81518015158114610be557600080fd5b60008219821115612f4a57612f4a612e6a565b500190565b634e487b7160e01b600052603260045260246000fd5b600060ff821660ff8103612f7b57612f7b612e6a565b60010192915050565b600060018201612f9657612f96612e6a565b5060010190565b600060208284031215612faf57600080fd5b8151610be5816129fd565b600181815b80851115611ff7578160001904821115612fdb57612fdb612e6a565b80851615612fe857918102915b93841c9390800290612fbf565b6000826130045750600161056a565b816130115750600061056a565b816001811461302757600281146130315761304d565b600191505061056a565b60ff84111561304257613042612e6a565b50506001821b61056a565b5060208310610133831016604e8410600b8410161715613070575081810a61056a565b61307a8383612fba565b806000190482111561308e5761308e612e6a565b029392505050565b6000610be560ff841683612ff5565b634e487b7160e01b600052603160045260246000fdfea264697066735822122045e0727fdcd254b31e1b6243303ea39715907c0bcb36f387d3a40c160aa18ad764736f6c634300080f0033",
    "linkReferences": {}
  },
  "methodIdentifiers": {
    "addRewards(address,uint256)": "a9fc507b",
    "allowance(address,address)": "dd62ed3e",
    "approve(address,uint256)": "095ea7b3",
    "balanceOf(address)": "70a08231",
    "balanceOfAt(address,uint256)": "4ee2cd7e",
    "calculatePurchaseReturn(uint256,uint256)": "ace4e824",
    "calculateSaleReturn(uint256,uint256,uint256)": "74293bf8",
    "claimRewardsForRounds(address,uint256[])": "c5557883",
    "decimals()": "313ce567",
    "decreaseAllowance(address,uint256)": "a457c2d7",
    "getAllStakers()": "6e4f88c8",
    "getAllTimeRewards()": "94616420",
    "getAmountStakedByUser(address)": "399d99ec",
    "getClaimRounds()": "d78744d6",
    "getClaimableRewardsForUserForRounds(address,uint256[])": "4f7395ce",
    "getCreationTime()": "e6519a35",
    "getCurrentRound()": "a32bf597",
    "getHistoricalRewardsForUserForRounds(address,uint256[])": "cae06944",
    "getLastSnapshotTimestamp()": "7c27ff86",
    "getRoundRewards(uint256)": "91e2057e",
    "getStakingRegistry()": "61347782",
    "getSumOfAllClaimed()": "3b1c612e",
    "getTargetBeingStakedOn()": "3b248c76",
    "increaseAllowance(address,uint256)": "39509351",
    "initialize(address,address,address,address)": "f8c8765e",
    "name()": "06fdde03",
    "stake(uint256)": "a694fc3a",
    "stakerHasClaimedForRound(address,uint256)": "ad23785b",
    "symbol()": "95d89b41",
    "takeSnapshot()": "b3d3d37e",
    "totalSupply()": "18160ddd",
    "totalSupplyAt(uint256)": "981b24d0",
    "transfer(address,uint256)": "a9059cbb",
    "transferFrom(address,address,uint256)": "23b872dd",
    "unstake(uint256)": "2e17de78"
  },
  "id": 116
}