{
  "abi": [
    {
      "inputs": [],
      "stateMutability": "nonpayable",
      "type": "constructor"
    },
    {
      "inputs": [],
      "name": "CannotAddZeroRewards",
      "type": "error"
    },
    {
      "inputs": [],
      "name": "CannotClaimCurrentRound",
      "type": "error"
    },
    {
      "inputs": [],
      "name": "ClaimingTooManyRounds",
      "type": "error"
    },
    {
      "inputs": [],
      "name": "ClaimingZeroRounds",
      "type": "error"
    },
    {
      "inputs": [],
      "name": "InsufficientStakedRare",
      "type": "error"
    },
    {
      "inputs": [],
      "name": "InsufficientSyntheticRare",
      "type": "error"
    },
    {
      "inputs": [],
      "name": "RewardAlreadyClaimed",
      "type": "error"
    },
    {
      "inputs": [],
      "name": "Unauthorized",
      "type": "error"
    },
    {
      "inputs": [],
      "name": "ZeroAddressUnsupported",
      "type": "error"
    },
    {
      "anonymous": false,
      "inputs": [
        {
          "indexed": true,
          "internalType": "address",
          "name": "_donor",
          "type": "address"
        },
        {
          "indexed": true,
          "internalType": "uint256",
          "name": "_round",
          "type": "uint256"
        },
        {
          "indexed": false,
          "internalType": "uint256",
          "name": "_amount",
          "type": "uint256"
        },
        {
          "indexed": false,
          "internalType": "uint256",
          "name": "_totalAmountAdded",
          "type": "uint256"
        },
        {
          "indexed": false,
          "internalType": "uint256",
          "name": "_newRoundRewardAmount",
          "type": "uint256"
        }
      ],
      "name": "AddRewards",
      "type": "event"
    },
    {
      "anonymous": false,
      "inputs": [
        {
          "indexed": true,
          "internalType": "address",
          "name": "owner",
          "type": "address"
        },
        {
          "indexed": true,
          "internalType": "address",
          "name": "spender",
          "type": "address"
        },
        {
          "indexed": false,
          "internalType": "uint256",
          "name": "value",
          "type": "uint256"
        }
      ],
      "name": "Approval",
      "type": "event"
    },
    {
      "anonymous": false,
      "inputs": [
        {
          "indexed": false,
          "internalType": "uint8",
          "name": "version",
          "type": "uint8"
        }
      ],
      "name": "Initialized",
      "type": "event"
    },
    {
      "anonymous": false,
      "inputs": [
        {
          "indexed": true,
          "internalType": "address",
          "name": "_msgSender",
          "type": "address"
        },
        {
          "indexed": true,
          "internalType": "address",
          "name": "_claimer",
          "type": "address"
        },
        {
          "indexed": false,
          "internalType": "uint256",
          "name": "_amountToStaker",
          "type": "uint256"
        }
      ],
      "name": "RewardClaimed",
      "type": "event"
    },
    {
      "anonymous": false,
      "inputs": [
        {
          "indexed": false,
          "internalType": "uint256",
          "name": "id",
          "type": "uint256"
        }
      ],
      "name": "Snapshot",
      "type": "event"
    },
    {
      "anonymous": false,
      "inputs": [
        {
          "indexed": true,
          "internalType": "address",
          "name": "_staker",
          "type": "address"
        },
        {
          "indexed": false,
          "internalType": "uint256",
          "name": "_amountStaking",
          "type": "uint256"
        },
        {
          "indexed": false,
          "internalType": "uint256",
          "name": "_totalAmountStaked",
          "type": "uint256"
        },
        {
          "indexed": false,
          "internalType": "uint256",
          "name": "_amountSRareReceived",
          "type": "uint256"
        }
      ],
      "name": "Stake",
      "type": "event"
    },
    {
      "anonymous": false,
      "inputs": [
        {
          "indexed": false,
          "internalType": "uint256",
          "name": "_lastSnapshotTimestamp",
          "type": "uint256"
        },
        {
          "indexed": false,
          "internalType": "uint256",
          "name": "_currentSnapshotTimestamp",
          "type": "uint256"
        },
        {
          "indexed": false,
          "internalType": "uint256",
          "name": "_round",
          "type": "uint256"
        }
      ],
      "name": "StakingSnapshot",
      "type": "event"
    },
    {
      "anonymous": false,
      "inputs": [
        {
          "indexed": true,
          "internalType": "address",
          "name": "from",
          "type": "address"
        },
        {
          "indexed": true,
          "internalType": "address",
          "name": "to",
          "type": "address"
        },
        {
          "indexed": false,
          "internalType": "uint256",
          "name": "value",
          "type": "uint256"
        }
      ],
      "name": "Transfer",
      "type": "event"
    },
    {
      "anonymous": false,
      "inputs": [
        {
          "indexed": true,
          "internalType": "address",
          "name": "_staker",
          "type": "address"
        },
        {
          "indexed": false,
          "internalType": "uint256",
          "name": "_amountUnstaking",
          "type": "uint256"
        },
        {
          "indexed": false,
          "internalType": "uint256",
          "name": "_totalAmountStaked",
          "type": "uint256"
        },
        {
          "indexed": false,
          "internalType": "uint256",
          "name": "_amountRareBurned",
          "type": "uint256"
        },
        {
          "indexed": false,
          "internalType": "uint256",
          "name": "_amountSRareSold",
          "type": "uint256"
        }
      ],
      "name": "Unstake",
      "type": "event"
    },
    {
      "inputs": [
        {
          "internalType": "address",
          "name": "_donor",
          "type": "address"
        },
        {
          "internalType": "uint256",
          "name": "_amount",
          "type": "uint256"
        }
      ],
      "name": "addRewards",
      "outputs": [],
      "stateMutability": "nonpayable",
      "type": "function"
    },
    {
      "inputs": [
        {
          "internalType": "address",
          "name": "owner",
          "type": "address"
        },
        {
          "internalType": "address",
          "name": "spender",
          "type": "address"
        }
      ],
      "name": "allowance",
      "outputs": [
        {
          "internalType": "uint256",
          "name": "",
          "type": "uint256"
        }
      ],
      "stateMutability": "view",
      "type": "function"
    },
    {
      "inputs": [
        {
          "internalType": "address",
          "name": "spender",
          "type": "address"
        },
        {
          "internalType": "uint256",
          "name": "amount",
          "type": "uint256"
        }
      ],
      "name": "approve",
      "outputs": [
        {
          "internalType": "bool",
          "name": "",
          "type": "bool"
        }
      ],
      "stateMutability": "nonpayable",
      "type": "function"
    },
    {
      "inputs": [
        {
          "internalType": "address",
          "name": "account",
          "type": "address"
        }
      ],
      "name": "balanceOf",
      "outputs": [
        {
          "internalType": "uint256",
          "name": "",
          "type": "uint256"
        }
      ],
      "stateMutability": "view",
      "type": "function"
    },
    {
      "inputs": [
        {
          "internalType": "address",
          "name": "account",
          "type": "address"
        },
        {
          "internalType": "uint256",
          "name": "snapshotId",
          "type": "uint256"
        }
      ],
      "name": "balanceOfAt",
      "outputs": [
        {
          "internalType": "uint256",
          "name": "",
          "type": "uint256"
        }
      ],
      "stateMutability": "view",
      "type": "function"
    },
    {
      "inputs": [
        {
          "internalType": "uint120",
          "name": "_totalSRare",
          "type": "uint120"
        },
        {
          "internalType": "uint120",
          "name": "_stakedAmount",
          "type": "uint120"
        }
      ],
      "name": "calculatePurchaseReturn",
      "outputs": [
        {
          "internalType": "uint256",
          "name": "",
          "type": "uint256"
        }
      ],
      "stateMutability": "pure",
      "type": "function"
    },
    {
      "inputs": [
        {
          "internalType": "uint256",
          "name": "_totalSRareByUser",
          "type": "uint256"
        },
        {
          "internalType": "uint256",
          "name": "_totalRareStakedByUser",
          "type": "uint256"
        },
        {
          "internalType": "uint256",
          "name": "_unstakeAmount",
          "type": "uint256"
        }
      ],
      "name": "calculateSaleReturn",
      "outputs": [
        {
          "internalType": "uint256",
          "name": "",
          "type": "uint256"
        }
      ],
      "stateMutability": "pure",
      "type": "function"
    },
    {
      "inputs": [
        {
          "internalType": "address",
          "name": "_user",
          "type": "address"
        },
        {
          "internalType": "uint8",
          "name": "_numRounds",
          "type": "uint8"
        }
      ],
      "name": "claimRewards",
      "outputs": [],
      "stateMutability": "nonpayable",
      "type": "function"
    },
    {
      "inputs": [],
      "name": "decimals",
      "outputs": [
        {
          "internalType": "uint8",
          "name": "",
          "type": "uint8"
        }
      ],
      "stateMutability": "view",
      "type": "function"
    },
    {
      "inputs": [
        {
          "internalType": "address",
          "name": "spender",
          "type": "address"
        },
        {
          "internalType": "uint256",
          "name": "subtractedValue",
          "type": "uint256"
        }
      ],
      "name": "decreaseAllowance",
      "outputs": [
        {
          "internalType": "bool",
          "name": "",
          "type": "bool"
        }
      ],
      "stateMutability": "nonpayable",
      "type": "function"
    },
    {
      "inputs": [],
      "name": "getAllTimeRewards",
      "outputs": [
        {
          "internalType": "uint256",
          "name": "",
          "type": "uint256"
        }
      ],
      "stateMutability": "view",
      "type": "function"
    },
    {
      "inputs": [
        {
          "internalType": "address",
          "name": "_user",
          "type": "address"
        }
      ],
      "name": "getAmountStakedByUser",
      "outputs": [
        {
          "internalType": "uint256",
          "name": "",
          "type": "uint256"
        }
      ],
      "stateMutability": "view",
      "type": "function"
    },
    {
      "inputs": [
        {
          "internalType": "address",
          "name": "_user",
          "type": "address"
        },
        {
          "internalType": "uint256",
          "name": "_numRounds",
          "type": "uint256"
        }
      ],
      "name": "getClaimableRewardsForUser",
      "outputs": [
        {
          "internalType": "uint256",
          "name": "",
          "type": "uint256"
        }
      ],
      "stateMutability": "view",
      "type": "function"
    },
    {
      "inputs": [],
      "name": "getCreationTime",
      "outputs": [
        {
          "internalType": "uint256",
          "name": "",
          "type": "uint256"
        }
      ],
      "stateMutability": "view",
      "type": "function"
    },
    {
      "inputs": [],
      "name": "getCurrentRound",
      "outputs": [
        {
          "internalType": "uint256",
          "name": "",
          "type": "uint256"
        }
      ],
      "stateMutability": "view",
      "type": "function"
    },
    {
      "inputs": [
        {
          "internalType": "address",
          "name": "_user",
          "type": "address"
        },
        {
          "internalType": "uint256[]",
          "name": "_rounds",
          "type": "uint256[]"
        }
      ],
      "name": "getHistoricalRewardsForUserForRounds",
      "outputs": [
        {
          "internalType": "uint256",
          "name": "",
          "type": "uint256"
        }
      ],
      "stateMutability": "view",
      "type": "function"
    },
    {
      "inputs": [],
      "name": "getLastSnapshotTimestamp",
      "outputs": [
        {
          "internalType": "uint256",
          "name": "",
          "type": "uint256"
        }
      ],
      "stateMutability": "view",
      "type": "function"
    },
    {
      "inputs": [
        {
          "internalType": "uint256",
          "name": "_round",
          "type": "uint256"
        }
      ],
      "name": "getRoundRewards",
      "outputs": [
        {
          "internalType": "uint256",
          "name": "",
          "type": "uint256"
        }
      ],
      "stateMutability": "view",
      "type": "function"
    },
    {
      "inputs": [],
      "name": "getStakingRegistry",
      "outputs": [
        {
          "internalType": "address",
          "name": "",
          "type": "address"
        }
      ],
      "stateMutability": "view",
      "type": "function"
    },
    {
      "inputs": [],
      "name": "getSumOfAllClaimed",
      "outputs": [
        {
          "internalType": "uint256",
          "name": "",
          "type": "uint256"
        }
      ],
      "stateMutability": "view",
      "type": "function"
    },
    {
      "inputs": [],
      "name": "getTargetBeingStakedOn",
      "outputs": [
        {
          "internalType": "address",
          "name": "",
          "type": "address"
        }
      ],
      "stateMutability": "view",
      "type": "function"
    },
    {
      "inputs": [
        {
          "internalType": "address",
          "name": "spender",
          "type": "address"
        },
        {
          "internalType": "uint256",
          "name": "addedValue",
          "type": "uint256"
        }
      ],
      "name": "increaseAllowance",
      "outputs": [
        {
          "internalType": "bool",
          "name": "",
          "type": "bool"
        }
      ],
      "stateMutability": "nonpayable",
      "type": "function"
    },
    {
      "inputs": [
        {
          "internalType": "address",
          "name": "_userStakedTo",
          "type": "address"
        },
        {
          "internalType": "address",
          "name": "_stakingRegistry",
          "type": "address"
        },
        {
          "internalType": "address",
          "name": "_creator",
          "type": "address"
        }
      ],
      "name": "initialize",
      "outputs": [],
      "stateMutability": "nonpayable",
      "type": "function"
    },
    {
      "inputs": [],
      "name": "name",
      "outputs": [
        {
          "internalType": "string",
          "name": "",
          "type": "string"
        }
      ],
      "stateMutability": "view",
      "type": "function"
    },
    {
      "inputs": [
        {
          "internalType": "uint120",
          "name": "_amount",
          "type": "uint120"
        }
      ],
      "name": "stake",
      "outputs": [],
      "stateMutability": "nonpayable",
      "type": "function"
    },
    {
      "inputs": [],
      "name": "symbol",
      "outputs": [
        {
          "internalType": "string",
          "name": "",
          "type": "string"
        }
      ],
      "stateMutability": "view",
      "type": "function"
    },
    {
      "inputs": [],
      "name": "takeSnapshot",
      "outputs": [],
      "stateMutability": "nonpayable",
      "type": "function"
    },
    {
      "inputs": [],
      "name": "totalSupply",
      "outputs": [
        {
          "internalType": "uint256",
          "name": "",
          "type": "uint256"
        }
      ],
      "stateMutability": "view",
      "type": "function"
    },
    {
      "inputs": [
        {
          "internalType": "uint256",
          "name": "snapshotId",
          "type": "uint256"
        }
      ],
      "name": "totalSupplyAt",
      "outputs": [
        {
          "internalType": "uint256",
          "name": "",
          "type": "uint256"
        }
      ],
      "stateMutability": "view",
      "type": "function"
    },
    {
      "inputs": [
        {
          "internalType": "address",
          "name": "to",
          "type": "address"
        },
        {
          "internalType": "uint256",
          "name": "amount",
          "type": "uint256"
        }
      ],
      "name": "transfer",
      "outputs": [
        {
          "internalType": "bool",
          "name": "",
          "type": "bool"
        }
      ],
      "stateMutability": "nonpayable",
      "type": "function"
    },
    {
      "inputs": [
        {
          "internalType": "address",
          "name": "from",
          "type": "address"
        },
        {
          "internalType": "address",
          "name": "to",
          "type": "address"
        },
        {
          "internalType": "uint256",
          "name": "amount",
          "type": "uint256"
        }
      ],
      "name": "transferFrom",
      "outputs": [
        {
          "internalType": "bool",
          "name": "",
          "type": "bool"
        }
      ],
      "stateMutability": "nonpayable",
      "type": "function"
    },
    {
      "inputs": [
        {
          "internalType": "uint256",
          "name": "_amount",
          "type": "uint256"
        }
      ],
      "name": "unstake",
      "outputs": [],
      "stateMutability": "nonpayable",
      "type": "function"
    }
  ],
  "bytecode": {
    "object": "0x60806040523480156200001157600080fd5b506200001c62000022565b620000e3565b600054610100900460ff16156200008f5760405162461bcd60e51b815260206004820152602760248201527f496e697469616c697a61626c653a20636f6e747261637420697320696e697469604482015266616c697a696e6760c81b606482015260840160405180910390fd5b60005460ff90811614620000e1576000805460ff191660ff9081179091556040519081527f7f26b83ff96e1f2b6a682f133852f6798a09c465da95921460cefb38474024989060200160405180910390a15b565b612cd680620000f36000396000f3fe608060405234801561001057600080fd5b50600436106101f05760003560e01c806391e2057e1161010f578063a9fc507b116100a2578063cae0694411610071578063cae0694414610412578063d775a4c714610425578063dd62ed3e14610438578063e6519a351461044b57600080fd5b8063a9fc507b146103d1578063b3d3d37e146103e4578063b5fc2f85146103ec578063c0c53b8b146103ff57600080fd5b80639ca92dec116100de5780639ca92dec14610390578063a32bf597146103a3578063a457c2d7146103ab578063a9059cbb146103be57600080fd5b806391e2057e1461034d578063946164201461036d57806395d89b4114610375578063981b24d01461037d57600080fd5b80633b1c612e11610187578063636f5b2711610156578063636f5b271461030c57806370a082311461031f57806374293bf8146103325780637c27ff861461034557600080fd5b80633b1c612e146102bb5780633b248c76146102c35780634ee2cd7e146102e857806361347782146102fb57600080fd5b80632e17de78116101c35780632e17de781461025b578063313ce56714610270578063395093511461027f578063399d99ec1461029257600080fd5b806306fdde03146101f5578063095ea7b31461021357806318160ddd1461023657806323b872dd14610248575b600080fd5b6101fd610453565b60405161020a91906125fd565b60405180910390f35b610226610221366004612645565b6104d3565b604051901515815260200161020a565b6035545b60405190815260200161020a565b610226610256366004612671565b6104ed565b61026e6102693660046126b2565b610513565b005b6040516012815260200161020a565b61022661028d366004612645565b610802565b61023a6102a03660046126cb565b6001600160a01b0316600090815260cb602052604090205490565b60cf5461023a565b60cc546001600160a01b03165b6040516001600160a01b03909116815260200161020a565b61023a6102f6366004612645565b610824565b60cd546001600160a01b03166102d0565b61023a61031a366004612645565b61086d565b61023a61032d3660046126cb565b610944565b61023a6103403660046126e8565b61095f565b60d15461023a565b61023a61035b3660046126b2565b600090815260c9602052604090205490565b60ce5461023a565b6101fd610995565b61023a61038b3660046126b2565b610a18565b61026e61039e36600461272b565b610a39565b61023a610c20565b6102266103b9366004612645565b610cc2565b6102266103cc366004612645565b610d4d565b61026e6103df366004612645565b610d5b565b61026e6111cd565b61026e6103fa366004612746565b6112ac565b61026e61040d366004612785565b6114eb565b61023a610420366004612840565b6116d0565b61023a6104333660046128fb565b61173c565b61023a61044636600461292e565b6117ae565b60d05461023a565b60cd5460cc54604051637925ec5360e11b81526001600160a01b039182166004820152606092600092169063f24bd8a690602401600060405180830381865afa1580156104a4573d6000803e3d6000fd5b505050506040513d6000823e601f3d908101601f191682016040526104cc91908101906129c0565b5192915050565b6000336104e18185856117d9565b60019150505b92915050565b6000336104fb8582856118fd565b610506858585611971565b60019150505b9392505050565b61051b6119a0565b6105236111cd565b600061052e33610944565b90508082111561055157604051631694941360e11b815260040160405180910390fd5b33600081815260cb6020526040812054916105769061056f90610944565b838661095f565b90508181111561059957604051631360e97760e21b815260040160405180910390fd5b6105a38183612a94565b33600081815260cb6020526040908190209290925560cd5460cc5492516332b1f19760e21b815260048101929092526001600160a01b03928316602483015260448201849052919091169063cac7c65c90606401600060405180830381600087803b15801561061157600080fd5b505af1158015610625573d6000803e3d6000fd5b5050505061063333856119f9565b60cd5460408051632210d52560e01b815290516001600160a01b03909216916000918391632210d525916004808201926020929091908290030181865afa158015610682573d6000803e3d6000fd5b505050506040513d601f19601f820116820180604052508101906106a69190612aa7565b90506000612710836001600160a01b031663f7ef8ead6040518163ffffffff1660e01b8152600401602060405180830381865afa1580156106eb573d6000803e3d6000fd5b505050506040513d601f19601f8201168201806040525081019061070f9190612ac4565b6107199086612add565b6107239190612af4565b604051630852cd8d60e31b8152600481018290529091506001600160a01b038316906342966c6890602401600060405180830381600087803b15801561076857600080fd5b505af115801561077c573d6000803e3d6000fd5b505050506000818561078e9190612a94565b905061079b833383611b39565b337f05b744e3e9358bc00ba3cc0c6606a4d6536134dba00b2d2ee4b5de169acd6427866107c8818a612a94565b6040805192835260208301919091528101859052606081018b905260800160405180910390a2505050505050506107ff6001609755565b50565b6000336104e181858561081583836117ae565b61081f9190612b16565b6117d9565b6001600160a01b03821660009081526065602052604081208190819061084b908590611b8b565b91509150816108625761085d85610944565b610864565b805b95945050505050565b60008080610879610c20565b90506000610885611c87565b6001600160a01b038716600090815260ca60205260408120549192509086906108ae9085612a94565b116108b957826108dd565b6001600160a01b038716600090815260ca60205260409020546108dd908790612b16565b6001600160a01b038816600090815260ca602052604081205491925090610905906001612b16565b90505b8181116109385761091a888285611c92565b6109249086612b16565b94508061093081612b29565b915050610908565b50929695505050505050565b6001600160a01b031660009081526033602052604090205490565b60006064848461096f8584612add565b6109799190612add565b6109839190612af4565b61098d9190612af4565b949350505050565b60cd5460cc54604051637925ec5360e11b81526001600160a01b039182166004820152606092600092169063f24bd8a690602401600060405180830381865afa1580156109e6573d6000803e3d6000fd5b505050506040513d6000823e601f3d908101601f19168201604052610a0e91908101906129c0565b6020015192915050565b6000806000610a28846066611b8b565b915091508161050c5760355461098d565b610a416119a0565b610a496111cd565b610a5233610944565b600003610a7e576001610a63610c20565b610a6d9190612a94565b33600090815260ca60205260409020555b6000610a9a610a94610a8f60355490565b611d45565b8361173c565b60cd546040516381910e3360e01b81523360048201523060248201526001600160781b03851660448201529192506001600160a01b03169081906381910e3390606401600060405180830381600087803b158015610af757600080fd5b505af1158015610b0b573d6000803e3d6000fd5b505033600090815260cb6020526040812080546001600160781b0388169450909250610b38908490612b16565b909155505060cc54604051632608ff3560e01b81523360048201526001600160a01b0391821660248201526001600160781b038516604482015290821690632608ff3590606401600060405180830381600087803b158015610b9957600080fd5b505af1158015610bad573d6000803e3d6000fd5b50505050610bbb3383611db2565b33600081815260cb60209081526040918290205482516001600160781b0388168152918201529081018490527ff556991011e831bcfac4f406d547e5e32cdd98267efab83935230d5f8d02c4469060600160405180910390a250506107ff6001609755565b60cd5460408051638469ddc760e01b815290516000926001600160a01b031691638469ddc79160048083019260209291908290030181865afa158015610c6a573d6000803e3d6000fd5b505050506040513d601f19601f82011682018060405250810190610c8e9190612ac4565b60d154610c9b9190612b16565b421015610caf57610caa611c87565b905090565b610cb7611c87565b610caa906001612b16565b60003381610cd082866117ae565b905083811015610d355760405162461bcd60e51b815260206004820152602560248201527f45524332303a2064656372656173656420616c6c6f77616e63652062656c6f77604482015264207a65726f60d81b60648201526084015b60405180910390fd5b610d4282868684036117d9565b506001949350505050565b6000336104e1818585611971565b6001600160a01b0382163314801590610dfd575060cd5460cc54604051637925ec5360e11b81526001600160a01b03918216600482015291169063f24bd8a690602401600060405180830381865afa158015610dbb573d6000803e3d6000fd5b505050506040513d6000823e601f3d908101601f19168201604052610de391908101906129c0565b606001516001600160a01b0316336001600160a01b031614155b15610e1a576040516282b42960e81b815260040160405180910390fd5b80600003610e3b57604051631b6330bf60e31b815260040160405180910390fd5b610e436111cd565b6000610e4d610c20565b9050610e5881610a18565b600003610f425760cd546040805163086d4af360e11b815290516001600160a01b03909216916381910e3391869184916310da95e69160048083019260209291908290030181865afa158015610eb2573d6000803e3d6000fd5b505050506040513d601f19601f82011682018060405250810190610ed69190612aa7565b6040516001600160e01b031960e085901b1681526001600160a01b0392831660048201529116602482015260448101859052606401600060405180830381600087803b158015610f2557600080fd5b505af1158015610f39573d6000803e3d6000fd5b50505050505050565b600060cf5460ce54610f549190612a94565b60cd5460cc54604051633d867d9560e01b81526001600160a01b039182166004820152911690633d867d9590602401602060405180830381865afa158015610fa0573d6000803e3d6000fd5b505050506040513d601f19601f82011682018060405250810190610fc49190612ac4565b60cd60009054906101000a90046001600160a01b03166001600160a01b0316632210d5256040518163ffffffff1660e01b8152600401602060405180830381865afa158015611017573d6000803e3d6000fd5b505050506040513d601f19601f8201168201806040525081019061103b9190612aa7565b6040516370a0823160e01b81523060048201526001600160a01b0391909116906370a0823190602401602060405180830381865afa158015611081573d6000803e3d6000fd5b505050506040513d601f19601f820116820180604052508101906110a59190612ac4565b6110af9190612a94565b6110b99190612a94565b6110c39084612b16565b90508060ce60008282546110d79190612b16565b9091555050600082815260c96020526040812080548392906110fa908490612b16565b909155505060cd546040516381910e3360e01b81526001600160a01b03868116600483015230602483015260448201869052909116906381910e3390606401600060405180830381600087803b15801561115357600080fd5b505af1158015611167573d6000803e3d6000fd5b505050600083815260c960209081526040918290205482518781529182018590528183015290518492506001600160a01b038716917f8f1f72719a43990ee22667a803313283dbcb7402f1ab7dbf4ab92527e7414aa1919081900360600190a350505050565b60cd5460408051638469ddc760e01b8152905142926001600160a01b031691638469ddc79160048083019260209291908290030181865afa158015611216573d6000803e3d6000fd5b505050506040513d601f19601f8201168201806040525081019061123a9190612ac4565b60d1546112479190612b16565b116112aa5760d180544290915561125c611e7f565b507ff93143fb49fc8d2b453d1e417424c14ace8efd210d63494dbaa7998e5affe0258160d15461128a610c20565b6040805193845260208401929092529082015260600160405180910390a1505b565b6112b46119a0565b6112bc6111cd565b8060ff166000036112e057604051631520048160e21b815260040160405180910390fd5b600060016112ec610c20565b6112f69190612a94565b6001600160a01b038416600090815260ca6020526040902054909150811161133157604051632cfe303760e21b815260040160405180910390fd5b6001600160a01b038316600090815260ca602052604081205460ff8416906113599084612a94565b111561138b576001600160a01b038416600090815260ca60205260409020546113869060ff851690612b16565b61138d565b815b905060008061139a611c87565b6001600160a01b038716600090815260ca6020526040812054919250906113c2906001612b16565b90505b8381116113f5576113d7878284611c92565b6113e19084612b16565b9250806113ed81612b29565b9150506113c5565b506001600160a01b03808716600090815260ca602090815260409182902086905560cd548251632210d52560e01b81529251611482949190911692632210d5259260048083019391928290030181865afa158015611457573d6000803e3d6000fd5b505050506040513d601f19601f8201168201806040525081019061147b9190612aa7565b8784611b39565b8160cf60008282546114949190612b16565b90915550506040518281526001600160a01b0387169033907f0aa4d283470c904c551d18bb894d37e17674920f3261a7f854be501e25f421b79060200160405180910390a3505050506114e76001609755565b5050565b600054610100900460ff161580801561150b5750600054600160ff909116105b806115255750303b158015611525575060005460ff166001145b6115885760405162461bcd60e51b815260206004820152602e60248201527f496e697469616c697a61626c653a20636f6e747261637420697320616c72656160448201526d191e481a5b9a5d1a585b1a5e995960921b6064820152608401610d2c565b6000805460ff1916600117905580156115ab576000805461ff0019166101001790555b6001600160a01b0384166115d257604051637827912560e01b815260040160405180910390fd5b6001600160a01b0383166115f957604051637827912560e01b815260040160405180910390fd5b6001600160a01b03821661162057604051637827912560e01b815260040160405180910390fd5b611628611ed9565b60cc80546001600160a01b038087166001600160a01b03199283161790925560cd8054928616929091169190911790554260d055600060d15561167382670de0b6b3a7640000611db2565b61167b611e7f565b506116846111cd565b80156116ca576000805461ff0019169055604051600181527f7f26b83ff96e1f2b6a682f133852f6798a09c465da95921460cefb38474024989060200160405180910390a15b50505050565b600080806116dc611c87565b905060005b84518160ff1610156117325761171486868360ff168151811061170657611706612b42565b602002602001015184611c92565b61171e9084612b16565b92508061172a81612b58565b9150506116e1565b5090949350505050565b60006001600160781b038084169083166509184e72a00061175c82611f44565b8361179061176b600283612c53565b611781866b409f9cbc7c4a04c220000000612add565b61178b9190612b16565b611f44565b61179a9190612a94565b6117a49190612add565b6108649190612af4565b6001600160a01b03918216600090815260346020908152604080832093909416825291909152205490565b6001600160a01b03831661183b5760405162461bcd60e51b8152602060048201526024808201527f45524332303a20617070726f76652066726f6d20746865207a65726f206164646044820152637265737360e01b6064820152608401610d2c565b6001600160a01b03821661189c5760405162461bcd60e51b815260206004820152602260248201527f45524332303a20617070726f766520746f20746865207a65726f206164647265604482015261737360f01b6064820152608401610d2c565b6001600160a01b0383811660008181526034602090815260408083209487168084529482529182902085905590518481527f8c5be1e5ebec7d5bd14f71427d1e84f3dd0314c0f7b2291e5b200ac8c7c3b925910160405180910390a3505050565b600061190984846117ae565b905060001981146116ca57818110156119645760405162461bcd60e51b815260206004820152601d60248201527f45524332303a20696e73756666696369656e7420616c6c6f77616e63650000006044820152606401610d2c565b6116ca84848484036117d9565b333014611990576040516282b42960e81b815260040160405180910390fd5b61199b838383611fef565b505050565b6002609754036119f25760405162461bcd60e51b815260206004820152601f60248201527f5265656e7472616e637947756172643a207265656e7472616e742063616c6c006044820152606401610d2c565b6002609755565b6001600160a01b038216611a595760405162461bcd60e51b815260206004820152602160248201527f45524332303a206275726e2066726f6d20746865207a65726f206164647265736044820152607360f81b6064820152608401610d2c565b611a65826000836121a5565b6001600160a01b03821660009081526033602052604090205481811015611ad95760405162461bcd60e51b815260206004820152602260248201527f45524332303a206275726e20616d6f756e7420657863656564732062616c616e604482015261636560f01b6064820152608401610d2c565b6001600160a01b03831660008181526033602090815260408083208686039055603580548790039055518581529192917fddf252ad1be2c89b69c2b068fc378daa952ba7f163c4a11628f55a4df523b3ef910160405180910390a3505050565b604080516001600160a01b038416602482015260448082018490528251808303909101815260649091019091526020810180516001600160e01b031663a9059cbb60e01b17905261199b9084906121ed565b60008060008411611bd75760405162461bcd60e51b815260206004820152601660248201527504552433230536e617073686f743a20696420697320360541b6044820152606401610d2c565b611bdf611c87565b841115611c2e5760405162461bcd60e51b815260206004820152601d60248201527f4552433230536e617073686f743a206e6f6e6578697374656e742069640000006044820152606401610d2c565b6000611c3a84866122c2565b84549091508103611c52576000809250925050611c80565b6001846001018281548110611c6957611c69612b42565b90600052602060002001549250925050611c80565b505b9250929050565b6000610caa60685490565b600080828411611caa57611ca584610a18565b611cae565b6035545b905080600003611cc257600091505061050c565b6000838511611cda57611cd58686610824565b611ce3565b611ce386610944565b90506a084595161401484a00000082611d0887600090815260c9602052604090205490565b611d1d846a084595161401484a000000612add565b611d279190612add565b611d319190612af4565b611d3b9190612af4565b9695505050505050565b60006001600160781b03821115611dae5760405162461bcd60e51b815260206004820152602760248201527f53616665436173743a2076616c756520646f65736e27742066697420696e20316044820152663230206269747360c81b6064820152608401610d2c565b5090565b6001600160a01b038216611e085760405162461bcd60e51b815260206004820152601f60248201527f45524332303a206d696e7420746f20746865207a65726f2061646472657373006044820152606401610d2c565b611e14600083836121a5565b8060356000828254611e269190612b16565b90915550506001600160a01b0382166000818152603360209081526040808320805486019055518481527fddf252ad1be2c89b69c2b068fc378daa952ba7f163c4a11628f55a4df523b3ef910160405180910390a35050565b6000611e8f606880546001019055565b6000611e99611c87565b90507f8030e83b04d87bef53480e26263266d6ca66863aa8506aca6f2559d18aa1cb6781604051611ecc91815260200190565b60405180910390a1919050565b600054610100900460ff166112aa5760405162461bcd60e51b815260206004820152602b60248201527f496e697469616c697a61626c653a20636f6e7472616374206973206e6f74206960448201526a6e697469616c697a696e6760a81b6064820152608401610d2c565b60b581600160881b8110611f5d5760409190911b9060801c5b69010000000000000000008110611f795760209190911b9060401c5b650100000000008110611f915760109190911b9060201c5b63010000008110611fa75760089190911b9060101c5b62010000010260121c80820401600190811c80830401811c80830401811c80830401811c80830401811c80830401811c80830401901c808204811115611fea5781045b919050565b6001600160a01b0383166120535760405162461bcd60e51b815260206004820152602560248201527f45524332303a207472616e736665722066726f6d20746865207a65726f206164604482015264647265737360d81b6064820152608401610d2c565b6001600160a01b0382166120b55760405162461bcd60e51b815260206004820152602360248201527f45524332303a207472616e7366657220746f20746865207a65726f206164647260448201526265737360e81b6064820152608401610d2c565b6120c08383836121a5565b6001600160a01b038316600090815260336020526040902054818110156121385760405162461bcd60e51b815260206004820152602660248201527f45524332303a207472616e7366657220616d6f756e7420657863656564732062604482015265616c616e636560d01b6064820152608401610d2c565b6001600160a01b0380851660008181526033602052604080822086860390559286168082529083902080548601905591517fddf252ad1be2c89b69c2b068fc378daa952ba7f163c4a11628f55a4df523b3ef906121989086815260200190565b60405180910390a36116ca565b6001600160a01b0383166121c4576121bc8261236f565b61199b612399565b6001600160a01b0382166121db576121bc8361236f565b6121e48361236f565b61199b8261236f565b6000612242826040518060400160405280602081526020017f5361666545524332303a206c6f772d6c6576656c2063616c6c206661696c6564815250856001600160a01b03166123a79092919063ffffffff16565b90508051600014806122635750808060200190518101906122639190612c62565b61199b5760405162461bcd60e51b815260206004820152602a60248201527f5361666545524332303a204552433230206f7065726174696f6e20646964206e6044820152691bdd081cdd58d8d9595960b21b6064820152608401610d2c565b815460009081036122d5575060006104e7565b82546000905b808210156123225760006122ef83836123b6565b6000878152602090209091508590820154111561230e5780915061231c565b612319816001612b16565b92505b506122db565b60008211801561234e57508361234b8661233d600186612a94565b600091825260209091200190565b54145b156123675761235e600183612a94565b925050506104e7565b5090506104e7565b6001600160a01b03811660009081526065602052604090206107ff9061239483610944565b6123d1565b6112aa606661239460355490565b606061098d848460008561241b565b60006123c56002848418612af4565b61050c90848416612b16565b60006123db611c87565b9050806123e7846124f6565b101561199b578254600180820185556000858152602080822090930193909355938401805494850181558252902090910155565b60608247101561247c5760405162461bcd60e51b815260206004820152602660248201527f416464726573733a20696e73756666696369656e742062616c616e636520666f6044820152651c8818d85b1b60d21b6064820152608401610d2c565b600080866001600160a01b031685876040516124989190612c84565b60006040518083038185875af1925050503d80600081146124d5576040519150601f19603f3d011682016040523d82523d6000602084013e6124da565b606091505b50915091506124eb8783838761253b565b979650505050505050565b8054600090810361250957506000919050565b8154829061251990600190612a94565b8154811061252957612529612b42565b90600052602060002001549050919050565b606083156125aa5782516000036125a3576001600160a01b0385163b6125a35760405162461bcd60e51b815260206004820152601d60248201527f416464726573733a2063616c6c20746f206e6f6e2d636f6e74726163740000006044820152606401610d2c565b508161098d565b61098d83838151156125bf5781518083602001fd5b8060405162461bcd60e51b8152600401610d2c91906125fd565b60005b838110156125f45781810151838201526020016125dc565b50506000910152565b602081526000825180602084015261261c8160408501602087016125d9565b601f01601f19169190910160400192915050565b6001600160a01b03811681146107ff57600080fd5b6000806040838503121561265857600080fd5b823561266381612630565b946020939093013593505050565b60008060006060848603121561268657600080fd5b833561269181612630565b925060208401356126a181612630565b929592945050506040919091013590565b6000602082840312156126c457600080fd5b5035919050565b6000602082840312156126dd57600080fd5b813561050c81612630565b6000806000606084860312156126fd57600080fd5b505081359360208301359350604090920135919050565b80356001600160781b0381168114611fea57600080fd5b60006020828403121561273d57600080fd5b61050c82612714565b6000806040838503121561275957600080fd5b823561276481612630565b9150602083013560ff8116811461277a57600080fd5b809150509250929050565b60008060006060848603121561279a57600080fd5b83356127a581612630565b925060208401356127b581612630565b915060408401356127c581612630565b809150509250925092565b634e487b7160e01b600052604160045260246000fd5b6040516080810167ffffffffffffffff81118282101715612809576128096127d0565b60405290565b604051601f8201601f1916810167ffffffffffffffff81118282101715612838576128386127d0565b604052919050565b6000806040838503121561285357600080fd5b823561285e81612630565b915060208381013567ffffffffffffffff8082111561287c57600080fd5b818601915086601f83011261289057600080fd5b8135818111156128a2576128a26127d0565b8060051b91506128b384830161280f565b81815291830184019184810190898411156128cd57600080fd5b938501935b838510156128eb578435825293850193908501906128d2565b8096505050505050509250929050565b6000806040838503121561290e57600080fd5b61291783612714565b915061292560208401612714565b90509250929050565b6000806040838503121561294157600080fd5b823561294c81612630565b9150602083013561277a81612630565b600082601f83011261296d57600080fd5b815167ffffffffffffffff811115612987576129876127d0565b61299a601f8201601f191660200161280f565b8181528460208386010111156129af57600080fd5b6108628260208301602087016125d9565b6000602082840312156129d257600080fd5b815167ffffffffffffffff808211156129ea57600080fd5b90830190608082860312156129fe57600080fd5b612a066127e6565b825182811115612a1557600080fd5b612a218782860161295c565b825250602083015182811115612a3657600080fd5b612a428782860161295c565b60208301525060408301519150612a5882612630565b81604082015260608301519250612a6e83612630565b6060810192909252509392505050565b634e487b7160e01b600052601160045260246000fd5b818103818111156104e7576104e7612a7e565b600060208284031215612ab957600080fd5b815161050c81612630565b600060208284031215612ad657600080fd5b5051919050565b80820281158282048414176104e7576104e7612a7e565b600082612b1157634e487b7160e01b600052601260045260246000fd5b500490565b808201808211156104e7576104e7612a7e565b600060018201612b3b57612b3b612a7e565b5060010190565b634e487b7160e01b600052603260045260246000fd5b600060ff821660ff8103612b6e57612b6e612a7e565b60010192915050565b600181815b80851115611c7e578160001904821115612b9857612b98612a7e565b80851615612ba557918102915b93841c9390800290612b7c565b600082612bc1575060016104e7565b81612bce575060006104e7565b8160018114612be45760028114612bee57612c0a565b60019150506104e7565b60ff841115612bff57612bff612a7e565b50506001821b6104e7565b5060208310610133831016604e8410600b8410161715612c2d575081810a6104e7565b612c378383612b77565b8060001904821115612c4b57612c4b612a7e565b029392505050565b600061050c60ff841683612bb2565b600060208284031215612c7457600080fd5b8151801515811461050c57600080fd5b60008251612c968184602087016125d9565b919091019291505056fea26469706673582212206894d82d8392f9899ba81363e42861873d7aa78bdd13f2bdc4b3c9b1fa6a5d9064736f6c63430008120033",
    "linkReferences": {}
  },
  "methodIdentifiers": {
    "addRewards(address,uint256)": "a9fc507b",
    "allowance(address,address)": "dd62ed3e",
    "approve(address,uint256)": "095ea7b3",
    "balanceOf(address)": "70a08231",
    "balanceOfAt(address,uint256)": "4ee2cd7e",
    "calculatePurchaseReturn(uint120,uint120)": "d775a4c7",
    "calculateSaleReturn(uint256,uint256,uint256)": "74293bf8",
    "claimRewards(address,uint8)": "b5fc2f85",
    "decimals()": "313ce567",
    "decreaseAllowance(address,uint256)": "a457c2d7",
    "getAllTimeRewards()": "94616420",
    "getAmountStakedByUser(address)": "399d99ec",
    "getClaimableRewardsForUser(address,uint256)": "636f5b27",
    "getCreationTime()": "e6519a35",
    "getCurrentRound()": "a32bf597",
    "getHistoricalRewardsForUserForRounds(address,uint256[])": "cae06944",
    "getLastSnapshotTimestamp()": "7c27ff86",
    "getRoundRewards(uint256)": "91e2057e",
    "getStakingRegistry()": "61347782",
    "getSumOfAllClaimed()": "3b1c612e",
    "getTargetBeingStakedOn()": "3b248c76",
    "increaseAllowance(address,uint256)": "39509351",
    "initialize(address,address,address)": "c0c53b8b",
    "name()": "06fdde03",
    "stake(uint120)": "9ca92dec",
    "symbol()": "95d89b41",
    "takeSnapshot()": "b3d3d37e",
    "totalSupply()": "18160ddd",
    "totalSupplyAt(uint256)": "981b24d0",
    "transfer(address,uint256)": "a9059cbb",
    "transferFrom(address,address,uint256)": "23b872dd",
    "unstake(uint256)": "2e17de78"
  },
  "id": 115
}