{
  "abi": [
    {
      "inputs": [],
      "stateMutability": "nonpayable",
      "type": "constructor"
    },
    {
      "inputs": [],
      "name": "CannotAddZeroRewards",
      "type": "error"
    },
    {
      "inputs": [],
      "name": "CannotClaimCurrentRound",
      "type": "error"
    },
    {
      "inputs": [],
      "name": "ClaimingTooManyRounds",
      "type": "error"
    },
    {
      "inputs": [],
      "name": "ClaimingZeroRounds",
      "type": "error"
    },
    {
      "inputs": [],
      "name": "InsufficientStakedRare",
      "type": "error"
    },
    {
      "inputs": [],
      "name": "InsufficientSyntheticRare",
      "type": "error"
    },
    {
      "inputs": [],
      "name": "RewardAlreadyClaimed",
      "type": "error"
    },
    {
      "inputs": [],
      "name": "Unauthorized",
      "type": "error"
    },
    {
      "inputs": [],
      "name": "ZeroAddressUnsupported",
      "type": "error"
    },
    {
      "anonymous": false,
      "inputs": [
        {
          "indexed": true,
          "internalType": "address",
          "name": "_donor",
          "type": "address"
        },
        {
          "indexed": true,
          "internalType": "uint256",
          "name": "_round",
          "type": "uint256"
        },
        {
          "indexed": false,
          "internalType": "uint256",
          "name": "_amount",
          "type": "uint256"
        },
        {
          "indexed": false,
          "internalType": "uint256",
          "name": "_totalAmountAdded",
          "type": "uint256"
        },
        {
          "indexed": false,
          "internalType": "uint256",
          "name": "_newRoundRewardAmount",
          "type": "uint256"
        }
      ],
      "name": "AddRewards",
      "type": "event"
    },
    {
      "anonymous": false,
      "inputs": [
        {
          "indexed": true,
          "internalType": "address",
          "name": "owner",
          "type": "address"
        },
        {
          "indexed": true,
          "internalType": "address",
          "name": "spender",
          "type": "address"
        },
        {
          "indexed": false,
          "internalType": "uint256",
          "name": "value",
          "type": "uint256"
        }
      ],
      "name": "Approval",
      "type": "event"
    },
    {
      "anonymous": false,
      "inputs": [
        {
          "indexed": false,
          "internalType": "uint8",
          "name": "version",
          "type": "uint8"
        }
      ],
      "name": "Initialized",
      "type": "event"
    },
    {
      "anonymous": false,
      "inputs": [
        {
          "indexed": true,
          "internalType": "address",
          "name": "_msgSender",
          "type": "address"
        },
        {
          "indexed": true,
          "internalType": "address",
          "name": "_claimer",
          "type": "address"
        },
        {
          "indexed": false,
          "internalType": "uint256",
          "name": "_amountToStaker",
          "type": "uint256"
        }
      ],
      "name": "RewardClaimed",
      "type": "event"
    },
    {
      "anonymous": false,
      "inputs": [
        {
          "indexed": false,
          "internalType": "uint256",
          "name": "id",
          "type": "uint256"
        }
      ],
      "name": "Snapshot",
      "type": "event"
    },
    {
      "anonymous": false,
      "inputs": [
        {
          "indexed": true,
          "internalType": "address",
          "name": "_staker",
          "type": "address"
        },
        {
          "indexed": false,
          "internalType": "uint256",
          "name": "_amountStaking",
          "type": "uint256"
        },
        {
          "indexed": false,
          "internalType": "uint256",
          "name": "_totalAmountStaked",
          "type": "uint256"
        },
        {
          "indexed": false,
          "internalType": "uint256",
          "name": "_amountSRareReceived",
          "type": "uint256"
        }
      ],
      "name": "Stake",
      "type": "event"
    },
    {
      "anonymous": false,
      "inputs": [
        {
          "indexed": false,
          "internalType": "uint256",
          "name": "_lastSnapshotTimestamp",
          "type": "uint256"
        },
        {
          "indexed": false,
          "internalType": "uint256",
          "name": "_currentSnapshotTimestamp",
          "type": "uint256"
        },
        {
          "indexed": false,
          "internalType": "uint256",
          "name": "_round",
          "type": "uint256"
        }
      ],
      "name": "StakingSnapshot",
      "type": "event"
    },
    {
      "anonymous": false,
      "inputs": [
        {
          "indexed": true,
          "internalType": "address",
          "name": "from",
          "type": "address"
        },
        {
          "indexed": true,
          "internalType": "address",
          "name": "to",
          "type": "address"
        },
        {
          "indexed": false,
          "internalType": "uint256",
          "name": "value",
          "type": "uint256"
        }
      ],
      "name": "Transfer",
      "type": "event"
    },
    {
      "anonymous": false,
      "inputs": [
        {
          "indexed": true,
          "internalType": "address",
          "name": "_staker",
          "type": "address"
        },
        {
          "indexed": false,
          "internalType": "uint256",
          "name": "_amountUnstaking",
          "type": "uint256"
        },
        {
          "indexed": false,
          "internalType": "uint256",
          "name": "_totalAmountStaked",
          "type": "uint256"
        },
        {
          "indexed": false,
          "internalType": "uint256",
          "name": "_amountRareBurned",
          "type": "uint256"
        },
        {
          "indexed": false,
          "internalType": "uint256",
          "name": "_amountSRareSold",
          "type": "uint256"
        }
      ],
      "name": "Unstake",
      "type": "event"
    },
    {
      "inputs": [
        {
          "internalType": "address",
          "name": "_donor",
          "type": "address"
        },
        {
          "internalType": "uint256",
          "name": "_amount",
          "type": "uint256"
        }
      ],
      "name": "addRewards",
      "outputs": [],
      "stateMutability": "nonpayable",
      "type": "function"
    },
    {
      "inputs": [
        {
          "internalType": "address",
          "name": "owner",
          "type": "address"
        },
        {
          "internalType": "address",
          "name": "spender",
          "type": "address"
        }
      ],
      "name": "allowance",
      "outputs": [
        {
          "internalType": "uint256",
          "name": "",
          "type": "uint256"
        }
      ],
      "stateMutability": "view",
      "type": "function"
    },
    {
      "inputs": [
        {
          "internalType": "address",
          "name": "spender",
          "type": "address"
        },
        {
          "internalType": "uint256",
          "name": "amount",
          "type": "uint256"
        }
      ],
      "name": "approve",
      "outputs": [
        {
          "internalType": "bool",
          "name": "",
          "type": "bool"
        }
      ],
      "stateMutability": "nonpayable",
      "type": "function"
    },
    {
      "inputs": [
        {
          "internalType": "address",
          "name": "account",
          "type": "address"
        }
      ],
      "name": "balanceOf",
      "outputs": [
        {
          "internalType": "uint256",
          "name": "",
          "type": "uint256"
        }
      ],
      "stateMutability": "view",
      "type": "function"
    },
    {
      "inputs": [
        {
          "internalType": "address",
          "name": "account",
          "type": "address"
        },
        {
          "internalType": "uint256",
          "name": "snapshotId",
          "type": "uint256"
        }
      ],
      "name": "balanceOfAt",
      "outputs": [
        {
          "internalType": "uint256",
          "name": "",
          "type": "uint256"
        }
      ],
      "stateMutability": "view",
      "type": "function"
    },
    {
      "inputs": [
        {
          "internalType": "uint120",
          "name": "_totalSRare",
          "type": "uint120"
        },
        {
          "internalType": "uint120",
          "name": "_stakedAmount",
          "type": "uint120"
        }
      ],
      "name": "calculatePurchaseReturn",
      "outputs": [
        {
          "internalType": "uint256",
          "name": "",
          "type": "uint256"
        }
      ],
      "stateMutability": "pure",
      "type": "function"
    },
    {
      "inputs": [
        {
          "internalType": "uint256",
          "name": "_totalSRareByUser",
          "type": "uint256"
        },
        {
          "internalType": "uint256",
          "name": "_totalRareStakedByUser",
          "type": "uint256"
        },
        {
          "internalType": "uint256",
          "name": "_unstakeAmount",
          "type": "uint256"
        }
      ],
      "name": "calculateSaleReturn",
      "outputs": [
        {
          "internalType": "uint256",
          "name": "",
          "type": "uint256"
        }
      ],
      "stateMutability": "pure",
      "type": "function"
    },
    {
      "inputs": [
        {
          "internalType": "address",
          "name": "_user",
          "type": "address"
        },
        {
          "internalType": "uint8",
          "name": "_numRounds",
          "type": "uint8"
        }
      ],
      "name": "claimRewards",
      "outputs": [],
      "stateMutability": "nonpayable",
      "type": "function"
    },
    {
      "inputs": [],
      "name": "decimals",
      "outputs": [
        {
          "internalType": "uint8",
          "name": "",
          "type": "uint8"
        }
      ],
      "stateMutability": "view",
      "type": "function"
    },
    {
      "inputs": [
        {
          "internalType": "address",
          "name": "spender",
          "type": "address"
        },
        {
          "internalType": "uint256",
          "name": "subtractedValue",
          "type": "uint256"
        }
      ],
      "name": "decreaseAllowance",
      "outputs": [
        {
          "internalType": "bool",
          "name": "",
          "type": "bool"
        }
      ],
      "stateMutability": "nonpayable",
      "type": "function"
    },
    {
      "inputs": [],
      "name": "getAllTimeRewards",
      "outputs": [
        {
          "internalType": "uint256",
          "name": "",
          "type": "uint256"
        }
      ],
      "stateMutability": "view",
      "type": "function"
    },
    {
      "inputs": [
        {
          "internalType": "address",
          "name": "_user",
          "type": "address"
        }
      ],
      "name": "getAmountStakedByUser",
      "outputs": [
        {
          "internalType": "uint256",
          "name": "",
          "type": "uint256"
        }
      ],
      "stateMutability": "view",
      "type": "function"
    },
    {
      "inputs": [
        {
          "internalType": "address",
          "name": "_user",
          "type": "address"
        },
        {
          "internalType": "uint256",
          "name": "_numRounds",
          "type": "uint256"
        }
      ],
      "name": "getClaimableRewardsForUser",
      "outputs": [
        {
          "internalType": "uint256",
          "name": "",
          "type": "uint256"
        }
      ],
      "stateMutability": "view",
      "type": "function"
    },
    {
      "inputs": [],
      "name": "getCreationTime",
      "outputs": [
        {
          "internalType": "uint256",
          "name": "",
          "type": "uint256"
        }
      ],
      "stateMutability": "view",
      "type": "function"
    },
    {
      "inputs": [],
      "name": "getCurrentRound",
      "outputs": [
        {
          "internalType": "uint256",
          "name": "",
          "type": "uint256"
        }
      ],
      "stateMutability": "view",
      "type": "function"
    },
    {
      "inputs": [
        {
          "internalType": "address",
          "name": "_user",
          "type": "address"
        },
        {
          "internalType": "uint256[]",
          "name": "_rounds",
          "type": "uint256[]"
        }
      ],
      "name": "getHistoricalRewardsForUserForRounds",
      "outputs": [
        {
          "internalType": "uint256",
          "name": "",
          "type": "uint256"
        }
      ],
      "stateMutability": "view",
      "type": "function"
    },
    {
      "inputs": [],
      "name": "getLastSnapshotTimestamp",
      "outputs": [
        {
          "internalType": "uint256",
          "name": "",
          "type": "uint256"
        }
      ],
      "stateMutability": "view",
      "type": "function"
    },
    {
      "inputs": [
        {
          "internalType": "uint256",
          "name": "_round",
          "type": "uint256"
        }
      ],
      "name": "getRoundRewards",
      "outputs": [
        {
          "internalType": "uint256",
          "name": "",
          "type": "uint256"
        }
      ],
      "stateMutability": "view",
      "type": "function"
    },
    {
      "inputs": [],
      "name": "getStakingRegistry",
      "outputs": [
        {
          "internalType": "address",
          "name": "",
          "type": "address"
        }
      ],
      "stateMutability": "view",
      "type": "function"
    },
    {
      "inputs": [],
      "name": "getSumOfAllClaimed",
      "outputs": [
        {
          "internalType": "uint256",
          "name": "",
          "type": "uint256"
        }
      ],
      "stateMutability": "view",
      "type": "function"
    },
    {
      "inputs": [],
      "name": "getTargetBeingStakedOn",
      "outputs": [
        {
          "internalType": "address",
          "name": "",
          "type": "address"
        }
      ],
      "stateMutability": "view",
      "type": "function"
    },
    {
      "inputs": [
        {
          "internalType": "address",
          "name": "spender",
          "type": "address"
        },
        {
          "internalType": "uint256",
          "name": "addedValue",
          "type": "uint256"
        }
      ],
      "name": "increaseAllowance",
      "outputs": [
        {
          "internalType": "bool",
          "name": "",
          "type": "bool"
        }
      ],
      "stateMutability": "nonpayable",
      "type": "function"
    },
    {
      "inputs": [
        {
          "internalType": "address",
          "name": "_userStakedTo",
          "type": "address"
        },
        {
          "internalType": "address",
          "name": "_stakingRegistry",
          "type": "address"
        },
        {
          "internalType": "address",
          "name": "_creator",
          "type": "address"
        }
      ],
      "name": "initialize",
      "outputs": [],
      "stateMutability": "nonpayable",
      "type": "function"
    },
    {
      "inputs": [],
      "name": "name",
      "outputs": [
        {
          "internalType": "string",
          "name": "",
          "type": "string"
        }
      ],
      "stateMutability": "view",
      "type": "function"
    },
    {
      "inputs": [
        {
          "internalType": "uint120",
          "name": "_amount",
          "type": "uint120"
        }
      ],
      "name": "stake",
      "outputs": [],
      "stateMutability": "nonpayable",
      "type": "function"
    },
    {
      "inputs": [],
      "name": "symbol",
      "outputs": [
        {
          "internalType": "string",
          "name": "",
          "type": "string"
        }
      ],
      "stateMutability": "view",
      "type": "function"
    },
    {
      "inputs": [],
      "name": "takeSnapshot",
      "outputs": [],
      "stateMutability": "nonpayable",
      "type": "function"
    },
    {
      "inputs": [],
      "name": "totalSupply",
      "outputs": [
        {
          "internalType": "uint256",
          "name": "",
          "type": "uint256"
        }
      ],
      "stateMutability": "view",
      "type": "function"
    },
    {
      "inputs": [
        {
          "internalType": "uint256",
          "name": "snapshotId",
          "type": "uint256"
        }
      ],
      "name": "totalSupplyAt",
      "outputs": [
        {
          "internalType": "uint256",
          "name": "",
          "type": "uint256"
        }
      ],
      "stateMutability": "view",
      "type": "function"
    },
    {
      "inputs": [
        {
          "internalType": "address",
          "name": "to",
          "type": "address"
        },
        {
          "internalType": "uint256",
          "name": "amount",
          "type": "uint256"
        }
      ],
      "name": "transfer",
      "outputs": [
        {
          "internalType": "bool",
          "name": "",
          "type": "bool"
        }
      ],
      "stateMutability": "nonpayable",
      "type": "function"
    },
    {
      "inputs": [
        {
          "internalType": "address",
          "name": "from",
          "type": "address"
        },
        {
          "internalType": "address",
          "name": "to",
          "type": "address"
        },
        {
          "internalType": "uint256",
          "name": "amount",
          "type": "uint256"
        }
      ],
      "name": "transferFrom",
      "outputs": [
        {
          "internalType": "bool",
          "name": "",
          "type": "bool"
        }
      ],
      "stateMutability": "nonpayable",
      "type": "function"
    },
    {
      "inputs": [
        {
          "internalType": "uint256",
          "name": "_amount",
          "type": "uint256"
        }
      ],
      "name": "unstake",
      "outputs": [],
      "stateMutability": "nonpayable",
      "type": "function"
    }
  ],
  "bytecode": {
    "object": "0x608080604052346100c1576000549060ff8260081c1661006f575060ff80821603610034575b60405161291c90816100c78239f35b60ff90811916176000557f7f26b83ff96e1f2b6a682f133852f6798a09c465da95921460cefb3847402498602060405160ff8152a138610025565b62461bcd60e51b815260206004820152602760248201527f496e697469616c697a61626c653a20636f6e747261637420697320696e697469604482015266616c697a696e6760c81b6064820152608490fd5b600080fdfe608060408181526004918236101561001657600080fd5b600092833560e01c9184836306fdde03146114435750508163095ea7b31461141957816318160ddd146113fa57816323b872dd1461132e5781632e17de7814610f9d578163313ce56714610f815781633950935114610f32578163399d99ec14610efa5781633b1c612e14610edb5781633b248c7614610eb25781634ee2cd7e14610e895781636134778214610e60578163636f5b2714610d8657816370a0823114610d4e57816374293bf814610d265781637c27ff8614610d0757816391e2057e14610cdf5781639461642014610cc057816395d89b4114610c26578163981b24d014610c065781639ca92dec14610939578163a32bf5971461091c578163a457c2d714610875578163a9059cbb14610844578163a9fc507b1461081f578163b3d3d37e14610803578163b5fc2f85146105d8578163c0c53b8b14610354578163cae069441461024057508063d775a4c7146101f5578063dd62ed3e146101a85763e6519a351461018757600080fd5b346101a457816003193601126101a45760209060d0549051908152f35b5080fd5b50346101a457806003193601126101a4576020916101c461150d565b826101cd611523565b6001600160a01b03928316845260348652922091166000908152908352819020549051908152f35b50903461023d578160031936011261023d5750610210611539565b90602435916001600160781b03831683036102385760209261023191612569565b9051908152f35b600080fd5b80fd5b82843461023d578160031936011261023d5761025a61150d565b9260249384359067ffffffffffffffff908183116103505736602384011215610350578284013591821161033e5760059180831b938751946020926102a184830188611579565b865289838701918301019136831161033a578a849101915b83831061032a575050505085936068549387955b825160ff88161015610321576102f9906102f38786611fe08b871b168701015188612767565b9061159b565b9560ff80911690811461030f57600101956102cd565b634e487b7160e01b8952601188528a89fd5b83908a51908152f35b82358152918101918491016102b9565b8880fd5b634e487b7160e01b8552604184528685fd5b8480fd5b9050346105d45760603660031901126105d45761036f61150d565b90610378611523565b6044356001600160a01b038181169392908483036102385787549560ff8760081c1615968780986105c7575b80156105b0575b156105565760ff1981166001178a5582919088610545575b501691821561053557169081156105255784156105255760ff885460081c16156104ce579061041c92916bffffffffffffffffffffffff60a01b908160cc54161760cc5560cd54161760cd554260d0558660d155611a8c565b610424611adb565b603554670de0b6b3a7640000918282018092116104b9575060206000926000805160206128c783398151915292603555848452603382528684208181540190558651908152a3610472611a55565b5061047b6120c5565b610483575080f35b60207f7f26b83ff96e1f2b6a682f133852f6798a09c465da95921460cefb38474024989161ff001984541684555160018152a180f35b601190634e487b7160e01b6000525260246000fd5b865162461bcd60e51b8152602081860152602b60248201527f496e697469616c697a61626c653a20636f6e7472616374206973206e6f74206960448201526a6e697469616c697a696e6760a81b6064820152608490fd5b8651637827912560e01b81528490fd5b8751637827912560e01b81528590fd5b61ffff1916610101178a55386103c3565b885162461bcd60e51b8152602081880152602e60248201527f496e697469616c697a61626c653a20636f6e747261637420697320616c72656160448201526d191e481a5b9a5d1a585b1a5e995960921b6064820152608490fd5b50303b1580156103ab5750600160ff8216146103ab565b50600160ff8216106103a4565b8280fd5b9050346105d457816003193601126105d4576105f261150d565b60243560ff8116809103610350576106086121a4565b6106106120c5565b80156107f35761061e612411565b6000198101949085116107e05760018060a01b038084169586885260209360ca855281848a205410156107d05787895260ca855280610660858b2054846118b1565b116107b55750945b8795606854888a5260ca8652848a2054600181018091116107a257905b8282111561078257505087895260ca855283892055838260cd5416845192838092632210d52560e01b82525afa90811561077857908692918991610711575b50946106f392917f0aa4d283470c904c551d18bb894d37e17674920f3261a7f854be501e25f421b7961661220d565b6106ff8460cf5461159b565b60cf55519283523392a3600160975580f35b80929350858092503d8311610771575b61072b8183611579565b8101031261076d577f0aa4d283470c904c551d18bb894d37e17674920f3261a7f854be501e25f421b7946106f3926107638893611c3c565b91965091926106c4565b8780fd5b503d610721565b83513d8a823e3d90fd5b909761079661079c916102f3848c8c612767565b98612402565b90610685565b634e487b7160e01b8b526011845260248bfd5b6107ca915087895260ca85528389205461159b565b94610668565b8351632cfe303760e21b81528790fd5b634e487b7160e01b865260118452602486fd5b8351631520048160e21b81528390fd5b833461023d578060031936011261023d5761081c6120c5565b80f35b5050346101a45736600319011261023d5761081c61083b61150d565b60243590611ce7565b5050346101a457806003193601126101a45760209061086e61086461150d565b60243590336125ed565b5160018152f35b9050823461023d578260031936011261023d5761089061150d565b91836024359233815260346020522060018060a01b0384166000526020528360002054908282106108cb5760208561086e85850387336115be565b608490602086519162461bcd60e51b8352820152602560248201527f45524332303a2064656372656173656420616c6c6f77616e63652062656c6f77604482015264207a65726f60d81b6064820152fd5b5050346101a457816003193601126101a457602090610231612411565b9050346105d45760209182600319360112610b6e57610956611539565b9261095f6121a4565b6109676120c5565b338552603381528185205415610be2575b603554926001600160781b0393848111610b90576109998686899316612569565b60cd546001600160a01b039791969088169190823b15610b6e5786516381910e3360e01b8152338682019081523060208201526001600160781b0384166040820152859082908190606001038183885af18015610b8657908591610b72575b505081169733845260cb8652868420610a128a825461159b565b905560cc541690823b15610b6e578651632608ff3560e01b8152338682019081526001600160a01b0390931660208401526001600160781b03909116604083015291839183919082908490829060600103925af18015610b6457610b4c575b50503315610b0b5750610a8333611a8c565b610a8b611adb565b610a978360355461159b565b603555336000526033815281600020838154019055815183815260006000805160206128c7833981519152833393a333855260cb8152818520549082519485528401528201527ff556991011e831bcfac4f406d547e5e32cdd98267efab83935230d5f8d02c44660603392a2600160975580f35b915162461bcd60e51b815291820152601f60248201527f45524332303a206d696e7420746f20746865207a65726f2061646472657373006044820152606490fd5b610b559061154f565b610b60578538610a71565b8580fd5b85513d84823e3d90fd5b8380fd5b610b7b9061154f565b610b6e5783386109f8565b88513d87823e3d90fd5b50915162461bcd60e51b815291820152602760248201527f53616665436173743a2076616c756520646f65736e27742066697420696e20316044820152663230206269747360c81b6064820152608490fd5b610bea612411565b60001981019081116107e05733865260ca825282862055610978565b82843461023d57602036600319011261023d575061023160209235611701565b9050346105d457826003193601126105d45760cd5460cc548351637925ec5360e11b81526001600160a01b0391821693810193909352849183916024918391165afa908115610cb4579060209184610c8d9592610c91575b505001519051918291826114e1565b0390f35b610cad92503d8091833e610ca58183611579565b810190611c50565b3880610c7e565b505051903d90823e3d90fd5b5050346101a457816003193601126101a45760209060ce549051908152f35b9050346105d45760203660031901126105d457602092829135815260c9845220549051908152f35b5050346101a457816003193601126101a45760209060d1549051908152f35b82843461023d57606036600319011261023d57506102316020926044359060243590356125c6565b5050346101a45760203660031901126101a45760209181906001600160a01b03610d7661150d565b1681526033845220549051908152f35b9050823461023d578260031936011261023d57610da161150d565b90602435918193610db0612411565b926068549360018060a01b0384169586835260ca60205280610dd58a852054846118b1565b1115610e5957610df1915086835260ca6020528883205461159b565b945b815260ca602052868120549160018301809311610e465750509291905b82841115610e22576020858751908152f35b90919293610e38610e3e916102f3858886612767565b94612402565b929190610e10565b634e487b7160e01b825260119052602490fd5b5094610df3565b5050346101a457816003193601126101a45760cd5490516001600160a01b039091168152602090f35b5050346101a457806003193601126101a457602090610231610ea961150d565b602435906116c0565b5050346101a457816003193601126101a45760cc5490516001600160a01b039091168152602090f35b5050346101a457816003193601126101a45760209060cf549051908152f35b5050346101a45760203660031901126101a45760209181906001600160a01b03610f2261150d565b16815260cb845220549051908152f35b5050346101a457806003193601126101a45761086e60209282610f5361150d565b91338152603486522060018060a01b0382166000528452610f7a602435846000205461159b565b90336115be565b5050346101a457816003193601126101a4576020905160128152f35b919050346105d45760209182600319360112610b6e57803591610fbe6121a4565b610fc66120c5565b338552603384528085205483116113215733855260cb8452808520549360338152610ff58486848920546125c6565b948086116113125761100786826118b1565b33885260cb83528388205560cd5460cc546001600160a01b039182169089908316823b156101a45786516332b1f19760e21b815233818a019081526001600160a01b039092166020830152604082018b905292839182908490829060600103925af18015611308576112f5575b5033156112a85761108433611a8c565b61108c611adb565b338852603383528388205486811061125a578690338a5260338552038489205585603554036035558784518781526000805160206128c7833981519152853392a3878160cd5416918551632210d52560e01b815285818981875afa9081156112505791869189938591611215575b50169387519283809263f7ef8ead60e01b82525afa9081156111d85782916111e2575b5061112b612710918a6121fa565b0495823b156101a4578551630852cd8d60e31b8152908101879052818160248183875af180156111d85790899392916111bf575b50509161117b6111809361117388856118b1565b90339061220d565b6118b1565b90825195865285015283015260608201527f05b744e3e9358bc00ba3cc0c6606a4d6536134dba00b2d2ee4b5de169acd642760803392a2600160975580f35b6111cb9192935061154f565b61076d578690883861115f565b86513d84823e3d90fd5b809250858092503d831161120e575b6111fb8183611579565b810103126102385751889061112b61111d565b503d6111f1565b92809294508391503d8311611249575b61122f8183611579565b810103126105d45787916112438792611c3c565b386110fa565b503d611225565b87513d85823e3d90fd5b845162461bcd60e51b8152808701859052602260248201527f45524332303a206275726e20616d6f756e7420657863656564732062616c616e604482015261636560f01b6064820152608490fd5b835162461bcd60e51b8152808601849052602160248201527f45524332303a206275726e2066726f6d20746865207a65726f206164647265736044820152607360f81b6064820152608490fd5b6113019098919861154f565b9638611074565b85513d8b823e3d90fd5b505051631360e97760e21b8152fd5b51631694941360e11b8152fd5b839150346101a45760603660031901126101a45761134a61150d565b611352611523565b6001600160a01b0382168452603460209081528585203386529052928490205460443593926001820161138e575b60208661086e8787876125ed565b8482106113b757509183916113ac6020969561086e950333836115be565b919394819350611380565b606490602087519162461bcd60e51b8352820152601d60248201527f45524332303a20696e73756666696369656e7420616c6c6f77616e63650000006044820152fd5b5050346101a457816003193601126101a4576020906035549051908152f35b5050346101a457806003193601126101a45760209061086e61143961150d565b60243590336115be565b91909250346101a457816003193601126101a45760cd5460cc54637925ec5360e11b85526001600160a01b039081169285019290925283916024918391165afa908115610cb45783610c8d94926114a3575b5050519051918291826114e1565b6114b792503d8091833e610ca58183611579565b3880611495565b60005b8381106114d15750506000910152565b81810151838201526020016114c1565b6040916020825261150181518092816020860152602086860191016114be565b601f01601f1916010190565b600435906001600160a01b038216820361023857565b602435906001600160a01b038216820361023857565b600435906001600160781b038216820361023857565b67ffffffffffffffff811161156357604052565b634e487b7160e01b600052604160045260246000fd5b90601f8019910116810190811067ffffffffffffffff82111761156357604052565b919082018092116115a857565b634e487b7160e01b600052601160045260246000fd5b6001600160a01b0390811691821561166f571691821561161f5760207f8c5be1e5ebec7d5bd14f71427d1e84f3dd0314c0f7b2291e5b200ac8c7c3b925918360005260348252604060002085600052825280604060002055604051908152a3565b60405162461bcd60e51b815260206004820152602260248201527f45524332303a20617070726f766520746f20746865207a65726f206164647265604482015261737360f01b6064820152608490fd5b60405162461bcd60e51b8152602060048201526024808201527f45524332303a20617070726f76652066726f6d20746865207a65726f206164646044820152637265737360e01b6064820152608490fd5b6001600160a01b0316600081815260656020526040902090916116e3919061187a565b91600091156116f157505090565b6040925081526033602052205490565b61170a906117b6565b90156117135790565b5060355490565b6067548110156117515760676000527f9787eeb91fe3101235e4a76063c7023ecb40f923f97916639c598592fa30d6ae0190600090565b634e487b7160e01b600052603260045260246000fd5b6066548110156117515760666000527f46501879b8ca8525e8c2fd519e2fbfcfa2ebea26501294aa02cbfcfb12e943540190600090565b80548210156117515760005260206000200190600090565b801561183c5760685481116117f7576117ce906118be565b60665481036117e05750600090600090565b6117e99061171a565b90549060031b1c9060019190565b60405162461bcd60e51b815260206004820152601d60248201527f4552433230536e617073686f743a206e6f6e6578697374656e742069640000006044820152606490fd5b60405162461bcd60e51b815260206004820152601660248201527504552433230536e617073686f743a20696420697320360541b6044820152606490fd5b801561183c5760685481116117f757611893908261199b565b815481036118a5575050600090600090565b60016117e9920161179e565b919082039182116115a857565b60668054918215611993576000925b808410611935575082151591826118f8575b5050156118f55760001981019081116115a85790565b90565b909150826000198101116115a8576000527f46501879b8ca8525e8c2fd519e2fbfcfa2ebea26501294aa02cbfcfb12e943538201541438806118df565b600190611948818618831c82871661159b565b918460005283837f46501879b8ca8525e8c2fd519e2fbfcfa2ebea26501294aa02cbfcfb12e943540154116000146119815750506118cd565b90945081018091116115a857926118cd565b505050600090565b8054918215611993576000925b8084106119f3575082151591826119cf575050156118f55760001981019081116115a85790565b9091506000199083828101116115a8576000528260206000200101541438806118df565b600190611a06818618831c82871661159b565b918460005283836020600020015411600014611a235750506119a8565b90945081018091116115a857926119a8565b8115611a3f570490565b634e487b7160e01b600052601260045260246000fd5b600160685401806068557f8030e83b04d87bef53480e26263266d6ca66863aa8506aca6f2559d18aa1cb676020604051838152a190565b60018060a01b031660005260656020526040600020603360205260406000205460685480611ab984611bbb565b10611ac357505050565b82611ad3600192611ad995611b59565b01611b59565b565b6035546068549081611aeb611b8e565b10611af4575050565b606654600160401b908181101561156357806001611b159201606655611767565b81549060031b906000198096831b921b19161790556067549081101561156357806001611b45920160675561171a565b909283549160031b92831b921b1916179055565b8054600160401b81101561156357611b769160018201815561179e565b819291549060031b91821b91600019901b1916179055565b60665480611b9c5750600090565b60001981019081116115a857611bb190611767565b90549060031b1c90565b805480611bc9575050600090565b60001981019081116115a857611bb19161179e565b67ffffffffffffffff811161156357601f01601f191660200190565b81601f82011215610238578051611c1081611bde565b92611c1e6040519485611579565b81845260208284010111610238576118f591602080850191016114be565b51906001600160a01b038216820361023857565b60208183031261023857805167ffffffffffffffff91828211610238570191608083820312610238576040519260808401848110848211176115635760405280518381116102385782611ca4918301611bfa565b8452602081015192831161023857611cc3606092611cdf948301611bfa565b6020850152611cd460408201611c3c565b604085015201611c3c565b606082015290565b906001600160a01b03808316913383141580612059575b61204857600093811561203657611d136120c5565b611d1b612411565b94611d2586611701565b15611f5a578360cd5416604092835191632210d52560e01b83526020928381600481855afa908115611eec57889185918791611f23575b5060248851809481936370a0823160e01b8352306004840152165afa908115611eec578591611ef6575b50838860cc54166024885180958193633d867d9560e01b835260048301525afa908115611eec578591611ebb575b611dbe92506118b1565b95611deb611de4611dde60ce5499611dd860cf548c6118b1565b906118b1565b8861159b565b809861159b565b60ce5588845260c98352848420611e0388825461159b565b905560cd541690813b15610b6e5784516381910e3360e01b81526001600160a01b03919091166004820152306024820152604481018690529083908290606490829084905af18015611eb157611e9d575b5086825260c99052819020549051918252602082019290925260408101919091527f8f1f72719a43990ee22667a803313283dbcb7402f1ab7dbf4ab92527e7414aa190606090a3565b611ea7839161154f565b6101a45738611e54565b84513d85823e3d90fd5b90508382813d8311611ee5575b611ed28183611579565b8101031261023857611dbe915190611db4565b503d611ec8565b86513d87823e3d90fd5b90508381813d8311611f1c575b611f0d8183611579565b81010312610238575138611d86565b503d611f03565b92505081813d8311611f53575b611f3a8183611579565b810103126103505783611f4d8992611c3c565b38611d5c565b503d611f30565b94509190925060cd5416906040519063086d4af360e11b8252602082600481865afa91821561202b578592611ff0575b50823b15610350576040516381910e3360e01b81526001600160a01b03918216600482015291166024820152604481019290925282908290606490829084905af18015611fe557611fd9575050565b611fe29061154f565b50565b6040513d84823e3d90fd5b9091506020813d8211612023575b8161200b60209383611579565b810103126103505761201c90611c3c565b9038611f8a565b3d9150611ffe565b6040513d87823e3d90fd5b604051631b6330bf60e31b8152600490fd5b6040516282b42960e81b8152600490fd5b508160cd541660008360cc5416602460405180948193637925ec5360e11b835260048301525afa9081156120b95783916060916000916120a0575b50015116331415611cfe565b6120b3913d8091833e610ca58183611579565b38612094565b6040513d6000823e3d90fd5b60d15460cd54604051638469ddc760e01b815290602090829060049082906001600160a01b03165afa80156120b957600090612171575b61210791508261159b565b4210156121115750565b7ff93143fb49fc8d2b453d1e417424c14ace8efd210d63494dbaa7998e5affe025904260d15561213f611a55565b5060d1549061216c61214f612411565b604051938493846040919493926060820195825260208201520152565b0390a1565b6020823d821161219c575b8161218960209383611579565b8101031261023d575061210790516120fc565b3d915061217c565b6002609754146121b5576002609755565b60405162461bcd60e51b815260206004820152601f60248201527f5265656e7472616e637947756172643a207265656e7472616e742063616c6c006044820152606490fd5b818102929181159184041417156115a857565b60405163a9059cbb60e01b60208083019182526001600160a01b0394851660248401526044808401969096529482529267ffffffffffffffff92608083019291908484118385101761156357169060c081019383851090851117611563576122d3936040528583527f5361666545524332303a206c6f772d6c6576656c2063616c6c206661696c656460a0820152600080958192519082855af13d15612369573d916122b883611bde565b926122c66040519485611579565b83523d868885013e61236d565b805191821591848315612345575b5050509050156122ee5750565b6084906040519062461bcd60e51b82526004820152602a60248201527f5361666545524332303a204552433230206f7065726174696f6e20646964206e6044820152691bdd081cdd58d8d9595960b21b6064820152fd5b9193818094500103126101a45782015190811515820361023d5750803880846122e1565b6060915b919290156123cf5750815115612381575090565b3b1561238a5790565b60405162461bcd60e51b815260206004820152601d60248201527f416464726573733a2063616c6c20746f206e6f6e2d636f6e74726163740000006044820152606490fd5b8251909150156123e25750805190602001fd5b60405162461bcd60e51b81529081906123fe90600483016114e1565b0390fd5b60001981146115a85760010190565b60d15460cd54604051638469ddc760e01b8152929190602090849060049082906001600160a01b03165afa9283156120b957600093612474575b5091612457919261159b565b421061246e57606854600181018091116115a85790565b60685490565b6020813d821161249f575b8161248c60209383611579565b81010312610b6e5751925061245761244b565b3d915061247f565b600090801561256557808060011461255d57600214612555576001918261013383101683600b841016176125455760028392935b808211612508575050826000190482116124f457500290565b634e487b7160e01b81526011600452602490fd5b90938060001904811161253157818516612528575b800293811c906124db565b8093029261251d565b634e487b7160e01b83526011600452602483fd5b929150600283910a926124f45750565b509060049150565b505050600190565b5090565b6001600160781b0380911691166b409f9cbc7c4a04c2200000009080820291820481036115a8576125bc6125b68461117b6125b16125c2966102f36509184e72a000996124a7565b612800565b91612800565b906121fa565b0490565b6064830292808404606414901517156115a8576125e86125c2926064946121fa565b611a35565b9091303303612048576001600160a01b03828116929083156127145784169384156126c35761261e61262392611a8c565b611a8c565b6000828152603360205260408120549180831061266f57604082826000805160206128c783398151915295876020965260338652038282205586815220818154019055604051908152a3565b60405162461bcd60e51b815260206004820152602660248201527f45524332303a207472616e7366657220616d6f756e7420657863656564732062604482015265616c616e636560d01b6064820152608490fd5b60405162461bcd60e51b815260206004820152602360248201527f45524332303a207472616e7366657220746f20746865207a65726f206164647260448201526265737360e81b6064820152608490fd5b60405162461bcd60e51b815260206004820152602560248201527f45524332303a207472616e736665722066726f6d20746865207a65726f206164604482015264647265737360d81b6064820152608490fd5b909182119081156127f157603554915b82156127e8578390156127d957506001600160a01b0316600090815260336020526040902054905b6a084595161401484a00000092838302928084048514901517156115a8576125c2926125e89160005260c9602052604060002054906121fa565b6127e2916116c0565b9061279f565b50505050600090565b6127fa83611701565b91612777565b9060b582600160881b8110156128af575b806901000000000000000000620100009210156128a2575b65010000000000811015612895575b6301000000811015612888575b010260121c60019080840401811c80840401811c80840401811c80840401811c80840401811c80840401811c80840401901c8092048281106128845750565b9150565b60101c9160081b91612845565b60201c9160101b91612838565b60401c9160201b91612829565b5068b500000000000000009050608083901c61281156feddf252ad1be2c89b69c2b068fc378daa952ba7f163c4a11628f55a4df523b3efa264697066735822122042fe264aa9e1313d78df50602cf75997d5be0aa43e76269676b1a72b89d8645664736f6c63430008120033",
    "linkReferences": {}
  },
  "methodIdentifiers": {
    "addRewards(address,uint256)": "a9fc507b",
    "allowance(address,address)": "dd62ed3e",
    "approve(address,uint256)": "095ea7b3",
    "balanceOf(address)": "70a08231",
    "balanceOfAt(address,uint256)": "4ee2cd7e",
    "calculatePurchaseReturn(uint120,uint120)": "d775a4c7",
    "calculateSaleReturn(uint256,uint256,uint256)": "74293bf8",
    "claimRewards(address,uint8)": "b5fc2f85",
    "decimals()": "313ce567",
    "decreaseAllowance(address,uint256)": "a457c2d7",
    "getAllTimeRewards()": "94616420",
    "getAmountStakedByUser(address)": "399d99ec",
    "getClaimableRewardsForUser(address,uint256)": "636f5b27",
    "getCreationTime()": "e6519a35",
    "getCurrentRound()": "a32bf597",
    "getHistoricalRewardsForUserForRounds(address,uint256[])": "cae06944",
    "getLastSnapshotTimestamp()": "7c27ff86",
    "getRoundRewards(uint256)": "91e2057e",
    "getStakingRegistry()": "61347782",
    "getSumOfAllClaimed()": "3b1c612e",
    "getTargetBeingStakedOn()": "3b248c76",
    "increaseAllowance(address,uint256)": "39509351",
    "initialize(address,address,address)": "c0c53b8b",
    "name()": "06fdde03",
    "stake(uint120)": "9ca92dec",
    "symbol()": "95d89b41",
    "takeSnapshot()": "b3d3d37e",
    "totalSupply()": "18160ddd",
    "totalSupplyAt(uint256)": "981b24d0",
    "transfer(address,uint256)": "a9059cbb",
    "transferFrom(address,address,uint256)": "23b872dd",
    "unstake(uint256)": "2e17de78"
  },
  "id": 188
}