{
  "abi": [
    {
      "inputs": [],
      "stateMutability": "nonpayable",
      "type": "constructor"
    },
    {
      "inputs": [],
      "name": "CannotAddZeroRewards",
      "type": "error"
    },
    {
      "inputs": [],
      "name": "CannotClaimCurrentRound",
      "type": "error"
    },
    {
      "inputs": [],
      "name": "ClaimingTooManyRounds",
      "type": "error"
    },
    {
      "inputs": [],
      "name": "ClaimingZeroRounds",
      "type": "error"
    },
    {
      "inputs": [],
      "name": "InsufficientStakedRare",
      "type": "error"
    },
    {
      "inputs": [],
      "name": "InsufficientSyntheticRare",
      "type": "error"
    },
    {
      "inputs": [],
      "name": "RewardAlreadyClaimed",
      "type": "error"
    },
    {
      "inputs": [],
      "name": "Unauthorized",
      "type": "error"
    },
    {
      "inputs": [],
      "name": "ZeroAddressUnsupported",
      "type": "error"
    },
    {
      "anonymous": false,
      "inputs": [
        {
          "indexed": true,
          "internalType": "address",
          "name": "_donor",
          "type": "address"
        },
        {
          "indexed": true,
          "internalType": "uint256",
          "name": "_round",
          "type": "uint256"
        },
        {
          "indexed": false,
          "internalType": "uint256",
          "name": "_amount",
          "type": "uint256"
        },
        {
          "indexed": false,
          "internalType": "uint256",
          "name": "_totalAmountAdded",
          "type": "uint256"
        },
        {
          "indexed": false,
          "internalType": "uint256",
          "name": "_newRoundRewardAmount",
          "type": "uint256"
        }
      ],
      "name": "AddRewards",
      "type": "event"
    },
    {
      "anonymous": false,
      "inputs": [
        {
          "indexed": true,
          "internalType": "address",
          "name": "owner",
          "type": "address"
        },
        {
          "indexed": true,
          "internalType": "address",
          "name": "spender",
          "type": "address"
        },
        {
          "indexed": false,
          "internalType": "uint256",
          "name": "value",
          "type": "uint256"
        }
      ],
      "name": "Approval",
      "type": "event"
    },
    {
      "anonymous": false,
      "inputs": [
        {
          "indexed": false,
          "internalType": "uint8",
          "name": "version",
          "type": "uint8"
        }
      ],
      "name": "Initialized",
      "type": "event"
    },
    {
      "anonymous": false,
      "inputs": [
        {
          "indexed": true,
          "internalType": "address",
          "name": "_msgSender",
          "type": "address"
        },
        {
          "indexed": true,
          "internalType": "address",
          "name": "_claimer",
          "type": "address"
        },
        {
          "indexed": false,
          "internalType": "uint256",
          "name": "_amountToStaker",
          "type": "uint256"
        }
      ],
      "name": "RewardClaimed",
      "type": "event"
    },
    {
      "anonymous": false,
      "inputs": [
        {
          "indexed": false,
          "internalType": "uint256",
          "name": "id",
          "type": "uint256"
        }
      ],
      "name": "Snapshot",
      "type": "event"
    },
    {
      "anonymous": false,
      "inputs": [
        {
          "indexed": true,
          "internalType": "address",
          "name": "_staker",
          "type": "address"
        },
        {
          "indexed": false,
          "internalType": "uint256",
          "name": "_amountStaking",
          "type": "uint256"
        },
        {
          "indexed": false,
          "internalType": "uint256",
          "name": "_totalAmountStaked",
          "type": "uint256"
        },
        {
          "indexed": false,
          "internalType": "uint256",
          "name": "_amountSRareReceived",
          "type": "uint256"
        }
      ],
      "name": "Stake",
      "type": "event"
    },
    {
      "anonymous": false,
      "inputs": [
        {
          "indexed": false,
          "internalType": "uint256",
          "name": "_lastSnapshotTimestamp",
          "type": "uint256"
        },
        {
          "indexed": false,
          "internalType": "uint256",
          "name": "_currentSnapshotTimestamp",
          "type": "uint256"
        },
        {
          "indexed": false,
          "internalType": "uint256",
          "name": "_round",
          "type": "uint256"
        }
      ],
      "name": "StakingSnapshot",
      "type": "event"
    },
    {
      "anonymous": false,
      "inputs": [
        {
          "indexed": true,
          "internalType": "address",
          "name": "from",
          "type": "address"
        },
        {
          "indexed": true,
          "internalType": "address",
          "name": "to",
          "type": "address"
        },
        {
          "indexed": false,
          "internalType": "uint256",
          "name": "value",
          "type": "uint256"
        }
      ],
      "name": "Transfer",
      "type": "event"
    },
    {
      "anonymous": false,
      "inputs": [
        {
          "indexed": true,
          "internalType": "address",
          "name": "_staker",
          "type": "address"
        },
        {
          "indexed": false,
          "internalType": "uint256",
          "name": "_amountUnstaking",
          "type": "uint256"
        },
        {
          "indexed": false,
          "internalType": "uint256",
          "name": "_totalAmountStaked",
          "type": "uint256"
        },
        {
          "indexed": false,
          "internalType": "uint256",
          "name": "_amountRareBurned",
          "type": "uint256"
        },
        {
          "indexed": false,
          "internalType": "uint256",
          "name": "_amountSRareSold",
          "type": "uint256"
        }
      ],
      "name": "Unstake",
      "type": "event"
    },
    {
      "inputs": [
        {
          "internalType": "address",
          "name": "_donor",
          "type": "address"
        },
        {
          "internalType": "uint256",
          "name": "_amount",
          "type": "uint256"
        }
      ],
      "name": "addRewards",
      "outputs": [],
      "stateMutability": "nonpayable",
      "type": "function"
    },
    {
      "inputs": [
        {
          "internalType": "address",
          "name": "owner",
          "type": "address"
        },
        {
          "internalType": "address",
          "name": "spender",
          "type": "address"
        }
      ],
      "name": "allowance",
      "outputs": [
        {
          "internalType": "uint256",
          "name": "",
          "type": "uint256"
        }
      ],
      "stateMutability": "view",
      "type": "function"
    },
    {
      "inputs": [
        {
          "internalType": "address",
          "name": "spender",
          "type": "address"
        },
        {
          "internalType": "uint256",
          "name": "amount",
          "type": "uint256"
        }
      ],
      "name": "approve",
      "outputs": [
        {
          "internalType": "bool",
          "name": "",
          "type": "bool"
        }
      ],
      "stateMutability": "nonpayable",
      "type": "function"
    },
    {
      "inputs": [
        {
          "internalType": "address",
          "name": "account",
          "type": "address"
        }
      ],
      "name": "balanceOf",
      "outputs": [
        {
          "internalType": "uint256",
          "name": "",
          "type": "uint256"
        }
      ],
      "stateMutability": "view",
      "type": "function"
    },
    {
      "inputs": [
        {
          "internalType": "address",
          "name": "account",
          "type": "address"
        },
        {
          "internalType": "uint256",
          "name": "snapshotId",
          "type": "uint256"
        }
      ],
      "name": "balanceOfAt",
      "outputs": [
        {
          "internalType": "uint256",
          "name": "",
          "type": "uint256"
        }
      ],
      "stateMutability": "view",
      "type": "function"
    },
    {
      "inputs": [
        {
          "internalType": "uint120",
          "name": "_totalSRare",
          "type": "uint120"
        },
        {
          "internalType": "uint120",
          "name": "_stakedAmount",
          "type": "uint120"
        }
      ],
      "name": "calculatePurchaseReturn",
      "outputs": [
        {
          "internalType": "uint256",
          "name": "",
          "type": "uint256"
        }
      ],
      "stateMutability": "pure",
      "type": "function"
    },
    {
      "inputs": [
        {
          "internalType": "uint256",
          "name": "_totalSRareByUser",
          "type": "uint256"
        },
        {
          "internalType": "uint256",
          "name": "_totalRareStakedByUser",
          "type": "uint256"
        },
        {
          "internalType": "uint256",
          "name": "_unstakeAmount",
          "type": "uint256"
        }
      ],
      "name": "calculateSaleReturn",
      "outputs": [
        {
          "internalType": "uint256",
          "name": "",
          "type": "uint256"
        }
      ],
      "stateMutability": "pure",
      "type": "function"
    },
    {
      "inputs": [
        {
          "internalType": "address",
          "name": "_user",
          "type": "address"
        },
        {
          "internalType": "uint8",
          "name": "_numRounds",
          "type": "uint8"
        }
      ],
      "name": "claimRewards",
      "outputs": [],
      "stateMutability": "nonpayable",
      "type": "function"
    },
    {
      "inputs": [],
      "name": "decimals",
      "outputs": [
        {
          "internalType": "uint8",
          "name": "",
          "type": "uint8"
        }
      ],
      "stateMutability": "view",
      "type": "function"
    },
    {
      "inputs": [
        {
          "internalType": "address",
          "name": "spender",
          "type": "address"
        },
        {
          "internalType": "uint256",
          "name": "subtractedValue",
          "type": "uint256"
        }
      ],
      "name": "decreaseAllowance",
      "outputs": [
        {
          "internalType": "bool",
          "name": "",
          "type": "bool"
        }
      ],
      "stateMutability": "nonpayable",
      "type": "function"
    },
    {
      "inputs": [],
      "name": "getAllStakers",
      "outputs": [
        {
          "internalType": "address[]",
          "name": "",
          "type": "address[]"
        }
      ],
      "stateMutability": "view",
      "type": "function"
    },
    {
      "inputs": [],
      "name": "getAllTimeRewards",
      "outputs": [
        {
          "internalType": "uint256",
          "name": "",
          "type": "uint256"
        }
      ],
      "stateMutability": "view",
      "type": "function"
    },
    {
      "inputs": [
        {
          "internalType": "address",
          "name": "_user",
          "type": "address"
        }
      ],
      "name": "getAmountStakedByUser",
      "outputs": [
        {
          "internalType": "uint256",
          "name": "",
          "type": "uint256"
        }
      ],
      "stateMutability": "view",
      "type": "function"
    },
    {
      "inputs": [
        {
          "internalType": "address",
          "name": "_user",
          "type": "address"
        },
        {
          "internalType": "uint256",
          "name": "_numRounds",
          "type": "uint256"
        }
      ],
      "name": "getClaimableRewardsForUser",
      "outputs": [
        {
          "internalType": "uint256",
          "name": "",
          "type": "uint256"
        }
      ],
      "stateMutability": "view",
      "type": "function"
    },
    {
      "inputs": [],
      "name": "getCreationTime",
      "outputs": [
        {
          "internalType": "uint256",
          "name": "",
          "type": "uint256"
        }
      ],
      "stateMutability": "view",
      "type": "function"
    },
    {
      "inputs": [],
      "name": "getCurrentRound",
      "outputs": [
        {
          "internalType": "uint256",
          "name": "",
          "type": "uint256"
        }
      ],
      "stateMutability": "view",
      "type": "function"
    },
    {
      "inputs": [
        {
          "internalType": "address",
          "name": "_user",
          "type": "address"
        },
        {
          "internalType": "uint256[]",
          "name": "_rounds",
          "type": "uint256[]"
        }
      ],
      "name": "getHistoricalRewardsForUserForRounds",
      "outputs": [
        {
          "internalType": "uint256",
          "name": "",
          "type": "uint256"
        }
      ],
      "stateMutability": "view",
      "type": "function"
    },
    {
      "inputs": [],
      "name": "getLastSnapshotTimestamp",
      "outputs": [
        {
          "internalType": "uint256",
          "name": "",
          "type": "uint256"
        }
      ],
      "stateMutability": "view",
      "type": "function"
    },
    {
      "inputs": [
        {
          "internalType": "uint256",
          "name": "_round",
          "type": "uint256"
        }
      ],
      "name": "getRoundRewards",
      "outputs": [
        {
          "internalType": "uint256",
          "name": "",
          "type": "uint256"
        }
      ],
      "stateMutability": "view",
      "type": "function"
    },
    {
      "inputs": [],
      "name": "getStakingRegistry",
      "outputs": [
        {
          "internalType": "address",
          "name": "",
          "type": "address"
        }
      ],
      "stateMutability": "view",
      "type": "function"
    },
    {
      "inputs": [],
      "name": "getSumOfAllClaimed",
      "outputs": [
        {
          "internalType": "uint256",
          "name": "",
          "type": "uint256"
        }
      ],
      "stateMutability": "view",
      "type": "function"
    },
    {
      "inputs": [],
      "name": "getTargetBeingStakedOn",
      "outputs": [
        {
          "internalType": "address",
          "name": "",
          "type": "address"
        }
      ],
      "stateMutability": "view",
      "type": "function"
    },
    {
      "inputs": [
        {
          "internalType": "address",
          "name": "spender",
          "type": "address"
        },
        {
          "internalType": "uint256",
          "name": "addedValue",
          "type": "uint256"
        }
      ],
      "name": "increaseAllowance",
      "outputs": [
        {
          "internalType": "bool",
          "name": "",
          "type": "bool"
        }
      ],
      "stateMutability": "nonpayable",
      "type": "function"
    },
    {
      "inputs": [
        {
          "internalType": "address",
          "name": "_userStakedTo",
          "type": "address"
        },
        {
          "internalType": "address",
          "name": "_stakingRegistry",
          "type": "address"
        },
        {
          "internalType": "address",
          "name": "_creator",
          "type": "address"
        }
      ],
      "name": "initialize",
      "outputs": [],
      "stateMutability": "nonpayable",
      "type": "function"
    },
    {
      "inputs": [],
      "name": "name",
      "outputs": [
        {
          "internalType": "string",
          "name": "",
          "type": "string"
        }
      ],
      "stateMutability": "view",
      "type": "function"
    },
    {
      "inputs": [
        {
          "internalType": "uint120",
          "name": "_amount",
          "type": "uint120"
        }
      ],
      "name": "stake",
      "outputs": [],
      "stateMutability": "nonpayable",
      "type": "function"
    },
    {
      "inputs": [],
      "name": "symbol",
      "outputs": [
        {
          "internalType": "string",
          "name": "",
          "type": "string"
        }
      ],
      "stateMutability": "view",
      "type": "function"
    },
    {
      "inputs": [],
      "name": "takeSnapshot",
      "outputs": [],
      "stateMutability": "nonpayable",
      "type": "function"
    },
    {
      "inputs": [],
      "name": "totalSupply",
      "outputs": [
        {
          "internalType": "uint256",
          "name": "",
          "type": "uint256"
        }
      ],
      "stateMutability": "view",
      "type": "function"
    },
    {
      "inputs": [
        {
          "internalType": "uint256",
          "name": "snapshotId",
          "type": "uint256"
        }
      ],
      "name": "totalSupplyAt",
      "outputs": [
        {
          "internalType": "uint256",
          "name": "",
          "type": "uint256"
        }
      ],
      "stateMutability": "view",
      "type": "function"
    },
    {
      "inputs": [
        {
          "internalType": "address",
          "name": "to",
          "type": "address"
        },
        {
          "internalType": "uint256",
          "name": "amount",
          "type": "uint256"
        }
      ],
      "name": "transfer",
      "outputs": [
        {
          "internalType": "bool",
          "name": "",
          "type": "bool"
        }
      ],
      "stateMutability": "nonpayable",
      "type": "function"
    },
    {
      "inputs": [
        {
          "internalType": "address",
          "name": "from",
          "type": "address"
        },
        {
          "internalType": "address",
          "name": "to",
          "type": "address"
        },
        {
          "internalType": "uint256",
          "name": "amount",
          "type": "uint256"
        }
      ],
      "name": "transferFrom",
      "outputs": [
        {
          "internalType": "bool",
          "name": "",
          "type": "bool"
        }
      ],
      "stateMutability": "nonpayable",
      "type": "function"
    },
    {
      "inputs": [
        {
          "internalType": "uint256",
          "name": "_amount",
          "type": "uint256"
        }
      ],
      "name": "unstake",
      "outputs": [],
      "stateMutability": "nonpayable",
      "type": "function"
    }
  ],
  "bytecode": {
    "object": "0x60806040523480156200001157600080fd5b506200001c62000022565b620000e3565b600054610100900460ff16156200008f5760405162461bcd60e51b815260206004820152602760248201527f496e697469616c697a61626c653a20636f6e747261637420697320696e697469604482015266616c697a696e6760c81b606482015260840160405180910390fd5b60005460ff90811614620000e1576000805460ff191660ff9081179091556040519081527f7f26b83ff96e1f2b6a682f133852f6798a09c465da95921460cefb38474024989060200160405180910390a15b565b61310980620000f36000396000f3fe608060405234801561001057600080fd5b50600436106101fb5760003560e01c80637c27ff861161011a578063a9059cbb116100ad578063c0c53b8b1161007c578063c0c53b8b14610409578063cae069441461041c578063d775a4c71461042f578063dd62ed3e14610442578063e6519a351461045557600080fd5b8063a9059cbb146103c8578063a9fc507b146103db578063b3d3d37e146103ee578063b5fc2f85146103f657600080fd5b8063981b24d0116100e9578063981b24d0146103875780639ca92dec1461039a578063a32bf597146103ad578063a457c2d7146103b557600080fd5b80637c27ff861461034f57806391e2057e14610357578063946164201461037757806395d89b411461037f57600080fd5b80633b1c612e11610192578063636f5b2711610161578063636f5b27146103015780636e4f88c81461031457806370a082311461032957806374293bf81461033c57600080fd5b80633b1c612e146102b05780633b248c76146102b85780634ee2cd7e146102dd57806361347782146102f057600080fd5b80632e17de78116101ce5780632e17de7814610266578063313ce5671461027b578063395093511461028a578063399d99ec1461029d57600080fd5b806306fdde0314610200578063095ea7b31461021e57806318160ddd1461024157806323b872dd14610253575b600080fd5b61020861045d565b60405161021591906129cd565b60405180910390f35b61023161022c366004612a15565b6104dd565b6040519015158152602001610215565b6035545b604051908152602001610215565b610231610261366004612a41565b6104f7565b610279610274366004612a82565b61051d565b005b60405160128152602001610215565b610231610298366004612a15565b610821565b6102456102ab366004612a9b565b610843565b60d154610245565b60ce546001600160a01b03165b6040516001600160a01b039091168152602001610215565b6102456102eb366004612a15565b610859565b60cf546001600160a01b03166102c5565b61024561030f366004612a15565b6108a2565b61031c610979565b6040516102159190612ab8565b610245610337366004612a9b565b610a30565b61024561034a366004612b05565b610a4b565b60d354610245565b610245610365366004612a82565b600090815260c9602052604090205490565b60d054610245565b610208610a79565b610245610395366004612a82565b610afc565b6102796103a8366004612b48565b610b1d565b610245610d0f565b6102316103c3366004612a15565b610db1565b6102316103d6366004612a15565b610e3c565b6102796103e9366004612a15565b610e4a565b6102796112bc565b610279610404366004612b63565b61139b565b610279610417366004612ba2565b6115da565b61024561042a366004612c5d565b6117cd565b61024561043d366004612d18565b611839565b610245610450366004612d4b565b6118ab565b60d254610245565b60cf5460ce54604051637925ec5360e11b81526001600160a01b039182166004820152606092600092169063f24bd8a690602401600060405180830381865afa1580156104ae573d6000803e3d6000fd5b505050506040513d6000823e601f3d908101601f191682016040526104d69190810190612ddd565b5192915050565b6000336104eb8185856118d6565b60019150505b92915050565b6000336105058582856119fa565b610510858585611a6e565b60019150505b9392505050565b610525611a9d565b61052d6112bc565b600061053833610a30565b90508082111561055b57604051631694941360e11b815260040160405180910390fd5b600061056860cb33611af6565b915050600061058061057933610a30565b8386610a4b565b9050818111156105a357604051631360e97760e21b815260040160405180910390fd5b6105ad8183612eb1565b156105ce576105c9336105c08385612eb1565b60cb9190611b1d565b6105d9565b6105d960cb33611b33565b5060cf5460ce546040516332b1f19760e21b81523360048201526001600160a01b0391821660248201526044810184905291169063cac7c65c90606401600060405180830381600087803b15801561063057600080fd5b505af1158015610644573d6000803e3d6000fd5b505050506106523385611b48565b60cf5460408051632210d52560e01b815290516001600160a01b03909216916000918391632210d525916004808201926020929091908290030181865afa1580156106a1573d6000803e3d6000fd5b505050506040513d601f19601f820116820180604052508101906106c59190612ec4565b90506000612710836001600160a01b031663f7ef8ead6040518163ffffffff1660e01b8152600401602060405180830381865afa15801561070a573d6000803e3d6000fd5b505050506040513d601f19601f8201168201806040525081019061072e9190612ee1565b6107389086612efa565b6107429190612f11565b604051630852cd8d60e31b8152600481018290529091506001600160a01b038316906342966c6890602401600060405180830381600087803b15801561078757600080fd5b505af115801561079b573d6000803e3d6000fd5b50505050600081856107ad9190612eb1565b90506107ba833383611c88565b337f05b744e3e9358bc00ba3cc0c6606a4d6536134dba00b2d2ee4b5de169acd6427866107e7818a612eb1565b6040805192835260208301919091528101859052606081018b905260800160405180910390a25050505050505061081e6001609755565b50565b6000336104eb81858561083483836118ab565b61083e9190612f33565b6118d6565b60008061085160cb84611af6565b949350505050565b6001600160a01b038216600090815260656020526040812081908190610880908590611cda565b91509150816108975761089285610a30565b610899565b805b95945050505050565b600080806108ae610d0f565b905060006108ba611dd5565b6001600160a01b038716600090815260ca60205260408120549192509086906108e39085612eb1565b116108ee5782610912565b6001600160a01b038716600090815260ca6020526040902054610912908790612f33565b6001600160a01b038816600090815260ca60205260408120549192509061093a906001612f33565b90505b81811161096d5761094f888285611de0565b6109599086612f33565b94508061096581612f46565b91505061093d565b50929695505050505050565b6060600061098760cb611e93565b905060008167ffffffffffffffff8111156109a4576109a4612bed565b6040519080825280602002602001820160405280156109cd578160200160208202803683370190505b50905060005b82811015610a295760006109e860cb83611e9e565b509050808383815181106109fe576109fe612f5f565b6001600160a01b03909216602092830291909101909101525080610a2181612f46565b9150506109d3565b5092915050565b6001600160a01b031660009081526033602052604090205490565b600060648484610a5b8584612efa565b610a659190612efa565b610a6f9190612f11565b6108519190612f11565b60cf5460ce54604051637925ec5360e11b81526001600160a01b039182166004820152606092600092169063f24bd8a690602401600060405180830381865afa158015610aca573d6000803e3d6000fd5b505050506040513d6000823e601f3d908101601f19168201604052610af29190810190612ddd565b6020015192915050565b6000806000610b0c846066611cda565b915091508161051657603554610851565b610b25611a9d565b610b2d6112bc565b610b3633610a30565b600003610b62576001610b47610d0f565b610b519190612eb1565b33600090815260ca60205260409020555b6000610b7e610b78610b7360355490565b611ead565b83611839565b60cf546040516381910e3360e01b81523360048201523060248201526001600160781b03851660448201529192506001600160a01b03169081906381910e3390606401600060405180830381600087803b158015610bdb57600080fd5b505af1158015610bef573d6000803e3d6000fd5b505050506000610c093360cb611af690919063ffffffff16565b9150610c249050336105c06001600160781b03871684612f33565b5060ce54604051632608ff3560e01b81523360048201526001600160a01b0391821660248201526001600160781b038616604482015290831690632608ff3590606401600060405180830381600087803b158015610c8157600080fd5b505af1158015610c95573d6000803e3d6000fd5b50505050610ca33384611f1a565b337ff556991011e831bcfac4f406d547e5e32cdd98267efab83935230d5f8d02c44685610cd96001600160781b03821685612f33565b604080516001600160781b0390931683526020830191909152810186905260600160405180910390a250505061081e6001609755565b60cf5460408051638469ddc760e01b815290516000926001600160a01b031691638469ddc79160048083019260209291908290030181865afa158015610d59573d6000803e3d6000fd5b505050506040513d601f19601f82011682018060405250810190610d7d9190612ee1565b60d354610d8a9190612f33565b421015610d9e57610d99611dd5565b905090565b610da6611dd5565b610d99906001612f33565b60003381610dbf82866118ab565b905083811015610e245760405162461bcd60e51b815260206004820152602560248201527f45524332303a2064656372656173656420616c6c6f77616e63652062656c6f77604482015264207a65726f60d81b60648201526084015b60405180910390fd5b610e3182868684036118d6565b506001949350505050565b6000336104eb818585611a6e565b6001600160a01b0382163314801590610eec575060cf5460ce54604051637925ec5360e11b81526001600160a01b03918216600482015291169063f24bd8a690602401600060405180830381865afa158015610eaa573d6000803e3d6000fd5b505050506040513d6000823e601f3d908101601f19168201604052610ed29190810190612ddd565b606001516001600160a01b0316336001600160a01b031614155b15610f09576040516282b42960e81b815260040160405180910390fd5b80600003610f2a57604051631b6330bf60e31b815260040160405180910390fd5b610f326112bc565b6000610f3c610d0f565b9050610f4781610afc565b6000036110315760cf546040805163086d4af360e11b815290516001600160a01b03909216916381910e3391869184916310da95e69160048083019260209291908290030181865afa158015610fa1573d6000803e3d6000fd5b505050506040513d601f19601f82011682018060405250810190610fc59190612ec4565b6040516001600160e01b031960e085901b1681526001600160a01b0392831660048201529116602482015260448101859052606401600060405180830381600087803b15801561101457600080fd5b505af1158015611028573d6000803e3d6000fd5b50505050505050565b600060d15460d0546110439190612eb1565b60cf5460ce54604051633d867d9560e01b81526001600160a01b039182166004820152911690633d867d9590602401602060405180830381865afa15801561108f573d6000803e3d6000fd5b505050506040513d601f19601f820116820180604052508101906110b39190612ee1565b60cf60009054906101000a90046001600160a01b03166001600160a01b0316632210d5256040518163ffffffff1660e01b8152600401602060405180830381865afa158015611106573d6000803e3d6000fd5b505050506040513d601f19601f8201168201806040525081019061112a9190612ec4565b6040516370a0823160e01b81523060048201526001600160a01b0391909116906370a0823190602401602060405180830381865afa158015611170573d6000803e3d6000fd5b505050506040513d601f19601f820116820180604052508101906111949190612ee1565b61119e9190612eb1565b6111a89190612eb1565b6111b29084612f33565b90508060d060008282546111c69190612f33565b9091555050600082815260c96020526040812080548392906111e9908490612f33565b909155505060cf546040516381910e3360e01b81526001600160a01b03868116600483015230602483015260448201869052909116906381910e3390606401600060405180830381600087803b15801561124257600080fd5b505af1158015611256573d6000803e3d6000fd5b505050600083815260c960209081526040918290205482518781529182018590528183015290518492506001600160a01b038716917f8f1f72719a43990ee22667a803313283dbcb7402f1ab7dbf4ab92527e7414aa1919081900360600190a350505050565b60cf5460408051638469ddc760e01b8152905142926001600160a01b031691638469ddc79160048083019260209291908290030181865afa158015611305573d6000803e3d6000fd5b505050506040513d601f19601f820116820180604052508101906113299190612ee1565b60d3546113369190612f33565b116113995760d380544290915561134b611fe7565b507ff93143fb49fc8d2b453d1e417424c14ace8efd210d63494dbaa7998e5affe0258160d354611379610d0f565b6040805193845260208401929092529082015260600160405180910390a1505b565b6113a3611a9d565b6113ab6112bc565b8060ff166000036113cf57604051631520048160e21b815260040160405180910390fd5b600060016113db610d0f565b6113e59190612eb1565b6001600160a01b038416600090815260ca6020526040902054909150811161142057604051632cfe303760e21b815260040160405180910390fd5b6001600160a01b038316600090815260ca602052604081205460ff8416906114489084612eb1565b111561147a576001600160a01b038416600090815260ca60205260409020546114759060ff851690612f33565b61147c565b815b9050600080611489611dd5565b6001600160a01b038716600090815260ca6020526040812054919250906114b1906001612f33565b90505b8381116114e4576114c6878284611de0565b6114d09084612f33565b9250806114dc81612f46565b9150506114b4565b506001600160a01b03808716600090815260ca602090815260409182902086905560cf548251632210d52560e01b81529251611571949190911692632210d5259260048083019391928290030181865afa158015611546573d6000803e3d6000fd5b505050506040513d601f19601f8201168201806040525081019061156a9190612ec4565b8784611c88565b8160d160008282546115839190612f33565b90915550506040518281526001600160a01b0387169033907f0aa4d283470c904c551d18bb894d37e17674920f3261a7f854be501e25f421b79060200160405180910390a3505050506115d66001609755565b5050565b600054610100900460ff16158080156115fa5750600054600160ff909116105b806116145750303b158015611614575060005460ff166001145b6116775760405162461bcd60e51b815260206004820152602e60248201527f496e697469616c697a61626c653a20636f6e747261637420697320616c72656160448201526d191e481a5b9a5d1a585b1a5e995960921b6064820152608401610e1b565b6000805460ff19166001179055801561169a576000805461ff0019166101001790555b6001600160a01b0384166116c157604051637827912560e01b815260040160405180910390fd5b6001600160a01b0383166116e857604051637827912560e01b815260040160405180910390fd5b6001600160a01b03821661170f57604051637827912560e01b815260040160405180910390fd5b611717612041565b60ce80546001600160a01b038087166001600160a01b03199283161790925560cf8054928616929091169190911790554260d255600060d35561176282670de0b6b3a7640000611f1a565b61176f60cb836000611b1d565b50611778611fe7565b506117816112bc565b80156117c7576000805461ff0019169055604051600181527f7f26b83ff96e1f2b6a682f133852f6798a09c465da95921460cefb38474024989060200160405180910390a15b50505050565b600080806117d9611dd5565b905060005b84518160ff16101561182f5761181186868360ff168151811061180357611803612f5f565b602002602001015184611de0565b61181b9084612f33565b92508061182781612f75565b9150506117de565b5090949350505050565b60006001600160781b038084169083166509184e72a000611859826120ac565b8361188d611868600283613070565b61187e866b409f9cbc7c4a04c220000000612efa565b6118889190612f33565b6120ac565b6118979190612eb1565b6118a19190612efa565b6108999190612f11565b6001600160a01b03918216600090815260346020908152604080832093909416825291909152205490565b6001600160a01b0383166119385760405162461bcd60e51b8152602060048201526024808201527f45524332303a20617070726f76652066726f6d20746865207a65726f206164646044820152637265737360e01b6064820152608401610e1b565b6001600160a01b0382166119995760405162461bcd60e51b815260206004820152602260248201527f45524332303a20617070726f766520746f20746865207a65726f206164647265604482015261737360f01b6064820152608401610e1b565b6001600160a01b0383811660008181526034602090815260408083209487168084529482529182902085905590518481527f8c5be1e5ebec7d5bd14f71427d1e84f3dd0314c0f7b2291e5b200ac8c7c3b925910160405180910390a3505050565b6000611a0684846118ab565b905060001981146117c75781811015611a615760405162461bcd60e51b815260206004820152601d60248201527f45524332303a20696e73756666696369656e7420616c6c6f77616e63650000006044820152606401610e1b565b6117c784848484036118d6565b333014611a8d576040516282b42960e81b815260040160405180910390fd5b611a98838383612157565b505050565b600260975403611aef5760405162461bcd60e51b815260206004820152601f60248201527f5265656e7472616e637947756172643a207265656e7472616e742063616c6c006044820152606401610e1b565b6002609755565b6000808080611b0e866001600160a01b03871661230d565b909450925050505b9250929050565b6000610851846001600160a01b03851684612347565b6000610516836001600160a01b038416612364565b6001600160a01b038216611ba85760405162461bcd60e51b815260206004820152602160248201527f45524332303a206275726e2066726f6d20746865207a65726f206164647265736044820152607360f81b6064820152608401610e1b565b611bb482600083612381565b6001600160a01b03821660009081526033602052604090205481811015611c285760405162461bcd60e51b815260206004820152602260248201527f45524332303a206275726e20616d6f756e7420657863656564732062616c616e604482015261636560f01b6064820152608401610e1b565b6001600160a01b03831660008181526033602090815260408083208686039055603580548790039055518581529192917fddf252ad1be2c89b69c2b068fc378daa952ba7f163c4a11628f55a4df523b3ef910160405180910390a3505050565b604080516001600160a01b038416602482015260448082018490528251808303909101815260649091019091526020810180516001600160e01b031663a9059cbb60e01b179052611a989084906123c9565b60008060008411611d265760405162461bcd60e51b815260206004820152601660248201527504552433230536e617073686f743a20696420697320360541b6044820152606401610e1b565b611d2e611dd5565b841115611d7d5760405162461bcd60e51b815260206004820152601d60248201527f4552433230536e617073686f743a206e6f6e6578697374656e742069640000006044820152606401610e1b565b6000611d89848661249e565b84549091508103611da1576000809250925050611b16565b6001846001018281548110611db857611db8612f5f565b90600052602060002001549250925050611b16565b509250929050565b6000610d9960685490565b600080828411611df857611df384610afc565b611dfc565b6035545b905080600003611e10576000915050610516565b6000838511611e2857611e238686610859565b611e31565b611e3186610a30565b90506a084595161401484a00000082611e5687600090815260c9602052604090205490565b611e6b846a084595161401484a000000612efa565b611e759190612efa565b611e7f9190612f11565b611e899190612f11565b9695505050505050565b60006104f18261254b565b6000808080611b0e8686612556565b60006001600160781b03821115611f165760405162461bcd60e51b815260206004820152602760248201527f53616665436173743a2076616c756520646f65736e27742066697420696e20316044820152663230206269747360c81b6064820152608401610e1b565b5090565b6001600160a01b038216611f705760405162461bcd60e51b815260206004820152601f60248201527f45524332303a206d696e7420746f20746865207a65726f2061646472657373006044820152606401610e1b565b611f7c60008383612381565b8060356000828254611f8e9190612f33565b90915550506001600160a01b0382166000818152603360209081526040808320805486019055518481527fddf252ad1be2c89b69c2b068fc378daa952ba7f163c4a11628f55a4df523b3ef910160405180910390a35050565b6000611ff7606880546001019055565b6000612001611dd5565b90507f8030e83b04d87bef53480e26263266d6ca66863aa8506aca6f2559d18aa1cb678160405161203491815260200190565b60405180910390a1919050565b600054610100900460ff166113995760405162461bcd60e51b815260206004820152602b60248201527f496e697469616c697a61626c653a20636f6e7472616374206973206e6f74206960448201526a6e697469616c697a696e6760a81b6064820152608401610e1b565b60b581600160881b81106120c55760409190911b9060801c5b690100000000000000000081106120e15760209190911b9060401c5b6501000000000081106120f95760109190911b9060201c5b6301000000811061210f5760089190911b9060101c5b62010000010260121c80820401600190811c80830401811c80830401811c80830401811c80830401811c80830401811c80830401901c8082048111156121525781045b919050565b6001600160a01b0383166121bb5760405162461bcd60e51b815260206004820152602560248201527f45524332303a207472616e736665722066726f6d20746865207a65726f206164604482015264647265737360d81b6064820152608401610e1b565b6001600160a01b03821661221d5760405162461bcd60e51b815260206004820152602360248201527f45524332303a207472616e7366657220746f20746865207a65726f206164647260448201526265737360e81b6064820152608401610e1b565b612228838383612381565b6001600160a01b038316600090815260336020526040902054818110156122a05760405162461bcd60e51b815260206004820152602660248201527f45524332303a207472616e7366657220616d6f756e7420657863656564732062604482015265616c616e636560d01b6064820152608401610e1b565b6001600160a01b0380851660008181526033602052604080822086860390559286168082529083902080548601905591517fddf252ad1be2c89b69c2b068fc378daa952ba7f163c4a11628f55a4df523b3ef906123009086815260200190565b60405180910390a36117c7565b600081815260028301602052604081205481908061233c5761232f8585612581565b925060009150611b169050565b600192509050611b16565b60008281526002840160205260408120829055610851848461258d565b600081815260028301602052604081208190556105168383612599565b6001600160a01b0383166123a057612398826125a5565b611a986125cf565b6001600160a01b0382166123b757612398836125a5565b6123c0836125a5565b611a98826125a5565b600061241e826040518060400160405280602081526020017f5361666545524332303a206c6f772d6c6576656c2063616c6c206661696c6564815250856001600160a01b03166125dd9092919063ffffffff16565b905080516000148061243f57508080602001905181019061243f919061307f565b611a985760405162461bcd60e51b815260206004820152602a60248201527f5361666545524332303a204552433230206f7065726174696f6e20646964206e6044820152691bdd081cdd58d8d9595960b21b6064820152608401610e1b565b815460009081036124b1575060006104f1565b82546000905b808210156124fe5760006124cb83836125ec565b600087815260209020909150859082015411156124ea578091506124f8565b6124f5816001612f33565b92505b506124b7565b60008211801561252a57508361252786612519600186612eb1565b600091825260209091200190565b54145b156125435761253a600183612eb1565b925050506104f1565b5090506104f1565b60006104f182612607565b600080806125648585612611565b600081815260029690960160205260409095205494959350505050565b6000610516838361261d565b60006105168383612635565b60006105168383612684565b6001600160a01b038116600090815260656020526040902061081e906125ca83610a30565b612777565b61139960666125ca60355490565b606061085184846000856127c1565b60006125fb6002848418612f11565b61051690848416612f33565b60006104f1825490565b6000610516838361289c565b60008181526001830160205260408120541515610516565b600081815260018301602052604081205461267c575081546001818101845560008481526020808220909301849055845484825282860190935260409020919091556104f1565b5060006104f1565b6000818152600183016020526040812054801561276d5760006126a8600183612eb1565b85549091506000906126bc90600190612eb1565b90508181146127215760008660000182815481106126dc576126dc612f5f565b90600052602060002001549050808760000184815481106126ff576126ff612f5f565b6000918252602080832090910192909255918252600188019052604090208390555b8554869080612732576127326130a1565b6001900381819060005260206000200160009055905585600101600086815260200190815260200160002060009055600193505050506104f1565b60009150506104f1565b6000612781611dd5565b90508061278d846128c6565b1015611a98578254600180820185556000858152602080822090930193909355938401805494850181558252902090910155565b6060824710156128225760405162461bcd60e51b815260206004820152602660248201527f416464726573733a20696e73756666696369656e742062616c616e636520666f6044820152651c8818d85b1b60d21b6064820152608401610e1b565b600080866001600160a01b0316858760405161283e91906130b7565b60006040518083038185875af1925050503d806000811461287b576040519150601f19603f3d011682016040523d82523d6000602084013e612880565b606091505b50915091506128918783838761290b565b979650505050505050565b60008260000182815481106128b3576128b3612f5f565b9060005260206000200154905092915050565b805460009081036128d957506000919050565b815482906128e990600190612eb1565b815481106128f9576128f9612f5f565b90600052602060002001549050919050565b6060831561297a578251600003612973576001600160a01b0385163b6129735760405162461bcd60e51b815260206004820152601d60248201527f416464726573733a2063616c6c20746f206e6f6e2d636f6e74726163740000006044820152606401610e1b565b5081610851565b610851838381511561298f5781518083602001fd5b8060405162461bcd60e51b8152600401610e1b91906129cd565b60005b838110156129c45781810151838201526020016129ac565b50506000910152565b60208152600082518060208401526129ec8160408501602087016129a9565b601f01601f19169190910160400192915050565b6001600160a01b038116811461081e57600080fd5b60008060408385031215612a2857600080fd5b8235612a3381612a00565b946020939093013593505050565b600080600060608486031215612a5657600080fd5b8335612a6181612a00565b92506020840135612a7181612a00565b929592945050506040919091013590565b600060208284031215612a9457600080fd5b5035919050565b600060208284031215612aad57600080fd5b813561051681612a00565b6020808252825182820181905260009190848201906040850190845b81811015612af95783516001600160a01b031683529284019291840191600101612ad4565b50909695505050505050565b600080600060608486031215612b1a57600080fd5b505081359360208301359350604090920135919050565b80356001600160781b038116811461215257600080fd5b600060208284031215612b5a57600080fd5b61051682612b31565b60008060408385031215612b7657600080fd5b8235612b8181612a00565b9150602083013560ff81168114612b9757600080fd5b809150509250929050565b600080600060608486031215612bb757600080fd5b8335612bc281612a00565b92506020840135612bd281612a00565b91506040840135612be281612a00565b809150509250925092565b634e487b7160e01b600052604160045260246000fd5b6040516080810167ffffffffffffffff81118282101715612c2657612c26612bed565b60405290565b604051601f8201601f1916810167ffffffffffffffff81118282101715612c5557612c55612bed565b604052919050565b60008060408385031215612c7057600080fd5b8235612c7b81612a00565b915060208381013567ffffffffffffffff80821115612c9957600080fd5b818601915086601f830112612cad57600080fd5b813581811115612cbf57612cbf612bed565b8060051b9150612cd0848301612c2c565b8181529183018401918481019089841115612cea57600080fd5b938501935b83851015612d0857843582529385019390850190612cef565b8096505050505050509250929050565b60008060408385031215612d2b57600080fd5b612d3483612b31565b9150612d4260208401612b31565b90509250929050565b60008060408385031215612d5e57600080fd5b8235612d6981612a00565b91506020830135612b9781612a00565b600082601f830112612d8a57600080fd5b815167ffffffffffffffff811115612da457612da4612bed565b612db7601f8201601f1916602001612c2c565b818152846020838601011115612dcc57600080fd5b6108978260208301602087016129a9565b600060208284031215612def57600080fd5b815167ffffffffffffffff80821115612e0757600080fd5b9083019060808286031215612e1b57600080fd5b612e23612c03565b825182811115612e3257600080fd5b612e3e87828601612d79565b825250602083015182811115612e5357600080fd5b612e5f87828601612d79565b60208301525060408301519150612e7582612a00565b81604082015260608301519250612e8b83612a00565b6060810192909252509392505050565b634e487b7160e01b600052601160045260246000fd5b818103818111156104f1576104f1612e9b565b600060208284031215612ed657600080fd5b815161051681612a00565b600060208284031215612ef357600080fd5b5051919050565b80820281158282048414176104f1576104f1612e9b565b600082612f2e57634e487b7160e01b600052601260045260246000fd5b500490565b808201808211156104f1576104f1612e9b565b600060018201612f5857612f58612e9b565b5060010190565b634e487b7160e01b600052603260045260246000fd5b600060ff821660ff8103612f8b57612f8b612e9b565b60010192915050565b600181815b80851115611dcd578160001904821115612fb557612fb5612e9b565b80851615612fc257918102915b93841c9390800290612f99565b600082612fde575060016104f1565b81612feb575060006104f1565b8160018114613001576002811461300b57613027565b60019150506104f1565b60ff84111561301c5761301c612e9b565b50506001821b6104f1565b5060208310610133831016604e8410600b841016171561304a575081810a6104f1565b6130548383612f94565b806000190482111561306857613068612e9b565b029392505050565b600061051660ff841683612fcf565b60006020828403121561309157600080fd5b8151801515811461051657600080fd5b634e487b7160e01b600052603160045260246000fd5b600082516130c98184602087016129a9565b919091019291505056fea2646970667358221220b917cf17fa1bae9b2581c8cb77dca63679937d3669d632e34d9002dbf03085f064736f6c63430008120033",
    "linkReferences": {}
  },
  "methodIdentifiers": {
    "addRewards(address,uint256)": "a9fc507b",
    "allowance(address,address)": "dd62ed3e",
    "approve(address,uint256)": "095ea7b3",
    "balanceOf(address)": "70a08231",
    "balanceOfAt(address,uint256)": "4ee2cd7e",
    "calculatePurchaseReturn(uint120,uint120)": "d775a4c7",
    "calculateSaleReturn(uint256,uint256,uint256)": "74293bf8",
    "claimRewards(address,uint8)": "b5fc2f85",
    "decimals()": "313ce567",
    "decreaseAllowance(address,uint256)": "a457c2d7",
    "getAllStakers()": "6e4f88c8",
    "getAllTimeRewards()": "94616420",
    "getAmountStakedByUser(address)": "399d99ec",
    "getClaimableRewardsForUser(address,uint256)": "636f5b27",
    "getCreationTime()": "e6519a35",
    "getCurrentRound()": "a32bf597",
    "getHistoricalRewardsForUserForRounds(address,uint256[])": "cae06944",
    "getLastSnapshotTimestamp()": "7c27ff86",
    "getRoundRewards(uint256)": "91e2057e",
    "getStakingRegistry()": "61347782",
    "getSumOfAllClaimed()": "3b1c612e",
    "getTargetBeingStakedOn()": "3b248c76",
    "increaseAllowance(address,uint256)": "39509351",
    "initialize(address,address,address)": "c0c53b8b",
    "name()": "06fdde03",
    "stake(uint120)": "9ca92dec",
    "symbol()": "95d89b41",
    "takeSnapshot()": "b3d3d37e",
    "totalSupply()": "18160ddd",
    "totalSupplyAt(uint256)": "981b24d0",
    "transfer(address,uint256)": "a9059cbb",
    "transferFrom(address,address,uint256)": "23b872dd",
    "unstake(uint256)": "2e17de78"
  },
  "id": 145
}