{
  "abi": [
    {
      "inputs": [],
      "stateMutability": "nonpayable",
      "type": "constructor"
    },
    {
      "inputs": [],
      "name": "ZeroAddressUnsupported",
      "type": "error"
    },
    {
      "anonymous": false,
      "inputs": [
        {
          "indexed": false,
          "internalType": "address",
          "name": "previousAdmin",
          "type": "address"
        },
        {
          "indexed": false,
          "internalType": "address",
          "name": "newAdmin",
          "type": "address"
        }
      ],
      "name": "AdminChanged",
      "type": "event"
    },
    {
      "anonymous": false,
      "inputs": [
        {
          "indexed": true,
          "internalType": "address",
          "name": "beacon",
          "type": "address"
        }
      ],
      "name": "BeaconUpgraded",
      "type": "event"
    },
    {
      "anonymous": false,
      "inputs": [
        {
          "indexed": false,
          "internalType": "uint8",
          "name": "version",
          "type": "uint8"
        }
      ],
      "name": "Initialized",
      "type": "event"
    },
    {
      "anonymous": false,
      "inputs": [
        {
          "indexed": true,
          "internalType": "address",
          "name": "previousOwner",
          "type": "address"
        },
        {
          "indexed": true,
          "internalType": "address",
          "name": "newOwner",
          "type": "address"
        }
      ],
      "name": "OwnershipTransferStarted",
      "type": "event"
    },
    {
      "anonymous": false,
      "inputs": [
        {
          "indexed": true,
          "internalType": "address",
          "name": "previousOwner",
          "type": "address"
        },
        {
          "indexed": true,
          "internalType": "address",
          "name": "newOwner",
          "type": "address"
        }
      ],
      "name": "OwnershipTransferred",
      "type": "event"
    },
    {
      "anonymous": false,
      "inputs": [
        {
          "indexed": true,
          "internalType": "address",
          "name": "newRareStakingTemplate",
          "type": "address"
        }
      ],
      "name": "RareStakingTemplateUpdated",
      "type": "event"
    },
    {
      "anonymous": false,
      "inputs": [
        {
          "indexed": true,
          "internalType": "address",
          "name": "_deployingUser",
          "type": "address"
        },
        {
          "indexed": true,
          "internalType": "address",
          "name": "_userStakedOn",
          "type": "address"
        },
        {
          "indexed": true,
          "internalType": "address",
          "name": "_stakingAddress",
          "type": "address"
        }
      ],
      "name": "StakingContractCreated",
      "type": "event"
    },
    {
      "anonymous": false,
      "inputs": [
        {
          "indexed": true,
          "internalType": "address",
          "name": "newStakingRegistry",
          "type": "address"
        }
      ],
      "name": "StakingRegistryUpdated",
      "type": "event"
    },
    {
      "anonymous": false,
      "inputs": [
        {
          "indexed": true,
          "internalType": "address",
          "name": "implementation",
          "type": "address"
        }
      ],
      "name": "Upgraded",
      "type": "event"
    },
    {
      "inputs": [],
      "name": "acceptOwnership",
      "outputs": [],
      "stateMutability": "nonpayable",
      "type": "function"
    },
    {
      "inputs": [
        {
          "internalType": "address",
          "name": "_user",
          "type": "address"
        }
      ],
      "name": "deployStaking",
      "outputs": [
        {
          "internalType": "address",
          "name": "",
          "type": "address"
        }
      ],
      "stateMutability": "nonpayable",
      "type": "function"
    },
    {
      "inputs": [],
      "name": "getRareStakingTemplateAddress",
      "outputs": [
        {
          "internalType": "address",
          "name": "",
          "type": "address"
        }
      ],
      "stateMutability": "view",
      "type": "function"
    },
    {
      "inputs": [],
      "name": "getStakingRegistryAddress",
      "outputs": [
        {
          "internalType": "address",
          "name": "",
          "type": "address"
        }
      ],
      "stateMutability": "view",
      "type": "function"
    },
    {
      "inputs": [],
      "name": "implementation",
      "outputs": [
        {
          "internalType": "address",
          "name": "",
          "type": "address"
        }
      ],
      "stateMutability": "view",
      "type": "function"
    },
    {
      "inputs": [
        {
          "internalType": "address",
          "name": "_stakingRegistry",
          "type": "address"
        },
        {
          "internalType": "address",
          "name": "_rareStakingTemplate",
          "type": "address"
        },
        {
          "internalType": "address",
          "name": "_rewardSwapFactory",
          "type": "address"
        },
        {
          "internalType": "address",
          "name": "_newOwner",
          "type": "address"
        }
      ],
      "name": "initialize",
      "outputs": [],
      "stateMutability": "nonpayable",
      "type": "function"
    },
    {
      "inputs": [],
      "name": "owner",
      "outputs": [
        {
          "internalType": "address",
          "name": "",
          "type": "address"
        }
      ],
      "stateMutability": "view",
      "type": "function"
    },
    {
      "inputs": [],
      "name": "pendingOwner",
      "outputs": [
        {
          "internalType": "address",
          "name": "",
          "type": "address"
        }
      ],
      "stateMutability": "view",
      "type": "function"
    },
    {
      "inputs": [],
      "name": "proxiableUUID",
      "outputs": [
        {
          "internalType": "bytes32",
          "name": "",
          "type": "bytes32"
        }
      ],
      "stateMutability": "view",
      "type": "function"
    },
    {
      "inputs": [],
      "name": "renounceOwnership",
      "outputs": [],
      "stateMutability": "nonpayable",
      "type": "function"
    },
    {
      "inputs": [
        {
          "internalType": "address",
          "name": "_rareStakingTemplate",
          "type": "address"
        }
      ],
      "name": "setRareStakingTemplate",
      "outputs": [],
      "stateMutability": "nonpayable",
      "type": "function"
    },
    {
      "inputs": [
        {
          "internalType": "address",
          "name": "_stakingRegistry",
          "type": "address"
        }
      ],
      "name": "setStakingRegistry",
      "outputs": [],
      "stateMutability": "nonpayable",
      "type": "function"
    },
    {
      "inputs": [
        {
          "internalType": "address",
          "name": "newOwner",
          "type": "address"
        }
      ],
      "name": "transferOwnership",
      "outputs": [],
      "stateMutability": "nonpayable",
      "type": "function"
    },
    {
      "inputs": [
        {
          "internalType": "address",
          "name": "newImplementation",
          "type": "address"
        }
      ],
      "name": "upgradeTo",
      "outputs": [],
      "stateMutability": "nonpayable",
      "type": "function"
    },
    {
      "inputs": [
        {
          "internalType": "address",
          "name": "newImplementation",
          "type": "address"
        },
        {
          "internalType": "bytes",
          "name": "data",
          "type": "bytes"
        }
      ],
      "name": "upgradeToAndCall",
      "outputs": [],
      "stateMutability": "payable",
      "type": "function"
    }
  ],
  "bytecode": {
    "object": "0x60a080604052346100dc57306080526000549060ff8260081c1661008a575060ff8082160361004f575b6040516119b990816100e2823960805181818161057d015281816106b0015261099a0152f35b60ff90811916176000557f7f26b83ff96e1f2b6a682f133852f6798a09c465da95921460cefb3847402498602060405160ff8152a138610029565b62461bcd60e51b815260206004820152602760248201527f496e697469616c697a61626c653a20636f6e747261637420697320696e697469604482015266616c697a696e6760c81b6064820152608490fd5b600080fdfe608060408181526004803610156200001657600080fd5b600092833560e01c9081631249ed231462000c0f575080632c7408441462000b9b5780633659cfe6146200096f5780634f1ef286146200062c57806352d1902d14620005665780635c60da1b1462000390578063715018a614620004fa57806379ba5097146200046d5780637ed155de14620003ec5780638da5cb5b14620003c15780639f997eb01462000396578063c8cb01d81462000390578063e30c39781462000361578063f2fde38b14620002ea5763f8c8765e14620000d857600080fd5b34620002e6576080366003190112620002e657620000f562000edf565b906001600160a01b0360243581811690819003620002e15760443590828216809203620002e1576064359383851693848603620002e15788549660ff8860081c161597888099620002d3575b8015620002ba575b15620002605760ff1981166001178b55886200024e575b50169384156200023f5782156200023f5783156200023f571562000231575090620001f29392916bffffffffffffffffffffffff60a01b918260fc54161760fc558160fd54161760fd5560fb54161760fb55620001cf60ff865460081c16620001c98162001293565b62001293565b620001da3362000fa9565b620001ec60ff865460081c1662001293565b62000fa9565b620001fb575080f35b60207f7f26b83ff96e1f2b6a682f133852f6798a09c465da95921460cefb38474024989161ff001984541684555160018152a180f35b8651637827912560e01b8152fd5b508651637827912560e01b8152fd5b61ffff1916610101178a553862000160565b895162461bcd60e51b8152602081860152602e60248201527f496e697469616c697a61626c653a20636f6e747261637420697320616c72656160448201526d191e481a5b9a5d1a585b1a5e995960921b6064820152608490fd5b50303b158015620001495750600160ff82161462000149565b50600160ff82161062000141565b600080fd5b8280fd5b83346200035e5760203660031901126200035e576200030862000edf565b6200031262000fff565b606580546001600160a01b0319166001600160a01b039283169081179091556033549091167f38d16b8cac22d99fc7c124b9cd0de2d3fa1faef420bfe791d8c362d765e227008380a380f35b80fd5b5050346200038c57816003193601126200038c5760655490516001600160a01b039091168152602090f35b5080fd5b62000f7e565b5050346200038c57816003193601126200038c5760fb5490516001600160a01b039091168152602090f35b5050346200038c57816003193601126200038c5760335490516001600160a01b039091168152602090f35b5034620002e6576020366003190112620002e6576200040a62000edf565b6200041462000fff565b6001600160a01b03169182156200046057505060fd80546001600160a01b031916821790557f2b022c4b56a6b8adae778a141c22e90aead2a46d1655c4ef94ced0acfae9ed258280a280f35b51637827912560e01b8152fd5b509034620002e65782600319360112620002e657606554336001600160a01b0390911603620004a55782620004a23362000fa9565b80f35b906020608492519162461bcd60e51b8352820152602960248201527f4f776e61626c6532537465703a2063616c6c6572206973206e6f7420746865206044820152683732bb9037bbb732b960b91b6064820152fd5b83346200035e57806003193601126200035e576200051762000fff565b606580546001600160a01b03199081169091556033805491821690556000906001600160a01b03167f8be0079c531659141344cd1fd0a4f28419497f9722a3daafe3b4186f6b6457e08280a380f35b5082346200035e57806003193601126200035e57507f00000000000000000000000000000000000000000000000000000000000000006001600160a01b03163003620005c45760208251600080516020620019648339815191528152f35b6020608492519162461bcd60e51b8352820152603860248201527f555550535570677261646561626c653a206d757374206e6f742062652063616c60448201527f6c6564207468726f7567682064656c656761746563616c6c00000000000000006064820152fd5b509080600319360112620002e6576200064462000edf565b906024359067ffffffffffffffff82116200096b57366023830112156200096b5781840135620006748162000f61565b620006828351918262000f3e565b81815286602094858301933660248284010111620002e6578060248893018637830101526001600160a01b037f0000000000000000000000000000000000000000000000000000000000000000811690620006e03083141562001058565b6200070060008051602062001964833981519152928284541614620010ba565b6200070a62000fff565b86169081156200095b577f4910fdfa16fed3260ed0e7147f7cc6da11a60208b5b9406d12a635614ffd91435460ff16156200075157505050505050620004a291506200111c565b849596929394516352d1902d60e01b815287818a81865afa6000918162000926575b50620007d357865162461bcd60e51b8152808a01899052602e60248201527f45524331393637557067726164653a206e657720696d706c656d656e7461746960448201526d6f6e206973206e6f74205555505360901b6064820152608490fd5b979192939695949703620008d15750620007ed826200111c565b7fbc7cd75a20ee27fd9adebab32041f755214dbc6bffa90cc0225b39da2e5c2d3b600080a2835115801590620008c8575b6200082c575b505050505080f35b600080620008b196845196620008428862000f21565b602788527f416464726573733a206c6f772d6c6576656c2064656c65676174652063616c6c87890152660819985a5b195960ca1b868901525190845af4913d15620008bd573d620008a1620008978262000f61565b9251928362000f3e565b8152600081943d92013e620011ae565b50388080808062000824565b5060609250620011ae565b5060016200081e565b835162461bcd60e51b8152908101859052602960248201527f45524331393637557067726164653a20756e737570706f727465642070726f786044820152681a58589b195555525160ba1b6064820152608490fd5b90918982813d831162000953575b62000940818362000f3e565b810103126200035e575051903862000773565b503d62000934565b8451637827912560e01b81528890fd5b8480fd5b509034620002e65760208060031936011262000b97576200098f62000edf565b916001600160a01b037f0000000000000000000000000000000000000000000000000000000000000000811690620009ca3083141562001058565b620009ea60008051602062001964833981519152928284541614620010ba565b620009f462000fff565b8416801562000b87578251908482019282841067ffffffffffffffff85111762000b72578385528883527f4910fdfa16fed3260ed0e7147f7cc6da11a60208b5b9406d12a635614ffd91435460ff161562000a5b57505050505050620004a291506200111c565b849596929394516352d1902d60e01b815287818a81865afa6000918162000b3d575b5062000add57865162461bcd60e51b8152808a01899052602e60248201527f45524331393637557067726164653a206e657720696d706c656d656e7461746960448201526d6f6e206973206e6f74205555505360901b6064820152608490fd5b979192939695949703620008d1575062000af7826200111c565b7fbc7cd75a20ee27fd9adebab32041f755214dbc6bffa90cc0225b39da2e5c2d3b600080a283511580159062000b34576200082c57505050505080f35b5060006200081e565b90918982813d831162000b6a575b62000b57818362000f3e565b810103126200035e575051903862000a7d565b503d62000b4b565b604188634e487b7160e01b6000525260246000fd5b8251637827912560e01b81528690fd5b8380fd5b5034620002e6576020366003190112620002e65762000bb962000edf565b62000bc362000fff565b6001600160a01b03169182156200046057505060fb80546001600160a01b031916821790557fa5aa720af23083cb0a3e835e4c10666ab0ac4eee7a4396df3ec359de6fc53abf8280a280f35b8492915034620002e6576020938460031936011262000b975762000c3262000edf565b60fb5490936001600160a01b038086169492811692851562000ed15750835163c0c53b8b60e01b898201526001600160a01b0387811660248301528416604482015233606480830191909152815262000c8d60848262000f3e565b84519061066f8083019083821067ffffffffffffffff83111762000ebe57918762000cca92818e8796620012f58839308352820152019062001251565b039088f095861562000e5157879089838060fc5416991698602488518095819363399fe9a160e11b83528d8a8401525af191821562000eb457899262000e75575b50843b1562000e715785516376a250a760e01b81526001600160a01b03918216858201908152828a16602082015292909316166040820152879082908190606001038183875af1801562000e515762000e5b575b5082516366951bc160e01b81529087828281865afa91821562000e5157879262000e1c575b50823b1562000e185790604487928386519586948593632f2ff15d60e01b85528401528960248401525af1801562000e0e5784939291869162000def575b505051937f4a2dd45842063d5cdb0ba4ccb3b677af33701f706cdfa90ddf5fe291e6f99878339180a48152f35b62000dfe919293945062000ef6565b62000b9757908291848762000dc2565b82513d87823e3d90fd5b8680fd5b9091508781813d831162000e49575b62000e37818362000f3e565b81010312620002e15751908862000d84565b503d62000e2b565b84513d89823e3d90fd5b62000e699096919662000ef6565b948762000d5f565b8880fd5b9091508981813d831162000eac575b62000e90818362000f3e565b8101031262000e715751828116810362000e7157908a62000d0b565b503d62000e84565b86513d8b823e3d90fd5b634e487b7160e01b8b526041865260248bfd5b637827912560e01b81529050fd5b600435906001600160a01b0382168203620002e157565b67ffffffffffffffff811162000f0b57604052565b634e487b7160e01b600052604160045260246000fd5b6060810190811067ffffffffffffffff82111762000f0b57604052565b90601f8019910116810190811067ffffffffffffffff82111762000f0b57604052565b67ffffffffffffffff811162000f0b57601f01601f191660200190565b34620002e1576000366003190112620002e15760fd546040516001600160a01b039091168152602090f35b6bffffffffffffffffffffffff60a01b90816065541660655560335460018060a01b038092168093821617603355167f8be0079c531659141344cd1fd0a4f28419497f9722a3daafe3b4186f6b6457e0600080a3565b6033546001600160a01b031633036200101457565b606460405162461bcd60e51b815260206004820152602060248201527f4f776e61626c653a2063616c6c6572206973206e6f7420746865206f776e65726044820152fd5b156200106057565b60405162461bcd60e51b815260206004820152602c60248201527f46756e6374696f6e206d7573742062652063616c6c6564207468726f7567682060448201526b19195b1959d85d1958d85b1b60a21b6064820152608490fd5b15620010c257565b60405162461bcd60e51b815260206004820152602c60248201527f46756e6374696f6e206d7573742062652063616c6c6564207468726f7567682060448201526b6163746976652070726f787960a01b6064820152608490fd5b803b1562001153576000805160206200196483398151915280546001600160a01b0319166001600160a01b03909216919091179055565b60405162461bcd60e51b815260206004820152602d60248201527f455243313936373a206e657720696d706c656d656e746174696f6e206973206e60448201526c1bdd08184818dbdb9d1c9858dd609a1b6064820152608490fd5b91929015620012135750815115620011c4575090565b3b15620011ce5790565b60405162461bcd60e51b815260206004820152601d60248201527f416464726573733a2063616c6c20746f206e6f6e2d636f6e74726163740000006044820152606490fd5b825190915015620012275750805190602001fd5b60405162461bcd60e51b8152602060048201529081906200124d90602483019062001251565b0390fd5b919082519283825260005b8481106200127e575050826000602080949584010152601f8019910116010190565b6020818301810151848301820152016200125c565b156200129b57565b60405162461bcd60e51b815260206004820152602b60248201527f496e697469616c697a61626c653a20636f6e7472616374206973206e6f74206960448201526a6e697469616c697a696e6760a81b6064820152608490fdfe608060409080825261066f80380380916100198285610350565b8339810190828183031261034b5761003081610373565b6020828101516001600160401b039391929184821161034b57019084601f8301121561034b5781519161006283610387565b9261006f88519485610350565b8084528484019685828401011161034b57868561008c93016103a2565b803b156102f9578551635c60da1b60e01b80825292916001600160a01b0316908481600481855afa9081156102ee576000916102b9575b503b1561025c577fa3f0ad74e5423aebfd80d3ef4346578335a9a72aeaee59ff6cb3582b35133d5080546001600160a01b03191682179055865192817f1cf3b03a6cf19fa2baba4df148e9dcabedea7f8a5c07840e207e5c089be95d3e600080a2825115801590610254575b610142575b87516101f690816104798239f35b6004848693819382525afa9182156102495760009261020f575b5085519360608501908111858210176101f9578652602784527f416464726573733a206c6f772d6c6576656c2064656c65676174652063616c6c83850152660819985a5b195960ca1b84870152516101e3946000918291845af4903d156101f0573d6101c781610387565b906101d488519283610350565b8152600081943d92013e6103c5565b5038808080808080610134565b606092506103c5565b634e487b7160e01b600052604160045260246000fd5b90918382813d8311610242575b6102268183610350565b8101031261023f575061023890610373565b903861015c565b80fd5b503d61021c565b86513d6000823e3d90fd5b50600061012f565b865162461bcd60e51b815260048101859052603060248201527f455243313936373a20626561636f6e20696d706c656d656e746174696f6e206960448201526f1cc81b9bdd08184818dbdb9d1c9858dd60821b6064820152608490fd5b908582813d83116102e7575b6102cf8183610350565b8101031261023f57506102e190610373565b386100c3565b503d6102c5565b88513d6000823e3d90fd5b855162461bcd60e51b815260048101849052602560248201527f455243313936373a206e657720626561636f6e206973206e6f74206120636f6e6044820152641d1c9858dd60da1b6064820152608490fd5b600080fd5b601f909101601f19168101906001600160401b038211908210176101f957604052565b51906001600160a01b038216820361034b57565b6001600160401b0381116101f957601f01601f191660200190565b60005b8381106103b55750506000910152565b81810151838201526020016103a5565b9192901561042757508151156103d9575090565b3b156103e25790565b60405162461bcd60e51b815260206004820152601d60248201527f416464726573733a2063616c6c20746f206e6f6e2d636f6e74726163740000006044820152606490fd5b82519091501561043a5750805190602001fd5b6044604051809262461bcd60e51b82526020600483015261046a81518092816024860152602086860191016103a2565b601f01601f19168101030190fdfe608080604052366100c4577fa3f0ad74e5423aebfd80d3ef4346578335a9a72aeaee59ff6cb3582b35133d5054635c60da1b60e01b8252602090829060049082906001600160a01b03165afa9081156100b857600091610060575b5061015b565b6020903d82116100b0575b601f8201601f1916810167ffffffffffffffff81118282101761009c5761009693506040520161017a565b3861005a565b634e487b7160e01b84526041600452602484fd5b3d915061006b565b6040513d6000823e3d90fd5b7fa3f0ad74e5423aebfd80d3ef4346578335a9a72aeaee59ff6cb3582b35133d5054604051635c60da1b60e01b815290602090829060049082906001600160a01b03165afa9081156100b85760009161011d575061015b565b60203d8111610154575b601f8101601f1916820167ffffffffffffffff81118382101761009c5761009693506040528101906101a1565b503d610127565b6000808092368280378136915af43d82803e15610176573d90f35b3d90fd5b602090607f19011261019c576080516001600160a01b038116810361019c5790565b600080fd5b9081602091031261019c57516001600160a01b038116810361019c579056fea2646970667358221220282abf688b062a839a4662d551dabcadaac92addb7cebf18c13322630af9222464736f6c63430008120033360894a13ba1a3210667c828492db98dca3e2076cc3735a920a3ca505d382bbca2646970667358221220f6836763579abd7fbca9a04bd426e7210a76b5beedfe063cd6bdc42976732aaa64736f6c63430008120033",
    "linkReferences": {}
  },
  "methodIdentifiers": {
    "acceptOwnership()": "79ba5097",
    "deployStaking(address)": "1249ed23",
    "getRareStakingTemplateAddress()": "c8cb01d8",
    "getStakingRegistryAddress()": "9f997eb0",
    "implementation()": "5c60da1b",
    "initialize(address,address,address,address)": "f8c8765e",
    "owner()": "8da5cb5b",
    "pendingOwner()": "e30c3978",
    "proxiableUUID()": "52d1902d",
    "renounceOwnership()": "715018a6",
    "setRareStakingTemplate(address)": "7ed155de",
    "setStakingRegistry(address)": "2c740844",
    "transferOwnership(address)": "f2fde38b",
    "upgradeTo(address)": "3659cfe6",
    "upgradeToAndCall(address,bytes)": "4f1ef286"
  },
  "id": 181
}