{
  "abi": [
    {
      "inputs": [],
      "stateMutability": "nonpayable",
      "type": "constructor"
    },
    {
      "inputs": [],
      "name": "ZeroAddressUnsupported",
      "type": "error"
    },
    {
      "anonymous": false,
      "inputs": [
        {
          "indexed": false,
          "internalType": "address",
          "name": "previousAdmin",
          "type": "address"
        },
        {
          "indexed": false,
          "internalType": "address",
          "name": "newAdmin",
          "type": "address"
        }
      ],
      "name": "AdminChanged",
      "type": "event"
    },
    {
      "anonymous": false,
      "inputs": [
        {
          "indexed": true,
          "internalType": "address",
          "name": "beacon",
          "type": "address"
        }
      ],
      "name": "BeaconUpgraded",
      "type": "event"
    },
    {
      "anonymous": false,
      "inputs": [
        {
          "indexed": false,
          "internalType": "uint8",
          "name": "version",
          "type": "uint8"
        }
      ],
      "name": "Initialized",
      "type": "event"
    },
    {
      "anonymous": false,
      "inputs": [
        {
          "indexed": true,
          "internalType": "address",
          "name": "previousOwner",
          "type": "address"
        },
        {
          "indexed": true,
          "internalType": "address",
          "name": "newOwner",
          "type": "address"
        }
      ],
      "name": "OwnershipTransferStarted",
      "type": "event"
    },
    {
      "anonymous": false,
      "inputs": [
        {
          "indexed": true,
          "internalType": "address",
          "name": "previousOwner",
          "type": "address"
        },
        {
          "indexed": true,
          "internalType": "address",
          "name": "newOwner",
          "type": "address"
        }
      ],
      "name": "OwnershipTransferred",
      "type": "event"
    },
    {
      "anonymous": false,
      "inputs": [
        {
          "indexed": true,
          "internalType": "address",
          "name": "newRareStakingTemplate",
          "type": "address"
        }
      ],
      "name": "RareStakingTemplateUpdated",
      "type": "event"
    },
    {
      "anonymous": false,
      "inputs": [
        {
          "indexed": true,
          "internalType": "address",
          "name": "_deployingUser",
          "type": "address"
        },
        {
          "indexed": true,
          "internalType": "address",
          "name": "_userStakedOn",
          "type": "address"
        },
        {
          "indexed": true,
          "internalType": "address",
          "name": "_stakingAddress",
          "type": "address"
        }
      ],
      "name": "StakingContractCreated",
      "type": "event"
    },
    {
      "anonymous": false,
      "inputs": [
        {
          "indexed": true,
          "internalType": "address",
          "name": "newStakingRegistry",
          "type": "address"
        }
      ],
      "name": "StakingRegistryUpdated",
      "type": "event"
    },
    {
      "anonymous": false,
      "inputs": [
        {
          "indexed": true,
          "internalType": "address",
          "name": "implementation",
          "type": "address"
        }
      ],
      "name": "Upgraded",
      "type": "event"
    },
    {
      "inputs": [],
      "name": "acceptOwnership",
      "outputs": [],
      "stateMutability": "nonpayable",
      "type": "function"
    },
    {
      "inputs": [
        {
          "internalType": "address",
          "name": "_user",
          "type": "address"
        }
      ],
      "name": "deployStaking",
      "outputs": [
        {
          "internalType": "address",
          "name": "",
          "type": "address"
        }
      ],
      "stateMutability": "nonpayable",
      "type": "function"
    },
    {
      "inputs": [],
      "name": "getRareStakingTemplateAddress",
      "outputs": [
        {
          "internalType": "address",
          "name": "",
          "type": "address"
        }
      ],
      "stateMutability": "view",
      "type": "function"
    },
    {
      "inputs": [],
      "name": "getStakingRegistryAddress",
      "outputs": [
        {
          "internalType": "address",
          "name": "",
          "type": "address"
        }
      ],
      "stateMutability": "view",
      "type": "function"
    },
    {
      "inputs": [],
      "name": "implementation",
      "outputs": [
        {
          "internalType": "address",
          "name": "",
          "type": "address"
        }
      ],
      "stateMutability": "view",
      "type": "function"
    },
    {
      "inputs": [
        {
          "internalType": "address",
          "name": "_stakingRegistry",
          "type": "address"
        },
        {
          "internalType": "address",
          "name": "_rareStakingTemplate",
          "type": "address"
        },
        {
          "internalType": "address",
          "name": "_rewardSwapFactory",
          "type": "address"
        },
        {
          "internalType": "address",
          "name": "_newOwner",
          "type": "address"
        }
      ],
      "name": "initialize",
      "outputs": [],
      "stateMutability": "nonpayable",
      "type": "function"
    },
    {
      "inputs": [],
      "name": "owner",
      "outputs": [
        {
          "internalType": "address",
          "name": "",
          "type": "address"
        }
      ],
      "stateMutability": "view",
      "type": "function"
    },
    {
      "inputs": [],
      "name": "pendingOwner",
      "outputs": [
        {
          "internalType": "address",
          "name": "",
          "type": "address"
        }
      ],
      "stateMutability": "view",
      "type": "function"
    },
    {
      "inputs": [],
      "name": "proxiableUUID",
      "outputs": [
        {
          "internalType": "bytes32",
          "name": "",
          "type": "bytes32"
        }
      ],
      "stateMutability": "view",
      "type": "function"
    },
    {
      "inputs": [],
      "name": "renounceOwnership",
      "outputs": [],
      "stateMutability": "nonpayable",
      "type": "function"
    },
    {
      "inputs": [
        {
          "internalType": "address",
          "name": "_rareStakingTemplate",
          "type": "address"
        }
      ],
      "name": "setRareStakingTemplate",
      "outputs": [],
      "stateMutability": "nonpayable",
      "type": "function"
    },
    {
      "inputs": [
        {
          "internalType": "address",
          "name": "_stakingRegistry",
          "type": "address"
        }
      ],
      "name": "setStakingRegistry",
      "outputs": [],
      "stateMutability": "nonpayable",
      "type": "function"
    },
    {
      "inputs": [
        {
          "internalType": "address",
          "name": "newOwner",
          "type": "address"
        }
      ],
      "name": "transferOwnership",
      "outputs": [],
      "stateMutability": "nonpayable",
      "type": "function"
    },
    {
      "inputs": [
        {
          "internalType": "address",
          "name": "newImplementation",
          "type": "address"
        }
      ],
      "name": "upgradeTo",
      "outputs": [],
      "stateMutability": "nonpayable",
      "type": "function"
    },
    {
      "inputs": [
        {
          "internalType": "address",
          "name": "newImplementation",
          "type": "address"
        },
        {
          "internalType": "bytes",
          "name": "data",
          "type": "bytes"
        }
      ],
      "name": "upgradeToAndCall",
      "outputs": [],
      "stateMutability": "payable",
      "type": "function"
    }
  ],
  "bytecode": {
    "object": "0x60a06040523060805234801561001457600080fd5b5061001d610022565b6100e1565b600054610100900460ff161561008e5760405162461bcd60e51b815260206004820152602760248201527f496e697469616c697a61626c653a20636f6e747261637420697320696e697469604482015266616c697a696e6760c81b606482015260840160405180910390fd5b60005460ff908116146100df576000805460ff191660ff9081179091556040519081527f7f26b83ff96e1f2b6a682f133852f6798a09c465da95921460cefb38474024989060200160405180910390a15b565b608051611e916101186000396000818161062d01528181610679015281816107210152818161076401526108000152611e916000f3fe608060405260043610620000fb5760003560e01c806379ba50971162000095578063c8cb01d81162000060578063c8cb01d814620001cc578063e30c39781462000281578063f2fde38b14620002a1578063f8c8765e14620002c657600080fd5b806379ba509714620002045780637ed155de146200021c5780638da5cb5b14620002415780639f997eb0146200026157600080fd5b80634f1ef28611620000d65780634f1ef286146200018e57806352d1902d14620001a55780635c60da1b14620001cc578063715018a614620001ec57600080fd5b80631249ed2314620001005780632c74084414620001425780633659cfe61462000169575b600080fd5b3480156200010d57600080fd5b50620001256200011f366004620011df565b620002eb565b6040516001600160a01b0390911681526020015b60405180910390f35b3480156200014f57600080fd5b506200016762000161366004620011df565b620005a7565b005b3480156200017657600080fd5b506200016762000188366004620011df565b62000623565b620001676200019f36600462001215565b62000717565b348015620001b257600080fd5b50620001bd620007f3565b60405190815260200162000139565b348015620001d957600080fd5b5060fd546001600160a01b031662000125565b348015620001f957600080fd5b5062000167620008a9565b3480156200021157600080fd5b5062000167620008c1565b3480156200022957600080fd5b50620001676200023b366004620011df565b6200093c565b3480156200024e57600080fd5b506033546001600160a01b031662000125565b3480156200026e57600080fd5b5060fb546001600160a01b031662000125565b3480156200028e57600080fd5b506065546001600160a01b031662000125565b348015620002ae57600080fd5b5062000167620002c0366004620011df565b620009b8565b348015620002d357600080fd5b5062000167620002e5366004620012e5565b62000a2c565b60fb546000906001600160a01b039081169083166200031d57604051637827912560e01b815260040160405180910390fd5b604080516001600160a01b038581166024830152831660448201523360648083019190915282518083039091018152608490910182526020810180516001600160e01b031663c0c53b8b60e01b179052905160009130916200037f90620011bb565b6200038c9291906200139e565b604051809103906000f080158015620003a9573d6000803e3d6000fd5b5060fc5460405163399fe9a160e11b81526001600160a01b0380841660048301529293506000929091169063733fd342906024016020604051808303816000875af1158015620003fd573d6000803e3d6000fd5b505050506040513d601f19601f82011682018060405250810190620004239190620013c4565b6040516376a250a760e01b81526001600160a01b03878116600483015284811660248301528083166044830152919250908416906376a250a790606401600060405180830381600087803b1580156200047b57600080fd5b505af115801562000490573d6000803e3d6000fd5b505050506000836001600160a01b03166366951bc16040518163ffffffff1660e01b8152600401602060405180830381865afa158015620004d5573d6000803e3d6000fd5b505050506040513d601f19601f82011682018060405250810190620004fb9190620013e4565b604051632f2ff15d60e01b8152600481018290526001600160a01b03858116602483015291925090851690632f2ff15d90604401600060405180830381600087803b1580156200054a57600080fd5b505af11580156200055f573d6000803e3d6000fd5b50506040516001600160a01b0380871693508916915033907f4a2dd45842063d5cdb0ba4ccb3b677af33701f706cdfa90ddf5fe291e6f9987890600090a45090949350505050565b620005b162000c3c565b6001600160a01b038116620005d957604051637827912560e01b815260040160405180910390fd5b60fb80546001600160a01b0319166001600160a01b0383169081179091556040517fa5aa720af23083cb0a3e835e4c10666ab0ac4eee7a4396df3ec359de6fc53abf90600090a250565b6001600160a01b037f0000000000000000000000000000000000000000000000000000000000000000163003620006775760405162461bcd60e51b81526004016200066e90620013fe565b60405180910390fd5b7f00000000000000000000000000000000000000000000000000000000000000006001600160a01b0316620006c260008051602062001e15833981519152546001600160a01b031690565b6001600160a01b031614620006eb5760405162461bcd60e51b81526004016200066e906200144a565b620006f68162000c98565b60408051600080825260208201909252620007149183919062000cca565b50565b6001600160a01b037f0000000000000000000000000000000000000000000000000000000000000000163003620007625760405162461bcd60e51b81526004016200066e90620013fe565b7f00000000000000000000000000000000000000000000000000000000000000006001600160a01b0316620007ad60008051602062001e15833981519152546001600160a01b031690565b6001600160a01b031614620007d65760405162461bcd60e51b81526004016200066e906200144a565b620007e18262000c98565b620007ef8282600162000cca565b5050565b6000306001600160a01b037f00000000000000000000000000000000000000000000000000000000000000001614620008955760405162461bcd60e51b815260206004820152603860248201527f555550535570677261646561626c653a206d757374206e6f742062652063616c60448201527f6c6564207468726f7567682064656c656761746563616c6c000000000000000060648201526084016200066e565b5060008051602062001e1583398151915290565b620008b362000c3c565b620008bf600062000e47565b565b60655433906001600160a01b03168114620009315760405162461bcd60e51b815260206004820152602960248201527f4f776e61626c6532537465703a2063616c6c6572206973206e6f7420746865206044820152683732bb9037bbb732b960b91b60648201526084016200066e565b620007148162000e47565b6200094662000c3c565b6001600160a01b0381166200096e57604051637827912560e01b815260040160405180910390fd5b60fd80546001600160a01b0319166001600160a01b0383169081179091556040517f2b022c4b56a6b8adae778a141c22e90aead2a46d1655c4ef94ced0acfae9ed2590600090a250565b620009c262000c3c565b606580546001600160a01b0383166001600160a01b03199091168117909155620009f46033546001600160a01b031690565b6001600160a01b03167f38d16b8cac22d99fc7c124b9cd0de2d3fa1faef420bfe791d8c362d765e2270060405160405180910390a350565b600054610100900460ff161580801562000a4d5750600054600160ff909116105b8062000a695750303b15801562000a69575060005460ff166001145b62000ace5760405162461bcd60e51b815260206004820152602e60248201527f496e697469616c697a61626c653a20636f6e747261637420697320616c72656160448201526d191e481a5b9a5d1a585b1a5e995960921b60648201526084016200066e565b6000805460ff19166001179055801562000af2576000805461ff0019166101001790555b6001600160a01b03851662000b1a57604051637827912560e01b815260040160405180910390fd5b6001600160a01b03841662000b4257604051637827912560e01b815260040160405180910390fd5b6001600160a01b03831662000b6a57604051637827912560e01b815260040160405180910390fd5b6001600160a01b03821662000b9257604051637827912560e01b815260040160405180910390fd5b60fc80546001600160a01b038086166001600160a01b03199283161790925560fd805487841690831617905560fb80549288169290911691909117905562000bd962000e62565b62000be362000e96565b62000bee8262000e47565b801562000c35576000805461ff0019169055604051600181527f7f26b83ff96e1f2b6a682f133852f6798a09c465da95921460cefb38474024989060200160405180910390a15b5050505050565b6033546001600160a01b03163314620008bf5760405162461bcd60e51b815260206004820181905260248201527f4f776e61626c653a2063616c6c6572206973206e6f7420746865206f776e657260448201526064016200066e565b62000ca262000c3c565b6001600160a01b0381166200071457604051637827912560e01b815260040160405180910390fd5b7f4910fdfa16fed3260ed0e7147f7cc6da11a60208b5b9406d12a635614ffd91435460ff161562000d055762000d008362000ec0565b505050565b826001600160a01b03166352d1902d6040518163ffffffff1660e01b8152600401602060405180830381865afa92505050801562000d62575060408051601f3d908101601f1916820190925262000d5f91810190620013e4565b60015b62000dc75760405162461bcd60e51b815260206004820152602e60248201527f45524331393637557067726164653a206e657720696d706c656d656e7461746960448201526d6f6e206973206e6f74205555505360901b60648201526084016200066e565b60008051602062001e15833981519152811462000e395760405162461bcd60e51b815260206004820152602960248201527f45524331393637557067726164653a20756e737570706f727465642070726f786044820152681a58589b195555525160ba1b60648201526084016200066e565b5062000d0083838362000f5f565b606580546001600160a01b0319169055620007148162000f90565b600054610100900460ff1662000e8c5760405162461bcd60e51b81526004016200066e9062001496565b620008bf62000fe2565b600054610100900460ff16620008bf5760405162461bcd60e51b81526004016200066e9062001496565b6001600160a01b0381163b62000f2f5760405162461bcd60e51b815260206004820152602d60248201527f455243313936373a206e657720696d706c656d656e746174696f6e206973206e60448201526c1bdd08184818dbdb9d1c9858dd609a1b60648201526084016200066e565b60008051602062001e1583398151915280546001600160a01b0319166001600160a01b0392909216919091179055565b62000f6a8362001017565b60008251118062000f785750805b1562000d005762000f8a838362001059565b50505050565b603380546001600160a01b038381166001600160a01b0319831681179093556040519116919082907f8be0079c531659141344cd1fd0a4f28419497f9722a3daafe3b4186f6b6457e090600090a35050565b600054610100900460ff166200100c5760405162461bcd60e51b81526004016200066e9062001496565b620008bf3362000e47565b620010228162000ec0565b6040516001600160a01b038216907fbc7cd75a20ee27fd9adebab32041f755214dbc6bffa90cc0225b39da2e5c2d3b90600090a250565b606062001081838360405180606001604052806027815260200162001e356027913962001088565b9392505050565b6060600080856001600160a01b031685604051620010a79190620014e1565b600060405180830381855af49150503d8060008114620010e4576040519150601f19603f3d011682016040523d82523d6000602084013e620010e9565b606091505b5091509150620010fc8683838762001106565b9695505050505050565b606083156200117a57825160000362001172576001600160a01b0385163b620011725760405162461bcd60e51b815260206004820152601d60248201527f416464726573733a2063616c6c20746f206e6f6e2d636f6e747261637400000060448201526064016200066e565b508162001186565b6200118683836200118e565b949350505050565b8151156200119f5781518083602001fd5b8060405162461bcd60e51b81526004016200066e9190620014ff565b610900806200151583390190565b6001600160a01b03811681146200071457600080fd5b600060208284031215620011f257600080fd5b81356200108181620011c9565b634e487b7160e01b600052604160045260246000fd5b600080604083850312156200122957600080fd5b82356200123681620011c9565b9150602083013567ffffffffffffffff808211156200125457600080fd5b818501915085601f8301126200126957600080fd5b8135818111156200127e576200127e620011ff565b604051601f8201601f19908116603f01168101908382118183101715620012a957620012a9620011ff565b81604052828152886020848701011115620012c357600080fd5b8260208601602083013760006020848301015280955050505050509250929050565b60008060008060808587031215620012fc57600080fd5b84356200130981620011c9565b935060208501356200131b81620011c9565b925060408501356200132d81620011c9565b915060608501356200133f81620011c9565b939692955090935050565b60005b83811015620013675781810151838201526020016200134d565b50506000910152565b600081518084526200138a8160208601602086016200134a565b601f01601f19169290920160200192915050565b6001600160a01b0383168152604060208201819052600090620011869083018462001370565b600060208284031215620013d757600080fd5b81516200108181620011c9565b600060208284031215620013f757600080fd5b5051919050565b6020808252602c908201527f46756e6374696f6e206d7573742062652063616c6c6564207468726f7567682060408201526b19195b1959d85d1958d85b1b60a21b606082015260800190565b6020808252602c908201527f46756e6374696f6e206d7573742062652063616c6c6564207468726f7567682060408201526b6163746976652070726f787960a01b606082015260800190565b6020808252602b908201527f496e697469616c697a61626c653a20636f6e7472616374206973206e6f74206960408201526a6e697469616c697a696e6760a81b606082015260800190565b60008251620014f58184602087016200134a565b9190910192915050565b6020815260006200108160208301846200137056fe60806040526040516109003803806109008339810160408190526100229161045b565b61002e82826000610035565b5050610585565b61003e83610100565b6040516001600160a01b038416907f1cf3b03a6cf19fa2baba4df148e9dcabedea7f8a5c07840e207e5c089be95d3e90600090a260008251118061007f5750805b156100fb576100f9836001600160a01b0316635c60da1b6040518163ffffffff1660e01b8152600401602060405180830381865afa1580156100c5573d6000803e3d6000fd5b505050506040513d601f19601f820116820180604052508101906100e9919061051b565b836102a360201b6100291760201c565b505b505050565b610113816102cf60201b6100551760201c565b6101725760405162461bcd60e51b815260206004820152602560248201527f455243313936373a206e657720626561636f6e206973206e6f74206120636f6e6044820152641d1c9858dd60da1b60648201526084015b60405180910390fd5b6101e6816001600160a01b0316635c60da1b6040518163ffffffff1660e01b8152600401602060405180830381865afa1580156101b3573d6000803e3d6000fd5b505050506040513d601f19601f820116820180604052508101906101d7919061051b565b6102cf60201b6100551760201c565b61024b5760405162461bcd60e51b815260206004820152603060248201527f455243313936373a20626561636f6e20696d706c656d656e746174696f6e206960448201526f1cc81b9bdd08184818dbdb9d1c9858dd60821b6064820152608401610169565b806102827fa3f0ad74e5423aebfd80d3ef4346578335a9a72aeaee59ff6cb3582b35133d5060001b6102de60201b6100641760201c565b80546001600160a01b0319166001600160a01b039290921691909117905550565b60606102c883836040518060600160405280602781526020016108d9602791396102e1565b9392505050565b6001600160a01b03163b151590565b90565b6060600080856001600160a01b0316856040516102fe9190610536565b600060405180830381855af49150503d8060008114610339576040519150601f19603f3d011682016040523d82523d6000602084013e61033e565b606091505b5090925090506103508683838761035a565b9695505050505050565b606083156103c95782516000036103c2576001600160a01b0385163b6103c25760405162461bcd60e51b815260206004820152601d60248201527f416464726573733a2063616c6c20746f206e6f6e2d636f6e74726163740000006044820152606401610169565b50816103d3565b6103d383836103db565b949350505050565b8151156103eb5781518083602001fd5b8060405162461bcd60e51b81526004016101699190610552565b80516001600160a01b038116811461041c57600080fd5b919050565b634e487b7160e01b600052604160045260246000fd5b60005b8381101561045257818101518382015260200161043a565b50506000910152565b6000806040838503121561046e57600080fd5b61047783610405565b60208401519092506001600160401b038082111561049457600080fd5b818501915085601f8301126104a857600080fd5b8151818111156104ba576104ba610421565b604051601f8201601f19908116603f011681019083821181831017156104e2576104e2610421565b816040528281528860208487010111156104fb57600080fd5b61050c836020830160208801610437565b80955050505050509250929050565b60006020828403121561052d57600080fd5b6102c882610405565b60008251610548818460208701610437565b9190910192915050565b6020815260008251806020840152610571816040850160208701610437565b601f01601f19169190910160400192915050565b610345806105946000396000f3fe60806040523661001357610011610017565b005b6100115b610027610022610067565b610100565b565b606061004e83836040518060600160405280602781526020016102e960279139610124565b9392505050565b6001600160a01b03163b151590565b90565b600061009a7fa3f0ad74e5423aebfd80d3ef4346578335a9a72aeaee59ff6cb3582b35133d50546001600160a01b031690565b6001600160a01b0316635c60da1b6040518163ffffffff1660e01b8152600401602060405180830381865afa1580156100d7573d6000803e3d6000fd5b505050506040513d601f19601f820116820180604052508101906100fb919061024c565b905090565b3660008037600080366000845af43d6000803e80801561011f573d6000f35b3d6000fd5b6060600080856001600160a01b0316856040516101419190610299565b600060405180830381855af49150503d806000811461017c576040519150601f19603f3d011682016040523d82523d6000602084013e610181565b606091505b50915091506101928683838761019c565b9695505050505050565b60608315610210578251600003610209576001600160a01b0385163b6102095760405162461bcd60e51b815260206004820152601d60248201527f416464726573733a2063616c6c20746f206e6f6e2d636f6e747261637400000060448201526064015b60405180910390fd5b508161021a565b61021a8383610222565b949350505050565b8151156102325781518083602001fd5b8060405162461bcd60e51b815260040161020091906102b5565b60006020828403121561025e57600080fd5b81516001600160a01b038116811461004e57600080fd5b60005b83811015610290578181015183820152602001610278565b50506000910152565b600082516102ab818460208701610275565b9190910192915050565b60208152600082518060208401526102d4816040850160208701610275565b601f01601f1916919091016040019291505056fe416464726573733a206c6f772d6c6576656c2064656c65676174652063616c6c206661696c6564a26469706673582212207069cec73b20ad8e8ba98957b0265504213aeedde496b709890241873a5a162964736f6c63430008120033416464726573733a206c6f772d6c6576656c2064656c65676174652063616c6c206661696c6564360894a13ba1a3210667c828492db98dca3e2076cc3735a920a3ca505d382bbc416464726573733a206c6f772d6c6576656c2064656c65676174652063616c6c206661696c6564a2646970667358221220ea9c8a566a22886a507aa1e0c635051dcaf7b368a0fb73e453e008e856fecdb164736f6c63430008120033",
    "linkReferences": {}
  },
  "methodIdentifiers": {
    "acceptOwnership()": "79ba5097",
    "deployStaking(address)": "1249ed23",
    "getRareStakingTemplateAddress()": "c8cb01d8",
    "getStakingRegistryAddress()": "9f997eb0",
    "implementation()": "5c60da1b",
    "initialize(address,address,address,address)": "f8c8765e",
    "owner()": "8da5cb5b",
    "pendingOwner()": "e30c3978",
    "proxiableUUID()": "52d1902d",
    "renounceOwnership()": "715018a6",
    "setRareStakingTemplate(address)": "7ed155de",
    "setStakingRegistry(address)": "2c740844",
    "transferOwnership(address)": "f2fde38b",
    "upgradeTo(address)": "3659cfe6",
    "upgradeToAndCall(address,bytes)": "4f1ef286"
  },
  "id": 138
}