{
  "abi": [
    {
      "inputs": [],
      "stateMutability": "nonpayable",
      "type": "constructor"
    },
    {
      "inputs": [],
      "name": "CannotSwapRareForRare",
      "type": "error"
    },
    {
      "inputs": [],
      "name": "InsufficientFunds",
      "type": "error"
    },
    {
      "inputs": [],
      "name": "ParameterValueTooLow",
      "type": "error"
    },
    {
      "inputs": [],
      "name": "RarePriceTooLow",
      "type": "error"
    },
    {
      "inputs": [],
      "name": "Unauthorized",
      "type": "error"
    },
    {
      "inputs": [],
      "name": "UnsupportedERC20Token",
      "type": "error"
    },
    {
      "anonymous": false,
      "inputs": [
        {
          "indexed": false,
          "internalType": "uint8",
          "name": "version",
          "type": "uint8"
        }
      ],
      "name": "Initialized",
      "type": "event"
    },
    {
      "anonymous": false,
      "inputs": [
        {
          "indexed": true,
          "internalType": "address",
          "name": "_msgSender",
          "type": "address"
        },
        {
          "indexed": true,
          "internalType": "address",
          "name": "_tokenOut",
          "type": "address"
        },
        {
          "indexed": false,
          "internalType": "uint256",
          "name": "_amountOut",
          "type": "uint256"
        },
        {
          "indexed": false,
          "internalType": "uint256",
          "name": "_rareIn",
          "type": "uint256"
        }
      ],
      "name": "RewardAccumulator",
      "type": "event"
    },
    {
      "inputs": [
        {
          "internalType": "address",
          "name": "_tokenOut",
          "type": "address"
        },
        {
          "internalType": "uint128",
          "name": "_rareAmountIn",
          "type": "uint128"
        }
      ],
      "name": "estimateRarePrice",
      "outputs": [
        {
          "internalType": "uint256",
          "name": "",
          "type": "uint256"
        }
      ],
      "stateMutability": "view",
      "type": "function"
    },
    {
      "inputs": [
        {
          "internalType": "address",
          "name": "_stakingPool",
          "type": "address"
        }
      ],
      "name": "initialize",
      "outputs": [],
      "stateMutability": "nonpayable",
      "type": "function"
    },
    {
      "inputs": [
        {
          "internalType": "address",
          "name": "_tokenOut",
          "type": "address"
        },
        {
          "internalType": "uint256",
          "name": "_minAmountOut",
          "type": "uint256"
        },
        {
          "internalType": "uint128",
          "name": "_rareIn",
          "type": "uint128"
        }
      ],
      "name": "rewardSwap",
      "outputs": [],
      "stateMutability": "nonpayable",
      "type": "function"
    },
    {
      "stateMutability": "payable",
      "type": "receive"
    }
  ],
  "bytecode": {
    "object": "0x608060405234801561001057600080fd5b5061001961001e565b6100dd565b600054610100900460ff161561008a5760405162461bcd60e51b815260206004820152602760248201527f496e697469616c697a61626c653a20636f6e747261637420697320696e697469604482015266616c697a696e6760c81b606482015260840160405180910390fd5b60005460ff908116146100db576000805460ff191660ff9081179091556040519081527f7f26b83ff96e1f2b6a682f133852f6798a09c465da95921460cefb38474024989060200160405180910390a15b565b611cd1806100ec6000396000f3fe6080604052600436106100385760003560e01c8063442471f01461004457806394a5a29d14610076578063c4d66de81461009857600080fd5b3661003f57005b600080fd5b34801561005057600080fd5b5061006461005f3660046117b6565b6100b8565b60405190815260200160405180910390f35b34801561008257600080fd5b506100966100913660046117eb565b610756565b005b3480156100a457600080fd5b506100966100b3366004611829565b610b8b565b600080603360009054906101000a90046001600160a01b03166001600160a01b031663613477826040518163ffffffff1660e01b8152600401602060405180830381865afa15801561010e573d6000803e3d6000fd5b505050506040513d601f19601f820116820180604052508101906101329190611846565b90506000816001600160a01b03166323a7b42a6040518163ffffffff1660e01b8152600401602060405180830381865afa158015610174573d6000803e3d6000fd5b505050506040513d601f19601f820116820180604052508101906101989190611846565b905060006001600160a01b038616156101b157856101b3565b815b6040516301cde7c760e11b81526001600160a01b03808316600483015291925060009185169063039bcf8e90602401602060405180830381865afa1580156101ff573d6000803e3d6000fd5b505050506040513d601f19601f820116820180604052508101906102239190611846565b6001600160a01b031614801561024b5750816001600160a01b0316816001600160a01b031614155b15610269576040516305d6109b60e31b815260040160405180910390fd5b60408051600280825260608201835261070892600092919060208301908036833701905050905081816000815181106102a4576102a4611879565b602002602001019063ffffffff16908163ffffffff16815250506000816001815181106102d3576102d3611879565b602002602001019063ffffffff16908163ffffffff16815250506000856001600160a01b031663039bcf8e876001600160a01b0316632210d5256040518163ffffffff1660e01b8152600401602060405180830381865afa15801561033c573d6000803e3d6000fd5b505050506040513d601f19601f820116820180604052508101906103609190611846565b6040516001600160e01b031960e084901b1681526001600160a01b039091166004820152602401602060405180830381865afa1580156103a4573d6000803e3d6000fd5b505050506040513d601f19601f820116820180604052508101906103c89190611846565b6001600160a01b031663883bdbfd836040518263ffffffff1660e01b81526004016103f3919061188f565b600060405180830381865afa158015610410573d6000803e3d6000fd5b505050506040513d6000823e601f3d908101601f1916820160405261043891908101906119a2565b50905060008160008151811061045057610450611879565b60200260200101518260018151811061046b5761046b611879565b602002602001015161047d9190611a84565b9050600061048f600386900b83611ac7565b905060008260060b1280156104b357506104ad600386900b83611b05565b60060b15155b156104c657806104c281611b27565b9150505b6000612710896001600160a01b031663111029b96040518163ffffffff1660e01b8152600401602060405180830381865afa158015610509573d6000803e3d6000fd5b505050506040513d601f19601f8201168201806040525081019061052d9190611b4a565b61053990612710611b63565b6105b78461054f8f6001600160801b0316610cb5565b8d6001600160a01b0316632210d5256040518163ffffffff1660e01b8152600401602060405180830381865afa15801561058d573d6000803e3d6000fd5b505050506040513d601f19601f820116820180604052508101906105b19190611846565b8d610d22565b6105c19190611b76565b6105cb9190611b8d565b9050876001600160a01b0316876001600160a01b0316036105f6579850610750975050505050505050565b6040516301cde7c760e11b81526001600160a01b038881166004830152600091908b169063039bcf8e90602401602060405180830381865afa158015610640573d6000803e3d6000fd5b505050506040513d601f19601f820116820180604052508101906106649190611846565b6001600160a01b031663883bdbfd876040518263ffffffff1660e01b815260040161068f919061188f565b600060405180830381865afa1580156106ac573d6000803e3d6000fd5b505050506040513d6000823e601f3d908101601f191682016040526106d491908101906119a2565b5090506000816000815181106106ec576106ec611879565b60200260200101518260018151811061070757610707611879565b60200260200101516107199190611a84565b9050600061072b60038a900b83611ac7565b90506107418161073a86610cb5565b8d8d610d22565b9c505050505050505050505050505b92915050565b61075e610e30565b8160000361077f57604051631d01a37160e01b815260040160405180910390fd5b806001600160801b03166000036107a957604051631d01a37160e01b815260040160405180910390fd5b6033546040805163309a3bc160e11b815290516000926001600160a01b03169163613477829160048083019260209291908290030181865afa1580156107f3573d6000803e3d6000fd5b505050506040513d601f19601f820116820180604052508101906108179190611846565b6001600160a01b0316632210d5256040518163ffffffff1660e01b8152600401602060405180830381865afa158015610854573d6000803e3d6000fd5b505050506040513d601f19601f820116820180604052508101906108789190611846565b6040516370a0823160e01b81523060048201529091506000906001600160a01b038316906370a0823190602401602060405180830381865afa1580156108c2573d6000803e3d6000fd5b505050506040513d601f19601f820116820180604052508101906108e69190611b4a565b1115610966576033546040516370a0823160e01b81523060048201526109669183916001600160a01b03918216918316906370a0823190602401602060405180830381865afa15801561093d573d6000803e3d6000fd5b505050506040513d601f19601f820116820180604052508101906109619190611b4a565b610e89565b6001600160a01b03841615801561097c57508247105b1561099a5760405163356680b760e01b815260040160405180910390fd5b6001600160a01b03841615801590610a1957506040516370a0823160e01b815230600482015283906001600160a01b038616906370a0823190602401602060405180830381865afa1580156109f3573d6000803e3d6000fd5b505050506040513d601f19601f82011682018060405250810190610a179190611b4a565b105b15610a375760405163356680b760e01b815260040160405180910390fd5b806001600160a01b0316846001600160a01b031603610a6957604051630cdece4960e21b815260040160405180910390fd5b6000610a7585846100b8565b905083811015610a98576040516390981e6d60e01b815260040160405180910390fd5b60335460405163a9fc507b60e01b81523360048201526001600160801b03851660248201526001600160a01b039091169063a9fc507b90604401600060405180830381600087803b158015610aec57600080fd5b505af1158015610b00573d6000803e3d6000fd5b5050506001600160a01b0386169050610b2257610b1d3382610edb565b610b2d565b610b2d853383610e89565b604080518281526001600160801b03851660208201526001600160a01b0387169133917ffde313859edf8a78b1e1c10c6dbe0584a219be6af8d4914fdb85486523103397910160405180910390a35050610b8660018055565b505050565b600054610100900460ff1615808015610bab5750600054600160ff909116105b80610bc55750303b158015610bc5575060005460ff166001145b610c2d5760405162461bcd60e51b815260206004820152602e60248201527f496e697469616c697a61626c653a20636f6e747261637420697320616c72656160448201526d191e481a5b9a5d1a585b1a5e995960921b60648201526084015b60405180910390fd5b6000805460ff191660011790558015610c50576000805461ff0019166101001790555b603380546001600160a01b0319166001600160a01b0384161790558015610cb1576000805461ff0019169055604051600181527f7f26b83ff96e1f2b6a682f133852f6798a09c465da95921460cefb38474024989060200160405180910390a15b5050565b60006001600160801b03821115610d1e5760405162461bcd60e51b815260206004820152602760248201527f53616665436173743a2076616c756520646f65736e27742066697420696e20316044820152663238206269747360c81b6064820152608401610c24565b5090565b600080610d2e86610ff4565b90506001600160801b036001600160a01b03821611610db4576000610d5c6001600160a01b03831680611b76565b9050836001600160a01b0316856001600160a01b031610610d9457610d8f600160c01b876001600160801b031683611414565b610dac565b610dac81876001600160801b0316600160c01b611414565b925050610e27565b6000610dd36001600160a01b0383168068010000000000000000611414565b9050836001600160a01b0316856001600160a01b031610610e0b57610e06600160801b876001600160801b031683611414565b610e23565b610e2381876001600160801b0316600160801b611414565b9250505b50949350505050565b600260015403610e825760405162461bcd60e51b815260206004820152601f60248201527f5265656e7472616e637947756172643a207265656e7472616e742063616c6c006044820152606401610c24565b6002600155565b604080516001600160a01b038416602482015260448082018490528251808303909101815260649091019091526020810180516001600160e01b031663a9059cbb60e01b179052610b8690849061159a565b80471015610f2b5760405162461bcd60e51b815260206004820152601d60248201527f416464726573733a20696e73756666696369656e742062616c616e63650000006044820152606401610c24565b6000826001600160a01b03168260405160006040518083038185875af1925050503d8060008114610f78576040519150601f19603f3d011682016040523d82523d6000602084013e610f7d565b606091505b5050905080610b865760405162461bcd60e51b815260206004820152603a60248201527f416464726573733a20756e61626c6520746f2073656e642076616c75652c207260448201527f6563697069656e74206d617920686176652072657665727465640000000000006064820152608401610c24565b60008060008360020b1261100b578260020b611018565b8260020b61101890611ba1565b9050611027620d89e719611bbd565b60020b81111561105d5760405162461bcd60e51b81526020600482015260016024820152601560fa1b6044820152606401610c24565b60008160011660000361107457600160801b611086565b6ffffcb933bd6fad37aa2d162d1a5940015b70ffffffffffffffffffffffffffffffffff16905060028216156110c55760806110c0826ffff97272373d413259a46990580e213a611b76565b901c90505b60048216156110ef5760806110ea826ffff2e50f5f656932ef12357cf3c7fdcc611b76565b901c90505b6008821615611119576080611114826fffe5caca7e10e4e61c3624eaa0941cd0611b76565b901c90505b601082161561114357608061113e826fffcb9843d60f6159c9db58835c926644611b76565b901c90505b602082161561116d576080611168826fff973b41fa98c081472e6896dfb254c0611b76565b901c90505b6040821615611197576080611192826fff2ea16466c96a3843ec78b326b52861611b76565b901c90505b60808216156111c15760806111bc826ffe5dee046a99a2a811c461f1969c3053611b76565b901c90505b6101008216156111ec5760806111e7826ffcbe86c7900a88aedcffc83b479aa3a4611b76565b901c90505b610200821615611217576080611212826ff987a7253ac413176f2b074cf7815e54611b76565b901c90505b61040082161561124257608061123d826ff3392b0822b70005940c7a398e4b70f3611b76565b901c90505b61080082161561126d576080611268826fe7159475a2c29b7443b29c7fa6e889d9611b76565b901c90505b611000821615611298576080611293826fd097f3bdfd2022b8845ad8f792aa5825611b76565b901c90505b6120008216156112c35760806112be826fa9f746462d870fdf8a65dc1f90e061e5611b76565b901c90505b6140008216156112ee5760806112e9826f70d869a156d2a1b890bb3df62baf32f7611b76565b901c90505b618000821615611319576080611314826f31be135f97d08fd981231505542fcfa6611b76565b901c90505b62010000821615611345576080611340826f09aa508b5b7a84e1c677de54f3e99bc9611b76565b901c90505b6202000082161561137057608061136b826e5d6af8dedb81196699c329225ee604611b76565b901c90505b6204000082161561139a576080611395826d2216e584f5fa1ea926041bedfe98611b76565b901c90505b620800008216156113c25760806113bd826b048a170391f7dc42444e8fa2611b76565b901c90505b60008460020b13156113dd576113da81600019611b8d565b90505b6113ec64010000000082611bdf565b156113f85760016113fb565b60005b61140c9060ff16602083901c611b63565b949350505050565b600080806000198587098587029250828110838203039150508060000361144d576000841161144257600080fd5b508290049050611593565b80841161145957600080fd5b60008486880980840393811190920391905060008561147a81600019611bf3565b611485906001611b63565b169586900495938490049360008190030460010190506114a58184611b76565b9093179260006114b6876003611b76565b60021890506114c58188611b76565b6114d0906002611bf3565b6114da9082611b76565b90506114e68188611b76565b6114f1906002611bf3565b6114fb9082611b76565b90506115078188611b76565b611512906002611bf3565b61151c9082611b76565b90506115288188611b76565b611533906002611bf3565b61153d9082611b76565b90506115498188611b76565b611554906002611bf3565b61155e9082611b76565b905061156a8188611b76565b611575906002611bf3565b61157f9082611b76565b905061158b8186611b76565b955050505050505b9392505050565b60006115ef826040518060400160405280602081526020017f5361666545524332303a206c6f772d6c6576656c2063616c6c206661696c6564815250856001600160a01b031661166f9092919063ffffffff16565b90508051600014806116105750808060200190518101906116109190611c06565b610b865760405162461bcd60e51b815260206004820152602a60248201527f5361666545524332303a204552433230206f7065726174696f6e20646964206e6044820152691bdd081cdd58d8d9595960b21b6064820152608401610c24565b606061140c848460008585600080866001600160a01b031685876040516116969190611c4c565b60006040518083038185875af1925050503d80600081146116d3576040519150601f19603f3d011682016040523d82523d6000602084013e6116d8565b606091505b5091509150610e23878383876060831561175357825160000361174c576001600160a01b0385163b61174c5760405162461bcd60e51b815260206004820152601d60248201527f416464726573733a2063616c6c20746f206e6f6e2d636f6e74726163740000006044820152606401610c24565b508161140c565b61140c83838151156117685781518083602001fd5b8060405162461bcd60e51b8152600401610c249190611c68565b6001600160a01b038116811461179757600080fd5b50565b80356001600160801b03811681146117b157600080fd5b919050565b600080604083850312156117c957600080fd5b82356117d481611782565b91506117e26020840161179a565b90509250929050565b60008060006060848603121561180057600080fd5b833561180b81611782565b9250602084013591506118206040850161179a565b90509250925092565b60006020828403121561183b57600080fd5b813561159381611782565b60006020828403121561185857600080fd5b815161159381611782565b634e487b7160e01b600052604160045260246000fd5b634e487b7160e01b600052603260045260246000fd5b6020808252825182820181905260009190848201906040850190845b818110156118cd57835163ffffffff16835292840192918401916001016118ab565b50909695505050505050565b604051601f8201601f1916810167ffffffffffffffff8111828210171561190257611902611863565b604052919050565b600067ffffffffffffffff82111561192457611924611863565b5060051b60200190565b600082601f83011261193f57600080fd5b8151602061195461194f8361190a565b6118d9565b82815260059290921b8401810191818101908684111561197357600080fd5b8286015b8481101561199757805161198a81611782565b8352918301918301611977565b509695505050505050565b600080604083850312156119b557600080fd5b825167ffffffffffffffff808211156119cd57600080fd5b818501915085601f8301126119e157600080fd5b815160206119f161194f8361190a565b82815260059290921b84018101918181019089841115611a1057600080fd5b948201945b83861015611a3e5785518060060b8114611a2f5760008081fd5b82529482019490820190611a15565b91880151919650909350505080821115611a5757600080fd5b50611a648582860161192e565b9150509250929050565b634e487b7160e01b600052601160045260246000fd5b600682810b9082900b03667fffffffffffff198112667fffffffffffff8213171561075057610750611a6e565b634e487b7160e01b600052601260045260246000fd5b60008160060b8360060b80611ade57611ade611ab1565b667fffffffffffff19821460001982141615611afc57611afc611a6e565b90059392505050565b60008260060b80611b1857611b18611ab1565b808360060b0791505092915050565b60008160020b627fffff198103611b4057611b40611a6e565b6000190192915050565b600060208284031215611b5c57600080fd5b5051919050565b8082018082111561075057610750611a6e565b808202811582820484141761075057610750611a6e565b600082611b9c57611b9c611ab1565b500490565b6000600160ff1b8201611bb657611bb6611a6e565b5060000390565b60008160020b627fffff198103611bd657611bd6611a6e565b60000392915050565b600082611bee57611bee611ab1565b500690565b8181038181111561075057610750611a6e565b600060208284031215611c1857600080fd5b8151801515811461159357600080fd5b60005b83811015611c43578181015183820152602001611c2b565b50506000910152565b60008251611c5e818460208701611c28565b9190910192915050565b6020815260008251806020840152611c87816040850160208701611c28565b601f01601f1916919091016040019291505056fea264697066735822122070efea6add3ed6adf9e74d1875a6028a967ead38e08f8489c0c4bed44eee227564736f6c63430008120033",
    "linkReferences": {}
  },
  "methodIdentifiers": {
    "estimateRarePrice(address,uint128)": "442471f0",
    "initialize(address)": "c4d66de8",
    "rewardSwap(address,uint256,uint128)": "94a5a29d"
  },
  "id": 143
}