{
  "abi": [
    {
      "anonymous": false,
      "inputs": [
        {
          "indexed": false,
          "internalType": "address",
          "name": "previousAdmin",
          "type": "address"
        },
        {
          "indexed": false,
          "internalType": "address",
          "name": "newAdmin",
          "type": "address"
        }
      ],
      "name": "AdminChanged",
      "type": "event"
    },
    {
      "anonymous": false,
      "inputs": [
        {
          "indexed": true,
          "internalType": "address",
          "name": "beacon",
          "type": "address"
        }
      ],
      "name": "BeaconUpgraded",
      "type": "event"
    },
    {
      "anonymous": false,
      "inputs": [
        {
          "indexed": false,
          "internalType": "uint8",
          "name": "version",
          "type": "uint8"
        }
      ],
      "name": "Initialized",
      "type": "event"
    },
    {
      "anonymous": false,
      "inputs": [
        {
          "indexed": true,
          "internalType": "address",
          "name": "previousOwner",
          "type": "address"
        },
        {
          "indexed": true,
          "internalType": "address",
          "name": "newOwner",
          "type": "address"
        }
      ],
      "name": "OwnershipTransferred",
      "type": "event"
    },
    {
      "anonymous": false,
      "inputs": [
        {
          "indexed": true,
          "internalType": "address",
          "name": "_stakingAddress",
          "type": "address"
        }
      ],
      "name": "RewardSwapContractCreated",
      "type": "event"
    },
    {
      "anonymous": false,
      "inputs": [
        {
          "indexed": true,
          "internalType": "address",
          "name": "implementation",
          "type": "address"
        }
      ],
      "name": "Upgraded",
      "type": "event"
    },
    {
      "inputs": [
        {
          "internalType": "address",
          "name": "_stakingAddress",
          "type": "address"
        }
      ],
      "name": "deployRewardSwap",
      "outputs": [
        {
          "internalType": "address payable",
          "name": "",
          "type": "address"
        }
      ],
      "stateMutability": "nonpayable",
      "type": "function"
    },
    {
      "inputs": [],
      "name": "getRewardSwapTemplateAddress",
      "outputs": [
        {
          "internalType": "address",
          "name": "",
          "type": "address"
        }
      ],
      "stateMutability": "view",
      "type": "function"
    },
    {
      "inputs": [],
      "name": "getStakingRegistryAddress",
      "outputs": [
        {
          "internalType": "address",
          "name": "",
          "type": "address"
        }
      ],
      "stateMutability": "view",
      "type": "function"
    },
    {
      "inputs": [],
      "name": "implementation",
      "outputs": [
        {
          "internalType": "address",
          "name": "",
          "type": "address"
        }
      ],
      "stateMutability": "view",
      "type": "function"
    },
    {
      "inputs": [
        {
          "internalType": "address",
          "name": "_stakingRegistry",
          "type": "address"
        },
        {
          "internalType": "address",
          "name": "_rewardTemplate",
          "type": "address"
        },
        {
          "internalType": "address",
          "name": "_newOwner",
          "type": "address"
        }
      ],
      "name": "initialize",
      "outputs": [],
      "stateMutability": "nonpayable",
      "type": "function"
    },
    {
      "inputs": [],
      "name": "owner",
      "outputs": [
        {
          "internalType": "address",
          "name": "",
          "type": "address"
        }
      ],
      "stateMutability": "view",
      "type": "function"
    },
    {
      "inputs": [],
      "name": "proxiableUUID",
      "outputs": [
        {
          "internalType": "bytes32",
          "name": "",
          "type": "bytes32"
        }
      ],
      "stateMutability": "view",
      "type": "function"
    },
    {
      "inputs": [],
      "name": "renounceOwnership",
      "outputs": [],
      "stateMutability": "nonpayable",
      "type": "function"
    },
    {
      "inputs": [
        {
          "internalType": "address",
          "name": "_rewardTemplate",
          "type": "address"
        }
      ],
      "name": "setRewardSwapTemplate",
      "outputs": [],
      "stateMutability": "nonpayable",
      "type": "function"
    },
    {
      "inputs": [
        {
          "internalType": "address",
          "name": "_stakingRegistry",
          "type": "address"
        }
      ],
      "name": "setStakingRegistry",
      "outputs": [],
      "stateMutability": "nonpayable",
      "type": "function"
    },
    {
      "inputs": [
        {
          "internalType": "address",
          "name": "newOwner",
          "type": "address"
        }
      ],
      "name": "transferOwnership",
      "outputs": [],
      "stateMutability": "nonpayable",
      "type": "function"
    },
    {
      "inputs": [
        {
          "internalType": "address",
          "name": "newImplementation",
          "type": "address"
        }
      ],
      "name": "upgradeTo",
      "outputs": [],
      "stateMutability": "nonpayable",
      "type": "function"
    },
    {
      "inputs": [
        {
          "internalType": "address",
          "name": "newImplementation",
          "type": "address"
        },
        {
          "internalType": "bytes",
          "name": "data",
          "type": "bytes"
        }
      ],
      "name": "upgradeToAndCall",
      "outputs": [],
      "stateMutability": "payable",
      "type": "function"
    }
  ],
  "bytecode": {
    "object": "0x60a06040523060805234801561001457600080fd5b50608051611c3b61004c6000396000818161033d01528181610380015281816104280152818161046b01526105070152611c3b6000f3fe608060405260043610620000d25760003560e01c8063733fd3421162000089578063bc3ccf6d1162000060578063bc3ccf6d1462000165578063c0c53b8b1462000216578063c0f11bf7146200023b578063f2fde38b146200026057600080fd5b8063733fd34214620001b15780638da5cb5b14620001d65780639f997eb014620001f657600080fd5b80632c74084414620000d75780633659cfe614620000fe5780634f1ef286146200012357806352d1902d146200013a5780635c60da1b1462000165578063715018a61462000199575b600080fd5b348015620000e457600080fd5b50620000fc620000f636600462000fab565b62000285565b005b3480156200010b57600080fd5b50620000fc6200011d36600462000fab565b62000333565b620000fc6200013436600462000fdf565b6200041e565b3480156200014757600080fd5b5062000152620004fa565b6040519081526020015b60405180910390f35b3480156200017257600080fd5b5060ca546001600160a01b03165b6040516001600160a01b0390911681526020016200015c565b348015620001a657600080fd5b50620000fc620005b0565b348015620001be57600080fd5b5062000180620001d036600462000fab565b620005c8565b348015620001e357600080fd5b506033546001600160a01b031662000180565b3480156200020357600080fd5b5060c9546001600160a01b031662000180565b3480156200022357600080fd5b50620000fc62000235366004620010ad565b6200070f565b3480156200024857600080fd5b50620000fc6200025a36600462000fab565b6200094e565b3480156200026d57600080fd5b50620000fc6200027f36600462000fab565b620009f8565b6200028f62000a74565b6001600160a01b038116620003115760405162461bcd60e51b815260206004820152603b60248201527f7365745374616b696e6752656769737472793a3a5f7374616b696e675265676960448201527f737472792063616e6e6f74206265207a65726f2061646472657373000000000060648201526084015b60405180910390fd5b60c980546001600160a01b0319166001600160a01b0392909216919091179055565b6001600160a01b037f00000000000000000000000000000000000000000000000000000000000000001630036200037e5760405162461bcd60e51b81526004016200030890620010f7565b7f00000000000000000000000000000000000000000000000000000000000000006001600160a01b0316620003c960008051602062001bbf833981519152546001600160a01b031690565b6001600160a01b031614620003f25760405162461bcd60e51b8152600401620003089062001143565b620003fd8162000ad0565b604080516000808252602082019092526200041b9183919062000ada565b50565b6001600160a01b037f0000000000000000000000000000000000000000000000000000000000000000163003620004695760405162461bcd60e51b81526004016200030890620010f7565b7f00000000000000000000000000000000000000000000000000000000000000006001600160a01b0316620004b460008051602062001bbf833981519152546001600160a01b031690565b6001600160a01b031614620004dd5760405162461bcd60e51b8152600401620003089062001143565b620004e88262000ad0565b620004f68282600162000ada565b5050565b6000306001600160a01b037f000000000000000000000000000000000000000000000000000000000000000016146200059c5760405162461bcd60e51b815260206004820152603860248201527f555550535570677261646561626c653a206d757374206e6f742062652063616c60448201527f6c6564207468726f7567682064656c656761746563616c6c0000000000000000606482015260840162000308565b5060008051602062001bbf83398151915290565b620005ba62000a74565b620005c6600062000c57565b565b60006001600160a01b038216620006485760405162461bcd60e51b815260206004820152603860248201527f6465706c6f79526577617264537761703a3a5f7374616b696e6741646472657360448201527f732063616e6e6f74206265207a65726f20616464726573730000000000000000606482015260840162000308565b60c954604080516001600160a01b03928316602482015291841660448084019190915281518084039091018152606490920181526020820180516001600160e01b031663485cc95560e01b179052516000913091620006a79062000f80565b620006b4929190620011ec565b604051809103906000f080158015620006d1573d6000803e3d6000fd5b506040519091506001600160a01b038216907f46bcaddc4b315eb3afafbc7a854a62d892dcae7b985d18ccca7e1ea6f8ada36690600090a292915050565b600054610100900460ff1615808015620007305750600054600160ff909116105b806200074c5750303b1580156200074c575060005460ff166001145b620007b15760405162461bcd60e51b815260206004820152602e60248201527f496e697469616c697a61626c653a20636f6e747261637420697320616c72656160448201526d191e481a5b9a5d1a585b1a5e995960921b606482015260840162000308565b6000805460ff191660011790558015620007d5576000805461ff0019166101001790555b6001600160a01b038416620008495760405162461bcd60e51b815260206004820152603360248201527f696e697469616c697a653a3a5f7374616b696e6752656769737472792063616e6044820152726e6f74206265207a65726f206164647265737360681b606482015260840162000308565b6001600160a01b038316620008bc5760405162461bcd60e51b815260206004820152603260248201527f696e697469616c697a653a3a5f72657761726454656d706c6174652063616e6e6044820152716f74206265207a65726f206164647265737360701b606482015260840162000308565b60ca80546001600160a01b038086166001600160a01b03199283161790925560c9805492871692909116919091179055620008f662000ca9565b620009018262000c57565b801562000948576000805461ff0019169055604051600181527f7f26b83ff96e1f2b6a682f133852f6798a09c465da95921460cefb38474024989060200160405180910390a15b50505050565b6200095862000a74565b6001600160a01b038116620009d65760405162461bcd60e51b815260206004820152603d60248201527f7365745265776172645377617054656d706c6174653a3a5f726577617264546560448201527f6d706c6174652063616e6e6f74206265207a65726f2061646472657373000000606482015260840162000308565b60ca80546001600160a01b0319166001600160a01b0392909216919091179055565b62000a0262000a74565b6001600160a01b03811662000a695760405162461bcd60e51b815260206004820152602660248201527f4f776e61626c653a206e6577206f776e657220697320746865207a65726f206160448201526564647265737360d01b606482015260840162000308565b6200041b8162000c57565b6033546001600160a01b03163314620005c65760405162461bcd60e51b815260206004820181905260248201527f4f776e61626c653a2063616c6c6572206973206e6f7420746865206f776e6572604482015260640162000308565b6200041b62000a74565b7f4910fdfa16fed3260ed0e7147f7cc6da11a60208b5b9406d12a635614ffd91435460ff161562000b155762000b108362000cdd565b505050565b826001600160a01b03166352d1902d6040518163ffffffff1660e01b8152600401602060405180830381865afa92505050801562000b72575060408051601f3d908101601f1916820190925262000b6f9181019062001212565b60015b62000bd75760405162461bcd60e51b815260206004820152602e60248201527f45524331393637557067726164653a206e657720696d706c656d656e7461746960448201526d6f6e206973206e6f74205555505360901b606482015260840162000308565b60008051602062001bbf833981519152811462000c495760405162461bcd60e51b815260206004820152602960248201527f45524331393637557067726164653a20756e737570706f727465642070726f786044820152681a58589b195555525160ba1b606482015260840162000308565b5062000b1083838362000d7c565b603380546001600160a01b038381166001600160a01b0319831681179093556040519116919082907f8be0079c531659141344cd1fd0a4f28419497f9722a3daafe3b4186f6b6457e090600090a35050565b600054610100900460ff1662000cd35760405162461bcd60e51b815260040162000308906200122c565b620005c662000da7565b6001600160a01b0381163b62000d4c5760405162461bcd60e51b815260206004820152602d60248201527f455243313936373a206e657720696d706c656d656e746174696f6e206973206e60448201526c1bdd08184818dbdb9d1c9858dd609a1b606482015260840162000308565b60008051602062001bbf83398151915280546001600160a01b0319166001600160a01b0392909216919091179055565b62000d878362000ddc565b60008251118062000d955750805b1562000b105762000948838362000e1e565b600054610100900460ff1662000dd15760405162461bcd60e51b815260040162000308906200122c565b620005c63362000c57565b62000de78162000cdd565b6040516001600160a01b038216907fbc7cd75a20ee27fd9adebab32041f755214dbc6bffa90cc0225b39da2e5c2d3b90600090a250565b606062000e46838360405180606001604052806027815260200162001bdf6027913962000e4d565b9392505050565b6060600080856001600160a01b03168560405162000e6c919062001277565b600060405180830381855af49150503d806000811462000ea9576040519150601f19603f3d011682016040523d82523d6000602084013e62000eae565b606091505b509150915062000ec18683838762000ecb565b9695505050505050565b6060831562000f3f57825160000362000f37576001600160a01b0385163b62000f375760405162461bcd60e51b815260206004820152601d60248201527f416464726573733a2063616c6c20746f206e6f6e2d636f6e7472616374000000604482015260640162000308565b508162000f4b565b62000f4b838362000f53565b949350505050565b81511562000f645781518083602001fd5b8060405162461bcd60e51b815260040162000308919062001295565b61091480620012ab83390190565b80356001600160a01b038116811462000fa657600080fd5b919050565b60006020828403121562000fbe57600080fd5b62000e468262000f8e565b634e487b7160e01b600052604160045260246000fd5b6000806040838503121562000ff357600080fd5b62000ffe8362000f8e565b9150602083013567ffffffffffffffff808211156200101c57600080fd5b818501915085601f8301126200103157600080fd5b81358181111562001046576200104662000fc9565b604051601f8201601f19908116603f0116810190838211818310171562001071576200107162000fc9565b816040528281528860208487010111156200108b57600080fd5b8260208601602083013760006020848301015280955050505050509250929050565b600080600060608486031215620010c357600080fd5b620010ce8462000f8e565b9250620010de6020850162000f8e565b9150620010ee6040850162000f8e565b90509250925092565b6020808252602c908201527f46756e6374696f6e206d7573742062652063616c6c6564207468726f7567682060408201526b19195b1959d85d1958d85b1b60a21b606082015260800190565b6020808252602c908201527f46756e6374696f6e206d7573742062652063616c6c6564207468726f7567682060408201526b6163746976652070726f787960a01b606082015260800190565b60005b83811015620011ac57818101518382015260200162001192565b83811115620009485750506000910152565b60008151808452620011d88160208601602086016200118f565b601f01601f19169290920160200192915050565b6001600160a01b038316815260406020820181905260009062000f4b90830184620011be565b6000602082840312156200122557600080fd5b5051919050565b6020808252602b908201527f496e697469616c697a61626c653a20636f6e7472616374206973206e6f74206960408201526a6e697469616c697a696e6760a81b606082015260800190565b600082516200128b8184602087016200118f565b9190910192915050565b60208152600062000e466020830184620011be56fe608060405260405161091438038061091483398101604081905261002291610463565b61002e82826000610035565b505061058d565b61003e83610100565b6040516001600160a01b038416907f1cf3b03a6cf19fa2baba4df148e9dcabedea7f8a5c07840e207e5c089be95d3e90600090a260008251118061007f5750805b156100fb576100f9836001600160a01b0316635c60da1b6040518163ffffffff1660e01b8152600401602060405180830381865afa1580156100c5573d6000803e3d6000fd5b505050506040513d601f19601f820116820180604052508101906100e99190610523565b836102a360201b6100291760201c565b505b505050565b610113816102cf60201b6100551760201c565b6101725760405162461bcd60e51b815260206004820152602560248201527f455243313936373a206e657720626561636f6e206973206e6f74206120636f6e6044820152641d1c9858dd60da1b60648201526084015b60405180910390fd5b6101e6816001600160a01b0316635c60da1b6040518163ffffffff1660e01b8152600401602060405180830381865afa1580156101b3573d6000803e3d6000fd5b505050506040513d601f19601f820116820180604052508101906101d79190610523565b6102cf60201b6100551760201c565b61024b5760405162461bcd60e51b815260206004820152603060248201527f455243313936373a20626561636f6e20696d706c656d656e746174696f6e206960448201526f1cc81b9bdd08184818dbdb9d1c9858dd60821b6064820152608401610169565b806102827fa3f0ad74e5423aebfd80d3ef4346578335a9a72aeaee59ff6cb3582b35133d5060001b6102de60201b6100641760201c565b80546001600160a01b0319166001600160a01b039290921691909117905550565b60606102c883836040518060600160405280602781526020016108ed602791396102e1565b9392505050565b6001600160a01b03163b151590565b90565b6060600080856001600160a01b0316856040516102fe919061053e565b600060405180830381855af49150503d8060008114610339576040519150601f19603f3d011682016040523d82523d6000602084013e61033e565b606091505b5090925090506103508683838761035a565b9695505050505050565b606083156103c95782516000036103c2576001600160a01b0385163b6103c25760405162461bcd60e51b815260206004820152601d60248201527f416464726573733a2063616c6c20746f206e6f6e2d636f6e74726163740000006044820152606401610169565b50816103d3565b6103d383836103db565b949350505050565b8151156103eb5781518083602001fd5b8060405162461bcd60e51b8152600401610169919061055a565b80516001600160a01b038116811461041c57600080fd5b919050565b634e487b7160e01b600052604160045260246000fd5b60005b8381101561045257818101518382015260200161043a565b838111156100f95750506000910152565b6000806040838503121561047657600080fd5b61047f83610405565b60208401519092506001600160401b038082111561049c57600080fd5b818501915085601f8301126104b057600080fd5b8151818111156104c2576104c2610421565b604051601f8201601f19908116603f011681019083821181831017156104ea576104ea610421565b8160405282815288602084870101111561050357600080fd5b610514836020830160208801610437565b80955050505050509250929050565b60006020828403121561053557600080fd5b6102c882610405565b60008251610550818460208701610437565b9190910192915050565b6020815260008251806020840152610579816040850160208701610437565b601f01601f19169190910160400192915050565b6103518061059c6000396000f3fe60806040523661001357610011610017565b005b6100115b610027610022610067565b610100565b565b606061004e83836040518060600160405280602781526020016102f560279139610124565b9392505050565b6001600160a01b03163b151590565b90565b600061009a7fa3f0ad74e5423aebfd80d3ef4346578335a9a72aeaee59ff6cb3582b35133d50546001600160a01b031690565b6001600160a01b0316635c60da1b6040518163ffffffff1660e01b8152600401602060405180830381865afa1580156100d7573d6000803e3d6000fd5b505050506040513d601f19601f820116820180604052508101906100fb919061024c565b905090565b3660008037600080366000845af43d6000803e80801561011f573d6000f35b3d6000fd5b6060600080856001600160a01b03168560405161014191906102a5565b600060405180830381855af49150503d806000811461017c576040519150601f19603f3d011682016040523d82523d6000602084013e610181565b606091505b50915091506101928683838761019c565b9695505050505050565b60608315610210578251600003610209576001600160a01b0385163b6102095760405162461bcd60e51b815260206004820152601d60248201527f416464726573733a2063616c6c20746f206e6f6e2d636f6e747261637400000060448201526064015b60405180910390fd5b508161021a565b61021a8383610222565b949350505050565b8151156102325781518083602001fd5b8060405162461bcd60e51b815260040161020091906102c1565b60006020828403121561025e57600080fd5b81516001600160a01b038116811461004e57600080fd5b60005b83811015610290578181015183820152602001610278565b8381111561029f576000848401525b50505050565b600082516102b7818460208701610275565b9190910192915050565b60208152600082518060208401526102e0816040850160208701610275565b601f01601f1916919091016040019291505056fe416464726573733a206c6f772d6c6576656c2064656c65676174652063616c6c206661696c6564a264697066735822122052aa7b706638253994753d44b5f7903e95850a17bddcd3f1d819a939a9d1023f64736f6c634300080f0033416464726573733a206c6f772d6c6576656c2064656c65676174652063616c6c206661696c6564360894a13ba1a3210667c828492db98dca3e2076cc3735a920a3ca505d382bbc416464726573733a206c6f772d6c6576656c2064656c65676174652063616c6c206661696c6564a2646970667358221220e6cefc572354504845e5ae156099a860849e330bc5689e77e583d75fe228f19f64736f6c634300080f0033",
    "linkReferences": {}
  },
  "methodIdentifiers": {
    "deployRewardSwap(address)": "733fd342",
    "getRewardSwapTemplateAddress()": "bc3ccf6d",
    "getStakingRegistryAddress()": "9f997eb0",
    "implementation()": "5c60da1b",
    "initialize(address,address,address)": "c0c53b8b",
    "owner()": "8da5cb5b",
    "proxiableUUID()": "52d1902d",
    "renounceOwnership()": "715018a6",
    "setRewardSwapTemplate(address)": "c0f11bf7",
    "setStakingRegistry(address)": "2c740844",
    "transferOwnership(address)": "f2fde38b",
    "upgradeTo(address)": "3659cfe6",
    "upgradeToAndCall(address,bytes)": "4f1ef286"
  },
  "id": 110
}