{
  "abi": [
    {
      "inputs": [],
      "name": "CannotSwapRareForRare",
      "type": "error"
    },
    {
      "inputs": [],
      "name": "InsufficientFunds",
      "type": "error"
    },
    {
      "inputs": [],
      "name": "RarePriceTooLow",
      "type": "error"
    },
    {
      "inputs": [],
      "name": "Unauthorized",
      "type": "error"
    },
    {
      "inputs": [],
      "name": "UnsupportedERC20Token",
      "type": "error"
    },
    {
      "anonymous": false,
      "inputs": [
        {
          "indexed": false,
          "internalType": "uint8",
          "name": "version",
          "type": "uint8"
        }
      ],
      "name": "Initialized",
      "type": "event"
    },
    {
      "anonymous": false,
      "inputs": [
        {
          "indexed": true,
          "internalType": "address",
          "name": "_msgSender",
          "type": "address"
        },
        {
          "indexed": true,
          "internalType": "address",
          "name": "_tokenOut",
          "type": "address"
        },
        {
          "indexed": false,
          "internalType": "uint256",
          "name": "_amountOut",
          "type": "uint256"
        },
        {
          "indexed": false,
          "internalType": "uint256",
          "name": "_rareIn",
          "type": "uint256"
        }
      ],
      "name": "RewardAccumulator",
      "type": "event"
    },
    {
      "inputs": [
        {
          "internalType": "address",
          "name": "_tokenOut",
          "type": "address"
        },
        {
          "internalType": "uint128",
          "name": "_rareAmountIn",
          "type": "uint128"
        }
      ],
      "name": "estimateRarePrice",
      "outputs": [
        {
          "internalType": "uint256",
          "name": "",
          "type": "uint256"
        }
      ],
      "stateMutability": "view",
      "type": "function"
    },
    {
      "inputs": [
        {
          "internalType": "address",
          "name": "_stakingRegistry",
          "type": "address"
        },
        {
          "internalType": "address",
          "name": "_stakingPool",
          "type": "address"
        }
      ],
      "name": "initialize",
      "outputs": [],
      "stateMutability": "nonpayable",
      "type": "function"
    },
    {
      "inputs": [
        {
          "internalType": "address",
          "name": "_tokenOut",
          "type": "address"
        },
        {
          "internalType": "uint256",
          "name": "_minAmountOut",
          "type": "uint256"
        },
        {
          "internalType": "uint128",
          "name": "_rareIn",
          "type": "uint128"
        }
      ],
      "name": "rewardSwap",
      "outputs": [],
      "stateMutability": "nonpayable",
      "type": "function"
    },
    {
      "stateMutability": "payable",
      "type": "receive"
    }
  ],
  "bytecode": {
    "object": "0x608060405234801561001057600080fd5b506001600055611a31806100256000396000f3fe6080604052600436106100385760003560e01c8063442471f014610044578063485cc9551461007657806394a5a29d1461009857600080fd5b3661003f57005b600080fd5b34801561005057600080fd5b5061006461005f366004611539565b6100b8565b60405190815260200160405180910390f35b34801561008257600080fd5b5061009661009136600461156e565b6106c1565b005b3480156100a457600080fd5b506100966100b33660046115a7565b61080c565b600080600160029054906101000a90046001600160a01b03166001600160a01b03166323a7b42a6040518163ffffffff1660e01b8152600401602060405180830381865afa15801561010e573d6000803e3d6000fd5b505050506040513d601f19601f8201168201806040525081019061013291906115e5565b905060006001600160a01b0385161561014b578461014d565b815b6001546040516301cde7c760e11b81526001600160a01b038084166004830152929350600092620100009092049091169063039bcf8e90602401602060405180830381865afa1580156101a4573d6000803e3d6000fd5b505050506040513d601f19601f820116820180604052508101906101c891906115e5565b90506001600160a01b0381161580156101f35750826001600160a01b0316826001600160a01b031614155b15610211576040516305d6109b60e31b815260040160405180910390fd5b604080516002808252606082018352610708926000929190602083019080368337019050509050818160008151811061024c5761024c611618565b602002602001019063ffffffff16908163ffffffff168152505060008160018151811061027b5761027b611618565b63ffffffff9290921660209283029190910182015260015460408051632210d52560e01b81529051600093620100009093046001600160a01b03169263039bcf8e928492632210d525926004808401939192918290030181865afa1580156102e7573d6000803e3d6000fd5b505050506040513d601f19601f8201168201806040525081019061030b91906115e5565b6040516001600160e01b031960e084901b1681526001600160a01b039091166004820152602401602060405180830381865afa15801561034f573d6000803e3d6000fd5b505050506040513d601f19601f8201168201806040525081019061037391906115e5565b6001600160a01b031663883bdbfd836040518263ffffffff1660e01b815260040161039e919061162e565b600060405180830381865afa1580156103bb573d6000803e3d6000fd5b505050506040513d6000823e601f3d908101601f191682016040526103e39190810190611741565b5090506000816000815181106103fb576103fb611618565b60200260200101518260018151811061041657610416611618565b60200260200101516104289190611823565b9050600061043a600386900b83611889565b905060008260060b12801561045e5750610458600386900b836118c7565b60060b15155b15610471578061046d816118e9565b9150505b6000612710600160029054906101000a90046001600160a01b03166001600160a01b031663111029b96040518163ffffffff1660e01b8152600401602060405180830381865afa1580156104c9573d6000803e3d6000fd5b505050506040513d601f19601f820116820180604052508101906104ed919061190c565b6104f990612710611925565b61058c8461050f8f6001600160801b0316610c72565b600160029054906101000a90046001600160a01b03166001600160a01b0316632210d5256040518163ffffffff1660e01b8152600401602060405180830381865afa158015610562573d6000803e3d6000fd5b505050506040513d601f19601f8201168201806040525081019061058691906115e5565b8e610cdf565b610596919061193d565b6105a0919061195c565b9050886001600160a01b0316886001600160a01b0316036105cb5798506106bb975050505050505050565b60405163883bdbfd60e01b81526000906001600160a01b0389169063883bdbfd906105fa90899060040161162e565b600060405180830381865afa158015610617573d6000803e3d6000fd5b505050506040513d6000823e601f3d908101601f1916820160405261063f9190810190611741565b50905060008160008151811061065757610657611618565b60200260200101518260018151811061067257610672611618565b60200260200101516106849190611823565b9050600061069660038a900b83611889565b90506106ac816106a586610c72565b8e8e610cdf565b9c505050505050505050505050505b92915050565b600154610100900460ff16158080156106de57506001805460ff16105b806106f75750303b1580156106f757506001805460ff16145b61075f5760405162461bcd60e51b815260206004820152602e60248201527f496e697469616c697a61626c653a20636f6e747261637420697320616c72656160448201526d191e481a5b9a5d1a585b1a5e995960921b60648201526084015b60405180910390fd5b6001805460ff1916811790558015610781576001805461ff0019166101001790555b6001805462010000600160b01b031916620100006001600160a01b038681169190910291909117909155600280546001600160a01b0319169184169190911790558015610807576001805461ff00191681556040519081527f7f26b83ff96e1f2b6a682f133852f6798a09c465da95921460cefb38474024989060200160405180910390a15b505050565b610814610ded565b6000600160029054906101000a90046001600160a01b03166001600160a01b0316632210d5256040518163ffffffff1660e01b8152600401602060405180830381865afa158015610869573d6000803e3d6000fd5b505050506040513d601f19601f8201168201806040525081019061088d91906115e5565b6040516370a0823160e01b81523060048201529091506000906001600160a01b038316906370a0823190602401602060405180830381865afa1580156108d7573d6000803e3d6000fd5b505050506040513d601f19601f820116820180604052508101906108fb919061190c565b11156109e9576002546040516370a0823160e01b81523060048201526001600160a01b038381169263a9059cbb9291169083906370a0823190602401602060405180830381865afa158015610954573d6000803e3d6000fd5b505050506040513d601f19601f82011682018060405250810190610978919061190c565b6040516001600160e01b031960e085901b1681526001600160a01b03909216600483015260248201526044016020604051808303816000875af11580156109c3573d6000803e3d6000fd5b505050506040513d601f19601f820116820180604052508101906109e79190611970565b505b6001600160a01b0384161580156109ff57508247105b15610a1d5760405163356680b760e01b815260040160405180910390fd5b6001600160a01b03841615801590610a9c57506040516370a0823160e01b815230600482015283906001600160a01b038616906370a0823190602401602060405180830381865afa158015610a76573d6000803e3d6000fd5b505050506040513d601f19601f82011682018060405250810190610a9a919061190c565b105b15610aba5760405163356680b760e01b815260040160405180910390fd5b806001600160a01b0316846001600160a01b031603610aec57604051630cdece4960e21b815260040160405180910390fd5b6000610af885846100b8565b905083811015610b1b576040516390981e6d60e01b815260040160405180910390fd5b60025460405163a9fc507b60e01b81523360048201526001600160801b03851660248201526001600160a01b039091169063a9fc507b90604401600060405180830381600087803b158015610b6f57600080fd5b505af1158015610b83573d6000803e3d6000fd5b5050506001600160a01b0386169050610ba557610ba03382610e46565b610c18565b60405163a9059cbb60e01b8152336004820152602481018290526001600160a01b0386169063a9059cbb906044016020604051808303816000875af1158015610bf2573d6000803e3d6000fd5b505050506040513d601f19601f82011682018060405250810190610c169190611970565b505b604080518281526001600160801b03851660208201526001600160a01b0387169133917ffde313859edf8a78b1e1c10c6dbe0584a219be6af8d4914fdb85486523103397910160405180910390a350506108076001600055565b60006001600160801b03821115610cdb5760405162461bcd60e51b815260206004820152602760248201527f53616665436173743a2076616c756520646f65736e27742066697420696e20316044820152663238206269747360c81b6064820152608401610756565b5090565b600080610ceb86610f5f565b90506001600160801b036001600160a01b03821611610d71576000610d196001600160a01b0383168061193d565b9050836001600160a01b0316856001600160a01b031610610d5157610d4c600160c01b876001600160801b03168361137f565b610d69565b610d6981876001600160801b0316600160c01b61137f565b925050610de4565b6000610d906001600160a01b038316806801000000000000000061137f565b9050836001600160a01b0316856001600160a01b031610610dc857610dc3600160801b876001600160801b03168361137f565b610de0565b610de081876001600160801b0316600160801b61137f565b9250505b50949350505050565b600260005403610e3f5760405162461bcd60e51b815260206004820152601f60248201527f5265656e7472616e637947756172643a207265656e7472616e742063616c6c006044820152606401610756565b6002600055565b80471015610e965760405162461bcd60e51b815260206004820152601d60248201527f416464726573733a20696e73756666696369656e742062616c616e63650000006044820152606401610756565b6000826001600160a01b03168260405160006040518083038185875af1925050503d8060008114610ee3576040519150601f19603f3d011682016040523d82523d6000602084013e610ee8565b606091505b50509050806108075760405162461bcd60e51b815260206004820152603a60248201527f416464726573733a20756e61626c6520746f2073656e642076616c75652c207260448201527f6563697069656e74206d617920686176652072657665727465640000000000006064820152608401610756565b60008060008360020b12610f76578260020b610f83565b8260020b610f8390611992565b9050610f92620d89e7196119ae565b60020b811115610fc85760405162461bcd60e51b81526020600482015260016024820152601560fa1b6044820152606401610756565b600081600116600003610fdf57600160801b610ff1565b6ffffcb933bd6fad37aa2d162d1a5940015b70ffffffffffffffffffffffffffffffffff169050600282161561103057608061102b826ffff97272373d413259a46990580e213a61193d565b901c90505b600482161561105a576080611055826ffff2e50f5f656932ef12357cf3c7fdcc61193d565b901c90505b600882161561108457608061107f826fffe5caca7e10e4e61c3624eaa0941cd061193d565b901c90505b60108216156110ae5760806110a9826fffcb9843d60f6159c9db58835c92664461193d565b901c90505b60208216156110d85760806110d3826fff973b41fa98c081472e6896dfb254c061193d565b901c90505b60408216156111025760806110fd826fff2ea16466c96a3843ec78b326b5286161193d565b901c90505b608082161561112c576080611127826ffe5dee046a99a2a811c461f1969c305361193d565b901c90505b610100821615611157576080611152826ffcbe86c7900a88aedcffc83b479aa3a461193d565b901c90505b61020082161561118257608061117d826ff987a7253ac413176f2b074cf7815e5461193d565b901c90505b6104008216156111ad5760806111a8826ff3392b0822b70005940c7a398e4b70f361193d565b901c90505b6108008216156111d85760806111d3826fe7159475a2c29b7443b29c7fa6e889d961193d565b901c90505b6110008216156112035760806111fe826fd097f3bdfd2022b8845ad8f792aa582561193d565b901c90505b61200082161561122e576080611229826fa9f746462d870fdf8a65dc1f90e061e561193d565b901c90505b614000821615611259576080611254826f70d869a156d2a1b890bb3df62baf32f761193d565b901c90505b61800082161561128457608061127f826f31be135f97d08fd981231505542fcfa661193d565b901c90505b620100008216156112b05760806112ab826f09aa508b5b7a84e1c677de54f3e99bc961193d565b901c90505b620200008216156112db5760806112d6826e5d6af8dedb81196699c329225ee60461193d565b901c90505b62040000821615611305576080611300826d2216e584f5fa1ea926041bedfe9861193d565b901c90505b6208000082161561132d576080611328826b048a170391f7dc42444e8fa261193d565b901c90505b60008460020b1315611348576113458160001961195c565b90505b611357640100000000826119d0565b15611363576001611366565b60005b6113779060ff16602083901c611925565b949350505050565b60008080600019858709858702925082811083820303915050806000036113b857600084116113ad57600080fd5b5082900490506114fe565b8084116113c457600080fd5b6000848688098084039381119092039190506000856113e5816000196119e4565b6113f0906001611925565b16958690049593849004936000819003046001019050611410818461193d565b90931792600061142187600361193d565b6002189050611430818861193d565b61143b9060026119e4565b611445908261193d565b9050611451818861193d565b61145c9060026119e4565b611466908261193d565b9050611472818861193d565b61147d9060026119e4565b611487908261193d565b9050611493818861193d565b61149e9060026119e4565b6114a8908261193d565b90506114b4818861193d565b6114bf9060026119e4565b6114c9908261193d565b90506114d5818861193d565b6114e09060026119e4565b6114ea908261193d565b90506114f6818661193d565b955050505050505b9392505050565b6001600160a01b038116811461151a57600080fd5b50565b80356001600160801b038116811461153457600080fd5b919050565b6000806040838503121561154c57600080fd5b823561155781611505565b91506115656020840161151d565b90509250929050565b6000806040838503121561158157600080fd5b823561158c81611505565b9150602083013561159c81611505565b809150509250929050565b6000806000606084860312156115bc57600080fd5b83356115c781611505565b9250602084013591506115dc6040850161151d565b90509250925092565b6000602082840312156115f757600080fd5b81516114fe81611505565b634e487b7160e01b600052604160045260246000fd5b634e487b7160e01b600052603260045260246000fd5b6020808252825182820181905260009190848201906040850190845b8181101561166c57835163ffffffff168352928401929184019160010161164a565b50909695505050505050565b604051601f8201601f1916810167ffffffffffffffff811182821017156116a1576116a1611602565b604052919050565b600067ffffffffffffffff8211156116c3576116c3611602565b5060051b60200190565b600082601f8301126116de57600080fd5b815160206116f36116ee836116a9565b611678565b82815260059290921b8401810191818101908684111561171257600080fd5b8286015b8481101561173657805161172981611505565b8352918301918301611716565b509695505050505050565b6000806040838503121561175457600080fd5b825167ffffffffffffffff8082111561176c57600080fd5b818501915085601f83011261178057600080fd5b815160206117906116ee836116a9565b82815260059290921b840181019181810190898411156117af57600080fd5b948201945b838610156117dd5785518060060b81146117ce5760008081fd5b825294820194908201906117b4565b918801519196509093505050808211156117f657600080fd5b50611803858286016116cd565b9150509250929050565b634e487b7160e01b600052601160045260246000fd5b60008160060b8360060b6000811281667fffffffffffff190183128115161561184e5761184e61180d565b81667fffffffffffff0183138116156118695761186961180d565b5090039392505050565b634e487b7160e01b600052601260045260246000fd5b60008160060b8360060b806118a0576118a0611873565b667fffffffffffff198214600019821416156118be576118be61180d565b90059392505050565b60008260060b806118da576118da611873565b808360060b0791505092915050565b60008160020b627fffff1981036119025761190261180d565b6000190192915050565b60006020828403121561191e57600080fd5b5051919050565b600082198211156119385761193861180d565b500190565b60008160001904831182151516156119575761195761180d565b500290565b60008261196b5761196b611873565b500490565b60006020828403121561198257600080fd5b815180151581146114fe57600080fd5b6000600160ff1b82016119a7576119a761180d565b5060000390565b60008160020b627fffff1981036119c7576119c761180d565b60000392915050565b6000826119df576119df611873565b500690565b6000828210156119f6576119f661180d565b50039056fea2646970667358221220916e69106474dc3ee8bf78da28a98cf65d53769f9dfcdc8c2750791924290f5364736f6c634300080f0033",
    "linkReferences": {}
  },
  "methodIdentifiers": {
    "estimateRarePrice(address,uint128)": "442471f0",
    "initialize(address,address)": "485cc955",
    "rewardSwap(address,uint256,uint128)": "94a5a29d"
  },
  "id": 114
}