{
  "abi": [
    {
      "inputs": [],
      "stateMutability": "nonpayable",
      "type": "constructor"
    },
    {
      "inputs": [],
      "name": "ZeroAddressUnsupported",
      "type": "error"
    },
    {
      "anonymous": false,
      "inputs": [
        {
          "indexed": false,
          "internalType": "address",
          "name": "previousAdmin",
          "type": "address"
        },
        {
          "indexed": false,
          "internalType": "address",
          "name": "newAdmin",
          "type": "address"
        }
      ],
      "name": "AdminChanged",
      "type": "event"
    },
    {
      "anonymous": false,
      "inputs": [
        {
          "indexed": true,
          "internalType": "address",
          "name": "beacon",
          "type": "address"
        }
      ],
      "name": "BeaconUpgraded",
      "type": "event"
    },
    {
      "anonymous": false,
      "inputs": [
        {
          "indexed": false,
          "internalType": "uint8",
          "name": "version",
          "type": "uint8"
        }
      ],
      "name": "Initialized",
      "type": "event"
    },
    {
      "anonymous": false,
      "inputs": [
        {
          "indexed": true,
          "internalType": "address",
          "name": "previousOwner",
          "type": "address"
        },
        {
          "indexed": true,
          "internalType": "address",
          "name": "newOwner",
          "type": "address"
        }
      ],
      "name": "OwnershipTransferStarted",
      "type": "event"
    },
    {
      "anonymous": false,
      "inputs": [
        {
          "indexed": true,
          "internalType": "address",
          "name": "previousOwner",
          "type": "address"
        },
        {
          "indexed": true,
          "internalType": "address",
          "name": "newOwner",
          "type": "address"
        }
      ],
      "name": "OwnershipTransferred",
      "type": "event"
    },
    {
      "anonymous": false,
      "inputs": [
        {
          "indexed": true,
          "internalType": "address",
          "name": "rewardTemplate",
          "type": "address"
        }
      ],
      "name": "RewardAccumulatorTemplateUpdated",
      "type": "event"
    },
    {
      "anonymous": false,
      "inputs": [
        {
          "indexed": true,
          "internalType": "address",
          "name": "_stakingAddress",
          "type": "address"
        }
      ],
      "name": "RewardSwapContractCreated",
      "type": "event"
    },
    {
      "anonymous": false,
      "inputs": [
        {
          "indexed": true,
          "internalType": "address",
          "name": "implementation",
          "type": "address"
        }
      ],
      "name": "Upgraded",
      "type": "event"
    },
    {
      "inputs": [],
      "name": "acceptOwnership",
      "outputs": [],
      "stateMutability": "nonpayable",
      "type": "function"
    },
    {
      "inputs": [
        {
          "internalType": "address",
          "name": "_stakingAddress",
          "type": "address"
        }
      ],
      "name": "deployRewardSwap",
      "outputs": [
        {
          "internalType": "address payable",
          "name": "",
          "type": "address"
        }
      ],
      "stateMutability": "nonpayable",
      "type": "function"
    },
    {
      "inputs": [],
      "name": "getRewardSwapTemplateAddress",
      "outputs": [
        {
          "internalType": "address",
          "name": "",
          "type": "address"
        }
      ],
      "stateMutability": "view",
      "type": "function"
    },
    {
      "inputs": [],
      "name": "implementation",
      "outputs": [
        {
          "internalType": "address",
          "name": "",
          "type": "address"
        }
      ],
      "stateMutability": "view",
      "type": "function"
    },
    {
      "inputs": [
        {
          "internalType": "address",
          "name": "_rewardTemplate",
          "type": "address"
        },
        {
          "internalType": "address",
          "name": "_newOwner",
          "type": "address"
        }
      ],
      "name": "initialize",
      "outputs": [],
      "stateMutability": "nonpayable",
      "type": "function"
    },
    {
      "inputs": [],
      "name": "owner",
      "outputs": [
        {
          "internalType": "address",
          "name": "",
          "type": "address"
        }
      ],
      "stateMutability": "view",
      "type": "function"
    },
    {
      "inputs": [],
      "name": "pendingOwner",
      "outputs": [
        {
          "internalType": "address",
          "name": "",
          "type": "address"
        }
      ],
      "stateMutability": "view",
      "type": "function"
    },
    {
      "inputs": [],
      "name": "proxiableUUID",
      "outputs": [
        {
          "internalType": "bytes32",
          "name": "",
          "type": "bytes32"
        }
      ],
      "stateMutability": "view",
      "type": "function"
    },
    {
      "inputs": [],
      "name": "renounceOwnership",
      "outputs": [],
      "stateMutability": "nonpayable",
      "type": "function"
    },
    {
      "inputs": [
        {
          "internalType": "address",
          "name": "_rewardTemplate",
          "type": "address"
        }
      ],
      "name": "setRewardAccumulatorTemplate",
      "outputs": [],
      "stateMutability": "nonpayable",
      "type": "function"
    },
    {
      "inputs": [
        {
          "internalType": "address",
          "name": "newOwner",
          "type": "address"
        }
      ],
      "name": "transferOwnership",
      "outputs": [],
      "stateMutability": "nonpayable",
      "type": "function"
    },
    {
      "inputs": [
        {
          "internalType": "address",
          "name": "newImplementation",
          "type": "address"
        }
      ],
      "name": "upgradeTo",
      "outputs": [],
      "stateMutability": "nonpayable",
      "type": "function"
    },
    {
      "inputs": [
        {
          "internalType": "address",
          "name": "newImplementation",
          "type": "address"
        },
        {
          "internalType": "bytes",
          "name": "data",
          "type": "bytes"
        }
      ],
      "name": "upgradeToAndCall",
      "outputs": [],
      "stateMutability": "payable",
      "type": "function"
    }
  ],
  "bytecode": {
    "object": "0x60a06040523060805234801561001457600080fd5b5061001d610022565b6100e1565b600054610100900460ff161561008e5760405162461bcd60e51b815260206004820152602760248201527f496e697469616c697a61626c653a20636f6e747261637420697320696e697469604482015266616c697a696e6760c81b606482015260840160405180910390fd5b60005460ff908116146100df576000805460ff191660ff9081179091556040519081527f7f26b83ff96e1f2b6a682f133852f6798a09c465da95921460cefb38474024989060200160405180910390a15b565b608051611b0961011860003960008181610282015281816102ce015281816105120152818161055501526105f10152611b096000f3fe608060405260043610620000d25760003560e01c8063733fd34211620000895780638da5cb5b11620000605780638da5cb5b1462000213578063bc3ccf6d1462000165578063e30c39781462000233578063f2fde38b146200025357600080fd5b8063733fd34214620001b157806379ba509714620001d65780637bd5029d14620001ee57600080fd5b80633659cfe614620000d7578063485cc95514620000fe5780634f1ef286146200012357806352d1902d146200013a5780635c60da1b1462000165578063715018a61462000199575b600080fd5b348015620000e457600080fd5b50620000fc620000f636600462000ea8565b62000278565b005b3480156200010b57600080fd5b50620000fc6200011d36600462000ec6565b6200036c565b620000fc6200013436600462000f14565b62000508565b3480156200014757600080fd5b5062000152620005e4565b6040519081526020015b60405180910390f35b3480156200017257600080fd5b5060fb546001600160a01b03165b6040516001600160a01b0390911681526020016200015c565b348015620001a657600080fd5b50620000fc6200069a565b348015620001be57600080fd5b5062000180620001d036600462000ea8565b620006b2565b348015620001e357600080fd5b50620000fc62000798565b348015620001fb57600080fd5b50620000fc6200020d36600462000ea8565b62000813565b3480156200022057600080fd5b506033546001600160a01b031662000180565b3480156200024057600080fd5b506065546001600160a01b031662000180565b3480156200026057600080fd5b50620000fc6200027236600462000ea8565b6200088f565b6001600160a01b037f0000000000000000000000000000000000000000000000000000000000000000163003620002cc5760405162461bcd60e51b8152600401620002c39062000fe2565b60405180910390fd5b7f00000000000000000000000000000000000000000000000000000000000000006001600160a01b03166200031760008051602062001a8d833981519152546001600160a01b031690565b6001600160a01b031614620003405760405162461bcd60e51b8152600401620002c3906200102e565b6200034b8162000903565b60408051600080825260208201909252620003699183919062000935565b50565b600054610100900460ff16158080156200038d5750600054600160ff909116105b80620003a95750303b158015620003a9575060005460ff166001145b6200040e5760405162461bcd60e51b815260206004820152602e60248201527f496e697469616c697a61626c653a20636f6e747261637420697320616c72656160448201526d191e481a5b9a5d1a585b1a5e995960921b6064820152608401620002c3565b6000805460ff19166001179055801562000432576000805461ff0019166101001790555b6001600160a01b0383166200045a57604051637827912560e01b815260040160405180910390fd5b6001600160a01b0382166200048257604051637827912560e01b815260040160405180910390fd5b60fb80546001600160a01b0319166001600160a01b038516179055620004a762000aad565b620004b162000ae1565b620004bc8262000b0b565b801562000503576000805461ff0019169055604051600181527f7f26b83ff96e1f2b6a682f133852f6798a09c465da95921460cefb38474024989060200160405180910390a15b505050565b6001600160a01b037f0000000000000000000000000000000000000000000000000000000000000000163003620005535760405162461bcd60e51b8152600401620002c39062000fe2565b7f00000000000000000000000000000000000000000000000000000000000000006001600160a01b03166200059e60008051602062001a8d833981519152546001600160a01b031690565b6001600160a01b031614620005c75760405162461bcd60e51b8152600401620002c3906200102e565b620005d28262000903565b620005e08282600162000935565b5050565b6000306001600160a01b037f00000000000000000000000000000000000000000000000000000000000000001614620006865760405162461bcd60e51b815260206004820152603860248201527f555550535570677261646561626c653a206d757374206e6f742062652063616c60448201527f6c6564207468726f7567682064656c656761746563616c6c00000000000000006064820152608401620002c3565b5060008051602062001a8d83398151915290565b620006a462000b26565b620006b0600062000b0b565b565b60006001600160a01b038216620006dc57604051637827912560e01b815260040160405180910390fd5b604080516001600160a01b03841660248083019190915282518083039091018152604490910182526020810180516001600160e01b031663189acdbd60e31b17905290516000913091620007309062000e7d565b6200073d929190620010ce565b604051809103906000f0801580156200075a573d6000803e3d6000fd5b506040519091506001600160a01b038216907f46bcaddc4b315eb3afafbc7a854a62d892dcae7b985d18ccca7e1ea6f8ada36690600090a292915050565b60655433906001600160a01b03168114620008085760405162461bcd60e51b815260206004820152602960248201527f4f776e61626c6532537465703a2063616c6c6572206973206e6f7420746865206044820152683732bb9037bbb732b960b91b6064820152608401620002c3565b620003698162000b0b565b6200081d62000b26565b6001600160a01b0381166200084557604051637827912560e01b815260040160405180910390fd5b60fb80546001600160a01b0319166001600160a01b0383169081179091556040517ff554442e70ba202738fe077c8f4e40b64121198a4aa620c00a9e0853bef257de90600090a250565b6200089962000b26565b606580546001600160a01b0383166001600160a01b03199091168117909155620008cb6033546001600160a01b031690565b6001600160a01b03167f38d16b8cac22d99fc7c124b9cd0de2d3fa1faef420bfe791d8c362d765e2270060405160405180910390a350565b6200090d62000b26565b6001600160a01b0381166200036957604051637827912560e01b815260040160405180910390fd5b7f4910fdfa16fed3260ed0e7147f7cc6da11a60208b5b9406d12a635614ffd91435460ff16156200096b57620005038362000b82565b826001600160a01b03166352d1902d6040518163ffffffff1660e01b8152600401602060405180830381865afa925050508015620009c8575060408051601f3d908101601f19168201909252620009c591810190620010f4565b60015b62000a2d5760405162461bcd60e51b815260206004820152602e60248201527f45524331393637557067726164653a206e657720696d706c656d656e7461746960448201526d6f6e206973206e6f74205555505360901b6064820152608401620002c3565b60008051602062001a8d833981519152811462000a9f5760405162461bcd60e51b815260206004820152602960248201527f45524331393637557067726164653a20756e737570706f727465642070726f786044820152681a58589b195555525160ba1b6064820152608401620002c3565b506200050383838362000c21565b600054610100900460ff1662000ad75760405162461bcd60e51b8152600401620002c3906200110e565b620006b062000c52565b600054610100900460ff16620006b05760405162461bcd60e51b8152600401620002c3906200110e565b606580546001600160a01b0319169055620003698162000c87565b6033546001600160a01b03163314620006b05760405162461bcd60e51b815260206004820181905260248201527f4f776e61626c653a2063616c6c6572206973206e6f7420746865206f776e65726044820152606401620002c3565b6001600160a01b0381163b62000bf15760405162461bcd60e51b815260206004820152602d60248201527f455243313936373a206e657720696d706c656d656e746174696f6e206973206e60448201526c1bdd08184818dbdb9d1c9858dd609a1b6064820152608401620002c3565b60008051602062001a8d83398151915280546001600160a01b0319166001600160a01b0392909216919091179055565b62000c2c8362000cd9565b60008251118062000c3a5750805b15620005035762000c4c838362000d1b565b50505050565b600054610100900460ff1662000c7c5760405162461bcd60e51b8152600401620002c3906200110e565b620006b03362000b0b565b603380546001600160a01b038381166001600160a01b0319831681179093556040519116919082907f8be0079c531659141344cd1fd0a4f28419497f9722a3daafe3b4186f6b6457e090600090a35050565b62000ce48162000b82565b6040516001600160a01b038216907fbc7cd75a20ee27fd9adebab32041f755214dbc6bffa90cc0225b39da2e5c2d3b90600090a250565b606062000d43838360405180606001604052806027815260200162001aad6027913962000d4a565b9392505050565b6060600080856001600160a01b03168560405162000d69919062001159565b600060405180830381855af49150503d806000811462000da6576040519150601f19603f3d011682016040523d82523d6000602084013e62000dab565b606091505b509150915062000dbe8683838762000dc8565b9695505050505050565b6060831562000e3c57825160000362000e34576001600160a01b0385163b62000e345760405162461bcd60e51b815260206004820152601d60248201527f416464726573733a2063616c6c20746f206e6f6e2d636f6e74726163740000006044820152606401620002c3565b508162000e48565b62000e48838362000e50565b949350505050565b81511562000e615781518083602001fd5b8060405162461bcd60e51b8152600401620002c3919062001177565b610900806200118d83390190565b80356001600160a01b038116811462000ea357600080fd5b919050565b60006020828403121562000ebb57600080fd5b62000d438262000e8b565b6000806040838503121562000eda57600080fd5b62000ee58362000e8b565b915062000ef56020840162000e8b565b90509250929050565b634e487b7160e01b600052604160045260246000fd5b6000806040838503121562000f2857600080fd5b62000f338362000e8b565b9150602083013567ffffffffffffffff8082111562000f5157600080fd5b818501915085601f83011262000f6657600080fd5b81358181111562000f7b5762000f7b62000efe565b604051601f8201601f19908116603f0116810190838211818310171562000fa65762000fa662000efe565b8160405282815288602084870101111562000fc057600080fd5b8260208601602083013760006020848301015280955050505050509250929050565b6020808252602c908201527f46756e6374696f6e206d7573742062652063616c6c6564207468726f7567682060408201526b19195b1959d85d1958d85b1b60a21b606082015260800190565b6020808252602c908201527f46756e6374696f6e206d7573742062652063616c6c6564207468726f7567682060408201526b6163746976652070726f787960a01b606082015260800190565b60005b83811015620010975781810151838201526020016200107d565b50506000910152565b60008151808452620010ba8160208601602086016200107a565b601f01601f19169290920160200192915050565b6001600160a01b038316815260406020820181905260009062000e4890830184620010a0565b6000602082840312156200110757600080fd5b5051919050565b6020808252602b908201527f496e697469616c697a61626c653a20636f6e7472616374206973206e6f74206960408201526a6e697469616c697a696e6760a81b606082015260800190565b600082516200116d8184602087016200107a565b9190910192915050565b60208152600062000d436020830184620010a056fe60806040526040516109003803806109008339810160408190526100229161045b565b61002e82826000610035565b5050610585565b61003e83610100565b6040516001600160a01b038416907f1cf3b03a6cf19fa2baba4df148e9dcabedea7f8a5c07840e207e5c089be95d3e90600090a260008251118061007f5750805b156100fb576100f9836001600160a01b0316635c60da1b6040518163ffffffff1660e01b8152600401602060405180830381865afa1580156100c5573d6000803e3d6000fd5b505050506040513d601f19601f820116820180604052508101906100e9919061051b565b836102a360201b6100291760201c565b505b505050565b610113816102cf60201b6100551760201c565b6101725760405162461bcd60e51b815260206004820152602560248201527f455243313936373a206e657720626561636f6e206973206e6f74206120636f6e6044820152641d1c9858dd60da1b60648201526084015b60405180910390fd5b6101e6816001600160a01b0316635c60da1b6040518163ffffffff1660e01b8152600401602060405180830381865afa1580156101b3573d6000803e3d6000fd5b505050506040513d601f19601f820116820180604052508101906101d7919061051b565b6102cf60201b6100551760201c565b61024b5760405162461bcd60e51b815260206004820152603060248201527f455243313936373a20626561636f6e20696d706c656d656e746174696f6e206960448201526f1cc81b9bdd08184818dbdb9d1c9858dd60821b6064820152608401610169565b806102827fa3f0ad74e5423aebfd80d3ef4346578335a9a72aeaee59ff6cb3582b35133d5060001b6102de60201b6100641760201c565b80546001600160a01b0319166001600160a01b039290921691909117905550565b60606102c883836040518060600160405280602781526020016108d9602791396102e1565b9392505050565b6001600160a01b03163b151590565b90565b6060600080856001600160a01b0316856040516102fe9190610536565b600060405180830381855af49150503d8060008114610339576040519150601f19603f3d011682016040523d82523d6000602084013e61033e565b606091505b5090925090506103508683838761035a565b9695505050505050565b606083156103c95782516000036103c2576001600160a01b0385163b6103c25760405162461bcd60e51b815260206004820152601d60248201527f416464726573733a2063616c6c20746f206e6f6e2d636f6e74726163740000006044820152606401610169565b50816103d3565b6103d383836103db565b949350505050565b8151156103eb5781518083602001fd5b8060405162461bcd60e51b81526004016101699190610552565b80516001600160a01b038116811461041c57600080fd5b919050565b634e487b7160e01b600052604160045260246000fd5b60005b8381101561045257818101518382015260200161043a565b50506000910152565b6000806040838503121561046e57600080fd5b61047783610405565b60208401519092506001600160401b038082111561049457600080fd5b818501915085601f8301126104a857600080fd5b8151818111156104ba576104ba610421565b604051601f8201601f19908116603f011681019083821181831017156104e2576104e2610421565b816040528281528860208487010111156104fb57600080fd5b61050c836020830160208801610437565b80955050505050509250929050565b60006020828403121561052d57600080fd5b6102c882610405565b60008251610548818460208701610437565b9190910192915050565b6020815260008251806020840152610571816040850160208701610437565b601f01601f19169190910160400192915050565b610345806105946000396000f3fe60806040523661001357610011610017565b005b6100115b610027610022610067565b610100565b565b606061004e83836040518060600160405280602781526020016102e960279139610124565b9392505050565b6001600160a01b03163b151590565b90565b600061009a7fa3f0ad74e5423aebfd80d3ef4346578335a9a72aeaee59ff6cb3582b35133d50546001600160a01b031690565b6001600160a01b0316635c60da1b6040518163ffffffff1660e01b8152600401602060405180830381865afa1580156100d7573d6000803e3d6000fd5b505050506040513d601f19601f820116820180604052508101906100fb919061024c565b905090565b3660008037600080366000845af43d6000803e80801561011f573d6000f35b3d6000fd5b6060600080856001600160a01b0316856040516101419190610299565b600060405180830381855af49150503d806000811461017c576040519150601f19603f3d011682016040523d82523d6000602084013e610181565b606091505b50915091506101928683838761019c565b9695505050505050565b60608315610210578251600003610209576001600160a01b0385163b6102095760405162461bcd60e51b815260206004820152601d60248201527f416464726573733a2063616c6c20746f206e6f6e2d636f6e747261637400000060448201526064015b60405180910390fd5b508161021a565b61021a8383610222565b949350505050565b8151156102325781518083602001fd5b8060405162461bcd60e51b815260040161020091906102b5565b60006020828403121561025e57600080fd5b81516001600160a01b038116811461004e57600080fd5b60005b83811015610290578181015183820152602001610278565b50506000910152565b600082516102ab818460208701610275565b9190910192915050565b60208152600082518060208401526102d4816040850160208701610275565b601f01601f1916919091016040019291505056fe416464726573733a206c6f772d6c6576656c2064656c65676174652063616c6c206661696c6564a26469706673582212207069cec73b20ad8e8ba98957b0265504213aeedde496b709890241873a5a162964736f6c63430008120033416464726573733a206c6f772d6c6576656c2064656c65676174652063616c6c206661696c6564360894a13ba1a3210667c828492db98dca3e2076cc3735a920a3ca505d382bbc416464726573733a206c6f772d6c6576656c2064656c65676174652063616c6c206661696c6564a2646970667358221220dd340b3e1d2ce881ac8c27df628e8badc64243b0f88b47d6282b382082f0e0cb64736f6c63430008120033",
    "linkReferences": {}
  },
  "methodIdentifiers": {
    "acceptOwnership()": "79ba5097",
    "deployRewardSwap(address)": "733fd342",
    "getRewardSwapTemplateAddress()": "bc3ccf6d",
    "implementation()": "5c60da1b",
    "initialize(address,address)": "485cc955",
    "owner()": "8da5cb5b",
    "pendingOwner()": "e30c3978",
    "proxiableUUID()": "52d1902d",
    "renounceOwnership()": "715018a6",
    "setRewardAccumulatorTemplate(address)": "7bd5029d",
    "transferOwnership(address)": "f2fde38b",
    "upgradeTo(address)": "3659cfe6",
    "upgradeToAndCall(address,bytes)": "4f1ef286"
  },
  "id": 109
}