{
  "abi": [
    {
      "inputs": [],
      "stateMutability": "nonpayable",
      "type": "constructor"
    },
    {
      "inputs": [],
      "name": "CannotSwapRareForRare",
      "type": "error"
    },
    {
      "inputs": [],
      "name": "InsufficientFunds",
      "type": "error"
    },
    {
      "inputs": [],
      "name": "ParameterValueTooLow",
      "type": "error"
    },
    {
      "inputs": [],
      "name": "RarePriceTooLow",
      "type": "error"
    },
    {
      "inputs": [],
      "name": "Unauthorized",
      "type": "error"
    },
    {
      "inputs": [],
      "name": "UnsupportedERC20Token",
      "type": "error"
    },
    {
      "anonymous": false,
      "inputs": [
        {
          "indexed": false,
          "internalType": "uint8",
          "name": "version",
          "type": "uint8"
        }
      ],
      "name": "Initialized",
      "type": "event"
    },
    {
      "anonymous": false,
      "inputs": [
        {
          "indexed": true,
          "internalType": "address",
          "name": "_msgSender",
          "type": "address"
        },
        {
          "indexed": true,
          "internalType": "address",
          "name": "_tokenOut",
          "type": "address"
        },
        {
          "indexed": false,
          "internalType": "uint256",
          "name": "_amountOut",
          "type": "uint256"
        },
        {
          "indexed": false,
          "internalType": "uint256",
          "name": "_rareIn",
          "type": "uint256"
        }
      ],
      "name": "RewardAccumulator",
      "type": "event"
    },
    {
      "inputs": [
        {
          "internalType": "address",
          "name": "_tokenOut",
          "type": "address"
        },
        {
          "internalType": "uint128",
          "name": "_rareAmountIn",
          "type": "uint128"
        }
      ],
      "name": "estimateRarePrice",
      "outputs": [
        {
          "internalType": "uint256",
          "name": "",
          "type": "uint256"
        }
      ],
      "stateMutability": "view",
      "type": "function"
    },
    {
      "inputs": [
        {
          "internalType": "address",
          "name": "_stakingPool",
          "type": "address"
        }
      ],
      "name": "initialize",
      "outputs": [],
      "stateMutability": "nonpayable",
      "type": "function"
    },
    {
      "inputs": [
        {
          "internalType": "address",
          "name": "_tokenOut",
          "type": "address"
        },
        {
          "internalType": "uint256",
          "name": "_minAmountOut",
          "type": "uint256"
        },
        {
          "internalType": "uint128",
          "name": "_rareIn",
          "type": "uint128"
        }
      ],
      "name": "rewardSwap",
      "outputs": [],
      "stateMutability": "nonpayable",
      "type": "function"
    },
    {
      "stateMutability": "payable",
      "type": "receive"
    }
  ],
  "bytecode": {
    "object": "0x608080604052346100c1576000549060ff8260081c1661006f575060ff80821603610034575b60405161198990816100c78239f35b60ff90811916176000557f7f26b83ff96e1f2b6a682f133852f6798a09c465da95921460cefb3847402498602060405160ff8152a138610025565b62461bcd60e51b815260206004820152602760248201527f496e697469616c697a61626c653a20636f6e747261637420697320696e697469604482015266616c697a696e6760c81b6064820152608490fd5b600080fdfe60406080815260049081361015610020575b5050361561001e57600080fd5b005b600091823560e01c8063442471f01461066f57806394a5a29d146101895763c4d66de81461004e5750610011565b34610185576020366003190112610185576100676106b4565b835460ff8160081c161592838094610178575b8015610161575b15610107575060ff1981166001178555826100f6575b5060018060a01b03166bffffffffffffffffffffffff60a01b60335416176033556100c0575080f35b60207f7f26b83ff96e1f2b6a682f133852f6798a09c465da95921460cefb38474024989161ff001984541684555160018152a180f35b61ffff191661010117845538610097565b608490602086519162461bcd60e51b8352820152602e60248201527f496e697469616c697a61626c653a20636f6e747261637420697320616c72656160448201526d191e481a5b9a5d1a585b1a5e995960921b6064820152fd5b50303b1580156100815750600160ff831614610081565b50600160ff83161061007a565b8280fd5b50919034610467576060366003190112610467576101a56106b4565b906024803592604435956001600160801b0387169283880361066b57600260015414610629576002600155851561061a57831561061a57603354855163309a3bc160e11b8152979889986020956001600160a01b0393841693929187818881885afa9081156105f357849189918e916105fd575b50888c5180948193632210d52560e01b8352165afa9081156105f3579084918d916105c6575b50169a8b948a51898189816370a0823160e01b9a8b82528d30908301525afa9081156105bc578e8493928c928b969161058a575b50610526575b50505050508281169a8b159485809661051d575b61050d578d8d8a8d938a8a15958661049b575b50505050505061048b578b1461047b57906102ba91610b4f565b97881061046b57899060335416803b15610467578190604489518094819363a9fc507b60e01b8352338a8401528b898401525af1801561045d57610431575b50156103fb578547106103bb578780808089335af1610316610862565b5015610355575050907ffde313859edf8a78b1e1c10c6dbe0584a219be6af8d4914fdb8548652310339792915b82519485528401523392a36001805580f35b603a9060849386519362461bcd60e51b85528401528201527f416464726573733a20756e61626c6520746f2073656e642076616c75652c207260448201527f6563697069656e74206d617920686176652072657665727465640000000000006064820152fd5b601d9060649386519362461bcd60e51b85528401528201527f416464726573733a20696e73756666696369656e742062616c616e63650000006044820152fd5b5050907ffde313859edf8a78b1e1c10c6dbe0584a219be6af8d4914fdb85486523103397929161042c853388610726565b610343565b67ffffffffffffffff819a929a1161044c57865297386102f9565b50634e487b7160e01b815260418352fd5b87513d8c823e3d90fd5b5080fd5b86516390981e6d60e01b81528490fd5b8851630cdece4960e21b81528690fd5b895163356680b760e01b81528790fd5b90919293949550518094819382528d30908301525afa91821561050257908d926104cd575b50108d8d8a388a8f6102a0565b8092508a8092503d83116104fb575b6104e681836106cf565b810103126104f7578b9051386104c0565b8d80fd5b503d6104dc565b8c51903d90823e3d90fd5b8a5163356680b760e01b81528890fd5b508b471061028d565b8d51948580928b82528d30908301525afa9182156105025791610559575b61054f92508d610726565b848c38898e610279565b90508882813d8311610583575b61057081836106cf565b810103126104f75761054f915190610544565b503d610566565b9550505083813d83116105b5575b6105a281836106cf565b8101031261046757898e89945138610273565b503d610598565b8c513d85823e3d90fd5b6105e69150893d8b116105ec575b6105de81836106cf565b810190610707565b3861023f565b503d6105d4565b8a513d8e823e3d90fd5b6106149150823d84116105ec576105de81836106cf565b38610219565b508351631d01a37160e01b8152fd5b90601f606492602087519362461bcd60e51b85528401528201527f5265656e7472616e637947756172643a207265656e7472616e742063616c6c006044820152fd5b8680fd5b5050346104675780600319360112610467576106896106b4565b602435926001600160801b03841684036106b157506020926106aa91610b4f565b9051908152f35b80fd5b600435906001600160a01b03821682036106ca57565b600080fd5b90601f8019910116810190811067ffffffffffffffff8211176106f157604052565b634e487b7160e01b600052604160045260246000fd5b908160209103126106ca57516001600160a01b03811681036106ca5790565b60405163a9059cbb60e01b602082019081526001600160a01b03938416602483015260448083019590955293815267ffffffffffffffff926080820192848411838510176106f157169060c0810193838510908511176106f1576107cb93604052602083527f5361666545524332303a206c6f772d6c6576656c2063616c6c206661696c656460a0820152600080958192519082855af16107c5610862565b916108a2565b90815191821592831561083b575b505050156107e357565b60405162461bcd60e51b815260206004820152602a60248201527f5361666545524332303a204552433230206f7065726174696f6e20646964206e6044820152691bdd081cdd58d8d9595960b21b6064820152608490fd5b81929350906020918101031261046757602001519081151582036106b157503880806107d9565b3d1561089d573d9067ffffffffffffffff82116106f15760405191610891601f8201601f1916602001846106cf565b82523d6000602084013e565b606090565b9192901561090457508151156108b6575090565b3b156108bf5790565b60405162461bcd60e51b815260206004820152601d60248201527f416464726573733a2063616c6c20746f206e6f6e2d636f6e74726163740000006044820152606490fd5b8251909150156109175750805190602001fd5b6040519062461bcd60e51b82528160208060048301528251908160248401526000935b82851061095d575050604492506000838284010152601f80199101168101030190fd5b848101820151868601604401529381019385935061093a565b67ffffffffffffffff81116106f15760051b60200190565b80511561099b5760200190565b634e487b7160e01b600052603260045260246000fd5b80516001101561099b5760400190565b91906040838203126106ca57825167ffffffffffffffff908181116106ca5784019082601f830112156106ca578151916109fa83610976565b90610a0860405192836106cf565b838252602093848084019160051b830101918683116106ca578501905b828210610aa75750505094828101519182116106ca57019180601f840112156106ca578251610a5381610976565b93610a6160405195866106cf565b818552838086019260051b8201019283116106ca578301905b828210610a88575050505090565b81516001600160a01b03811681036106ca578152908301908301610a7a565b81518060060b81036106ca578152908501908501610a25565b6020908160408183019282815285518094520193019160005b828110610ae7575050505090565b835163ffffffff1685529381019392810192600101610ad9565b600691820b910b0390667fffffffffffff198212667fffffffffffff831317610b2657565b634e487b7160e01b600052601160045260246000fd5b81810292918115918404141715610b2657565b6033546040805163309a3bc160e11b815290949392916001600160a01b039160049160209190829082908590829088165afa801561103a57849160009161101d575b5016918751946311d3da1560e11b865282868381875afa95861561101257600096610ff3575b50808516610fed575084955b8851916301cde7c760e11b9586845280891693848382015285816024818a5afa8015610fe2578291600091610fc5575b50161580610fb9575b610faa578a51936060850185811067ffffffffffffffff821117610f95578c52600285528b3687870137610708610c328661098e565b526000610c3e866109b1565b528b5193632210d52560e01b8086528d888787818d5afa968715610f8a57600097610f69575b50518a81529584168587015287866024818c5afa958615610ec557600096610f4a575b508d5163883bdbfd60e01b808252968f9190818781610ca88d8c8301610ac0565b03921691815a93600094fa8015610f3f57610ce691600091610f25575b50610cd9610cd2826109b1565b519161098e565b5160060b9060060b610b01565b60060b92610708840560020b93600081129081610f14575b50610efa575b6001600160801b03610d169116611045565b9051918252888287818d5afa908115610eef57610d3d938d93600093610ed0575b506110ae565b8c5163111029b960e01b815290878286818c5afa918215610ec557600092610e96575b5061271091820190818311610e815790610d7991610b3c565b0497828a168214610e725790602487928e51998a9384928352878301525afa928315610e6757610dc1966000968795610e48575b50508b519687958694859384528301610ac0565b0392165afa958615610e3e5750610708610e06610e199697610e1393600091610e1c575b50610dfc610df2826109b1565b5160060b9161098e565b5160060b90610b01565b60060b0560020b91611045565b906110ae565b90565b610e37913d8091833e610e2f81836106cf565b8101906109c1565b5038610de5565b513d6000823e3d90fd5b610e5f929550803d106105ec576105de81836106cf565b923880610dad565b8b513d6000823e3d90fd5b50969a50505050505050505050565b601186634e487b7160e01b6000525260246000fd5b90918882813d8311610ebe575b610ead81836106cf565b810103126106b15750519038610d60565b503d610ea3565b8e513d6000823e3d90fd5b610ee89193508b3d8d116105ec576105de81836106cf565b9138610d37565b8f513d6000823e3d90fd5b929050627fffff198114610e815760001901918e90610d04565b61070891500760060b151538610cfe565b610f38913d8091833e610e2f81836106cf565b5038610cc5565b82513d6000823e3d90fd5b610f62919650883d8a116105ec576105de81836106cf565b9438610c87565b85919750610f83908a3d8c116105ec576105de81836106cf565b9690610c64565b50513d6000823e3d90fd5b604184634e487b7160e01b6000525260246000fd5b5089516305d6109b60e31b8152fd5b50808816841415610bfc565b610fdc9150873d89116105ec576105de81836106cf565b38610bf3565b8c513d6000823e3d90fd5b95610bc3565b61100b919650833d85116105ec576105de81836106cf565b9438610bb7565b89513d6000823e3d90fd5b6110349150833d85116105ec576105de81836106cf565b38610b91565b88513d6000823e3d90fd5b6001600160801b0390818111611059571690565b60405162461bcd60e51b815260206004820152602760248201527f53616665436173743a2076616c756520646f65736e27742066697420696e20316044820152663238206269747360c81b6064820152608490fd5b9291909260020b906000821260001461163557600160ff1b8214610b2657816000035b620d89e8811161160c5760018116156115fa576001600160881b036ffffcb933bd6fad37aa2d162d1a5940015b1692600282166115ce575b6004918281166115a2575b60088116611576575b6010811661154a575b6020811661151e575b604081166114f2575b6080908181166114c7575b610100811661149c575b6102008116611471575b6104008116611446575b610800811661141b575b61100081166113f0575b61200081166113c5575b614000811661139a575b618000811661136f575b620100008116611344575b62020000811661131a575b6204000081166112dc575b620800001661129d575b50600012611277575b63ffffffff8360201c93161560001461126e5760ff60005b16830180931161125957506001600160801b03916001600160a01b039081908116848111611230578061121191610b3c565b94169116101561122657610e199216906118e2565b610e199216611887565b8061123a9161163b565b94169116101561124f57610e19921690611818565b610e1992166116c4565b601190634e487b7160e01b6000525260246000fd5b60ff60016111df565b9180156112885760001904916111c7565b601283634e487b7160e01b6000525260246000fd5b6b048a170391f7dc42444e8fa2949194918281029281840414901517156112c7571c9260006111be565b601183634e487b7160e01b6000525260246000fd5b946d2216e584f5fa1ea926041bedfe989081810291818304149015171561130557811c946111b4565b601184634e487b7160e01b6000525260246000fd5b946e5d6af8dedb81196699c329225ee6049081810291818304149015171561130557811c946111a9565b946f09aa508b5b7a84e1c677de54f3e99bc99081810291818304149015171561130557811c9461119e565b946f31be135f97d08fd981231505542fcfa69081810291818304149015171561130557811c94611193565b946f70d869a156d2a1b890bb3df62baf32f79081810291818304149015171561130557811c94611189565b946fa9f746462d870fdf8a65dc1f90e061e59081810291818304149015171561130557811c9461117f565b946fd097f3bdfd2022b8845ad8f792aa58259081810291818304149015171561130557811c94611175565b946fe7159475a2c29b7443b29c7fa6e889d99081810291818304149015171561130557811c9461116b565b946ff3392b0822b70005940c7a398e4b70f39081810291818304149015171561130557811c94611161565b946ff987a7253ac413176f2b074cf7815e549081810291818304149015171561130557811c94611157565b946ffcbe86c7900a88aedcffc83b479aa3a49081810291818304149015171561130557811c9461114d565b946ffe5dee046a99a2a811c461f1969c30539081810291818304149015171561130557811c94611143565b936fff2ea16466c96a3843ec78b326b52861908181029181830414901517156112c75760801c93611138565b936fff973b41fa98c081472e6896dfb254c0908181029181830414901517156112c75760801c9361112f565b936fffcb9843d60f6159c9db58835c926644908181029181830414901517156112c75760801c93611126565b936fffe5caca7e10e4e61c3624eaa0941cd0908181029181830414901517156112c75760801c9361111d565b936ffff2e50f5f656932ef12357cf3c7fdcc908181029181830414901517156112c75760801c93611114565b926ffff97272373d413259a46990580e213a90818102918183041490151715610b265760801c92611109565b6001600160881b03600160801b6110fe565b60405162461bcd60e51b81526020600482015260016024820152601560fa1b6044820152606490fd5b816110d1565b60001982820990828102908180841093039383850393600095146116b957600160401b91848311156116b557099181831184818303956116a157508460c01b948504600160c01b1491141715610b26570360401c1780800460011481151715610b265790565b634e487b7160e01b81526011600452602490fd5b8580fd5b505060401c92915050565b600160801b9291600019828509938260801b9283808710960395808703961461180957858311156106ca5782910990801960018101809111610b265781168091049161171f600096600184808a030401908684119003610b3c565b9280600302966003880482036116a157600280981861173e8184610b3c565b8903908982116117f5579061175291610b3c565b61175c8184610b3c565b8903908982116117f5579061177091610b3c565b61177a8184610b3c565b8903908982116117f5579061178e91610b3c565b6117988184610b3c565b8903908982116117f557906117ac91610b3c565b6117b68184610b3c565b8903908982116117f5576117d4916117cd91610b3c565b8093610b3c565b88039788116116a15750610e1995966117ec91610b3c565b93030417610b3c565b634e487b7160e01b83526011600452602483fd5b505080929350156106ca570490565b6000198282098282029081808210910393818503916000951461187c57600160801b93828511156116b55790849109928284119085828403966116a157508560801b9586041491141715610b26570360801c1780800460011481151715610b265790565b505060801c92915050565b600160c01b9291600019828509938260c01b9283808710960395808703961461180957858311156106ca5782910990801960018101809111610b265781168091049161171f600096600184808a030401908684119003610b3c565b600019828209908281029081808410930393838503936000951461194857600160c01b91848311156116b557099181831184818303956116a157508460401b948504600160401b1491141715610b26570360c01c1780800460011481151715610b265790565b505060c01c9291505056fea26469706673582212204dd404c17485eb3b376bf4f9be193d1ec3ab6e3f9457a3d8c5604bb2f7eacb7d64736f6c63430008120033",
    "linkReferences": {}
  },
  "methodIdentifiers": {
    "estimateRarePrice(address,uint128)": "442471f0",
    "initialize(address)": "c4d66de8",
    "rewardSwap(address,uint256,uint128)": "94a5a29d"
  },
  "id": 186
}