{
  "abi": [
    {
      "inputs": [
        {
          "internalType": "address",
          "name": "_iERC721TokenCreator",
          "type": "address"
        }
      ],
      "stateMutability": "nonpayable",
      "type": "constructor"
    },
    {
      "anonymous": false,
      "inputs": [
        {
          "indexed": true,
          "internalType": "address",
          "name": "previousOwner",
          "type": "address"
        },
        {
          "indexed": true,
          "internalType": "address",
          "name": "newOwner",
          "type": "address"
        }
      ],
      "name": "OwnershipTransferred",
      "type": "event"
    },
    {
      "anonymous": false,
      "inputs": [
        {
          "indexed": true,
          "internalType": "bytes32",
          "name": "role",
          "type": "bytes32"
        },
        {
          "indexed": true,
          "internalType": "bytes32",
          "name": "previousAdminRole",
          "type": "bytes32"
        },
        {
          "indexed": true,
          "internalType": "bytes32",
          "name": "newAdminRole",
          "type": "bytes32"
        }
      ],
      "name": "RoleAdminChanged",
      "type": "event"
    },
    {
      "anonymous": false,
      "inputs": [
        {
          "indexed": true,
          "internalType": "bytes32",
          "name": "role",
          "type": "bytes32"
        },
        {
          "indexed": true,
          "internalType": "address",
          "name": "account",
          "type": "address"
        },
        {
          "indexed": true,
          "internalType": "address",
          "name": "sender",
          "type": "address"
        }
      ],
      "name": "RoleGranted",
      "type": "event"
    },
    {
      "anonymous": false,
      "inputs": [
        {
          "indexed": true,
          "internalType": "bytes32",
          "name": "role",
          "type": "bytes32"
        },
        {
          "indexed": true,
          "internalType": "address",
          "name": "account",
          "type": "address"
        },
        {
          "indexed": true,
          "internalType": "address",
          "name": "sender",
          "type": "address"
        }
      ],
      "name": "RoleRevoked",
      "type": "event"
    },
    {
      "inputs": [],
      "name": "DEFAULT_ADMIN_ROLE",
      "outputs": [
        {
          "internalType": "bytes32",
          "name": "",
          "type": "bytes32"
        }
      ],
      "stateMutability": "view",
      "type": "function"
    },
    {
      "inputs": [],
      "name": "ROYALTY_FEE_SETTER_ROLE",
      "outputs": [
        {
          "internalType": "bytes32",
          "name": "",
          "type": "bytes32"
        }
      ],
      "stateMutability": "view",
      "type": "function"
    },
    {
      "inputs": [
        {
          "internalType": "address",
          "name": "_contractAddress",
          "type": "address"
        },
        {
          "internalType": "uint256",
          "name": "_tokenId",
          "type": "uint256"
        },
        {
          "internalType": "uint256",
          "name": "_amount",
          "type": "uint256"
        }
      ],
      "name": "calculateRoyaltyFee",
      "outputs": [
        {
          "internalType": "uint256",
          "name": "",
          "type": "uint256"
        }
      ],
      "stateMutability": "view",
      "type": "function"
    },
    {
      "inputs": [
        {
          "internalType": "address",
          "name": "",
          "type": "address"
        }
      ],
      "name": "contractRoyaltyPercentage",
      "outputs": [
        {
          "internalType": "uint8",
          "name": "",
          "type": "uint8"
        }
      ],
      "stateMutability": "view",
      "type": "function"
    },
    {
      "inputs": [
        {
          "internalType": "address",
          "name": "",
          "type": "address"
        }
      ],
      "name": "contractRoyaltyPercentageSet",
      "outputs": [
        {
          "internalType": "bool",
          "name": "",
          "type": "bool"
        }
      ],
      "stateMutability": "view",
      "type": "function"
    },
    {
      "inputs": [
        {
          "internalType": "address",
          "name": "",
          "type": "address"
        }
      ],
      "name": "contractRoyaltyReceiver",
      "outputs": [
        {
          "internalType": "address",
          "name": "",
          "type": "address"
        }
      ],
      "stateMutability": "view",
      "type": "function"
    },
    {
      "inputs": [
        {
          "internalType": "address",
          "name": "_contractAddress",
          "type": "address"
        },
        {
          "internalType": "uint256",
          "name": "",
          "type": "uint256"
        }
      ],
      "name": "getERC721TokenRoyaltyPercentage",
      "outputs": [
        {
          "internalType": "uint8",
          "name": "",
          "type": "uint8"
        }
      ],
      "stateMutability": "view",
      "type": "function"
    },
    {
      "inputs": [
        {
          "internalType": "address",
          "name": "_contractAddress",
          "type": "address"
        }
      ],
      "name": "getPercentageForSetERC721ContractRoyalty",
      "outputs": [
        {
          "internalType": "uint8",
          "name": "",
          "type": "uint8"
        }
      ],
      "stateMutability": "view",
      "type": "function"
    },
    {
      "inputs": [
        {
          "internalType": "bytes32",
          "name": "role",
          "type": "bytes32"
        }
      ],
      "name": "getRoleAdmin",
      "outputs": [
        {
          "internalType": "bytes32",
          "name": "",
          "type": "bytes32"
        }
      ],
      "stateMutability": "view",
      "type": "function"
    },
    {
      "inputs": [
        {
          "internalType": "bytes32",
          "name": "role",
          "type": "bytes32"
        },
        {
          "internalType": "address",
          "name": "account",
          "type": "address"
        }
      ],
      "name": "grantRole",
      "outputs": [],
      "stateMutability": "nonpayable",
      "type": "function"
    },
    {
      "inputs": [
        {
          "internalType": "bytes32",
          "name": "role",
          "type": "bytes32"
        },
        {
          "internalType": "address",
          "name": "account",
          "type": "address"
        }
      ],
      "name": "hasRole",
      "outputs": [
        {
          "internalType": "bool",
          "name": "",
          "type": "bool"
        }
      ],
      "stateMutability": "view",
      "type": "function"
    },
    {
      "inputs": [],
      "name": "iERC721TokenCreator",
      "outputs": [
        {
          "internalType": "contract ICreatorRegistry",
          "name": "",
          "type": "address"
        }
      ],
      "stateMutability": "view",
      "type": "function"
    },
    {
      "inputs": [],
      "name": "owner",
      "outputs": [
        {
          "internalType": "address",
          "name": "",
          "type": "address"
        }
      ],
      "stateMutability": "view",
      "type": "function"
    },
    {
      "inputs": [],
      "name": "renounceOwnership",
      "outputs": [],
      "stateMutability": "nonpayable",
      "type": "function"
    },
    {
      "inputs": [
        {
          "internalType": "bytes32",
          "name": "role",
          "type": "bytes32"
        },
        {
          "internalType": "address",
          "name": "account",
          "type": "address"
        }
      ],
      "name": "renounceRole",
      "outputs": [],
      "stateMutability": "nonpayable",
      "type": "function"
    },
    {
      "inputs": [
        {
          "internalType": "bytes32",
          "name": "role",
          "type": "bytes32"
        },
        {
          "internalType": "address",
          "name": "account",
          "type": "address"
        }
      ],
      "name": "revokeRole",
      "outputs": [],
      "stateMutability": "nonpayable",
      "type": "function"
    },
    {
      "inputs": [
        {
          "internalType": "address",
          "name": "",
          "type": "address"
        }
      ],
      "name": "royaltyReceiverOverride",
      "outputs": [
        {
          "internalType": "address",
          "name": "",
          "type": "address"
        }
      ],
      "stateMutability": "view",
      "type": "function"
    },
    {
      "inputs": [
        {
          "internalType": "address",
          "name": "_contractAddress",
          "type": "address"
        }
      ],
      "name": "setIERC721TokenCreator",
      "outputs": [],
      "stateMutability": "nonpayable",
      "type": "function"
    },
    {
      "inputs": [
        {
          "internalType": "address",
          "name": "_contractAddress",
          "type": "address"
        },
        {
          "internalType": "uint8",
          "name": "_percentage",
          "type": "uint8"
        }
      ],
      "name": "setPercentageForSetERC721ContractRoyalty",
      "outputs": [],
      "stateMutability": "nonpayable",
      "type": "function"
    },
    {
      "inputs": [
        {
          "internalType": "address",
          "name": "_receiver",
          "type": "address"
        },
        {
          "internalType": "address",
          "name": "_contractAddress",
          "type": "address"
        }
      ],
      "name": "setRoyaltyReceiverForContract",
      "outputs": [],
      "stateMutability": "nonpayable",
      "type": "function"
    },
    {
      "inputs": [
        {
          "internalType": "address",
          "name": "_receiver",
          "type": "address"
        },
        {
          "internalType": "address",
          "name": "_contractAddress",
          "type": "address"
        },
        {
          "internalType": "uint256",
          "name": "_tokenId",
          "type": "uint256"
        }
      ],
      "name": "setRoyaltyReceiverForToken",
      "outputs": [],
      "stateMutability": "nonpayable",
      "type": "function"
    },
    {
      "inputs": [
        {
          "internalType": "address",
          "name": "_receiver",
          "type": "address"
        }
      ],
      "name": "setRoyaltyReceiverOverride",
      "outputs": [],
      "stateMutability": "nonpayable",
      "type": "function"
    },
    {
      "inputs": [
        {
          "internalType": "bytes4",
          "name": "interfaceId",
          "type": "bytes4"
        }
      ],
      "name": "supportsInterface",
      "outputs": [
        {
          "internalType": "bool",
          "name": "",
          "type": "bool"
        }
      ],
      "stateMutability": "view",
      "type": "function"
    },
    {
      "inputs": [
        {
          "internalType": "address",
          "name": "_contractAddress",
          "type": "address"
        },
        {
          "internalType": "uint256",
          "name": "_tokenId",
          "type": "uint256"
        }
      ],
      "name": "tokenCreator",
      "outputs": [
        {
          "internalType": "address payable",
          "name": "",
          "type": "address"
        }
      ],
      "stateMutability": "view",
      "type": "function"
    },
    {
      "inputs": [
        {
          "internalType": "address",
          "name": "",
          "type": "address"
        },
        {
          "internalType": "uint256",
          "name": "",
          "type": "uint256"
        }
      ],
      "name": "tokenRoyaltyReceiver",
      "outputs": [
        {
          "internalType": "address",
          "name": "",
          "type": "address"
        }
      ],
      "stateMutability": "view",
      "type": "function"
    },
    {
      "inputs": [
        {
          "internalType": "address",
          "name": "newOwner",
          "type": "address"
        }
      ],
      "name": "transferOwnership",
      "outputs": [],
      "stateMutability": "nonpayable",
      "type": "function"
    }
  ],
  "bytecode": {
    "object": "0x60803461018557601f61151c38819003918201601f1916830192916001600160401b0384118385101761018a578083926040958652833960209283918101031261018557516001600160a01b038082169290918390036101855760009081549260018060a01b031993338582161784558651913391167f8be0079c531659141344cd1fd0a4f28419497f9722a3daafe3b4186f6b6457e08580a3841561011f575081805260018152848220338352815260ff8583205416156100d3575b505060075416176007555161137b90816101a18239f35b818052600181528482209033835252838120600160ff19825416179055339033907f2f8788117e7eff1d82e926ec794901d17c78024a50270940304540a733656f0d8180a438806100bc565b60849162461bcd60e51b82526004820152603c60248201527f636f6e7374727563746f723a3a5f69455243373231546f6b656e43726561746f60448201527f722063616e6e6f7420626520746865207a65726f2061646472657373000000006064820152fd5b600080fd5b634e487b7160e01b600052604160045260246000fdfe608060408181526004908136101561001657600080fd5b600092833560e01c90816301ffc9a714610d8c575080630f7c762414610d525780631fc5825814610d14578063248a9ca314610cea5780632d5baea314610b4b5780632f2ff15d14610a9e57806336568abe14610a0c5780633ee893d41461086a5780635121d5ba1461084157806352214f611461080657806358a702661461074d578063715018a6146106f3578063725a5f28146105bd57806376bf88b21461059a5780637c0329f71461056b5780637d3b79ac14610527578063860110f5146104c85780638da5cb5b146104a057806391d1485414610459578063a217fddf1461043e578063a34e36a514610403578063b85ed7e4146102cf578063d547741f14610293578063d877978114610253578063f2fde38b146101905763f30067221461014257600080fd5b3461018c57602036600319011261018c576001600160a01b03610163610de0565b16916101708315156112dc565b338452602052822080546001600160a01b031916909117905580f35b8280fd5b50903461018c57602036600319011261018c576101ab610de0565b906101b4611208565b6001600160a01b0391821692831561020157505082546001600160a01b0319811683178455167f8be0079c531659141344cd1fd0a4f28419497f9722a3daafe3b4186f6b6457e08380a380f35b906020608492519162461bcd60e51b8352820152602660248201527f4f776e61626c653a206e6577206f776e657220697320746865207a65726f206160448201526564647265737360d01b6064820152fd5b83823461028f57602036600319011261028f5760209160ff9082906001600160a01b0361027e610de0565b168152600285522054169051908152f35b5080fd5b503461018c578060031936011261018c576102cc91356102c760016102b6610dfb565b938387528160205286200154610e11565b611192565b80f35b50903461018c578160031936011261018c576102e9610de0565b6007548351632e17b5f960e21b81526001600160a01b0383811685830190815260243560208083018290529892969295929490939291899184918290036040019082908a165afa9182156103f95790869186936103c8575b508116918286526005895281808988205416918215156000146103c05750505b600689528786208487528952878620548216156103b75750508352600686528483209083528552828085842054165b16808352908552908390205482169081156103af5750915b5191168152f35b9050916103a8565b91509150610390565b169050610361565b829193506103eb908a3d8c116103f2575b6103e3818361115a565b8101906112bd565b9290610341565b503d6103d9565b87513d87823e3d90fd5b83823461028f57602036600319011261028f576020916001600160a01b039082908261042d610de0565b168152600585522054169051908152f35b83823461028f578160031936011261028f5751908152602090f35b50903461018c578160031936011261018c578160209360ff9261047a610dfb565b90358252600186528282206001600160a01b039091168252855220549151911615158152f35b83823461028f578160031936011261028f57905490516001600160a01b039091168152602090f35b509134610524576060366003190112610524576104e3610de0565b9160ff6104f260443594611287565b1692838102938185041490151715610511576020836064865191048152f35b634e487b7160e01b825260119052602490fd5b80fd5b83823461028f578060031936011261028f576020916001600160a01b0390829082610550610de0565b16815260068552818120602435825285522054169051908152f35b83823461028f578060031936011261028f5760209060ff61059261058d610de0565b611287565b915191168152f35b83823461028f57602036600319011261028f5760209060ff61059261058d610de0565b50903461018c57606036600319011261018c576105d8610de0565b916105e1610dfb565b6007548251632e17b5f960e21b81526001600160a01b038381168683019081526044356020808301829052929790959294929390929091859183918290036040019082908b165afa9081156106e9579087918a916106cc575b5016330361066f5750841686526006815282862091865252832091166bffffffffffffffffffffffff60a01b82541617905580f35b845162461bcd60e51b8152908101839052603160248201527f736574526f79616c74795265636569766572466f72546f6b656e3a3a6d757374604482015270103132903a37b5b2b71031b932b0ba37b960791b6064820152608490fd5b6106e39150853d87116103f2576103e3818361115a565b3861063a565b86513d8b823e3d90fd5b833461052457806003193601126105245761070c611208565b80546001600160a01b03198116825581906001600160a01b03167f8be0079c531659141344cd1fd0a4f28419497f9722a3daafe3b4186f6b6457e08280a380f35b50903461018c57602036600319011261018c57610768610de0565b610770611208565b6001600160a01b031691821561079d5750506bffffffffffffffffffffffff60a01b600754161760075580f35b906020608492519162461bcd60e51b8352820152603760248201527f73657449455243373231546f6b656e43726561746f723a3a5f636f6e7472616360448201527f74416464726573732063616e6e6f74206265206e756c6c0000000000000000006064820152fd5b83823461028f578160031936011261028f57602090517fb4cce6bf152b41f237b365401b209838c52169fc7d8726c2df85b8f8930b73148152f35b83823461028f578160031936011261028f5760075490516001600160a01b039091168152602090f35b503461018c578060031936011261018c57610883610de0565b9061088c610dfb565b6001600160a01b0392831690839082151580610a01575b6108ac906112dc565b16825193638da5cb5b60e01b855260209485818881865afa8891816109c5575b5061093157845162461bcd60e51b8152808801879052603460248201527f736574526f79616c74795265636569766572466f72436f6e74726163743a3a6360448201527337b73a3930b1ba103430b99037379037bbb732b960611b6064820152608490fd5b9591929594939416330361095c5750845260059052822080546001600160a01b031916909117905580f35b835162461bcd60e51b8152908101839052603860248201527f736574526f79616c74795265636569766572466f72436f6e74726163743a3a6d60448201527f757374206265206f776e6572206f6620636f6e747261637400000000000000006064820152608490fd5b9091508681813d83116109fa575b6109dd818361115a565b810103126109f6575182811681036109f65790386108cc565b8880fd5b503d6109d3565b5080821615156108a3565b5091903461028f578260031936011261028f57610a27610dfb565b90336001600160a01b03831603610a4357906102cc9135611192565b608490602085519162461bcd60e51b8352820152602f60248201527f416363657373436f6e74726f6c3a2063616e206f6e6c792072656e6f756e636560448201526e103937b632b9903337b91039b2b63360891b6064820152fd5b50903461018c578160031936011261018c573590610aba610dfb565b908284526001602052610ad260018286200154610e11565b828452600160209081528185206001600160a01b039093168086529290528084205460ff1615610b00578380f35b82845260016020528084208285526020528320600160ff1982541617905533917f2f8788117e7eff1d82e926ec794901d17c78024a50270940304540a733656f0d8480a43880808380f35b503461018c578060031936011261018c57610b64610de0565b916024359260ff8416809403610ce6577fb4cce6bf152b41f237b365401b209838c52169fc7d8726c2df85b8f8930b7314855260209160018352838620338752835260ff848720541615610c625760648511610bed57506001600160a01b0316845260028152818420805460ff1990811690941790556003905282208054909116600117905580f35b60a4908385519162461bcd60e51b8352820152604460248201527f73657450657263656e74616765466f72536574455243373231436f6e7472616360448201527f74526f79616c74793a3a5f70657263656e74616765206d757374206265203c3d6064820152630203130360e41b6084820152fd5b835162461bcd60e51b8152908101839052605260248201527f73657450657263656e74616765466f72536574455243373231436f6e7472616360448201527f74526f79616c74793a3a43616c6c6572206d757374206861766520726f79616c6064820152717479206665652073657474657220726f6c6560701b608482015260a490fd5b8480fd5b50903461018c57602036600319011261018c57816020936001923581528285522001549051908152f35b83823461028f57602036600319011261028f5760209160ff9082906001600160a01b03610d3f610de0565b1681526003855220541690519015158152f35b50903461018c57602036600319011261018c576020926001600160a01b039183919083610d7d610de0565b16825285522054169051908152f35b8490843461018c57602036600319011261018c573563ffffffff60e01b811680910361018c5760209250637965db0b60e01b8114908115610dcf575b5015158152f35b6301ffc9a760e01b14905083610dc8565b600435906001600160a01b0382168203610df657565b600080fd5b602435906001600160a01b0382168203610df657565b600090808252600191602091838352604091828120338252845260ff838220541615610e3e575050505050565b3391835195606087019167ffffffffffffffff9288811084821117611063578652602a885286880194863687378851156111235760308653885183101561112357607860218a015360295b8381116110b9575061107757908551926080840190848210908211176110635786526042835286830193606036863783511561104f5760308553835182101561104f5790607860218501536041915b818311610fe157505050610f9f5792610f6d6048610f5e9794610f91946044989785519a8b93610f358b86019a7f416363657373436f6e74726f6c3a206163636f756e74200000000000000000008c525180926037880190611137565b8401917001034b99036b4b9b9b4b733903937b6329607d1b603784015251809386840190611137565b0103602881018952018761115a565b5194859362461bcd60e51b8552600485015251809281602486015285850190611137565b601f01601f19168101030190fd5b60648585519062461bcd60e51b825280600483015260248201527f537472696e67733a20686578206c656e67746820696e73756666696369656e746044820152fd5b909192600f8116601081101561103b576f181899199a1a9b1b9c1cb0b131b232b360811b901a6110118587611260565b5360041c92801561102757600019019190610ed8565b634e487b7160e01b82526011600452602482fd5b634e487b7160e01b83526032600452602483fd5b634e487b7160e01b81526032600452602490fd5b634e487b7160e01b85526041600452602485fd5b60648787519062461bcd60e51b825280600483015260248201527f537472696e67733a20686578206c656e67746820696e73756666696369656e746044820152fd5b90600f8116601081101561110f576f181899199a1a9b1b9c1cb0b131b232b360811b901a6110e7838c611260565b5360041c9080156110fb5760001901610e89565b634e487b7160e01b86526011600452602486fd5b634e487b7160e01b87526032600452602487fd5b634e487b7160e01b85526032600452602485fd5b60005b83811061114a5750506000910152565b818101518382015260200161113a565b90601f8019910116810190811067ffffffffffffffff82111761117c57604052565b634e487b7160e01b600052604160045260246000fd5b906000918083526001602052604083209160018060a01b03169182845260205260ff6040842054166111c357505050565b8083526001602052604083208284526020526040832060ff1981541690557ff6391f5c32d9c69d2a47ea670b442974b53935d1edc7fd64eb21e047a839171b339380a4565b6000546001600160a01b0316330361121c57565b606460405162461bcd60e51b815260206004820152602060248201527f4f776e61626c653a2063616c6c6572206973206e6f7420746865206f776e65726044820152fd5b908151811015611271570160200190565b634e487b7160e01b600052603260045260246000fd5b6001600160a01b031660009081526003602052604090205460ff16156112b857600260205260ff6040600020541690565b600a90565b90816020910312610df657516001600160a01b0381168103610df65790565b156112e357565b60405162461bcd60e51b815260206004820152603460248201527f736574526f79616c747952656365697665724f766572726964653a3a63616e746044820152732073657420746f207a65726f206164647265737360601b6064820152608490fdfea2646970667358221220a831caac807b2f8e3032f3cb9f2e4d5bd16ac973122f4e3a20a56bc034737e7664736f6c63430008120033",
    "linkReferences": {}
  },
  "methodIdentifiers": {
    "DEFAULT_ADMIN_ROLE()": "a217fddf",
    "ROYALTY_FEE_SETTER_ROLE()": "52214f61",
    "calculateRoyaltyFee(address,uint256,uint256)": "860110f5",
    "contractRoyaltyPercentage(address)": "d8779781",
    "contractRoyaltyPercentageSet(address)": "1fc58258",
    "contractRoyaltyReceiver(address)": "a34e36a5",
    "getERC721TokenRoyaltyPercentage(address,uint256)": "7c0329f7",
    "getPercentageForSetERC721ContractRoyalty(address)": "76bf88b2",
    "getRoleAdmin(bytes32)": "248a9ca3",
    "grantRole(bytes32,address)": "2f2ff15d",
    "hasRole(bytes32,address)": "91d14854",
    "iERC721TokenCreator()": "5121d5ba",
    "owner()": "8da5cb5b",
    "renounceOwnership()": "715018a6",
    "renounceRole(bytes32,address)": "36568abe",
    "revokeRole(bytes32,address)": "d547741f",
    "royaltyReceiverOverride(address)": "0f7c7624",
    "setIERC721TokenCreator(address)": "58a70266",
    "setPercentageForSetERC721ContractRoyalty(address,uint8)": "2d5baea3",
    "setRoyaltyReceiverForContract(address,address)": "3ee893d4",
    "setRoyaltyReceiverForToken(address,address,uint256)": "725a5f28",
    "setRoyaltyReceiverOverride(address)": "f3006722",
    "supportsInterface(bytes4)": "01ffc9a7",
    "tokenCreator(address,uint256)": "b85ed7e4",
    "tokenRoyaltyReceiver(address,uint256)": "7d3b79ac",
    "transferOwnership(address)": "f2fde38b"
  },
  "id": 172
}