{"abi":[{"type":"constructor","inputs":[],"stateMutability":"nonpayable"},{"type":"function","name":"LAZY_ROYALTY_GUARD","inputs":[],"outputs":[{"name":"","type":"bytes32","internalType":"bytes32"}],"stateMutability":"view"},{"type":"function","name":"LAZY_ROYALTY_GUARD_DEADMAN","inputs":[],"outputs":[{"name":"","type":"bytes32","internalType":"bytes32"}],"stateMutability":"view"},{"type":"function","name":"LAZY_SOVEREIGN_NFT","inputs":[],"outputs":[{"name":"","type":"bytes32","internalType":"bytes32"}],"stateMutability":"view"},{"type":"function","name":"ROYALTY_GUARD","inputs":[],"outputs":[{"name":"","type":"bytes32","internalType":"bytes32"}],"stateMutability":"view"},{"type":"function","name":"ROYALTY_GUARD_DEADMAN","inputs":[],"outputs":[{"name":"","type":"bytes32","internalType":"bytes32"}],"stateMutability":"view"},{"type":"function","name":"SOVEREIGN_NFT","inputs":[],"outputs":[{"name":"","type":"bytes32","internalType":"bytes32"}],"stateMutability":"view"},{"type":"function","name":"createSovereignNFTContract","inputs":[{"name":"_name","type":"string","internalType":"string"},{"name":"_symbol","type":"string","internalType":"string"}],"outputs":[{"name":"","type":"address","internalType":"address"}],"stateMutability":"nonpayable"},{"type":"function","name":"createSovereignNFTContract","inputs":[{"name":"_name","type":"string","internalType":"string"},{"name":"_symbol","type":"string","internalType":"string"},{"name":"_maxTokens","type":"uint256","internalType":"uint256"},{"name":"_contractType","type":"bytes32","internalType":"bytes32"}],"outputs":[{"name":"","type":"address","internalType":"address"}],"stateMutability":"nonpayable"},{"type":"function","name":"createSovereignNFTContract","inputs":[{"name":"_name","type":"string","internalType":"string"},{"name":"_symbol","type":"string","internalType":"string"},{"name":"_maxTokens","type":"uint256","internalType":"uint256"}],"outputs":[{"name":"","type":"address","internalType":"address"}],"stateMutability":"nonpayable"},{"type":"function","name":"lazySovereignNFT","inputs":[],"outputs":[{"name":"","type":"address","internalType":"address"}],"stateMutability":"view"},{"type":"function","name":"lazySovereignNFTRoyaltyGuard","inputs":[],"outputs":[{"name":"","type":"address","internalType":"address"}],"stateMutability":"view"},{"type":"function","name":"lazySovereignNFTRoyaltyGuardDeadmanTrigger","inputs":[],"outputs":[{"name":"","type":"address","internalType":"address"}],"stateMutability":"view"},{"type":"function","name":"owner","inputs":[],"outputs":[{"name":"","type":"address","internalType":"address"}],"stateMutability":"view"},{"type":"function","name":"renounceOwnership","inputs":[],"outputs":[],"stateMutability":"nonpayable"},{"type":"function","name":"setSovereignNFT","inputs":[{"name":"_sovereignNFT","type":"address","internalType":"address"}],"outputs":[],"stateMutability":"nonpayable"},{"type":"function","name":"setSovereignNFT","inputs":[{"name":"_sovereignNFT","type":"address","internalType":"address"},{"name":"_contractType","type":"bytes32","internalType":"bytes32"}],"outputs":[],"stateMutability":"nonpayable"},{"type":"function","name":"sovereignNFT","inputs":[],"outputs":[{"name":"","type":"address","internalType":"address"}],"stateMutability":"view"},{"type":"function","name":"sovereignNFTRoyaltyGuard","inputs":[],"outputs":[{"name":"","type":"address","internalType":"address"}],"stateMutability":"view"},{"type":"function","name":"sovereignNFTRoyaltyGuardDeadmanTrigger","inputs":[],"outputs":[{"name":"","type":"address","internalType":"address"}],"stateMutability":"view"},{"type":"function","name":"transferOwnership","inputs":[{"name":"newOwner","type":"address","internalType":"address"}],"outputs":[],"stateMutability":"nonpayable"},{"type":"event","name":"OwnershipTransferred","inputs":[{"name":"previousOwner","type":"address","indexed":true,"internalType":"address"},{"name":"newOwner","type":"address","indexed":true,"internalType":"address"}],"anonymous":false},{"type":"event","name":"SovereignNFTContractCreated","inputs":[{"name":"contractAddress","type":"address","indexed":true,"internalType":"address"},{"name":"owner","type":"address","indexed":true,"internalType":"address"}],"anonymous":false},{"type":"event","name":"SovereignNFTContractCreated","inputs":[{"name":"contractAddress","type":"address","indexed":true,"internalType":"address"},{"name":"owner","type":"address","indexed":true,"internalType":"address"},{"name":"contractType","type":"bytes32","indexed":true,"internalType":"bytes32"}],"anonymous":false}],"bytecode":{"object":"0x60806040908082523461013f5760008054336001600160a01b031980831682178455936001600160a01b03939290919084167f8be0079c531659141344cd1fd0a4f28419497f9722a3daafe3b4186f6b6457e08480a36001600160401b0390612707818101908382118383101761012b5790829162000f5c8339039083f080156101215783168460015416176001558451613075808201908282108483111761012b57908291620036638339039083f08015610121578316846002541617600255845190613201808301918383109083111761010d57908291620066d88339039082f090811561010257501690600354161760035551610e179081620001458239f35b8451903d90823e3d90fd5b634e487b7160e01b84526041600452602484fd5b85513d84823e3d90fd5b634e487b7160e01b85526041600452602485fd5b600080fdfe6080604081815260048036101561001557600080fd5b600092833560e01c908162e8ece614610a0e5750806322d60fcb146109e55780633cebcf41146108d1578063637944f514610896578063715018a61461083c578063740adf31146108015780637de4c082146107c6578063877ebf51146104b75780638da5cb5b1461048f5780639607cb4914610448578063a55b1c2514610415578063c4dca7ab146103ec578063c9be0590146103c3578063d05df8831461039a578063d1e0f70014610371578063da8d79f314610269578063ea14289f1461022e578063ef6fde5b146101ef578063f2fde38b146101285763f5e0e6df146100fe57600080fd5b346101245782600319360112610124575490516001600160a01b03909116815260209150f35b8280fd5b503461012457602036600319011261012457610142610ada565b9061014b610af0565b6001600160a01b0391821692831561019d575050600054826001600160601b0360a01b821617600055167f8be0079c531659141344cd1fd0a4f28419497f9722a3daafe3b4186f6b6457e0600080a380f35b906020608492519162461bcd60e51b8352820152602660248201527f4f776e61626c653a206e6577206f776e657220697320746865207a65726f206160448201526564647265737360d01b6064820152fd5b50503461022a578160031936011261022a57602090517f087ecff7ca60b68738fb37e03219d7acf0291a744def7c97de03b25dfe4b910f8152f35b5080fd5b50503461022a578160031936011261022a57602090517f618bb03e363d77d1aa6e06dbc7ec814178513d4ccfaa94fb485275fe016567fd8152f35b5090346101245760603660031901126101245767ffffffffffffffff90823582811161036d5761029c9036908501610a72565b9160243590811161036d576102b49036908501610a72565b9284604435946102c5861515610c66565b6001546001600160a01b03959086906102df908216610d4d565b1696873b1561035f576103069086519586948594635edc7c1960e01b865233928601610d0e565b038183885af180156103635761034b575b509260209351927f46dd19b0bfeba14ab8b9e9c9e4179a2f8a3ba70420a845ea8da585dd8e59eeec339280a3600154168152f35b6103558591610a48565b61035f5738610317565b8380fd5b82513d87823e3d90fd5b8480fd5b50503461022a578160031936011261022a5760035490516001600160a01b039091168152602090f35b50503461022a578160031936011261022a5760015490516001600160a01b039091168152602090f35b50503461022a578160031936011261022a5760025490516001600160a01b039091168152602090f35b50503461022a578160031936011261022a5760065490516001600160a01b039091168152602090f35b50503461022a5736600319011261044557610442610431610ada565b610439610af0565b60243590610b48565b80f35b80fd5b833461044557602036600319011261044557610462610ada565b61046a610af0565b6001600160a01b0316801561022a576001600160601b0360a01b600154161760015580f35b50503461022a578160031936011261022a57905490516001600160a01b039091168152602090f35b5082903461022a57608036600319011261022a5767ffffffffffffffff813581811161035f576104ea9036908401610a72565b9060243590811161035f576105029036908401610a72565b9060443560643592610515821515610c66565b85937f618bb03e363d77d1aa6e06dbc7ec814178513d4ccfaa94fb485275fe016567fd8114610751575b7fa8d9137ee02dda9849b76493a51586dc45475f3b363c8fc8b3d134685280b74381146106ce575b7f087ecff7ca60b68738fb37e03219d7acf0291a744def7c97de03b25dfe4b910f14610647575b5050506001600160a01b03169081156105d157506020925191817f46dd19b0bfeba14ab8b9e9c9e4179a2f8a3ba70420a845ea8da585dd8e59eeec339280a38152f35b60a490602085519162461bcd60e51b8352820152604460248201527f637265617465536f7665726569676e4e4654436f6e74726163743a3a5f636f6e60448201527f74726163745479706520756e737570706f7274656420636f6e747261637420746064820152633cb8329760e11b6084820152fd5b6003546001600160a01b03945091929091610663908516610d4d565b93841691823b156106ca579161069493918780948a5196879586948593635edc7c1960e01b855233918d8601610d0e565b03925af180156106c0579084916106ac575b8061058e565b6106b590610a48565b6101245782856106a6565b85513d86823e3d90fd5b8680fd5b6002546001600160a01b0395506106e6908616610d4d565b948516803b1561074d57878785928583896107168f5197889687958694635edc7c1960e01b865233928601610d0e565b03925af180156107435790889161072f575b5050610567565b61073890610a48565b6106ca578689610728565b89513d8a823e3d90fd5b8780fd5b6001546001600160a01b039550610769908616610d4d565b948516803b1561074d57878785928583896107998f5197889687958694635edc7c1960e01b865233928601610d0e565b03925af18015610743579088916107b2575b505061053f565b6107bb90610a48565b6106ca5786896107ab565b50503461022a578160031936011261022a57602090517fa8d9137ee02dda9849b76493a51586dc45475f3b363c8fc8b3d134685280b7438152f35b50503461022a578160031936011261022a57602090517f6c556facba1fb001f8d830adc0dcceae3a683a8890dc3299db292ca0c66251708152f35b8334610445578060031936011261044557610855610af0565b600080546001600160a01b0319811682556001600160a01b03167f8be0079c531659141344cd1fd0a4f28419497f9722a3daafe3b4186f6b6457e08280a380f35b50503461022a578160031936011261022a57602090517f8eae45f58440dde5634b0645eea1e0aa7e9dfd92d41ded6de63fc6498057dd688152f35b5090346101245760031990808236011261035f5767ffffffffffffffff93833585811161022a576109059036908601610a72565b9460243590811161022a5761091d9036908601610a72565b9360018060a01b0393846109348160015416610d4d565b1695863b1561035f5791610976608092859461096788519b8c968796635edc7c1960e01b88528701526084860190610cce565b91848303016024850152610cce565b3360448301526000196064830152038183885af19485156109d9576020956109ca575b509051927f46dd19b0bfeba14ab8b9e9c9e4179a2f8a3ba70420a845ea8da585dd8e59eeec339280a3600154168152f35b6109d390610a48565b38610999565b509051903d90823e3d90fd5b50503461022a578160031936011261022a5760055490516001600160a01b039091168152602090f35b84903461022a578160031936011261022a57807f5d53444d40ee2f466d1c91f96d7c4d4b6bcb514ac7911b9a6c947234a2f957c560209252f35b67ffffffffffffffff8111610a5c57604052565b634e487b7160e01b600052604160045260246000fd5b81601f82011215610ad55780359067ffffffffffffffff92838311610a5c5760405193601f8401601f19908116603f0116850190811185821017610a5c5760405282845260208383010111610ad557816000926020809301838601378301015290565b600080fd5b600435906001600160a01b0382168203610ad557565b6000546001600160a01b03163303610b0457565b606460405162461bcd60e51b815260206004820152602060248201527f4f776e61626c653a2063616c6c6572206973206e6f7420746865206f776e65726044820152fd5b6001600160a01b0316908115610ad5577f618bb03e363d77d1aa6e06dbc7ec814178513d4ccfaa94fb485275fe016567fd8114610c50577fa8d9137ee02dda9849b76493a51586dc45475f3b363c8fc8b3d134685280b7438114610c3a577f087ecff7ca60b68738fb37e03219d7acf0291a744def7c97de03b25dfe4b910f14610c255760405162461bcd60e51b815260206004820152602b60248201527f736574536f7665726569676e4e46543a3a556e737570706f72746564205f636f60448201526a373a3930b1ba2a3cb8329760a91b6064820152608490fd5b6001600160601b0360a01b6003541617600355565b506001600160601b0360a01b6002541617600255565b506001600160601b0360a01b6001541617600155565b15610c6d57565b60405162461bcd60e51b815260206004820152603360248201527f637265617465536f7665726569676e4e4654436f6e74726163743a3a5f6d6178604482015272546f6b656e732063616e74206265207a65726f60681b6064820152608490fd5b919082519283825260005b848110610cfa575050826000602080949584010152601f8019910116010190565b602081830181015184830182015201610cd9565b90606092610d2b610d399297969597608085526080850190610cce565b908382036020850152610cce565b6001600160a01b0390951660408201520152565b6e5af43d82803e903d91602b57fd5bf390763d602d80600a3d3981f3363d3d373d3d3d363d7300000062ffffff8260881c161760005260781b17602052603760096000f0906001600160a01b03821615610da357565b60405162461bcd60e51b8152602060048201526016602482015275115490cc4c4d8dce8818dc99585d194819985a5b195960521b6044820152606490fdfea264697066735822122024d7c9d31eae9d24fde63efb15a1563014e3a2628a21f308a76fbfc58465238c64736f6c6343000812003360808060405234610016576126eb908161001c8239f35b600080fdfe6080604081815260048036101561001557600080fd5b600092833560e01c90816301ffc9a7146114b25750806306fdde0314611408578063081812fc146113e8578063095ea7b31461127757806318160ddd1461125757806323b872dd146112325780632a55205a146111a05780633403c4e9146111775780633ebc82c51461113557806340c1a0641461110b57806342842e0e146110d757806342966c68146110ba5780634aa52c41146110495780635edc7c1914610b3e5780636297c16c14610ac25780636352211e14610a9157806370a08231146109fb578063715018a61461099e5780637cc918d114610678578063894ba8331461062a5780638da5cb5b1461060157806395d89b411461051c578063a22cb4651461044d578063ab69607a1461042e578063b88d4fde146103a3578063c87b56dd14610368578063d9856c21146102fb578063e8315742146102db578063e985e9c51461028d578063ee0708051461026a578063efc32cd4146102175763f2fde38b1461018357600080fd5b346102135760203660031901126102135761019c611597565b916101a56116e8565b6001600160a01b038316156101c157836101be84611740565b80f35b906020608492519162461bcd60e51b8352820152602660248201527f4f776e61626c653a206e6577206f776e657220697320746865207a65726f206160448201526564647265737360d01b6064820152fd5b8280fd5b505034610266578060031936011261026657610231611597565b9061023a6116e8565b602435835260fd602052822080546001600160a01b0319166001600160a01b0390921691909117905580f35b5080fd5b50503461026657816003193601126102665760209060ff80541690519015158152f35b50503461026657806003193601126102665760ff816020936102ad611597565b6102b56115b2565b6001600160a01b039182168352609c875283832091168252855220549151911615158152f35b505034610266578160031936011261026657602090610100549051908152f35b83823461026657602036600319011261026657803567ffffffffffffffff811161021357366023820112156102135761036491816024610340933693013591016116b1565b6103486116e8565b61035660ff80541615611b49565b60fc54339182908190611d35565b5080f35b5091346103a05760203660031901126103a0575061038961039c9235612073565b9051918291602083526020830190611572565b0390f35b80fd5b838234610266576080366003190112610266576103be611597565b906103c76115b2565b916044356064359367ffffffffffffffff851161042a573660238601121561042a57610402610425948660246101be983693013591016116b1565b9261041561041084336122c9565b611869565b6104208383836123fb565b611a5e565b61191e565b8580fd5b50503461026657816003193601126102665760209060fc549051908152f35b509034610213578060031936011261021357610467611597565b9060243591821515809303610518576001600160a01b0316923384146104d65750338452609c60205280842083855260205280842060ff1981541660ff8416179055519081527f17307eab39ab6107e8899845ad3d59bd9653f200f220920489ca2b5937696c3160203392a380f35b6020606492519162461bcd60e51b8352820152601960248201527f4552433732313a20617070726f766520746f2063616c6c6572000000000000006044820152fd5b8480fd5b5050346102665781600319360112610266578051908260985461053e81611789565b808552916001918083169081156105d9575060011461057c575b50505061056a8261039c940383611673565b51918291602083526020830190611572565b9450609885527f2237a976fa961f5921fd19f2b03c925c725d77b20ce8f790c19709c03de4d8145b8286106105c15750505061056a82602061039c9582010194610558565b805460208787018101919091529095019481016105a4565b61039c97508693506020925061056a94915060ff191682840152151560051b82010194610558565b50503461026657816003193601126102665760335490516001600160a01b039091168152602090f35b83346103a057806003193601126103a0576106436116e8565b600160ff1960ff54161760ff55337f793bc6423dd0257d64f9d47db72fd4b2162f4541aa41740ba1c5fb5e2cd41bcd8280a280f35b5091903461026657806003193601126102665767ffffffffffffffff92803584811161099a576106ab9036908301611613565b906106b46116e8565b6106c260ff80541615611b49565b610104908154926001978885019485811161098757602490813501938a850180881161097557851161096357885195602096878101818110868211176108fd578b5286905285905561010054851161092157885190606082018281108582111761090f579061073e918b528883528783019587875236916116b1565b93898201948552610105805490680100000000000000008210156108fd578d8201905561076a90611b95565b9290926108ec579060029291518255518c8201550192519687519283116108db5750506107978254611789565b601f8111610899575b50879888969798508497601f8311600114610815578291889983927fdeaa91b6123d068f5821d0fb0678463d1a8a6079fe8af5de3ce5e896dcf9133d999a9461080a575b50501b916000199060031b1c19161790555b60018060a01b03603354169551908152a480f35b0151925038806107e4565b8388528588209098919291601f198316895b818110610881575099837fdeaa91b6123d068f5821d0fb0678463d1a8a6079fe8af5de3ce5e896dcf9133d999a9b10610868575b505050811b0190556107f6565b015160001960f88460031b161c1916905538808061085b565b828c015184558d9a5092850192918801918801610827565b828952848920601f830160051c8101918684106108d1575b601f0160051c01905b8181106108c757506107a0565b8981558a016108ba565b90915081906108b1565b634e487b7160e01b8a526041905288fd5b634e487b7160e01b8c528b8a52838cfd5b634e487b7160e01b8d5260418b52848dfd5b634e487b7160e01b8c5260418a52838cfd5b885162461bcd60e51b8152808901879052601d818401527f62617463684d696e743a3a6578636565646564206d6178546f6b656e730000006044820152606490fd5b50634e487b7160e01b89526011875288fd5b634e487b7160e01b8b5260118952828bfd5b634e487b7160e01b895260118752602489fd5b8380fd5b83346103a057806003193601126103a0576109b76116e8565b603380546001600160a01b0319811690915581906001600160a01b03167f8be0079c531659141344cd1fd0a4f28419497f9722a3daafe3b4186f6b6457e08280a380f35b50829034610266576020366003190112610266576001600160a01b03610a1f611597565b16908115610a3c576020848085858152609a845220549051908152f35b608490602085519162461bcd60e51b8352820152602960248201527f4552433732313a2061646472657373207a65726f206973206e6f7420612076616044820152683634b21037bbb732b960b91b6064820152fd5b5091346103a05760203660031901126103a05750610ab160209235612259565b90516001600160a01b039091168152f35b503461021357602036600319011261021357803591610ae083612259565b336001600160a01b0390911603610afb57836101be84611be7565b906020606492519162461bcd60e51b8352820152601760248201527f4d757374206265206f776e6572206f6620746f6b656e2e0000000000000000006044820152fd5b508290346102665760803660031901126102665767ffffffffffffffff92813584811161099a57610b729036908401611613565b929060243586811161042a57610b8b9036908401611613565b610b969791976115c8565b9387549860ff94858b60081c16159889809a61103d575b8015611027575b15610fcd5760ff19808d1660019081178d559b9c999a998a610fbc575b506001600160a01b03891615610f795791610c2491610c14898f610c2c9796600a60fc558254168255606435610100555460081c16610c0f81611ae9565b611ae9565b610c1d33611740565b36916116b1565b9336916116b1565b90610c40858b5460081c16610c0f81611ae9565b8251848111610f665780610c55609754611789565b94601f95868111610ef5575b506020908d878411600114610e765792610e6b575b5050600019600383901b1c1916908a1b176097555b8151938411610e585750610ca0609854611789565b828111610df5575b506020918311600114610d69579180610d1d959492610cf5948b92610d5e575b5050600019600383901b1c191690881b176098555b875460081c16610cec81611ae9565b610c0f81611ae9565b60fb80546001600160a01b0319166001600160a01b038316179055610d186116e8565b611740565b610d25578280f35b825461ff0019168355519081527f7f26b83ff96e1f2b6a682f133852f6798a09c465da95921460cefb384740249890602090a181808280f35b015190508a80610cc8565b609889528792917f2237a976fa961f5921fd19f2b03c925c725d77b20ce8f790c19709c03de4d81491601f1984168b5b818110610ddd575091610cf595939185610d1d9998969410610dc4575b505050811b01609855610cdd565b015160001960f88460031b161c191690558a8080610db6565b8284015185558b969094019360209384019301610d99565b60988a527f2237a976fa961f5921fd19f2b03c925c725d77b20ce8f790c19709c03de4d8148380860160051c82019260208710610e4f575b0160051c019089905b828110610e44575050610ca8565b8b8155018990610e36565b92508192610e2d565b634e487b7160e01b8a5260419052602489fd5b015190508c80610c76565b91908d9450601f198416609784527f354a83ed9988f79f6038d4c7a7dadbad8af32f4ad6df893e0e5807a1b1944ff9935b818110610edd57508411610ec4575b505050811b01609755610c8b565b015160001960f88460031b161c191690558c8080610eb6565b8284015185558f969094019360209384019301610ea7565b90915060978d527f354a83ed9988f79f6038d4c7a7dadbad8af32f4ad6df893e0e5807a1b1944ff98680850160051c82019260208610610f5d575b859493910160051c909101908d908f5b838210610f4f57505050610c61565b81558594508e91018f610f40565b92508192610f30565b634e487b7160e01b8b526041825260248bfd5b8a5162461bcd60e51b8152602081870152601e60248201527f63726561746f722063616e6e6f74206265206e756c6c206164647265737300006044820152606490fd5b61ffff1916610101178d558d610bd1565b885162461bcd60e51b8152602081860152602e60248201527f496e697469616c697a61626c653a20636f6e747261637420697320616c72656160448201526d191e481a5b9a5d1a585b1a5e995960921b6064820152608490fd5b50303b158015610bb457506001878d1614610bb4565b506001878d1610610bad565b83823461026657606036600319011261026657803567ffffffffffffffff8111610213576103649161107d91369101611613565b906110866115b2565b61108e6115c8565b926110976116e8565b6110a560ff80541615611b49565b6110b560fc5493339236916116b1565b611d35565b838234610266576020366003190112610266576101be9035611be7565b505034610266576104256101be916110ee366115de565b919251926110fb84611641565b86845261041561041084336122c9565b5050346102665760203660031901126102665760335490516001600160a01b039091168152602090f35b83346103a05760203660031901126103a0576101be611152611597565b61115a6116e8565b60018060a01b03166001600160601b0360a01b60fb54161760fb55565b50503461026657816003193601126102665760fb5490516001600160a01b039091168152602090f35b5091346103a057816003193601126103a0578235815260fd60205281812054602435906001600160a01b03908116801561122657925b60fe60205284812054801561121c57925b8381029381850414901517156112095750835192168252606490046020820152f35b634e487b7160e01b815260118652602490fd5b5060fc54926111e7565b508060fb5416926111d6565b83346103a0576101be611244366115de565b9161125261041084336122c9565b6123fb565b505034610266578160031936011261026657602090610104549051908152f35b5034610213578160031936011261021357611290611597565b6024359290916001600160a01b03919082806112ab87612259565b1694169380851461139b5780331490811561137c575b50156113145750838552610103602052842080546001600160a01b031916831790556112ec83611ccf565b167f8c5be1e5ebec7d5bd14f71427d1e84f3dd0314c0f7b2291e5b200ac8c7c3b9258480a480f35b6020608492519162461bcd60e51b8352820152603860248201527f4552433732313a20617070726f76652063616c6c6572206973206e6f74206f7760448201527f6e6572206e6f7220617070726f76656420666f7220616c6c00000000000000006064820152fd5b90508652609c60205281862033875260205260ff8287205416386112c1565b506020608492519162461bcd60e51b8352820152602160248201527f4552433732313a20617070726f76616c20746f2063757272656e74206f776e656044820152603960f91b6064820152fd5b5091346103a05760203660031901126103a05750610ab160209235612333565b5050346102665781600319360112610266578051908260975461142a81611789565b808552916001918083169081156105d957506001146114555750505061056a8261039c940383611673565b9450609785527f354a83ed9988f79f6038d4c7a7dadbad8af32f4ad6df893e0e5807a1b1944ff95b82861061149a5750505061056a82602061039c9582010194610558565b8054602087870181019190915290950194810161147d565b92505034610213576020366003190112610213573563ffffffff60e01b81169081810361099a5760209350631030681960e21b821491821561153e575b8215611515575b508115611505575b5015158152f35b61150f9150612671565b386114fe565b90915063152a902d60e11b14801561152f575b90386114f6565b5061153981612671565b611528565b6301ffc9a760e01b811492506114ef565b60005b8381106115625750506000910152565b8181015183820152602001611552565b9060209161158b8151809281855285808601910161154f565b601f01601f1916010190565b600435906001600160a01b03821682036115ad57565b600080fd5b602435906001600160a01b03821682036115ad57565b604435906001600160a01b03821682036115ad57565b60609060031901126115ad576001600160a01b039060043582811681036115ad579160243590811681036115ad579060443590565b9181601f840112156115ad5782359167ffffffffffffffff83116115ad57602083818601950101116115ad57565b6020810190811067ffffffffffffffff82111761165d57604052565b634e487b7160e01b600052604160045260246000fd5b90601f8019910116810190811067ffffffffffffffff82111761165d57604052565b67ffffffffffffffff811161165d57601f01601f191660200190565b9291926116bd82611695565b916116cb6040519384611673565b8294818452818301116115ad578281602093846000960137010152565b6033546001600160a01b031633036116fc57565b606460405162461bcd60e51b815260206004820152602060248201527f4f776e61626c653a2063616c6c6572206973206e6f7420746865206f776e65726044820152fd5b603380546001600160a01b039283166001600160a01b0319821681179092559091167f8be0079c531659141344cd1fd0a4f28419497f9722a3daafe3b4186f6b6457e0600080a3565b90600182811c921680156117b9575b60208310146117a357565b634e487b7160e01b600052602260045260246000fd5b91607f1691611798565b90604051918260008254926117d784611789565b9081845260019485811690816000146118465750600114611803575b505061180192500383611673565b565b9093915060005260209081600020936000915b81831061182e575050611801935082010138806117f3565b85548884018501529485019487945091830191611816565b91505061180194506020925060ff191682840152151560051b82010138806117f3565b1561187057565b60405162461bcd60e51b815260206004820152602d60248201527f4552433732313a2063616c6c6572206973206e6f7420746f6b656e206f776e6560448201526c1c881bdc88185c1c1c9bdd9959609a1b6064820152608490fd5b60809060208152603260208201527f4552433732313a207472616e7366657220746f206e6f6e20455243373231526560408201527131b2b4bb32b91034b6b83632b6b2b73a32b960711b60608201520190565b1561192557565b60405162461bcd60e51b81528061193e600482016118cb565b0390fd5b9192600092909190803b15611a5457611990946040518092630a85bd0160e11b9485835233600484015287602484015260448301526080606483015281878160209a8b966084830190611572565b03926001600160a01b03165af1849181611a14575b50611a03575050503d6000146119fb573d6119bf81611695565b906119cd6040519283611673565b81528091833d92013e5b805191826119f85760405162461bcd60e51b81528061193e600482016118cb565b01fd5b5060606119d7565b6001600160e01b0319161492509050565b9091508581813d8311611a4d575b611a2c8183611673565b8101031261051857516001600160e01b0319811681036105185790386119a5565b503d611a22565b5050915050600190565b9293600093909291803b15611ade57948491611ab89660405180948193630a85bd0160e11b9788845233600485015260018060a01b0380921660248501526044840152608060648401528260209b8c976084830190611572565b0393165af1849181611a145750611a03575050503d6000146119fb573d6119bf81611695565b505050915050600190565b15611af057565b60405162461bcd60e51b815260206004820152602b60248201527f496e697469616c697a61626c653a20636f6e7472616374206973206e6f74206960448201526a6e697469616c697a696e6760a81b6064820152608490fd5b15611b5057565b60405162461bcd60e51b815260206004820152601e60248201527f436f6e7472616374206d757374206e6f742062652064697361626c65642e00006044820152606490fd5b610105908154811015611bd157600391600052027ffc62abc8c0fc47c2d92f5aec99bf8b60f375828e14394d89345cae11a98673710190600090565b634e487b7160e01b600052603260045260246000fd5b611bf0816125d0565b5050600082815261010260205260408120805460ff191660011790559080611cb0575b611cac57611c2461041083336122c9565b611c2d82611ccf565b50611c3782611ccf565b828252609b6020908152604080842080546001600160a01b03199081169091556001600160a01b03909316808552609a835281852080546000190190558585526099909252832080549092169091557fddf252ad1be2c89b69c2b068fc378daa952ba7f163c4a11628f55a4df523b3ef8280a4565b5050565b506000828152609960205260409020546001600160a01b031615611c13565b6000908152609960205260409020546001600160a01b03168015611cf05790565b60405162461bcd60e51b815260206004820152601860248201527f4552433732313a20696e76616c696420746f6b656e20494400000000000000006044820152606490fd5b939290916001946101049580875401809755610100548711611eef57611d79610425604051611d6381611641565b89600096878352611d748282611f7f565b611942565b8683526020916101068352604084209181519167ffffffffffffffff8311611edb57611da58454611789565b601f8111611e95575b508490601f8411600114611e2c57928060fd9593819389989660409a94611e21575b50501b916000199060031b1c19161790555b87835261010181528383209460018060a01b0395866001600160601b0360a01b98168882541617905560fe825284842055522092169082541617905590565b015192503880611dd0565b8487528587209293929190601f198416885b818110611e80575091604098979593918560fd98969410611e67575b505050811b019055611de2565b015160001960f88460031b161c19169055388080611e5a565b82840151855593860193928801928801611e3e565b848752858720601f850160051c810191878610611ed1575b601f0160051c019083905b828110611ec6575050611dae565b888155018390611eb8565b9091508190611ead565b634e487b7160e01b86526041600452602486fd5b606460405162461bcd60e51b815260206004820152602060248201527f5f637265617465546f6b656e3a3a6578636565646564206d6178546f6b656e736044820152fd5b15611f3a57565b60405162461bcd60e51b815260206004820152601c60248201527f4552433732313a20746f6b656e20616c7265616479206d696e746564000000006044820152606490fd5b6001600160a01b0316801561202f57600082815260996020526040902054611fb3906001600160a01b031615155b15611f33565b600082815260996020526040902054611fd6906001600160a01b03161515611fad565b6000818152609a6020526040812060018154019055828152609960205260408120826001600160601b0360a01b8254161790557fddf252ad1be2c89b69c2b068fc378daa952ba7f163c4a11628f55a4df523b3ef8180a4565b606460405162461bcd60e51b815260206004820152602060248201527f4552433732313a206d696e7420746f20746865207a65726f20616464726573736044820152fd5b61207c816125d0565b911515905061209f575060005261010660205261209c60406000206117c3565b90565b90600090807a184f03e93ff9f4daa797ed6e38ed64bf6a1f010000000000000000818181101561224b575b50506d04ee2d6d415b85acef81000000008082101561223e575b50662386f26fc1000080821015612231575b506305f5e10080821015612224575b5061271080821015612217575b506064811015612209575b600a809110156121ff575b60018084019281602161215361213d87611695565b9661214b6040519889611673565b808852611695565b602087019790601f1901368937860101905b6121c9575b505050506121ac9261209c92602692604051958361219288955180926020808901910161154f565b840191602f60f81b6020840152518093602184019061154f565b0164173539b7b760d91b6021820152036006810184520182611673565b600019019083906f181899199a1a9b1b9c1cb0b131b232b360811b8282061a8353049182156121fa57919082612165565b61216a565b9160010191612128565b60646002910492019161211d565b6004910492019138612112565b6008910492019138612105565b60109104920191386120f6565b60209104920191386120e4565b6040945004905038806120ca565b612262816125d0565b50506122715761209c90611ccf565b8060005261010260205260ff604060002054166000146122945761209c90611ccf565b6000818152609960205260409020546001600160a01b03166122c057506033546001600160a01b031690565b61209c90611ccf565b6001600160a01b039081806122dd85612259565b1691169181831493841561231c575b505082156122f957505090565b909150600052609c60205260406000209060005260205260ff6040600020541690565b8392945061232990612333565b16149138806122ec565b600081815260fd60205260408120546001600160a01b039291908316612358836125d0565b50509081156123f1575b50806123d9575b1561237f57604091815261010360205220541690565b60405162461bcd60e51b815260206004820152602c60248201527f4552433732313a20617070726f76656420717565727920666f72206e6f6e657860448201526b34b9ba32b73a103a37b5b2b760a11b6064820152608490fd5b5081815261010260205260ff60408220541615612369565b9050151538612362565b9082156115ad576124459161240f846125d0565b505080612557575b8061253d575b61252e575b61242b84611ccf565b6001600160a01b0393918416928492909183168414612576565b169182156124dd57816124629161245b86611ccf565b1614612576565b7fddf252ad1be2c89b69c2b068fc378daa952ba7f163c4a11628f55a4df523b3ef6000848152609b602052604081206001600160601b0360a01b90818154169055838252609a6020526040822060001981540190558482526040822060018154019055858252609960205284604083209182541617905580a4565b60405162461bcd60e51b8152602060048201526024808201527f4552433732313a207472616e7366657220746f20746865207a65726f206164646044820152637265737360e01b6064820152608490fd5b6125388482611f7f565b612422565b508360005261010260205260ff604060002054161561241d565b506000848152609960205260409020546001600160a01b031615612417565b1561257d57565b60405162461bcd60e51b815260206004820152602560248201527f4552433732313a207472616e736665722066726f6d20696e636f72726563742060448201526437bbb732b960d91b6064820152608490fd5b61010554919060005b8381106125fd57505090506000906000906040516125f681611641565b6000815290565b61260681611b95565b50548210158061265a575b61263c576000198114612626576001016125d9565b634e487b7160e01b600052601160045260246000fd5b8093506126499150611b95565b509061209c600260019493016117c3565b50600161266682611b95565b500154821115612611565b63ffffffff60e01b166380ac58cd60e01b81149081156126a4575b8115612696575090565b6301ffc9a760e01b14919050565b635b5e139f60e01b8114915061268c56fea26469706673582212202506f26fa7d24cbc1690ebf6e03bfb199170c880dd4c2cb3b58b29370d1d98ea64736f6c634300081200336080806040523461001657613059908161001c8239f35b600080fdfe6040608081526004908136101561001557600080fd5b600091823560e01c8063012cf1e814611b7357806301ffc9a714611a9d57806306fdde03146119f3578063081812fc146119d3578063095ea7b3146117b757806318160ddd14611797578063204274861461176357806323b872dd1461173e5780632a55205a146116ac5780632ce878da146116395780633403c4e9146116105780633ebc82c5146115ce57806340c1a064146115a457806342842e0e1461157057806342966c6814611553578063472a6638146114c35780634aa52c41146114525780635edc7c1914610f475780636297c16c14610ecb5780636352211e14610e9a57806370a0823114610e04578063715018a614610da75780637cc918d114610a8a57806387bc793f14610a62578063894ba83314610a145780638da5cb5b146109eb57806395d89b41146109065780639e860f2a14610815578063a22cb46514610693578063ab69607a14610674578063b88d4fde146105e9578063bc7194551461053b578063c87b56dd14610500578063d9856c2114610497578063e831574214610477578063e985e9c514610429578063eab85118146103ce578063ee070805146103ab578063efc32cd414610358578063f2fde38b146102c75763ff6e8c8f146101e457600080fd5b346102c3576101f236611d3f565b90919260018060a01b0394856033541633036102b65760038510156102a357841561029657505090610225913691612240565b92805b84518110156102925761028d90610254610241856122a7565b8661024c848a6122e6565b511690612328565b50838561026183896122e6565b5116337f14155f749dc3f9cd2bf890d6d3a47069f77ae35befcee11c8b1a3ba41cba15368680a46122c1565b610228565b5080f35b51632de777a160e11b8152fd5b634e487b7160e01b875260218252602487fd5b51635c510c8360e11b8152fd5b8280fd5b50346102c35760203660031901126102c3576102e1611c6c565b916102ea611e3f565b6001600160a01b03831615610306578361030384611e97565b80f35b906020608492519162461bcd60e51b8352820152602660248201527f4f776e61626c653a206e6577206f776e657220697320746865207a65726f206160448201526564647265737360d01b6064820152fd5b5050346103a757806003193601126103a757610372611c6c565b9061037b611e3f565b602435835260fd602052822080546001600160a01b0319166001600160a01b0390921691909117905580f35b5080fd5b5050346103a757816003193601126103a75760209060ff80541690519015158152f35b5050346103a75760203660031901126103a7576020906104206103ef611c6c565b6103fe60ff61010854166122a7565b6001600160a01b03909116600090815260019091016020526040902054151590565b90519015158152f35b5050346103a757806003193601126103a75760ff81602093610449611c6c565b610451611c87565b6001600160a01b039182168352609c875283832091168252855220549151911615158152f35b5050346103a757816003193601126103a757602090610100549051908152f35b8382346103a75760203660031901126103a757803567ffffffffffffffff81116102c357366023820112156102c357610292918160246104dc93369301359101611e08565b6104e4611e3f565b6104f260ff805416156124e6565b60fc543391829081906126bc565b509134610538576020366003190112610538575061052161053492356129fa565b9051918291602083526020830190611c47565b0390f35b80fd5b5090346102c35760203660031901126102c35781359160038310156105e5576033546001600160a01b031633036105d75750610576826122a7565b805490848155816105b9575b50507f7efc19cf93d497a6a56103ea89a39d51c0cad74a817ed3cd0ecaff9823d4da249051806105b3339482611d16565b0390a280f35b845260208420908101905b81811015610582578481556001016105c4565b9051635c510c8360e11b8152fd5b8380fd5b8382346103a75760803660031901126103a757610604611c6c565b9061060d611c87565b916044356064359367ffffffffffffffff851161067057366023860112156106705761064861066b9486602461030398369301359101611e08565b9261065b6106568433612c50565b611fc0565b610666838383612d82565b6121b5565b612075565b8580fd5b5050346103a757816003193601126103a75760209060fc549051908152f35b5090346102c357806003193601126102c3576106ad611c6c565b90602435918215158093036108115760ff610108541660038110156107fe57600181036107b45750600180865261010760209081528387206001600160a01b0384166000908152920190526040902054156107a5575b6001600160a01b0316923384146107635750338452609c60205280842083855260205280842060ff1981541660ff8416179055519081527f17307eab39ab6107e8899845ad3d59bd9653f200f220920489ca2b5937696c3160203392a380f35b6020606492519162461bcd60e51b8352820152601960248201527f4552433732313a20617070726f766520746f2063616c6c6572000000000000006044820152fd5b81516282b42960e81b81528490fd5b60020361070357600285526101076020526107ea82862060018060a01b0383169060019160005201602052604060002054151590565b156107035781516282b42960e81b81528490fd5b634e487b7160e01b865260218552602486fd5b8480fd5b5090346102c35761082536611d3f565b6033546001600160a01b039490851633036108f7575090610847913691612240565b91600382101590816107fe578261085c578580f35b8591929394955b85518110156108e75761088b610878866122a7565b83610883848a6122e6565b511690612396565b50838261089883896122e6565b5116906108d45790856108cf92337fc72e29af1b34de3dec3a764b4ca4d85b9c380ab33b9b268d29b6e7008bd0ed958780a46122c1565b610863565b634e487b7160e01b845260218852602484fd5b5050935050505038808080808580f35b51635c510c8360e11b81528590fd5b5050346103a757816003193601126103a7578051908260985461092881611ee0565b808552916001918083169081156109c35750600114610966575b50505061095482610534940383611dca565b51918291602083526020830190611c47565b9450609885527f2237a976fa961f5921fd19f2b03c925c725d77b20ce8f790c19709c03de4d8145b8286106109ab575050506109548260206105349582010194610942565b8054602087870181019190915290950194810161098e565b61053497508693506020925061095494915060ff191682840152151560051b82010194610942565b5050346103a757816003193601126103a75760335490516001600160a01b039091168152602090f35b8334610538578060031936011261053857610a2d611e3f565b600160ff1960ff54161760ff55337f793bc6423dd0257d64f9d47db72fd4b2162f4541aa41740ba1c5fb5e2cd41bcd8280a280f35b5050346103a757816003193601126103a7576105349060ff6101085416905191829182611d16565b509190346103a757806003193601126103a75767ffffffffffffffff9280358481116105e557610abd9036908301611ce8565b90610ac6611e3f565b610ad460ff805416156124e6565b6101049081549260019788850194858111610d9457602490813501938a8501808811610d82578511610d705788519560209687810181811086821117610d0a578b52869052859055610100548511610d2e578851906060820182811085821117610d1c5790610b50918b52888352878301958787523691611e08565b93898201948552610105805490600160401b821015610d0a578d82019055610b7790612532565b929092610cf9579060029291518255518c820155019251968751928311610ce8575050610ba48254611ee0565b601f8111610ca6575b50879888969798508497601f8311600114610c22578291889983927fdeaa91b6123d068f5821d0fb0678463d1a8a6079fe8af5de3ce5e896dcf9133d999a94610c17575b50501b916000199060031b1c19161790555b60018060a01b03603354169551908152a480f35b015192503880610bf1565b8388528588209098919291601f198316895b818110610c8e575099837fdeaa91b6123d068f5821d0fb0678463d1a8a6079fe8af5de3ce5e896dcf9133d999a9b10610c75575b505050811b019055610c03565b015160001960f88460031b161c19169055388080610c68565b828c015184558d9a5092850192918801918801610c34565b828952848920601f830160051c810191868410610cde575b601f0160051c01905b818110610cd45750610bad565b8981558a01610cc7565b9091508190610cbe565b634e487b7160e01b8a526041905288fd5b634e487b7160e01b8c528b8a52838cfd5b634e487b7160e01b8d5260418b52848dfd5b634e487b7160e01b8c5260418a52838cfd5b885162461bcd60e51b8152808901879052601d818401527f62617463684d696e743a3a6578636565646564206d6178546f6b656e730000006044820152606490fd5b50634e487b7160e01b89526011875288fd5b634e487b7160e01b8b5260118952828bfd5b634e487b7160e01b895260118752602489fd5b8334610538578060031936011261053857610dc0611e3f565b603380546001600160a01b0319811690915581906001600160a01b03167f8be0079c531659141344cd1fd0a4f28419497f9722a3daafe3b4186f6b6457e08280a380f35b508290346103a75760203660031901126103a7576001600160a01b03610e28611c6c565b16908115610e45576020848085858152609a845220549051908152f35b608490602085519162461bcd60e51b8352820152602960248201527f4552433732313a2061646472657373207a65726f206973206e6f7420612076616044820152683634b21037bbb732b960b91b6064820152fd5b5091346105385760203660031901126105385750610eba60209235612be0565b90516001600160a01b039091168152f35b50346102c35760203660031901126102c357803591610ee983612be0565b336001600160a01b0390911603610f0457836103038461256e565b906020606492519162461bcd60e51b8352820152601760248201527f4d757374206265206f776e6572206f6620746f6b656e2e0000000000000000006044820152fd5b508290346103a75760803660031901126103a75767ffffffffffffffff9281358481116105e557610f7b9036908401611ce8565b929060243586811161067057610f949036908401611ce8565b610f9f979197611c9d565b9387549860ff94858b60081c16159889809a611446575b8015611430575b156113d65760ff19808d1660019081178d559b9c999a998a6113c5575b506001600160a01b03891615611382579161102d9161101d898f6110359796600a60fc558254168255606435610100555460081c1661101881612486565b612486565b61102633611e97565b3691611e08565b933691611e08565b90611049858b5460081c1661101881612486565b825184811161136f578061105e609754611ee0565b94601f958681116112fe575b506020908d87841160011461127f5792611274575b5050600019600383901b1c1916908a1b176097555b815193841161126157506110a9609854611ee0565b8281116111fe575b5060209183116001146111725791806111269594926110fe948b92611167575b5050600019600383901b1c191690881b176098555b875460081c166110f581612486565b61101881612486565b60fb80546001600160a01b0319166001600160a01b038316179055611121611e3f565b611e97565b61112e578280f35b825461ff0019168355519081527f7f26b83ff96e1f2b6a682f133852f6798a09c465da95921460cefb384740249890602090a181808280f35b015190508a806110d1565b609889528792917f2237a976fa961f5921fd19f2b03c925c725d77b20ce8f790c19709c03de4d81491601f1984168b5b8181106111e65750916110fe9593918561112699989694106111cd575b505050811b016098556110e6565b015160001960f88460031b161c191690558a80806111bf565b8284015185558b9690940193602093840193016111a2565b60988a527f2237a976fa961f5921fd19f2b03c925c725d77b20ce8f790c19709c03de4d8148380860160051c82019260208710611258575b0160051c019089905b82811061124d5750506110b1565b8b815501899061123f565b92508192611236565b634e487b7160e01b8a5260419052602489fd5b015190508c8061107f565b91908d9450601f198416609784527f354a83ed9988f79f6038d4c7a7dadbad8af32f4ad6df893e0e5807a1b1944ff9935b8181106112e6575084116112cd575b505050811b01609755611094565b015160001960f88460031b161c191690558c80806112bf565b8284015185558f9690940193602093840193016112b0565b90915060978d527f354a83ed9988f79f6038d4c7a7dadbad8af32f4ad6df893e0e5807a1b1944ff98680850160051c82019260208610611366575b859493910160051c909101908d908f5b8382106113585750505061106a565b81558594508e91018f611349565b92508192611339565b634e487b7160e01b8b526041825260248bfd5b8a5162461bcd60e51b8152602081870152601e60248201527f63726561746f722063616e6e6f74206265206e756c6c206164647265737300006044820152606490fd5b61ffff1916610101178d558d610fda565b885162461bcd60e51b8152602081860152602e60248201527f496e697469616c697a61626c653a20636f6e747261637420697320616c72656160448201526d191e481a5b9a5d1a585b1a5e995960921b6064820152608490fd5b50303b158015610fbd57506001878d1614610fbd565b506001878d1610610fb6565b8382346103a75760603660031901126103a757803567ffffffffffffffff81116102c3576102929161148691369101611ce8565b9061148f611c87565b611497611c9d565b926114a0611e3f565b6114ae60ff805416156124e6565b6114be60fc549333923691611e08565b6126bc565b50346102c35760203660031901126102c35780359160038310156105e5576033546001600160a01b031633036102b657506101089182549160ff83169060038210156115405750908060ff92337f12282389323caf08dd4e02c490ef05bc7edb56967c085742687aad3cc81aa15f8880a4169060ff191617905580f35b634e487b7160e01b865260219052602485fd5b8382346103a75760203660031901126103a757610303903561256e565b5050346103a75761066b6103039161158736611cb3565b9192519261159484611d98565b86845261065b6106568433612c50565b5050346103a75760203660031901126103a75760335490516001600160a01b039091168152602090f35b8334610538576020366003190112610538576103036115eb611c6c565b6115f3611e3f565b60018060a01b03166001600160601b0360a01b60fb54161760fb55565b5050346103a757816003193601126103a75760fb5490516001600160a01b039091168152602090f35b82843461053857806003193601126105385761165a60ff61010854166122a7565b9180519182845490818152602080910195835280832092905b82821061169557610534868661168b828b0383611dca565b5191829182611be0565b835487529586019560019384019390910190611673565b5091346105385781600319360112610538578235815260fd60205281812054602435906001600160a01b03908116801561173257925b60fe60205284812054801561172857925b8381029381850414901517156117155750835192168252606490046020820152f35b634e487b7160e01b815260118652602490fd5b5060fc54926116f3565b508060fb5416926116e2565b83346105385761030361175036611cb3565b9161175e6106568433612c50565b612d82565b5050346103a75760203660031901126103a757602090611781611c6c565b60018060a01b0380603354169116149051908152f35b5050346103a757816003193601126103a757602090610104549051908152f35b50346102c357816003193601126102c3576117d0611c6c565b906024359260ff610108541660038110156119c057600181036119795750600180865261010760209081528287206001600160a01b03861660009081529201905260409020541561196d575b6001600160a01b0391828061183087612be0565b1694169380851461192057803314908115611901575b50156118995750838552610103602052842080546001600160a01b0319168317905561187183612656565b167f8c5be1e5ebec7d5bd14f71427d1e84f3dd0314c0f7b2291e5b200ac8c7c3b9258480a480f35b6020608492519162461bcd60e51b8352820152603860248201527f4552433732313a20617070726f76652063616c6c6572206973206e6f74206f7760448201527f6e6572206e6f7220617070726f76656420666f7220616c6c00000000000000006064820152fd5b90508652609c60205281862033875260205260ff828720541638611846565b506020608492519162461bcd60e51b8352820152602160248201527f4552433732313a20617070726f76616c20746f2063757272656e74206f776e656044820152603960f91b6064820152fd5b516282b42960e81b8152fd5b60020361181c57600285526101076020526119af81862060018060a01b0385169060019160005201602052604060002054151590565b1561181c57516282b42960e81b8152fd5b634e487b7160e01b865260218352602486fd5b5091346105385760203660031901126105385750610eba60209235612cba565b5050346103a757816003193601126103a75780519082609754611a1581611ee0565b808552916001918083169081156109c35750600114611a405750505061095482610534940383611dca565b9450609785527f354a83ed9988f79f6038d4c7a7dadbad8af32f4ad6df893e0e5807a1b1944ff95b828610611a85575050506109548260206105349582010194610942565b80546020878701810191909152909501948101611a68565b50346102c35760203660031901126102c35735906001600160e01b031982168083036105e5576020935063fa31a45b60e01b8114928315611b62575b8315611aea575b5050519015158152f35b919250631030681960e21b811491908215611b51575b8215611b28575b508115611b18575b50903880611ae0565b611b229150612fdf565b38611b0f565b90915063152a902d60e11b148015611b42575b9038611b07565b50611b4c81612fdf565b611b3b565b6301ffc9a760e01b81149250611b00565b6301ffc9a760e01b82149350611ad9565b5090346102c357602091826003193601126105e5573560038110156105e557611b9b906122a7565b9281518093808654928381520195835280832092905b828210611bc957610534868661168b828b0383611dca565b835487529586019560019384019390910190611bb1565b6020908160408183019282815285518094520193019160005b828110611c07575050505090565b83516001600160a01b031685529381019392810192600101611bf9565b60005b838110611c375750506000910152565b8181015183820152602001611c27565b90602091611c6081518092818552858086019101611c24565b601f01601f1916010190565b600435906001600160a01b0382168203611c8257565b600080fd5b602435906001600160a01b0382168203611c8257565b604435906001600160a01b0382168203611c8257565b6060906003190112611c82576001600160a01b03906004358281168103611c8257916024359081168103611c82579060443590565b9181601f84011215611c825782359167ffffffffffffffff8311611c825760208381860195010111611c8257565b919060208301926003821015611d295752565b634e487b7160e01b600052602160045260246000fd5b6040600319820112611c82576004356003811015611c82579160243567ffffffffffffffff92838211611c825780602383011215611c82578160040135938411611c825760248460051b83010111611c82576024019190565b6020810190811067ffffffffffffffff821117611db457604052565b634e487b7160e01b600052604160045260246000fd5b90601f8019910116810190811067ffffffffffffffff821117611db457604052565b67ffffffffffffffff8111611db457601f01601f191660200190565b929192611e1482611dec565b91611e226040519384611dca565b829481845281830111611c82578281602093846000960137010152565b6033546001600160a01b03163303611e5357565b606460405162461bcd60e51b815260206004820152602060248201527f4f776e61626c653a2063616c6c6572206973206e6f7420746865206f776e65726044820152fd5b603380546001600160a01b039283166001600160a01b0319821681179092559091167f8be0079c531659141344cd1fd0a4f28419497f9722a3daafe3b4186f6b6457e0600080a3565b90600182811c92168015611f10575b6020831014611efa57565b634e487b7160e01b600052602260045260246000fd5b91607f1691611eef565b9060405191826000825492611f2e84611ee0565b908184526001948581169081600014611f9d5750600114611f5a575b5050611f5892500383611dca565b565b9093915060005260209081600020936000915b818310611f85575050611f5893508201013880611f4a565b85548884018501529485019487945091830191611f6d565b915050611f5894506020925060ff191682840152151560051b8201013880611f4a565b15611fc757565b60405162461bcd60e51b815260206004820152602d60248201527f4552433732313a2063616c6c6572206973206e6f7420746f6b656e206f776e6560448201526c1c881bdc88185c1c1c9bdd9959609a1b6064820152608490fd5b60809060208152603260208201527f4552433732313a207472616e7366657220746f206e6f6e20455243373231526560408201527131b2b4bb32b91034b6b83632b6b2b73a32b960711b60608201520190565b1561207c57565b60405162461bcd60e51b81528061209560048201612022565b0390fd5b9192600092909190803b156121ab576120e7946040518092630a85bd0160e11b9485835233600484015287602484015260448301526080606483015281878160209a8b966084830190611c47565b03926001600160a01b03165af184918161216b575b5061215a575050503d600014612152573d61211681611dec565b906121246040519283611dca565b81528091833d92013e5b8051918261214f5760405162461bcd60e51b81528061209560048201612022565b01fd5b50606061212e565b6001600160e01b0319161492509050565b9091508581813d83116121a4575b6121838183611dca565b8101031261081157516001600160e01b0319811681036108115790386120fc565b503d612179565b5050915050600190565b9293600093909291803b156122355794849161220f9660405180948193630a85bd0160e11b9788845233600485015260018060a01b0380921660248501526044840152608060648401528260209b8c976084830190611c47565b0393165af184918161216b575061215a575050503d600014612152573d61211681611dec565b505050915050600190565b90929167ffffffffffffffff8411611db4578360051b604051926020809461226a82850182611dca565b8097815201918101928311611c8257905b8282106122885750505050565b81356001600160a01b0381168103611c8257815290830190830161227b565b6003811015611d2957600052610107602052604060002090565b60001981146122d05760010190565b634e487b7160e01b600052601160045260246000fd5b80518210156122fa5760209160051b010190565b634e487b7160e01b600052603260045260246000fd5b80548210156122fa5760005260206000200190600090565b600082815260018201602052604090205461238f57805490600160401b821015611db45782612378612361846001809601855584612310565b819391549060031b91821b91600019901b19161790565b905580549260005201602052604060002055600190565b5050600090565b9060018201906000928184528260205260408420549081151560001461247f576000199180830181811161246b5782549084820191821161245757808203612422575b5050508054801561240e578201916123f18383612310565b909182549160031b1b191690555582526020526040812055600190565b634e487b7160e01b86526031600452602486fd5b6124426124326123619386612310565b90549060031b1c92839286612310565b905586528460205260408620553880806123d9565b634e487b7160e01b88526011600452602488fd5b634e487b7160e01b87526011600452602487fd5b5050505090565b1561248d57565b60405162461bcd60e51b815260206004820152602b60248201527f496e697469616c697a61626c653a20636f6e7472616374206973206e6f74206960448201526a6e697469616c697a696e6760a81b6064820152608490fd5b156124ed57565b60405162461bcd60e51b815260206004820152601e60248201527f436f6e7472616374206d757374206e6f742062652064697361626c65642e00006044820152606490fd5b6101059081548110156122fa57600391600052027ffc62abc8c0fc47c2d92f5aec99bf8b60f375828e14394d89345cae11a98673710190600090565b61257781612f57565b5050600082815261010260205260408120805460ff191660011790559080612637575b612633576125ab6106568333612c50565b6125b482612656565b506125be82612656565b828252609b6020908152604080842080546001600160a01b03199081169091556001600160a01b03909316808552609a835281852080546000190190558585526099909252832080549092169091557fddf252ad1be2c89b69c2b068fc378daa952ba7f163c4a11628f55a4df523b3ef8280a4565b5050565b506000828152609960205260409020546001600160a01b03161561259a565b6000908152609960205260409020546001600160a01b031680156126775790565b60405162461bcd60e51b815260206004820152601860248201527f4552433732313a20696e76616c696420746f6b656e20494400000000000000006044820152606490fd5b9392909160019461010495808754018097556101005487116128765761270061066b6040516126ea81611d98565b896000968783526126fb8282612906565b612099565b8683526020916101068352604084209181519167ffffffffffffffff83116128625761272c8454611ee0565b601f811161281c575b508490601f84116001146127b357928060fd9593819389989660409a946127a8575b50501b916000199060031b1c19161790555b87835261010181528383209460018060a01b0395866001600160601b0360a01b98168882541617905560fe825284842055522092169082541617905590565b015192503880612757565b8487528587209293929190601f198416885b818110612807575091604098979593918560fd989694106127ee575b505050811b019055612769565b015160001960f88460031b161c191690553880806127e1565b828401518555938601939288019288016127c5565b848752858720601f850160051c810191878610612858575b601f0160051c019083905b82811061284d575050612735565b88815501839061283f565b9091508190612834565b634e487b7160e01b86526041600452602486fd5b606460405162461bcd60e51b815260206004820152602060248201527f5f637265617465546f6b656e3a3a6578636565646564206d6178546f6b656e736044820152fd5b156128c157565b60405162461bcd60e51b815260206004820152601c60248201527f4552433732313a20746f6b656e20616c7265616479206d696e746564000000006044820152606490fd5b6001600160a01b031680156129b65760008281526099602052604090205461293a906001600160a01b031615155b156128ba565b60008281526099602052604090205461295d906001600160a01b03161515612934565b6000818152609a6020526040812060018154019055828152609960205260408120826001600160601b0360a01b8254161790557fddf252ad1be2c89b69c2b068fc378daa952ba7f163c4a11628f55a4df523b3ef8180a4565b606460405162461bcd60e51b815260206004820152602060248201527f4552433732313a206d696e7420746f20746865207a65726f20616464726573736044820152fd5b612a0381612f57565b9115159050612a265750600052610106602052612a236040600020611f1a565b90565b90600090807a184f03e93ff9f4daa797ed6e38ed64bf6a1f0100000000000000008181811015612bd2575b50506d04ee2d6d415b85acef810000000080821015612bc5575b50662386f26fc1000080821015612bb8575b506305f5e10080821015612bab575b5061271080821015612b9e575b506064811015612b90575b600a80911015612b86575b600180840192816021612ada612ac487611dec565b96612ad26040519889611dca565b808852611dec565b602087019790601f1901368937860101905b612b50575b50505050612b3392612a23926026926040519583612b19889551809260208089019101611c24565b840191602f60f81b60208401525180936021840190611c24565b0164173539b7b760d91b6021820152036006810184520182611dca565b600019019083906f181899199a1a9b1b9c1cb0b131b232b360811b8282061a835304918215612b8157919082612aec565b612af1565b9160010191612aaf565b606460029104920191612aa4565b6004910492019138612a99565b6008910492019138612a8c565b6010910492019138612a7d565b6020910492019138612a6b565b604094500490503880612a51565b612be981612f57565b5050612bf857612a2390612656565b8060005261010260205260ff60406000205416600014612c1b57612a2390612656565b6000818152609960205260409020546001600160a01b0316612c4757506033546001600160a01b031690565b612a2390612656565b6001600160a01b03908180612c6485612be0565b16911691818314938415612ca3575b50508215612c8057505090565b909150600052609c60205260406000209060005260205260ff6040600020541690565b83929450612cb090612cba565b1614913880612c73565b600081815260fd60205260408120546001600160a01b039291908316612cdf83612f57565b5050908115612d78575b5080612d60575b15612d0657604091815261010360205220541690565b60405162461bcd60e51b815260206004820152602c60248201527f4552433732313a20617070726f76656420717565727920666f72206e6f6e657860448201526b34b9ba32b73a103a37b5b2b760a11b6064820152608490fd5b5081815261010260205260ff60408220541615612cf0565b9050151538612ce9565b908215611c8257612dcc91612d9684612f57565b505080612ede575b80612ec4575b612eb5575b612db284612656565b6001600160a01b0393918416928492909183168414612efd565b16918215612e645781612de991612de286612656565b1614612efd565b7fddf252ad1be2c89b69c2b068fc378daa952ba7f163c4a11628f55a4df523b3ef6000848152609b602052604081206001600160601b0360a01b90818154169055838252609a6020526040822060001981540190558482526040822060018154019055858252609960205284604083209182541617905580a4565b60405162461bcd60e51b8152602060048201526024808201527f4552433732313a207472616e7366657220746f20746865207a65726f206164646044820152637265737360e01b6064820152608490fd5b612ebf8482612906565b612da9565b508360005261010260205260ff6040600020541615612da4565b506000848152609960205260409020546001600160a01b031615612d9e565b15612f0457565b60405162461bcd60e51b815260206004820152602560248201527f4552433732313a207472616e736665722066726f6d20696e636f72726563742060448201526437bbb732b960d91b6064820152608490fd5b61010554919060005b838110612f845750509050600090600090604051612f7d81611d98565b6000815290565b612f8d81612532565b505482101580612fc8575b612faa57612fa5906122c1565b612f60565b809350612fb79150612532565b5090612a2360026001949301611f1a565b506001612fd482612532565b500154821115612f98565b63ffffffff60e01b166380ac58cd60e01b8114908115613012575b8115613004575090565b6301ffc9a760e01b14919050565b635b5e139f60e01b81149150612ffa56fea2646970667358221220c513c80d3754ef4fd1e7ac6c77aa64158f3d8bb05bfc915f1077fa473753ab6264736f6c6343000812003360808060405234610016576131e5908161001c8239f35b600080fdfe6040608081526004908136101561001557600080fd5b600091823560e01c8063012cf1e814611cf257806301ffc9a714611c1c57806306fdde0314611b72578063081812fc14611b52578063095ea7b31461193657806318160ddd1461191657806320427486146118e257806321c4a5d81461183d57806323b872dd146118185780632a55205a146117865780632ce878da146117135780633403c4e9146116ea5780633ebc82c5146116a857806340c1a0641461167e57806342842e0e1461164a57806342966c681461162d578063472a66381461159d5780634aa52c411461152c5780635aec8d62146114845780635edc7c1914610f795780636297c16c14610efd5780636352211e14610ecc57806370a0823114610e36578063715018a614610dd9578063717392ed14610db95780637cc918d114610aab57806387bc793f14610a83578063894ba83314610a355780638da5cb5b14610a0c57806395d89b41146109275780639e860f2a14610836578063a22cb465146106b4578063ab69607a14610695578063b88d4fde1461060a578063bc7194551461055c578063c87b56dd14610521578063d9856c21146104b8578063e831574214610498578063e985e9c51461044a578063eab85118146103ef578063ee070805146103cc578063efc32cd414610379578063f2fde38b146102e85763ff6e8c8f1461020557600080fd5b346102e45761021336611ebe565b90919260018060a01b0394856033541633036102d75760038510156102c45784156102b7575050906102469136916123bf565b92805b84518110156102b3576102ae9061027561026285612426565b8661026d848a612465565b5116906124a7565b5083856102828389612465565b5116337f14155f749dc3f9cd2bf890d6d3a47069f77ae35befcee11c8b1a3ba41cba15368680a4612440565b610249565b5080f35b51632de777a160e11b8152fd5b634e487b7160e01b875260218252602487fd5b51635c510c8360e11b8152fd5b8280fd5b50346102e45760203660031901126102e457610302611deb565b9161030b611fbe565b6001600160a01b03831615610327578361032484612016565b80f35b906020608492519162461bcd60e51b8352820152602660248201527f4f776e61626c653a206e6577206f776e657220697320746865207a65726f206160448201526564647265737360d01b6064820152fd5b5050346103c857806003193601126103c857610393611deb565b9061039c611fbe565b602435835260fd602052822080546001600160a01b0319166001600160a01b0390921691909117905580f35b5080fd5b5050346103c857816003193601126103c85760209060ff80541690519015158152f35b5050346103c85760203660031901126103c857602090610441610410611deb565b61041f60ff6101085416612426565b6001600160a01b03909116600090815260019091016020526040902054151590565b90519015158152f35b5050346103c857806003193601126103c85760ff8160209361046a611deb565b610472611e06565b6001600160a01b039182168352609c875283832091168252855220549151911615158152f35b5050346103c857816003193601126103c857602090610100549051908152f35b8382346103c85760203660031901126103c857803567ffffffffffffffff81116102e457366023820112156102e4576102b3918160246104fd93369301359101611f87565b610505611fbe565b61051360ff80541615612672565b60fc54339182908190612848565b50913461055957602036600319011261055957506105426105559235612b86565b9051918291602083526020830190611dc6565b0390f35b80fd5b5090346102e45760203660031901126102e4578135916003831015610606576033546001600160a01b031633036105f8575061059782612426565b805490848155816105da575b50507f7efc19cf93d497a6a56103ea89a39d51c0cad74a817ed3cd0ecaff9823d4da249051806105d4339482611e95565b0390a280f35b845260208420908101905b818110156105a3578481556001016105e5565b9051635c510c8360e11b8152fd5b8380fd5b8382346103c85760803660031901126103c857610625611deb565b9061062e611e06565b916044356064359367ffffffffffffffff851161069157366023860112156106915761066961068c9486602461032498369301359101611f87565b9261067c6106778433612ddc565b61213f565b610687838383612f0e565b612334565b6121f4565b8580fd5b5050346103c857816003193601126103c85760209060fc549051908152f35b5090346102e457806003193601126102e4576106ce611deb565b90602435918215158093036108325760ff6101085416600381101561081f57600181036107d55750600180865261010760209081528387206001600160a01b0384166000908152920190526040902054156107c6575b6001600160a01b0316923384146107845750338452609c60205280842083855260205280842060ff1981541660ff8416179055519081527f17307eab39ab6107e8899845ad3d59bd9653f200f220920489ca2b5937696c3160203392a380f35b6020606492519162461bcd60e51b8352820152601960248201527f4552433732313a20617070726f766520746f2063616c6c6572000000000000006044820152fd5b81516282b42960e81b81528490fd5b600203610724576002855261010760205261080b82862060018060a01b0383169060019160005201602052604060002054151590565b156107245781516282b42960e81b81528490fd5b634e487b7160e01b865260218552602486fd5b8480fd5b5090346102e45761084636611ebe565b6033546001600160a01b039490851633036109185750906108689136916123bf565b916003821015908161081f578261087d578580f35b8591929394955b8551811015610908576108ac61089986612426565b836108a4848a612465565b511690612515565b5083826108b98389612465565b5116906108f55790856108f092337fc72e29af1b34de3dec3a764b4ca4d85b9c380ab33b9b268d29b6e7008bd0ed958780a4612440565b610884565b634e487b7160e01b845260218852602484fd5b5050935050505038808080808580f35b51635c510c8360e11b81528590fd5b5050346103c857816003193601126103c857805190826098546109498161205f565b808552916001918083169081156109e45750600114610987575b50505061097582610555940383611f49565b51918291602083526020830190611dc6565b9450609885527f2237a976fa961f5921fd19f2b03c925c725d77b20ce8f790c19709c03de4d8145b8286106109cc575050506109758260206105559582010194610963565b805460208787018101919091529095019481016109af565b61055597508693506020925061097594915060ff191682840152151560051b82010194610963565b5050346103c857816003193601126103c85760335490516001600160a01b039091168152602090f35b8334610559578060031936011261055957610a4e611fbe565b600160ff1960ff54161760ff55337f793bc6423dd0257d64f9d47db72fd4b2162f4541aa41740ba1c5fb5e2cd41bcd8280a280f35b5050346103c857816003193601126103c8576105559060ff6101085416905191829182611e95565b509190346103c857806003193601126103c85767ffffffffffffffff92803584811161060657610ade9036908301611e67565b90610ae7611fbe565b610af560ff80541615612672565b61010490815492600197888501809511610da657602492610b17843587612605565b9360001991828601958611610d945789519660209788810181811087821117610d2e578c52879052869055610100548611610d52578951906060820182811086821117610d405790610b76918c52898352888301968888523691611f87565b948a8201958652610105805490600160401b821015610d2e578e82019055610b9d906126be565b929092610d1d579060029291518255518d820155019351978851938411610d0c575050610bca835461205f565b601f8111610cca575b50889989979899508598601f8411600114610c4557839291899a84927fdeaa91b6123d068f5821d0fb0678463d1a8a6079fe8af5de3ce5e896dcf9133d9a9b95610c3a575b50501b9260031b1c19161790555b60018060a01b03603354169551908152a480f35b015193503880610c18565b98909291601f19831691858a52878a20928a5b818110610cb257509a847fdeaa91b6123d068f5821d0fb0678463d1a8a6079fe8af5de3ce5e896dcf9133d9a9b9c10610c9a575b50505050811b019055610c26565b01519060f88460031b161c1916905538808080610c8c565b828d015185558e9b5093860193918901918901610c58565b838a52858a20601f840160051c810191878510610d02575b601f0160051c01905b818110610cf85750610bd3565b8a81558b01610ceb565b9091508190610ce2565b634e487b7160e01b8b526041905289fd5b634e487b7160e01b8d528c8b52838dfd5b634e487b7160e01b8e5260418c52848efd5b634e487b7160e01b8d5260418b52838dfd5b895162461bcd60e51b8152808a01889052601d818401527f62617463684d696e743a3a6578636565646564206d6178546f6b656e730000006044820152606490fd5b50634e487b7160e01b8a526011885289fd5b634e487b7160e01b885260118652602488fd5b5050346103c857816003193601126103c857602090610109549051908152f35b8334610559578060031936011261055957610df2611fbe565b603380546001600160a01b0319811690915581906001600160a01b03167f8be0079c531659141344cd1fd0a4f28419497f9722a3daafe3b4186f6b6457e08280a380f35b508290346103c85760203660031901126103c8576001600160a01b03610e5a611deb565b16908115610e77576020848085858152609a845220549051908152f35b608490602085519162461bcd60e51b8352820152602960248201527f4552433732313a2061646472657373207a65726f206973206e6f7420612076616044820152683634b21037bbb732b960b91b6064820152fd5b5091346105595760203660031901126105595750610eec60209235612d6c565b90516001600160a01b039091168152f35b50346102e45760203660031901126102e457803591610f1b83612d6c565b336001600160a01b0390911603610f365783610324846126fa565b906020606492519162461bcd60e51b8352820152601760248201527f4d757374206265206f776e6572206f6620746f6b656e2e0000000000000000006044820152fd5b508290346103c85760803660031901126103c85767ffffffffffffffff92813584811161060657610fad9036908401611e67565b929060243586811161069157610fc69036908401611e67565b610fd1979197611e1c565b9387549860ff94858b60081c16159889809a611478575b8015611462575b156114085760ff19808d1660019081178d559b9c999a998a6113f7575b506001600160a01b038916156113b4579161105f9161104f898f6110679796600a60fc558254168255606435610100555460081c1661104a81612612565b612612565b61105833612016565b3691611f87565b933691611f87565b9061107b858b5460081c1661104a81612612565b82518481116113a1578061109060975461205f565b94601f95868111611330575b506020908d8784116001146112b157926112a6575b5050600019600383901b1c1916908a1b176097555b815193841161129357506110db60985461205f565b828111611230575b5060209183116001146111a4579180611158959492611130948b92611199575b5050600019600383901b1c191690881b176098555b875460081c1661112781612612565b61104a81612612565b60fb80546001600160a01b0319166001600160a01b038316179055611153611fbe565b612016565b611160578280f35b825461ff0019168355519081527f7f26b83ff96e1f2b6a682f133852f6798a09c465da95921460cefb384740249890602090a181808280f35b015190508a80611103565b609889528792917f2237a976fa961f5921fd19f2b03c925c725d77b20ce8f790c19709c03de4d81491601f1984168b5b8181106112185750916111309593918561115899989694106111ff575b505050811b01609855611118565b015160001960f88460031b161c191690558a80806111f1565b8284015185558b9690940193602093840193016111d4565b60988a527f2237a976fa961f5921fd19f2b03c925c725d77b20ce8f790c19709c03de4d8148380860160051c8201926020871061128a575b0160051c019089905b82811061127f5750506110e3565b8b8155018990611271565b92508192611268565b634e487b7160e01b8a5260419052602489fd5b015190508c806110b1565b91908d9450601f198416609784527f354a83ed9988f79f6038d4c7a7dadbad8af32f4ad6df893e0e5807a1b1944ff9935b818110611318575084116112ff575b505050811b016097556110c6565b015160001960f88460031b161c191690558c80806112f1565b8284015185558f9690940193602093840193016112e2565b90915060978d527f354a83ed9988f79f6038d4c7a7dadbad8af32f4ad6df893e0e5807a1b1944ff98680850160051c82019260208610611398575b859493910160051c909101908d908f5b83821061138a5750505061109c565b81558594508e91018f61137b565b9250819261136b565b634e487b7160e01b8b526041825260248bfd5b8a5162461bcd60e51b8152602081870152601e60248201527f63726561746f722063616e6e6f74206265206e756c6c206164647265737300006044820152606490fd5b61ffff1916610101178d558d61100c565b885162461bcd60e51b8152602081860152602e60248201527f496e697469616c697a61626c653a20636f6e747261637420697320616c72656160448201526d191e481a5b9a5d1a585b1a5e995960921b6064820152608490fd5b50303b158015610fef57506001878d1614610fef565b506001878d1610610fe8565b5090346102e457826003193601126102e45761010954421061151f57506101089081549060ff821690600382101561150c57508390337f12282389323caf08dd4e02c490ef05bc7edb56967c085742687aad3cc81aa15f8380a460ff19169055337f60faf76514baf225c418dfc1e3c75bed0bd280f0436999e12cb0a73acb0f9a468280a280f35b634e487b7160e01b855260219052602484fd5b5163807a684760e01b8152fd5b8382346103c85760603660031901126103c857803567ffffffffffffffff81116102e4576102b39161156091369101611e67565b90611569611e06565b611571611e1c565b9261157a611fbe565b61158860ff80541615612672565b61159860fc549333923691611f87565b612848565b50346102e45760203660031901126102e4578035916003831015610606576033546001600160a01b031633036102d757506101089182549160ff831690600382101561161a5750908060ff92337f12282389323caf08dd4e02c490ef05bc7edb56967c085742687aad3cc81aa15f8880a4169060ff191617905580f35b634e487b7160e01b865260219052602485fd5b8382346103c85760203660031901126103c85761032490356126fa565b5050346103c85761068c6103249161166136611e32565b9192519261166e84611f17565b86845261067c6106778433612ddc565b5050346103c85760203660031901126103c85760335490516001600160a01b039091168152602090f35b8334610559576020366003190112610559576103246116c5611deb565b6116cd611fbe565b60018060a01b03166001600160601b0360a01b60fb54161760fb55565b5050346103c857816003193601126103c85760fb5490516001600160a01b039091168152602090f35b82843461055957806003193601126105595761173460ff6101085416612426565b9180519182845490818152602080910195835280832092905b82821061176f576105558686611765828b0383611f49565b5191829182611d5f565b83548752958601956001938401939091019061174d565b5091346105595781600319360112610559578235815260fd60205281812054602435906001600160a01b03908116801561180c57925b60fe60205284812054801561180257925b8381029381850414901517156117ef5750835192168252606490046020820152f35b634e487b7160e01b815260118652602490fd5b5060fc54926117cd565b508060fb5416926117bc565b83346105595761032461182a36611e32565b916118386106778433612ddc565b612f0e565b50346102e45760203660031901126102e457603354813591906001600160a01b031633036118d4576301e13380918281029281840414901517156118c157506118869042612605565b90610109907f6e948191a35d69000746799fef50c705bbdc93bd5a7577e9e9eb879c04bdebc982549180519283528460208401523392a25580f35b634e487b7160e01b845260119052602483fd5b8251635c510c8360e11b8152fd5b5050346103c85760203660031901126103c857602090611900611deb565b60018060a01b0380603354169116149051908152f35b5050346103c857816003193601126103c857602090610104549051908152f35b50346102e457816003193601126102e45761194f611deb565b906024359260ff61010854166003811015611b3f5760018103611af85750600180865261010760209081528287206001600160a01b038616600090815292019052604090205415611aec575b6001600160a01b039182806119af87612d6c565b16941693808514611a9f57803314908115611a80575b5015611a185750838552610103602052842080546001600160a01b031916831790556119f0836127e2565b167f8c5be1e5ebec7d5bd14f71427d1e84f3dd0314c0f7b2291e5b200ac8c7c3b9258480a480f35b6020608492519162461bcd60e51b8352820152603860248201527f4552433732313a20617070726f76652063616c6c6572206973206e6f74206f7760448201527f6e6572206e6f7220617070726f76656420666f7220616c6c00000000000000006064820152fd5b90508652609c60205281862033875260205260ff8287205416386119c5565b506020608492519162461bcd60e51b8352820152602160248201527f4552433732313a20617070726f76616c20746f2063757272656e74206f776e656044820152603960f91b6064820152fd5b516282b42960e81b8152fd5b60020361199b5760028552610107602052611b2e81862060018060a01b0385169060019160005201602052604060002054151590565b1561199b57516282b42960e81b8152fd5b634e487b7160e01b865260218352602486fd5b5091346105595760203660031901126105595750610eec60209235612e46565b5050346103c857816003193601126103c85780519082609754611b948161205f565b808552916001918083169081156109e45750600114611bbf5750505061097582610555940383611f49565b9450609785527f354a83ed9988f79f6038d4c7a7dadbad8af32f4ad6df893e0e5807a1b1944ff95b828610611c04575050506109758260206105559582010194610963565b80546020878701810191909152909501948101611be7565b50346102e45760203660031901126102e45735906001600160e01b03198216808303610606576020935063fa31a45b60e01b8114928315611ce1575b8315611c69575b5050519015158152f35b919250631030681960e21b811491908215611cd0575b8215611ca7575b508115611c97575b50903880611c5f565b611ca1915061316b565b38611c8e565b90915063152a902d60e11b148015611cc1575b9038611c86565b50611ccb8161316b565b611cba565b6301ffc9a760e01b81149250611c7f565b6301ffc9a760e01b82149350611c58565b5090346102e457602091826003193601126106065735600381101561060657611d1a90612426565b9281518093808654928381520195835280832092905b828210611d48576105558686611765828b0383611f49565b835487529586019560019384019390910190611d30565b6020908160408183019282815285518094520193019160005b828110611d86575050505090565b83516001600160a01b031685529381019392810192600101611d78565b60005b838110611db65750506000910152565b8181015183820152602001611da6565b90602091611ddf81518092818552858086019101611da3565b601f01601f1916010190565b600435906001600160a01b0382168203611e0157565b600080fd5b602435906001600160a01b0382168203611e0157565b604435906001600160a01b0382168203611e0157565b6060906003190112611e01576001600160a01b03906004358281168103611e0157916024359081168103611e01579060443590565b9181601f84011215611e015782359167ffffffffffffffff8311611e015760208381860195010111611e0157565b919060208301926003821015611ea85752565b634e487b7160e01b600052602160045260246000fd5b6040600319820112611e01576004356003811015611e01579160243567ffffffffffffffff92838211611e015780602383011215611e01578160040135938411611e015760248460051b83010111611e01576024019190565b6020810190811067ffffffffffffffff821117611f3357604052565b634e487b7160e01b600052604160045260246000fd5b90601f8019910116810190811067ffffffffffffffff821117611f3357604052565b67ffffffffffffffff8111611f3357601f01601f191660200190565b929192611f9382611f6b565b91611fa16040519384611f49565b829481845281830111611e01578281602093846000960137010152565b6033546001600160a01b03163303611fd257565b606460405162461bcd60e51b815260206004820152602060248201527f4f776e61626c653a2063616c6c6572206973206e6f7420746865206f776e65726044820152fd5b603380546001600160a01b039283166001600160a01b0319821681179092559091167f8be0079c531659141344cd1fd0a4f28419497f9722a3daafe3b4186f6b6457e0600080a3565b90600182811c9216801561208f575b602083101461207957565b634e487b7160e01b600052602260045260246000fd5b91607f169161206e565b90604051918260008254926120ad8461205f565b90818452600194858116908160001461211c57506001146120d9575b50506120d792500383611f49565b565b9093915060005260209081600020936000915b8183106121045750506120d7935082010138806120c9565b855488840185015294850194879450918301916120ec565b9150506120d794506020925060ff191682840152151560051b82010138806120c9565b1561214657565b60405162461bcd60e51b815260206004820152602d60248201527f4552433732313a2063616c6c6572206973206e6f7420746f6b656e206f776e6560448201526c1c881bdc88185c1c1c9bdd9959609a1b6064820152608490fd5b60809060208152603260208201527f4552433732313a207472616e7366657220746f206e6f6e20455243373231526560408201527131b2b4bb32b91034b6b83632b6b2b73a32b960711b60608201520190565b156121fb57565b60405162461bcd60e51b815280612214600482016121a1565b0390fd5b9192600092909190803b1561232a57612266946040518092630a85bd0160e11b9485835233600484015287602484015260448301526080606483015281878160209a8b966084830190611dc6565b03926001600160a01b03165af18491816122ea575b506122d9575050503d6000146122d1573d61229581611f6b565b906122a36040519283611f49565b81528091833d92013e5b805191826122ce5760405162461bcd60e51b815280612214600482016121a1565b01fd5b5060606122ad565b6001600160e01b0319161492509050565b9091508581813d8311612323575b6123028183611f49565b8101031261083257516001600160e01b03198116810361083257903861227b565b503d6122f8565b5050915050600190565b9293600093909291803b156123b45794849161238e9660405180948193630a85bd0160e11b9788845233600485015260018060a01b0380921660248501526044840152608060648401528260209b8c976084830190611dc6565b0393165af18491816122ea57506122d9575050503d6000146122d1573d61229581611f6b565b505050915050600190565b90929167ffffffffffffffff8411611f33578360051b60405192602080946123e982850182611f49565b8097815201918101928311611e0157905b8282106124075750505050565b81356001600160a01b0381168103611e015781529083019083016123fa565b6003811015611ea857600052610107602052604060002090565b600019811461244f5760010190565b634e487b7160e01b600052601160045260246000fd5b80518210156124795760209160051b010190565b634e487b7160e01b600052603260045260246000fd5b80548210156124795760005260206000200190600090565b600082815260018201602052604090205461250e57805490600160401b821015611f3357826124f76124e084600180960185558461248f565b819391549060031b91821b91600019901b19161790565b905580549260005201602052604060002055600190565b5050600090565b906001820190600092818452826020526040842054908115156000146125fe57600019918083018181116125ea578254908482019182116125d6578082036125a1575b5050508054801561258d57820191612570838361248f565b909182549160031b1b191690555582526020526040812055600190565b634e487b7160e01b86526031600452602486fd5b6125c16125b16124e0938661248f565b90549060031b1c9283928661248f565b90558652846020526040862055388080612558565b634e487b7160e01b88526011600452602488fd5b634e487b7160e01b87526011600452602487fd5b5050505090565b9190820180921161244f57565b1561261957565b60405162461bcd60e51b815260206004820152602b60248201527f496e697469616c697a61626c653a20636f6e7472616374206973206e6f74206960448201526a6e697469616c697a696e6760a81b6064820152608490fd5b1561267957565b60405162461bcd60e51b815260206004820152601e60248201527f436f6e7472616374206d757374206e6f742062652064697361626c65642e00006044820152606490fd5b61010590815481101561247957600391600052027ffc62abc8c0fc47c2d92f5aec99bf8b60f375828e14394d89345cae11a98673710190600090565b612703816130e3565b5050600082815261010260205260408120805460ff1916600117905590806127c3575b6127bf576127376106778333612ddc565b612740826127e2565b5061274a826127e2565b828252609b6020908152604080842080546001600160a01b03199081169091556001600160a01b03909316808552609a835281852080546000190190558585526099909252832080549092169091557fddf252ad1be2c89b69c2b068fc378daa952ba7f163c4a11628f55a4df523b3ef8280a4565b5050565b506000828152609960205260409020546001600160a01b031615612726565b6000908152609960205260409020546001600160a01b031680156128035790565b60405162461bcd60e51b815260206004820152601860248201527f4552433732313a20696e76616c696420746f6b656e20494400000000000000006044820152606490fd5b939290916001946101049580875401809755610100548711612a025761288c61068c60405161287681611f17565b896000968783526128878282612a92565b612218565b8683526020916101068352604084209181519167ffffffffffffffff83116129ee576128b8845461205f565b601f81116129a8575b508490601f841160011461293f57928060fd9593819389989660409a94612934575b50501b916000199060031b1c19161790555b87835261010181528383209460018060a01b0395866001600160601b0360a01b98168882541617905560fe825284842055522092169082541617905590565b0151925038806128e3565b8487528587209293929190601f198416885b818110612993575091604098979593918560fd9896941061297a575b505050811b0190556128f5565b015160001960f88460031b161c1916905538808061296d565b82840151855593860193928801928801612951565b848752858720601f850160051c8101918786106129e4575b601f0160051c019083905b8281106129d95750506128c1565b8881550183906129cb565b90915081906129c0565b634e487b7160e01b86526041600452602486fd5b606460405162461bcd60e51b815260206004820152602060248201527f5f637265617465546f6b656e3a3a6578636565646564206d6178546f6b656e736044820152fd5b15612a4d57565b60405162461bcd60e51b815260206004820152601c60248201527f4552433732313a20746f6b656e20616c7265616479206d696e746564000000006044820152606490fd5b6001600160a01b03168015612b4257600082815260996020526040902054612ac6906001600160a01b031615155b15612a46565b600082815260996020526040902054612ae9906001600160a01b03161515612ac0565b6000818152609a6020526040812060018154019055828152609960205260408120826001600160601b0360a01b8254161790557fddf252ad1be2c89b69c2b068fc378daa952ba7f163c4a11628f55a4df523b3ef8180a4565b606460405162461bcd60e51b815260206004820152602060248201527f4552433732313a206d696e7420746f20746865207a65726f20616464726573736044820152fd5b612b8f816130e3565b9115159050612bb25750600052610106602052612baf6040600020612099565b90565b90600090807a184f03e93ff9f4daa797ed6e38ed64bf6a1f0100000000000000008181811015612d5e575b50506d04ee2d6d415b85acef810000000080821015612d51575b50662386f26fc1000080821015612d44575b506305f5e10080821015612d37575b5061271080821015612d2a575b506064811015612d1c575b600a80911015612d12575b600180840192816021612c66612c5087611f6b565b96612c5e6040519889611f49565b808852611f6b565b602087019790601f1901368937860101905b612cdc575b50505050612cbf92612baf926026926040519583612ca5889551809260208089019101611da3565b840191602f60f81b60208401525180936021840190611da3565b0164173539b7b760d91b6021820152036006810184520182611f49565b600019019083906f181899199a1a9b1b9c1cb0b131b232b360811b8282061a835304918215612d0d57919082612c78565b612c7d565b9160010191612c3b565b606460029104920191612c30565b6004910492019138612c25565b6008910492019138612c18565b6010910492019138612c09565b6020910492019138612bf7565b604094500490503880612bdd565b612d75816130e3565b5050612d8457612baf906127e2565b8060005261010260205260ff60406000205416600014612da757612baf906127e2565b6000818152609960205260409020546001600160a01b0316612dd357506033546001600160a01b031690565b612baf906127e2565b6001600160a01b03908180612df085612d6c565b16911691818314938415612e2f575b50508215612e0c57505090565b909150600052609c60205260406000209060005260205260ff6040600020541690565b83929450612e3c90612e46565b1614913880612dff565b600081815260fd60205260408120546001600160a01b039291908316612e6b836130e3565b5050908115612f04575b5080612eec575b15612e9257604091815261010360205220541690565b60405162461bcd60e51b815260206004820152602c60248201527f4552433732313a20617070726f76656420717565727920666f72206e6f6e657860448201526b34b9ba32b73a103a37b5b2b760a11b6064820152608490fd5b5081815261010260205260ff60408220541615612e7c565b9050151538612e75565b908215611e0157612f5891612f22846130e3565b50508061306a575b80613050575b613041575b612f3e846127e2565b6001600160a01b0393918416928492909183168414613089565b16918215612ff05781612f7591612f6e866127e2565b1614613089565b7fddf252ad1be2c89b69c2b068fc378daa952ba7f163c4a11628f55a4df523b3ef6000848152609b602052604081206001600160601b0360a01b90818154169055838252609a6020526040822060001981540190558482526040822060018154019055858252609960205284604083209182541617905580a4565b60405162461bcd60e51b8152602060048201526024808201527f4552433732313a207472616e7366657220746f20746865207a65726f206164646044820152637265737360e01b6064820152608490fd5b61304b8482612a92565b612f35565b508360005261010260205260ff6040600020541615612f30565b506000848152609960205260409020546001600160a01b031615612f2a565b1561309057565b60405162461bcd60e51b815260206004820152602560248201527f4552433732313a207472616e736665722066726f6d20696e636f72726563742060448201526437bbb732b960d91b6064820152608490fd5b61010554919060005b838110613110575050905060009060009060405161310981611f17565b6000815290565b613119816126be565b505482101580613154575b6131365761313190612440565b6130ec565b80935061314391506126be565b5090612baf60026001949301612099565b506001613160826126be565b500154821115613124565b63ffffffff60e01b166380ac58cd60e01b811490811561319e575b8115613190575090565b6301ffc9a760e01b14919050565b635b5e139f60e01b8114915061318656fea2646970667358221220a3175044e6304519644eb3b71be3ca5609bde6d901c79a75f55646334ced483e64736f6c63430008120033","linkReferences":{}},"methodIdentifiers":{"LAZY_ROYALTY_GUARD()":"00e8ece6","LAZY_ROYALTY_GUARD_DEADMAN()":"740adf31","LAZY_SOVEREIGN_NFT()":"637944f5","ROYALTY_GUARD()":"7de4c082","ROYALTY_GUARD_DEADMAN()":"ef6fde5b","SOVEREIGN_NFT()":"ea14289f","createSovereignNFTContract(string,string)":"3cebcf41","createSovereignNFTContract(string,string,uint256)":"da8d79f3","createSovereignNFTContract(string,string,uint256,bytes32)":"877ebf51","lazySovereignNFT()":"f5e0e6df","lazySovereignNFTRoyaltyGuard()":"22d60fcb","lazySovereignNFTRoyaltyGuardDeadmanTrigger()":"c4dca7ab","owner()":"8da5cb5b","renounceOwnership()":"715018a6","setSovereignNFT(address)":"9607cb49","setSovereignNFT(address,bytes32)":"a55b1c25","sovereignNFT()":"d05df883","sovereignNFTRoyaltyGuard()":"c9be0590","sovereignNFTRoyaltyGuardDeadmanTrigger()":"d1e0f700","transferOwnership(address)":"f2fde38b"},"id":201}