{"abi":[{"type":"function","name":"addNewToken","inputs":[{"name":"_uri","type":"string","internalType":"string"}],"outputs":[],"stateMutability":"nonpayable"},{"type":"function","name":"approve","inputs":[{"name":"_spender","type":"address","internalType":"address"},{"name":"_id","type":"uint256","internalType":"uint256"}],"outputs":[],"stateMutability":"nonpayable"},{"type":"function","name":"balanceOf","inputs":[{"name":"owner","type":"address","internalType":"address"}],"outputs":[{"name":"","type":"uint256","internalType":"uint256"}],"stateMutability":"view"},{"type":"function","name":"batchAddAddressToRoyaltyList","inputs":[{"name":"_listType","type":"uint8","internalType":"enum IRoyaltyGuard.ListType"},{"name":"_addrs","type":"address[]","internalType":"address[]"}],"outputs":[],"stateMutability":"nonpayable"},{"type":"function","name":"batchMint","inputs":[{"name":"_baseURI","type":"string","internalType":"string"},{"name":"_numberOfTokens","type":"uint256","internalType":"uint256"}],"outputs":[],"stateMutability":"nonpayable"},{"type":"function","name":"batchRemoveAddressToRoyaltyList","inputs":[{"name":"_listType","type":"uint8","internalType":"enum IRoyaltyGuard.ListType"},{"name":"_addrs","type":"address[]","internalType":"address[]"}],"outputs":[],"stateMutability":"nonpayable"},{"type":"function","name":"burn","inputs":[{"name":"_tokenId","type":"uint256","internalType":"uint256"}],"outputs":[],"stateMutability":"nonpayable"},{"type":"function","name":"clearList","inputs":[{"name":"_listType","type":"uint8","internalType":"enum IRoyaltyGuard.ListType"}],"outputs":[],"stateMutability":"nonpayable"},{"type":"function","name":"deleteToken","inputs":[{"name":"_tokenId","type":"uint256","internalType":"uint256"}],"outputs":[],"stateMutability":"nonpayable"},{"type":"function","name":"disableContract","inputs":[],"outputs":[],"stateMutability":"nonpayable"},{"type":"function","name":"disabled","inputs":[],"outputs":[{"name":"","type":"bool","internalType":"bool"}],"stateMutability":"view"},{"type":"function","name":"getApproved","inputs":[{"name":"_tokenId","type":"uint256","internalType":"uint256"}],"outputs":[{"name":"","type":"address","internalType":"address"}],"stateMutability":"view"},{"type":"function","name":"getDefaultRoyaltyPercentage","inputs":[],"outputs":[{"name":"","type":"uint256","internalType":"uint256"}],"stateMutability":"view"},{"type":"function","name":"getDefaultRoyaltyReceiver","inputs":[],"outputs":[{"name":"","type":"address","internalType":"address"}],"stateMutability":"view"},{"type":"function","name":"getInUseList","inputs":[],"outputs":[{"name":"","type":"address[]","internalType":"address[]"}],"stateMutability":"view"},{"type":"function","name":"getList","inputs":[{"name":"_listType","type":"uint8","internalType":"enum IRoyaltyGuard.ListType"}],"outputs":[{"name":"","type":"address[]","internalType":"address[]"}],"stateMutability":"view"},{"type":"function","name":"getListType","inputs":[],"outputs":[{"name":"","type":"uint8","internalType":"enum IRoyaltyGuard.ListType"}],"stateMutability":"view"},{"type":"function","name":"hasAdminPermission","inputs":[{"name":"_addr","type":"address","internalType":"address"}],"outputs":[{"name":"","type":"bool","internalType":"bool"}],"stateMutability":"view"},{"type":"function","name":"init","inputs":[{"name":"_name","type":"string","internalType":"string"},{"name":"_symbol","type":"string","internalType":"string"},{"name":"_creator","type":"address","internalType":"address"},{"name":"_maxTokens","type":"uint256","internalType":"uint256"}],"outputs":[],"stateMutability":"nonpayable"},{"type":"function","name":"isApprovedForAll","inputs":[{"name":"owner","type":"address","internalType":"address"},{"name":"operator","type":"address","internalType":"address"}],"outputs":[{"name":"","type":"bool","internalType":"bool"}],"stateMutability":"view"},{"type":"function","name":"isOperatorInList","inputs":[{"name":"_operator","type":"address","internalType":"address"}],"outputs":[{"name":"","type":"bool","internalType":"bool"}],"stateMutability":"view"},{"type":"function","name":"maxTokens","inputs":[],"outputs":[{"name":"","type":"uint256","internalType":"uint256"}],"stateMutability":"view"},{"type":"function","name":"mintTo","inputs":[{"name":"_uri","type":"string","internalType":"string"},{"name":"_receiver","type":"address","internalType":"address"},{"name":"_royaltyReceiver","type":"address","internalType":"address"}],"outputs":[],"stateMutability":"nonpayable"},{"type":"function","name":"name","inputs":[],"outputs":[{"name":"","type":"string","internalType":"string"}],"stateMutability":"view"},{"type":"function","name":"owner","inputs":[],"outputs":[{"name":"","type":"address","internalType":"address"}],"stateMutability":"view"},{"type":"function","name":"ownerOf","inputs":[{"name":"_tokenId","type":"uint256","internalType":"uint256"}],"outputs":[{"name":"","type":"address","internalType":"address"}],"stateMutability":"view"},{"type":"function","name":"renounceOwnership","inputs":[],"outputs":[],"stateMutability":"nonpayable"},{"type":"function","name":"royaltyInfo","inputs":[{"name":"_tokenId","type":"uint256","internalType":"uint256"},{"name":"_salePrice","type":"uint256","internalType":"uint256"}],"outputs":[{"name":"receiver","type":"address","internalType":"address"},{"name":"royaltyAmount","type":"uint256","internalType":"uint256"}],"stateMutability":"view"},{"type":"function","name":"safeTransferFrom","inputs":[{"name":"from","type":"address","internalType":"address"},{"name":"to","type":"address","internalType":"address"},{"name":"tokenId","type":"uint256","internalType":"uint256"}],"outputs":[],"stateMutability":"nonpayable"},{"type":"function","name":"safeTransferFrom","inputs":[{"name":"from","type":"address","internalType":"address"},{"name":"to","type":"address","internalType":"address"},{"name":"tokenId","type":"uint256","internalType":"uint256"},{"name":"data","type":"bytes","internalType":"bytes"}],"outputs":[],"stateMutability":"nonpayable"},{"type":"function","name":"setApprovalForAll","inputs":[{"name":"_operator","type":"address","internalType":"address"},{"name":"_approved","type":"bool","internalType":"bool"}],"outputs":[],"stateMutability":"nonpayable"},{"type":"function","name":"setDefaultRoyaltyReceiver","inputs":[{"name":"_receiver","type":"address","internalType":"address"}],"outputs":[],"stateMutability":"nonpayable"},{"type":"function","name":"setRoyaltyReceiverForToken","inputs":[{"name":"_receiver","type":"address","internalType":"address"},{"name":"_tokenId","type":"uint256","internalType":"uint256"}],"outputs":[],"stateMutability":"nonpayable"},{"type":"function","name":"supportsInterface","inputs":[{"name":"_interfaceId","type":"bytes4","internalType":"bytes4"}],"outputs":[{"name":"","type":"bool","internalType":"bool"}],"stateMutability":"view"},{"type":"function","name":"symbol","inputs":[],"outputs":[{"name":"","type":"string","internalType":"string"}],"stateMutability":"view"},{"type":"function","name":"toggleListType","inputs":[{"name":"_newListType","type":"uint8","internalType":"enum IRoyaltyGuard.ListType"}],"outputs":[],"stateMutability":"nonpayable"},{"type":"function","name":"tokenCreator","inputs":[{"name":"","type":"uint256","internalType":"uint256"}],"outputs":[{"name":"","type":"address","internalType":"address payable"}],"stateMutability":"view"},{"type":"function","name":"tokenURI","inputs":[{"name":"_tokenId","type":"uint256","internalType":"uint256"}],"outputs":[{"name":"","type":"string","internalType":"string"}],"stateMutability":"view"},{"type":"function","name":"totalSupply","inputs":[],"outputs":[{"name":"","type":"uint256","internalType":"uint256"}],"stateMutability":"view"},{"type":"function","name":"transferFrom","inputs":[{"name":"from","type":"address","internalType":"address"},{"name":"to","type":"address","internalType":"address"},{"name":"tokenId","type":"uint256","internalType":"uint256"}],"outputs":[],"stateMutability":"nonpayable"},{"type":"function","name":"transferOwnership","inputs":[{"name":"newOwner","type":"address","internalType":"address"}],"outputs":[],"stateMutability":"nonpayable"},{"type":"event","name":"AddressAddedToList","inputs":[{"name":"_updater","type":"address","indexed":true,"internalType":"address"},{"name":"_addedAddr","type":"address","indexed":true,"internalType":"address"},{"name":"_ListType","type":"uint8","indexed":true,"internalType":"enum IRoyaltyGuard.ListType"}],"anonymous":false},{"type":"event","name":"AddressRemovedList","inputs":[{"name":"_updater","type":"address","indexed":true,"internalType":"address"},{"name":"_removedAddr","type":"address","indexed":true,"internalType":"address"},{"name":"_ListType","type":"uint8","indexed":true,"internalType":"enum IRoyaltyGuard.ListType"}],"anonymous":false},{"type":"event","name":"Approval","inputs":[{"name":"owner","type":"address","indexed":true,"internalType":"address"},{"name":"approved","type":"address","indexed":true,"internalType":"address"},{"name":"tokenId","type":"uint256","indexed":true,"internalType":"uint256"}],"anonymous":false},{"type":"event","name":"ApprovalForAll","inputs":[{"name":"owner","type":"address","indexed":true,"internalType":"address"},{"name":"operator","type":"address","indexed":true,"internalType":"address"},{"name":"approved","type":"bool","indexed":false,"internalType":"bool"}],"anonymous":false},{"type":"event","name":"ConsecutiveTransfer","inputs":[{"name":"fromTokenId","type":"uint256","indexed":true,"internalType":"uint256"},{"name":"toTokenId","type":"uint256","indexed":false,"internalType":"uint256"},{"name":"fromAddress","type":"address","indexed":true,"internalType":"address"},{"name":"toAddress","type":"address","indexed":true,"internalType":"address"}],"anonymous":false},{"type":"event","name":"ContractDisabled","inputs":[{"name":"user","type":"address","indexed":true,"internalType":"address"}],"anonymous":false},{"type":"event","name":"Initialized","inputs":[{"name":"version","type":"uint8","indexed":false,"internalType":"uint8"}],"anonymous":false},{"type":"event","name":"ListCleared","inputs":[{"name":"_updater","type":"address","indexed":true,"internalType":"address"},{"name":"_listType","type":"uint8","indexed":false,"internalType":"enum IRoyaltyGuard.ListType"}],"anonymous":false},{"type":"event","name":"ListTypeUpdated","inputs":[{"name":"_updater","type":"address","indexed":true,"internalType":"address"},{"name":"_oldListType","type":"uint8","indexed":true,"internalType":"enum IRoyaltyGuard.ListType"},{"name":"_newListType","type":"uint8","indexed":true,"internalType":"enum IRoyaltyGuard.ListType"}],"anonymous":false},{"type":"event","name":"OwnershipTransferred","inputs":[{"name":"previousOwner","type":"address","indexed":true,"internalType":"address"},{"name":"newOwner","type":"address","indexed":true,"internalType":"address"}],"anonymous":false},{"type":"event","name":"Transfer","inputs":[{"name":"from","type":"address","indexed":true,"internalType":"address"},{"name":"to","type":"address","indexed":true,"internalType":"address"},{"name":"tokenId","type":"uint256","indexed":true,"internalType":"uint256"}],"anonymous":false},{"type":"error","name":"CantAddToOFFList","inputs":[]},{"type":"error","name":"MustBeAdmin","inputs":[]},{"type":"error","name":"Unauthorized","inputs":[]}],"bytecode":{"object":"0x6080806040523461001657613059908161001c8239f35b600080fdfe6040608081526004908136101561001557600080fd5b600091823560e01c8063012cf1e814611b7357806301ffc9a714611a9d57806306fdde03146119f3578063081812fc146119d3578063095ea7b3146117b757806318160ddd14611797578063204274861461176357806323b872dd1461173e5780632a55205a146116ac5780632ce878da146116395780633403c4e9146116105780633ebc82c5146115ce57806340c1a064146115a457806342842e0e1461157057806342966c6814611553578063472a6638146114c35780634aa52c41146114525780635edc7c1914610f475780636297c16c14610ecb5780636352211e14610e9a57806370a0823114610e04578063715018a614610da75780637cc918d114610a8a57806387bc793f14610a62578063894ba83314610a145780638da5cb5b146109eb57806395d89b41146109065780639e860f2a14610815578063a22cb46514610693578063ab69607a14610674578063b88d4fde146105e9578063bc7194551461053b578063c87b56dd14610500578063d9856c2114610497578063e831574214610477578063e985e9c514610429578063eab85118146103ce578063ee070805146103ab578063efc32cd414610358578063f2fde38b146102c75763ff6e8c8f146101e457600080fd5b346102c3576101f236611d3f565b90919260018060a01b0394856033541633036102b65760038510156102a357841561029657505090610225913691612240565b92805b84518110156102925761028d90610254610241856122a7565b8661024c848a6122e6565b511690612328565b50838561026183896122e6565b5116337f14155f749dc3f9cd2bf890d6d3a47069f77ae35befcee11c8b1a3ba41cba15368680a46122c1565b610228565b5080f35b51632de777a160e11b8152fd5b634e487b7160e01b875260218252602487fd5b51635c510c8360e11b8152fd5b8280fd5b50346102c35760203660031901126102c3576102e1611c6c565b916102ea611e3f565b6001600160a01b03831615610306578361030384611e97565b80f35b906020608492519162461bcd60e51b8352820152602660248201527f4f776e61626c653a206e6577206f776e657220697320746865207a65726f206160448201526564647265737360d01b6064820152fd5b5050346103a757806003193601126103a757610372611c6c565b9061037b611e3f565b602435835260fd602052822080546001600160a01b0319166001600160a01b0390921691909117905580f35b5080fd5b5050346103a757816003193601126103a75760209060ff80541690519015158152f35b5050346103a75760203660031901126103a7576020906104206103ef611c6c565b6103fe60ff61010854166122a7565b6001600160a01b03909116600090815260019091016020526040902054151590565b90519015158152f35b5050346103a757806003193601126103a75760ff81602093610449611c6c565b610451611c87565b6001600160a01b039182168352609c875283832091168252855220549151911615158152f35b5050346103a757816003193601126103a757602090610100549051908152f35b8382346103a75760203660031901126103a757803567ffffffffffffffff81116102c357366023820112156102c357610292918160246104dc93369301359101611e08565b6104e4611e3f565b6104f260ff805416156124e6565b60fc543391829081906126bc565b509134610538576020366003190112610538575061052161053492356129fa565b9051918291602083526020830190611c47565b0390f35b80fd5b5090346102c35760203660031901126102c35781359160038310156105e5576033546001600160a01b031633036105d75750610576826122a7565b805490848155816105b9575b50507f7efc19cf93d497a6a56103ea89a39d51c0cad74a817ed3cd0ecaff9823d4da249051806105b3339482611d16565b0390a280f35b845260208420908101905b81811015610582578481556001016105c4565b9051635c510c8360e11b8152fd5b8380fd5b8382346103a75760803660031901126103a757610604611c6c565b9061060d611c87565b916044356064359367ffffffffffffffff851161067057366023860112156106705761064861066b9486602461030398369301359101611e08565b9261065b6106568433612c50565b611fc0565b610666838383612d82565b6121b5565b612075565b8580fd5b5050346103a757816003193601126103a75760209060fc549051908152f35b5090346102c357806003193601126102c3576106ad611c6c565b90602435918215158093036108115760ff610108541660038110156107fe57600181036107b45750600180865261010760209081528387206001600160a01b0384166000908152920190526040902054156107a5575b6001600160a01b0316923384146107635750338452609c60205280842083855260205280842060ff1981541660ff8416179055519081527f17307eab39ab6107e8899845ad3d59bd9653f200f220920489ca2b5937696c3160203392a380f35b6020606492519162461bcd60e51b8352820152601960248201527f4552433732313a20617070726f766520746f2063616c6c6572000000000000006044820152fd5b81516282b42960e81b81528490fd5b60020361070357600285526101076020526107ea82862060018060a01b0383169060019160005201602052604060002054151590565b156107035781516282b42960e81b81528490fd5b634e487b7160e01b865260218552602486fd5b8480fd5b5090346102c35761082536611d3f565b6033546001600160a01b039490851633036108f7575090610847913691612240565b91600382101590816107fe578261085c578580f35b8591929394955b85518110156108e75761088b610878866122a7565b83610883848a6122e6565b511690612396565b50838261089883896122e6565b5116906108d45790856108cf92337fc72e29af1b34de3dec3a764b4ca4d85b9c380ab33b9b268d29b6e7008bd0ed958780a46122c1565b610863565b634e487b7160e01b845260218852602484fd5b5050935050505038808080808580f35b51635c510c8360e11b81528590fd5b5050346103a757816003193601126103a7578051908260985461092881611ee0565b808552916001918083169081156109c35750600114610966575b50505061095482610534940383611dca565b51918291602083526020830190611c47565b9450609885527f2237a976fa961f5921fd19f2b03c925c725d77b20ce8f790c19709c03de4d8145b8286106109ab575050506109548260206105349582010194610942565b8054602087870181019190915290950194810161098e565b61053497508693506020925061095494915060ff191682840152151560051b82010194610942565b5050346103a757816003193601126103a75760335490516001600160a01b039091168152602090f35b8334610538578060031936011261053857610a2d611e3f565b600160ff1960ff54161760ff55337f793bc6423dd0257d64f9d47db72fd4b2162f4541aa41740ba1c5fb5e2cd41bcd8280a280f35b5050346103a757816003193601126103a7576105349060ff6101085416905191829182611d16565b509190346103a757806003193601126103a75767ffffffffffffffff9280358481116105e557610abd9036908301611ce8565b90610ac6611e3f565b610ad460ff805416156124e6565b6101049081549260019788850194858111610d9457602490813501938a8501808811610d82578511610d705788519560209687810181811086821117610d0a578b52869052859055610100548511610d2e578851906060820182811085821117610d1c5790610b50918b52888352878301958787523691611e08565b93898201948552610105805490600160401b821015610d0a578d82019055610b7790612532565b929092610cf9579060029291518255518c820155019251968751928311610ce8575050610ba48254611ee0565b601f8111610ca6575b50879888969798508497601f8311600114610c22578291889983927fdeaa91b6123d068f5821d0fb0678463d1a8a6079fe8af5de3ce5e896dcf9133d999a94610c17575b50501b916000199060031b1c19161790555b60018060a01b03603354169551908152a480f35b015192503880610bf1565b8388528588209098919291601f198316895b818110610c8e575099837fdeaa91b6123d068f5821d0fb0678463d1a8a6079fe8af5de3ce5e896dcf9133d999a9b10610c75575b505050811b019055610c03565b015160001960f88460031b161c19169055388080610c68565b828c015184558d9a5092850192918801918801610c34565b828952848920601f830160051c810191868410610cde575b601f0160051c01905b818110610cd45750610bad565b8981558a01610cc7565b9091508190610cbe565b634e487b7160e01b8a526041905288fd5b634e487b7160e01b8c528b8a52838cfd5b634e487b7160e01b8d5260418b52848dfd5b634e487b7160e01b8c5260418a52838cfd5b885162461bcd60e51b8152808901879052601d818401527f62617463684d696e743a3a6578636565646564206d6178546f6b656e730000006044820152606490fd5b50634e487b7160e01b89526011875288fd5b634e487b7160e01b8b5260118952828bfd5b634e487b7160e01b895260118752602489fd5b8334610538578060031936011261053857610dc0611e3f565b603380546001600160a01b0319811690915581906001600160a01b03167f8be0079c531659141344cd1fd0a4f28419497f9722a3daafe3b4186f6b6457e08280a380f35b508290346103a75760203660031901126103a7576001600160a01b03610e28611c6c565b16908115610e45576020848085858152609a845220549051908152f35b608490602085519162461bcd60e51b8352820152602960248201527f4552433732313a2061646472657373207a65726f206973206e6f7420612076616044820152683634b21037bbb732b960b91b6064820152fd5b5091346105385760203660031901126105385750610eba60209235612be0565b90516001600160a01b039091168152f35b50346102c35760203660031901126102c357803591610ee983612be0565b336001600160a01b0390911603610f0457836103038461256e565b906020606492519162461bcd60e51b8352820152601760248201527f4d757374206265206f776e6572206f6620746f6b656e2e0000000000000000006044820152fd5b508290346103a75760803660031901126103a75767ffffffffffffffff9281358481116105e557610f7b9036908401611ce8565b929060243586811161067057610f949036908401611ce8565b610f9f979197611c9d565b9387549860ff94858b60081c16159889809a611446575b8015611430575b156113d65760ff19808d1660019081178d559b9c999a998a6113c5575b506001600160a01b03891615611382579161102d9161101d898f6110359796600a60fc558254168255606435610100555460081c1661101881612486565b612486565b61102633611e97565b3691611e08565b933691611e08565b90611049858b5460081c1661101881612486565b825184811161136f578061105e609754611ee0565b94601f958681116112fe575b506020908d87841160011461127f5792611274575b5050600019600383901b1c1916908a1b176097555b815193841161126157506110a9609854611ee0565b8281116111fe575b5060209183116001146111725791806111269594926110fe948b92611167575b5050600019600383901b1c191690881b176098555b875460081c166110f581612486565b61101881612486565b60fb80546001600160a01b0319166001600160a01b038316179055611121611e3f565b611e97565b61112e578280f35b825461ff0019168355519081527f7f26b83ff96e1f2b6a682f133852f6798a09c465da95921460cefb384740249890602090a181808280f35b015190508a806110d1565b609889528792917f2237a976fa961f5921fd19f2b03c925c725d77b20ce8f790c19709c03de4d81491601f1984168b5b8181106111e65750916110fe9593918561112699989694106111cd575b505050811b016098556110e6565b015160001960f88460031b161c191690558a80806111bf565b8284015185558b9690940193602093840193016111a2565b60988a527f2237a976fa961f5921fd19f2b03c925c725d77b20ce8f790c19709c03de4d8148380860160051c82019260208710611258575b0160051c019089905b82811061124d5750506110b1565b8b815501899061123f565b92508192611236565b634e487b7160e01b8a5260419052602489fd5b015190508c8061107f565b91908d9450601f198416609784527f354a83ed9988f79f6038d4c7a7dadbad8af32f4ad6df893e0e5807a1b1944ff9935b8181106112e6575084116112cd575b505050811b01609755611094565b015160001960f88460031b161c191690558c80806112bf565b8284015185558f9690940193602093840193016112b0565b90915060978d527f354a83ed9988f79f6038d4c7a7dadbad8af32f4ad6df893e0e5807a1b1944ff98680850160051c82019260208610611366575b859493910160051c909101908d908f5b8382106113585750505061106a565b81558594508e91018f611349565b92508192611339565b634e487b7160e01b8b526041825260248bfd5b8a5162461bcd60e51b8152602081870152601e60248201527f63726561746f722063616e6e6f74206265206e756c6c206164647265737300006044820152606490fd5b61ffff1916610101178d558d610fda565b885162461bcd60e51b8152602081860152602e60248201527f496e697469616c697a61626c653a20636f6e747261637420697320616c72656160448201526d191e481a5b9a5d1a585b1a5e995960921b6064820152608490fd5b50303b158015610fbd57506001878d1614610fbd565b506001878d1610610fb6565b8382346103a75760603660031901126103a757803567ffffffffffffffff81116102c3576102929161148691369101611ce8565b9061148f611c87565b611497611c9d565b926114a0611e3f565b6114ae60ff805416156124e6565b6114be60fc549333923691611e08565b6126bc565b50346102c35760203660031901126102c35780359160038310156105e5576033546001600160a01b031633036102b657506101089182549160ff83169060038210156115405750908060ff92337f12282389323caf08dd4e02c490ef05bc7edb56967c085742687aad3cc81aa15f8880a4169060ff191617905580f35b634e487b7160e01b865260219052602485fd5b8382346103a75760203660031901126103a757610303903561256e565b5050346103a75761066b6103039161158736611cb3565b9192519261159484611d98565b86845261065b6106568433612c50565b5050346103a75760203660031901126103a75760335490516001600160a01b039091168152602090f35b8334610538576020366003190112610538576103036115eb611c6c565b6115f3611e3f565b60018060a01b03166001600160601b0360a01b60fb54161760fb55565b5050346103a757816003193601126103a75760fb5490516001600160a01b039091168152602090f35b82843461053857806003193601126105385761165a60ff61010854166122a7565b9180519182845490818152602080910195835280832092905b82821061169557610534868661168b828b0383611dca565b5191829182611be0565b835487529586019560019384019390910190611673565b5091346105385781600319360112610538578235815260fd60205281812054602435906001600160a01b03908116801561173257925b60fe60205284812054801561172857925b8381029381850414901517156117155750835192168252606490046020820152f35b634e487b7160e01b815260118652602490fd5b5060fc54926116f3565b508060fb5416926116e2565b83346105385761030361175036611cb3565b9161175e6106568433612c50565b612d82565b5050346103a75760203660031901126103a757602090611781611c6c565b60018060a01b0380603354169116149051908152f35b5050346103a757816003193601126103a757602090610104549051908152f35b50346102c357816003193601126102c3576117d0611c6c565b906024359260ff610108541660038110156119c057600181036119795750600180865261010760209081528287206001600160a01b03861660009081529201905260409020541561196d575b6001600160a01b0391828061183087612be0565b1694169380851461192057803314908115611901575b50156118995750838552610103602052842080546001600160a01b0319168317905561187183612656565b167f8c5be1e5ebec7d5bd14f71427d1e84f3dd0314c0f7b2291e5b200ac8c7c3b9258480a480f35b6020608492519162461bcd60e51b8352820152603860248201527f4552433732313a20617070726f76652063616c6c6572206973206e6f74206f7760448201527f6e6572206e6f7220617070726f76656420666f7220616c6c00000000000000006064820152fd5b90508652609c60205281862033875260205260ff828720541638611846565b506020608492519162461bcd60e51b8352820152602160248201527f4552433732313a20617070726f76616c20746f2063757272656e74206f776e656044820152603960f91b6064820152fd5b516282b42960e81b8152fd5b60020361181c57600285526101076020526119af81862060018060a01b0385169060019160005201602052604060002054151590565b1561181c57516282b42960e81b8152fd5b634e487b7160e01b865260218352602486fd5b5091346105385760203660031901126105385750610eba60209235612cba565b5050346103a757816003193601126103a75780519082609754611a1581611ee0565b808552916001918083169081156109c35750600114611a405750505061095482610534940383611dca565b9450609785527f354a83ed9988f79f6038d4c7a7dadbad8af32f4ad6df893e0e5807a1b1944ff95b828610611a85575050506109548260206105349582010194610942565b80546020878701810191909152909501948101611a68565b50346102c35760203660031901126102c35735906001600160e01b031982168083036105e5576020935063fa31a45b60e01b8114928315611b62575b8315611aea575b5050519015158152f35b919250631030681960e21b811491908215611b51575b8215611b28575b508115611b18575b50903880611ae0565b611b229150612fdf565b38611b0f565b90915063152a902d60e11b148015611b42575b9038611b07565b50611b4c81612fdf565b611b3b565b6301ffc9a760e01b81149250611b00565b6301ffc9a760e01b82149350611ad9565b5090346102c357602091826003193601126105e5573560038110156105e557611b9b906122a7565b9281518093808654928381520195835280832092905b828210611bc957610534868661168b828b0383611dca565b835487529586019560019384019390910190611bb1565b6020908160408183019282815285518094520193019160005b828110611c07575050505090565b83516001600160a01b031685529381019392810192600101611bf9565b60005b838110611c375750506000910152565b8181015183820152602001611c27565b90602091611c6081518092818552858086019101611c24565b601f01601f1916010190565b600435906001600160a01b0382168203611c8257565b600080fd5b602435906001600160a01b0382168203611c8257565b604435906001600160a01b0382168203611c8257565b6060906003190112611c82576001600160a01b03906004358281168103611c8257916024359081168103611c82579060443590565b9181601f84011215611c825782359167ffffffffffffffff8311611c825760208381860195010111611c8257565b919060208301926003821015611d295752565b634e487b7160e01b600052602160045260246000fd5b6040600319820112611c82576004356003811015611c82579160243567ffffffffffffffff92838211611c825780602383011215611c82578160040135938411611c825760248460051b83010111611c82576024019190565b6020810190811067ffffffffffffffff821117611db457604052565b634e487b7160e01b600052604160045260246000fd5b90601f8019910116810190811067ffffffffffffffff821117611db457604052565b67ffffffffffffffff8111611db457601f01601f191660200190565b929192611e1482611dec565b91611e226040519384611dca565b829481845281830111611c82578281602093846000960137010152565b6033546001600160a01b03163303611e5357565b606460405162461bcd60e51b815260206004820152602060248201527f4f776e61626c653a2063616c6c6572206973206e6f7420746865206f776e65726044820152fd5b603380546001600160a01b039283166001600160a01b0319821681179092559091167f8be0079c531659141344cd1fd0a4f28419497f9722a3daafe3b4186f6b6457e0600080a3565b90600182811c92168015611f10575b6020831014611efa57565b634e487b7160e01b600052602260045260246000fd5b91607f1691611eef565b9060405191826000825492611f2e84611ee0565b908184526001948581169081600014611f9d5750600114611f5a575b5050611f5892500383611dca565b565b9093915060005260209081600020936000915b818310611f85575050611f5893508201013880611f4a565b85548884018501529485019487945091830191611f6d565b915050611f5894506020925060ff191682840152151560051b8201013880611f4a565b15611fc757565b60405162461bcd60e51b815260206004820152602d60248201527f4552433732313a2063616c6c6572206973206e6f7420746f6b656e206f776e6560448201526c1c881bdc88185c1c1c9bdd9959609a1b6064820152608490fd5b60809060208152603260208201527f4552433732313a207472616e7366657220746f206e6f6e20455243373231526560408201527131b2b4bb32b91034b6b83632b6b2b73a32b960711b60608201520190565b1561207c57565b60405162461bcd60e51b81528061209560048201612022565b0390fd5b9192600092909190803b156121ab576120e7946040518092630a85bd0160e11b9485835233600484015287602484015260448301526080606483015281878160209a8b966084830190611c47565b03926001600160a01b03165af184918161216b575b5061215a575050503d600014612152573d61211681611dec565b906121246040519283611dca565b81528091833d92013e5b8051918261214f5760405162461bcd60e51b81528061209560048201612022565b01fd5b50606061212e565b6001600160e01b0319161492509050565b9091508581813d83116121a4575b6121838183611dca565b8101031261081157516001600160e01b0319811681036108115790386120fc565b503d612179565b5050915050600190565b9293600093909291803b156122355794849161220f9660405180948193630a85bd0160e11b9788845233600485015260018060a01b0380921660248501526044840152608060648401528260209b8c976084830190611c47565b0393165af184918161216b575061215a575050503d600014612152573d61211681611dec565b505050915050600190565b90929167ffffffffffffffff8411611db4578360051b604051926020809461226a82850182611dca565b8097815201918101928311611c8257905b8282106122885750505050565b81356001600160a01b0381168103611c8257815290830190830161227b565b6003811015611d2957600052610107602052604060002090565b60001981146122d05760010190565b634e487b7160e01b600052601160045260246000fd5b80518210156122fa5760209160051b010190565b634e487b7160e01b600052603260045260246000fd5b80548210156122fa5760005260206000200190600090565b600082815260018201602052604090205461238f57805490600160401b821015611db45782612378612361846001809601855584612310565b819391549060031b91821b91600019901b19161790565b905580549260005201602052604060002055600190565b5050600090565b9060018201906000928184528260205260408420549081151560001461247f576000199180830181811161246b5782549084820191821161245757808203612422575b5050508054801561240e578201916123f18383612310565b909182549160031b1b191690555582526020526040812055600190565b634e487b7160e01b86526031600452602486fd5b6124426124326123619386612310565b90549060031b1c92839286612310565b905586528460205260408620553880806123d9565b634e487b7160e01b88526011600452602488fd5b634e487b7160e01b87526011600452602487fd5b5050505090565b1561248d57565b60405162461bcd60e51b815260206004820152602b60248201527f496e697469616c697a61626c653a20636f6e7472616374206973206e6f74206960448201526a6e697469616c697a696e6760a81b6064820152608490fd5b156124ed57565b60405162461bcd60e51b815260206004820152601e60248201527f436f6e7472616374206d757374206e6f742062652064697361626c65642e00006044820152606490fd5b6101059081548110156122fa57600391600052027ffc62abc8c0fc47c2d92f5aec99bf8b60f375828e14394d89345cae11a98673710190600090565b61257781612f57565b5050600082815261010260205260408120805460ff191660011790559080612637575b612633576125ab6106568333612c50565b6125b482612656565b506125be82612656565b828252609b6020908152604080842080546001600160a01b03199081169091556001600160a01b03909316808552609a835281852080546000190190558585526099909252832080549092169091557fddf252ad1be2c89b69c2b068fc378daa952ba7f163c4a11628f55a4df523b3ef8280a4565b5050565b506000828152609960205260409020546001600160a01b03161561259a565b6000908152609960205260409020546001600160a01b031680156126775790565b60405162461bcd60e51b815260206004820152601860248201527f4552433732313a20696e76616c696420746f6b656e20494400000000000000006044820152606490fd5b9392909160019461010495808754018097556101005487116128765761270061066b6040516126ea81611d98565b896000968783526126fb8282612906565b612099565b8683526020916101068352604084209181519167ffffffffffffffff83116128625761272c8454611ee0565b601f811161281c575b508490601f84116001146127b357928060fd9593819389989660409a946127a8575b50501b916000199060031b1c19161790555b87835261010181528383209460018060a01b0395866001600160601b0360a01b98168882541617905560fe825284842055522092169082541617905590565b015192503880612757565b8487528587209293929190601f198416885b818110612807575091604098979593918560fd989694106127ee575b505050811b019055612769565b015160001960f88460031b161c191690553880806127e1565b828401518555938601939288019288016127c5565b848752858720601f850160051c810191878610612858575b601f0160051c019083905b82811061284d575050612735565b88815501839061283f565b9091508190612834565b634e487b7160e01b86526041600452602486fd5b606460405162461bcd60e51b815260206004820152602060248201527f5f637265617465546f6b656e3a3a6578636565646564206d6178546f6b656e736044820152fd5b156128c157565b60405162461bcd60e51b815260206004820152601c60248201527f4552433732313a20746f6b656e20616c7265616479206d696e746564000000006044820152606490fd5b6001600160a01b031680156129b65760008281526099602052604090205461293a906001600160a01b031615155b156128ba565b60008281526099602052604090205461295d906001600160a01b03161515612934565b6000818152609a6020526040812060018154019055828152609960205260408120826001600160601b0360a01b8254161790557fddf252ad1be2c89b69c2b068fc378daa952ba7f163c4a11628f55a4df523b3ef8180a4565b606460405162461bcd60e51b815260206004820152602060248201527f4552433732313a206d696e7420746f20746865207a65726f20616464726573736044820152fd5b612a0381612f57565b9115159050612a265750600052610106602052612a236040600020611f1a565b90565b90600090807a184f03e93ff9f4daa797ed6e38ed64bf6a1f0100000000000000008181811015612bd2575b50506d04ee2d6d415b85acef810000000080821015612bc5575b50662386f26fc1000080821015612bb8575b506305f5e10080821015612bab575b5061271080821015612b9e575b506064811015612b90575b600a80911015612b86575b600180840192816021612ada612ac487611dec565b96612ad26040519889611dca565b808852611dec565b602087019790601f1901368937860101905b612b50575b50505050612b3392612a23926026926040519583612b19889551809260208089019101611c24565b840191602f60f81b60208401525180936021840190611c24565b0164173539b7b760d91b6021820152036006810184520182611dca565b600019019083906f181899199a1a9b1b9c1cb0b131b232b360811b8282061a835304918215612b8157919082612aec565b612af1565b9160010191612aaf565b606460029104920191612aa4565b6004910492019138612a99565b6008910492019138612a8c565b6010910492019138612a7d565b6020910492019138612a6b565b604094500490503880612a51565b612be981612f57565b5050612bf857612a2390612656565b8060005261010260205260ff60406000205416600014612c1b57612a2390612656565b6000818152609960205260409020546001600160a01b0316612c4757506033546001600160a01b031690565b612a2390612656565b6001600160a01b03908180612c6485612be0565b16911691818314938415612ca3575b50508215612c8057505090565b909150600052609c60205260406000209060005260205260ff6040600020541690565b83929450612cb090612cba565b1614913880612c73565b600081815260fd60205260408120546001600160a01b039291908316612cdf83612f57565b5050908115612d78575b5080612d60575b15612d0657604091815261010360205220541690565b60405162461bcd60e51b815260206004820152602c60248201527f4552433732313a20617070726f76656420717565727920666f72206e6f6e657860448201526b34b9ba32b73a103a37b5b2b760a11b6064820152608490fd5b5081815261010260205260ff60408220541615612cf0565b9050151538612ce9565b908215611c8257612dcc91612d9684612f57565b505080612ede575b80612ec4575b612eb5575b612db284612656565b6001600160a01b0393918416928492909183168414612efd565b16918215612e645781612de991612de286612656565b1614612efd565b7fddf252ad1be2c89b69c2b068fc378daa952ba7f163c4a11628f55a4df523b3ef6000848152609b602052604081206001600160601b0360a01b90818154169055838252609a6020526040822060001981540190558482526040822060018154019055858252609960205284604083209182541617905580a4565b60405162461bcd60e51b8152602060048201526024808201527f4552433732313a207472616e7366657220746f20746865207a65726f206164646044820152637265737360e01b6064820152608490fd5b612ebf8482612906565b612da9565b508360005261010260205260ff6040600020541615612da4565b506000848152609960205260409020546001600160a01b031615612d9e565b15612f0457565b60405162461bcd60e51b815260206004820152602560248201527f4552433732313a207472616e736665722066726f6d20696e636f72726563742060448201526437bbb732b960d91b6064820152608490fd5b61010554919060005b838110612f845750509050600090600090604051612f7d81611d98565b6000815290565b612f8d81612532565b505482101580612fc8575b612faa57612fa5906122c1565b612f60565b809350612fb79150612532565b5090612a2360026001949301611f1a565b506001612fd482612532565b500154821115612f98565b63ffffffff60e01b166380ac58cd60e01b8114908115613012575b8115613004575090565b6301ffc9a760e01b14919050565b635b5e139f60e01b81149150612ffa56fea2646970667358221220c513c80d3754ef4fd1e7ac6c77aa64158f3d8bb05bfc915f1077fa473753ab6264736f6c63430008120033","linkReferences":{}},"methodIdentifiers":{"addNewToken(string)":"d9856c21","approve(address,uint256)":"095ea7b3","balanceOf(address)":"70a08231","batchAddAddressToRoyaltyList(uint8,address[])":"ff6e8c8f","batchMint(string,uint256)":"7cc918d1","batchRemoveAddressToRoyaltyList(uint8,address[])":"9e860f2a","burn(uint256)":"42966c68","clearList(uint8)":"bc719455","deleteToken(uint256)":"6297c16c","disableContract()":"894ba833","disabled()":"ee070805","getApproved(uint256)":"081812fc","getDefaultRoyaltyPercentage()":"ab69607a","getDefaultRoyaltyReceiver()":"3403c4e9","getInUseList()":"2ce878da","getList(uint8)":"012cf1e8","getListType()":"87bc793f","hasAdminPermission(address)":"20427486","init(string,string,address,uint256)":"5edc7c19","isApprovedForAll(address,address)":"e985e9c5","isOperatorInList(address)":"eab85118","maxTokens()":"e8315742","mintTo(string,address,address)":"4aa52c41","name()":"06fdde03","owner()":"8da5cb5b","ownerOf(uint256)":"6352211e","renounceOwnership()":"715018a6","royaltyInfo(uint256,uint256)":"2a55205a","safeTransferFrom(address,address,uint256)":"42842e0e","safeTransferFrom(address,address,uint256,bytes)":"b88d4fde","setApprovalForAll(address,bool)":"a22cb465","setDefaultRoyaltyReceiver(address)":"3ebc82c5","setRoyaltyReceiverForToken(address,uint256)":"efc32cd4","supportsInterface(bytes4)":"01ffc9a7","symbol()":"95d89b41","toggleListType(uint8)":"472a6638","tokenCreator(uint256)":"40c1a064","tokenURI(uint256)":"c87b56dd","totalSupply()":"18160ddd","transferFrom(address,address,uint256)":"23b872dd","transferOwnership(address)":"f2fde38b"},"id":202}