{"abi":[{"type":"function","name":"activateDeadmanListTrigger","inputs":[],"outputs":[],"stateMutability":"nonpayable"},{"type":"function","name":"addNewToken","inputs":[{"name":"_uri","type":"string","internalType":"string"}],"outputs":[],"stateMutability":"nonpayable"},{"type":"function","name":"approve","inputs":[{"name":"_spender","type":"address","internalType":"address"},{"name":"_id","type":"uint256","internalType":"uint256"}],"outputs":[],"stateMutability":"nonpayable"},{"type":"function","name":"balanceOf","inputs":[{"name":"owner","type":"address","internalType":"address"}],"outputs":[{"name":"","type":"uint256","internalType":"uint256"}],"stateMutability":"view"},{"type":"function","name":"batchAddAddressToRoyaltyList","inputs":[{"name":"_listType","type":"uint8","internalType":"enum IRoyaltyGuard.ListType"},{"name":"_addrs","type":"address[]","internalType":"address[]"}],"outputs":[],"stateMutability":"nonpayable"},{"type":"function","name":"batchMint","inputs":[{"name":"_baseURI","type":"string","internalType":"string"},{"name":"_numberOfTokens","type":"uint256","internalType":"uint256"}],"outputs":[],"stateMutability":"nonpayable"},{"type":"function","name":"batchRemoveAddressToRoyaltyList","inputs":[{"name":"_listType","type":"uint8","internalType":"enum IRoyaltyGuard.ListType"},{"name":"_addrs","type":"address[]","internalType":"address[]"}],"outputs":[],"stateMutability":"nonpayable"},{"type":"function","name":"burn","inputs":[{"name":"_tokenId","type":"uint256","internalType":"uint256"}],"outputs":[],"stateMutability":"nonpayable"},{"type":"function","name":"clearList","inputs":[{"name":"_listType","type":"uint8","internalType":"enum IRoyaltyGuard.ListType"}],"outputs":[],"stateMutability":"nonpayable"},{"type":"function","name":"deleteToken","inputs":[{"name":"_tokenId","type":"uint256","internalType":"uint256"}],"outputs":[],"stateMutability":"nonpayable"},{"type":"function","name":"disableContract","inputs":[],"outputs":[],"stateMutability":"nonpayable"},{"type":"function","name":"disabled","inputs":[],"outputs":[{"name":"","type":"bool","internalType":"bool"}],"stateMutability":"view"},{"type":"function","name":"getApproved","inputs":[{"name":"_tokenId","type":"uint256","internalType":"uint256"}],"outputs":[{"name":"","type":"address","internalType":"address"}],"stateMutability":"view"},{"type":"function","name":"getDeadmanTriggerAvailableDatetime","inputs":[],"outputs":[{"name":"","type":"uint256","internalType":"uint256"}],"stateMutability":"view"},{"type":"function","name":"getDefaultRoyaltyPercentage","inputs":[],"outputs":[{"name":"","type":"uint256","internalType":"uint256"}],"stateMutability":"view"},{"type":"function","name":"getDefaultRoyaltyReceiver","inputs":[],"outputs":[{"name":"","type":"address","internalType":"address"}],"stateMutability":"view"},{"type":"function","name":"getInUseList","inputs":[],"outputs":[{"name":"","type":"address[]","internalType":"address[]"}],"stateMutability":"view"},{"type":"function","name":"getList","inputs":[{"name":"_listType","type":"uint8","internalType":"enum IRoyaltyGuard.ListType"}],"outputs":[{"name":"","type":"address[]","internalType":"address[]"}],"stateMutability":"view"},{"type":"function","name":"getListType","inputs":[],"outputs":[{"name":"","type":"uint8","internalType":"enum IRoyaltyGuard.ListType"}],"stateMutability":"view"},{"type":"function","name":"hasAdminPermission","inputs":[{"name":"_addr","type":"address","internalType":"address"}],"outputs":[{"name":"","type":"bool","internalType":"bool"}],"stateMutability":"view"},{"type":"function","name":"init","inputs":[{"name":"_name","type":"string","internalType":"string"},{"name":"_symbol","type":"string","internalType":"string"},{"name":"_creator","type":"address","internalType":"address"},{"name":"_maxTokens","type":"uint256","internalType":"uint256"}],"outputs":[],"stateMutability":"nonpayable"},{"type":"function","name":"isApprovedForAll","inputs":[{"name":"owner","type":"address","internalType":"address"},{"name":"operator","type":"address","internalType":"address"}],"outputs":[{"name":"","type":"bool","internalType":"bool"}],"stateMutability":"view"},{"type":"function","name":"isOperatorInList","inputs":[{"name":"_operator","type":"address","internalType":"address"}],"outputs":[{"name":"","type":"bool","internalType":"bool"}],"stateMutability":"view"},{"type":"function","name":"maxTokens","inputs":[],"outputs":[{"name":"","type":"uint256","internalType":"uint256"}],"stateMutability":"view"},{"type":"function","name":"mintTo","inputs":[{"name":"_uri","type":"string","internalType":"string"},{"name":"_receiver","type":"address","internalType":"address"},{"name":"_royaltyReceiver","type":"address","internalType":"address"}],"outputs":[],"stateMutability":"nonpayable"},{"type":"function","name":"name","inputs":[],"outputs":[{"name":"","type":"string","internalType":"string"}],"stateMutability":"view"},{"type":"function","name":"owner","inputs":[],"outputs":[{"name":"","type":"address","internalType":"address"}],"stateMutability":"view"},{"type":"function","name":"ownerOf","inputs":[{"name":"_tokenId","type":"uint256","internalType":"uint256"}],"outputs":[{"name":"","type":"address","internalType":"address"}],"stateMutability":"view"},{"type":"function","name":"renounceOwnership","inputs":[],"outputs":[],"stateMutability":"nonpayable"},{"type":"function","name":"royaltyInfo","inputs":[{"name":"_tokenId","type":"uint256","internalType":"uint256"},{"name":"_salePrice","type":"uint256","internalType":"uint256"}],"outputs":[{"name":"receiver","type":"address","internalType":"address"},{"name":"royaltyAmount","type":"uint256","internalType":"uint256"}],"stateMutability":"view"},{"type":"function","name":"safeTransferFrom","inputs":[{"name":"from","type":"address","internalType":"address"},{"name":"to","type":"address","internalType":"address"},{"name":"tokenId","type":"uint256","internalType":"uint256"}],"outputs":[],"stateMutability":"nonpayable"},{"type":"function","name":"safeTransferFrom","inputs":[{"name":"from","type":"address","internalType":"address"},{"name":"to","type":"address","internalType":"address"},{"name":"tokenId","type":"uint256","internalType":"uint256"},{"name":"data","type":"bytes","internalType":"bytes"}],"outputs":[],"stateMutability":"nonpayable"},{"type":"function","name":"setApprovalForAll","inputs":[{"name":"_operator","type":"address","internalType":"address"},{"name":"_approved","type":"bool","internalType":"bool"}],"outputs":[],"stateMutability":"nonpayable"},{"type":"function","name":"setDeadmanListTriggerRenewalDuration","inputs":[{"name":"_numYears","type":"uint256","internalType":"uint256"}],"outputs":[],"stateMutability":"nonpayable"},{"type":"function","name":"setDefaultRoyaltyReceiver","inputs":[{"name":"_receiver","type":"address","internalType":"address"}],"outputs":[],"stateMutability":"nonpayable"},{"type":"function","name":"setRoyaltyReceiverForToken","inputs":[{"name":"_receiver","type":"address","internalType":"address"},{"name":"_tokenId","type":"uint256","internalType":"uint256"}],"outputs":[],"stateMutability":"nonpayable"},{"type":"function","name":"supportsInterface","inputs":[{"name":"_interfaceId","type":"bytes4","internalType":"bytes4"}],"outputs":[{"name":"","type":"bool","internalType":"bool"}],"stateMutability":"view"},{"type":"function","name":"symbol","inputs":[],"outputs":[{"name":"","type":"string","internalType":"string"}],"stateMutability":"view"},{"type":"function","name":"toggleListType","inputs":[{"name":"_newListType","type":"uint8","internalType":"enum IRoyaltyGuard.ListType"}],"outputs":[],"stateMutability":"nonpayable"},{"type":"function","name":"tokenCreator","inputs":[{"name":"","type":"uint256","internalType":"uint256"}],"outputs":[{"name":"","type":"address","internalType":"address payable"}],"stateMutability":"view"},{"type":"function","name":"tokenURI","inputs":[{"name":"_tokenId","type":"uint256","internalType":"uint256"}],"outputs":[{"name":"","type":"string","internalType":"string"}],"stateMutability":"view"},{"type":"function","name":"totalSupply","inputs":[],"outputs":[{"name":"","type":"uint256","internalType":"uint256"}],"stateMutability":"view"},{"type":"function","name":"transferFrom","inputs":[{"name":"from","type":"address","internalType":"address"},{"name":"to","type":"address","internalType":"address"},{"name":"tokenId","type":"uint256","internalType":"uint256"}],"outputs":[],"stateMutability":"nonpayable"},{"type":"function","name":"transferOwnership","inputs":[{"name":"newOwner","type":"address","internalType":"address"}],"outputs":[],"stateMutability":"nonpayable"},{"type":"event","name":"AddressAddedToList","inputs":[{"name":"_updater","type":"address","indexed":true,"internalType":"address"},{"name":"_addedAddr","type":"address","indexed":true,"internalType":"address"},{"name":"_ListType","type":"uint8","indexed":true,"internalType":"enum IRoyaltyGuard.ListType"}],"anonymous":false},{"type":"event","name":"AddressRemovedList","inputs":[{"name":"_updater","type":"address","indexed":true,"internalType":"address"},{"name":"_removedAddr","type":"address","indexed":true,"internalType":"address"},{"name":"_ListType","type":"uint8","indexed":true,"internalType":"enum IRoyaltyGuard.ListType"}],"anonymous":false},{"type":"event","name":"Approval","inputs":[{"name":"owner","type":"address","indexed":true,"internalType":"address"},{"name":"approved","type":"address","indexed":true,"internalType":"address"},{"name":"tokenId","type":"uint256","indexed":true,"internalType":"uint256"}],"anonymous":false},{"type":"event","name":"ApprovalForAll","inputs":[{"name":"owner","type":"address","indexed":true,"internalType":"address"},{"name":"operator","type":"address","indexed":true,"internalType":"address"},{"name":"approved","type":"bool","indexed":false,"internalType":"bool"}],"anonymous":false},{"type":"event","name":"ConsecutiveTransfer","inputs":[{"name":"fromTokenId","type":"uint256","indexed":true,"internalType":"uint256"},{"name":"toTokenId","type":"uint256","indexed":false,"internalType":"uint256"},{"name":"fromAddress","type":"address","indexed":true,"internalType":"address"},{"name":"toAddress","type":"address","indexed":true,"internalType":"address"}],"anonymous":false},{"type":"event","name":"ContractDisabled","inputs":[{"name":"user","type":"address","indexed":true,"internalType":"address"}],"anonymous":false},{"type":"event","name":"DeadmanTriggerActivated","inputs":[{"name":"_activator","type":"address","indexed":true,"internalType":"address"}],"anonymous":false},{"type":"event","name":"DeadmanTriggerDatetimeUpdated","inputs":[{"name":"_updater","type":"address","indexed":true,"internalType":"address"},{"name":"_oldDatetime","type":"uint256","indexed":false,"internalType":"uint256"},{"name":"_newDatetime","type":"uint256","indexed":false,"internalType":"uint256"}],"anonymous":false},{"type":"event","name":"Initialized","inputs":[{"name":"version","type":"uint8","indexed":false,"internalType":"uint8"}],"anonymous":false},{"type":"event","name":"ListCleared","inputs":[{"name":"_updater","type":"address","indexed":true,"internalType":"address"},{"name":"_listType","type":"uint8","indexed":false,"internalType":"enum IRoyaltyGuard.ListType"}],"anonymous":false},{"type":"event","name":"ListTypeUpdated","inputs":[{"name":"_updater","type":"address","indexed":true,"internalType":"address"},{"name":"_oldListType","type":"uint8","indexed":true,"internalType":"enum IRoyaltyGuard.ListType"},{"name":"_newListType","type":"uint8","indexed":true,"internalType":"enum IRoyaltyGuard.ListType"}],"anonymous":false},{"type":"event","name":"OwnershipTransferred","inputs":[{"name":"previousOwner","type":"address","indexed":true,"internalType":"address"},{"name":"newOwner","type":"address","indexed":true,"internalType":"address"}],"anonymous":false},{"type":"event","name":"Transfer","inputs":[{"name":"from","type":"address","indexed":true,"internalType":"address"},{"name":"to","type":"address","indexed":true,"internalType":"address"},{"name":"tokenId","type":"uint256","indexed":true,"internalType":"uint256"}],"anonymous":false},{"type":"error","name":"CantAddToOFFList","inputs":[]},{"type":"error","name":"DeadmanTriggerStillActive","inputs":[]},{"type":"error","name":"MustBeAdmin","inputs":[]},{"type":"error","name":"Unauthorized","inputs":[]}],"bytecode":{"object":"0x60808060405234610016576131e5908161001c8239f35b600080fdfe6040608081526004908136101561001557600080fd5b600091823560e01c8063012cf1e814611cf257806301ffc9a714611c1c57806306fdde0314611b72578063081812fc14611b52578063095ea7b31461193657806318160ddd1461191657806320427486146118e257806321c4a5d81461183d57806323b872dd146118185780632a55205a146117865780632ce878da146117135780633403c4e9146116ea5780633ebc82c5146116a857806340c1a0641461167e57806342842e0e1461164a57806342966c681461162d578063472a66381461159d5780634aa52c411461152c5780635aec8d62146114845780635edc7c1914610f795780636297c16c14610efd5780636352211e14610ecc57806370a0823114610e36578063715018a614610dd9578063717392ed14610db95780637cc918d114610aab57806387bc793f14610a83578063894ba83314610a355780638da5cb5b14610a0c57806395d89b41146109275780639e860f2a14610836578063a22cb465146106b4578063ab69607a14610695578063b88d4fde1461060a578063bc7194551461055c578063c87b56dd14610521578063d9856c21146104b8578063e831574214610498578063e985e9c51461044a578063eab85118146103ef578063ee070805146103cc578063efc32cd414610379578063f2fde38b146102e85763ff6e8c8f1461020557600080fd5b346102e45761021336611ebe565b90919260018060a01b0394856033541633036102d75760038510156102c45784156102b7575050906102469136916123bf565b92805b84518110156102b3576102ae9061027561026285612426565b8661026d848a612465565b5116906124a7565b5083856102828389612465565b5116337f14155f749dc3f9cd2bf890d6d3a47069f77ae35befcee11c8b1a3ba41cba15368680a4612440565b610249565b5080f35b51632de777a160e11b8152fd5b634e487b7160e01b875260218252602487fd5b51635c510c8360e11b8152fd5b8280fd5b50346102e45760203660031901126102e457610302611deb565b9161030b611fbe565b6001600160a01b03831615610327578361032484612016565b80f35b906020608492519162461bcd60e51b8352820152602660248201527f4f776e61626c653a206e6577206f776e657220697320746865207a65726f206160448201526564647265737360d01b6064820152fd5b5050346103c857806003193601126103c857610393611deb565b9061039c611fbe565b602435835260fd602052822080546001600160a01b0319166001600160a01b0390921691909117905580f35b5080fd5b5050346103c857816003193601126103c85760209060ff80541690519015158152f35b5050346103c85760203660031901126103c857602090610441610410611deb565b61041f60ff6101085416612426565b6001600160a01b03909116600090815260019091016020526040902054151590565b90519015158152f35b5050346103c857806003193601126103c85760ff8160209361046a611deb565b610472611e06565b6001600160a01b039182168352609c875283832091168252855220549151911615158152f35b5050346103c857816003193601126103c857602090610100549051908152f35b8382346103c85760203660031901126103c857803567ffffffffffffffff81116102e457366023820112156102e4576102b3918160246104fd93369301359101611f87565b610505611fbe565b61051360ff80541615612672565b60fc54339182908190612848565b50913461055957602036600319011261055957506105426105559235612b86565b9051918291602083526020830190611dc6565b0390f35b80fd5b5090346102e45760203660031901126102e4578135916003831015610606576033546001600160a01b031633036105f8575061059782612426565b805490848155816105da575b50507f7efc19cf93d497a6a56103ea89a39d51c0cad74a817ed3cd0ecaff9823d4da249051806105d4339482611e95565b0390a280f35b845260208420908101905b818110156105a3578481556001016105e5565b9051635c510c8360e11b8152fd5b8380fd5b8382346103c85760803660031901126103c857610625611deb565b9061062e611e06565b916044356064359367ffffffffffffffff851161069157366023860112156106915761066961068c9486602461032498369301359101611f87565b9261067c6106778433612ddc565b61213f565b610687838383612f0e565b612334565b6121f4565b8580fd5b5050346103c857816003193601126103c85760209060fc549051908152f35b5090346102e457806003193601126102e4576106ce611deb565b90602435918215158093036108325760ff6101085416600381101561081f57600181036107d55750600180865261010760209081528387206001600160a01b0384166000908152920190526040902054156107c6575b6001600160a01b0316923384146107845750338452609c60205280842083855260205280842060ff1981541660ff8416179055519081527f17307eab39ab6107e8899845ad3d59bd9653f200f220920489ca2b5937696c3160203392a380f35b6020606492519162461bcd60e51b8352820152601960248201527f4552433732313a20617070726f766520746f2063616c6c6572000000000000006044820152fd5b81516282b42960e81b81528490fd5b600203610724576002855261010760205261080b82862060018060a01b0383169060019160005201602052604060002054151590565b156107245781516282b42960e81b81528490fd5b634e487b7160e01b865260218552602486fd5b8480fd5b5090346102e45761084636611ebe565b6033546001600160a01b039490851633036109185750906108689136916123bf565b916003821015908161081f578261087d578580f35b8591929394955b8551811015610908576108ac61089986612426565b836108a4848a612465565b511690612515565b5083826108b98389612465565b5116906108f55790856108f092337fc72e29af1b34de3dec3a764b4ca4d85b9c380ab33b9b268d29b6e7008bd0ed958780a4612440565b610884565b634e487b7160e01b845260218852602484fd5b5050935050505038808080808580f35b51635c510c8360e11b81528590fd5b5050346103c857816003193601126103c857805190826098546109498161205f565b808552916001918083169081156109e45750600114610987575b50505061097582610555940383611f49565b51918291602083526020830190611dc6565b9450609885527f2237a976fa961f5921fd19f2b03c925c725d77b20ce8f790c19709c03de4d8145b8286106109cc575050506109758260206105559582010194610963565b805460208787018101919091529095019481016109af565b61055597508693506020925061097594915060ff191682840152151560051b82010194610963565b5050346103c857816003193601126103c85760335490516001600160a01b039091168152602090f35b8334610559578060031936011261055957610a4e611fbe565b600160ff1960ff54161760ff55337f793bc6423dd0257d64f9d47db72fd4b2162f4541aa41740ba1c5fb5e2cd41bcd8280a280f35b5050346103c857816003193601126103c8576105559060ff6101085416905191829182611e95565b509190346103c857806003193601126103c85767ffffffffffffffff92803584811161060657610ade9036908301611e67565b90610ae7611fbe565b610af560ff80541615612672565b61010490815492600197888501809511610da657602492610b17843587612605565b9360001991828601958611610d945789519660209788810181811087821117610d2e578c52879052869055610100548611610d52578951906060820182811086821117610d405790610b76918c52898352888301968888523691611f87565b948a8201958652610105805490600160401b821015610d2e578e82019055610b9d906126be565b929092610d1d579060029291518255518d820155019351978851938411610d0c575050610bca835461205f565b601f8111610cca575b50889989979899508598601f8411600114610c4557839291899a84927fdeaa91b6123d068f5821d0fb0678463d1a8a6079fe8af5de3ce5e896dcf9133d9a9b95610c3a575b50501b9260031b1c19161790555b60018060a01b03603354169551908152a480f35b015193503880610c18565b98909291601f19831691858a52878a20928a5b818110610cb257509a847fdeaa91b6123d068f5821d0fb0678463d1a8a6079fe8af5de3ce5e896dcf9133d9a9b9c10610c9a575b50505050811b019055610c26565b01519060f88460031b161c1916905538808080610c8c565b828d015185558e9b5093860193918901918901610c58565b838a52858a20601f840160051c810191878510610d02575b601f0160051c01905b818110610cf85750610bd3565b8a81558b01610ceb565b9091508190610ce2565b634e487b7160e01b8b526041905289fd5b634e487b7160e01b8d528c8b52838dfd5b634e487b7160e01b8e5260418c52848efd5b634e487b7160e01b8d5260418b52838dfd5b895162461bcd60e51b8152808a01889052601d818401527f62617463684d696e743a3a6578636565646564206d6178546f6b656e730000006044820152606490fd5b50634e487b7160e01b8a526011885289fd5b634e487b7160e01b885260118652602488fd5b5050346103c857816003193601126103c857602090610109549051908152f35b8334610559578060031936011261055957610df2611fbe565b603380546001600160a01b0319811690915581906001600160a01b03167f8be0079c531659141344cd1fd0a4f28419497f9722a3daafe3b4186f6b6457e08280a380f35b508290346103c85760203660031901126103c8576001600160a01b03610e5a611deb565b16908115610e77576020848085858152609a845220549051908152f35b608490602085519162461bcd60e51b8352820152602960248201527f4552433732313a2061646472657373207a65726f206973206e6f7420612076616044820152683634b21037bbb732b960b91b6064820152fd5b5091346105595760203660031901126105595750610eec60209235612d6c565b90516001600160a01b039091168152f35b50346102e45760203660031901126102e457803591610f1b83612d6c565b336001600160a01b0390911603610f365783610324846126fa565b906020606492519162461bcd60e51b8352820152601760248201527f4d757374206265206f776e6572206f6620746f6b656e2e0000000000000000006044820152fd5b508290346103c85760803660031901126103c85767ffffffffffffffff92813584811161060657610fad9036908401611e67565b929060243586811161069157610fc69036908401611e67565b610fd1979197611e1c565b9387549860ff94858b60081c16159889809a611478575b8015611462575b156114085760ff19808d1660019081178d559b9c999a998a6113f7575b506001600160a01b038916156113b4579161105f9161104f898f6110679796600a60fc558254168255606435610100555460081c1661104a81612612565b612612565b61105833612016565b3691611f87565b933691611f87565b9061107b858b5460081c1661104a81612612565b82518481116113a1578061109060975461205f565b94601f95868111611330575b506020908d8784116001146112b157926112a6575b5050600019600383901b1c1916908a1b176097555b815193841161129357506110db60985461205f565b828111611230575b5060209183116001146111a4579180611158959492611130948b92611199575b5050600019600383901b1c191690881b176098555b875460081c1661112781612612565b61104a81612612565b60fb80546001600160a01b0319166001600160a01b038316179055611153611fbe565b612016565b611160578280f35b825461ff0019168355519081527f7f26b83ff96e1f2b6a682f133852f6798a09c465da95921460cefb384740249890602090a181808280f35b015190508a80611103565b609889528792917f2237a976fa961f5921fd19f2b03c925c725d77b20ce8f790c19709c03de4d81491601f1984168b5b8181106112185750916111309593918561115899989694106111ff575b505050811b01609855611118565b015160001960f88460031b161c191690558a80806111f1565b8284015185558b9690940193602093840193016111d4565b60988a527f2237a976fa961f5921fd19f2b03c925c725d77b20ce8f790c19709c03de4d8148380860160051c8201926020871061128a575b0160051c019089905b82811061127f5750506110e3565b8b8155018990611271565b92508192611268565b634e487b7160e01b8a5260419052602489fd5b015190508c806110b1565b91908d9450601f198416609784527f354a83ed9988f79f6038d4c7a7dadbad8af32f4ad6df893e0e5807a1b1944ff9935b818110611318575084116112ff575b505050811b016097556110c6565b015160001960f88460031b161c191690558c80806112f1565b8284015185558f9690940193602093840193016112e2565b90915060978d527f354a83ed9988f79f6038d4c7a7dadbad8af32f4ad6df893e0e5807a1b1944ff98680850160051c82019260208610611398575b859493910160051c909101908d908f5b83821061138a5750505061109c565b81558594508e91018f61137b565b9250819261136b565b634e487b7160e01b8b526041825260248bfd5b8a5162461bcd60e51b8152602081870152601e60248201527f63726561746f722063616e6e6f74206265206e756c6c206164647265737300006044820152606490fd5b61ffff1916610101178d558d61100c565b885162461bcd60e51b8152602081860152602e60248201527f496e697469616c697a61626c653a20636f6e747261637420697320616c72656160448201526d191e481a5b9a5d1a585b1a5e995960921b6064820152608490fd5b50303b158015610fef57506001878d1614610fef565b506001878d1610610fe8565b5090346102e457826003193601126102e45761010954421061151f57506101089081549060ff821690600382101561150c57508390337f12282389323caf08dd4e02c490ef05bc7edb56967c085742687aad3cc81aa15f8380a460ff19169055337f60faf76514baf225c418dfc1e3c75bed0bd280f0436999e12cb0a73acb0f9a468280a280f35b634e487b7160e01b855260219052602484fd5b5163807a684760e01b8152fd5b8382346103c85760603660031901126103c857803567ffffffffffffffff81116102e4576102b39161156091369101611e67565b90611569611e06565b611571611e1c565b9261157a611fbe565b61158860ff80541615612672565b61159860fc549333923691611f87565b612848565b50346102e45760203660031901126102e4578035916003831015610606576033546001600160a01b031633036102d757506101089182549160ff831690600382101561161a5750908060ff92337f12282389323caf08dd4e02c490ef05bc7edb56967c085742687aad3cc81aa15f8880a4169060ff191617905580f35b634e487b7160e01b865260219052602485fd5b8382346103c85760203660031901126103c85761032490356126fa565b5050346103c85761068c6103249161166136611e32565b9192519261166e84611f17565b86845261067c6106778433612ddc565b5050346103c85760203660031901126103c85760335490516001600160a01b039091168152602090f35b8334610559576020366003190112610559576103246116c5611deb565b6116cd611fbe565b60018060a01b03166001600160601b0360a01b60fb54161760fb55565b5050346103c857816003193601126103c85760fb5490516001600160a01b039091168152602090f35b82843461055957806003193601126105595761173460ff6101085416612426565b9180519182845490818152602080910195835280832092905b82821061176f576105558686611765828b0383611f49565b5191829182611d5f565b83548752958601956001938401939091019061174d565b5091346105595781600319360112610559578235815260fd60205281812054602435906001600160a01b03908116801561180c57925b60fe60205284812054801561180257925b8381029381850414901517156117ef5750835192168252606490046020820152f35b634e487b7160e01b815260118652602490fd5b5060fc54926117cd565b508060fb5416926117bc565b83346105595761032461182a36611e32565b916118386106778433612ddc565b612f0e565b50346102e45760203660031901126102e457603354813591906001600160a01b031633036118d4576301e13380918281029281840414901517156118c157506118869042612605565b90610109907f6e948191a35d69000746799fef50c705bbdc93bd5a7577e9e9eb879c04bdebc982549180519283528460208401523392a25580f35b634e487b7160e01b845260119052602483fd5b8251635c510c8360e11b8152fd5b5050346103c85760203660031901126103c857602090611900611deb565b60018060a01b0380603354169116149051908152f35b5050346103c857816003193601126103c857602090610104549051908152f35b50346102e457816003193601126102e45761194f611deb565b906024359260ff61010854166003811015611b3f5760018103611af85750600180865261010760209081528287206001600160a01b038616600090815292019052604090205415611aec575b6001600160a01b039182806119af87612d6c565b16941693808514611a9f57803314908115611a80575b5015611a185750838552610103602052842080546001600160a01b031916831790556119f0836127e2565b167f8c5be1e5ebec7d5bd14f71427d1e84f3dd0314c0f7b2291e5b200ac8c7c3b9258480a480f35b6020608492519162461bcd60e51b8352820152603860248201527f4552433732313a20617070726f76652063616c6c6572206973206e6f74206f7760448201527f6e6572206e6f7220617070726f76656420666f7220616c6c00000000000000006064820152fd5b90508652609c60205281862033875260205260ff8287205416386119c5565b506020608492519162461bcd60e51b8352820152602160248201527f4552433732313a20617070726f76616c20746f2063757272656e74206f776e656044820152603960f91b6064820152fd5b516282b42960e81b8152fd5b60020361199b5760028552610107602052611b2e81862060018060a01b0385169060019160005201602052604060002054151590565b1561199b57516282b42960e81b8152fd5b634e487b7160e01b865260218352602486fd5b5091346105595760203660031901126105595750610eec60209235612e46565b5050346103c857816003193601126103c85780519082609754611b948161205f565b808552916001918083169081156109e45750600114611bbf5750505061097582610555940383611f49565b9450609785527f354a83ed9988f79f6038d4c7a7dadbad8af32f4ad6df893e0e5807a1b1944ff95b828610611c04575050506109758260206105559582010194610963565b80546020878701810191909152909501948101611be7565b50346102e45760203660031901126102e45735906001600160e01b03198216808303610606576020935063fa31a45b60e01b8114928315611ce1575b8315611c69575b5050519015158152f35b919250631030681960e21b811491908215611cd0575b8215611ca7575b508115611c97575b50903880611c5f565b611ca1915061316b565b38611c8e565b90915063152a902d60e11b148015611cc1575b9038611c86565b50611ccb8161316b565b611cba565b6301ffc9a760e01b81149250611c7f565b6301ffc9a760e01b82149350611c58565b5090346102e457602091826003193601126106065735600381101561060657611d1a90612426565b9281518093808654928381520195835280832092905b828210611d48576105558686611765828b0383611f49565b835487529586019560019384019390910190611d30565b6020908160408183019282815285518094520193019160005b828110611d86575050505090565b83516001600160a01b031685529381019392810192600101611d78565b60005b838110611db65750506000910152565b8181015183820152602001611da6565b90602091611ddf81518092818552858086019101611da3565b601f01601f1916010190565b600435906001600160a01b0382168203611e0157565b600080fd5b602435906001600160a01b0382168203611e0157565b604435906001600160a01b0382168203611e0157565b6060906003190112611e01576001600160a01b03906004358281168103611e0157916024359081168103611e01579060443590565b9181601f84011215611e015782359167ffffffffffffffff8311611e015760208381860195010111611e0157565b919060208301926003821015611ea85752565b634e487b7160e01b600052602160045260246000fd5b6040600319820112611e01576004356003811015611e01579160243567ffffffffffffffff92838211611e015780602383011215611e01578160040135938411611e015760248460051b83010111611e01576024019190565b6020810190811067ffffffffffffffff821117611f3357604052565b634e487b7160e01b600052604160045260246000fd5b90601f8019910116810190811067ffffffffffffffff821117611f3357604052565b67ffffffffffffffff8111611f3357601f01601f191660200190565b929192611f9382611f6b565b91611fa16040519384611f49565b829481845281830111611e01578281602093846000960137010152565b6033546001600160a01b03163303611fd257565b606460405162461bcd60e51b815260206004820152602060248201527f4f776e61626c653a2063616c6c6572206973206e6f7420746865206f776e65726044820152fd5b603380546001600160a01b039283166001600160a01b0319821681179092559091167f8be0079c531659141344cd1fd0a4f28419497f9722a3daafe3b4186f6b6457e0600080a3565b90600182811c9216801561208f575b602083101461207957565b634e487b7160e01b600052602260045260246000fd5b91607f169161206e565b90604051918260008254926120ad8461205f565b90818452600194858116908160001461211c57506001146120d9575b50506120d792500383611f49565b565b9093915060005260209081600020936000915b8183106121045750506120d7935082010138806120c9565b855488840185015294850194879450918301916120ec565b9150506120d794506020925060ff191682840152151560051b82010138806120c9565b1561214657565b60405162461bcd60e51b815260206004820152602d60248201527f4552433732313a2063616c6c6572206973206e6f7420746f6b656e206f776e6560448201526c1c881bdc88185c1c1c9bdd9959609a1b6064820152608490fd5b60809060208152603260208201527f4552433732313a207472616e7366657220746f206e6f6e20455243373231526560408201527131b2b4bb32b91034b6b83632b6b2b73a32b960711b60608201520190565b156121fb57565b60405162461bcd60e51b815280612214600482016121a1565b0390fd5b9192600092909190803b1561232a57612266946040518092630a85bd0160e11b9485835233600484015287602484015260448301526080606483015281878160209a8b966084830190611dc6565b03926001600160a01b03165af18491816122ea575b506122d9575050503d6000146122d1573d61229581611f6b565b906122a36040519283611f49565b81528091833d92013e5b805191826122ce5760405162461bcd60e51b815280612214600482016121a1565b01fd5b5060606122ad565b6001600160e01b0319161492509050565b9091508581813d8311612323575b6123028183611f49565b8101031261083257516001600160e01b03198116810361083257903861227b565b503d6122f8565b5050915050600190565b9293600093909291803b156123b45794849161238e9660405180948193630a85bd0160e11b9788845233600485015260018060a01b0380921660248501526044840152608060648401528260209b8c976084830190611dc6565b0393165af18491816122ea57506122d9575050503d6000146122d1573d61229581611f6b565b505050915050600190565b90929167ffffffffffffffff8411611f33578360051b60405192602080946123e982850182611f49565b8097815201918101928311611e0157905b8282106124075750505050565b81356001600160a01b0381168103611e015781529083019083016123fa565b6003811015611ea857600052610107602052604060002090565b600019811461244f5760010190565b634e487b7160e01b600052601160045260246000fd5b80518210156124795760209160051b010190565b634e487b7160e01b600052603260045260246000fd5b80548210156124795760005260206000200190600090565b600082815260018201602052604090205461250e57805490600160401b821015611f3357826124f76124e084600180960185558461248f565b819391549060031b91821b91600019901b19161790565b905580549260005201602052604060002055600190565b5050600090565b906001820190600092818452826020526040842054908115156000146125fe57600019918083018181116125ea578254908482019182116125d6578082036125a1575b5050508054801561258d57820191612570838361248f565b909182549160031b1b191690555582526020526040812055600190565b634e487b7160e01b86526031600452602486fd5b6125c16125b16124e0938661248f565b90549060031b1c9283928661248f565b90558652846020526040862055388080612558565b634e487b7160e01b88526011600452602488fd5b634e487b7160e01b87526011600452602487fd5b5050505090565b9190820180921161244f57565b1561261957565b60405162461bcd60e51b815260206004820152602b60248201527f496e697469616c697a61626c653a20636f6e7472616374206973206e6f74206960448201526a6e697469616c697a696e6760a81b6064820152608490fd5b1561267957565b60405162461bcd60e51b815260206004820152601e60248201527f436f6e7472616374206d757374206e6f742062652064697361626c65642e00006044820152606490fd5b61010590815481101561247957600391600052027ffc62abc8c0fc47c2d92f5aec99bf8b60f375828e14394d89345cae11a98673710190600090565b612703816130e3565b5050600082815261010260205260408120805460ff1916600117905590806127c3575b6127bf576127376106778333612ddc565b612740826127e2565b5061274a826127e2565b828252609b6020908152604080842080546001600160a01b03199081169091556001600160a01b03909316808552609a835281852080546000190190558585526099909252832080549092169091557fddf252ad1be2c89b69c2b068fc378daa952ba7f163c4a11628f55a4df523b3ef8280a4565b5050565b506000828152609960205260409020546001600160a01b031615612726565b6000908152609960205260409020546001600160a01b031680156128035790565b60405162461bcd60e51b815260206004820152601860248201527f4552433732313a20696e76616c696420746f6b656e20494400000000000000006044820152606490fd5b939290916001946101049580875401809755610100548711612a025761288c61068c60405161287681611f17565b896000968783526128878282612a92565b612218565b8683526020916101068352604084209181519167ffffffffffffffff83116129ee576128b8845461205f565b601f81116129a8575b508490601f841160011461293f57928060fd9593819389989660409a94612934575b50501b916000199060031b1c19161790555b87835261010181528383209460018060a01b0395866001600160601b0360a01b98168882541617905560fe825284842055522092169082541617905590565b0151925038806128e3565b8487528587209293929190601f198416885b818110612993575091604098979593918560fd9896941061297a575b505050811b0190556128f5565b015160001960f88460031b161c1916905538808061296d565b82840151855593860193928801928801612951565b848752858720601f850160051c8101918786106129e4575b601f0160051c019083905b8281106129d95750506128c1565b8881550183906129cb565b90915081906129c0565b634e487b7160e01b86526041600452602486fd5b606460405162461bcd60e51b815260206004820152602060248201527f5f637265617465546f6b656e3a3a6578636565646564206d6178546f6b656e736044820152fd5b15612a4d57565b60405162461bcd60e51b815260206004820152601c60248201527f4552433732313a20746f6b656e20616c7265616479206d696e746564000000006044820152606490fd5b6001600160a01b03168015612b4257600082815260996020526040902054612ac6906001600160a01b031615155b15612a46565b600082815260996020526040902054612ae9906001600160a01b03161515612ac0565b6000818152609a6020526040812060018154019055828152609960205260408120826001600160601b0360a01b8254161790557fddf252ad1be2c89b69c2b068fc378daa952ba7f163c4a11628f55a4df523b3ef8180a4565b606460405162461bcd60e51b815260206004820152602060248201527f4552433732313a206d696e7420746f20746865207a65726f20616464726573736044820152fd5b612b8f816130e3565b9115159050612bb25750600052610106602052612baf6040600020612099565b90565b90600090807a184f03e93ff9f4daa797ed6e38ed64bf6a1f0100000000000000008181811015612d5e575b50506d04ee2d6d415b85acef810000000080821015612d51575b50662386f26fc1000080821015612d44575b506305f5e10080821015612d37575b5061271080821015612d2a575b506064811015612d1c575b600a80911015612d12575b600180840192816021612c66612c5087611f6b565b96612c5e6040519889611f49565b808852611f6b565b602087019790601f1901368937860101905b612cdc575b50505050612cbf92612baf926026926040519583612ca5889551809260208089019101611da3565b840191602f60f81b60208401525180936021840190611da3565b0164173539b7b760d91b6021820152036006810184520182611f49565b600019019083906f181899199a1a9b1b9c1cb0b131b232b360811b8282061a835304918215612d0d57919082612c78565b612c7d565b9160010191612c3b565b606460029104920191612c30565b6004910492019138612c25565b6008910492019138612c18565b6010910492019138612c09565b6020910492019138612bf7565b604094500490503880612bdd565b612d75816130e3565b5050612d8457612baf906127e2565b8060005261010260205260ff60406000205416600014612da757612baf906127e2565b6000818152609960205260409020546001600160a01b0316612dd357506033546001600160a01b031690565b612baf906127e2565b6001600160a01b03908180612df085612d6c565b16911691818314938415612e2f575b50508215612e0c57505090565b909150600052609c60205260406000209060005260205260ff6040600020541690565b83929450612e3c90612e46565b1614913880612dff565b600081815260fd60205260408120546001600160a01b039291908316612e6b836130e3565b5050908115612f04575b5080612eec575b15612e9257604091815261010360205220541690565b60405162461bcd60e51b815260206004820152602c60248201527f4552433732313a20617070726f76656420717565727920666f72206e6f6e657860448201526b34b9ba32b73a103a37b5b2b760a11b6064820152608490fd5b5081815261010260205260ff60408220541615612e7c565b9050151538612e75565b908215611e0157612f5891612f22846130e3565b50508061306a575b80613050575b613041575b612f3e846127e2565b6001600160a01b0393918416928492909183168414613089565b16918215612ff05781612f7591612f6e866127e2565b1614613089565b7fddf252ad1be2c89b69c2b068fc378daa952ba7f163c4a11628f55a4df523b3ef6000848152609b602052604081206001600160601b0360a01b90818154169055838252609a6020526040822060001981540190558482526040822060018154019055858252609960205284604083209182541617905580a4565b60405162461bcd60e51b8152602060048201526024808201527f4552433732313a207472616e7366657220746f20746865207a65726f206164646044820152637265737360e01b6064820152608490fd5b61304b8482612a92565b612f35565b508360005261010260205260ff6040600020541615612f30565b506000848152609960205260409020546001600160a01b031615612f2a565b1561309057565b60405162461bcd60e51b815260206004820152602560248201527f4552433732313a207472616e736665722066726f6d20696e636f72726563742060448201526437bbb732b960d91b6064820152608490fd5b61010554919060005b838110613110575050905060009060009060405161310981611f17565b6000815290565b613119816126be565b505482101580613154575b6131365761313190612440565b6130ec565b80935061314391506126be565b5090612baf60026001949301612099565b506001613160826126be565b500154821115613124565b63ffffffff60e01b166380ac58cd60e01b811490811561319e575b8115613190575090565b6301ffc9a760e01b14919050565b635b5e139f60e01b8114915061318656fea2646970667358221220a3175044e6304519644eb3b71be3ca5609bde6d901c79a75f55646334ced483e64736f6c63430008120033","linkReferences":{}},"methodIdentifiers":{"activateDeadmanListTrigger()":"5aec8d62","addNewToken(string)":"d9856c21","approve(address,uint256)":"095ea7b3","balanceOf(address)":"70a08231","batchAddAddressToRoyaltyList(uint8,address[])":"ff6e8c8f","batchMint(string,uint256)":"7cc918d1","batchRemoveAddressToRoyaltyList(uint8,address[])":"9e860f2a","burn(uint256)":"42966c68","clearList(uint8)":"bc719455","deleteToken(uint256)":"6297c16c","disableContract()":"894ba833","disabled()":"ee070805","getApproved(uint256)":"081812fc","getDeadmanTriggerAvailableDatetime()":"717392ed","getDefaultRoyaltyPercentage()":"ab69607a","getDefaultRoyaltyReceiver()":"3403c4e9","getInUseList()":"2ce878da","getList(uint8)":"012cf1e8","getListType()":"87bc793f","hasAdminPermission(address)":"20427486","init(string,string,address,uint256)":"5edc7c19","isApprovedForAll(address,address)":"e985e9c5","isOperatorInList(address)":"eab85118","maxTokens()":"e8315742","mintTo(string,address,address)":"4aa52c41","name()":"06fdde03","owner()":"8da5cb5b","ownerOf(uint256)":"6352211e","renounceOwnership()":"715018a6","royaltyInfo(uint256,uint256)":"2a55205a","safeTransferFrom(address,address,uint256)":"42842e0e","safeTransferFrom(address,address,uint256,bytes)":"b88d4fde","setApprovalForAll(address,bool)":"a22cb465","setDeadmanListTriggerRenewalDuration(uint256)":"21c4a5d8","setDefaultRoyaltyReceiver(address)":"3ebc82c5","setRoyaltyReceiverForToken(address,uint256)":"efc32cd4","supportsInterface(bytes4)":"01ffc9a7","symbol()":"95d89b41","toggleListType(uint8)":"472a6638","tokenCreator(uint256)":"40c1a064","tokenURI(uint256)":"c87b56dd","totalSupply()":"18160ddd","transferFrom(address,address,uint256)":"23b872dd","transferOwnership(address)":"f2fde38b"},"id":203}