{"abi":[{"type":"function","name":"addNewToken","inputs":[{"name":"_uri","type":"string","internalType":"string"}],"outputs":[],"stateMutability":"nonpayable"},{"type":"function","name":"approve","inputs":[{"name":"to","type":"address","internalType":"address"},{"name":"tokenId","type":"uint256","internalType":"uint256"}],"outputs":[],"stateMutability":"nonpayable"},{"type":"function","name":"balanceOf","inputs":[{"name":"owner","type":"address","internalType":"address"}],"outputs":[{"name":"","type":"uint256","internalType":"uint256"}],"stateMutability":"view"},{"type":"function","name":"batchMint","inputs":[{"name":"_baseURI","type":"string","internalType":"string"},{"name":"_numberOfTokens","type":"uint256","internalType":"uint256"}],"outputs":[],"stateMutability":"nonpayable"},{"type":"function","name":"burn","inputs":[{"name":"_tokenId","type":"uint256","internalType":"uint256"}],"outputs":[],"stateMutability":"nonpayable"},{"type":"function","name":"deleteToken","inputs":[{"name":"_tokenId","type":"uint256","internalType":"uint256"}],"outputs":[],"stateMutability":"nonpayable"},{"type":"function","name":"disableContract","inputs":[],"outputs":[],"stateMutability":"nonpayable"},{"type":"function","name":"disabled","inputs":[],"outputs":[{"name":"","type":"bool","internalType":"bool"}],"stateMutability":"view"},{"type":"function","name":"getApproved","inputs":[{"name":"_tokenId","type":"uint256","internalType":"uint256"}],"outputs":[{"name":"","type":"address","internalType":"address"}],"stateMutability":"view"},{"type":"function","name":"getDefaultRoyaltyPercentage","inputs":[],"outputs":[{"name":"","type":"uint256","internalType":"uint256"}],"stateMutability":"view"},{"type":"function","name":"getDefaultRoyaltyReceiver","inputs":[],"outputs":[{"name":"","type":"address","internalType":"address"}],"stateMutability":"view"},{"type":"function","name":"init","inputs":[{"name":"_name","type":"string","internalType":"string"},{"name":"_symbol","type":"string","internalType":"string"},{"name":"_creator","type":"address","internalType":"address"},{"name":"_maxTokens","type":"uint256","internalType":"uint256"}],"outputs":[],"stateMutability":"nonpayable"},{"type":"function","name":"isApprovedForAll","inputs":[{"name":"owner","type":"address","internalType":"address"},{"name":"operator","type":"address","internalType":"address"}],"outputs":[{"name":"","type":"bool","internalType":"bool"}],"stateMutability":"view"},{"type":"function","name":"maxTokens","inputs":[],"outputs":[{"name":"","type":"uint256","internalType":"uint256"}],"stateMutability":"view"},{"type":"function","name":"mintTo","inputs":[{"name":"_uri","type":"string","internalType":"string"},{"name":"_receiver","type":"address","internalType":"address"},{"name":"_royaltyReceiver","type":"address","internalType":"address"}],"outputs":[],"stateMutability":"nonpayable"},{"type":"function","name":"name","inputs":[],"outputs":[{"name":"","type":"string","internalType":"string"}],"stateMutability":"view"},{"type":"function","name":"owner","inputs":[],"outputs":[{"name":"","type":"address","internalType":"address"}],"stateMutability":"view"},{"type":"function","name":"ownerOf","inputs":[{"name":"_tokenId","type":"uint256","internalType":"uint256"}],"outputs":[{"name":"","type":"address","internalType":"address"}],"stateMutability":"view"},{"type":"function","name":"renounceOwnership","inputs":[],"outputs":[],"stateMutability":"nonpayable"},{"type":"function","name":"royaltyInfo","inputs":[{"name":"_tokenId","type":"uint256","internalType":"uint256"},{"name":"_salePrice","type":"uint256","internalType":"uint256"}],"outputs":[{"name":"receiver","type":"address","internalType":"address"},{"name":"royaltyAmount","type":"uint256","internalType":"uint256"}],"stateMutability":"view"},{"type":"function","name":"safeTransferFrom","inputs":[{"name":"from","type":"address","internalType":"address"},{"name":"to","type":"address","internalType":"address"},{"name":"tokenId","type":"uint256","internalType":"uint256"}],"outputs":[],"stateMutability":"nonpayable"},{"type":"function","name":"safeTransferFrom","inputs":[{"name":"from","type":"address","internalType":"address"},{"name":"to","type":"address","internalType":"address"},{"name":"tokenId","type":"uint256","internalType":"uint256"},{"name":"data","type":"bytes","internalType":"bytes"}],"outputs":[],"stateMutability":"nonpayable"},{"type":"function","name":"setApprovalForAll","inputs":[{"name":"operator","type":"address","internalType":"address"},{"name":"approved","type":"bool","internalType":"bool"}],"outputs":[],"stateMutability":"nonpayable"},{"type":"function","name":"setDefaultRoyaltyReceiver","inputs":[{"name":"_receiver","type":"address","internalType":"address"}],"outputs":[],"stateMutability":"nonpayable"},{"type":"function","name":"setRoyaltyReceiverForToken","inputs":[{"name":"_receiver","type":"address","internalType":"address"},{"name":"_tokenId","type":"uint256","internalType":"uint256"}],"outputs":[],"stateMutability":"nonpayable"},{"type":"function","name":"supportsInterface","inputs":[{"name":"interfaceId","type":"bytes4","internalType":"bytes4"}],"outputs":[{"name":"","type":"bool","internalType":"bool"}],"stateMutability":"view"},{"type":"function","name":"symbol","inputs":[],"outputs":[{"name":"","type":"string","internalType":"string"}],"stateMutability":"view"},{"type":"function","name":"tokenCreator","inputs":[{"name":"","type":"uint256","internalType":"uint256"}],"outputs":[{"name":"","type":"address","internalType":"address payable"}],"stateMutability":"view"},{"type":"function","name":"tokenURI","inputs":[{"name":"_tokenId","type":"uint256","internalType":"uint256"}],"outputs":[{"name":"","type":"string","internalType":"string"}],"stateMutability":"view"},{"type":"function","name":"totalSupply","inputs":[],"outputs":[{"name":"","type":"uint256","internalType":"uint256"}],"stateMutability":"view"},{"type":"function","name":"transferFrom","inputs":[{"name":"from","type":"address","internalType":"address"},{"name":"to","type":"address","internalType":"address"},{"name":"tokenId","type":"uint256","internalType":"uint256"}],"outputs":[],"stateMutability":"nonpayable"},{"type":"function","name":"transferOwnership","inputs":[{"name":"newOwner","type":"address","internalType":"address"}],"outputs":[],"stateMutability":"nonpayable"},{"type":"event","name":"Approval","inputs":[{"name":"owner","type":"address","indexed":true,"internalType":"address"},{"name":"approved","type":"address","indexed":true,"internalType":"address"},{"name":"tokenId","type":"uint256","indexed":true,"internalType":"uint256"}],"anonymous":false},{"type":"event","name":"ApprovalForAll","inputs":[{"name":"owner","type":"address","indexed":true,"internalType":"address"},{"name":"operator","type":"address","indexed":true,"internalType":"address"},{"name":"approved","type":"bool","indexed":false,"internalType":"bool"}],"anonymous":false},{"type":"event","name":"ConsecutiveTransfer","inputs":[{"name":"fromTokenId","type":"uint256","indexed":true,"internalType":"uint256"},{"name":"toTokenId","type":"uint256","indexed":false,"internalType":"uint256"},{"name":"fromAddress","type":"address","indexed":true,"internalType":"address"},{"name":"toAddress","type":"address","indexed":true,"internalType":"address"}],"anonymous":false},{"type":"event","name":"ContractDisabled","inputs":[{"name":"user","type":"address","indexed":true,"internalType":"address"}],"anonymous":false},{"type":"event","name":"Initialized","inputs":[{"name":"version","type":"uint8","indexed":false,"internalType":"uint8"}],"anonymous":false},{"type":"event","name":"OwnershipTransferred","inputs":[{"name":"previousOwner","type":"address","indexed":true,"internalType":"address"},{"name":"newOwner","type":"address","indexed":true,"internalType":"address"}],"anonymous":false},{"type":"event","name":"Transfer","inputs":[{"name":"from","type":"address","indexed":true,"internalType":"address"},{"name":"to","type":"address","indexed":true,"internalType":"address"},{"name":"tokenId","type":"uint256","indexed":true,"internalType":"uint256"}],"anonymous":false}],"bytecode":{"object":"0x60808060405234610016576126eb908161001c8239f35b600080fdfe6080604081815260048036101561001557600080fd5b600092833560e01c90816301ffc9a7146114b25750806306fdde0314611408578063081812fc146113e8578063095ea7b31461127757806318160ddd1461125757806323b872dd146112325780632a55205a146111a05780633403c4e9146111775780633ebc82c51461113557806340c1a0641461110b57806342842e0e146110d757806342966c68146110ba5780634aa52c41146110495780635edc7c1914610b3e5780636297c16c14610ac25780636352211e14610a9157806370a08231146109fb578063715018a61461099e5780637cc918d114610678578063894ba8331461062a5780638da5cb5b1461060157806395d89b411461051c578063a22cb4651461044d578063ab69607a1461042e578063b88d4fde146103a3578063c87b56dd14610368578063d9856c21146102fb578063e8315742146102db578063e985e9c51461028d578063ee0708051461026a578063efc32cd4146102175763f2fde38b1461018357600080fd5b346102135760203660031901126102135761019c611597565b916101a56116e8565b6001600160a01b038316156101c157836101be84611740565b80f35b906020608492519162461bcd60e51b8352820152602660248201527f4f776e61626c653a206e6577206f776e657220697320746865207a65726f206160448201526564647265737360d01b6064820152fd5b8280fd5b505034610266578060031936011261026657610231611597565b9061023a6116e8565b602435835260fd602052822080546001600160a01b0319166001600160a01b0390921691909117905580f35b5080fd5b50503461026657816003193601126102665760209060ff80541690519015158152f35b50503461026657806003193601126102665760ff816020936102ad611597565b6102b56115b2565b6001600160a01b039182168352609c875283832091168252855220549151911615158152f35b505034610266578160031936011261026657602090610100549051908152f35b83823461026657602036600319011261026657803567ffffffffffffffff811161021357366023820112156102135761036491816024610340933693013591016116b1565b6103486116e8565b61035660ff80541615611b49565b60fc54339182908190611d35565b5080f35b5091346103a05760203660031901126103a0575061038961039c9235612073565b9051918291602083526020830190611572565b0390f35b80fd5b838234610266576080366003190112610266576103be611597565b906103c76115b2565b916044356064359367ffffffffffffffff851161042a573660238601121561042a57610402610425948660246101be983693013591016116b1565b9261041561041084336122c9565b611869565b6104208383836123fb565b611a5e565b61191e565b8580fd5b50503461026657816003193601126102665760209060fc549051908152f35b509034610213578060031936011261021357610467611597565b9060243591821515809303610518576001600160a01b0316923384146104d65750338452609c60205280842083855260205280842060ff1981541660ff8416179055519081527f17307eab39ab6107e8899845ad3d59bd9653f200f220920489ca2b5937696c3160203392a380f35b6020606492519162461bcd60e51b8352820152601960248201527f4552433732313a20617070726f766520746f2063616c6c6572000000000000006044820152fd5b8480fd5b5050346102665781600319360112610266578051908260985461053e81611789565b808552916001918083169081156105d9575060011461057c575b50505061056a8261039c940383611673565b51918291602083526020830190611572565b9450609885527f2237a976fa961f5921fd19f2b03c925c725d77b20ce8f790c19709c03de4d8145b8286106105c15750505061056a82602061039c9582010194610558565b805460208787018101919091529095019481016105a4565b61039c97508693506020925061056a94915060ff191682840152151560051b82010194610558565b50503461026657816003193601126102665760335490516001600160a01b039091168152602090f35b83346103a057806003193601126103a0576106436116e8565b600160ff1960ff54161760ff55337f793bc6423dd0257d64f9d47db72fd4b2162f4541aa41740ba1c5fb5e2cd41bcd8280a280f35b5091903461026657806003193601126102665767ffffffffffffffff92803584811161099a576106ab9036908301611613565b906106b46116e8565b6106c260ff80541615611b49565b610104908154926001978885019485811161098757602490813501938a850180881161097557851161096357885195602096878101818110868211176108fd578b5286905285905561010054851161092157885190606082018281108582111761090f579061073e918b528883528783019587875236916116b1565b93898201948552610105805490680100000000000000008210156108fd578d8201905561076a90611b95565b9290926108ec579060029291518255518c8201550192519687519283116108db5750506107978254611789565b601f8111610899575b50879888969798508497601f8311600114610815578291889983927fdeaa91b6123d068f5821d0fb0678463d1a8a6079fe8af5de3ce5e896dcf9133d999a9461080a575b50501b916000199060031b1c19161790555b60018060a01b03603354169551908152a480f35b0151925038806107e4565b8388528588209098919291601f198316895b818110610881575099837fdeaa91b6123d068f5821d0fb0678463d1a8a6079fe8af5de3ce5e896dcf9133d999a9b10610868575b505050811b0190556107f6565b015160001960f88460031b161c1916905538808061085b565b828c015184558d9a5092850192918801918801610827565b828952848920601f830160051c8101918684106108d1575b601f0160051c01905b8181106108c757506107a0565b8981558a016108ba565b90915081906108b1565b634e487b7160e01b8a526041905288fd5b634e487b7160e01b8c528b8a52838cfd5b634e487b7160e01b8d5260418b52848dfd5b634e487b7160e01b8c5260418a52838cfd5b885162461bcd60e51b8152808901879052601d818401527f62617463684d696e743a3a6578636565646564206d6178546f6b656e730000006044820152606490fd5b50634e487b7160e01b89526011875288fd5b634e487b7160e01b8b5260118952828bfd5b634e487b7160e01b895260118752602489fd5b8380fd5b83346103a057806003193601126103a0576109b76116e8565b603380546001600160a01b0319811690915581906001600160a01b03167f8be0079c531659141344cd1fd0a4f28419497f9722a3daafe3b4186f6b6457e08280a380f35b50829034610266576020366003190112610266576001600160a01b03610a1f611597565b16908115610a3c576020848085858152609a845220549051908152f35b608490602085519162461bcd60e51b8352820152602960248201527f4552433732313a2061646472657373207a65726f206973206e6f7420612076616044820152683634b21037bbb732b960b91b6064820152fd5b5091346103a05760203660031901126103a05750610ab160209235612259565b90516001600160a01b039091168152f35b503461021357602036600319011261021357803591610ae083612259565b336001600160a01b0390911603610afb57836101be84611be7565b906020606492519162461bcd60e51b8352820152601760248201527f4d757374206265206f776e6572206f6620746f6b656e2e0000000000000000006044820152fd5b508290346102665760803660031901126102665767ffffffffffffffff92813584811161099a57610b729036908401611613565b929060243586811161042a57610b8b9036908401611613565b610b969791976115c8565b9387549860ff94858b60081c16159889809a61103d575b8015611027575b15610fcd5760ff19808d1660019081178d559b9c999a998a610fbc575b506001600160a01b03891615610f795791610c2491610c14898f610c2c9796600a60fc558254168255606435610100555460081c16610c0f81611ae9565b611ae9565b610c1d33611740565b36916116b1565b9336916116b1565b90610c40858b5460081c16610c0f81611ae9565b8251848111610f665780610c55609754611789565b94601f95868111610ef5575b506020908d878411600114610e765792610e6b575b5050600019600383901b1c1916908a1b176097555b8151938411610e585750610ca0609854611789565b828111610df5575b506020918311600114610d69579180610d1d959492610cf5948b92610d5e575b5050600019600383901b1c191690881b176098555b875460081c16610cec81611ae9565b610c0f81611ae9565b60fb80546001600160a01b0319166001600160a01b038316179055610d186116e8565b611740565b610d25578280f35b825461ff0019168355519081527f7f26b83ff96e1f2b6a682f133852f6798a09c465da95921460cefb384740249890602090a181808280f35b015190508a80610cc8565b609889528792917f2237a976fa961f5921fd19f2b03c925c725d77b20ce8f790c19709c03de4d81491601f1984168b5b818110610ddd575091610cf595939185610d1d9998969410610dc4575b505050811b01609855610cdd565b015160001960f88460031b161c191690558a8080610db6565b8284015185558b969094019360209384019301610d99565b60988a527f2237a976fa961f5921fd19f2b03c925c725d77b20ce8f790c19709c03de4d8148380860160051c82019260208710610e4f575b0160051c019089905b828110610e44575050610ca8565b8b8155018990610e36565b92508192610e2d565b634e487b7160e01b8a5260419052602489fd5b015190508c80610c76565b91908d9450601f198416609784527f354a83ed9988f79f6038d4c7a7dadbad8af32f4ad6df893e0e5807a1b1944ff9935b818110610edd57508411610ec4575b505050811b01609755610c8b565b015160001960f88460031b161c191690558c8080610eb6565b8284015185558f969094019360209384019301610ea7565b90915060978d527f354a83ed9988f79f6038d4c7a7dadbad8af32f4ad6df893e0e5807a1b1944ff98680850160051c82019260208610610f5d575b859493910160051c909101908d908f5b838210610f4f57505050610c61565b81558594508e91018f610f40565b92508192610f30565b634e487b7160e01b8b526041825260248bfd5b8a5162461bcd60e51b8152602081870152601e60248201527f63726561746f722063616e6e6f74206265206e756c6c206164647265737300006044820152606490fd5b61ffff1916610101178d558d610bd1565b885162461bcd60e51b8152602081860152602e60248201527f496e697469616c697a61626c653a20636f6e747261637420697320616c72656160448201526d191e481a5b9a5d1a585b1a5e995960921b6064820152608490fd5b50303b158015610bb457506001878d1614610bb4565b506001878d1610610bad565b83823461026657606036600319011261026657803567ffffffffffffffff8111610213576103649161107d91369101611613565b906110866115b2565b61108e6115c8565b926110976116e8565b6110a560ff80541615611b49565b6110b560fc5493339236916116b1565b611d35565b838234610266576020366003190112610266576101be9035611be7565b505034610266576104256101be916110ee366115de565b919251926110fb84611641565b86845261041561041084336122c9565b5050346102665760203660031901126102665760335490516001600160a01b039091168152602090f35b83346103a05760203660031901126103a0576101be611152611597565b61115a6116e8565b60018060a01b03166001600160601b0360a01b60fb54161760fb55565b50503461026657816003193601126102665760fb5490516001600160a01b039091168152602090f35b5091346103a057816003193601126103a0578235815260fd60205281812054602435906001600160a01b03908116801561122657925b60fe60205284812054801561121c57925b8381029381850414901517156112095750835192168252606490046020820152f35b634e487b7160e01b815260118652602490fd5b5060fc54926111e7565b508060fb5416926111d6565b83346103a0576101be611244366115de565b9161125261041084336122c9565b6123fb565b505034610266578160031936011261026657602090610104549051908152f35b5034610213578160031936011261021357611290611597565b6024359290916001600160a01b03919082806112ab87612259565b1694169380851461139b5780331490811561137c575b50156113145750838552610103602052842080546001600160a01b031916831790556112ec83611ccf565b167f8c5be1e5ebec7d5bd14f71427d1e84f3dd0314c0f7b2291e5b200ac8c7c3b9258480a480f35b6020608492519162461bcd60e51b8352820152603860248201527f4552433732313a20617070726f76652063616c6c6572206973206e6f74206f7760448201527f6e6572206e6f7220617070726f76656420666f7220616c6c00000000000000006064820152fd5b90508652609c60205281862033875260205260ff8287205416386112c1565b506020608492519162461bcd60e51b8352820152602160248201527f4552433732313a20617070726f76616c20746f2063757272656e74206f776e656044820152603960f91b6064820152fd5b5091346103a05760203660031901126103a05750610ab160209235612333565b5050346102665781600319360112610266578051908260975461142a81611789565b808552916001918083169081156105d957506001146114555750505061056a8261039c940383611673565b9450609785527f354a83ed9988f79f6038d4c7a7dadbad8af32f4ad6df893e0e5807a1b1944ff95b82861061149a5750505061056a82602061039c9582010194610558565b8054602087870181019190915290950194810161147d565b92505034610213576020366003190112610213573563ffffffff60e01b81169081810361099a5760209350631030681960e21b821491821561153e575b8215611515575b508115611505575b5015158152f35b61150f9150612671565b386114fe565b90915063152a902d60e11b14801561152f575b90386114f6565b5061153981612671565b611528565b6301ffc9a760e01b811492506114ef565b60005b8381106115625750506000910152565b8181015183820152602001611552565b9060209161158b8151809281855285808601910161154f565b601f01601f1916010190565b600435906001600160a01b03821682036115ad57565b600080fd5b602435906001600160a01b03821682036115ad57565b604435906001600160a01b03821682036115ad57565b60609060031901126115ad576001600160a01b039060043582811681036115ad579160243590811681036115ad579060443590565b9181601f840112156115ad5782359167ffffffffffffffff83116115ad57602083818601950101116115ad57565b6020810190811067ffffffffffffffff82111761165d57604052565b634e487b7160e01b600052604160045260246000fd5b90601f8019910116810190811067ffffffffffffffff82111761165d57604052565b67ffffffffffffffff811161165d57601f01601f191660200190565b9291926116bd82611695565b916116cb6040519384611673565b8294818452818301116115ad578281602093846000960137010152565b6033546001600160a01b031633036116fc57565b606460405162461bcd60e51b815260206004820152602060248201527f4f776e61626c653a2063616c6c6572206973206e6f7420746865206f776e65726044820152fd5b603380546001600160a01b039283166001600160a01b0319821681179092559091167f8be0079c531659141344cd1fd0a4f28419497f9722a3daafe3b4186f6b6457e0600080a3565b90600182811c921680156117b9575b60208310146117a357565b634e487b7160e01b600052602260045260246000fd5b91607f1691611798565b90604051918260008254926117d784611789565b9081845260019485811690816000146118465750600114611803575b505061180192500383611673565b565b9093915060005260209081600020936000915b81831061182e575050611801935082010138806117f3565b85548884018501529485019487945091830191611816565b91505061180194506020925060ff191682840152151560051b82010138806117f3565b1561187057565b60405162461bcd60e51b815260206004820152602d60248201527f4552433732313a2063616c6c6572206973206e6f7420746f6b656e206f776e6560448201526c1c881bdc88185c1c1c9bdd9959609a1b6064820152608490fd5b60809060208152603260208201527f4552433732313a207472616e7366657220746f206e6f6e20455243373231526560408201527131b2b4bb32b91034b6b83632b6b2b73a32b960711b60608201520190565b1561192557565b60405162461bcd60e51b81528061193e600482016118cb565b0390fd5b9192600092909190803b15611a5457611990946040518092630a85bd0160e11b9485835233600484015287602484015260448301526080606483015281878160209a8b966084830190611572565b03926001600160a01b03165af1849181611a14575b50611a03575050503d6000146119fb573d6119bf81611695565b906119cd6040519283611673565b81528091833d92013e5b805191826119f85760405162461bcd60e51b81528061193e600482016118cb565b01fd5b5060606119d7565b6001600160e01b0319161492509050565b9091508581813d8311611a4d575b611a2c8183611673565b8101031261051857516001600160e01b0319811681036105185790386119a5565b503d611a22565b5050915050600190565b9293600093909291803b15611ade57948491611ab89660405180948193630a85bd0160e11b9788845233600485015260018060a01b0380921660248501526044840152608060648401528260209b8c976084830190611572565b0393165af1849181611a145750611a03575050503d6000146119fb573d6119bf81611695565b505050915050600190565b15611af057565b60405162461bcd60e51b815260206004820152602b60248201527f496e697469616c697a61626c653a20636f6e7472616374206973206e6f74206960448201526a6e697469616c697a696e6760a81b6064820152608490fd5b15611b5057565b60405162461bcd60e51b815260206004820152601e60248201527f436f6e7472616374206d757374206e6f742062652064697361626c65642e00006044820152606490fd5b610105908154811015611bd157600391600052027ffc62abc8c0fc47c2d92f5aec99bf8b60f375828e14394d89345cae11a98673710190600090565b634e487b7160e01b600052603260045260246000fd5b611bf0816125d0565b5050600082815261010260205260408120805460ff191660011790559080611cb0575b611cac57611c2461041083336122c9565b611c2d82611ccf565b50611c3782611ccf565b828252609b6020908152604080842080546001600160a01b03199081169091556001600160a01b03909316808552609a835281852080546000190190558585526099909252832080549092169091557fddf252ad1be2c89b69c2b068fc378daa952ba7f163c4a11628f55a4df523b3ef8280a4565b5050565b506000828152609960205260409020546001600160a01b031615611c13565b6000908152609960205260409020546001600160a01b03168015611cf05790565b60405162461bcd60e51b815260206004820152601860248201527f4552433732313a20696e76616c696420746f6b656e20494400000000000000006044820152606490fd5b939290916001946101049580875401809755610100548711611eef57611d79610425604051611d6381611641565b89600096878352611d748282611f7f565b611942565b8683526020916101068352604084209181519167ffffffffffffffff8311611edb57611da58454611789565b601f8111611e95575b508490601f8411600114611e2c57928060fd9593819389989660409a94611e21575b50501b916000199060031b1c19161790555b87835261010181528383209460018060a01b0395866001600160601b0360a01b98168882541617905560fe825284842055522092169082541617905590565b015192503880611dd0565b8487528587209293929190601f198416885b818110611e80575091604098979593918560fd98969410611e67575b505050811b019055611de2565b015160001960f88460031b161c19169055388080611e5a565b82840151855593860193928801928801611e3e565b848752858720601f850160051c810191878610611ed1575b601f0160051c019083905b828110611ec6575050611dae565b888155018390611eb8565b9091508190611ead565b634e487b7160e01b86526041600452602486fd5b606460405162461bcd60e51b815260206004820152602060248201527f5f637265617465546f6b656e3a3a6578636565646564206d6178546f6b656e736044820152fd5b15611f3a57565b60405162461bcd60e51b815260206004820152601c60248201527f4552433732313a20746f6b656e20616c7265616479206d696e746564000000006044820152606490fd5b6001600160a01b0316801561202f57600082815260996020526040902054611fb3906001600160a01b031615155b15611f33565b600082815260996020526040902054611fd6906001600160a01b03161515611fad565b6000818152609a6020526040812060018154019055828152609960205260408120826001600160601b0360a01b8254161790557fddf252ad1be2c89b69c2b068fc378daa952ba7f163c4a11628f55a4df523b3ef8180a4565b606460405162461bcd60e51b815260206004820152602060248201527f4552433732313a206d696e7420746f20746865207a65726f20616464726573736044820152fd5b61207c816125d0565b911515905061209f575060005261010660205261209c60406000206117c3565b90565b90600090807a184f03e93ff9f4daa797ed6e38ed64bf6a1f010000000000000000818181101561224b575b50506d04ee2d6d415b85acef81000000008082101561223e575b50662386f26fc1000080821015612231575b506305f5e10080821015612224575b5061271080821015612217575b506064811015612209575b600a809110156121ff575b60018084019281602161215361213d87611695565b9661214b6040519889611673565b808852611695565b602087019790601f1901368937860101905b6121c9575b505050506121ac9261209c92602692604051958361219288955180926020808901910161154f565b840191602f60f81b6020840152518093602184019061154f565b0164173539b7b760d91b6021820152036006810184520182611673565b600019019083906f181899199a1a9b1b9c1cb0b131b232b360811b8282061a8353049182156121fa57919082612165565b61216a565b9160010191612128565b60646002910492019161211d565b6004910492019138612112565b6008910492019138612105565b60109104920191386120f6565b60209104920191386120e4565b6040945004905038806120ca565b612262816125d0565b50506122715761209c90611ccf565b8060005261010260205260ff604060002054166000146122945761209c90611ccf565b6000818152609960205260409020546001600160a01b03166122c057506033546001600160a01b031690565b61209c90611ccf565b6001600160a01b039081806122dd85612259565b1691169181831493841561231c575b505082156122f957505090565b909150600052609c60205260406000209060005260205260ff6040600020541690565b8392945061232990612333565b16149138806122ec565b600081815260fd60205260408120546001600160a01b039291908316612358836125d0565b50509081156123f1575b50806123d9575b1561237f57604091815261010360205220541690565b60405162461bcd60e51b815260206004820152602c60248201527f4552433732313a20617070726f76656420717565727920666f72206e6f6e657860448201526b34b9ba32b73a103a37b5b2b760a11b6064820152608490fd5b5081815261010260205260ff60408220541615612369565b9050151538612362565b9082156115ad576124459161240f846125d0565b505080612557575b8061253d575b61252e575b61242b84611ccf565b6001600160a01b0393918416928492909183168414612576565b169182156124dd57816124629161245b86611ccf565b1614612576565b7fddf252ad1be2c89b69c2b068fc378daa952ba7f163c4a11628f55a4df523b3ef6000848152609b602052604081206001600160601b0360a01b90818154169055838252609a6020526040822060001981540190558482526040822060018154019055858252609960205284604083209182541617905580a4565b60405162461bcd60e51b8152602060048201526024808201527f4552433732313a207472616e7366657220746f20746865207a65726f206164646044820152637265737360e01b6064820152608490fd5b6125388482611f7f565b612422565b508360005261010260205260ff604060002054161561241d565b506000848152609960205260409020546001600160a01b031615612417565b1561257d57565b60405162461bcd60e51b815260206004820152602560248201527f4552433732313a207472616e736665722066726f6d20696e636f72726563742060448201526437bbb732b960d91b6064820152608490fd5b61010554919060005b8381106125fd57505090506000906000906040516125f681611641565b6000815290565b61260681611b95565b50548210158061265a575b61263c576000198114612626576001016125d9565b634e487b7160e01b600052601160045260246000fd5b8093506126499150611b95565b509061209c600260019493016117c3565b50600161266682611b95565b500154821115612611565b63ffffffff60e01b166380ac58cd60e01b81149081156126a4575b8115612696575090565b6301ffc9a760e01b14919050565b635b5e139f60e01b8114915061268c56fea26469706673582212202506f26fa7d24cbc1690ebf6e03bfb199170c880dd4c2cb3b58b29370d1d98ea64736f6c63430008120033","linkReferences":{}},"methodIdentifiers":{"addNewToken(string)":"d9856c21","approve(address,uint256)":"095ea7b3","balanceOf(address)":"70a08231","batchMint(string,uint256)":"7cc918d1","burn(uint256)":"42966c68","deleteToken(uint256)":"6297c16c","disableContract()":"894ba833","disabled()":"ee070805","getApproved(uint256)":"081812fc","getDefaultRoyaltyPercentage()":"ab69607a","getDefaultRoyaltyReceiver()":"3403c4e9","init(string,string,address,uint256)":"5edc7c19","isApprovedForAll(address,address)":"e985e9c5","maxTokens()":"e8315742","mintTo(string,address,address)":"4aa52c41","name()":"06fdde03","owner()":"8da5cb5b","ownerOf(uint256)":"6352211e","renounceOwnership()":"715018a6","royaltyInfo(uint256,uint256)":"2a55205a","safeTransferFrom(address,address,uint256)":"42842e0e","safeTransferFrom(address,address,uint256,bytes)":"b88d4fde","setApprovalForAll(address,bool)":"a22cb465","setDefaultRoyaltyReceiver(address)":"3ebc82c5","setRoyaltyReceiverForToken(address,uint256)":"efc32cd4","supportsInterface(bytes4)":"01ffc9a7","symbol()":"95d89b41","tokenCreator(uint256)":"40c1a064","tokenURI(uint256)":"c87b56dd","totalSupply()":"18160ddd","transferFrom(address,address,uint256)":"23b872dd","transferOwnership(address)":"f2fde38b"},"id":200}