{"abi":[{"type":"constructor","inputs":[{"name":"_bazaar","type":"address","internalType":"address"}],"stateMutability":"nonpayable"},{"type":"function","name":"approve","inputs":[{"name":"to","type":"address","internalType":"address"},{"name":"tokenId","type":"uint256","internalType":"uint256"}],"outputs":[],"stateMutability":"nonpayable"},{"type":"function","name":"balanceOf","inputs":[{"name":"owner","type":"address","internalType":"address"}],"outputs":[{"name":"","type":"uint256","internalType":"uint256"}],"stateMutability":"view"},{"type":"function","name":"getApproved","inputs":[{"name":"tokenId","type":"uint256","internalType":"uint256"}],"outputs":[{"name":"","type":"address","internalType":"address"}],"stateMutability":"view"},{"type":"function","name":"isApprovedForAll","inputs":[{"name":"owner","type":"address","internalType":"address"},{"name":"operator","type":"address","internalType":"address"}],"outputs":[{"name":"","type":"bool","internalType":"bool"}],"stateMutability":"view"},{"type":"function","name":"mint","inputs":[{"name":"to","type":"address","internalType":"address"},{"name":"tokenId","type":"uint256","internalType":"uint256"}],"outputs":[],"stateMutability":"nonpayable"},{"type":"function","name":"name","inputs":[],"outputs":[{"name":"","type":"string","internalType":"string"}],"stateMutability":"view"},{"type":"function","name":"ownerOf","inputs":[{"name":"tokenId","type":"uint256","internalType":"uint256"}],"outputs":[{"name":"","type":"address","internalType":"address"}],"stateMutability":"view"},{"type":"function","name":"safeTransferFrom","inputs":[{"name":"from","type":"address","internalType":"address"},{"name":"to","type":"address","internalType":"address"},{"name":"tokenId","type":"uint256","internalType":"uint256"}],"outputs":[],"stateMutability":"nonpayable"},{"type":"function","name":"safeTransferFrom","inputs":[{"name":"from","type":"address","internalType":"address"},{"name":"to","type":"address","internalType":"address"},{"name":"tokenId","type":"uint256","internalType":"uint256"},{"name":"data","type":"bytes","internalType":"bytes"}],"outputs":[],"stateMutability":"nonpayable"},{"type":"function","name":"setApprovalForAll","inputs":[{"name":"operator","type":"address","internalType":"address"},{"name":"approved","type":"bool","internalType":"bool"}],"outputs":[],"stateMutability":"nonpayable"},{"type":"function","name":"supportsInterface","inputs":[{"name":"interfaceId","type":"bytes4","internalType":"bytes4"}],"outputs":[{"name":"","type":"bool","internalType":"bool"}],"stateMutability":"view"},{"type":"function","name":"symbol","inputs":[],"outputs":[{"name":"","type":"string","internalType":"string"}],"stateMutability":"view"},{"type":"function","name":"tokenURI","inputs":[{"name":"tokenId","type":"uint256","internalType":"uint256"}],"outputs":[{"name":"","type":"string","internalType":"string"}],"stateMutability":"view"},{"type":"function","name":"transferFrom","inputs":[{"name":"from","type":"address","internalType":"address"},{"name":"to","type":"address","internalType":"address"},{"name":"tokenId","type":"uint256","internalType":"uint256"}],"outputs":[],"stateMutability":"nonpayable"},{"type":"event","name":"Approval","inputs":[{"name":"owner","type":"address","indexed":true,"internalType":"address"},{"name":"approved","type":"address","indexed":true,"internalType":"address"},{"name":"tokenId","type":"uint256","indexed":true,"internalType":"uint256"}],"anonymous":false},{"type":"event","name":"ApprovalForAll","inputs":[{"name":"owner","type":"address","indexed":true,"internalType":"address"},{"name":"operator","type":"address","indexed":true,"internalType":"address"},{"name":"approved","type":"bool","indexed":false,"internalType":"bool"}],"anonymous":false},{"type":"event","name":"Transfer","inputs":[{"name":"from","type":"address","indexed":true,"internalType":"address"},{"name":"to","type":"address","indexed":true,"internalType":"address"},{"name":"tokenId","type":"uint256","indexed":true,"internalType":"uint256"}],"anonymous":false}],"bytecode":{"object":"0x6080346200035c57601f601f196001600160401b03620012d238819003848101841686018381118782101762000346578692829160405283396020958691810103126200035c57516001600160a01b03811693908490036200035c576200006562000361565b92600a84526953757065722046616b6560b01b868501526200008662000361565b90600782526653555052464b4560c81b8783015284519084821162000346576000918254966001978881811c911680156200033b575b8b8210146200032757908187849311620002d4575b508a908783116001146200027157859262000265575b5050600019600383901b1c191690871b1782555b8251948511620002515785548681811c9116801562000246575b898210146200023257848111620001ea575b508793851160011462000185575083949596509262000179575b5050600019600383901b1c191690821b1790555b600680546001600160a01b031916919091179055604051610f509081620003828239f35b01519050388062000141565b8493929193169685845280842093905b888210620001d25750508385969710620001b8575b505050811b01905562000155565b015160001960f88460031b161c19169055388080620001aa565b80878596829496860151815501950193019062000195565b8683528883208580880160051c8201928b891062000228575b0160051c019087905b8281106200021c57505062000127565b8481550187906200020c565b9250819262000203565b634e487b7160e01b83526022600452602483fd5b90607f169062000115565b634e487b7160e01b82526041600452602482fd5b015190503880620000e7565b90848a9416918680528c8720928d88905b828210620002bc5750508411620002a2575b505050811b018255620000fb565b015160001960f88460031b161c1916905538808062000294565b8385015186558d979095019493840193018e62000282565b9091508480528a85208780850160051c8201928d86106200031d575b918b91869594930160051c01915b8281106200030e575050620000d1565b8781558594508b9101620002fe565b92508192620002f0565b634e487b7160e01b85526022600452602485fd5b90607f1690620000bc565b634e487b7160e01b600052604160045260246000fd5b600080fd5b60408051919082016001600160401b03811183821017620003465760405256fe608060408181526004918236101561001657600080fd5b600092833560e01c91826301ffc9a71461086c5750816306fdde03146107a1578163081812fc14610781578163095ea7b31461061357816323b872dd146105fb57816340c10f19146104e557816342842e0e146104bc5781636352211e1461048b57816370a08231146103f557816395d89b41146102dc578163a22cb4651461020c578163b88d4fde1461017e578163c87b56dd1461010f575063e985e9c5146100bf57600080fd5b3461010b578060031936011261010b5760ff816020936100dd610917565b6100e5610932565b6001600160a01b0391821683526005875283832091168252855220549151911615158152f35b5080fd5b83833461010b57602036600319011261010b5761014d61014861017a9435600052600260205260018060a01b0360406000205416151590565b6109ed565b8181516101598161097d565b528051916101668361097d565b8252519182916020835260208301906108d7565b0390f35b919050346102085760803660031901126102085761019a610917565b6101a2610932565b846064359467ffffffffffffffff861161010b573660238701121561010b57850135946101da6101d1876109d1565b955195866109af565b858552366024878301011161010b578561020596602460209301838801378501015260443591610aff565b80f35b8280fd5b91905034610208578060031936011261020857610227610917565b90602435918215158093036102d8576001600160a01b0316923384146102965750338452600560205280842083855260205280842060ff1981541660ff8416179055519081527f17307eab39ab6107e8899845ad3d59bd9653f200f220920489ca2b5937696c3160203392a380f35b6020606492519162461bcd60e51b8352820152601960248201527f4552433732313a20617070726f766520746f2063616c6c6572000000000000006044820152fd5b8480fd5b8284346103f257806003193601126103f2578151918160019283549384811c918186169586156103e8575b60209687851081146103d5578899509688969785829a5291826000146103ae575050600114610353575b50505061017a92916103449103856109af565b519282849384528301906108d7565b91908693508083527fb10e2d527612073b26eecdfd717e6a320cf44b4afac2b0732d9fcbe2b7fa0cf65b828410610396575050508201018161034461017a610331565b8054848a01860152889550879490930192810161037d565b60ff19168782015293151560051b86019093019350849250610344915061017a9050610331565b634e487b7160e01b835260228a52602483fd5b92607f1692610307565b80fd5b8391503461010b57602036600319011261010b576001600160a01b03610419610917565b169081156104365760208480858581526003845220549051908152f35b608490602085519162461bcd60e51b8352820152602960248201527f4552433732313a2061646472657373207a65726f206973206e6f7420612076616044820152683634b21037bbb732b960b91b6064820152fd5b8284346103f25760203660031901126103f257506104ab60209235610a39565b90516001600160a01b039091168152f35b50503461010b57610205906104d036610948565b919251926104dd8461097d565b858452610aff565b9050346102085781600319360112610208576104ff610917565b602435926001600160a01b039091169182156105b9575060008381526002602052604090205461053b906001600160a01b031615155b15610e9e565b60008381526002602052604090205461055e906001600160a01b03161515610535565b81845260036020528084206001815401905582845260026020528320816bffffffffffffffffffffffff60a01b825416179055827fddf252ad1be2c89b69c2b068fc378daa952ba7f163c4a11628f55a4df523b3ef8180a480f35b6020606492519162461bcd60e51b8352820152602060248201527f4552433732313a206d696e7420746f20746865207a65726f20616464726573736044820152fd5b83346103f25761020561060d36610948565b91610eea565b90503461020857816003193601126102085761062d610917565b6024359290916001600160a01b039190828061064887610a39565b1694169380851461073457803314908115610715575b50156106ad57848652602052842080546001600160a01b0319168317905561068583610a39565b167f8c5be1e5ebec7d5bd14f71427d1e84f3dd0314c0f7b2291e5b200ac8c7c3b9258480a480f35b6020608492519162461bcd60e51b8352820152603d60248201527f4552433732313a20617070726f76652063616c6c6572206973206e6f7420746f60448201527f6b656e206f776e6572206f7220617070726f76656420666f7220616c6c0000006064820152fd5b90508652600560205281862033875260205260ff82872054163861065e565b506020608492519162461bcd60e51b8352820152602160248201527f4552433732313a20617070726f76616c20746f2063757272656e74206f776e656044820152603960f91b6064820152fd5b8284346103f25760203660031901126103f257506104ab60209235610a5f565b8284346103f257806003193601126103f25781519181825492600184811c91818616958615610862575b60209687851081146103d5578899509688969785829a5291826000146103ae5750506001146108075750505061017a92916103449103856109af565b91908693508280527f290decd9548b62a8d60345a988386fc84ba6bc95484008f6362f93160ef3e5635b82841061084a575050508201018161034461017a610331565b8054848a018601528895508794909301928101610831565b92607f16926107cb565b849134610208576020366003190112610208573563ffffffff60e01b811680910361020857602092506380ac58cd60e01b81149081156108c6575b81156108b5575b5015158152f35b6301ffc9a760e01b149050836108ae565b635b5e139f60e01b811491506108a7565b919082519283825260005b848110610903575050826000602080949584010152601f8019910116010190565b6020818301810151848301820152016108e2565b600435906001600160a01b038216820361092d57565b600080fd5b602435906001600160a01b038216820361092d57565b606090600319011261092d576001600160a01b0390600435828116810361092d5791602435908116810361092d579060443590565b6020810190811067ffffffffffffffff82111761099957604052565b634e487b7160e01b600052604160045260246000fd5b90601f8019910116810190811067ffffffffffffffff82111761099957604052565b67ffffffffffffffff811161099957601f01601f191660200190565b156109f457565b60405162461bcd60e51b815260206004820152601860248201527f4552433732313a20696e76616c696420746f6b656e20494400000000000000006044820152606490fd5b6000908152600260205260409020546001600160a01b0316610a5c8115156109ed565b90565b600081815260026020526040902054610a82906001600160a01b031615156109ed565b6000908152600460205260409020546001600160a01b031690565b15610aa457565b60405162461bcd60e51b815260206004820152602d60248201527f4552433732313a2063616c6c6572206973206e6f7420746f6b656e206f776e6560448201526c1c881bdc88185c1c1c9bdd9959609a1b6064820152608490fd5b90610b28939291610b18610b138433610b9f565b610a9d565b610b23838383610c67565b610d7d565b15610b2f57565b60405162461bcd60e51b815280610b4860048201610b4c565b0390fd5b60809060208152603260208201527f4552433732313a207472616e7366657220746f206e6f6e20455243373231526560408201527131b2b4bb32b91034b6b83632b6b2b73a32b960711b60608201520190565b906001600160a01b038080610bb384610a39565b16931691838314938415610be6575b508315610bd0575b50505090565b610bdc91929350610a5f565b1614388080610bca565b909350600052600560205260406000208260005260205260ff604060002054169238610bc2565b15610c1457565b60405162461bcd60e51b815260206004820152602560248201527f4552433732313a207472616e736665722066726f6d20696e636f72726563742060448201526437bbb732b960d91b6064820152608490fd5b90610c8f91610c7584610a39565b6001600160a01b0393918416928492909183168414610c0d565b16918215610d2c5781610cac91610ca586610a39565b1614610c0d565b7fddf252ad1be2c89b69c2b068fc378daa952ba7f163c4a11628f55a4df523b3ef60008481526004602052604081206bffffffffffffffffffffffff60a01b9081815416905583825260036020526040822060001981540190558482526040822060018154019055858252600260205284604083209182541617905580a4565b60405162461bcd60e51b8152602060048201526024808201527f4552433732313a207472616e7366657220746f20746865207a65726f206164646044820152637265737360e01b6064820152608490fd5b9293600093909291803b15610e9357948491610dd79660405180948193630a85bd0160e11b9788845233600485015260018060a01b0380921660248501526044840152608060648401528260209b8c9760848301906108d7565b0393165af1849181610e53575b50610e42575050503d600014610e3a573d610dfe816109d1565b90610e0c60405192836109af565b81528091833d92013e5b80519182610e375760405162461bcd60e51b815280610b4860048201610b4c565b01fd5b506060610e16565b6001600160e01b0319161492509050565b9091508581813d8311610e8c575b610e6b81836109af565b810103126102d857516001600160e01b0319811681036102d8579038610de4565b503d610e61565b505050915050600190565b15610ea557565b60405162461bcd60e51b815260206004820152601c60248201527f4552433732313a20746f6b656e20616c7265616479206d696e746564000000006044820152606490fd5b919060018060a01b03600654163314610f1557610f1392610f0e610b138433610b9f565b610c67565b565b50505056fea2646970667358221220a64198fc0df708c3f66b0dcd62e013a7b1e0684bc588aedfa2c4330c1606f56164736f6c63430008120033","linkReferences":{}},"methodIdentifiers":{"approve(address,uint256)":"095ea7b3","balanceOf(address)":"70a08231","getApproved(uint256)":"081812fc","isApprovedForAll(address,address)":"e985e9c5","mint(address,uint256)":"40c10f19","name()":"06fdde03","ownerOf(uint256)":"6352211e","safeTransferFrom(address,address,uint256)":"42842e0e","safeTransferFrom(address,address,uint256,bytes)":"b88d4fde","setApprovalForAll(address,bool)":"a22cb465","supportsInterface(bytes4)":"01ffc9a7","symbol()":"95d89b41","tokenURI(uint256)":"c87b56dd","transferFrom(address,address,uint256)":"23b872dd"},"id":60}