{
  "abi": [
    {
      "anonymous": false,
      "inputs": [
        {
          "indexed": true,
          "internalType": "address",
          "name": "_originContract",
          "type": "address"
        },
        {
          "indexed": true,
          "internalType": "address",
          "name": "_bidder",
          "type": "address"
        },
        {
          "indexed": true,
          "internalType": "address",
          "name": "_seller",
          "type": "address"
        },
        {
          "indexed": false,
          "internalType": "address",
          "name": "_currencyAddress",
          "type": "address"
        },
        {
          "indexed": false,
          "internalType": "uint256",
          "name": "_amount",
          "type": "uint256"
        },
        {
          "indexed": false,
          "internalType": "uint256",
          "name": "_tokenId",
          "type": "uint256"
        },
        {
          "indexed": false,
          "internalType": "address payable[]",
          "name": "_splitAddresses",
          "type": "address[]"
        },
        {
          "indexed": false,
          "internalType": "uint8[]",
          "name": "_splitRatios",
          "type": "uint8[]"
        }
      ],
      "name": "AcceptOffer",
      "type": "event"
    },
    {
      "anonymous": false,
      "inputs": [
        {
          "indexed": true,
          "internalType": "address",
          "name": "_contractAddress",
          "type": "address"
        },
        {
          "indexed": true,
          "internalType": "address",
          "name": "_bidder",
          "type": "address"
        },
        {
          "indexed": true,
          "internalType": "uint256",
          "name": "_tokenId",
          "type": "uint256"
        },
        {
          "indexed": false,
          "internalType": "address",
          "name": "_currencyAddress",
          "type": "address"
        },
        {
          "indexed": false,
          "internalType": "uint256",
          "name": "_amount",
          "type": "uint256"
        },
        {
          "indexed": false,
          "internalType": "bool",
          "name": "_startedAuction",
          "type": "bool"
        },
        {
          "indexed": false,
          "internalType": "uint256",
          "name": "_newAuctionLength",
          "type": "uint256"
        },
        {
          "indexed": false,
          "internalType": "address",
          "name": "_previousBidder",
          "type": "address"
        }
      ],
      "name": "AuctionBid",
      "type": "event"
    },
    {
      "anonymous": false,
      "inputs": [
        {
          "indexed": true,
          "internalType": "address",
          "name": "_contractAddress",
          "type": "address"
        },
        {
          "indexed": true,
          "internalType": "address",
          "name": "_bidder",
          "type": "address"
        },
        {
          "indexed": false,
          "internalType": "address",
          "name": "_seller",
          "type": "address"
        },
        {
          "indexed": true,
          "internalType": "uint256",
          "name": "_tokenId",
          "type": "uint256"
        },
        {
          "indexed": false,
          "internalType": "address",
          "name": "_currencyAddress",
          "type": "address"
        },
        {
          "indexed": false,
          "internalType": "uint256",
          "name": "_amount",
          "type": "uint256"
        }
      ],
      "name": "AuctionSettled",
      "type": "event"
    },
    {
      "anonymous": false,
      "inputs": [
        {
          "indexed": true,
          "internalType": "address",
          "name": "_contractAddress",
          "type": "address"
        },
        {
          "indexed": true,
          "internalType": "uint256",
          "name": "_tokenId",
          "type": "uint256"
        },
        {
          "indexed": true,
          "internalType": "address",
          "name": "_auctionCreator",
          "type": "address"
        }
      ],
      "name": "CancelAuction",
      "type": "event"
    },
    {
      "anonymous": false,
      "inputs": [
        {
          "indexed": true,
          "internalType": "address",
          "name": "_originContract",
          "type": "address"
        },
        {
          "indexed": true,
          "internalType": "address",
          "name": "_bidder",
          "type": "address"
        },
        {
          "indexed": true,
          "internalType": "address",
          "name": "_currencyAddress",
          "type": "address"
        },
        {
          "indexed": false,
          "internalType": "uint256",
          "name": "_amount",
          "type": "uint256"
        },
        {
          "indexed": false,
          "internalType": "uint256",
          "name": "_tokenId",
          "type": "uint256"
        }
      ],
      "name": "CancelOffer",
      "type": "event"
    },
    {
      "anonymous": false,
      "inputs": [
        {
          "indexed": false,
          "internalType": "uint8",
          "name": "version",
          "type": "uint8"
        }
      ],
      "name": "Initialized",
      "type": "event"
    },
    {
      "anonymous": false,
      "inputs": [
        {
          "indexed": true,
          "internalType": "address",
          "name": "_contractAddress",
          "type": "address"
        },
        {
          "indexed": true,
          "internalType": "uint256",
          "name": "_tokenId",
          "type": "uint256"
        },
        {
          "indexed": true,
          "internalType": "address",
          "name": "_auctionCreator",
          "type": "address"
        },
        {
          "indexed": false,
          "internalType": "address",
          "name": "_currencyAddress",
          "type": "address"
        },
        {
          "indexed": false,
          "internalType": "uint256",
          "name": "_startingTime",
          "type": "uint256"
        },
        {
          "indexed": false,
          "internalType": "uint256",
          "name": "_minimumBid",
          "type": "uint256"
        },
        {
          "indexed": false,
          "internalType": "uint256",
          "name": "_lengthOfAuction",
          "type": "uint256"
        }
      ],
      "name": "NewAuction",
      "type": "event"
    },
    {
      "anonymous": false,
      "inputs": [
        {
          "indexed": true,
          "internalType": "address",
          "name": "_originContract",
          "type": "address"
        },
        {
          "indexed": true,
          "internalType": "address",
          "name": "_bidder",
          "type": "address"
        },
        {
          "indexed": true,
          "internalType": "address",
          "name": "_currencyAddress",
          "type": "address"
        },
        {
          "indexed": false,
          "internalType": "uint256",
          "name": "_amount",
          "type": "uint256"
        },
        {
          "indexed": false,
          "internalType": "uint256",
          "name": "_tokenId",
          "type": "uint256"
        },
        {
          "indexed": false,
          "internalType": "bool",
          "name": "_convertible",
          "type": "bool"
        }
      ],
      "name": "OfferPlaced",
      "type": "event"
    },
    {
      "anonymous": false,
      "inputs": [
        {
          "indexed": true,
          "internalType": "address",
          "name": "previousOwner",
          "type": "address"
        },
        {
          "indexed": true,
          "internalType": "address",
          "name": "newOwner",
          "type": "address"
        }
      ],
      "name": "OwnershipTransferred",
      "type": "event"
    },
    {
      "anonymous": false,
      "inputs": [
        {
          "indexed": true,
          "internalType": "address",
          "name": "_originContract",
          "type": "address"
        },
        {
          "indexed": true,
          "internalType": "address",
          "name": "_currencyAddress",
          "type": "address"
        },
        {
          "indexed": false,
          "internalType": "address",
          "name": "_target",
          "type": "address"
        },
        {
          "indexed": false,
          "internalType": "uint256",
          "name": "_amount",
          "type": "uint256"
        },
        {
          "indexed": false,
          "internalType": "uint256",
          "name": "_tokenId",
          "type": "uint256"
        },
        {
          "indexed": false,
          "internalType": "address payable[]",
          "name": "_splitRecipients",
          "type": "address[]"
        },
        {
          "indexed": false,
          "internalType": "uint8[]",
          "name": "_splitRatios",
          "type": "uint8[]"
        }
      ],
      "name": "SetSalePrice",
      "type": "event"
    },
    {
      "anonymous": false,
      "inputs": [
        {
          "indexed": true,
          "internalType": "address",
          "name": "_originContract",
          "type": "address"
        },
        {
          "indexed": true,
          "internalType": "address",
          "name": "_buyer",
          "type": "address"
        },
        {
          "indexed": true,
          "internalType": "address",
          "name": "_seller",
          "type": "address"
        },
        {
          "indexed": false,
          "internalType": "address",
          "name": "_currencyAddress",
          "type": "address"
        },
        {
          "indexed": false,
          "internalType": "uint256",
          "name": "_amount",
          "type": "uint256"
        },
        {
          "indexed": false,
          "internalType": "uint256",
          "name": "_tokenId",
          "type": "uint256"
        }
      ],
      "name": "Sold",
      "type": "event"
    },
    {
      "inputs": [],
      "name": "COLDIE_AUCTION",
      "outputs": [
        {
          "internalType": "bytes32",
          "name": "",
          "type": "bytes32"
        }
      ],
      "stateMutability": "view",
      "type": "function"
    },
    {
      "inputs": [],
      "name": "NO_AUCTION",
      "outputs": [
        {
          "internalType": "bytes32",
          "name": "",
          "type": "bytes32"
        }
      ],
      "stateMutability": "view",
      "type": "function"
    },
    {
      "inputs": [],
      "name": "SCHEDULED_AUCTION",
      "outputs": [
        {
          "internalType": "bytes32",
          "name": "",
          "type": "bytes32"
        }
      ],
      "stateMutability": "view",
      "type": "function"
    },
    {
      "inputs": [
        {
          "internalType": "address",
          "name": "_originContract",
          "type": "address"
        },
        {
          "internalType": "uint256",
          "name": "_tokenId",
          "type": "uint256"
        },
        {
          "internalType": "address",
          "name": "_currencyAddress",
          "type": "address"
        },
        {
          "internalType": "uint256",
          "name": "_amount",
          "type": "uint256"
        },
        {
          "internalType": "address payable[]",
          "name": "_splitAddresses",
          "type": "address[]"
        },
        {
          "internalType": "uint8[]",
          "name": "_splitRatios",
          "type": "uint8[]"
        }
      ],
      "name": "acceptOffer",
      "outputs": [],
      "stateMutability": "nonpayable",
      "type": "function"
    },
    {
      "inputs": [],
      "name": "approvedTokenRegistry",
      "outputs": [
        {
          "internalType": "contract IApprovedTokenRegistry",
          "name": "",
          "type": "address"
        }
      ],
      "stateMutability": "view",
      "type": "function"
    },
    {
      "inputs": [
        {
          "internalType": "address",
          "name": "",
          "type": "address"
        },
        {
          "internalType": "uint256",
          "name": "",
          "type": "uint256"
        }
      ],
      "name": "auctionBids",
      "outputs": [
        {
          "internalType": "address payable",
          "name": "bidder",
          "type": "address"
        },
        {
          "internalType": "address",
          "name": "currencyAddress",
          "type": "address"
        },
        {
          "internalType": "uint256",
          "name": "amount",
          "type": "uint256"
        },
        {
          "internalType": "uint8",
          "name": "marketplaceFee",
          "type": "uint8"
        }
      ],
      "stateMutability": "view",
      "type": "function"
    },
    {
      "inputs": [],
      "name": "auctionLengthExtension",
      "outputs": [
        {
          "internalType": "uint256",
          "name": "",
          "type": "uint256"
        }
      ],
      "stateMutability": "view",
      "type": "function"
    },
    {
      "inputs": [
        {
          "internalType": "address",
          "name": "_originContract",
          "type": "address"
        },
        {
          "internalType": "uint256",
          "name": "_tokenId",
          "type": "uint256"
        },
        {
          "internalType": "address",
          "name": "_currencyAddress",
          "type": "address"
        },
        {
          "internalType": "uint256",
          "name": "_amount",
          "type": "uint256"
        }
      ],
      "name": "buy",
      "outputs": [],
      "stateMutability": "payable",
      "type": "function"
    },
    {
      "inputs": [
        {
          "internalType": "address",
          "name": "_originContract",
          "type": "address"
        },
        {
          "internalType": "uint256",
          "name": "_tokenId",
          "type": "uint256"
        },
        {
          "internalType": "address",
          "name": "_currencyAddress",
          "type": "address"
        }
      ],
      "name": "cancelOffer",
      "outputs": [],
      "stateMutability": "nonpayable",
      "type": "function"
    },
    {
      "inputs": [],
      "name": "marketplaceSettings",
      "outputs": [
        {
          "internalType": "contract IMarketplaceSettings",
          "name": "",
          "type": "address"
        }
      ],
      "stateMutability": "view",
      "type": "function"
    },
    {
      "inputs": [],
      "name": "maxAuctionLength",
      "outputs": [
        {
          "internalType": "uint256",
          "name": "",
          "type": "uint256"
        }
      ],
      "stateMutability": "view",
      "type": "function"
    },
    {
      "inputs": [],
      "name": "minimumBidIncreasePercentage",
      "outputs": [
        {
          "internalType": "uint8",
          "name": "",
          "type": "uint8"
        }
      ],
      "stateMutability": "view",
      "type": "function"
    },
    {
      "inputs": [],
      "name": "networkBeneficiary",
      "outputs": [
        {
          "internalType": "address",
          "name": "",
          "type": "address"
        }
      ],
      "stateMutability": "view",
      "type": "function"
    },
    {
      "inputs": [
        {
          "internalType": "address",
          "name": "_originContract",
          "type": "address"
        },
        {
          "internalType": "uint256",
          "name": "_tokenId",
          "type": "uint256"
        },
        {
          "internalType": "address",
          "name": "_currencyAddress",
          "type": "address"
        },
        {
          "internalType": "uint256",
          "name": "_amount",
          "type": "uint256"
        },
        {
          "internalType": "bool",
          "name": "_convertible",
          "type": "bool"
        }
      ],
      "name": "offer",
      "outputs": [],
      "stateMutability": "payable",
      "type": "function"
    },
    {
      "inputs": [],
      "name": "offerCancelationDelay",
      "outputs": [
        {
          "internalType": "uint256",
          "name": "",
          "type": "uint256"
        }
      ],
      "stateMutability": "view",
      "type": "function"
    },
    {
      "inputs": [],
      "name": "owner",
      "outputs": [
        {
          "internalType": "address",
          "name": "",
          "type": "address"
        }
      ],
      "stateMutability": "view",
      "type": "function"
    },
    {
      "inputs": [],
      "name": "payments",
      "outputs": [
        {
          "internalType": "contract IPayments",
          "name": "",
          "type": "address"
        }
      ],
      "stateMutability": "view",
      "type": "function"
    },
    {
      "inputs": [
        {
          "internalType": "address",
          "name": "_originContract",
          "type": "address"
        },
        {
          "internalType": "uint256",
          "name": "_tokenId",
          "type": "uint256"
        },
        {
          "internalType": "address",
          "name": "_target",
          "type": "address"
        }
      ],
      "name": "removeSalePrice",
      "outputs": [],
      "stateMutability": "nonpayable",
      "type": "function"
    },
    {
      "inputs": [],
      "name": "renounceOwnership",
      "outputs": [],
      "stateMutability": "nonpayable",
      "type": "function"
    },
    {
      "inputs": [],
      "name": "royaltyEngine",
      "outputs": [
        {
          "internalType": "contract IRoyaltyEngineV1",
          "name": "",
          "type": "address"
        }
      ],
      "stateMutability": "view",
      "type": "function"
    },
    {
      "inputs": [],
      "name": "royaltyRegistry",
      "outputs": [
        {
          "internalType": "contract IRoyaltyRegistry",
          "name": "",
          "type": "address"
        }
      ],
      "stateMutability": "view",
      "type": "function"
    },
    {
      "inputs": [
        {
          "internalType": "address",
          "name": "_originContract",
          "type": "address"
        },
        {
          "internalType": "uint256",
          "name": "_tokenId",
          "type": "uint256"
        },
        {
          "internalType": "address",
          "name": "_currencyAddress",
          "type": "address"
        },
        {
          "internalType": "uint256",
          "name": "_listPrice",
          "type": "uint256"
        },
        {
          "internalType": "address",
          "name": "_target",
          "type": "address"
        },
        {
          "internalType": "address payable[]",
          "name": "_splitAddresses",
          "type": "address[]"
        },
        {
          "internalType": "uint8[]",
          "name": "_splitRatios",
          "type": "uint8[]"
        }
      ],
      "name": "setSalePrice",
      "outputs": [],
      "stateMutability": "nonpayable",
      "type": "function"
    },
    {
      "inputs": [],
      "name": "spaceOperatorRegistry",
      "outputs": [
        {
          "internalType": "contract ISpaceOperatorRegistry",
          "name": "",
          "type": "address"
        }
      ],
      "stateMutability": "view",
      "type": "function"
    },
    {
      "inputs": [],
      "name": "stakingRegistry",
      "outputs": [
        {
          "internalType": "address",
          "name": "",
          "type": "address"
        }
      ],
      "stateMutability": "view",
      "type": "function"
    },
    {
      "inputs": [],
      "name": "superRareAuctionHouse",
      "outputs": [
        {
          "internalType": "address",
          "name": "",
          "type": "address"
        }
      ],
      "stateMutability": "view",
      "type": "function"
    },
    {
      "inputs": [],
      "name": "superRareMarketplace",
      "outputs": [
        {
          "internalType": "address",
          "name": "",
          "type": "address"
        }
      ],
      "stateMutability": "view",
      "type": "function"
    },
    {
      "inputs": [
        {
          "internalType": "address",
          "name": "",
          "type": "address"
        },
        {
          "internalType": "uint256",
          "name": "",
          "type": "uint256"
        }
      ],
      "name": "tokenAuctions",
      "outputs": [
        {
          "internalType": "address payable",
          "name": "auctionCreator",
          "type": "address"
        },
        {
          "internalType": "uint256",
          "name": "creationBlock",
          "type": "uint256"
        },
        {
          "internalType": "uint256",
          "name": "startingTime",
          "type": "uint256"
        },
        {
          "internalType": "uint256",
          "name": "lengthOfAuction",
          "type": "uint256"
        },
        {
          "internalType": "address",
          "name": "currencyAddress",
          "type": "address"
        },
        {
          "internalType": "uint256",
          "name": "minimumBid",
          "type": "uint256"
        },
        {
          "internalType": "bytes32",
          "name": "auctionType",
          "type": "bytes32"
        }
      ],
      "stateMutability": "view",
      "type": "function"
    },
    {
      "inputs": [
        {
          "internalType": "address",
          "name": "",
          "type": "address"
        },
        {
          "internalType": "uint256",
          "name": "",
          "type": "uint256"
        },
        {
          "internalType": "address",
          "name": "",
          "type": "address"
        }
      ],
      "name": "tokenCurrentOffers",
      "outputs": [
        {
          "internalType": "address payable",
          "name": "buyer",
          "type": "address"
        },
        {
          "internalType": "uint256",
          "name": "amount",
          "type": "uint256"
        },
        {
          "internalType": "uint256",
          "name": "timestamp",
          "type": "uint256"
        },
        {
          "internalType": "uint8",
          "name": "marketplaceFee",
          "type": "uint8"
        },
        {
          "internalType": "bool",
          "name": "convertible",
          "type": "bool"
        }
      ],
      "stateMutability": "view",
      "type": "function"
    },
    {
      "inputs": [
        {
          "internalType": "address",
          "name": "",
          "type": "address"
        },
        {
          "internalType": "uint256",
          "name": "",
          "type": "uint256"
        },
        {
          "internalType": "address",
          "name": "",
          "type": "address"
        }
      ],
      "name": "tokenSalePrices",
      "outputs": [
        {
          "internalType": "address payable",
          "name": "seller",
          "type": "address"
        },
        {
          "internalType": "address",
          "name": "currencyAddress",
          "type": "address"
        },
        {
          "internalType": "uint256",
          "name": "amount",
          "type": "uint256"
        }
      ],
      "stateMutability": "view",
      "type": "function"
    },
    {
      "inputs": [
        {
          "internalType": "address",
          "name": "newOwner",
          "type": "address"
        }
      ],
      "name": "transferOwnership",
      "outputs": [],
      "stateMutability": "nonpayable",
      "type": "function"
    }
  ],
  "bytecode": {
    "object": "0x608060405234801561001057600080fd5b50613aeb806100206000396000f3fe6080604052600436106101cc5760003560e01c80636fe9f44c116100f7578063ba50b63211610095578063daa2649911610064578063daa26499146106e2578063e92f94d1146106f8578063f2fde38b14610718578063f7cfaad01461073857600080fd5b8063ba50b632146105c7578063c47c35c1146105e7578063c8f94f4e1461069d578063c90b8714146106bd57600080fd5b8063a11b0712116100d1578063a11b07121461054c578063a6d23e101461056c578063b23afc261461058c578063b3ffb760146105b457600080fd5b80636fe9f44c146104e6578063715018a6146105195780638da5cb5b1461052e57600080fd5b80631a2ac30f1161016f5780634c94c90c1161013e5780634c94c90c14610466578063534665e9146104865780636240cd1c146104a65780636b534ed0146104c657600080fd5b80631a2ac30f146102b2578063299a0e1e1461031b5780632c419053146103a65780633bc3d9be1461044657600080fd5b80630bcba09d116101ab5780630bcba09d146102525780630e519ef9146102725780630f2b253214610288578063155a56b11461029d57600080fd5b80629d9aa9146101d15780630141c5901461020e5780630a5c4ed51461022e575b600080fd5b3480156101dd57600080fd5b50609f546101f1906001600160a01b031681565b6040516001600160a01b0390911681526020015b60405180910390f35b34801561021a57600080fd5b50609a546101f1906001600160a01b031681565b34801561023a57600080fd5b5061024460a35481565b604051908152602001610205565b34801561025e57600080fd5b50609c546101f1906001600160a01b031681565b34801561027e57600080fd5b5061024460a15481565b61029b610296366004613286565b610758565b005b3480156102a957600080fd5b50610244600081565b3480156102be57600080fd5b5061030c6102cd3660046132e5565b60a46020908152600093845260408085208252928452828420905282529020805460018201546002909201546001600160a01b03918216929091169083565b60405161020593929190613327565b34801561032757600080fd5b5061037861033636600461334b565b60a760209081526000928352604080842090915290825290208054600182015460028301546003909301546001600160a01b0392831693919092169160ff1684565b604080516001600160a01b0395861681529490931660208501529183015260ff166060820152608001610205565b3480156103b257600080fd5b5061040f6103c13660046132e5565b60a560209081526000938452604080852082529284528284209052825290208054600182015460028301546003909301546001600160a01b0390921692909160ff8082169161010090041685565b604080516001600160a01b03909616865260208601949094529284019190915260ff1660608301521515608082015260a001610205565b34801561045257600080fd5b50609b546101f1906001600160a01b031681565b34801561047257600080fd5b506099546101f1906001600160a01b031681565b34801561049257600080fd5b5061029b6104a13660046133c3565b610bc2565b3480156104b257600080fd5b50609d546101f1906001600160a01b031681565b3480156104d257600080fd5b5060a0546101f1906001600160a01b031681565b3480156104f257600080fd5b5060a05461050790600160a01b900460ff1681565b60405160ff9091168152602001610205565b34801561052557600080fd5b5061029b610f88565b34801561053a57600080fd5b506033546001600160a01b03166101f1565b34801561055857600080fd5b506098546101f1906001600160a01b031681565b34801561057857600080fd5b50609e546101f1906001600160a01b031681565b34801561059857600080fd5b506102447029a1a422a22aa622a22fa0aaa1aa24a7a760791b81565b61029b6105c236600461346b565b610f9c565b3480156105d357600080fd5b506097546101f1906001600160a01b031681565b3480156105f357600080fd5b5061065661060236600461334b565b60a660209081526000928352604080842090915290825290208054600182015460028301546003840154600485015460058601546006909601546001600160a01b0395861696949593949293909116919087565b604080516001600160a01b03988916815260208101979097528601949094526060850192909252909316608083015260a082019290925260c081019190915260e001610205565b3480156106a957600080fd5b5061029b6106b83660046134b3565b61162a565b3480156106c957600080fd5b506102446d21a7a62224a2afa0aaa1aa24a7a760911b81565b3480156106ee57600080fd5b5061024460a25481565b34801561070457600080fd5b5061029b6107133660046132e5565b6117eb565b34801561072457600080fd5b5061029b610733366004613570565b611a7d565b34801561074457600080fd5b5061029b6107533660046132e5565b611af6565b610760611c9d565b61076983611cf6565b600082116107be5760405162461bcd60e51b815260206004820152601960248201527f6f666665723a3a416d6f756e742063616e6e6f7420626520300000000000000060448201526064015b60405180910390fd5b6001600160a01b03808616600090815260a56020908152604080832088845282528083208785168452825291829020825160a080820185528254909516815260018201549281018390526002820154938101939093526003015460ff80821660608501526101009091048116151560808401529254919260649261084d92600160a01b909104909116906135aa565b61085791906135c9565b816020015161086691906135eb565b8310156108d35760405162461bcd60e51b815260206004820152603560248201527f6f666665723a3a4d7573742062652067726561746572207468616e2070726576604482015274206f66666572202b206d696e20696e63726561736560581b60648201526084016107b5565b6097546040516361fe24a960e11b8152600481018590526000916001600160a01b03169063c3fc495290602401602060405180830381865afa15801561091d573d6000803e3d6000fd5b505050506040513d601f19601f820116820180604052508101906109419190613603565b61094b90856135eb565b90506109578582611db9565b6109618582611ea4565b6040516331a9108f60e11b815260048101879052879033906001600160a01b03831690636352211e90602401602060405180830381865afa1580156109aa573d6000803e3d6000fd5b505050506040513d601f19601f820116820180604052508101906109ce919061361c565b6001600160a01b031603610a305760405162461bcd60e51b815260206004820152602360248201527f6f666665723a3a4f666665722063616e6e6f7420636f6d652066726f6d206f776044820152623732b960e91b60648201526084016107b5565b610a4b868460200151856060015160ff1686600001516120a3565b6040805160a081018252338152602080820188905242828401526097548351638347592160e01b81529351929360608501936001600160a01b03909216926383475921926004808401938290030181865afa158015610aae573d6000803e3d6000fd5b505050506040513d601f19601f82011682018060405250810190610ad29190613648565b60ff908116825286151560209283018190526001600160a01b038c8116600081815260a5865260408082208f835287528082208e851680845290885291819020885181546001600160a01b0319169516949094178455878701516001850155878101516002850155606080890151600390950180546080909a01519590971661ffff1990991698909817610100941515949094029390931790945581518b81529485018d905290840191909152909233927facbe96367816f728b84abf006ca777225b704072592132845e9a3dbd7b023691910160405180910390a4505050610bbb6001606555565b5050505050565b610bca611c9d565b610bd488886121c7565b610bde888861228a565b610bea848484846123c2565b6001600160a01b03808916600090815260a5602090815260408083208b845282528083208a851684528252808320815160a0810183528154909516855260018101549285018390526002810154918501919091526003015460ff808216606086015261010090910416151560808401529003610ca85760405162461bcd60e51b815260206004820152601c60248201527f6163636570744f666665723a3a4e6f206f66666572206578697374730000000060448201526064016107b5565b85816020015114610d135760405162461bcd60e51b815260206004820152602f60248201527f6163636570744f666665723a3a4f6666657220616d6f756e74206f722063757260448201526e1c995b98de481b9bdd08195c5d585b608a1b60648201526084016107b5565b6001600160a01b038916600090815260a4602090815260408083208b84528252808320838052909152812080546001600160a01b0319908116825560018201805490911690556002810182905590610d6e6003830182613109565b610d7c600483016000613127565b50506001600160a01b03808a16600081815260a5602090815260408083208d84528252808320948c16835293905282812080546001600160a01b0319168155600181018290556002810191909155600301805461ffff1916905582519151632142170760e11b81528b926342842e0e91610dfc9133918e90600401613327565b600060405180830381600087803b158015610e1657600080fd5b505af1158015610e2a573d6000803e3d6000fd5b50505050610ea08a8a8a8a338b8b8080602002602001604051908101604052809392919081815260200183836020028082843760009201919091525050604080516020808f0282810182019093528e82529093508e92508d91829185019084908082843760009201919091525061259592505050565b609754604051635a3c652d60e01b81526001600160a01b038c81166004830152602482018c90526001604483015290911690635a3c652d90606401600060405180830381600087803b158015610ef557600080fd5b505af1158015610f09573d6000803e3d6000fd5b50505050336001600160a01b031682600001516001600160a01b03168b6001600160a01b03167f97c3d2068ce177bc33d84acecc45eededcf298c4a9d4340ae03d4afbb3993f7b8b8b8e8c8c8c8c604051610f6a9796959493929190613665565b60405180910390a45050610f7e6001606555565b5050505050505050565b610f90612c14565b610f9a6000612c6e565b565b610fa4611c9d565b610fae848461228a565b6097546040516361fe24a960e11b8152600481018390526000916001600160a01b03169063c3fc495290602401602060405180830381865afa158015610ff8573d6000803e3d6000fd5b505050506040513d601f19601f8201168201806040525081019061101c9190613603565b61102690836135eb565b6001600160a01b038616600090815260a460209081526040808320888452825280832033845291829052822060020154929350918103611073576000808052602083905260409020611083565b3360009081526020839052604090205b6040805160a08101825282546001600160a01b0390811682526001840154166020808301919091526002840154828401526003840180548451818402810184019095528085529294936060860193909283018282801561110c57602002820191906000526020600020905b81546001600160a01b031681526001909101906020018083116110ee575b505050505081526020016004820180548060200260200160405190810160405280929190818152602001828054801561118257602002820191906000526020600020906000905b825461010083900a900460ff168152602060019283018181049485019490930390920291018084116111535790505b505050505081525050905060008160400151116111e15760405162461bcd60e51b815260206004820152601f60248201527f6275793a3a546f6b656e20686173206e6f20627579206e6f772070726963650060448201526064016107b5565b6040516331a9108f60e11b81526004810187905287906000906001600160a01b03831690636352211e90602401602060405180830381865afa15801561122b573d6000803e3d6000fd5b505050506040513d601f19601f8201168201806040525081019061124f919061361c565b905082600001516001600160a01b0316816001600160a01b0316146112b65760405162461bcd60e51b815260206004820152601b60248201527f6275793a3a507269636520736574746572206e6f74206f776e6572000000000060448201526064016107b5565b826040015186146113095760405162461bcd60e51b815260206004820152601860248201527f6275793a3a496e73756666696369656e7420616d6f756e74000000000000000060448201526064016107b5565b6001600160a01b038916600090815260a4602090815260408083208b84528252808320338452909152812080546001600160a01b03199081168255600182018054909116905560028101829055906113646003830182613109565b611372600483016000613127565b50506001600160a01b038916600090815260a4602090815260408083208b84528252808320838052909152812080546001600160a01b03199081168255600182018054909116905560028101829055906113cf6003830182613109565b6113dd600483016000613127565b50506113e98786611ea4565b6001600160a01b03808a16600090815260a5602090815260408083208c845282528083208b85168452825291829020825160a081018452815490941680855260018201549285019290925260028101549284019290925260039091015460ff808216606085015261010090910416151560808301523390036114d4576001600160a01b03808b16600090815260a5602090815260408083208d84528252808320938c16835292815291812080546001600160a01b0319168155600181018290556002810191909155600301805461ffff1916905581015160608201516114d4918a9160ff16336120a3565b604051632142170760e11b81526001600160a01b038416906342842e0e9061150490859033908e90600401613327565b600060405180830381600087803b15801561151e57600080fd5b505af1158015611532573d6000803e3d6000fd5b505050506115518a8a8a8a886000015189606001518a60800151612595565b609754604051635a3c652d60e01b81526001600160a01b038c81166004830152602482018c90526001604483015290911690635a3c652d90606401600060405180830381600087803b1580156115a657600080fd5b505af11580156115ba573d6000803e3d6000fd5b50508551604080516001600160a01b038d81168252602082018d90529181018e905291811693503392508d16907f6f9e7bc841408072f4a49e469f90e1a634b85251803662bc8e5c220b287824729060600160405180910390a45050505050506116246001606555565b50505050565b61163387611cf6565b61163d89896121c7565b611647898961228a565b611653848484846123c2565b6040518060a00160405280336001600160a01b03168152602001886001600160a01b03168152602001878152602001858580806020026020016040519081016040528093929190818152602001838360200280828437600092019190915250505090825250604080516020858102828101820190935285825292830192909186918691829185019084908082843760009201829052509390945250506001600160a01b03808d16825260a4602090815260408084208e855282528084208b84168552825292839020855181549084166001600160a01b031991821617825586830151600183018054919095169116179092559184015160028201556060840151805191935061176992600385019291019061314c565b50608082015180516117859160048401916020909101906131b1565b50905050866001600160a01b0316896001600160a01b03167fb6039ff1edf80efca6bc48b89f5415ba07fecb2d321058dae9ce6369b2ff964b87898c898989896040516117d89796959493929190613665565b60405180910390a3505050505050505050565b6117f3611c9d565b6001600160a01b03808416600090815260a560209081526040808320868452825280832085851684528252808320815160a0810183528154909516855260018101549285018390526002810154918501919091526003015460ff8082166060860152610100909104161515608084015290036118c45760405162461bcd60e51b815260206004820152602a60248201527f63616e63656c4f666665723a3a4e6f206f6666657220666f722063757272656e60448201526931bc9032bc34b9ba399760b11b60648201526084016107b5565b80516001600160a01b031633146119355760405162461bcd60e51b815260206004820152602f60248201527f63616e63656c4f666665723a3a53656e646572206d757374206861766520706c60448201526e30b1b2b2103a34329037b33332b91760891b60648201526084016107b5565b60a35460408201516119479042613710565b116119945760405162461bcd60e51b815260206004820152601a60248201527f4f6666657220706c6163656420746f6f20726563656e746c792e00000000000060448201526064016107b5565b6001600160a01b03848116600090815260a5602090815260408083208784528252808320938616835292815291812080546001600160a01b0319168155600181018290556002810191909155600301805461ffff1916905581015160608201518251611a09928592909160ff909116906120a3565b816001600160a01b0316336001600160a01b0316856001600160a01b03167fb9a071fe7d38dc86fbc448d440311b6bd67e5e09de8b1b62c72f5fe344100453846020015187604051611a65929190918252602082015260400190565b60405180910390a450611a786001606555565b505050565b611a85612c14565b6001600160a01b038116611aea5760405162461bcd60e51b815260206004820152602660248201527f4f776e61626c653a206e6577206f776e657220697320746865207a65726f206160448201526564647265737360d01b60648201526084016107b5565b611af381612c6e565b50565b6040516331a9108f60e11b81526004810183905283906000906001600160a01b03831690636352211e90602401602060405180830381865afa158015611b40573d6000803e3d6000fd5b505050506040513d601f19601f82011682018060405250810190611b64919061361c565b9050336001600160a01b03821614611bca5760405162461bcd60e51b8152602060048201526024808201527f72656d6f766553616c6550726963653a3a4d75737420626520746f6b656e4f776044820152633732b91760e11b60648201526084016107b5565b6001600160a01b03808616600090815260a4602090815260408083208884528252808320938716835292905290812080546001600160a01b0319908116825560018201805490911690556002810182905590611c296003830182613109565b611c37600483016000613127565b5050604080516000808252602082018181528284019384905290926001600160a01b038916927fb6039ff1edf80efca6bc48b89f5415ba07fecb2d321058dae9ce6369b2ff964b92611c8e92869283928c92613781565b60405180910390a35050505050565b600260655403611cef5760405162461bcd60e51b815260206004820152601f60248201527f5265656e7472616e637947756172643a207265656e7472616e742063616c6c0060448201526064016107b5565b6002606555565b6001600160a01b0381161580611d755750609d54604051632d5ad3d560e01b81526001600160a01b03838116600483015290911690632d5ad3d590602401602060405180830381865afa158015611d51573d6000803e3d6000fd5b505050506040513d601f19601f82011682018060405250810190611d7591906137f5565b611af35760405162461bcd60e51b81526020600482015260156024820152744e6f7420617070726f7665642063757272656e637960581b60448201526064016107b5565b6001600160a01b038216611dcb575050565b604051636eb1769f60e11b8152336004820152306024820152829082906001600160a01b0383169063dd62ed3e90604401602060405180830381865afa158015611e19573d6000803e3d6000fd5b505050506040513d601f19601f82011682018060405250810190611e3d9190613603565b1015611a785760405162461bcd60e51b815260206004820152603060248201527f73656e646572206e6565647320746f20617070726f7665206d61726b6574706c60448201526f61636520666f722063757272656e637960801b60648201526084016107b5565b6001600160a01b038216611efb57803414611ef75760405162461bcd60e51b81526020600482015260136024820152721b9bdd08195b9bdd59da08195d1a081cd95b9d606a1b60448201526064016107b5565b5050565b3415611f5a5760405162461bcd60e51b815260206004820152602860248201527f6d73672e76616c75652073686f756c642062652030207768656e206e6f7420756044820152670e6d2dcce40cae8d60c31b60648201526084016107b5565b6040516370a0823160e01b815230600482015282906000906001600160a01b038316906370a0823190602401602060405180830381865afa158015611fa3573d6000803e3d6000fd5b505050506040513d601f19601f82011682018060405250810190611fc79190613603565b9050611fde6001600160a01b038316333086612cc0565b6040516370a0823160e01b81523060048201526000906001600160a01b038416906370a0823190602401602060405180830381865afa158015612025573d6000803e3d6000fd5b505050506040513d601f19601f820116820180604052508101906120499190613603565b9050836120568383613710565b14610bbb5760405162461bcd60e51b815260206004820152601c60248201527f6e6f7420656e6f75676820746f6b656e73207472616e7366657265640000000060448201526064016107b5565b821561162457600060646120b784866135aa565b6120c191906135c9565b6120cb90856135eb565b90506001600160a01b0385166121aa57609e546040516001600160a01b038481166024830152604482018490526000928392911690849060640160408051601f198184030181529181526020820180516001600160e01b031663410085df60e01b1790525161213a919061383e565b60006040518083038185875af1925050503d8060008114612177576040519150601f19603f3d011682016040523d82523d6000602084013e61217c565b606091505b50915091508181906121a15760405162461bcd60e51b81526004016107b5919061385a565b50505050611624565b846121bf6001600160a01b0382168484612d18565b505050505050565b6040516331a9108f60e11b815260048101829052829033906001600160a01b03831690636352211e90602401602060405180830381865afa158015612210573d6000803e3d6000fd5b505050506040513d601f19601f82011682018060405250810190612234919061361c565b6001600160a01b031614611a785760405162461bcd60e51b815260206004820152601e60248201527f73656e646572206d7573742062652074686520746f6b656e206f776e6572000060448201526064016107b5565b6040516331a9108f60e11b81526004810182905282906000906001600160a01b03831690636352211e90602401602060405180830381865afa1580156122d4573d6000803e3d6000fd5b505050506040513d601f19601f820116820180604052508101906122f8919061361c565b60405163e985e9c560e01b81526001600160a01b0380831660048301523060248301529192509083169063e985e9c590604401602060405180830381865afa158015612348573d6000803e3d6000fd5b505050506040513d601f19601f8201168201806040525081019061236c91906137f5565b6116245760405162461bcd60e51b815260206004820152602160248201527f6f776e6572206d757374206861766520617070726f76656420636f6e747261636044820152601d60fa1b60648201526084016107b5565b8261241f5760405162461bcd60e51b815260206004820152602760248201527f636865636b53706c6974733a3a4d7573742068617665206174206c65617374206044820152660c481cdc1b1a5d60ca1b60648201526084016107b5565b600583111561247c5760405162461bcd60e51b8152602060048201526024808201527f636865636b53706c6974733a3a53706c6974206578636565646564206d61782060448201526373697a6560e01b60648201526084016107b5565b8281146124e05760405162461bcd60e51b815260206004820152602c60248201527f636865636b53706c6974733a3a53706c69747320616e6420726174696f73206d60448201526b1d5cdd08189948195c5d585b60a21b60648201526084016107b5565b6000805b82811015612534578383828181106124fe576124fe61388d565b905060200201602081019061251391906138a3565b6125209060ff16836135eb565b91508061252c816138c0565b9150506124e4565b5080606414610bbb5760405162461bcd60e51b815260206004820152602760248201527f636865636b53706c6974733a3a546f74616c206d75737420626520657175616c604482015266020746f203130360cc1b60648201526084016107b5565b80518251146126025760405162461bcd60e51b815260206004820152603360248201527f4e756d626572206f662073706c69742061646472657373657320616e642072616044820152723a34b7b99036bab9ba1031329032b8bab0b61760691b60648201526084016107b5565b6097546040516361fe24a960e11b81526004810186905285916000916001600160a01b039091169063c3fc495290602401602060405180830381865afa158015612650573d6000803e3d6000fd5b505050506040513d601f19601f820116820180604052508101906126749190613603565b6040805160018082528183019092529192506000919060208083019080368337505060a05482519293506001600160a01b0316918391506000906126ba576126ba61388d565b6001600160a01b039290921660209283029190910190910152604080516001808252818301909252600091816020016020820280368337019050509050828160008151811061270b5761270b61388d565b60200260200101818152505061272389848484612d48565b609754604051631446f21360e21b81526001600160a01b038d81166004830152602482018d90529091169063511bc84c90604401602060405180830381865afa158015612774573d6000803e3d6000fd5b505050506040513d601f19601f8201168201806040525081019061279891906137f5565b612a12576040805160018082528183019092526000916020808301908036833701905050609c54604051635dc22eff60e01b81526001600160a01b038b81166004830152929350911690635dc22eff90602401602060405180830381865afa158015612808573d6000803e3d6000fd5b505050506040513d601f19601f8201168201806040525081019061282c91906137f5565b1561292857609c54604051632260494f60e01b81526001600160a01b038a811660048301526000921690632260494f90602401602060405180830381865afa15801561287c573d6000803e3d6000fd5b505050506040513d601f19601f820116820180604052508101906128a09190613648565b60ff16905060646128b1828c6135aa565b6128bb91906135c9565b6128c59087613710565b955060646128d3828c6135aa565b6128dd91906135c9565b826000815181106128f0576128f061388d565b6020026020010181815250506129228b836000815181106129135761291361388d565b60200260200101518685612d48565b50612a0c565b60975460405163b28a7bad60e01b81526001600160a01b038e81166004830152600092169063b28a7bad90602401602060405180830381865afa158015612973573d6000803e3d6000fd5b505050506040513d601f19601f820116820180604052508101906129979190613648565b60ff16905060646129a8828c6135aa565b6129b291906135c9565b6129bc9087613710565b955060646129ca828c6135aa565b6129d491906135c9565b826000815181106129e7576129e761388d565b602002602001018181525050612a0a8b836000815181106129135761291361388d565b505b50612aff565b609954604051637a99dc0160e11b81526001600160a01b038d81166004830152602482018d9052604482018b9052600092839291169063f533b802906064016000604051808303816000875af1158015612a70573d6000803e3d6000fd5b505050506040513d6000823e601f3d908101601f19168201604052612a989190810190613999565b915091506000805b8251811015612ae257828181518110612abb57612abb61388d565b602002602001015182612ace91906135eb565b915080612ada816138c0565b915050612aa0565b50612aed8188613710565b9650612afb8c828585612d48565b5050505b6000865167ffffffffffffffff811115612b1b57612b1b613727565b604051908082528060200260200182016040528015612b44578160200160208202803683370190505b5090506000805b8851811015612bf8576064888281518110612b6857612b6861388d565b602002602001015160ff1688612b7e91906135aa565b612b8891906135c9565b838281518110612b9a57612b9a61388d565b6020026020010181815250506064888281518110612bba57612bba61388d565b602002602001015160ff1688612bd091906135aa565b612bda91906135c9565b612be490836135eb565b915080612bf0816138c0565b915050612b4b565b50612c058b828a85612d48565b50505050505050505050505050565b6033546001600160a01b03163314610f9a5760405162461bcd60e51b815260206004820181905260248201527f4f776e61626c653a2063616c6c6572206973206e6f7420746865206f776e657260448201526064016107b5565b603380546001600160a01b038381166001600160a01b0319831681179093556040519116919082907f8be0079c531659141344cd1fd0a4f28419497f9722a3daafe3b4186f6b6457e090600090a35050565b611624846323b872dd60e01b858585604051602401612ce193929190613327565b60408051601f198184030181529190526020810180516001600160e01b03166001600160e01b031990931692909217909152612ea4565b6040516001600160a01b038316602482015260448101829052611a7890849063a9059cbb60e01b90606401612ce1565b6001600160a01b038416612e3557609e5460405160009182916001600160a01b0390911690869063c176e63960e01b90612d889088908890602401613a5e565b60408051601f198184030181529181526020820180516001600160e01b03166001600160e01b0319909416939093179092529051612dc6919061383e565b60006040518083038185875af1925050503d8060008114612e03576040519150601f19603f3d011682016040523d82523d6000602084013e612e08565b606091505b5091509150818190612e2d5760405162461bcd60e51b81526004016107b5919061385a565b505050611624565b8360005b83518110156121bf57612e92848281518110612e5757612e5761388d565b6020026020010151848381518110612e7157612e7161388d565b6020026020010151846001600160a01b0316612d189092919063ffffffff16565b80612e9c816138c0565b915050612e39565b6000612ef9826040518060400160405280602081526020017f5361666545524332303a206c6f772d6c6576656c2063616c6c206661696c6564815250856001600160a01b0316612f799092919063ffffffff16565b9050805160001480612f1a575080806020019051810190612f1a91906137f5565b611a785760405162461bcd60e51b815260206004820152602a60248201527f5361666545524332303a204552433230206f7065726174696f6e20646964206e6044820152691bdd081cdd58d8d9595960b21b60648201526084016107b5565b6060612f888484600085612f90565b949350505050565b606082471015612ff15760405162461bcd60e51b815260206004820152602660248201527f416464726573733a20696e73756666696369656e742062616c616e636520666f6044820152651c8818d85b1b60d21b60648201526084016107b5565b600080866001600160a01b0316858760405161300d919061383e565b60006040518083038185875af1925050503d806000811461304a576040519150601f19603f3d011682016040523d82523d6000602084013e61304f565b606091505b50915091506130608783838761306b565b979650505050505050565b606083156130da5782516000036130d3576001600160a01b0385163b6130d35760405162461bcd60e51b815260206004820152601d60248201527f416464726573733a2063616c6c20746f206e6f6e2d636f6e747261637400000060448201526064016107b5565b5081612f88565b612f8883838151156130ef5781518083602001fd5b8060405162461bcd60e51b81526004016107b5919061385a565b5080546000825590600052602060002090810190611af3919061324e565b50805460008255601f016020900490600052602060002090810190611af3919061324e565b8280548282559060005260206000209081019282156131a1579160200282015b828111156131a157825182546001600160a01b0319166001600160a01b0390911617825560209092019160019091019061316c565b506131ad92915061324e565b5090565b82805482825590600052602060002090601f016020900481019282156131a15791602002820160005b8382111561321857835183826101000a81548160ff021916908360ff16021790555092602001926001016020816000010492830192600103026131da565b80156132455782816101000a81549060ff0219169055600101602081600001049283019260010302613218565b50506131ad9291505b5b808211156131ad576000815560010161324f565b6001600160a01b0381168114611af357600080fd5b8015158114611af357600080fd5b600080600080600060a0868803121561329e57600080fd5b85356132a981613263565b94506020860135935060408601356132c081613263565b92506060860135915060808601356132d781613278565b809150509295509295909350565b6000806000606084860312156132fa57600080fd5b833561330581613263565b925060208401359150604084013561331c81613263565b809150509250925092565b6001600160a01b039384168152919092166020820152604081019190915260600190565b6000806040838503121561335e57600080fd5b823561336981613263565b946020939093013593505050565b60008083601f84011261338957600080fd5b50813567ffffffffffffffff8111156133a157600080fd5b6020830191508360208260051b85010111156133bc57600080fd5b9250929050565b60008060008060008060008060c0898b0312156133df57600080fd5b88356133ea81613263565b975060208901359650604089013561340181613263565b955060608901359450608089013567ffffffffffffffff8082111561342557600080fd5b6134318c838d01613377565b909650945060a08b013591508082111561344a57600080fd5b506134578b828c01613377565b999c989b5096995094979396929594505050565b6000806000806080858703121561348157600080fd5b843561348c81613263565b93506020850135925060408501356134a381613263565b9396929550929360600135925050565b600080600080600080600080600060e08a8c0312156134d157600080fd5b89356134dc81613263565b985060208a0135975060408a01356134f381613263565b965060608a0135955060808a013561350a81613263565b945060a08a013567ffffffffffffffff8082111561352757600080fd5b6135338d838e01613377565b909650945060c08c013591508082111561354c57600080fd5b506135598c828d01613377565b915080935050809150509295985092959850929598565b60006020828403121561358257600080fd5b813561358d81613263565b9392505050565b634e487b7160e01b600052601160045260246000fd5b60008160001904831182151516156135c4576135c4613594565b500290565b6000826135e657634e487b7160e01b600052601260045260246000fd5b500490565b600082198211156135fe576135fe613594565b500190565b60006020828403121561361557600080fd5b5051919050565b60006020828403121561362e57600080fd5b815161358d81613263565b60ff81168114611af357600080fd5b60006020828403121561365a57600080fd5b815161358d81613639565b6001600160a01b03888116825260208083018990526040830188905260a0606084018190528301869052600091879160c08501845b898110156136c15784356136ad81613263565b84168252938201939082019060010161369a565b5085810360808701528681528101925086915060005b868110156136ff5782356136ea81613639565b60ff16845292810192918101916001016136d7565b50919b9a5050505050505050505050565b60008282101561372257613722613594565b500390565b634e487b7160e01b600052604160045260246000fd5b600081518084526020808501945080840160005b838110156137765781516001600160a01b031687529582019590820190600101613751565b509495945050505050565b60018060a01b038616815260006020868184015285604084015260a060608401526137af60a084018661373d565b838103608085015284518082528286019183019060005b818110156137e557835160ff16835292840192918401916001016137c6565b50909a9950505050505050505050565b60006020828403121561380757600080fd5b815161358d81613278565b60005b8381101561382d578181015183820152602001613815565b838111156116245750506000910152565b60008251613850818460208701613812565b9190910192915050565b6020815260008251806020840152613879816040850160208701613812565b601f01601f19169190910160400192915050565b634e487b7160e01b600052603260045260246000fd5b6000602082840312156138b557600080fd5b813561358d81613639565b6000600182016138d2576138d2613594565b5060010190565b604051601f8201601f1916810167ffffffffffffffff8111828210171561390257613902613727565b604052919050565b600067ffffffffffffffff82111561392457613924613727565b5060051b60200190565b600082601f83011261393f57600080fd5b8151602061395461394f8361390a565b6138d9565b82815260059290921b8401810191818101908684111561397357600080fd5b8286015b8481101561398e5780518352918301918301613977565b509695505050505050565b600080604083850312156139ac57600080fd5b825167ffffffffffffffff808211156139c457600080fd5b818501915085601f8301126139d857600080fd5b815160206139e861394f8361390a565b82815260059290921b84018101918181019089841115613a0757600080fd5b948201945b83861015613a2e578551613a1f81613263565b82529482019490820190613a0c565b91880151919650909350505080821115613a4757600080fd5b50613a548582860161392e565b9150509250929050565b604081526000613a71604083018561373d565b82810360208481019190915284518083528582019282019060005b81811015613aa857845183529383019391830191600101613a8c565b509097965050505050505056fea26469706673582212209a449a49f193888a3cb22943c09ab3eeedca464ae71b82d2b6296bea74f781a864736f6c634300080f0033",
    "linkReferences": {}
  },
  "methodIdentifiers": {
    "COLDIE_AUCTION()": "c90b8714",
    "NO_AUCTION()": "155a56b1",
    "SCHEDULED_AUCTION()": "b23afc26",
    "acceptOffer(address,uint256,address,uint256,address[],uint8[])": "534665e9",
    "approvedTokenRegistry()": "6240cd1c",
    "auctionBids(address,uint256)": "299a0e1e",
    "auctionLengthExtension()": "daa26499",
    "buy(address,uint256,address,uint256)": "b3ffb760",
    "cancelOffer(address,uint256,address)": "e92f94d1",
    "marketplaceSettings()": "ba50b632",
    "maxAuctionLength()": "0e519ef9",
    "minimumBidIncreasePercentage()": "6fe9f44c",
    "networkBeneficiary()": "6b534ed0",
    "offer(address,uint256,address,uint256,bool)": "0f2b2532",
    "offerCancelationDelay()": "0a5c4ed5",
    "owner()": "8da5cb5b",
    "payments()": "a6d23e10",
    "removeSalePrice(address,uint256,address)": "f7cfaad0",
    "renounceOwnership()": "715018a6",
    "royaltyEngine()": "4c94c90c",
    "royaltyRegistry()": "a11b0712",
    "setSalePrice(address,uint256,address,uint256,address,address[],uint8[])": "c8f94f4e",
    "spaceOperatorRegistry()": "0bcba09d",
    "stakingRegistry()": "009d9aa9",
    "superRareAuctionHouse()": "3bc3d9be",
    "superRareMarketplace()": "0141c590",
    "tokenAuctions(address,uint256)": "c47c35c1",
    "tokenCurrentOffers(address,uint256,address)": "2c419053",
    "tokenSalePrices(address,uint256,address)": "1a2ac30f",
    "transferOwnership(address)": "f2fde38b"
  },
  "id": 125
}