{
  "abi": [
    {
      "anonymous": false,
      "inputs": [
        {
          "indexed": true,
          "internalType": "address",
          "name": "_originContract",
          "type": "address"
        },
        {
          "indexed": true,
          "internalType": "address",
          "name": "_bidder",
          "type": "address"
        },
        {
          "indexed": true,
          "internalType": "address",
          "name": "_seller",
          "type": "address"
        },
        {
          "indexed": false,
          "internalType": "address",
          "name": "_currencyAddress",
          "type": "address"
        },
        {
          "indexed": false,
          "internalType": "uint256",
          "name": "_amount",
          "type": "uint256"
        },
        {
          "indexed": false,
          "internalType": "uint256",
          "name": "_tokenId",
          "type": "uint256"
        },
        {
          "indexed": false,
          "internalType": "address payable[]",
          "name": "_splitAddresses",
          "type": "address[]"
        },
        {
          "indexed": false,
          "internalType": "uint8[]",
          "name": "_splitRatios",
          "type": "uint8[]"
        }
      ],
      "name": "AcceptOffer",
      "type": "event"
    },
    {
      "anonymous": false,
      "inputs": [
        {
          "indexed": true,
          "internalType": "address",
          "name": "_contractAddress",
          "type": "address"
        },
        {
          "indexed": true,
          "internalType": "address",
          "name": "_bidder",
          "type": "address"
        },
        {
          "indexed": true,
          "internalType": "uint256",
          "name": "_tokenId",
          "type": "uint256"
        },
        {
          "indexed": false,
          "internalType": "address",
          "name": "_currencyAddress",
          "type": "address"
        },
        {
          "indexed": false,
          "internalType": "uint256",
          "name": "_amount",
          "type": "uint256"
        },
        {
          "indexed": false,
          "internalType": "bool",
          "name": "_startedAuction",
          "type": "bool"
        },
        {
          "indexed": false,
          "internalType": "uint256",
          "name": "_newAuctionLength",
          "type": "uint256"
        },
        {
          "indexed": false,
          "internalType": "address",
          "name": "_previousBidder",
          "type": "address"
        }
      ],
      "name": "AuctionBid",
      "type": "event"
    },
    {
      "anonymous": false,
      "inputs": [
        {
          "indexed": true,
          "internalType": "address",
          "name": "_contractAddress",
          "type": "address"
        },
        {
          "indexed": true,
          "internalType": "address",
          "name": "_bidder",
          "type": "address"
        },
        {
          "indexed": false,
          "internalType": "address",
          "name": "_seller",
          "type": "address"
        },
        {
          "indexed": true,
          "internalType": "uint256",
          "name": "_tokenId",
          "type": "uint256"
        },
        {
          "indexed": false,
          "internalType": "address",
          "name": "_currencyAddress",
          "type": "address"
        },
        {
          "indexed": false,
          "internalType": "uint256",
          "name": "_amount",
          "type": "uint256"
        }
      ],
      "name": "AuctionSettled",
      "type": "event"
    },
    {
      "anonymous": false,
      "inputs": [
        {
          "indexed": true,
          "internalType": "address",
          "name": "_contractAddress",
          "type": "address"
        },
        {
          "indexed": true,
          "internalType": "uint256",
          "name": "_tokenId",
          "type": "uint256"
        },
        {
          "indexed": true,
          "internalType": "address",
          "name": "_auctionCreator",
          "type": "address"
        }
      ],
      "name": "CancelAuction",
      "type": "event"
    },
    {
      "anonymous": false,
      "inputs": [
        {
          "indexed": true,
          "internalType": "address",
          "name": "_originContract",
          "type": "address"
        },
        {
          "indexed": true,
          "internalType": "address",
          "name": "_bidder",
          "type": "address"
        },
        {
          "indexed": true,
          "internalType": "address",
          "name": "_currencyAddress",
          "type": "address"
        },
        {
          "indexed": false,
          "internalType": "uint256",
          "name": "_amount",
          "type": "uint256"
        },
        {
          "indexed": false,
          "internalType": "uint256",
          "name": "_tokenId",
          "type": "uint256"
        }
      ],
      "name": "CancelOffer",
      "type": "event"
    },
    {
      "anonymous": false,
      "inputs": [
        {
          "indexed": false,
          "internalType": "uint8",
          "name": "version",
          "type": "uint8"
        }
      ],
      "name": "Initialized",
      "type": "event"
    },
    {
      "anonymous": false,
      "inputs": [
        {
          "indexed": true,
          "internalType": "address",
          "name": "_contractAddress",
          "type": "address"
        },
        {
          "indexed": true,
          "internalType": "uint256",
          "name": "_tokenId",
          "type": "uint256"
        },
        {
          "indexed": true,
          "internalType": "address",
          "name": "_auctionCreator",
          "type": "address"
        },
        {
          "indexed": false,
          "internalType": "address",
          "name": "_currencyAddress",
          "type": "address"
        },
        {
          "indexed": false,
          "internalType": "uint256",
          "name": "_startingTime",
          "type": "uint256"
        },
        {
          "indexed": false,
          "internalType": "uint256",
          "name": "_minimumBid",
          "type": "uint256"
        },
        {
          "indexed": false,
          "internalType": "uint256",
          "name": "_lengthOfAuction",
          "type": "uint256"
        }
      ],
      "name": "NewAuction",
      "type": "event"
    },
    {
      "anonymous": false,
      "inputs": [
        {
          "indexed": true,
          "internalType": "address",
          "name": "_originContract",
          "type": "address"
        },
        {
          "indexed": true,
          "internalType": "address",
          "name": "_bidder",
          "type": "address"
        },
        {
          "indexed": true,
          "internalType": "address",
          "name": "_currencyAddress",
          "type": "address"
        },
        {
          "indexed": false,
          "internalType": "uint256",
          "name": "_amount",
          "type": "uint256"
        },
        {
          "indexed": false,
          "internalType": "uint256",
          "name": "_tokenId",
          "type": "uint256"
        },
        {
          "indexed": false,
          "internalType": "bool",
          "name": "_convertible",
          "type": "bool"
        }
      ],
      "name": "OfferPlaced",
      "type": "event"
    },
    {
      "anonymous": false,
      "inputs": [
        {
          "indexed": true,
          "internalType": "address",
          "name": "previousOwner",
          "type": "address"
        },
        {
          "indexed": true,
          "internalType": "address",
          "name": "newOwner",
          "type": "address"
        }
      ],
      "name": "OwnershipTransferred",
      "type": "event"
    },
    {
      "anonymous": false,
      "inputs": [
        {
          "indexed": true,
          "internalType": "address",
          "name": "_originContract",
          "type": "address"
        },
        {
          "indexed": true,
          "internalType": "address",
          "name": "_currencyAddress",
          "type": "address"
        },
        {
          "indexed": false,
          "internalType": "address",
          "name": "_target",
          "type": "address"
        },
        {
          "indexed": false,
          "internalType": "uint256",
          "name": "_amount",
          "type": "uint256"
        },
        {
          "indexed": false,
          "internalType": "uint256",
          "name": "_tokenId",
          "type": "uint256"
        },
        {
          "indexed": false,
          "internalType": "address payable[]",
          "name": "_splitRecipients",
          "type": "address[]"
        },
        {
          "indexed": false,
          "internalType": "uint8[]",
          "name": "_splitRatios",
          "type": "uint8[]"
        }
      ],
      "name": "SetSalePrice",
      "type": "event"
    },
    {
      "anonymous": false,
      "inputs": [
        {
          "indexed": true,
          "internalType": "address",
          "name": "_originContract",
          "type": "address"
        },
        {
          "indexed": true,
          "internalType": "address",
          "name": "_buyer",
          "type": "address"
        },
        {
          "indexed": true,
          "internalType": "address",
          "name": "_seller",
          "type": "address"
        },
        {
          "indexed": false,
          "internalType": "address",
          "name": "_currencyAddress",
          "type": "address"
        },
        {
          "indexed": false,
          "internalType": "uint256",
          "name": "_amount",
          "type": "uint256"
        },
        {
          "indexed": false,
          "internalType": "uint256",
          "name": "_tokenId",
          "type": "uint256"
        }
      ],
      "name": "Sold",
      "type": "event"
    },
    {
      "inputs": [],
      "name": "COLDIE_AUCTION",
      "outputs": [
        {
          "internalType": "bytes32",
          "name": "",
          "type": "bytes32"
        }
      ],
      "stateMutability": "view",
      "type": "function"
    },
    {
      "inputs": [],
      "name": "NO_AUCTION",
      "outputs": [
        {
          "internalType": "bytes32",
          "name": "",
          "type": "bytes32"
        }
      ],
      "stateMutability": "view",
      "type": "function"
    },
    {
      "inputs": [],
      "name": "SCHEDULED_AUCTION",
      "outputs": [
        {
          "internalType": "bytes32",
          "name": "",
          "type": "bytes32"
        }
      ],
      "stateMutability": "view",
      "type": "function"
    },
    {
      "inputs": [
        {
          "internalType": "address",
          "name": "_originContract",
          "type": "address"
        },
        {
          "internalType": "uint256",
          "name": "_tokenId",
          "type": "uint256"
        },
        {
          "internalType": "address",
          "name": "_currencyAddress",
          "type": "address"
        },
        {
          "internalType": "uint256",
          "name": "_amount",
          "type": "uint256"
        },
        {
          "internalType": "address payable[]",
          "name": "_splitAddresses",
          "type": "address[]"
        },
        {
          "internalType": "uint8[]",
          "name": "_splitRatios",
          "type": "uint8[]"
        }
      ],
      "name": "acceptOffer",
      "outputs": [],
      "stateMutability": "nonpayable",
      "type": "function"
    },
    {
      "inputs": [],
      "name": "approvedTokenRegistry",
      "outputs": [
        {
          "internalType": "contract IApprovedTokenRegistry",
          "name": "",
          "type": "address"
        }
      ],
      "stateMutability": "view",
      "type": "function"
    },
    {
      "inputs": [
        {
          "internalType": "address",
          "name": "",
          "type": "address"
        },
        {
          "internalType": "uint256",
          "name": "",
          "type": "uint256"
        }
      ],
      "name": "auctionBids",
      "outputs": [
        {
          "internalType": "address payable",
          "name": "bidder",
          "type": "address"
        },
        {
          "internalType": "address",
          "name": "currencyAddress",
          "type": "address"
        },
        {
          "internalType": "uint256",
          "name": "amount",
          "type": "uint256"
        },
        {
          "internalType": "uint8",
          "name": "marketplaceFee",
          "type": "uint8"
        }
      ],
      "stateMutability": "view",
      "type": "function"
    },
    {
      "inputs": [],
      "name": "auctionLengthExtension",
      "outputs": [
        {
          "internalType": "uint256",
          "name": "",
          "type": "uint256"
        }
      ],
      "stateMutability": "view",
      "type": "function"
    },
    {
      "inputs": [
        {
          "internalType": "address",
          "name": "_originContract",
          "type": "address"
        },
        {
          "internalType": "uint256",
          "name": "_tokenId",
          "type": "uint256"
        },
        {
          "internalType": "address",
          "name": "_currencyAddress",
          "type": "address"
        },
        {
          "internalType": "uint256",
          "name": "_amount",
          "type": "uint256"
        }
      ],
      "name": "bid",
      "outputs": [],
      "stateMutability": "payable",
      "type": "function"
    },
    {
      "inputs": [
        {
          "internalType": "address",
          "name": "_originContract",
          "type": "address"
        },
        {
          "internalType": "uint256",
          "name": "_tokenId",
          "type": "uint256"
        },
        {
          "internalType": "address",
          "name": "_currencyAddress",
          "type": "address"
        },
        {
          "internalType": "uint256",
          "name": "_amount",
          "type": "uint256"
        }
      ],
      "name": "buy",
      "outputs": [],
      "stateMutability": "payable",
      "type": "function"
    },
    {
      "inputs": [
        {
          "internalType": "address",
          "name": "_originContract",
          "type": "address"
        },
        {
          "internalType": "uint256",
          "name": "_tokenId",
          "type": "uint256"
        }
      ],
      "name": "cancelAuction",
      "outputs": [],
      "stateMutability": "nonpayable",
      "type": "function"
    },
    {
      "inputs": [
        {
          "internalType": "address",
          "name": "_originContract",
          "type": "address"
        },
        {
          "internalType": "uint256",
          "name": "_tokenId",
          "type": "uint256"
        },
        {
          "internalType": "address",
          "name": "_currencyAddress",
          "type": "address"
        }
      ],
      "name": "cancelOffer",
      "outputs": [],
      "stateMutability": "nonpayable",
      "type": "function"
    },
    {
      "inputs": [
        {
          "internalType": "bytes32",
          "name": "_auctionType",
          "type": "bytes32"
        },
        {
          "internalType": "address",
          "name": "_originContract",
          "type": "address"
        },
        {
          "internalType": "uint256",
          "name": "_tokenId",
          "type": "uint256"
        },
        {
          "internalType": "uint256",
          "name": "_startingAmount",
          "type": "uint256"
        },
        {
          "internalType": "address",
          "name": "_currencyAddress",
          "type": "address"
        },
        {
          "internalType": "uint256",
          "name": "_lengthOfAuction",
          "type": "uint256"
        },
        {
          "internalType": "uint256",
          "name": "_startTime",
          "type": "uint256"
        },
        {
          "internalType": "address payable[]",
          "name": "_splitAddresses",
          "type": "address[]"
        },
        {
          "internalType": "uint8[]",
          "name": "_splitRatios",
          "type": "uint8[]"
        }
      ],
      "name": "configureAuction",
      "outputs": [],
      "stateMutability": "nonpayable",
      "type": "function"
    },
    {
      "inputs": [
        {
          "internalType": "address",
          "name": "_originContract",
          "type": "address"
        },
        {
          "internalType": "uint256",
          "name": "_tokenId",
          "type": "uint256"
        },
        {
          "internalType": "address",
          "name": "_currencyAddress",
          "type": "address"
        },
        {
          "internalType": "uint256",
          "name": "_amount",
          "type": "uint256"
        },
        {
          "internalType": "uint256",
          "name": "_lengthOfAuction",
          "type": "uint256"
        },
        {
          "internalType": "address payable[]",
          "name": "_splitAddresses",
          "type": "address[]"
        },
        {
          "internalType": "uint8[]",
          "name": "_splitRatios",
          "type": "uint8[]"
        }
      ],
      "name": "convertOfferToAuction",
      "outputs": [],
      "stateMutability": "nonpayable",
      "type": "function"
    },
    {
      "inputs": [
        {
          "internalType": "address",
          "name": "_originContract",
          "type": "address"
        },
        {
          "internalType": "uint256",
          "name": "_tokenId",
          "type": "uint256"
        }
      ],
      "name": "getAuctionDetails",
      "outputs": [
        {
          "internalType": "address",
          "name": "",
          "type": "address"
        },
        {
          "internalType": "uint256",
          "name": "",
          "type": "uint256"
        },
        {
          "internalType": "uint256",
          "name": "",
          "type": "uint256"
        },
        {
          "internalType": "uint256",
          "name": "",
          "type": "uint256"
        },
        {
          "internalType": "address",
          "name": "",
          "type": "address"
        },
        {
          "internalType": "uint256",
          "name": "",
          "type": "uint256"
        },
        {
          "internalType": "bytes32",
          "name": "",
          "type": "bytes32"
        },
        {
          "internalType": "address payable[]",
          "name": "",
          "type": "address[]"
        },
        {
          "internalType": "uint8[]",
          "name": "",
          "type": "uint8[]"
        }
      ],
      "stateMutability": "view",
      "type": "function"
    },
    {
      "inputs": [
        {
          "internalType": "address",
          "name": "_originContract",
          "type": "address"
        },
        {
          "internalType": "uint256",
          "name": "_tokenId",
          "type": "uint256"
        },
        {
          "internalType": "address",
          "name": "_target",
          "type": "address"
        }
      ],
      "name": "getSalePrice",
      "outputs": [
        {
          "internalType": "address",
          "name": "",
          "type": "address"
        },
        {
          "internalType": "address",
          "name": "",
          "type": "address"
        },
        {
          "internalType": "uint256",
          "name": "",
          "type": "uint256"
        },
        {
          "internalType": "address payable[]",
          "name": "",
          "type": "address[]"
        },
        {
          "internalType": "uint8[]",
          "name": "",
          "type": "uint8[]"
        }
      ],
      "stateMutability": "view",
      "type": "function"
    },
    {
      "inputs": [
        {
          "internalType": "address",
          "name": "_marketplaceSettings",
          "type": "address"
        },
        {
          "internalType": "address",
          "name": "_royaltyRegistry",
          "type": "address"
        },
        {
          "internalType": "address",
          "name": "_royaltyEngine",
          "type": "address"
        },
        {
          "internalType": "address",
          "name": "_superRareMarketplace",
          "type": "address"
        },
        {
          "internalType": "address",
          "name": "_superRareAuctionHouse",
          "type": "address"
        },
        {
          "internalType": "address",
          "name": "_spaceOperatorRegistry",
          "type": "address"
        },
        {
          "internalType": "address",
          "name": "_approvedTokenRegistry",
          "type": "address"
        },
        {
          "internalType": "address",
          "name": "_payments",
          "type": "address"
        },
        {
          "internalType": "address",
          "name": "_stakingRegistry",
          "type": "address"
        },
        {
          "internalType": "address",
          "name": "_networkBeneficiary",
          "type": "address"
        }
      ],
      "name": "initialize",
      "outputs": [],
      "stateMutability": "nonpayable",
      "type": "function"
    },
    {
      "inputs": [],
      "name": "marketplaceSettings",
      "outputs": [
        {
          "internalType": "contract IMarketplaceSettings",
          "name": "",
          "type": "address"
        }
      ],
      "stateMutability": "view",
      "type": "function"
    },
    {
      "inputs": [],
      "name": "maxAuctionLength",
      "outputs": [
        {
          "internalType": "uint256",
          "name": "",
          "type": "uint256"
        }
      ],
      "stateMutability": "view",
      "type": "function"
    },
    {
      "inputs": [],
      "name": "minimumBidIncreasePercentage",
      "outputs": [
        {
          "internalType": "uint8",
          "name": "",
          "type": "uint8"
        }
      ],
      "stateMutability": "view",
      "type": "function"
    },
    {
      "inputs": [],
      "name": "networkBeneficiary",
      "outputs": [
        {
          "internalType": "address",
          "name": "",
          "type": "address"
        }
      ],
      "stateMutability": "view",
      "type": "function"
    },
    {
      "inputs": [
        {
          "internalType": "address",
          "name": "_originContract",
          "type": "address"
        },
        {
          "internalType": "uint256",
          "name": "_tokenId",
          "type": "uint256"
        },
        {
          "internalType": "address",
          "name": "_currencyAddress",
          "type": "address"
        },
        {
          "internalType": "uint256",
          "name": "_amount",
          "type": "uint256"
        },
        {
          "internalType": "bool",
          "name": "_convertible",
          "type": "bool"
        }
      ],
      "name": "offer",
      "outputs": [],
      "stateMutability": "payable",
      "type": "function"
    },
    {
      "inputs": [],
      "name": "offerCancelationDelay",
      "outputs": [
        {
          "internalType": "uint256",
          "name": "",
          "type": "uint256"
        }
      ],
      "stateMutability": "view",
      "type": "function"
    },
    {
      "inputs": [],
      "name": "owner",
      "outputs": [
        {
          "internalType": "address",
          "name": "",
          "type": "address"
        }
      ],
      "stateMutability": "view",
      "type": "function"
    },
    {
      "inputs": [],
      "name": "payments",
      "outputs": [
        {
          "internalType": "contract IPayments",
          "name": "",
          "type": "address"
        }
      ],
      "stateMutability": "view",
      "type": "function"
    },
    {
      "inputs": [
        {
          "internalType": "address",
          "name": "_originContract",
          "type": "address"
        },
        {
          "internalType": "uint256",
          "name": "_tokenId",
          "type": "uint256"
        },
        {
          "internalType": "address",
          "name": "_target",
          "type": "address"
        }
      ],
      "name": "removeSalePrice",
      "outputs": [],
      "stateMutability": "nonpayable",
      "type": "function"
    },
    {
      "inputs": [],
      "name": "renounceOwnership",
      "outputs": [],
      "stateMutability": "nonpayable",
      "type": "function"
    },
    {
      "inputs": [],
      "name": "royaltyEngine",
      "outputs": [
        {
          "internalType": "contract IRoyaltyEngineV1",
          "name": "",
          "type": "address"
        }
      ],
      "stateMutability": "view",
      "type": "function"
    },
    {
      "inputs": [],
      "name": "royaltyRegistry",
      "outputs": [
        {
          "internalType": "contract IRoyaltyRegistry",
          "name": "",
          "type": "address"
        }
      ],
      "stateMutability": "view",
      "type": "function"
    },
    {
      "inputs": [
        {
          "internalType": "address",
          "name": "_approvedTokenRegistry",
          "type": "address"
        }
      ],
      "name": "setApprovedTokenRegistry",
      "outputs": [],
      "stateMutability": "nonpayable",
      "type": "function"
    },
    {
      "inputs": [
        {
          "internalType": "uint256",
          "name": "_auctionLengthExtension",
          "type": "uint256"
        }
      ],
      "name": "setAuctionLengthExtension",
      "outputs": [],
      "stateMutability": "nonpayable",
      "type": "function"
    },
    {
      "inputs": [
        {
          "internalType": "address",
          "name": "_marketplaceSettings",
          "type": "address"
        }
      ],
      "name": "setMarketplaceSettings",
      "outputs": [],
      "stateMutability": "nonpayable",
      "type": "function"
    },
    {
      "inputs": [
        {
          "internalType": "uint8",
          "name": "_maxAuctionLength",
          "type": "uint8"
        }
      ],
      "name": "setMaxAuctionLength",
      "outputs": [],
      "stateMutability": "nonpayable",
      "type": "function"
    },
    {
      "inputs": [
        {
          "internalType": "uint8",
          "name": "_minimumBidIncreasePercentage",
          "type": "uint8"
        }
      ],
      "name": "setMinimumBidIncreasePercentage",
      "outputs": [],
      "stateMutability": "nonpayable",
      "type": "function"
    },
    {
      "inputs": [
        {
          "internalType": "address",
          "name": "_networkBeneficiary",
          "type": "address"
        }
      ],
      "name": "setNetworkBeneficiary",
      "outputs": [],
      "stateMutability": "nonpayable",
      "type": "function"
    },
    {
      "inputs": [
        {
          "internalType": "uint256",
          "name": "_offerCancelationDelay",
          "type": "uint256"
        }
      ],
      "name": "setOfferCancelationDelay",
      "outputs": [],
      "stateMutability": "nonpayable",
      "type": "function"
    },
    {
      "inputs": [
        {
          "internalType": "address",
          "name": "_payments",
          "type": "address"
        }
      ],
      "name": "setPayments",
      "outputs": [],
      "stateMutability": "nonpayable",
      "type": "function"
    },
    {
      "inputs": [
        {
          "internalType": "address",
          "name": "_royaltyEngine",
          "type": "address"
        }
      ],
      "name": "setRoyaltyEngine",
      "outputs": [],
      "stateMutability": "nonpayable",
      "type": "function"
    },
    {
      "inputs": [
        {
          "internalType": "address",
          "name": "_royaltyRegistry",
          "type": "address"
        }
      ],
      "name": "setRoyaltyRegistry",
      "outputs": [],
      "stateMutability": "nonpayable",
      "type": "function"
    },
    {
      "inputs": [
        {
          "internalType": "address",
          "name": "_originContract",
          "type": "address"
        },
        {
          "internalType": "uint256",
          "name": "_tokenId",
          "type": "uint256"
        },
        {
          "internalType": "address",
          "name": "_currencyAddress",
          "type": "address"
        },
        {
          "internalType": "uint256",
          "name": "_listPrice",
          "type": "uint256"
        },
        {
          "internalType": "address",
          "name": "_target",
          "type": "address"
        },
        {
          "internalType": "address payable[]",
          "name": "_splitAddresses",
          "type": "address[]"
        },
        {
          "internalType": "uint8[]",
          "name": "_splitRatios",
          "type": "uint8[]"
        }
      ],
      "name": "setSalePrice",
      "outputs": [],
      "stateMutability": "nonpayable",
      "type": "function"
    },
    {
      "inputs": [
        {
          "internalType": "address",
          "name": "_spaceOperatorRegistry",
          "type": "address"
        }
      ],
      "name": "setSpaceOperatorRegistry",
      "outputs": [],
      "stateMutability": "nonpayable",
      "type": "function"
    },
    {
      "inputs": [
        {
          "internalType": "address",
          "name": "_stakingRegistry",
          "type": "address"
        }
      ],
      "name": "setStakingRegistry",
      "outputs": [],
      "stateMutability": "nonpayable",
      "type": "function"
    },
    {
      "inputs": [
        {
          "internalType": "address",
          "name": "_superRareAuctionHouse",
          "type": "address"
        }
      ],
      "name": "setSuperRareAuctionHouse",
      "outputs": [],
      "stateMutability": "nonpayable",
      "type": "function"
    },
    {
      "inputs": [
        {
          "internalType": "address",
          "name": "_superRareMarketplace",
          "type": "address"
        }
      ],
      "name": "setSuperRareMarketplace",
      "outputs": [],
      "stateMutability": "nonpayable",
      "type": "function"
    },
    {
      "inputs": [
        {
          "internalType": "address",
          "name": "_originContract",
          "type": "address"
        },
        {
          "internalType": "uint256",
          "name": "_tokenId",
          "type": "uint256"
        }
      ],
      "name": "settleAuction",
      "outputs": [],
      "stateMutability": "nonpayable",
      "type": "function"
    },
    {
      "inputs": [],
      "name": "spaceOperatorRegistry",
      "outputs": [
        {
          "internalType": "contract ISpaceOperatorRegistry",
          "name": "",
          "type": "address"
        }
      ],
      "stateMutability": "view",
      "type": "function"
    },
    {
      "inputs": [],
      "name": "stakingRegistry",
      "outputs": [
        {
          "internalType": "address",
          "name": "",
          "type": "address"
        }
      ],
      "stateMutability": "view",
      "type": "function"
    },
    {
      "inputs": [],
      "name": "superRareAuctionHouse",
      "outputs": [
        {
          "internalType": "address",
          "name": "",
          "type": "address"
        }
      ],
      "stateMutability": "view",
      "type": "function"
    },
    {
      "inputs": [],
      "name": "superRareMarketplace",
      "outputs": [
        {
          "internalType": "address",
          "name": "",
          "type": "address"
        }
      ],
      "stateMutability": "view",
      "type": "function"
    },
    {
      "inputs": [
        {
          "internalType": "address",
          "name": "",
          "type": "address"
        },
        {
          "internalType": "uint256",
          "name": "",
          "type": "uint256"
        }
      ],
      "name": "tokenAuctions",
      "outputs": [
        {
          "internalType": "address payable",
          "name": "auctionCreator",
          "type": "address"
        },
        {
          "internalType": "uint256",
          "name": "creationBlock",
          "type": "uint256"
        },
        {
          "internalType": "uint256",
          "name": "startingTime",
          "type": "uint256"
        },
        {
          "internalType": "uint256",
          "name": "lengthOfAuction",
          "type": "uint256"
        },
        {
          "internalType": "address",
          "name": "currencyAddress",
          "type": "address"
        },
        {
          "internalType": "uint256",
          "name": "minimumBid",
          "type": "uint256"
        },
        {
          "internalType": "bytes32",
          "name": "auctionType",
          "type": "bytes32"
        }
      ],
      "stateMutability": "view",
      "type": "function"
    },
    {
      "inputs": [
        {
          "internalType": "address",
          "name": "",
          "type": "address"
        },
        {
          "internalType": "uint256",
          "name": "",
          "type": "uint256"
        },
        {
          "internalType": "address",
          "name": "",
          "type": "address"
        }
      ],
      "name": "tokenCurrentOffers",
      "outputs": [
        {
          "internalType": "address payable",
          "name": "buyer",
          "type": "address"
        },
        {
          "internalType": "uint256",
          "name": "amount",
          "type": "uint256"
        },
        {
          "internalType": "uint256",
          "name": "timestamp",
          "type": "uint256"
        },
        {
          "internalType": "uint8",
          "name": "marketplaceFee",
          "type": "uint8"
        },
        {
          "internalType": "bool",
          "name": "convertible",
          "type": "bool"
        }
      ],
      "stateMutability": "view",
      "type": "function"
    },
    {
      "inputs": [
        {
          "internalType": "address",
          "name": "",
          "type": "address"
        },
        {
          "internalType": "uint256",
          "name": "",
          "type": "uint256"
        },
        {
          "internalType": "address",
          "name": "",
          "type": "address"
        }
      ],
      "name": "tokenSalePrices",
      "outputs": [
        {
          "internalType": "address payable",
          "name": "seller",
          "type": "address"
        },
        {
          "internalType": "address",
          "name": "currencyAddress",
          "type": "address"
        },
        {
          "internalType": "uint256",
          "name": "amount",
          "type": "uint256"
        }
      ],
      "stateMutability": "view",
      "type": "function"
    },
    {
      "inputs": [
        {
          "internalType": "address",
          "name": "newOwner",
          "type": "address"
        }
      ],
      "name": "transferOwnership",
      "outputs": [],
      "stateMutability": "nonpayable",
      "type": "function"
    }
  ],
  "bytecode": {
    "object": "0x608060405234801561001057600080fd5b5061287c806100206000396000f3fe6080604052600436106102fe5760003560e01c80636fe9f44c11610190578063b3ffb760116100dc578063c90b871411610095578063e4e87e3b1161006f578063e4e87e3b14610afa578063e92f94d114610b1a578063f2fde38b14610b3a578063f7cfaad014610b5a57600080fd5b8063c90b871414610a9f578063daa2649914610ac4578063dce96bf514610ada57600080fd5b8063b3ffb76014610963578063b567858814610976578063ba50b63214610989578063c306b378146109a9578063c47c35c1146109c9578063c8f94f4e14610a7f57600080fd5b80638da5cb5b11610149578063a11b071211610123578063a11b0712146108db578063a6d23e10146108fb578063af231a581461091b578063b23afc261461093b57600080fd5b80638da5cb5b1461087d5780639041a0ec1461089b5780639c883af2146108bb57600080fd5b80636fe9f44c146107b5578063715018a6146107e85780637a544792146107fd5780637f3582301461081d57806384a608e21461083d578063859b97fe1461085d57600080fd5b8063299a0e1e1161024f5780633bc3d9be116102085780635138b08c116101e25780635138b08c14610735578063534665e9146107555780636240cd1c146107755780636b534ed01461079557600080fd5b80633bc3d9be146106d557806348626b90146106f55780634c94c90c1461071557600080fd5b8063299a0e1e146105195780632a2a326c146105a45780632c419053146105c45780632c740844146106645780633492e5a814610684578063369679a4146106a457600080fd5b80630e519ef9116102bc578063155a56b111610296578063155a56b114610444578063176ab440146104595780631a2ac30f1461047957806321ede032146104f957600080fd5b80630e519ef9146103fb5780630f2b25321461041157806310f797891461042457600080fd5b80629d9aa9146103035780630141c59014610340578063060d9eeb146103605780630a5c4ed5146103825780630bcba09d146103a65780630cd87c68146103c6575b600080fd5b34801561030f57600080fd5b50609f54610323906001600160a01b031681565b6040516001600160a01b0390911681526020015b60405180910390f35b34801561034c57600080fd5b50609a54610323906001600160a01b031681565b34801561036c57600080fd5b5061038061037b366004611f32565b610b7a565b005b34801561038e57600080fd5b5061039860a35481565b604051908152602001610337565b3480156103b257600080fd5b50609c54610323906001600160a01b031681565b3480156103d257600080fd5b506103e66103e1366004611fe6565b610c72565b60405161033799989796959493929190612089565b34801561040757600080fd5b5061039860a15481565b61038061041f3660046120f8565b610e20565b34801561043057600080fd5b5061038061043f36600461215c565b610f05565b34801561045057600080fd5b50610398600081565b34801561046557600080fd5b50610380610474366004612175565b610f12565b34801561048557600080fd5b506104d3610494366004612199565b60a46020908152600093845260408085208252928452828420905282529020805460018201546002909201546001600160a01b03918216929091169083565b604080516001600160a01b03948516815293909216602084015290820152606001610337565b34801561050557600080fd5b50610380610514366004612175565b610f4f565b34801561052557600080fd5b50610576610534366004611fe6565b60a760209081526000928352604080842090915290825290208054600182015460028301546003909301546001600160a01b0392831693919092169160ff1684565b604080516001600160a01b0395861681529490931660208501529183015260ff166060820152608001610337565b3480156105b057600080fd5b506103806105bf366004612175565b610f8c565b3480156105d057600080fd5b5061062d6105df366004612199565b60a560209081526000938452604080852082529284528284209052825290208054600182015460028301546003909301546001600160a01b0390921692909160ff8082169161010090041685565b604080516001600160a01b03909616865260208601949094529284019190915260ff1660608301521515608082015260a001610337565b34801561067057600080fd5b5061038061067f366004612175565b610fc9565b34801561069057600080fd5b5061038061069f366004612175565b611006565b3480156106b057600080fd5b506106c46106bf366004612199565b611043565b6040516103379594939291906121db565b3480156106e157600080fd5b50609b54610323906001600160a01b031681565b34801561070157600080fd5b50610380610710366004612242565b6111a1565b34801561072157600080fd5b50609954610323906001600160a01b031681565b34801561074157600080fd5b50610380610750366004611fe6565b6111c9565b34801561076157600080fd5b5061038061077036600461225d565b6112a5565b34801561078157600080fd5b50609d54610323906001600160a01b031681565b3480156107a157600080fd5b5060a054610323906001600160a01b031681565b3480156107c157600080fd5b5060a0546107d690600160a01b900460ff1681565b60405160ff9091168152602001610337565b3480156107f457600080fd5b50610380611391565b34801561080957600080fd5b5061038061081836600461215c565b6113a5565b34801561082957600080fd5b50610380610838366004612175565b6113b2565b34801561084957600080fd5b50610380610858366004612175565b6113ef565b34801561086957600080fd5b50610380610878366004611fe6565b61142c565b34801561088957600080fd5b506033546001600160a01b0316610323565b3480156108a757600080fd5b506103806108b6366004612305565b611462565b3480156108c757600080fd5b506103806108d6366004612175565b611564565b3480156108e757600080fd5b50609854610323906001600160a01b031681565b34801561090757600080fd5b50609e54610323906001600160a01b031681565b34801561092757600080fd5b50610380610936366004612175565b6115a1565b34801561094757600080fd5b506103987029a1a422a22aa622a22fa0aaa1aa24a7a760791b81565b6103806109713660046123da565b6115de565b6103806109843660046123da565b6116cb565b34801561099557600080fd5b50609754610323906001600160a01b031681565b3480156109b557600080fd5b506103806109c4366004612422565b611710565b3480156109d557600080fd5b50610a386109e4366004611fe6565b60a660209081526000928352604080842090915290825290208054600182015460028301546003840154600485015460058601546006909601546001600160a01b0395861696949593949293909116919087565b604080516001600160a01b03988916815260208101979097528601949094526060850192909252909316608083015260a082019290925260c081019190915260e001610337565b348015610a8b57600080fd5b50610380610a9a3660046124f2565b611992565b348015610aab57600080fd5b506103986d21a7a62224a2afa0aaa1aa24a7a760911b81565b348015610ad057600080fd5b5061039860a25481565b348015610ae657600080fd5b50610380610af5366004612242565b6119d0565b348015610b0657600080fd5b50610380610b15366004612175565b6119e0565b348015610b2657600080fd5b50610380610b35366004612199565b611a1d565b348015610b4657600080fd5b50610380610b55366004612175565b611af1565b348015610b6657600080fd5b50610380610b75366004612199565b611b6a565b609b5460405160009182916001600160a01b039091169063060d9eeb60e01b90610bb8908e908e908e908e908e908e908e908e908e906024016125da565b60408051601f198184030181529181526020820180516001600160e01b03166001600160e01b0319909416939093179092529051610bf6919061264f565b600060405180830381855af49150503d8060008114610c31576040519150601f19603f3d011682016040523d82523d6000602084013e610c36565b606091505b5091509150818190610c645760405162461bcd60e51b8152600401610c5b919061266b565b60405180910390fd5b505050505050505050505050565b6001600160a01b03808316600090815260a6602090815260408083208584528252808320815161012081018352815486168152600182015481850152600282015481840152600382015460608281019190915260048301549096166080820152600582015460a0820152600682015460c0820152600782018054845181870281018701909552808552959687968796879687968796879686958895929460e086019390929190830182828015610d5157602002820191906000526020600020905b81546001600160a01b03168152600190910190602001808311610d33575b5050505050815260200160088201805480602002602001604051908101604052809291908181526020018280548015610dc757602002820191906000526020600020906000905b825461010083900a900460ff16815260206001928301818104948501949093039092029101808411610d985790505b5050505050815250509050806000015181602001518260400151836060015184608001518560a001518660c001518760e00151886101000151995099509950995099509950995099509950509295985092959850929598565b609a54604080516001600160a01b0388811660248301526044820188905286811660648301526084820186905284151560a4808401919091528351808403909101815260c490920183526020820180516001600160e01b0316630795929960e11b179052915160009384931691610e969161264f565b600060405180830381855af49150503d8060008114610ed1576040519150601f19603f3d011682016040523d82523d6000602084013e610ed6565b606091505b5091509150818190610efb5760405162461bcd60e51b8152600401610c5b919061266b565b5050505050505050565b610f0d611d11565b60a255565b610f1a611d11565b6001600160a01b038116610f2d57600080fd5b609780546001600160a01b0319166001600160a01b0392909216919091179055565b610f57611d11565b6001600160a01b038116610f6a57600080fd5b609980546001600160a01b0319166001600160a01b0392909216919091179055565b610f94611d11565b6001600160a01b038116610fa757600080fd5b609b80546001600160a01b0319166001600160a01b0392909216919091179055565b610fd1611d11565b6001600160a01b038116610fe457600080fd5b609f80546001600160a01b0319166001600160a01b0392909216919091179055565b61100e611d11565b6001600160a01b03811661102157600080fd5b60a080546001600160a01b0319166001600160a01b0392909216919091179055565b6001600160a01b03808416600090815260a460209081526040808320868452825280832085851684528252808320815160a081018352815486168152600182015490951685840152600281015485830152600381018054835181860281018601909452808452949586958695606095869588959093858801938301828280156110f557602002820191906000526020600020905b81546001600160a01b031681526001909101906020018083116110d7575b505050505081526020016004820180548060200260200160405190810160405280929190818152602001828054801561116b57602002820191906000526020600020906000905b825461010083900a900460ff1681526020600192830181810494850194909303909202910180841161113c5790505b5050509190925250508151602083015160408401516060850151608090950151929e919d509b5092995097509095505050505050565b6111a9611d11565b60a0805460ff909216600160a01b0260ff60a01b19909216919091179055565b609b546040516001600160a01b03848116602483015260448201849052600092839291169063144e2c2360e21b906064015b60408051601f198184030181529181526020820180516001600160e01b03166001600160e01b0319909416939093179092529051611239919061264f565b600060405180830381855af49150503d8060008114611274576040519150601f19603f3d011682016040523d82523d6000602084013e611279565b606091505b509150915081819061129e5760405162461bcd60e51b8152600401610c5b919061266b565b5050505050565b609a5460405160009182916001600160a01b039091169063534665e960e01b906112e1908d908d908d908d908d908d908d908d9060240161269e565b60408051601f198184030181529181526020820180516001600160e01b03166001600160e01b031990941693909317909252905161131f919061264f565b600060405180830381855af49150503d806000811461135a576040519150601f19603f3d011682016040523d82523d6000602084013e61135f565b606091505b50915091508181906113845760405162461bcd60e51b8152600401610c5b919061266b565b5050505050505050505050565b611399611d11565b6113a36000611d6b565b565b6113ad611d11565b60a355565b6113ba611d11565b6001600160a01b0381166113cd57600080fd5b609c80546001600160a01b0319166001600160a01b0392909216919091179055565b6113f7611d11565b6001600160a01b03811661140a57600080fd5b609880546001600160a01b0319166001600160a01b0392909216919091179055565b609b546040516001600160a01b0384811660248301526044820184905260009283929116906342cdcbff60e11b906064016111fb565b600080609b60009054906101000a90046001600160a01b03166001600160a01b0316639041a0ec60e01b8e8e8e8e8e8e8e8e8e8e8e6040516024016114b19b9a999897969594939291906126fb565b60408051601f198184030181529181526020820180516001600160e01b03166001600160e01b03199094169390931790925290516114ef919061264f565b600060405180830381855af49150503d806000811461152a576040519150601f19603f3d011682016040523d82523d6000602084013e61152f565b606091505b50915091508181906115545760405162461bcd60e51b8152600401610c5b919061266b565b5050505050505050505050505050565b61156c611d11565b6001600160a01b03811661157f57600080fd5b609a80546001600160a01b0319166001600160a01b0392909216919091179055565b6115a9611d11565b6001600160a01b0381166115bc57600080fd5b609e80546001600160a01b0319166001600160a01b0392909216919091179055565b609a546040516001600160a01b03868116602483015260448201869052848116606483015260848201849052600092839291169063059ffdbb60e51b9060a4015b60408051601f198184030181529181526020820180516001600160e01b03166001600160e01b031990941693909317909252905161165d919061264f565b600060405180830381855af49150503d8060008114611698576040519150601f19603f3d011682016040523d82523d6000602084013e61169d565b606091505b50915091508181906116c25760405162461bcd60e51b8152600401610c5b919061266b565b50505050505050565b609b546040516001600160a01b0386811660248301526044820186905284811660648301526084820184905260009283929116906316acf0b160e31b9060a40161161f565b600054610100900460ff16158080156117305750600054600160ff909116105b8061174a5750303b15801561174a575060005460ff166001145b6117ad5760405162461bcd60e51b815260206004820152602e60248201527f496e697469616c697a61626c653a20636f6e747261637420697320616c72656160448201526d191e481a5b9a5d1a585b1a5e995960921b6064820152608401610c5b565b6000805460ff1916600117905580156117d0576000805461ff0019166101001790555b6001600160a01b038b166117e357600080fd5b6001600160a01b038a166117f657600080fd5b6001600160a01b03891661180957600080fd5b6001600160a01b03881661181c57600080fd5b6001600160a01b03871661182f57600080fd5b6001600160a01b03861661184257600080fd5b6001600160a01b03851661185557600080fd5b6001600160a01b03841661186857600080fd5b6001600160a01b03821661187b57600080fd5b609780546001600160a01b03199081166001600160a01b038e8116919091179092556098805482168d84161790556099805482168c8416179055609a805482168b8416179055609b805482168a8416179055609c80548216898416179055609d80548216888416179055609e80548216878416179055609f805490911685831617905560a080549184166001600160a81b031990921691909117600560a11b17905562093a8060a15561038460a25561012c60a355611938611dbd565b611940611dec565b8015611384576000805461ff0019169055604051600181527f7f26b83ff96e1f2b6a682f133852f6798a09c465da95921460cefb38474024989060200160405180910390a15050505050505050505050565b609a5460405160009182916001600160a01b039091169063647ca7a760e11b90610bb8908e908e908e908e908e908e908e908e908e9060240161276e565b6119d8611d11565b60ff1660a155565b6119e8611d11565b6001600160a01b0381166119fb57600080fd5b609d80546001600160a01b0319166001600160a01b0392909216919091179055565b609a54604080516001600160a01b0386811660248301526044820186905284811660648084019190915283518084039091018152608490920183526020820180516001600160e01b031663e92f94d160e01b179052915160009384931691611a849161264f565b600060405180830381855af49150503d8060008114611abf576040519150601f19603f3d011682016040523d82523d6000602084013e611ac4565b606091505b5091509150818190611ae95760405162461bcd60e51b8152600401610c5b919061266b565b505050505050565b611af9611d11565b6001600160a01b038116611b5e5760405162461bcd60e51b815260206004820152602660248201527f4f776e61626c653a206e6577206f776e657220697320746865207a65726f206160448201526564647265737360d01b6064820152608401610c5b565b611b6781611d6b565b50565b6040516331a9108f60e11b81526004810183905283906000906001600160a01b03831690636352211e90602401602060405180830381865afa158015611bb4573d6000803e3d6000fd5b505050506040513d601f19601f82011682018060405250810190611bd891906127b1565b9050336001600160a01b03821614611c3e5760405162461bcd60e51b8152602060048201526024808201527f72656d6f766553616c6550726963653a3a4d75737420626520746f6b656e4f776044820152633732b91760e11b6064820152608401610c5b565b6001600160a01b03808616600090815260a4602090815260408083208884528252808320938716835292905290812080546001600160a01b0319908116825560018201805490911690556002810182905590611c9d6003830182611e79565b611cab600483016000611e97565b5050604080516000808252602082018181528284019384905290926001600160a01b038916927fb6039ff1edf80efca6bc48b89f5415ba07fecb2d321058dae9ce6369b2ff964b92611d0292869283928c926127ce565b60405180910390a35050505050565b6033546001600160a01b031633146113a35760405162461bcd60e51b815260206004820181905260248201527f4f776e61626c653a2063616c6c6572206973206e6f7420746865206f776e65726044820152606401610c5b565b603380546001600160a01b038381166001600160a01b0319831681179093556040519116919082907f8be0079c531659141344cd1fd0a4f28419497f9722a3daafe3b4186f6b6457e090600090a35050565b600054610100900460ff16611de45760405162461bcd60e51b8152600401610c5b906127fb565b6113a3611e1b565b600054610100900460ff16611e135760405162461bcd60e51b8152600401610c5b906127fb565b6113a3611e4b565b600054610100900460ff16611e425760405162461bcd60e51b8152600401610c5b906127fb565b6113a333611d6b565b600054610100900460ff16611e725760405162461bcd60e51b8152600401610c5b906127fb565b6001606555565b5080546000825590600052602060002090810190611b679190611eb8565b50805460008255601f016020900490600052602060002090810190611b6791905b5b80821115611ecd5760008155600101611eb9565b5090565b6001600160a01b0381168114611b6757600080fd5b60008083601f840112611ef857600080fd5b50813567ffffffffffffffff811115611f1057600080fd5b6020830191508360208260051b8501011115611f2b57600080fd5b9250929050565b600080600080600080600080600060e08a8c031215611f5057600080fd5b8935611f5b81611ed1565b985060208a0135975060408a0135611f7281611ed1565b965060608a0135955060808a0135945060a08a013567ffffffffffffffff80821115611f9d57600080fd5b611fa98d838e01611ee6565b909650945060c08c0135915080821115611fc257600080fd5b50611fcf8c828d01611ee6565b915080935050809150509295985092959850929598565b60008060408385031215611ff957600080fd5b823561200481611ed1565b946020939093013593505050565b600081518084526020808501945080840160005b8381101561204b5781516001600160a01b031687529582019590820190600101612026565b509495945050505050565b600081518084526020808501945080840160005b8381101561204b57815160ff168752958201959082019060010161206a565b600061012060018060a01b03808d1684528b60208501528a60408501528960608501528089166080850152508660a08401528560c08401528060e08401526120d381840186612012565b90508281036101008401526120e88185612056565b9c9b505050505050505050505050565b600080600080600060a0868803121561211057600080fd5b853561211b81611ed1565b945060208601359350604086013561213281611ed1565b9250606086013591506080860135801515811461214e57600080fd5b809150509295509295909350565b60006020828403121561216e57600080fd5b5035919050565b60006020828403121561218757600080fd5b813561219281611ed1565b9392505050565b6000806000606084860312156121ae57600080fd5b83356121b981611ed1565b92506020840135915060408401356121d081611ed1565b809150509250925092565b6001600160a01b038681168252851660208201526040810184905260a06060820181905260009061220e90830185612012565b82810360808401526122208185612056565b98975050505050505050565b803560ff8116811461223d57600080fd5b919050565b60006020828403121561225457600080fd5b6121928261222c565b60008060008060008060008060c0898b03121561227957600080fd5b883561228481611ed1565b975060208901359650604089013561229b81611ed1565b955060608901359450608089013567ffffffffffffffff808211156122bf57600080fd5b6122cb8c838d01611ee6565b909650945060a08b01359150808211156122e457600080fd5b506122f18b828c01611ee6565b999c989b5096995094979396929594505050565b60008060008060008060008060008060006101208c8e03121561232757600080fd5b8b359a5061233860208d0135611ed1565b60208c0135995060408c0135985060608c0135975061235a60808d0135611ed1565b60808c0135965060a08c0135955060c08c0135945067ffffffffffffffff8060e08e0135111561238957600080fd5b6123998e60e08f01358f01611ee6565b90955093506101008d01358110156123b057600080fd5b506123c28d6101008e01358e01611ee6565b81935080925050509295989b509295989b9093969950565b600080600080608085870312156123f057600080fd5b84356123fb81611ed1565b935060208501359250604085013561241281611ed1565b9396929550929360600135925050565b6000806000806000806000806000806101408b8d03121561244257600080fd5b8a3561244d81611ed1565b995060208b013561245d81611ed1565b985060408b013561246d81611ed1565b975060608b013561247d81611ed1565b965060808b013561248d81611ed1565b955060a08b013561249d81611ed1565b945060c08b01356124ad81611ed1565b935060e08b01356124bd81611ed1565b92506101008b01356124ce81611ed1565b91506101208b01356124df81611ed1565b809150509295989b9194979a5092959850565b600080600080600080600080600060e08a8c03121561251057600080fd5b893561251b81611ed1565b985060208a0135975060408a013561253281611ed1565b965060608a0135955060808a013561254981611ed1565b945060a08a013567ffffffffffffffff80821115611f9d57600080fd5b8183526000602080850194508260005b8581101561204b57813561258981611ed1565b6001600160a01b031687529582019590820190600101612576565b8183526000602080850194508260005b8581101561204b5760ff6125c78361222c565b16875295820195908201906001016125b4565b600060018060a01b03808c1683528a6020840152808a1660408401525087606083015286608083015260e060a083015261261860e083018688612566565b82810360c08401526120e88185876125a4565b60005b8381101561264657818101518382015260200161262e565b50506000910152565b6000825161266181846020870161262b565b9190910192915050565b602081526000825180602084015261268a81604085016020870161262b565b601f01601f19169190910160400192915050565b6001600160a01b03898116825260208201899052871660408201526060810186905260c0608082018190526000906126d99083018688612566565b82810360a08401526126ec8185876125a4565b9b9a5050505050505050505050565b60006101208d835260018060a01b03808e1660208501528c60408501528b6060850152808b166080850152508860a08401528760c08401528060e08401526127468184018789612566565b905082810361010084015261275c8185876125a4565b9e9d5050505050505050505050505050565b6001600160a01b038a81168252602082018a90528881166040830152606082018890528616608082015260e060a082018190526000906126189083018688612566565b6000602082840312156127c357600080fd5b815161219281611ed1565b60018060a01b038616815284602082015283604082015260a06060820152600061220e60a0830185612012565b6020808252602b908201527f496e697469616c697a61626c653a20636f6e7472616374206973206e6f74206960408201526a6e697469616c697a696e6760a81b60608201526080019056fea264697066735822122091557aafd2f27e600b3ea247cd4acc9e3083daef00973dcd30b90bd673d6894164736f6c63430008120033",
    "linkReferences": {}
  },
  "methodIdentifiers": {
    "COLDIE_AUCTION()": "c90b8714",
    "NO_AUCTION()": "155a56b1",
    "SCHEDULED_AUCTION()": "b23afc26",
    "acceptOffer(address,uint256,address,uint256,address[],uint8[])": "534665e9",
    "approvedTokenRegistry()": "6240cd1c",
    "auctionBids(address,uint256)": "299a0e1e",
    "auctionLengthExtension()": "daa26499",
    "bid(address,uint256,address,uint256)": "b5678588",
    "buy(address,uint256,address,uint256)": "b3ffb760",
    "cancelAuction(address,uint256)": "859b97fe",
    "cancelOffer(address,uint256,address)": "e92f94d1",
    "configureAuction(bytes32,address,uint256,uint256,address,uint256,uint256,address[],uint8[])": "9041a0ec",
    "convertOfferToAuction(address,uint256,address,uint256,uint256,address[],uint8[])": "060d9eeb",
    "getAuctionDetails(address,uint256)": "0cd87c68",
    "getSalePrice(address,uint256,address)": "369679a4",
    "initialize(address,address,address,address,address,address,address,address,address,address)": "c306b378",
    "marketplaceSettings()": "ba50b632",
    "maxAuctionLength()": "0e519ef9",
    "minimumBidIncreasePercentage()": "6fe9f44c",
    "networkBeneficiary()": "6b534ed0",
    "offer(address,uint256,address,uint256,bool)": "0f2b2532",
    "offerCancelationDelay()": "0a5c4ed5",
    "owner()": "8da5cb5b",
    "payments()": "a6d23e10",
    "removeSalePrice(address,uint256,address)": "f7cfaad0",
    "renounceOwnership()": "715018a6",
    "royaltyEngine()": "4c94c90c",
    "royaltyRegistry()": "a11b0712",
    "setApprovedTokenRegistry(address)": "e4e87e3b",
    "setAuctionLengthExtension(uint256)": "10f79789",
    "setMarketplaceSettings(address)": "176ab440",
    "setMaxAuctionLength(uint8)": "dce96bf5",
    "setMinimumBidIncreasePercentage(uint8)": "48626b90",
    "setNetworkBeneficiary(address)": "3492e5a8",
    "setOfferCancelationDelay(uint256)": "7a544792",
    "setPayments(address)": "af231a58",
    "setRoyaltyEngine(address)": "21ede032",
    "setRoyaltyRegistry(address)": "84a608e2",
    "setSalePrice(address,uint256,address,uint256,address,address[],uint8[])": "c8f94f4e",
    "setSpaceOperatorRegistry(address)": "7f358230",
    "setStakingRegistry(address)": "2c740844",
    "setSuperRareAuctionHouse(address)": "2a2a326c",
    "setSuperRareMarketplace(address)": "9c883af2",
    "settleAuction(address,uint256)": "5138b08c",
    "spaceOperatorRegistry()": "0bcba09d",
    "stakingRegistry()": "009d9aa9",
    "superRareAuctionHouse()": "3bc3d9be",
    "superRareMarketplace()": "0141c590",
    "tokenAuctions(address,uint256)": "c47c35c1",
    "tokenCurrentOffers(address,uint256,address)": "2c419053",
    "tokenSalePrices(address,uint256,address)": "1a2ac30f",
    "transferOwnership(address)": "f2fde38b"
  },
  "id": 129
}