{"abi":[{"type":"function","name":"COLDIE_AUCTION","inputs":[],"outputs":[{"name":"","type":"bytes32","internalType":"bytes32"}],"stateMutability":"view"},{"type":"function","name":"NO_AUCTION","inputs":[],"outputs":[{"name":"","type":"bytes32","internalType":"bytes32"}],"stateMutability":"view"},{"type":"function","name":"SCHEDULED_AUCTION","inputs":[],"outputs":[{"name":"","type":"bytes32","internalType":"bytes32"}],"stateMutability":"view"},{"type":"function","name":"acceptOffer","inputs":[{"name":"_originContract","type":"address","internalType":"address"},{"name":"_tokenId","type":"uint256","internalType":"uint256"},{"name":"_currencyAddress","type":"address","internalType":"address"},{"name":"_amount","type":"uint256","internalType":"uint256"},{"name":"_splitAddresses","type":"address[]","internalType":"address payable[]"},{"name":"_splitRatios","type":"uint8[]","internalType":"uint8[]"}],"outputs":[],"stateMutability":"nonpayable"},{"type":"function","name":"approvedTokenRegistry","inputs":[],"outputs":[{"name":"","type":"address","internalType":"contract IApprovedTokenRegistry"}],"stateMutability":"view"},{"type":"function","name":"auctionBids","inputs":[{"name":"","type":"address","internalType":"address"},{"name":"","type":"uint256","internalType":"uint256"}],"outputs":[{"name":"bidder","type":"address","internalType":"address payable"},{"name":"currencyAddress","type":"address","internalType":"address"},{"name":"amount","type":"uint256","internalType":"uint256"},{"name":"marketplaceFee","type":"uint8","internalType":"uint8"}],"stateMutability":"view"},{"type":"function","name":"auctionLengthExtension","inputs":[],"outputs":[{"name":"","type":"uint256","internalType":"uint256"}],"stateMutability":"view"},{"type":"function","name":"bid","inputs":[{"name":"_originContract","type":"address","internalType":"address"},{"name":"_tokenId","type":"uint256","internalType":"uint256"},{"name":"_currencyAddress","type":"address","internalType":"address"},{"name":"_amount","type":"uint256","internalType":"uint256"}],"outputs":[],"stateMutability":"payable"},{"type":"function","name":"buy","inputs":[{"name":"_originContract","type":"address","internalType":"address"},{"name":"_tokenId","type":"uint256","internalType":"uint256"},{"name":"_currencyAddress","type":"address","internalType":"address"},{"name":"_amount","type":"uint256","internalType":"uint256"}],"outputs":[],"stateMutability":"payable"},{"type":"function","name":"cancelAuction","inputs":[{"name":"_originContract","type":"address","internalType":"address"},{"name":"_tokenId","type":"uint256","internalType":"uint256"}],"outputs":[],"stateMutability":"nonpayable"},{"type":"function","name":"cancelOffer","inputs":[{"name":"_originContract","type":"address","internalType":"address"},{"name":"_tokenId","type":"uint256","internalType":"uint256"},{"name":"_currencyAddress","type":"address","internalType":"address"}],"outputs":[],"stateMutability":"nonpayable"},{"type":"function","name":"configureAuction","inputs":[{"name":"_auctionType","type":"bytes32","internalType":"bytes32"},{"name":"_originContract","type":"address","internalType":"address"},{"name":"_tokenId","type":"uint256","internalType":"uint256"},{"name":"_startingAmount","type":"uint256","internalType":"uint256"},{"name":"_currencyAddress","type":"address","internalType":"address"},{"name":"_lengthOfAuction","type":"uint256","internalType":"uint256"},{"name":"_startTime","type":"uint256","internalType":"uint256"},{"name":"_splitAddresses","type":"address[]","internalType":"address payable[]"},{"name":"_splitRatios","type":"uint8[]","internalType":"uint8[]"}],"outputs":[],"stateMutability":"nonpayable"},{"type":"function","name":"convertOfferToAuction","inputs":[{"name":"_originContract","type":"address","internalType":"address"},{"name":"_tokenId","type":"uint256","internalType":"uint256"},{"name":"_currencyAddress","type":"address","internalType":"address"},{"name":"_amount","type":"uint256","internalType":"uint256"},{"name":"_lengthOfAuction","type":"uint256","internalType":"uint256"},{"name":"_splitAddresses","type":"address[]","internalType":"address payable[]"},{"name":"_splitRatios","type":"uint8[]","internalType":"uint8[]"}],"outputs":[],"stateMutability":"nonpayable"},{"type":"function","name":"getAuctionDetails","inputs":[{"name":"_originContract","type":"address","internalType":"address"},{"name":"_tokenId","type":"uint256","internalType":"uint256"}],"outputs":[{"name":"","type":"address","internalType":"address"},{"name":"","type":"uint256","internalType":"uint256"},{"name":"","type":"uint256","internalType":"uint256"},{"name":"","type":"uint256","internalType":"uint256"},{"name":"","type":"address","internalType":"address"},{"name":"","type":"uint256","internalType":"uint256"},{"name":"","type":"bytes32","internalType":"bytes32"},{"name":"","type":"address[]","internalType":"address payable[]"},{"name":"","type":"uint8[]","internalType":"uint8[]"}],"stateMutability":"view"},{"type":"function","name":"getSalePrice","inputs":[{"name":"_originContract","type":"address","internalType":"address"},{"name":"_tokenId","type":"uint256","internalType":"uint256"},{"name":"_target","type":"address","internalType":"address"}],"outputs":[{"name":"","type":"address","internalType":"address"},{"name":"","type":"address","internalType":"address"},{"name":"","type":"uint256","internalType":"uint256"},{"name":"","type":"address[]","internalType":"address payable[]"},{"name":"","type":"uint8[]","internalType":"uint8[]"}],"stateMutability":"view"},{"type":"function","name":"initialize","inputs":[{"name":"_marketplaceSettings","type":"address","internalType":"address"},{"name":"_royaltyRegistry","type":"address","internalType":"address"},{"name":"_royaltyEngine","type":"address","internalType":"address"},{"name":"_superRareMarketplace","type":"address","internalType":"address"},{"name":"_superRareAuctionHouse","type":"address","internalType":"address"},{"name":"_spaceOperatorRegistry","type":"address","internalType":"address"},{"name":"_approvedTokenRegistry","type":"address","internalType":"address"},{"name":"_payments","type":"address","internalType":"address"},{"name":"_stakingRegistry","type":"address","internalType":"address"},{"name":"_networkBeneficiary","type":"address","internalType":"address"}],"outputs":[],"stateMutability":"nonpayable"},{"type":"function","name":"marketplaceSettings","inputs":[],"outputs":[{"name":"","type":"address","internalType":"contract IMarketplaceSettings"}],"stateMutability":"view"},{"type":"function","name":"maxAuctionLength","inputs":[],"outputs":[{"name":"","type":"uint256","internalType":"uint256"}],"stateMutability":"view"},{"type":"function","name":"minimumBidIncreasePercentage","inputs":[],"outputs":[{"name":"","type":"uint8","internalType":"uint8"}],"stateMutability":"view"},{"type":"function","name":"networkBeneficiary","inputs":[],"outputs":[{"name":"","type":"address","internalType":"address"}],"stateMutability":"view"},{"type":"function","name":"offer","inputs":[{"name":"_originContract","type":"address","internalType":"address"},{"name":"_tokenId","type":"uint256","internalType":"uint256"},{"name":"_currencyAddress","type":"address","internalType":"address"},{"name":"_amount","type":"uint256","internalType":"uint256"},{"name":"_convertible","type":"bool","internalType":"bool"}],"outputs":[],"stateMutability":"payable"},{"type":"function","name":"offerCancelationDelay","inputs":[],"outputs":[{"name":"","type":"uint256","internalType":"uint256"}],"stateMutability":"view"},{"type":"function","name":"owner","inputs":[],"outputs":[{"name":"","type":"address","internalType":"address"}],"stateMutability":"view"},{"type":"function","name":"payments","inputs":[],"outputs":[{"name":"","type":"address","internalType":"contract IPayments"}],"stateMutability":"view"},{"type":"function","name":"removeSalePrice","inputs":[{"name":"_originContract","type":"address","internalType":"address"},{"name":"_tokenId","type":"uint256","internalType":"uint256"},{"name":"_target","type":"address","internalType":"address"}],"outputs":[],"stateMutability":"nonpayable"},{"type":"function","name":"renounceOwnership","inputs":[],"outputs":[],"stateMutability":"nonpayable"},{"type":"function","name":"royaltyEngine","inputs":[],"outputs":[{"name":"","type":"address","internalType":"contract IRoyaltyEngineV1"}],"stateMutability":"view"},{"type":"function","name":"royaltyRegistry","inputs":[],"outputs":[{"name":"","type":"address","internalType":"contract IRareRoyaltyRegistry"}],"stateMutability":"view"},{"type":"function","name":"setApprovedTokenRegistry","inputs":[{"name":"_approvedTokenRegistry","type":"address","internalType":"address"}],"outputs":[],"stateMutability":"nonpayable"},{"type":"function","name":"setAuctionLengthExtension","inputs":[{"name":"_auctionLengthExtension","type":"uint256","internalType":"uint256"}],"outputs":[],"stateMutability":"nonpayable"},{"type":"function","name":"setMarketplaceSettings","inputs":[{"name":"_marketplaceSettings","type":"address","internalType":"address"}],"outputs":[],"stateMutability":"nonpayable"},{"type":"function","name":"setMaxAuctionLength","inputs":[{"name":"_maxAuctionLength","type":"uint8","internalType":"uint8"}],"outputs":[],"stateMutability":"nonpayable"},{"type":"function","name":"setMinimumBidIncreasePercentage","inputs":[{"name":"_minimumBidIncreasePercentage","type":"uint8","internalType":"uint8"}],"outputs":[],"stateMutability":"nonpayable"},{"type":"function","name":"setNetworkBeneficiary","inputs":[{"name":"_networkBeneficiary","type":"address","internalType":"address"}],"outputs":[],"stateMutability":"nonpayable"},{"type":"function","name":"setOfferCancelationDelay","inputs":[{"name":"_offerCancelationDelay","type":"uint256","internalType":"uint256"}],"outputs":[],"stateMutability":"nonpayable"},{"type":"function","name":"setPayments","inputs":[{"name":"_payments","type":"address","internalType":"address"}],"outputs":[],"stateMutability":"nonpayable"},{"type":"function","name":"setRoyaltyEngine","inputs":[{"name":"_royaltyEngine","type":"address","internalType":"address"}],"outputs":[],"stateMutability":"nonpayable"},{"type":"function","name":"setRoyaltyRegistry","inputs":[{"name":"_royaltyRegistry","type":"address","internalType":"address"}],"outputs":[],"stateMutability":"nonpayable"},{"type":"function","name":"setSalePrice","inputs":[{"name":"_originContract","type":"address","internalType":"address"},{"name":"_tokenId","type":"uint256","internalType":"uint256"},{"name":"_currencyAddress","type":"address","internalType":"address"},{"name":"_listPrice","type":"uint256","internalType":"uint256"},{"name":"_target","type":"address","internalType":"address"},{"name":"_splitAddresses","type":"address[]","internalType":"address payable[]"},{"name":"_splitRatios","type":"uint8[]","internalType":"uint8[]"}],"outputs":[],"stateMutability":"nonpayable"},{"type":"function","name":"setSpaceOperatorRegistry","inputs":[{"name":"_spaceOperatorRegistry","type":"address","internalType":"address"}],"outputs":[],"stateMutability":"nonpayable"},{"type":"function","name":"setStakingRegistry","inputs":[{"name":"_stakingRegistry","type":"address","internalType":"address"}],"outputs":[],"stateMutability":"nonpayable"},{"type":"function","name":"setSuperRareAuctionHouse","inputs":[{"name":"_superRareAuctionHouse","type":"address","internalType":"address"}],"outputs":[],"stateMutability":"nonpayable"},{"type":"function","name":"setSuperRareMarketplace","inputs":[{"name":"_superRareMarketplace","type":"address","internalType":"address"}],"outputs":[],"stateMutability":"nonpayable"},{"type":"function","name":"settleAuction","inputs":[{"name":"_originContract","type":"address","internalType":"address"},{"name":"_tokenId","type":"uint256","internalType":"uint256"}],"outputs":[],"stateMutability":"nonpayable"},{"type":"function","name":"spaceOperatorRegistry","inputs":[],"outputs":[{"name":"","type":"address","internalType":"contract ISpaceOperatorRegistry"}],"stateMutability":"view"},{"type":"function","name":"stakingRegistry","inputs":[],"outputs":[{"name":"","type":"address","internalType":"address"}],"stateMutability":"view"},{"type":"function","name":"superRareAuctionHouse","inputs":[],"outputs":[{"name":"","type":"address","internalType":"address"}],"stateMutability":"view"},{"type":"function","name":"superRareMarketplace","inputs":[],"outputs":[{"name":"","type":"address","internalType":"address"}],"stateMutability":"view"},{"type":"function","name":"tokenAuctions","inputs":[{"name":"","type":"address","internalType":"address"},{"name":"","type":"uint256","internalType":"uint256"}],"outputs":[{"name":"auctionCreator","type":"address","internalType":"address payable"},{"name":"creationBlock","type":"uint256","internalType":"uint256"},{"name":"startingTime","type":"uint256","internalType":"uint256"},{"name":"lengthOfAuction","type":"uint256","internalType":"uint256"},{"name":"currencyAddress","type":"address","internalType":"address"},{"name":"minimumBid","type":"uint256","internalType":"uint256"},{"name":"auctionType","type":"bytes32","internalType":"bytes32"}],"stateMutability":"view"},{"type":"function","name":"tokenCurrentOffers","inputs":[{"name":"","type":"address","internalType":"address"},{"name":"","type":"uint256","internalType":"uint256"},{"name":"","type":"address","internalType":"address"}],"outputs":[{"name":"buyer","type":"address","internalType":"address payable"},{"name":"amount","type":"uint256","internalType":"uint256"},{"name":"timestamp","type":"uint256","internalType":"uint256"},{"name":"marketplaceFee","type":"uint8","internalType":"uint8"},{"name":"convertible","type":"bool","internalType":"bool"}],"stateMutability":"view"},{"type":"function","name":"tokenSalePrices","inputs":[{"name":"","type":"address","internalType":"address"},{"name":"","type":"uint256","internalType":"uint256"},{"name":"","type":"address","internalType":"address"}],"outputs":[{"name":"seller","type":"address","internalType":"address payable"},{"name":"currencyAddress","type":"address","internalType":"address"},{"name":"amount","type":"uint256","internalType":"uint256"}],"stateMutability":"view"},{"type":"function","name":"transferOwnership","inputs":[{"name":"newOwner","type":"address","internalType":"address"}],"outputs":[],"stateMutability":"nonpayable"},{"type":"event","name":"AcceptOffer","inputs":[{"name":"_originContract","type":"address","indexed":true,"internalType":"address"},{"name":"_bidder","type":"address","indexed":true,"internalType":"address"},{"name":"_seller","type":"address","indexed":true,"internalType":"address"},{"name":"_currencyAddress","type":"address","indexed":false,"internalType":"address"},{"name":"_amount","type":"uint256","indexed":false,"internalType":"uint256"},{"name":"_tokenId","type":"uint256","indexed":false,"internalType":"uint256"},{"name":"_splitAddresses","type":"address[]","indexed":false,"internalType":"address payable[]"},{"name":"_splitRatios","type":"uint8[]","indexed":false,"internalType":"uint8[]"}],"anonymous":false},{"type":"event","name":"AuctionBid","inputs":[{"name":"_contractAddress","type":"address","indexed":true,"internalType":"address"},{"name":"_bidder","type":"address","indexed":true,"internalType":"address"},{"name":"_tokenId","type":"uint256","indexed":true,"internalType":"uint256"},{"name":"_currencyAddress","type":"address","indexed":false,"internalType":"address"},{"name":"_amount","type":"uint256","indexed":false,"internalType":"uint256"},{"name":"_startedAuction","type":"bool","indexed":false,"internalType":"bool"},{"name":"_newAuctionLength","type":"uint256","indexed":false,"internalType":"uint256"},{"name":"_previousBidder","type":"address","indexed":false,"internalType":"address"}],"anonymous":false},{"type":"event","name":"AuctionSettled","inputs":[{"name":"_contractAddress","type":"address","indexed":true,"internalType":"address"},{"name":"_bidder","type":"address","indexed":true,"internalType":"address"},{"name":"_seller","type":"address","indexed":false,"internalType":"address"},{"name":"_tokenId","type":"uint256","indexed":true,"internalType":"uint256"},{"name":"_currencyAddress","type":"address","indexed":false,"internalType":"address"},{"name":"_amount","type":"uint256","indexed":false,"internalType":"uint256"}],"anonymous":false},{"type":"event","name":"CancelAuction","inputs":[{"name":"_contractAddress","type":"address","indexed":true,"internalType":"address"},{"name":"_tokenId","type":"uint256","indexed":true,"internalType":"uint256"},{"name":"_auctionCreator","type":"address","indexed":true,"internalType":"address"}],"anonymous":false},{"type":"event","name":"CancelOffer","inputs":[{"name":"_originContract","type":"address","indexed":true,"internalType":"address"},{"name":"_bidder","type":"address","indexed":true,"internalType":"address"},{"name":"_currencyAddress","type":"address","indexed":true,"internalType":"address"},{"name":"_amount","type":"uint256","indexed":false,"internalType":"uint256"},{"name":"_tokenId","type":"uint256","indexed":false,"internalType":"uint256"}],"anonymous":false},{"type":"event","name":"Initialized","inputs":[{"name":"version","type":"uint8","indexed":false,"internalType":"uint8"}],"anonymous":false},{"type":"event","name":"NewAuction","inputs":[{"name":"_contractAddress","type":"address","indexed":true,"internalType":"address"},{"name":"_tokenId","type":"uint256","indexed":true,"internalType":"uint256"},{"name":"_auctionCreator","type":"address","indexed":true,"internalType":"address"},{"name":"_currencyAddress","type":"address","indexed":false,"internalType":"address"},{"name":"_startingTime","type":"uint256","indexed":false,"internalType":"uint256"},{"name":"_minimumBid","type":"uint256","indexed":false,"internalType":"uint256"},{"name":"_lengthOfAuction","type":"uint256","indexed":false,"internalType":"uint256"}],"anonymous":false},{"type":"event","name":"OfferPlaced","inputs":[{"name":"_originContract","type":"address","indexed":true,"internalType":"address"},{"name":"_bidder","type":"address","indexed":true,"internalType":"address"},{"name":"_currencyAddress","type":"address","indexed":true,"internalType":"address"},{"name":"_amount","type":"uint256","indexed":false,"internalType":"uint256"},{"name":"_tokenId","type":"uint256","indexed":false,"internalType":"uint256"},{"name":"_convertible","type":"bool","indexed":false,"internalType":"bool"}],"anonymous":false},{"type":"event","name":"OwnershipTransferred","inputs":[{"name":"previousOwner","type":"address","indexed":true,"internalType":"address"},{"name":"newOwner","type":"address","indexed":true,"internalType":"address"}],"anonymous":false},{"type":"event","name":"SetSalePrice","inputs":[{"name":"_originContract","type":"address","indexed":true,"internalType":"address"},{"name":"_currencyAddress","type":"address","indexed":true,"internalType":"address"},{"name":"_target","type":"address","indexed":false,"internalType":"address"},{"name":"_amount","type":"uint256","indexed":false,"internalType":"uint256"},{"name":"_tokenId","type":"uint256","indexed":false,"internalType":"uint256"},{"name":"_splitRecipients","type":"address[]","indexed":false,"internalType":"address payable[]"},{"name":"_splitRatios","type":"uint8[]","indexed":false,"internalType":"uint8[]"}],"anonymous":false},{"type":"event","name":"Sold","inputs":[{"name":"_originContract","type":"address","indexed":true,"internalType":"address"},{"name":"_buyer","type":"address","indexed":true,"internalType":"address"},{"name":"_seller","type":"address","indexed":true,"internalType":"address"},{"name":"_currencyAddress","type":"address","indexed":false,"internalType":"address"},{"name":"_amount","type":"uint256","indexed":false,"internalType":"uint256"},{"name":"_tokenId","type":"uint256","indexed":false,"internalType":"uint256"}],"anonymous":false}],"bytecode":{"object":"0x60808060405234610016576122fa908161001c8239f35b600080fdfe6080604081815260048036101561001557600080fd5b60009260e08435811c9182629d9aa9146118a4575081630141c5901461187a57848263060d9eeb1461179f575081630a5c4ed51461177f5781630bcba09d146117555781630cd87c68146116105781630e519ef9146115f05781630f2b25321461154d57816310f797891461152b578163155a56b11461150f578163176ab440146114c85781631a2ac30f1461146757816321ede03214611420578163299a0e1e146113b35781632a2a326c1461136c5781632c419053146112f35781632c740844146112ac5781633492e5a814611265578163369679a4146111785781633bc3d9be1461114e57816348626b901461110f5781634c94c90c146110e55781635138b08c1461108457848263534665e914610fa7575081636240cd1c14610f7d5781636b534ed014610f535781636fe9f44c14610f2d578163715018a614610ed05781637a54479214610eae5781637f35823014610e6757816384a608e214610e20578163859b97fe14610dbf5781638da5cb5b14610d95578482639041a0ec14610ca6575081639c883af214610c5f578163a11b071214610c35578163a6d23e1014610c0b578163af231a5814610bc4578163b23afc2614610b9457848263b3ffb76014610b35578263b567858814610abc57508163ba50b63214610a92578163c306b378146107d8578163c47c35c1146107525784908263c8f94f4e146106445750508063c90b871414610618578063daa26499146105f9578063dce96bf5146105ce578063e4e87e3b14610584578063e92f94d1146104ef578063f2fde38b1461045e5763f7cfaad01461026b57600080fd5b3461045a57610279366119cb565b84516331a9108f60e11b81528085018390526001600160a01b0393841695602095909490929186816024818b5afa908115610450579082918a91610412575b501633036103c3579361037788979693948895610385947fb6039ff1edf80efca6bc48b89f5415ba07fecb2d321058dae9ce6369b2ff964b988a895260a48852858920848a528852858920911688528652838720878155876001820155876002820155600381018054898255806103aa575b50500180548782558061038b575b505082519061034682611b48565b86825283519361035585611b48565b878552805197889781895288015286015260a0606086015260a0850190611957565b908382036080850152611994565b0390a380f35b6103a3918852601f878920910160051c810190611cd0565b3880610338565b6103bc918a52888a2090810190611cd0565b388061032a565b845162461bcd60e51b81528084018790526024808201527f72656d6f766553616c6550726963653a3a4d75737420626520746f6b656e4f776044820152633732b91760e11b6064820152608490fd5b809250888092503d8311610449575b61042b8183611b7a565b8101031261044557518181168103610445578190386102b8565b8880fd5b503d610421565b86513d8b823e3d90fd5b8280fd5b503461045a57602036600319011261045a576104786118c9565b91610481611a47565b6001600160a01b0383161561049d578361049a84611a9f565b80f35b906020608492519162461bcd60e51b8352820152602660248201527f4f776e61626c653a206e6577206f776e657220697320746865207a65726f206160448201526564647265737360d01b6064820152fd5b5082903461058057610500366119cb565b92909460018060a01b0380609a5416948251978260208a019663e92f94d160e01b88521660248a015260448901521660648701526064865260a086019186831067ffffffffffffffff84111761056d575052835161049a9284928392915af4610567611b9c565b90611bdc565b634e487b7160e01b865260419052602485fd5b5080fd5b83346105cb5760203660031901126105cb5761059e6118c9565b6105a6611a47565b6001600160a01b03168015610580576001600160601b0360a01b609d541617609d5580f35b80fd5b83346105cb5760203660031901126105cb5760ff6105ea6119ff565b6105f2611a47565b1660a15580f35b50503461058057816003193601126105805760209060a2549051908152f35b505034610580578160031936011261058057516d21a7a62224a2afa0aaa1aa24a7a760911b8152602090f35b909391503461074d578060031936011261074d576106606118c9565b906106696118e4565b610671611910565b9160a4359567ffffffffffffffff96878111610445576106949036908301611926565b9160c4359889116107495789986106ad91369101611926565b929093600160a01b60019003809781609a54169a519889988160208b019c8d63647ca7a760e11b90521660248b015260243560448b015216606489015260643560848901521660a487015260c486015261010485019061070c92611c43565b906023198483030160e485015261072292611c8c565b03601f19810182526107349082611b7a565b51915af4610740611b9c565b61049a91611bdc565b8980fd5b505050fd5b828585346105805780600319360112610580576001600160a01b03918190836107796118c9565b16815260a660205281812060243582526020522090828254169360018301549360028401549060038501549285015416926006600586015495015495815197885260208801528601526060850152608084015260a083015260c0820152f35b50503461045a5761014036600319011261045a576107f46118c9565b6107fc6118fa565b6108046118e4565b6001600160a01b03919060643583811690819003610a8e57610824611910565b9160a435908582168092036107495760c43592868416809403610a8a5760e43594878616809603610a865761010435978089168099036109ed576101243599818b16809b036109f1578d5460ff8160081c16159c8d809e610a79575b8015610a62575b15610a075750908e83928e600160ff1983161783556109f5575b5050169788156109f15781169384156109f15781169182156109f15783156109f157169283156109ed5784156109ed5785156109ed5786156109ed5789156109ed576001600160601b0360a01b9788609754161760975587609854161760985586609954161760995585609a541617609a5584609b541617609b5583609c541617609c5582609d541617609d5581609e541617609e55609f541617609f55600560a11b906affffffffffffffffffffff60a81b60a05416171760a05562093a8060a15561038460a25561012c60a35561098960ff845460081c1661098481611ae8565b611ae8565b61099233611a9f565b8254906109a860ff8360081c1661098481611ae8565b60016065556109b5578280f35b61ff001916825551600181527f7f26b83ff96e1f2b6a682f133852f6798a09c465da95921460cefb384740249890602090a138808280f35b8c80fd5b8d80fd5b61ffff19166101011790558e386108a1565b6084915060208f519162461bcd60e51b8352820152602e60248201527f496e697469616c697a61626c653a20636f6e747261637420697320616c72656160448201526d191e481a5b9a5d1a585b1a5e995960921b6064820152fd5b50303b1580156108875750600160ff831614610887565b50600160ff831610610880565b8b80fd5b8a80fd5b8780fd5b5050503461058057816003193601126105805760975490516001600160a01b039091168152602090f35b61049a818087610b29610b1b610ad136611a0f565b609b5496516316acf0b160e31b602082019081526001600160a01b0395861660248301526044820194909452918416606483015260848201529190941693929091829060a4820190565b03601f198101835282611b7a565b51915af4610567611b9c565b61049a818087610b29610b1b610b4a36611a0f565b609a54965163059ffdbb60e51b602082019081526001600160a01b0395861660248301526044820194909452918416606483015260848201529190941693929091829060a4820190565b50505034610580578160031936011261058057517029a1a422a22aa622a22fa0aaa1aa24a7a760791b8152602090f35b84346105cb5760203660031901126105cb57610bde6118c9565b610be6611a47565b6001600160a01b03168015610580576001600160601b0360a01b609e541617609e5580f35b50505034610580578160031936011261058057609e5490516001600160a01b039091168152602090f35b5050503461058057816003193601126105805760985490516001600160a01b039091168152602090f35b84346105cb5760203660031901126105cb57610c796118c9565b610c81611a47565b6001600160a01b03168015610580576001600160601b0360a01b609a541617609a5580f35b80848634610d9157610120918260031936011261074d57610cc56118fa565b610ccd611910565b9060e4359467ffffffffffffffff95868111610a8e57610cf09036908601611926565b9190610104928335988911610749578998610d0e9036908901611926565b939094600160a01b60019003809881609b54169b51998a9960208b019c8d632410683b60e21b90523560248c01521660448a015260443560648a015260643560848a01521660a488015260a43560c488015260c43560e4880152860152610144850190610d7a92611c43565b906023198483030161012485015261072292611c8c565b5050fd5b5050503461058057816003193601126105805760335490516001600160a01b039091168152602090f35b505050346105805781816003193601126105cb578061049a92610de06118c9565b609b5491516342cdcbff60e11b602082019081526001600160a01b039283166024808401919091523560448301529190921691610b298160648101610b1b565b84346105cb5760203660031901126105cb57610e3a6118c9565b610e42611a47565b6001600160a01b03168015610580576001600160601b0360a01b609854161760985580f35b84346105cb5760203660031901126105cb57610e816118c9565b610e89611a47565b6001600160a01b03168015610580576001600160601b0360a01b609c541617609c5580f35b84833461058057602036600319011261058057610ec9611a47565b3560a35580f35b84346105cb57806003193601126105cb57610ee9611a47565b603380546001600160a01b0319811690915581906001600160a01b03167f8be0079c531659141344cd1fd0a4f28419497f9722a3daafe3b4186f6b6457e08280a380f35b5050503461058057816003193601126105805760209060ff60a05460a01c169051908152f35b5050503461058057816003193601126105805760a05490516001600160a01b039091168152602090f35b50505034610580578160031936011261058057609d5490516001600160a01b039091168152602090f35b838186346105805760c036600319011261058057610fc36118c9565b90610fcc6118e4565b916084359467ffffffffffffffff9586811161108057610fef9036908301611926565b91909460a43597881161107c57610b1b879661106a611017610b299561049a9c369101611926565b91909260018060a01b039788609a54169a519889978160208a019c8d63534665e960e01b90521660248a015260243560448a0152166064880152606435608488015260c060a488015260e4870191611c43565b8481036023190160c486015291611c8c565b8680fd5b8580fd5b505050346105805781816003193601126105cb578061049a926110a56118c9565b609b54915163144e2c2360e21b602082019081526001600160a01b039283166024808401919091523560448301529190921691610b298160648101610b1b565b5050503461058057816003193601126105805760995490516001600160a01b039091168152602090f35b84346105cb5760203660031901126105cb576111296119ff565b611131611a47565b60a0805460ff60a01b191691811b60ff60a01b1691909117905580f35b50505034610580578160031936011261058057609b5490516001600160a01b039091168152602090f35b505091346105cb57611189366119cb565b6001600160a01b03928316845260a460209081528585209285529182528484209083168452905282822083519193919260a084019067ffffffffffffffff8211858310176112525750916103779161124e949382528581541684528560018201541695602085019687528061121d6002840154998588019a8b5261120f60038601611ce7565b946060890195865201611d41565b958660808201525116965116965190519180519788978852602088015286015260a0606086015260a0850190611957565b0390f35b634e487b7160e01b815260418752602490fd5b84346105cb5760203660031901126105cb5761127f6118c9565b611287611a47565b6001600160a01b03168015610580576001600160601b0360a01b60a054161760a05580f35b84346105cb5760203660031901126105cb576112c66118c9565b6112ce611a47565b6001600160a01b03168015610580576001600160601b0360a01b609f541617609f5580f35b50505034610580579060ff8260a09361130b366119cb565b90600180899894981b03809716835260a56020528383209083526020528583832091168252602052209283541692600181015491600360028301549201549281519586526020860152840152818116606084015260081c1615156080820152f35b84346105cb5760203660031901126105cb576113866118c9565b61138e611a47565b6001600160a01b03168015610580576001600160601b0360a01b609b541617609b5580f35b505050346105805780600319360112610580576080916001600160a01b0391908190836113de6118c9565b16815260a760205281812060243582526020522082815416926001820154169160ff600360028401549301541692815194855260208501528301526060820152f35b84346105cb5760203660031901126105cb5761143a6118c9565b611442611a47565b6001600160a01b03168015610580576001600160601b0360a01b609954161760995580f35b5050503461058057908160609261147d366119cb565b9060018060a09794971b03809616835260a460205283832090835260205284838320911682526020522090600283835416936001840154169201549181519384526020840152820152f35b84346105cb5760203660031901126105cb576114e26118c9565b6114ea611a47565b6001600160a01b03168015610580576001600160601b0360a01b609754161760975580f35b5050503461058057816003193601126105805751908152602090f35b84833461058057602036600319011261058057611546611a47565b3560a25580f35b9050839160a060031936011261045a576115656118c9565b9061156e6118e4565b94608435938415158095036110805760018060a01b039485609a5416958351988160208b0197630795929960e11b89521660248b015260243560448b0152166064890152606435608489015260a488015260a4875286019186831067ffffffffffffffff84111761056d575052835161049a9284928392915af4610567611b9c565b5050503461058057816003193601126105805760209060a1549051908152f35b848484923461045a578160031936011261045a576001600160a01b0391826116366118c9565b16845260a6602052808420602435855260205280842093815192610120918285019085821067ffffffffffffffff8311176117425750908291845285875416855260018701549660208601978852600281015498858701998a528760038301549160608901928352830154166080880190815260058301549060a0890191825260068401549260c08a01938452600785016116d090611ce7565b94868b019586526008016116e390611d41565b9a806101009b8d8d82015251169c519d5191519251169251935194519880519d8e809e8152602001528c015260608b015260808a015260a089015260c0880152860152840161173191611957565b908382039084015261124e91611994565b634e487b7160e01b815260418952602490fd5b50505034610580578160031936011261058057609c5490516001600160a01b039091168152602090f35b5050503461058057816003193601126105805760209060a3549051908152f35b929150923461045a578360031936011261045a576117bb6118c9565b6117c36118e4565b9467ffffffffffffffff9360a43585811161107c576117e59036908301611926565b97909560c435908111610a8e5761049a98889761186861180e610b2996610b1b95369101611926565b92909360018060a01b039889609b54169b51998a988160208b019d8e63060d9eeb60e01b90521660248b015260243560448b0152166064890152606435608489015260843560a489015260c4880152610104870191611c43565b8481036023190160e486015291611c8c565b50505034610580578160031936011261058057609a5490516001600160a01b039091168152602090f35b859034610580578160031936011261058057609f546001600160a01b03168152602090f35b600435906001600160a01b03821682036118df57565b600080fd5b604435906001600160a01b03821682036118df57565b602435906001600160a01b03821682036118df57565b608435906001600160a01b03821682036118df57565b9181601f840112156118df5782359167ffffffffffffffff83116118df576020808501948460051b0101116118df57565b90815180825260208080930193019160005b828110611977575050505090565b83516001600160a01b031685529381019392810192600101611969565b90815180825260208080930193019160005b8281106119b4575050505090565b835160ff16855293810193928101926001016119a6565b60609060031901126118df576001600160a01b0360043581811681036118df57916024359160443590811681036118df5790565b6004359060ff821682036118df57565b60809060031901126118df576001600160a01b0360043581811681036118df57916024359160443590811681036118df579060643590565b6033546001600160a01b03163303611a5b57565b606460405162461bcd60e51b815260206004820152602060248201527f4f776e61626c653a2063616c6c6572206973206e6f7420746865206f776e65726044820152fd5b603380546001600160a01b039283166001600160a01b0319821681179092559091167f8be0079c531659141344cd1fd0a4f28419497f9722a3daafe3b4186f6b6457e0600080a3565b15611aef57565b60405162461bcd60e51b815260206004820152602b60248201527f496e697469616c697a61626c653a20636f6e7472616374206973206e6f74206960448201526a6e697469616c697a696e6760a81b6064820152608490fd5b6020810190811067ffffffffffffffff821117611b6457604052565b634e487b7160e01b600052604160045260246000fd5b90601f8019910116810190811067ffffffffffffffff821117611b6457604052565b3d15611bd7573d9067ffffffffffffffff8211611b645760405191611bcb601f8201601f191660200184611b7a565b82523d6000602084013e565b606090565b15611be45750565b6040519062461bcd60e51b82528160208060048301528251908160248401526000935b828510611c2a575050604492506000838284010152601f80199101168101030190fd5b8481018201518686016044015293810193859350611c07565b9190808252602080920192916000805b838210611c6257505050505090565b9091929394853560018060a01b03811680910361045a578152830194830193929160010190611c53565b9190808252602080920192916000805b838210611cab57505050505090565b9091929394853560ff811680910361045a578152830194830193929160010190611c9c565b818110611cdb575050565b60008155600101611cd0565b9060405191828154918282526020928383019160005283600020936000905b828210611d1e57505050611d1c92500383611b7a565b565b85546001600160a01b031684526001958601958895509381019390910190611d06565b90604051918281549182825260209081830190600052816000206000905b85601f83011061212d5794611d1c9554918482821061211a575b828210612104575b8282106120ee575b8282106120d8575b8282106120c3575b8282106120ad575b828210612097575b828210612081575b82821061206b575b828210612055575b82821061203f575b828210612029575b828210612013575b828210611ffd575b828210611fe7575b828210611fd1575b828210611fbb575b828210611fa5575b828210611f8f575b828210611f79575b828210611f63575b828210611f4d575b828210611f37575b828210611f21575b828210611f0b575b828210611ef5575b828210611edf575b828210611ec9575b828210611eb3575b828210611e9d575b828210611e87575b5010611e7a575b5090500383611b7a565b60f81c8152018038611e70565b6001919460ff8560f01c16815201930184611e69565b6001919460ff8560e81c16815201930184611e61565b6001919460ff8560e01c16815201930184611e59565b6001919460ff8560d81c16815201930184611e51565b6001919460ff8560d01c16815201930184611e49565b6001919460ff8560c81c16815201930184611e41565b6001919460ff8560c01c16815201930184611e39565b6001919460ff8560b81c16815201930184611e31565b6001919460ff8560b01c16815201930184611e29565b6001919460ff8560a81c16815201930184611e21565b6001919460ff8560a01c16815201930184611e19565b6001919460ff8560981c16815201930184611e11565b6001919460ff8560901c16815201930184611e09565b6001919460ff8560881c16815201930184611e01565b6001919460ff8560801c16815201930184611df9565b6001919460ff8560781c16815201930184611df1565b6001919460ff8560701c16815201930184611de9565b6001919460ff8560681c16815201930184611de1565b6001919460ff8560601c16815201930184611dd9565b6001919460ff8560581c16815201930184611dd1565b6001919460ff8560501c16815201930184611dc9565b6001919460ff8560481c16815201930184611dc1565b6001919460ff8560401c16815201930184611db9565b6001919460ff8560381c16815201930184611db1565b6001919460ff8560301c16815201930184611da9565b6001919460ff8560281c16815201930184611da1565b6001919460ff85831c16815201930184611d99565b6001919460ff8560181c16815201930184611d91565b6001919460ff8560101c16815201930184611d89565b6001919460ff8560081c16815201930184611d81565b6001919460ff8516815201930184611d79565b9350916001610400829693865460ff8116825260ff8160081c168583015260ff8160101c16604083015260ff816060828260181c16818601528282608082828c1c1681890152828260a092828260281c16848c0152828260c0988d8a848460301c169101528d60e0848460381c169101528d610100848460401c169101528d610120848460481c169101528d610140848460501c169101528d610160848460581c169101521c166101808c0152828260681c166101a08c0152828260701c166101c08c0152828260781c166101e08c01521c16610200890152828260881c16610220890152828260901c16610240890152828260981c166102608901521c16610280860152828260a81c166102a0860152828260b01c166102c0860152828260b81c166102e08601521c1661030083015260ff8160c81c1661032083015260ff8160d01c1661034083015260ff8160d81c1661036083015260ff8160e01c1661038083015260ff8160e81c166103a083015260ff8160f01c166103c083015260f81c6103e082015201940192018693919492611d5f56fea2646970667358221220b0f5ac9c1c42c301054ca1bd3412cd4b6f46eddebf3b2cc9f3ad93c55b09648864736f6c63430008120033","linkReferences":{}},"methodIdentifiers":{"COLDIE_AUCTION()":"c90b8714","NO_AUCTION()":"155a56b1","SCHEDULED_AUCTION()":"b23afc26","acceptOffer(address,uint256,address,uint256,address[],uint8[])":"534665e9","approvedTokenRegistry()":"6240cd1c","auctionBids(address,uint256)":"299a0e1e","auctionLengthExtension()":"daa26499","bid(address,uint256,address,uint256)":"b5678588","buy(address,uint256,address,uint256)":"b3ffb760","cancelAuction(address,uint256)":"859b97fe","cancelOffer(address,uint256,address)":"e92f94d1","configureAuction(bytes32,address,uint256,uint256,address,uint256,uint256,address[],uint8[])":"9041a0ec","convertOfferToAuction(address,uint256,address,uint256,uint256,address[],uint8[])":"060d9eeb","getAuctionDetails(address,uint256)":"0cd87c68","getSalePrice(address,uint256,address)":"369679a4","initialize(address,address,address,address,address,address,address,address,address,address)":"c306b378","marketplaceSettings()":"ba50b632","maxAuctionLength()":"0e519ef9","minimumBidIncreasePercentage()":"6fe9f44c","networkBeneficiary()":"6b534ed0","offer(address,uint256,address,uint256,bool)":"0f2b2532","offerCancelationDelay()":"0a5c4ed5","owner()":"8da5cb5b","payments()":"a6d23e10","removeSalePrice(address,uint256,address)":"f7cfaad0","renounceOwnership()":"715018a6","royaltyEngine()":"4c94c90c","royaltyRegistry()":"a11b0712","setApprovedTokenRegistry(address)":"e4e87e3b","setAuctionLengthExtension(uint256)":"10f79789","setMarketplaceSettings(address)":"176ab440","setMaxAuctionLength(uint8)":"dce96bf5","setMinimumBidIncreasePercentage(uint8)":"48626b90","setNetworkBeneficiary(address)":"3492e5a8","setOfferCancelationDelay(uint256)":"7a544792","setPayments(address)":"af231a58","setRoyaltyEngine(address)":"21ede032","setRoyaltyRegistry(address)":"84a608e2","setSalePrice(address,uint256,address,uint256,address,address[],uint8[])":"c8f94f4e","setSpaceOperatorRegistry(address)":"7f358230","setStakingRegistry(address)":"2c740844","setSuperRareAuctionHouse(address)":"2a2a326c","setSuperRareMarketplace(address)":"9c883af2","settleAuction(address,uint256)":"5138b08c","spaceOperatorRegistry()":"0bcba09d","stakingRegistry()":"009d9aa9","superRareAuctionHouse()":"3bc3d9be","superRareMarketplace()":"0141c590","tokenAuctions(address,uint256)":"c47c35c1","tokenCurrentOffers(address,uint256,address)":"2c419053","tokenSalePrices(address,uint256,address)":"1a2ac30f","transferOwnership(address)":"f2fde38b"},"id":151}