{
  "abi": [
    {
      "anonymous": false,
      "inputs": [
        {
          "indexed": true,
          "internalType": "address",
          "name": "_originContract",
          "type": "address"
        },
        {
          "indexed": true,
          "internalType": "address",
          "name": "_bidder",
          "type": "address"
        },
        {
          "indexed": true,
          "internalType": "address",
          "name": "_seller",
          "type": "address"
        },
        {
          "indexed": false,
          "internalType": "address",
          "name": "_currencyAddress",
          "type": "address"
        },
        {
          "indexed": false,
          "internalType": "uint256",
          "name": "_amount",
          "type": "uint256"
        },
        {
          "indexed": false,
          "internalType": "uint256",
          "name": "_tokenId",
          "type": "uint256"
        },
        {
          "indexed": false,
          "internalType": "address payable[]",
          "name": "_splitAddresses",
          "type": "address[]"
        },
        {
          "indexed": false,
          "internalType": "uint8[]",
          "name": "_splitRatios",
          "type": "uint8[]"
        }
      ],
      "name": "AcceptOffer",
      "type": "event"
    },
    {
      "anonymous": false,
      "inputs": [
        {
          "indexed": true,
          "internalType": "address",
          "name": "_contractAddress",
          "type": "address"
        },
        {
          "indexed": true,
          "internalType": "address",
          "name": "_bidder",
          "type": "address"
        },
        {
          "indexed": true,
          "internalType": "uint256",
          "name": "_tokenId",
          "type": "uint256"
        },
        {
          "indexed": false,
          "internalType": "address",
          "name": "_currencyAddress",
          "type": "address"
        },
        {
          "indexed": false,
          "internalType": "uint256",
          "name": "_amount",
          "type": "uint256"
        },
        {
          "indexed": false,
          "internalType": "bool",
          "name": "_startedAuction",
          "type": "bool"
        },
        {
          "indexed": false,
          "internalType": "uint256",
          "name": "_newAuctionLength",
          "type": "uint256"
        },
        {
          "indexed": false,
          "internalType": "address",
          "name": "_previousBidder",
          "type": "address"
        }
      ],
      "name": "AuctionBid",
      "type": "event"
    },
    {
      "anonymous": false,
      "inputs": [
        {
          "indexed": true,
          "internalType": "address",
          "name": "_contractAddress",
          "type": "address"
        },
        {
          "indexed": true,
          "internalType": "address",
          "name": "_bidder",
          "type": "address"
        },
        {
          "indexed": false,
          "internalType": "address",
          "name": "_seller",
          "type": "address"
        },
        {
          "indexed": true,
          "internalType": "uint256",
          "name": "_tokenId",
          "type": "uint256"
        },
        {
          "indexed": false,
          "internalType": "address",
          "name": "_currencyAddress",
          "type": "address"
        },
        {
          "indexed": false,
          "internalType": "uint256",
          "name": "_amount",
          "type": "uint256"
        }
      ],
      "name": "AuctionSettled",
      "type": "event"
    },
    {
      "anonymous": false,
      "inputs": [
        {
          "indexed": true,
          "internalType": "address",
          "name": "_contractAddress",
          "type": "address"
        },
        {
          "indexed": true,
          "internalType": "uint256",
          "name": "_tokenId",
          "type": "uint256"
        },
        {
          "indexed": true,
          "internalType": "address",
          "name": "_auctionCreator",
          "type": "address"
        }
      ],
      "name": "CancelAuction",
      "type": "event"
    },
    {
      "anonymous": false,
      "inputs": [
        {
          "indexed": true,
          "internalType": "address",
          "name": "_originContract",
          "type": "address"
        },
        {
          "indexed": true,
          "internalType": "address",
          "name": "_bidder",
          "type": "address"
        },
        {
          "indexed": true,
          "internalType": "address",
          "name": "_currencyAddress",
          "type": "address"
        },
        {
          "indexed": false,
          "internalType": "uint256",
          "name": "_amount",
          "type": "uint256"
        },
        {
          "indexed": false,
          "internalType": "uint256",
          "name": "_tokenId",
          "type": "uint256"
        }
      ],
      "name": "CancelOffer",
      "type": "event"
    },
    {
      "anonymous": false,
      "inputs": [
        {
          "indexed": false,
          "internalType": "uint8",
          "name": "version",
          "type": "uint8"
        }
      ],
      "name": "Initialized",
      "type": "event"
    },
    {
      "anonymous": false,
      "inputs": [
        {
          "indexed": true,
          "internalType": "address",
          "name": "_contractAddress",
          "type": "address"
        },
        {
          "indexed": true,
          "internalType": "uint256",
          "name": "_tokenId",
          "type": "uint256"
        },
        {
          "indexed": true,
          "internalType": "address",
          "name": "_auctionCreator",
          "type": "address"
        },
        {
          "indexed": false,
          "internalType": "address",
          "name": "_currencyAddress",
          "type": "address"
        },
        {
          "indexed": false,
          "internalType": "uint256",
          "name": "_startingTime",
          "type": "uint256"
        },
        {
          "indexed": false,
          "internalType": "uint256",
          "name": "_minimumBid",
          "type": "uint256"
        },
        {
          "indexed": false,
          "internalType": "uint256",
          "name": "_lengthOfAuction",
          "type": "uint256"
        }
      ],
      "name": "NewAuction",
      "type": "event"
    },
    {
      "anonymous": false,
      "inputs": [
        {
          "indexed": true,
          "internalType": "address",
          "name": "_originContract",
          "type": "address"
        },
        {
          "indexed": true,
          "internalType": "address",
          "name": "_bidder",
          "type": "address"
        },
        {
          "indexed": true,
          "internalType": "address",
          "name": "_currencyAddress",
          "type": "address"
        },
        {
          "indexed": false,
          "internalType": "uint256",
          "name": "_amount",
          "type": "uint256"
        },
        {
          "indexed": false,
          "internalType": "uint256",
          "name": "_tokenId",
          "type": "uint256"
        },
        {
          "indexed": false,
          "internalType": "bool",
          "name": "_convertible",
          "type": "bool"
        }
      ],
      "name": "OfferPlaced",
      "type": "event"
    },
    {
      "anonymous": false,
      "inputs": [
        {
          "indexed": true,
          "internalType": "address",
          "name": "previousOwner",
          "type": "address"
        },
        {
          "indexed": true,
          "internalType": "address",
          "name": "newOwner",
          "type": "address"
        }
      ],
      "name": "OwnershipTransferred",
      "type": "event"
    },
    {
      "anonymous": false,
      "inputs": [
        {
          "indexed": true,
          "internalType": "address",
          "name": "_originContract",
          "type": "address"
        },
        {
          "indexed": true,
          "internalType": "address",
          "name": "_currencyAddress",
          "type": "address"
        },
        {
          "indexed": false,
          "internalType": "address",
          "name": "_target",
          "type": "address"
        },
        {
          "indexed": false,
          "internalType": "uint256",
          "name": "_amount",
          "type": "uint256"
        },
        {
          "indexed": false,
          "internalType": "uint256",
          "name": "_tokenId",
          "type": "uint256"
        },
        {
          "indexed": false,
          "internalType": "address payable[]",
          "name": "_splitRecipients",
          "type": "address[]"
        },
        {
          "indexed": false,
          "internalType": "uint8[]",
          "name": "_splitRatios",
          "type": "uint8[]"
        }
      ],
      "name": "SetSalePrice",
      "type": "event"
    },
    {
      "anonymous": false,
      "inputs": [
        {
          "indexed": true,
          "internalType": "address",
          "name": "_originContract",
          "type": "address"
        },
        {
          "indexed": true,
          "internalType": "address",
          "name": "_buyer",
          "type": "address"
        },
        {
          "indexed": true,
          "internalType": "address",
          "name": "_seller",
          "type": "address"
        },
        {
          "indexed": false,
          "internalType": "address",
          "name": "_currencyAddress",
          "type": "address"
        },
        {
          "indexed": false,
          "internalType": "uint256",
          "name": "_amount",
          "type": "uint256"
        },
        {
          "indexed": false,
          "internalType": "uint256",
          "name": "_tokenId",
          "type": "uint256"
        }
      ],
      "name": "Sold",
      "type": "event"
    },
    {
      "inputs": [],
      "name": "COLDIE_AUCTION",
      "outputs": [
        {
          "internalType": "bytes32",
          "name": "",
          "type": "bytes32"
        }
      ],
      "stateMutability": "view",
      "type": "function"
    },
    {
      "inputs": [],
      "name": "NO_AUCTION",
      "outputs": [
        {
          "internalType": "bytes32",
          "name": "",
          "type": "bytes32"
        }
      ],
      "stateMutability": "view",
      "type": "function"
    },
    {
      "inputs": [],
      "name": "SCHEDULED_AUCTION",
      "outputs": [
        {
          "internalType": "bytes32",
          "name": "",
          "type": "bytes32"
        }
      ],
      "stateMutability": "view",
      "type": "function"
    },
    {
      "inputs": [
        {
          "internalType": "address",
          "name": "_originContract",
          "type": "address"
        },
        {
          "internalType": "uint256",
          "name": "_tokenId",
          "type": "uint256"
        },
        {
          "internalType": "address",
          "name": "_currencyAddress",
          "type": "address"
        },
        {
          "internalType": "uint256",
          "name": "_amount",
          "type": "uint256"
        },
        {
          "internalType": "address payable[]",
          "name": "_splitAddresses",
          "type": "address[]"
        },
        {
          "internalType": "uint8[]",
          "name": "_splitRatios",
          "type": "uint8[]"
        }
      ],
      "name": "acceptOffer",
      "outputs": [],
      "stateMutability": "nonpayable",
      "type": "function"
    },
    {
      "inputs": [],
      "name": "approvedTokenRegistry",
      "outputs": [
        {
          "internalType": "contract IApprovedTokenRegistry",
          "name": "",
          "type": "address"
        }
      ],
      "stateMutability": "view",
      "type": "function"
    },
    {
      "inputs": [
        {
          "internalType": "address",
          "name": "",
          "type": "address"
        },
        {
          "internalType": "uint256",
          "name": "",
          "type": "uint256"
        }
      ],
      "name": "auctionBids",
      "outputs": [
        {
          "internalType": "address payable",
          "name": "bidder",
          "type": "address"
        },
        {
          "internalType": "address",
          "name": "currencyAddress",
          "type": "address"
        },
        {
          "internalType": "uint256",
          "name": "amount",
          "type": "uint256"
        },
        {
          "internalType": "uint8",
          "name": "marketplaceFee",
          "type": "uint8"
        }
      ],
      "stateMutability": "view",
      "type": "function"
    },
    {
      "inputs": [],
      "name": "auctionLengthExtension",
      "outputs": [
        {
          "internalType": "uint256",
          "name": "",
          "type": "uint256"
        }
      ],
      "stateMutability": "view",
      "type": "function"
    },
    {
      "inputs": [
        {
          "internalType": "address",
          "name": "_originContract",
          "type": "address"
        },
        {
          "internalType": "uint256",
          "name": "_tokenId",
          "type": "uint256"
        },
        {
          "internalType": "address",
          "name": "_currencyAddress",
          "type": "address"
        },
        {
          "internalType": "uint256",
          "name": "_amount",
          "type": "uint256"
        }
      ],
      "name": "buy",
      "outputs": [],
      "stateMutability": "payable",
      "type": "function"
    },
    {
      "inputs": [
        {
          "internalType": "address",
          "name": "_originContract",
          "type": "address"
        },
        {
          "internalType": "uint256",
          "name": "_tokenId",
          "type": "uint256"
        },
        {
          "internalType": "address",
          "name": "_currencyAddress",
          "type": "address"
        }
      ],
      "name": "cancelOffer",
      "outputs": [],
      "stateMutability": "nonpayable",
      "type": "function"
    },
    {
      "inputs": [],
      "name": "marketplaceSettings",
      "outputs": [
        {
          "internalType": "contract IMarketplaceSettings",
          "name": "",
          "type": "address"
        }
      ],
      "stateMutability": "view",
      "type": "function"
    },
    {
      "inputs": [],
      "name": "maxAuctionLength",
      "outputs": [
        {
          "internalType": "uint256",
          "name": "",
          "type": "uint256"
        }
      ],
      "stateMutability": "view",
      "type": "function"
    },
    {
      "inputs": [],
      "name": "minimumBidIncreasePercentage",
      "outputs": [
        {
          "internalType": "uint8",
          "name": "",
          "type": "uint8"
        }
      ],
      "stateMutability": "view",
      "type": "function"
    },
    {
      "inputs": [],
      "name": "networkBeneficiary",
      "outputs": [
        {
          "internalType": "address",
          "name": "",
          "type": "address"
        }
      ],
      "stateMutability": "view",
      "type": "function"
    },
    {
      "inputs": [
        {
          "internalType": "address",
          "name": "_originContract",
          "type": "address"
        },
        {
          "internalType": "uint256",
          "name": "_tokenId",
          "type": "uint256"
        },
        {
          "internalType": "address",
          "name": "_currencyAddress",
          "type": "address"
        },
        {
          "internalType": "uint256",
          "name": "_amount",
          "type": "uint256"
        },
        {
          "internalType": "bool",
          "name": "_convertible",
          "type": "bool"
        }
      ],
      "name": "offer",
      "outputs": [],
      "stateMutability": "payable",
      "type": "function"
    },
    {
      "inputs": [],
      "name": "offerCancelationDelay",
      "outputs": [
        {
          "internalType": "uint256",
          "name": "",
          "type": "uint256"
        }
      ],
      "stateMutability": "view",
      "type": "function"
    },
    {
      "inputs": [],
      "name": "owner",
      "outputs": [
        {
          "internalType": "address",
          "name": "",
          "type": "address"
        }
      ],
      "stateMutability": "view",
      "type": "function"
    },
    {
      "inputs": [],
      "name": "payments",
      "outputs": [
        {
          "internalType": "contract IPayments",
          "name": "",
          "type": "address"
        }
      ],
      "stateMutability": "view",
      "type": "function"
    },
    {
      "inputs": [
        {
          "internalType": "address",
          "name": "_originContract",
          "type": "address"
        },
        {
          "internalType": "uint256",
          "name": "_tokenId",
          "type": "uint256"
        },
        {
          "internalType": "address",
          "name": "_target",
          "type": "address"
        }
      ],
      "name": "removeSalePrice",
      "outputs": [],
      "stateMutability": "nonpayable",
      "type": "function"
    },
    {
      "inputs": [],
      "name": "renounceOwnership",
      "outputs": [],
      "stateMutability": "nonpayable",
      "type": "function"
    },
    {
      "inputs": [],
      "name": "royaltyEngine",
      "outputs": [
        {
          "internalType": "contract IRoyaltyEngineV1",
          "name": "",
          "type": "address"
        }
      ],
      "stateMutability": "view",
      "type": "function"
    },
    {
      "inputs": [],
      "name": "royaltyRegistry",
      "outputs": [
        {
          "internalType": "contract IRareRoyaltyRegistry",
          "name": "",
          "type": "address"
        }
      ],
      "stateMutability": "view",
      "type": "function"
    },
    {
      "inputs": [
        {
          "internalType": "address",
          "name": "_originContract",
          "type": "address"
        },
        {
          "internalType": "uint256",
          "name": "_tokenId",
          "type": "uint256"
        },
        {
          "internalType": "address",
          "name": "_currencyAddress",
          "type": "address"
        },
        {
          "internalType": "uint256",
          "name": "_listPrice",
          "type": "uint256"
        },
        {
          "internalType": "address",
          "name": "_target",
          "type": "address"
        },
        {
          "internalType": "address payable[]",
          "name": "_splitAddresses",
          "type": "address[]"
        },
        {
          "internalType": "uint8[]",
          "name": "_splitRatios",
          "type": "uint8[]"
        }
      ],
      "name": "setSalePrice",
      "outputs": [],
      "stateMutability": "nonpayable",
      "type": "function"
    },
    {
      "inputs": [],
      "name": "spaceOperatorRegistry",
      "outputs": [
        {
          "internalType": "contract ISpaceOperatorRegistry",
          "name": "",
          "type": "address"
        }
      ],
      "stateMutability": "view",
      "type": "function"
    },
    {
      "inputs": [],
      "name": "stakingRegistry",
      "outputs": [
        {
          "internalType": "address",
          "name": "",
          "type": "address"
        }
      ],
      "stateMutability": "view",
      "type": "function"
    },
    {
      "inputs": [],
      "name": "superRareAuctionHouse",
      "outputs": [
        {
          "internalType": "address",
          "name": "",
          "type": "address"
        }
      ],
      "stateMutability": "view",
      "type": "function"
    },
    {
      "inputs": [],
      "name": "superRareMarketplace",
      "outputs": [
        {
          "internalType": "address",
          "name": "",
          "type": "address"
        }
      ],
      "stateMutability": "view",
      "type": "function"
    },
    {
      "inputs": [
        {
          "internalType": "address",
          "name": "",
          "type": "address"
        },
        {
          "internalType": "uint256",
          "name": "",
          "type": "uint256"
        }
      ],
      "name": "tokenAuctions",
      "outputs": [
        {
          "internalType": "address payable",
          "name": "auctionCreator",
          "type": "address"
        },
        {
          "internalType": "uint256",
          "name": "creationBlock",
          "type": "uint256"
        },
        {
          "internalType": "uint256",
          "name": "startingTime",
          "type": "uint256"
        },
        {
          "internalType": "uint256",
          "name": "lengthOfAuction",
          "type": "uint256"
        },
        {
          "internalType": "address",
          "name": "currencyAddress",
          "type": "address"
        },
        {
          "internalType": "uint256",
          "name": "minimumBid",
          "type": "uint256"
        },
        {
          "internalType": "bytes32",
          "name": "auctionType",
          "type": "bytes32"
        }
      ],
      "stateMutability": "view",
      "type": "function"
    },
    {
      "inputs": [
        {
          "internalType": "address",
          "name": "",
          "type": "address"
        },
        {
          "internalType": "uint256",
          "name": "",
          "type": "uint256"
        },
        {
          "internalType": "address",
          "name": "",
          "type": "address"
        }
      ],
      "name": "tokenCurrentOffers",
      "outputs": [
        {
          "internalType": "address payable",
          "name": "buyer",
          "type": "address"
        },
        {
          "internalType": "uint256",
          "name": "amount",
          "type": "uint256"
        },
        {
          "internalType": "uint256",
          "name": "timestamp",
          "type": "uint256"
        },
        {
          "internalType": "uint8",
          "name": "marketplaceFee",
          "type": "uint8"
        },
        {
          "internalType": "bool",
          "name": "convertible",
          "type": "bool"
        }
      ],
      "stateMutability": "view",
      "type": "function"
    },
    {
      "inputs": [
        {
          "internalType": "address",
          "name": "",
          "type": "address"
        },
        {
          "internalType": "uint256",
          "name": "",
          "type": "uint256"
        },
        {
          "internalType": "address",
          "name": "",
          "type": "address"
        }
      ],
      "name": "tokenSalePrices",
      "outputs": [
        {
          "internalType": "address payable",
          "name": "seller",
          "type": "address"
        },
        {
          "internalType": "address",
          "name": "currencyAddress",
          "type": "address"
        },
        {
          "internalType": "uint256",
          "name": "amount",
          "type": "uint256"
        }
      ],
      "stateMutability": "view",
      "type": "function"
    },
    {
      "inputs": [
        {
          "internalType": "address",
          "name": "newOwner",
          "type": "address"
        }
      ],
      "name": "transferOwnership",
      "outputs": [],
      "stateMutability": "nonpayable",
      "type": "function"
    }
  ],
  "bytecode": {
    "object": "0x6080806040523461001657613a2c908161001c8239f35b600080fdfe608080604052600436101561001357600080fd5b600090813560e01c9081629d9aa914612411575080630141c590146123e85780630a5c4ed5146123ca5780630bcba09d146123a15780630e519ef9146123835780630f2b253214611f6e578063155a56b114611f525780631a2ac30f14611ef1578063299a0e1e14611e825780632c41905314611e085780633bc3d9be14611ddf5780634c94c90c14611db6578063534665e9146119dc5780636240cd1c146119b35780636b534ed01461198a5780636fe9f44c14611966578063715018a6146119085780638da5cb5b146118df578063a11b0712146118b6578063a6d23e101461188d578063b23afc261461185d578063b3ffb76014610c9e578063ba50b63214610c75578063c47c35c114610be7578063c8f94f4e1461066a578063c90b87141461063d578063daa264991461061f578063e92f94d1146103e3578063f2fde38b146103185763f7cfaad01461016a57600080fd5b346103155761017836612476565b6040516331a9108f60e11b815260048101839052602094936001600160a01b039081169392918681602481885afa90811561030a5790829187916102dd575b5016330361028c5783855260a4865260408520838652865260408520911660005284526101e76040600020612d7c565b604051936101f485612560565b83855261022c6040519561020787612560565b858752604051938685528684860152604085015260a0606085015260a08401906136c5565b8281036080840152818087519283815201960191855b828110610275578680877fb6039ff1edf80efca6bc48b89f5415ba07fecb2d321058dae9ce6369b2ff964b888c0389a380f35b835160ff1688529681019692810192600101610242565b60405162461bcd60e51b8152600481018790526024808201527f72656d6f766553616c6550726963653a3a4d75737420626520746f6b656e4f776044820152633732b91760e11b6064820152608490fd5b6102fd9150883d8a11610303575b6102f581836125b1565b810190612608565b386101b7565b503d6102eb565b6040513d88823e3d90fd5b80fd5b503461031557602036600319011261031557610332612436565b61033a6124da565b6001600160a01b0390811690811561038f57603354826bffffffffffffffffffffffff60a01b821617603355167f8be0079c531659141344cd1fd0a4f28419497f9722a3daafe3b4186f6b6457e0600080a380f35b60405162461bcd60e51b815260206004820152602660248201527f4f776e61626c653a206e6577206f776e657220697320746865207a65726f206160448201526564647265737360d01b6064820152608490fd5b5034610315576103f236612476565b91906103fc612640565b60018060a01b038092169081855260209260a584526040862082875284526040862094818116958660005285526040600020916040519061043c82612532565b8084541682526001840154908783019482865260036002820154916040860192835201549260ff6060860194818116865260081c1615156080860152156105c75781845116330361056a5761049290514261285d565b60a354101561052557906104ec939291878b5260a5895260408b20878c52895260408b208a60005289526104dc604060002060036000918281558260018201558260028201550155565b60ff865192511692511692612c8b565b51926040519384528301527fb9a071fe7d38dc86fbc448d440311b6bd67e5e09de8b1b62c72f5fe34410045360403393a4600160655580f35b60405162461bcd60e51b815260048101899052601a60248201527f4f6666657220706c6163656420746f6f20726563656e746c792e0000000000006044820152606490fd5b60405162461bcd60e51b8152600481018a9052602f60248201527f63616e63656c4f666665723a3a53656e646572206d757374206861766520706c60448201526e30b1b2b2103a34329037b33332b91760891b6064820152608490fd5b60405162461bcd60e51b8152600481018a9052602a60248201527f63616e63656c4f666665723a3a4e6f206f6666657220666f722063757272656e60448201526931bc9032bc34b9ba399760b11b6064820152608490fd5b5034610315578060031936011261031557602060a254604051908152f35b50346103155780600319360112610315576040516d21a7a62224a2afa0aaa1aa24a7a760911b8152602090f35b50346103155760e036600319011261031557610684612436565b9061068d61244c565b916084356001600160a01b0381169003610ada5760a4356001600160401b038111610be3576106c09036906004016124aa565b60c4356001600160401b038111610bdf576106df9036906004016124aa565b6106ea8792976126ae565b6106f660243586613952565b61070260243586612de6565b8215610b8a5760058311610b3957808303610adf576000805b828210610aae576064915003610a59576040519661073888612532565b3388526001600160a01b0383166020890152606435604089015261075d3685876137e5565b606089015261076d368383613849565b60808901526001600160a01b03868116885260a460209081526040808a206024358b528252808a20608435841660009081529083528190208b5181549085166001600160a01b0319918216178255928c01516001820180549190951693169290921790925590890151600282015560608901518051919991906001600160401b038211610a4557600160401b82116109e157602060038c01918254848455808510610a28575b5001908a5260208a208a5b838110610a0b575050505060800151978851906001600160401b0382116109f757600160401b82116109e157600460209101998a54838c55808410610995575b50019888526020882090885b8160051c811061094f5750601f1981168103806108d8575b50506040516001600160a01b0394851697909416957fb6039ff1edf80efca6bc48b89f5415ba07fecb2d321058dae9ce6369b2ff964b9585946108d294909350916024356064356084358861389f565b0390a380f35b99899a8a5b81811061091e5750505060051c019790975594958695906108d27fb6039ff1edf80efca6bc48b89f5415ba07fecb2d321058dae9ce6369b2ff964b38610882565b90919b60206109456001928f60ff86915116919060ff809160031b9316831b921b19161790565b9d019291016108dd565b898a5b6020811061096757508382015560010161086a565b9b90602061098c6001928f60ff865116919060ff809160031b9316831b921b19161790565b92019c01610952565b6109c1908c60005283600020601f80870160051c820192818816806109c7575b500160051c0190612d65565b3861085e565b60001990818601918254918a0360031b1c169055386109b5565b634e487b7160e01b600052604160045260246000fd5b634e487b7160e01b89526041600452602489fd5b82516001600160a01b03168183015560209092019160010161081e565b610a3f908460005285846000209182019101612d65565b38610813565b634e487b7160e01b8a52604160045260248afd5b60405162461bcd60e51b815260206004820152602760248201527f636865636b53706c6974733a3a546f74616c206d75737420626520657175616c604482015266020746f203130360cc1b6064820152608490fd5b8160051b8901359060ff8216809203610ada57610ad491610ace916125fb565b91612f58565b9061071b565b600080fd5b60405162461bcd60e51b815260206004820152602c60248201527f636865636b53706c6974733a3a53706c69747320616e6420726174696f73206d60448201526b1d5cdd08189948195c5d585b60a21b6064820152608490fd5b60405162461bcd60e51b8152602060048201526024808201527f636865636b53706c6974733a3a53706c6974206578636565646564206d61782060448201526373697a6560e01b6064820152608490fd5b60405162461bcd60e51b815260206004820152602760248201527f636865636b53706c6974733a3a4d7573742068617665206174206c65617374206044820152660c481cdc1b1a5d60ca1b6064820152608490fd5b8480fd5b8280fd5b50346103155760403660031901126103155760e0906001600160a01b039060409082610c11612436565b16815260a6602052818120602435825260205220908082541691600181015491600282015490600383015490600484015416916006600585015494015494604051968752602087015260408601526060850152608084015260a083015260c0820152f35b50346103155780600319360112610315576097546040516001600160a01b039091168152602090f35b50608036600319011261031557610cb3612436565b610cbb61244c565b90610cc4612640565b610ccd826126ae565b610cd960243582612de6565b6097546040516361fe24a960e11b8152606435600482015290602090829060249082906001600160a01b03165afa801561185257849061181e575b610d2191506064356125fb565b6001600160a01b038216845260a46020908152604080862060243587528252808620336000908152928190529120600201541561180e57336000526020526040600020905b60405191610d7383612532565b60018060a01b03815416835260018060a01b036001820154166020840152600281015460408401526003810160405190816020825491828152019189526020892090895b8181106117ef5750505090610dd1816004949303826125b1565b606085015260405191018054808352908752602080882091839182019089905b80601f83011061166657610f07945491818110611652575b81811061163b575b818110611624575b81811061160d575b8181106115f7575b8181106115e0575b8181106115c9575b8181106115b2575b81811061159b575b818110611584575b81811061156d575b818110611556575b81811061153f575b818110611528575b818110611511575b8181106114fa575b8181106114e3575b8181106114cc575b8181106114b5575b81811061149e575b818110611487575b818110611470575b818110611459575b818110611442575b81811061142b575b818110611414575b8181106113fd575b8181106113e6575b8181106113cf575b8181106113b8575b8181106113a1575b10611393575b5003826125b1565b608083015260208201516001600160a01b039081169085160361134e57604082015115611309576040516331a9108f60e11b81526024803560048301526020908290816001600160a01b0388165afa90811561030a5786916112ea575b5082516001600160a01b03908116908216036112a55760408301516064350361126057610ffa869260018060a01b038616845260a46020526040842060243585526020526040842033600052602052610fc06040600020612d7c565b60018060a01b038616845260a46020526040842060243585526020526040842060008052602052610ff46040600020612d7c565b8661286a565b60018060a01b038416825260a56020526040822060243583526020526040822060018060a01b038616600052602052604060002060405161103a81612532565b60018060a01b0382541680825260036001840154936020840194855260028101546040850152015491608060ff6060830194818116865260081c1615159101523314611201575b50506001600160a01b0384163b156111e957604051632142170760e11b81526001600160a01b03909116600482015233602480830191909152356044820152818180606481010381836001600160a01b0389165af180156111de576111ed575b505080516060820151608083015161110c929091906001600160a01b03166064358760243588612f67565b60975484906001600160a01b0316803b156111e957604051635a3c652d60e01b81526001600160a01b03851660048201526024803590820152600160448201529082908290606490829084905af180156111de576111c6575b505051604080516001600160a01b03948516815260643560208201526024359181019190915290831692339216907f6f9e7bc841408072f4a49e469f90e1a634b85251803662bc8e5c220b287824729080606081015b0390a4600160655580f35b6111cf9061254d565b6111da578338611165565b8380fd5b6040513d84823e3d90fd5b5080fd5b6111f69061254d565b6111da5783386110e1565b6001600160a01b03868116855260a56020908152604080872060243588528252808720928a166000908152929091528120818155600181018290556002810182905560030155611259915160ff339251169088612c8b565b3880611081565b60405162461bcd60e51b815260206004820152601860248201527f6275793a3a496e73756666696369656e7420616d6f756e7400000000000000006044820152606490fd5b60405162461bcd60e51b815260206004820152601b60248201527f6275793a3a507269636520736574746572206e6f74206f776e657200000000006044820152606490fd5b611303915060203d602011610303576102f581836125b1565b38610f64565b60405162461bcd60e51b815260206004820152601f60248201527f6275793a3a546f6b656e20686173206e6f20627579206e6f77207072696365006044820152606490fd5b60405162461bcd60e51b815260206004820152601f60248201527f6275793a3a43757272656e63792061646472657373206e6f7420657175616c006044820152606490fd5b60f81c815260200138610eff565b92602060019160ff8560f01c168152019301610ef9565b92602060019160ff8560e81c168152019301610ef1565b92602060019160ff8560e01c168152019301610ee9565b92602060019160ff8560d81c168152019301610ee1565b92602060019160ff8560d01c168152019301610ed9565b92602060019160ff8560c81c168152019301610ed1565b92602060019160ff8560c01c168152019301610ec9565b92602060019160ff8560b81c168152019301610ec1565b92602060019160ff8560b01c168152019301610eb9565b92602060019160ff8560a81c168152019301610eb1565b92602060019160ff8560a01c168152019301610ea9565b92602060019160ff8560981c168152019301610ea1565b92602060019160ff8560901c168152019301610e99565b92602060019160ff8560881c168152019301610e91565b92602060019160ff8560801c168152019301610e89565b92602060019160ff8560781c168152019301610e81565b92602060019160ff8560701c168152019301610e79565b92602060019160ff8560681c168152019301610e71565b92602060019160ff8560601c168152019301610e69565b92602060019160ff8560581c168152019301610e61565b92602060019160ff8560501c168152019301610e59565b92602060019160ff8560481c168152019301610e51565b92602060019160ff8560401c168152019301610e49565b92602060019160ff8560381c168152019301610e41565b92602060019160ff8560301c168152019301610e39565b92602060019160ff8560281c168152019301610e31565b92602060019160ff85831c168152019301610e29565b92602060019160ff8560181c168152019301610e21565b92602060019160ff8560101c168152019301610e19565b92602060019160ff8560081c168152019301610e11565b92602060019160ff85168152019301610e09565b916020919350610400600191865460ff8082168352808260081c1686840152808260101c166040840152808260181c1660608401528082871c166080840152808260a0828260281c1681870152828260c092828260301c16848a0152828260381c1660e08a0152828260401c166101008a0152828260481c166101208a0152828260501c166101408a0152828260581c166101608a0152828260601c166101808a0152828260681c166101a08a0152828260701c166101c08a0152828260781c166101e08a0152828260801c166102008a0152828260881c166102208a0152828260901c166102408a0152828260981c166102608a01521c16610280870152828260a81c166102a0870152828260b01c166102c0870152828260b81c166102e08701521c16610300840152808260c81c16610320840152808260d01c16610340840152808260d81c16610360840152808260e01c16610380840152808260e81c166103a08401528160f01c166103c083015260f81c6103e0820152019401920184929391610df1565b82546001600160a01b0316845260209093019260019283019201610db7565b5060008052604060002090610d66565b506020813d60201161184a575b81611838602093836125b1565b81010312610ada57610d219051610d14565b3d915061182b565b6040513d86823e3d90fd5b50346103155780600319360112610315576040517029a1a422a22aa622a22fa0aaa1aa24a7a760791b8152602090f35b5034610315578060031936011261031557609e546040516001600160a01b039091168152602090f35b50346103155780600319360112610315576098546040516001600160a01b039091168152602090f35b50346103155780600319360112610315576033546040516001600160a01b039091168152602090f35b50346103155780600319360112610315576119216124da565b603380546001600160a01b031981169091556000906001600160a01b03167f8be0079c531659141344cd1fd0a4f28419497f9722a3daafe3b4186f6b6457e08280a380f35b5034610315578060031936011261031557602060ff60a05460a01c16604051908152f35b503461031557806003193601126103155760a0546040516001600160a01b039091168152602090f35b5034610315578060031936011261031557609d546040516001600160a01b039091168152602090f35b50346103155760c0366003190112610315576119f6612436565b6119fe61244c565b6001600160401b0390608435828111610bdf57611a1f9036906004016124aa565b909260a435908111611db257611a399036906004016124aa565b919093611a44612640565b611a5060243587613952565b611a5c60243587612de6565b8115610b8a576005808311610b3957838303610adf578788915b858310611d8157506064915003610a59576001600160a01b03868116885260a560209081526040808a206024358b528252808a209287168a52919052808820905190611ac182612532565b60018060a01b03815416825260ff6003600183015492836020860152600281015460408601520154818116606085015260081c161515608083015215611d3c57606435602082015103611cdf5760018060a01b038716885260a460205260408820602435895260205260408820888052602052611b4060408920612d7c565b6001600160a01b03878116808a5260a560209081526040808c206024358d528252808c208985168d529091528a20600080825560018201819055600282018190556003909101558251909116903b15611cdb57604051632142170760e11b8152336004820152602480820192909252903560448201528881606481836001600160a01b038d165af18015611cd057611cbd575b50611bfc611be23685856137e5565b611bed36878a613849565b9033606435896024358d612f67565b60975488906001600160a01b0316803b156111e957604051635a3c652d60e01b81526001600160a01b038a1660048201526024803590820152600160448201529082908290606490829084905af180156111de57611ca5575b50505160405133976001600160a01b03928316979216957f97c3d2068ce177bc33d84acecc45eededcf298c4a9d4340ae03d4afbb3993f7b95919485946111bb949260243590606435908861389f565b611cae9061254d565b611cb9578738611c55565b8780fd5b611cc99098919861254d565b9638611bd3565b6040513d8b823e3d90fd5b8880fd5b60405162461bcd60e51b815260206004820152602f60248201527f6163636570744f666665723a3a4f6666657220616d6f756e74206f722063757260448201526e1c995b98de481b9bdd08195c5d585b608a1b6064820152608490fd5b60405162461bcd60e51b815260206004820152601c60248201527f6163636570744f666665723a3a4e6f206f6666657220657869737473000000006044820152606490fd5b9082821b8801359060ff8216809203611dae57611da791611da1916125fb565b92612f58565b9190611a76565b8a80fd5b8580fd5b50346103155780600319360112610315576099546040516001600160a01b039091168152602090f35b5034610315578060031936011261031557609b546040516001600160a01b039091168152602090f35b50346103155760a09060ff6040611e1e36612476565b90600180889794971b03809616835260a56020528383209083526020528483832091168252602052209182541691600181015490600360028201549101549160405194855260208501526040840152818116606084015260081c1615156080820152f35b5034610315576040366003190112610315576080906001600160a01b039060409082611eac612436565b16815260a760205281812060243582526020522081815416916001820154169060ff600360028301549201541691604051938452602084015260408301526060820152f35b5034610315576060906040611f0536612476565b9060018060a09694961b03809516835260a4602052838320908352602052838383209116825260205220600282825416926001830154169101549060405192835260208301526040820152f35b5034610315578060031936011261031557602090604051908152f35b5060a036600319011261031557611f83612436565b611f8b61244c565b608435908115158092036111da57611fa1612640565b611faa816126ae565b60643591821561233e5760018060a01b0380941691828652602060a581526040872091602435928389528252604088209680821697888a5283526040892060405191611ff583612532565b80825416835260018201546003868501938285526002810154604087015201549261204c60ff92836060880196818116885260081c161515608088015260646120458560a05460a01c16836125d2565b04906125fb565b8b106122db578c8360975416888d6024604051809481936361fe24a960e11b835260048301525afa91821561229c57916122a8575b5061208f61209f918d6125fb565b612099818961277e565b8761286a565b6040516331a9108f60e11b8152600481018990528d9088816024818f5afa91821561229c579161227f575b508316331461222e579082918d8860049897969560975416604051998a8092638347592160e01b82525afa97881561222157838f8f8f908f949c8f918f6121b19f986003968d92899b83966121ed575b5060409394959684519861212d8a612532565b338a52828a01978852858a0198428a5260608b019e8f9116905260808a019c8d52845260a58252848420908452815283832091835252209351166bffffffffffffffffffffffff60a01b8454161783555160018301555160028201550192511661ff0083549251151560081b169161ffff1916171790555192511692511692612c8b565b60405194855284015260408301527facbe96367816f728b84abf006ca777225b704072592132845e9a3dbd7b02369160603393a4600160655580f35b60409495965061221290823d841161221a575b61220a81836125b1565b810190612627565b95949361211a565b503d612200565b50604051903d90823e3d90fd5b60405162461bcd60e51b815260048101889052602360248201527f6f666665723a3a4f666665722063616e6e6f7420636f6d652066726f6d206f776044820152623732b960e91b6064820152608490fd5b6122969150883d8a11610303576102f581836125b1565b386120ca565b604051903d90823e3d90fd5b90508781813d83116122d4575b6122bf81836125b1565b810103126122d0575161208f612081565b8d80fd5b503d6122b5565b60405162461bcd60e51b815260048101889052603560248201527f6f666665723a3a4d7573742062652067726561746572207468616e2070726576604482015274206f66666572202b206d696e20696e63726561736560581b6064820152608490fd5b60405162461bcd60e51b815260206004820152601960248201527f6f666665723a3a416d6f756e742063616e6e6f742062652030000000000000006044820152606490fd5b5034610315578060031936011261031557602060a154604051908152f35b5034610315578060031936011261031557609c546040516001600160a01b039091168152602090f35b5034610315578060031936011261031557602060a354604051908152f35b5034610315578060031936011261031557609a546040516001600160a01b039091168152602090f35b9050346111e957816003193601126111e957609f546001600160a01b03168152602090f35b600435906001600160a01b0382168203610ada57565b604435906001600160a01b0382168203610ada57565b35906001600160a01b0382168203610ada57565b6060906003190112610ada576001600160a01b036004358181168103610ada5791602435916044359081168103610ada5790565b9181601f84011215610ada578235916001600160401b038311610ada576020808501948460051b010111610ada57565b6033546001600160a01b031633036124ee57565b606460405162461bcd60e51b815260206004820152602060248201527f4f776e61626c653a2063616c6c6572206973206e6f7420746865206f776e65726044820152fd5b60a081019081106001600160401b038211176109e157604052565b6001600160401b0381116109e157604052565b602081019081106001600160401b038211176109e157604052565b604081019081106001600160401b038211176109e157604052565b606081019081106001600160401b038211176109e157604052565b90601f801991011681019081106001600160401b038211176109e157604052565b818102929181159184041417156125e557565b634e487b7160e01b600052601160045260246000fd5b919082018092116125e557565b90816020910312610ada57516001600160a01b0381168103610ada5790565b90816020910312610ada575160ff81168103610ada5790565b600260655414612651576002606555565b60405162461bcd60e51b815260206004820152601f60248201527f5265656e7472616e637947756172643a207265656e7472616e742063616c6c006044820152606490fd5b90816020910312610ada57518015158103610ada5790565b6001600160a01b039081168015918215612709575b5050156126cc57565b60405162461bcd60e51b81526020600482015260156024820152744e6f7420617070726f7665642063757272656e637960581b6044820152606490fd5b6020919250609d541691602460405180948193632d5ad3d560e01b835260048301525afa90811561277257600091612744575b5038806126c3565b612765915060203d811161276b575b61275d81836125b1565b810190612696565b3861273c565b503d612753565b6040513d6000823e3d90fd5b6001600160a01b0316801561285957604051636eb1769f60e11b815233600482015230602482015290602090829060449082905afa90811561277257600091612828575b50106127ca57565b60405162461bcd60e51b815260206004820152603060248201527f73656e646572206e6565647320746f20617070726f7665206d61726b6574706c60448201526f61636520666f722063757272656e637960801b6064820152608490fd5b906020823d8211612851575b81612841602093836125b1565b81010312610315575051386127c2565b3d9150612834565b5050565b919082039182116125e557565b6001600160a01b0316908115612a3b57346129e55760409081516370a0823160e01b938482523060048301526020948583602481855afa9283156129da579086916000946129a8575b5085516323b872dd60e01b83820152336024820152306044820152606481018690526128f6906128f081608481015b03601f1981018352826125b1565b84612a80565b602486518094819382523060048301525afa90811561299d5760009161296e575b50906129229161285d565b0361292b575050565b60649250519062461bcd60e51b82526004820152601c60248201527f6e6f7420656e6f75676820746f6b656e73207472616e736665726564000000006044820152fd5b908582813d8311612996575b61298481836125b1565b81010312610315575051612922612917565b503d61297a565b84513d6000823e3d90fd5b9182819592953d83116129d3575b6129c081836125b1565b81010312610315575085905192386128b3565b503d6129b6565b85513d6000823e3d90fd5b60405162461bcd60e51b815260206004820152602860248201527f6d73672e76616c75652073686f756c642062652030207768656e206e6f7420756044820152670e6d2dcce40cae8d60c31b6064820152608490fd5b90503403612a4557565b60405162461bcd60e51b81526020600482015260136024820152721b9bdd08195b9bdd59da08195d1a081cd95b9d606a1b6044820152606490fd5b604051612ade916001600160a01b0316612a998261257b565b6000806020958685527f5361666545524332303a206c6f772d6c6576656c2063616c6c206661696c656487860152868151910182855af1612ad8612b66565b91612ba5565b805190828215928315612b4e575b50505015612af75750565b6084906040519062461bcd60e51b82526004820152602a60248201527f5361666545524332303a204552433230206f7065726174696f6e20646964206e6044820152691bdd081cdd58d8d9595960b21b6064820152fd5b612b5e9350820181019101612696565b388281612aec565b3d15612ba0573d906001600160401b0382116109e15760405191612b94601f8201601f1916602001846125b1565b82523d6000602084013e565b606090565b91929015612c075750815115612bb9575090565b3b15612bc25790565b60405162461bcd60e51b815260206004820152601d60248201527f416464726573733a2063616c6c20746f206e6f6e2d636f6e74726163740000006044820152606490fd5b825190915015612c1a5750805190602001fd5b60405162461bcd60e51b8152908190612c369060048301612c3a565b0390fd5b6020808252825181830181905290939260005b828110612c6f57505060409293506000838284010152601f8019910116010190565b818101860151848201604001528501612c4d565b15612c1a5750565b9291908015612d1e576064612045612ca393836125d2565b6001600160a01b039290919083168015612cc357612cc19350612d24565b565b50609e5460405163410085df60e01b602082019081526001600160a01b03909316602482015260448101849052612cc1946000948594939091169291612d0c81606481016128e2565b51925af1612d18612b66565b90612c83565b50505050565b60405163a9059cbb60e01b60208201526001600160a01b03929092166024830152604480830193909352918152612cc191612d606064836125b1565b612a80565b818110612d70575050565b60008155600101612d65565b600460009182815582600182015582600282015560038101805484825580612dcc575b5050019081549080835581612db357505050565b602081612cc194601f935220910160051c810190612d65565b612ddf9185526020852090810190612d65565b3880612d9f565b60018060a01b0316604051916331a9108f60e11b835260048301526020918281602481855afa801561277257612e54928492600092612edb575b5060405163e985e9c560e01b81526001600160a01b0390921660048301523060248301529092839190829081906044820190565b03915afa90811561277257600091612ebe575b5015612e705750565b6084906040519062461bcd60e51b82526004820152602160248201527f6f776e6572206d757374206861766520617070726f76656420636f6e747261636044820152601d60fa1b6064820152fd5b612ed59150823d841161276b5761275d81836125b1565b38612e67565b612ef3919250833d8511610303576102f581836125b1565b9038612e20565b6001600160401b0381116109e15760051b60200190565b805115612f1e5760200190565b634e487b7160e01b600052603260045260246000fd5b805160011015612f1e5760400190565b8051821015612f1e5760209160051b010190565b60001981146125e55760010190565b90969293919594968751865103613664576097546040516361fe24a960e11b81526004810187905286946001600160a01b039092169290602081602481875afa90811561277257600091613632575b5060405193612fc485612596565b60028552604036602087013760a0546001600160a01b031680612fe687612f11565b52609f5460405163e286ef3360e01b81526001600160a01b038781166004830152909160209183916024918391165afa90811561277257600091613613575b506001600160a01b031661303887612f34565b526001600160a01b0361304a87612f34565b51166135fa575b61305a86612f34565b6001600160a01b0390911690526040519061307482612596565b6002825260403660208401376040516303fdde1160e21b8152600481018b9052602081602481855afa908115612772576000916135c8575b506130b683612f11565b5260208a60246040518094819363470d6ed960e11b835260048301525afa92831561277257869160009461358d575b506130fa936130f384612f34565b528c613702565b609754604051631446f21360e21b81526001600160a01b03868116600483015260248201849052909160209183916044918391165afa9081156127725760009161356e575b5061339c5750604051926131528461257b565b60018452602036818601376040519261316a8461257b565b60018452602036818601376001600160a01b039061318790612f11565b511661319284612f11565b52609c54604051635dc22eff60e01b81526001600160a01b038481166004830152909160209183916024918391165afa9081156127725760009161337d575b501561331d5750609c54604051632260494f60e01b81526001600160a01b0392831660048201529160209183916024918391165afa9081156127725761325b9461323a60ff606494613240946000916132fe575b50169184613233848c6125d2565b049061285d565b976125d2565b0461324a83612f11565b5261325482612f11565b5187613702565b84519061326782612efa565b9161327560405193846125b1565b808352613284601f1991612efa565b01366020840137600095865b81518810156132ee576132e26132e891866120458b806132cf8c6132c760649687926132bf60ff978892612f44565b5116906125d2565b04918b612f44565b526132da8d8c612f44565b5116896125d2565b97612f58565b96613290565b92945092509450612cc193613702565b613317915060203d60201161221a5761220a81836125b1565b38613225565b60975460405163b28a7bad60e01b81526001600160a01b039283166004820152925060209183916024918391165afa908115612772576133789461323a60ff606494613240946000916132fe5750169184613233848c6125d2565b61325b565b613396915060203d60201161276b5761275d81836125b1565b386131d1565b609954604051637a99dc0160e11b81526001600160a01b03958616600482015260248101929092526044820188905295999698909790959094506000938893506064925083918591165af1958615612772576000948597613447575b50600094855b885187101561342b5761341f61342591613418898c612f44565b51906125fb565b96612f58565b956133fe565b9497919396613378939650856134409161285d565b9487613702565b949096503d948582823e61345b86826125b1565b60408187810103126111e95780516001600160401b038111610be357810191868201601f840112156103155782519261349384612efa565b936134a160405195866125b1565b808552602085019189850160208360051b830101116111da5760208101925b60208360051b830101841061354e575050505060208201516001600160401b0381116111e9578201878301601f820112156111e95780519161350183612efa565b9861350f6040519a8b6125b1565b838a526020808b019460051b840101940184116103155750602001905b82821061353e575050509395386133f8565b815181526020918201910161352c565b83516001600160a01b0381168103611db2578152602093840193016134c0565b613587915060203d60201161276b5761275d81836125b1565b3861313f565b915091926020823d6020116135c0575b816135aa602093836125b1565b81010312610315575051919085906130fa6130e5565b3d915061359d565b906020823d6020116135f2575b816135e2602093836125b1565b81010312610315575051386130ac565b3d91506135d5565b506001600160a01b0361360c86612f34565b5116613051565b61362c915060203d602011610303576102f581836125b1565b38613025565b906020823d60201161365c575b8161364c602093836125b1565b8101031261031557505138612fb6565b3d915061363f565b60405162461bcd60e51b815260206004820152603360248201527f4e756d626572206f662073706c69742061646472657373657320616e642072616044820152723a34b7b99036bab9ba1031329032b8bab0b61760691b6064820152608490fd5b90815180825260208080930193019160005b8281106136e5575050505090565b83516001600160a01b0316855293810193928101926001016136d7565b9293929091906001600160a01b039081168061379d5750609e54169160405160206137458183019463c176e63960e01b86526040602485015260648401906136c5565b82810360231901604484015287518082529082019782019160005b8281106137895750505050916000939183612d0c8695612cc1989903601f1981018352826125b1565b83518a529881019892810192600101613760565b9492509060005b81518110156137dd57806137d3846137bf6137d89486612f44565b51166137cb8388612f44565b519089612d24565b612f58565b6137a4565b505050509050565b92916137f082612efa565b916137fe60405193846125b1565b829481845260208094019160051b8101928311610ada57905b8282106138245750505050565b83809161383084612462565b815201910190613817565b359060ff82168203610ada57565b929161385482612efa565b9161386260405193846125b1565b829481845260208094019160051b8101928311610ada57905b8282106138885750505050565b8380916138948461383b565b81520191019061387b565b929480919296979560a085019060018060a01b03809516865260209889870152604086015260a060608601525260c08301939060005b81811061392457505050508082036080909101528181528201929160005b828110613901575050505090565b90919293828060019260ff6139158961383b565b168152019501939291016138f3565b909193929897969485806001928c61393b89612462565b1681520195019101989293949697989190916138d5565b604051916331a9108f60e11b8352600483015260208260248160018060a01b038095165afa918215612772576000926139d6575b503391160361399157565b60405162461bcd60e51b815260206004820152601e60248201527f73656e646572206d7573742062652074686520746f6b656e206f776e657200006044820152606490fd5b6139ef91925060203d8111610303576102f581836125b1565b903861398656fea2646970667358221220c63a82b0c3cf8aef2b5f8e62bc62fc6934a3f10cbca7d47dcd8e66a4e8acbbab64736f6c63430008120033",
    "linkReferences": {}
  },
  "methodIdentifiers": {
    "COLDIE_AUCTION()": "c90b8714",
    "NO_AUCTION()": "155a56b1",
    "SCHEDULED_AUCTION()": "b23afc26",
    "acceptOffer(address,uint256,address,uint256,address[],uint8[])": "534665e9",
    "approvedTokenRegistry()": "6240cd1c",
    "auctionBids(address,uint256)": "299a0e1e",
    "auctionLengthExtension()": "daa26499",
    "buy(address,uint256,address,uint256)": "b3ffb760",
    "cancelOffer(address,uint256,address)": "e92f94d1",
    "marketplaceSettings()": "ba50b632",
    "maxAuctionLength()": "0e519ef9",
    "minimumBidIncreasePercentage()": "6fe9f44c",
    "networkBeneficiary()": "6b534ed0",
    "offer(address,uint256,address,uint256,bool)": "0f2b2532",
    "offerCancelationDelay()": "0a5c4ed5",
    "owner()": "8da5cb5b",
    "payments()": "a6d23e10",
    "removeSalePrice(address,uint256,address)": "f7cfaad0",
    "renounceOwnership()": "715018a6",
    "royaltyEngine()": "4c94c90c",
    "royaltyRegistry()": "a11b0712",
    "setSalePrice(address,uint256,address,uint256,address,address[],uint8[])": "c8f94f4e",
    "spaceOperatorRegistry()": "0bcba09d",
    "stakingRegistry()": "009d9aa9",
    "superRareAuctionHouse()": "3bc3d9be",
    "superRareMarketplace()": "0141c590",
    "tokenAuctions(address,uint256)": "c47c35c1",
    "tokenCurrentOffers(address,uint256,address)": "2c419053",
    "tokenSalePrices(address,uint256,address)": "1a2ac30f",
    "transferOwnership(address)": "f2fde38b"
  },
  "id": 167
}