{
  "abi": [
    {
      "anonymous": false,
      "inputs": [
        {
          "indexed": true,
          "internalType": "address",
          "name": "previousOwner",
          "type": "address"
        },
        {
          "indexed": true,
          "internalType": "address",
          "name": "newOwner",
          "type": "address"
        }
      ],
      "name": "OwnershipTransferred",
      "type": "event"
    },
    {
      "inputs": [
        {
          "internalType": "address",
          "name": "_ownedAddress",
          "type": "address"
        },
        {
          "internalType": "address",
          "name": "_newOwner",
          "type": "address"
        }
      ],
      "name": "migrateThisAsOwner",
      "outputs": [],
      "stateMutability": "nonpayable",
      "type": "function"
    },
    {
      "inputs": [],
      "name": "owner",
      "outputs": [
        {
          "internalType": "address",
          "name": "",
          "type": "address"
        }
      ],
      "stateMutability": "view",
      "type": "function"
    },
    {
      "inputs": [],
      "name": "renounceOwnership",
      "outputs": [],
      "stateMutability": "nonpayable",
      "type": "function"
    },
    {
      "inputs": [
        {
          "internalType": "address",
          "name": "newOwner",
          "type": "address"
        }
      ],
      "name": "transferOwnership",
      "outputs": [],
      "stateMutability": "nonpayable",
      "type": "function"
    },
    {
      "inputs": [],
      "name": "withdraw",
      "outputs": [],
      "stateMutability": "nonpayable",
      "type": "function"
    },
    {
      "stateMutability": "payable",
      "type": "receive"
    }
  ],
  "bytecode": {
    "object": "0x6080806040523461005b5760008054336001600160a01b0319821681178355916001600160a01b03909116907f8be0079c531659141344cd1fd0a4f28419497f9722a3daafe3b4186f6b6457e09080a36103ea90816100618239f35b600080fdfe604060808152600436101561001d575b50361561001b57600080fd5b005b600090813560e01c80633ccfd60b1461024b578063715018a6146101ee5780638da5cb5b146101c7578063bb560cb9146101245763f2fde38b14610061575061000f565b346101205760203660031901126101205761007a610279565b610082610294565b6001600160a01b039081169182156100ce575082546001600160a01b0319811683178455167f8be0079c531659141344cd1fd0a4f28419497f9722a3daafe3b4186f6b6457e08380a380f35b5162461bcd60e51b815260206004820152602660248201527f4f776e61626c653a206e6577206f776e657220697320746865207a65726f206160448201526564647265737360d01b6064820152608490fd5b5080fd5b503461012057806003193601126101205761013d610279565b906024356001600160a01b03811691908290036101c35761015c610294565b805190602082019263f2fde38b60e01b8452602483015260248252606082019082821067ffffffffffffffff8311176101af5752516101ac92849283929183905af16101a66102ec565b9061034d565b80f35b634e487b7160e01b86526041600452602486fd5b8380fd5b5034610120578160031936011261012057905490516001600160a01b039091168152602090f35b8234610248578060031936011261024857610207610294565b80546001600160a01b03198116825581906001600160a01b03167f8be0079c531659141344cd1fd0a4f28419497f9722a3daafe3b4186f6b6457e08280a380f35b80fd5b82346102485780600319360112610248576101ac8180808060018060a01b0381541647905af16101a66102ec565b600435906001600160a01b038216820361028f57565b600080fd5b6000546001600160a01b031633036102a857565b606460405162461bcd60e51b815260206004820152602060248201527f4f776e61626c653a2063616c6c6572206973206e6f7420746865206f776e65726044820152fd5b3d156103485767ffffffffffffffff903d8281116103325760405192601f8201601f19908116603f01168401908111848210176103325760405282523d6000602084013e565b634e487b7160e01b600052604160045260246000fd5b606090565b156103555750565b6040519062461bcd60e51b82528160208060048301528251908160248401526000935b82851061039b575050604492506000838284010152601f80199101168101030190fd5b848101820151868601604401529381019385935061037856fea264697066735822122075114a3d0d9dcb591eaaed233f86e5f995251f2ef8c201bb991e6fd67b194d8664736f6c63430008120033",
    "linkReferences": {}
  },
  "methodIdentifiers": {
    "migrateThisAsOwner(address,address)": "bb560cb9",
    "owner()": "8da5cb5b",
    "renounceOwnership()": "715018a6",
    "transferOwnership(address)": "f2fde38b",
    "withdraw()": "3ccfd60b"
  },
  "id": 222
}