{"abi":[{"type":"function","name":"COLDIE_AUCTION","inputs":[],"outputs":[{"name":"","type":"bytes32","internalType":"bytes32"}],"stateMutability":"view"},{"type":"function","name":"NO_AUCTION","inputs":[],"outputs":[{"name":"","type":"bytes32","internalType":"bytes32"}],"stateMutability":"view"},{"type":"function","name":"SCHEDULED_AUCTION","inputs":[],"outputs":[{"name":"","type":"bytes32","internalType":"bytes32"}],"stateMutability":"view"},{"type":"function","name":"approvedTokenRegistry","inputs":[],"outputs":[{"name":"","type":"address","internalType":"contract IApprovedTokenRegistry"}],"stateMutability":"view"},{"type":"function","name":"auctionBids","inputs":[{"name":"","type":"address","internalType":"address"},{"name":"","type":"uint256","internalType":"uint256"}],"outputs":[{"name":"bidder","type":"address","internalType":"address payable"},{"name":"currencyAddress","type":"address","internalType":"address"},{"name":"amount","type":"uint256","internalType":"uint256"},{"name":"marketplaceFee","type":"uint8","internalType":"uint8"}],"stateMutability":"view"},{"type":"function","name":"auctionLengthExtension","inputs":[],"outputs":[{"name":"","type":"uint256","internalType":"uint256"}],"stateMutability":"view"},{"type":"function","name":"marketplaceSettings","inputs":[],"outputs":[{"name":"","type":"address","internalType":"contract IMarketplaceSettings"}],"stateMutability":"view"},{"type":"function","name":"maxAuctionLength","inputs":[],"outputs":[{"name":"","type":"uint256","internalType":"uint256"}],"stateMutability":"view"},{"type":"function","name":"minimumBidIncreasePercentage","inputs":[],"outputs":[{"name":"","type":"uint8","internalType":"uint8"}],"stateMutability":"view"},{"type":"function","name":"networkBeneficiary","inputs":[],"outputs":[{"name":"","type":"address","internalType":"address"}],"stateMutability":"view"},{"type":"function","name":"offerCancelationDelay","inputs":[],"outputs":[{"name":"","type":"uint256","internalType":"uint256"}],"stateMutability":"view"},{"type":"function","name":"payments","inputs":[],"outputs":[{"name":"","type":"address","internalType":"contract IPayments"}],"stateMutability":"view"},{"type":"function","name":"royaltyEngine","inputs":[],"outputs":[{"name":"","type":"address","internalType":"contract IRoyaltyEngineV1"}],"stateMutability":"view"},{"type":"function","name":"royaltyRegistry","inputs":[],"outputs":[{"name":"","type":"address","internalType":"contract IRoyaltyRegistry"}],"stateMutability":"view"},{"type":"function","name":"spaceOperatorRegistry","inputs":[],"outputs":[{"name":"","type":"address","internalType":"contract ISpaceOperatorRegistry"}],"stateMutability":"view"},{"type":"function","name":"stakingRegistry","inputs":[],"outputs":[{"name":"","type":"address","internalType":"address"}],"stateMutability":"view"},{"type":"function","name":"superRareAuctionHouse","inputs":[],"outputs":[{"name":"","type":"address","internalType":"address"}],"stateMutability":"view"},{"type":"function","name":"superRareMarketplace","inputs":[],"outputs":[{"name":"","type":"address","internalType":"address"}],"stateMutability":"view"},{"type":"function","name":"tokenAuctions","inputs":[{"name":"","type":"address","internalType":"address"},{"name":"","type":"uint256","internalType":"uint256"}],"outputs":[{"name":"auctionCreator","type":"address","internalType":"address payable"},{"name":"creationBlock","type":"uint256","internalType":"uint256"},{"name":"startingTime","type":"uint256","internalType":"uint256"},{"name":"lengthOfAuction","type":"uint256","internalType":"uint256"},{"name":"currencyAddress","type":"address","internalType":"address"},{"name":"minimumBid","type":"uint256","internalType":"uint256"},{"name":"auctionType","type":"bytes32","internalType":"bytes32"}],"stateMutability":"view"},{"type":"function","name":"tokenCurrentOffers","inputs":[{"name":"","type":"address","internalType":"address"},{"name":"","type":"uint256","internalType":"uint256"},{"name":"","type":"address","internalType":"address"}],"outputs":[{"name":"buyer","type":"address","internalType":"address payable"},{"name":"amount","type":"uint256","internalType":"uint256"},{"name":"timestamp","type":"uint256","internalType":"uint256"},{"name":"marketplaceFee","type":"uint8","internalType":"uint8"},{"name":"convertible","type":"bool","internalType":"bool"}],"stateMutability":"view"},{"type":"function","name":"tokenSalePrices","inputs":[{"name":"","type":"address","internalType":"address"},{"name":"","type":"uint256","internalType":"uint256"},{"name":"","type":"address","internalType":"address"}],"outputs":[{"name":"seller","type":"address","internalType":"address payable"},{"name":"currencyAddress","type":"address","internalType":"address"},{"name":"amount","type":"uint256","internalType":"uint256"}],"stateMutability":"view"},{"type":"event","name":"AcceptOffer","inputs":[{"name":"_originContract","type":"address","indexed":true,"internalType":"address"},{"name":"_bidder","type":"address","indexed":true,"internalType":"address"},{"name":"_seller","type":"address","indexed":true,"internalType":"address"},{"name":"_currencyAddress","type":"address","indexed":false,"internalType":"address"},{"name":"_amount","type":"uint256","indexed":false,"internalType":"uint256"},{"name":"_tokenId","type":"uint256","indexed":false,"internalType":"uint256"},{"name":"_splitAddresses","type":"address[]","indexed":false,"internalType":"address payable[]"},{"name":"_splitRatios","type":"uint8[]","indexed":false,"internalType":"uint8[]"}],"anonymous":false},{"type":"event","name":"AuctionBid","inputs":[{"name":"_contractAddress","type":"address","indexed":true,"internalType":"address"},{"name":"_bidder","type":"address","indexed":true,"internalType":"address"},{"name":"_tokenId","type":"uint256","indexed":true,"internalType":"uint256"},{"name":"_currencyAddress","type":"address","indexed":false,"internalType":"address"},{"name":"_amount","type":"uint256","indexed":false,"internalType":"uint256"},{"name":"_startedAuction","type":"bool","indexed":false,"internalType":"bool"},{"name":"_newAuctionLength","type":"uint256","indexed":false,"internalType":"uint256"},{"name":"_previousBidder","type":"address","indexed":false,"internalType":"address"}],"anonymous":false},{"type":"event","name":"AuctionSettled","inputs":[{"name":"_contractAddress","type":"address","indexed":true,"internalType":"address"},{"name":"_bidder","type":"address","indexed":true,"internalType":"address"},{"name":"_seller","type":"address","indexed":false,"internalType":"address"},{"name":"_tokenId","type":"uint256","indexed":true,"internalType":"uint256"},{"name":"_currencyAddress","type":"address","indexed":false,"internalType":"address"},{"name":"_amount","type":"uint256","indexed":false,"internalType":"uint256"}],"anonymous":false},{"type":"event","name":"CancelAuction","inputs":[{"name":"_contractAddress","type":"address","indexed":true,"internalType":"address"},{"name":"_tokenId","type":"uint256","indexed":true,"internalType":"uint256"},{"name":"_auctionCreator","type":"address","indexed":true,"internalType":"address"}],"anonymous":false},{"type":"event","name":"CancelOffer","inputs":[{"name":"_originContract","type":"address","indexed":true,"internalType":"address"},{"name":"_bidder","type":"address","indexed":true,"internalType":"address"},{"name":"_currencyAddress","type":"address","indexed":true,"internalType":"address"},{"name":"_amount","type":"uint256","indexed":false,"internalType":"uint256"},{"name":"_tokenId","type":"uint256","indexed":false,"internalType":"uint256"}],"anonymous":false},{"type":"event","name":"NewAuction","inputs":[{"name":"_contractAddress","type":"address","indexed":true,"internalType":"address"},{"name":"_tokenId","type":"uint256","indexed":true,"internalType":"uint256"},{"name":"_auctionCreator","type":"address","indexed":true,"internalType":"address"},{"name":"_currencyAddress","type":"address","indexed":false,"internalType":"address"},{"name":"_startingTime","type":"uint256","indexed":false,"internalType":"uint256"},{"name":"_minimumBid","type":"uint256","indexed":false,"internalType":"uint256"},{"name":"_lengthOfAuction","type":"uint256","indexed":false,"internalType":"uint256"}],"anonymous":false},{"type":"event","name":"OfferPlaced","inputs":[{"name":"_originContract","type":"address","indexed":true,"internalType":"address"},{"name":"_bidder","type":"address","indexed":true,"internalType":"address"},{"name":"_currencyAddress","type":"address","indexed":true,"internalType":"address"},{"name":"_amount","type":"uint256","indexed":false,"internalType":"uint256"},{"name":"_tokenId","type":"uint256","indexed":false,"internalType":"uint256"},{"name":"_convertible","type":"bool","indexed":false,"internalType":"bool"}],"anonymous":false},{"type":"event","name":"SetSalePrice","inputs":[{"name":"_originContract","type":"address","indexed":true,"internalType":"address"},{"name":"_currencyAddress","type":"address","indexed":true,"internalType":"address"},{"name":"_target","type":"address","indexed":false,"internalType":"address"},{"name":"_amount","type":"uint256","indexed":false,"internalType":"uint256"},{"name":"_tokenId","type":"uint256","indexed":false,"internalType":"uint256"},{"name":"_splitRecipients","type":"address[]","indexed":false,"internalType":"address payable[]"},{"name":"_splitRatios","type":"uint8[]","indexed":false,"internalType":"uint8[]"}],"anonymous":false},{"type":"event","name":"Sold","inputs":[{"name":"_originContract","type":"address","indexed":true,"internalType":"address"},{"name":"_buyer","type":"address","indexed":true,"internalType":"address"},{"name":"_seller","type":"address","indexed":true,"internalType":"address"},{"name":"_currencyAddress","type":"address","indexed":false,"internalType":"address"},{"name":"_amount","type":"uint256","indexed":false,"internalType":"uint256"},{"name":"_tokenId","type":"uint256","indexed":false,"internalType":"uint256"}],"anonymous":false}],"bytecode":{"object":"0x608060405234801561001057600080fd5b50610585806100206000396000f3fe608060405234801561001057600080fd5b50600436106101365760003560e01c80634c94c90c116100b8578063a6d23e101161007c578063a6d23e10146103c2578063b23afc26146103d5578063ba50b632146103f0578063c47c35c114610403578063c90b8714146104ac578063daa26499146104c457600080fd5b80634c94c90c146103505780636240cd1c146103635780636b534ed0146103765780636fe9f44c14610389578063a11b0712146103af57600080fd5b8063155a56b1116100ff578063155a56b1146101b15780631a2ac30f146101b9578063299a0e1e1461022c5780632c419053146102aa5780633bc3d9be1461033d57600080fd5b80629d9aa91461013b5780630141c5901461016b5780630a5c4ed51461017e5780630bcba09d146101955780630e519ef9146101a8575b600080fd5b60085461014e906001600160a01b031681565b6040516001600160a01b0390911681526020015b60405180910390f35b60035461014e906001600160a01b031681565b610187600c5481565b604051908152602001610162565b60055461014e906001600160a01b031681565b610187600a5481565b610187600081565b6102066101c73660046104e9565b600d6020908152600093845260408085208252928452828420905282529020805460018201546002909201546001600160a01b03918216929091169083565b604080516001600160a01b03948516815293909216602084015290820152606001610162565b61027c61023a366004610525565b601060209081526000928352604080842090915290825290208054600182015460028301546003909301546001600160a01b0392831693919092169160ff1684565b604080516001600160a01b0395861681529490931660208501529183015260ff166060820152608001610162565b6103066102b83660046104e9565b600e60209081526000938452604080852082529284528284209052825290208054600182015460028301546003909301546001600160a01b0390921692909160ff8082169161010090041685565b604080516001600160a01b03909616865260208601949094529284019190915260ff1660608301521515608082015260a001610162565b60045461014e906001600160a01b031681565b60025461014e906001600160a01b031681565b60065461014e906001600160a01b031681565b60095461014e906001600160a01b031681565b60095461039d90600160a01b900460ff1681565b60405160ff9091168152602001610162565b60015461014e906001600160a01b031681565b60075461014e906001600160a01b031681565b6101877029a1a422a22aa622a22fa0aaa1aa24a7a760791b81565b60005461014e906001600160a01b031681565b610465610411366004610525565b600f60209081526000928352604080842090915290825290208054600182015460028301546003840154600485015460058601546006909601546001600160a01b0395861696949593949293909116919087565b604080516001600160a01b03988916815260208101979097528601949094526060850192909252909316608083015260a082019290925260c081019190915260e001610162565b6101876d21a7a62224a2afa0aaa1aa24a7a760911b81565b610187600b5481565b80356001600160a01b03811681146104e457600080fd5b919050565b6000806000606084860312156104fe57600080fd5b610507846104cd565b92506020840135915061051c604085016104cd565b90509250925092565b6000806040838503121561053857600080fd5b610541836104cd565b94602093909301359350505056fea264697066735822122026145b98e5c67090da553f7306efb619143056ee9c07d1b6aa8f3d66adf4143464736f6c63430008120033","linkReferences":{}},"methodIdentifiers":{"COLDIE_AUCTION()":"c90b8714","NO_AUCTION()":"155a56b1","SCHEDULED_AUCTION()":"b23afc26","approvedTokenRegistry()":"6240cd1c","auctionBids(address,uint256)":"299a0e1e","auctionLengthExtension()":"daa26499","marketplaceSettings()":"ba50b632","maxAuctionLength()":"0e519ef9","minimumBidIncreasePercentage()":"6fe9f44c","networkBeneficiary()":"6b534ed0","offerCancelationDelay()":"0a5c4ed5","payments()":"a6d23e10","royaltyEngine()":"4c94c90c","royaltyRegistry()":"a11b0712","spaceOperatorRegistry()":"0bcba09d","stakingRegistry()":"009d9aa9","superRareAuctionHouse()":"3bc3d9be","superRareMarketplace()":"0141c590","tokenAuctions(address,uint256)":"c47c35c1","tokenCurrentOffers(address,uint256,address)":"2c419053","tokenSalePrices(address,uint256,address)":"1a2ac30f"},"id":132}