{"abi":[{"type":"constructor","inputs":[{"name":"_superRareV2Contract","type":"address","internalType":"address"}],"stateMutability":"nonpayable"},{"type":"function","name":"DEFAULT_ADMIN_ROLE","inputs":[],"outputs":[{"name":"","type":"bytes32","internalType":"bytes32"}],"stateMutability":"view"},{"type":"function","name":"SUPER_RARE_WHITELIST_ROLE","inputs":[],"outputs":[{"name":"","type":"bytes32","internalType":"bytes32"}],"stateMutability":"view"},{"type":"function","name":"addToWhitelist","inputs":[{"name":"_newAddress","type":"address","internalType":"address"}],"outputs":[],"stateMutability":"nonpayable"},{"type":"function","name":"getRoleAdmin","inputs":[{"name":"role","type":"bytes32","internalType":"bytes32"}],"outputs":[{"name":"","type":"bytes32","internalType":"bytes32"}],"stateMutability":"view"},{"type":"function","name":"grantRole","inputs":[{"name":"role","type":"bytes32","internalType":"bytes32"},{"name":"account","type":"address","internalType":"address"}],"outputs":[],"stateMutability":"nonpayable"},{"type":"function","name":"hasRole","inputs":[{"name":"role","type":"bytes32","internalType":"bytes32"},{"name":"account","type":"address","internalType":"address"}],"outputs":[{"name":"","type":"bool","internalType":"bool"}],"stateMutability":"view"},{"type":"function","name":"owner","inputs":[],"outputs":[{"name":"","type":"address","internalType":"address"}],"stateMutability":"view"},{"type":"function","name":"removeFromWhitelist","inputs":[{"name":"_removedAddress","type":"address","internalType":"address"}],"outputs":[],"stateMutability":"nonpayable"},{"type":"function","name":"renounceOwnership","inputs":[],"outputs":[],"stateMutability":"nonpayable"},{"type":"function","name":"renounceRole","inputs":[{"name":"role","type":"bytes32","internalType":"bytes32"},{"name":"account","type":"address","internalType":"address"}],"outputs":[],"stateMutability":"nonpayable"},{"type":"function","name":"revokeRole","inputs":[{"name":"role","type":"bytes32","internalType":"bytes32"},{"name":"account","type":"address","internalType":"address"}],"outputs":[],"stateMutability":"nonpayable"},{"type":"function","name":"superRareV2Contract","inputs":[],"outputs":[{"name":"","type":"address","internalType":"address"}],"stateMutability":"view"},{"type":"function","name":"supportsInterface","inputs":[{"name":"interfaceId","type":"bytes4","internalType":"bytes4"}],"outputs":[{"name":"","type":"bool","internalType":"bool"}],"stateMutability":"view"},{"type":"function","name":"transferOwnership","inputs":[{"name":"newOwner","type":"address","internalType":"address"}],"outputs":[],"stateMutability":"nonpayable"},{"type":"function","name":"transferOwnershipOfSuperRareV2","inputs":[{"name":"_newOwner","type":"address","internalType":"address"}],"outputs":[],"stateMutability":"nonpayable"},{"type":"event","name":"OwnershipTransferred","inputs":[{"name":"previousOwner","type":"address","indexed":true,"internalType":"address"},{"name":"newOwner","type":"address","indexed":true,"internalType":"address"}],"anonymous":false},{"type":"event","name":"RoleAdminChanged","inputs":[{"name":"role","type":"bytes32","indexed":true,"internalType":"bytes32"},{"name":"previousAdminRole","type":"bytes32","indexed":true,"internalType":"bytes32"},{"name":"newAdminRole","type":"bytes32","indexed":true,"internalType":"bytes32"}],"anonymous":false},{"type":"event","name":"RoleGranted","inputs":[{"name":"role","type":"bytes32","indexed":true,"internalType":"bytes32"},{"name":"account","type":"address","indexed":true,"internalType":"address"},{"name":"sender","type":"address","indexed":true,"internalType":"address"}],"anonymous":false},{"type":"event","name":"RoleRevoked","inputs":[{"name":"role","type":"bytes32","indexed":true,"internalType":"bytes32"},{"name":"account","type":"address","indexed":true,"internalType":"address"},{"name":"sender","type":"address","indexed":true,"internalType":"address"}],"anonymous":false}],"bytecode":{"object":"0x60803461011657601f610d4138819003918201601f191683019291906001600160401b0384118385101761011b57816020928492604096875283398101031261011657516001600160a01b0390818116908190036101165760008054336001600160a01b03198083168217845592949091167f8be0079c531659141344cd1fd0a4f28419497f9722a3daafe3b4186f6b6457e08580a36002541617600255808052600160205281812033825260205260ff8282205416156100c9575b5051610c0f90816101328239f35b8080526001602052818120338252602052818120600160ff19825416179055339033907f2f8788117e7eff1d82e926ec794901d17c78024a50270940304540a733656f0d8180a4386100bb565b600080fd5b634e487b7160e01b600052604160045260246000fdfe6080604081815260048036101561001557600080fd5b600092833560e01c90816301ffc9a714610612575080631570c64f146105b757806316ac5f561461057c578063248a9ca3146105535780632f2ff15d146104a757806336568abe14610415578063715018a6146103bb5780637eedb183146103925780638ab1d681146102ff5780638da5cb5b146102d757806391d1485414610291578063a217fddf14610276578063d547741f1461023c578063e43252d71461018d5763f2fde38b146100c857600080fd5b34610189576020366003190112610189576100e1610666565b906100ea610aaa565b6001600160a01b0391821692831561013757505082546001600160a01b0319811683178455167f8be0079c531659141344cd1fd0a4f28419497f9722a3daafe3b4186f6b6457e08380a380f35b906020608492519162461bcd60e51b8352820152602660248201527f4f776e61626c653a206e6577206f776e657220697320746865207a65726f206160448201526564647265737360d01b6064820152fd5b8280fd5b505034610238578160203660031901126102355780610232926101ae610666565b7f9099625456168fa1014632039545443bfd375a6a89598f9953c299c9a35fc316835260016020528183203384526020526101ee60ff8385205416610b29565b8260018060a01b038060025416935190602082019363e43252d760e01b855216602482015260248152610220816109b4565b51925af161022c610b75565b90610bb5565b80f35b80fd5b5080fd5b50903461018957806003193601126101895761023291356102716001610260610681565b938387528160205286200154610697565b610a34565b50503461023857816003193601126102385751908152602090f35b50346101895781600319360112610189578160209360ff926102b1610681565b90358252600186528282206001600160a01b039091168252855220549151911615158152f35b505034610238578160031936011261023857905490516001600160a01b039091168152602090f35b50503461023857816020366003190112610235578061023292610320610666565b7f9099625456168fa1014632039545443bfd375a6a89598f9953c299c9a35fc3168352600160205281832033845260205261036060ff8385205416610b29565b8260018060a01b0380600254169351906020820193638ab1d68160e01b855216602482015260248152610220816109b4565b50503461023857816003193601126102385760025490516001600160a01b039091168152602090f35b83346102355780600319360112610235576103d4610aaa565b80546001600160a01b03198116825581906001600160a01b03167f8be0079c531659141344cd1fd0a4f28419497f9722a3daafe3b4186f6b6457e08280a380f35b50829034610238578260031936011261023857610430610681565b90336001600160a01b0383160361044c57906102329135610a34565b608490602085519162461bcd60e51b8352820152602f60248201527f416363657373436f6e74726f6c3a2063616e206f6e6c792072656e6f756e636560448201526e103937b632b9903337b91039b2b63360891b6064820152fd5b503461018957816003193601126101895735906104c2610681565b9082845260016020526104da60018286200154610697565b828452600160209081528185206001600160a01b039093168086529290528084205460ff1615610508578380f35b82845260016020528084208285526020528320600160ff1982541617905533917f2f8788117e7eff1d82e926ec794901d17c78024a50270940304540a733656f0d8480a43880808380f35b503461018957602036600319011261018957816020936001923581528285522001549051908152f35b505034610238578160031936011261023857602090517f9099625456168fa1014632039545443bfd375a6a89598f9953c299c9a35fc3168152f35b505034610238578160203660031901126102355780610232926105d8610666565b6105e0610aaa565b8260018060a01b038060025416935190602082019363f2fde38b60e01b855216602482015260248152610220816109b4565b92505034610189576020366003190112610189573563ffffffff60e01b81168091036101895760209250637965db0b60e01b8114908115610655575b5015158152f35b6301ffc9a760e01b1490503861064e565b600435906001600160a01b038216820361067c57565b600080fd5b602435906001600160a01b038216820361067c57565b6000818152600190602091808352604093848320338452845260ff8584205416156106c3575050505050565b845133916106d0826109b4565b602a8252858201928736853782511561097d5760308453825185101561097d576078602184015360295b85811161091357506108d1578651936080850185811067ffffffffffffffff8211176108bd578852604285528685019560603688378551156108a9576030875385518210156108a95790607860218701536041915b81831161083b575050506107f9579385936107df936107d06048946107a77f416363657373436f6e74726f6c3a206163636f756e7420000000000000000000996107f59b519a8b978801525180926037880190610991565b8401917001034b99036b4b9b9b4b733903937b6329607d1b603784015251809386840190610991565b010360288101855201836109e6565b5162461bcd60e51b815291829160048301610a08565b0390fd5b60648587519062461bcd60e51b825280600483015260248201527f537472696e67733a20686578206c656e67746820696e73756666696369656e746044820152fd5b909192600f81166010811015610895576f181899199a1a9b1b9c1cb0b131b232b360811b901a61086b8589610b02565b5360041c9280156108815760001901919061074f565b634e487b7160e01b82526011600452602482fd5b634e487b7160e01b83526032600452602483fd5b634e487b7160e01b81526032600452602490fd5b634e487b7160e01b87526041600452602487fd5b60648688519062461bcd60e51b825280600483015260248201527f537472696e67733a20686578206c656e67746820696e73756666696369656e746044820152fd5b90600f81166010811015610969576f181899199a1a9b1b9c1cb0b131b232b360811b901a6109418386610b02565b5360041c90801561095557600019016106fa565b634e487b7160e01b87526011600452602487fd5b634e487b7160e01b88526032600452602488fd5b634e487b7160e01b86526032600452602486fd5b60005b8381106109a45750506000910152565b8181015183820152602001610994565b6060810190811067ffffffffffffffff8211176109d057604052565b634e487b7160e01b600052604160045260246000fd5b90601f8019910116810190811067ffffffffffffffff8211176109d057604052565b60409160208252610a288151809281602086015260208686019101610991565b601f01601f1916010190565b906000918083526001602052604083209160018060a01b03169182845260205260ff604084205416610a6557505050565b8083526001602052604083208284526020526040832060ff1981541690557ff6391f5c32d9c69d2a47ea670b442974b53935d1edc7fd64eb21e047a839171b339380a4565b6000546001600160a01b03163303610abe57565b606460405162461bcd60e51b815260206004820152602060248201527f4f776e61626c653a2063616c6c6572206973206e6f7420746865206f776e65726044820152fd5b908151811015610b13570160200190565b634e487b7160e01b600052603260045260246000fd5b15610b3057565b60405162461bcd60e51b815260206004820152601a60248201527f646f65736e7420686176652077686974656c69737420726f6c650000000000006044820152606490fd5b3d15610bb0573d9067ffffffffffffffff82116109d05760405191610ba4601f8201601f1916602001846109e6565b82523d6000602084013e565b606090565b15610bbd5750565b60405162461bcd60e51b81529081906107f59060048301610a0856fea26469706673582212208ff40ae8f023ddb880568ef3f96299f7a599e5c986e66ca3dfe6420e7a40377164736f6c63430008120033","linkReferences":{}},"methodIdentifiers":{"DEFAULT_ADMIN_ROLE()":"a217fddf","SUPER_RARE_WHITELIST_ROLE()":"16ac5f56","addToWhitelist(address)":"e43252d7","getRoleAdmin(bytes32)":"248a9ca3","grantRole(bytes32,address)":"2f2ff15d","hasRole(bytes32,address)":"91d14854","owner()":"8da5cb5b","removeFromWhitelist(address)":"8ab1d681","renounceOwnership()":"715018a6","renounceRole(bytes32,address)":"36568abe","revokeRole(bytes32,address)":"d547741f","superRareV2Contract()":"7eedb183","supportsInterface(bytes4)":"01ffc9a7","transferOwnership(address)":"f2fde38b","transferOwnershipOfSuperRareV2(address)":"1570c64f"},"id":218}