{"abi":[{"type":"function","name":"COLDIE_AUCTION","inputs":[],"outputs":[{"name":"","type":"bytes32","internalType":"bytes32"}],"stateMutability":"view"},{"type":"function","name":"NO_AUCTION","inputs":[],"outputs":[{"name":"","type":"bytes32","internalType":"bytes32"}],"stateMutability":"view"},{"type":"function","name":"SCHEDULED_AUCTION","inputs":[],"outputs":[{"name":"","type":"bytes32","internalType":"bytes32"}],"stateMutability":"view"},{"type":"function","name":"approvedTokenRegistry","inputs":[],"outputs":[{"name":"","type":"address","internalType":"contract IApprovedTokenRegistry"}],"stateMutability":"view"},{"type":"function","name":"auctionBids","inputs":[{"name":"","type":"address","internalType":"address"},{"name":"","type":"uint256","internalType":"uint256"}],"outputs":[{"name":"bidder","type":"address","internalType":"address payable"},{"name":"currencyAddress","type":"address","internalType":"address"},{"name":"amount","type":"uint256","internalType":"uint256"},{"name":"marketplaceFee","type":"uint8","internalType":"uint8"}],"stateMutability":"view"},{"type":"function","name":"auctionLengthExtension","inputs":[],"outputs":[{"name":"","type":"uint256","internalType":"uint256"}],"stateMutability":"view"},{"type":"function","name":"bid","inputs":[{"name":"_originContract","type":"address","internalType":"address"},{"name":"_tokenId","type":"uint256","internalType":"uint256"},{"name":"_currencyAddress","type":"address","internalType":"address"},{"name":"_amount","type":"uint256","internalType":"uint256"}],"outputs":[],"stateMutability":"payable"},{"type":"function","name":"cancelAuction","inputs":[{"name":"_originContract","type":"address","internalType":"address"},{"name":"_tokenId","type":"uint256","internalType":"uint256"}],"outputs":[],"stateMutability":"nonpayable"},{"type":"function","name":"configureAuction","inputs":[{"name":"_auctionType","type":"bytes32","internalType":"bytes32"},{"name":"_originContract","type":"address","internalType":"address"},{"name":"_tokenId","type":"uint256","internalType":"uint256"},{"name":"_startingAmount","type":"uint256","internalType":"uint256"},{"name":"_currencyAddress","type":"address","internalType":"address"},{"name":"_lengthOfAuction","type":"uint256","internalType":"uint256"},{"name":"_startTime","type":"uint256","internalType":"uint256"},{"name":"_splitAddresses","type":"address[]","internalType":"address payable[]"},{"name":"_splitRatios","type":"uint8[]","internalType":"uint8[]"}],"outputs":[],"stateMutability":"nonpayable"},{"type":"function","name":"convertOfferToAuction","inputs":[{"name":"_originContract","type":"address","internalType":"address"},{"name":"_tokenId","type":"uint256","internalType":"uint256"},{"name":"_currencyAddress","type":"address","internalType":"address"},{"name":"_amount","type":"uint256","internalType":"uint256"},{"name":"_lengthOfAuction","type":"uint256","internalType":"uint256"},{"name":"_splitAddresses","type":"address[]","internalType":"address payable[]"},{"name":"_splitRatios","type":"uint8[]","internalType":"uint8[]"}],"outputs":[],"stateMutability":"nonpayable"},{"type":"function","name":"getAuctionDetails","inputs":[{"name":"_originContract","type":"address","internalType":"address"},{"name":"_tokenId","type":"uint256","internalType":"uint256"}],"outputs":[{"name":"","type":"address","internalType":"address"},{"name":"","type":"uint256","internalType":"uint256"},{"name":"","type":"uint256","internalType":"uint256"},{"name":"","type":"uint256","internalType":"uint256"},{"name":"","type":"address","internalType":"address"},{"name":"","type":"uint256","internalType":"uint256"},{"name":"","type":"bytes32","internalType":"bytes32"},{"name":"","type":"address[]","internalType":"address payable[]"},{"name":"","type":"uint8[]","internalType":"uint8[]"}],"stateMutability":"view"},{"type":"function","name":"marketplaceSettings","inputs":[],"outputs":[{"name":"","type":"address","internalType":"contract IMarketplaceSettings"}],"stateMutability":"view"},{"type":"function","name":"maxAuctionLength","inputs":[],"outputs":[{"name":"","type":"uint256","internalType":"uint256"}],"stateMutability":"view"},{"type":"function","name":"minimumBidIncreasePercentage","inputs":[],"outputs":[{"name":"","type":"uint8","internalType":"uint8"}],"stateMutability":"view"},{"type":"function","name":"networkBeneficiary","inputs":[],"outputs":[{"name":"","type":"address","internalType":"address"}],"stateMutability":"view"},{"type":"function","name":"offerCancelationDelay","inputs":[],"outputs":[{"name":"","type":"uint256","internalType":"uint256"}],"stateMutability":"view"},{"type":"function","name":"owner","inputs":[],"outputs":[{"name":"","type":"address","internalType":"address"}],"stateMutability":"view"},{"type":"function","name":"payments","inputs":[],"outputs":[{"name":"","type":"address","internalType":"contract IPayments"}],"stateMutability":"view"},{"type":"function","name":"renounceOwnership","inputs":[],"outputs":[],"stateMutability":"nonpayable"},{"type":"function","name":"royaltyEngine","inputs":[],"outputs":[{"name":"","type":"address","internalType":"contract IRoyaltyEngineV1"}],"stateMutability":"view"},{"type":"function","name":"royaltyRegistry","inputs":[],"outputs":[{"name":"","type":"address","internalType":"contract IRareRoyaltyRegistry"}],"stateMutability":"view"},{"type":"function","name":"settleAuction","inputs":[{"name":"_originContract","type":"address","internalType":"address"},{"name":"_tokenId","type":"uint256","internalType":"uint256"}],"outputs":[],"stateMutability":"nonpayable"},{"type":"function","name":"spaceOperatorRegistry","inputs":[],"outputs":[{"name":"","type":"address","internalType":"contract ISpaceOperatorRegistry"}],"stateMutability":"view"},{"type":"function","name":"stakingRegistry","inputs":[],"outputs":[{"name":"","type":"address","internalType":"address"}],"stateMutability":"view"},{"type":"function","name":"superRareAuctionHouse","inputs":[],"outputs":[{"name":"","type":"address","internalType":"address"}],"stateMutability":"view"},{"type":"function","name":"superRareMarketplace","inputs":[],"outputs":[{"name":"","type":"address","internalType":"address"}],"stateMutability":"view"},{"type":"function","name":"tokenAuctions","inputs":[{"name":"","type":"address","internalType":"address"},{"name":"","type":"uint256","internalType":"uint256"}],"outputs":[{"name":"auctionCreator","type":"address","internalType":"address payable"},{"name":"creationBlock","type":"uint256","internalType":"uint256"},{"name":"startingTime","type":"uint256","internalType":"uint256"},{"name":"lengthOfAuction","type":"uint256","internalType":"uint256"},{"name":"currencyAddress","type":"address","internalType":"address"},{"name":"minimumBid","type":"uint256","internalType":"uint256"},{"name":"auctionType","type":"bytes32","internalType":"bytes32"}],"stateMutability":"view"},{"type":"function","name":"tokenCurrentOffers","inputs":[{"name":"","type":"address","internalType":"address"},{"name":"","type":"uint256","internalType":"uint256"},{"name":"","type":"address","internalType":"address"}],"outputs":[{"name":"buyer","type":"address","internalType":"address payable"},{"name":"amount","type":"uint256","internalType":"uint256"},{"name":"timestamp","type":"uint256","internalType":"uint256"},{"name":"marketplaceFee","type":"uint8","internalType":"uint8"},{"name":"convertible","type":"bool","internalType":"bool"}],"stateMutability":"view"},{"type":"function","name":"tokenSalePrices","inputs":[{"name":"","type":"address","internalType":"address"},{"name":"","type":"uint256","internalType":"uint256"},{"name":"","type":"address","internalType":"address"}],"outputs":[{"name":"seller","type":"address","internalType":"address payable"},{"name":"currencyAddress","type":"address","internalType":"address"},{"name":"amount","type":"uint256","internalType":"uint256"}],"stateMutability":"view"},{"type":"function","name":"transferOwnership","inputs":[{"name":"newOwner","type":"address","internalType":"address"}],"outputs":[],"stateMutability":"nonpayable"},{"type":"event","name":"AcceptOffer","inputs":[{"name":"_originContract","type":"address","indexed":true,"internalType":"address"},{"name":"_bidder","type":"address","indexed":true,"internalType":"address"},{"name":"_seller","type":"address","indexed":true,"internalType":"address"},{"name":"_currencyAddress","type":"address","indexed":false,"internalType":"address"},{"name":"_amount","type":"uint256","indexed":false,"internalType":"uint256"},{"name":"_tokenId","type":"uint256","indexed":false,"internalType":"uint256"},{"name":"_splitAddresses","type":"address[]","indexed":false,"internalType":"address payable[]"},{"name":"_splitRatios","type":"uint8[]","indexed":false,"internalType":"uint8[]"}],"anonymous":false},{"type":"event","name":"AuctionBid","inputs":[{"name":"_contractAddress","type":"address","indexed":true,"internalType":"address"},{"name":"_bidder","type":"address","indexed":true,"internalType":"address"},{"name":"_tokenId","type":"uint256","indexed":true,"internalType":"uint256"},{"name":"_currencyAddress","type":"address","indexed":false,"internalType":"address"},{"name":"_amount","type":"uint256","indexed":false,"internalType":"uint256"},{"name":"_startedAuction","type":"bool","indexed":false,"internalType":"bool"},{"name":"_newAuctionLength","type":"uint256","indexed":false,"internalType":"uint256"},{"name":"_previousBidder","type":"address","indexed":false,"internalType":"address"}],"anonymous":false},{"type":"event","name":"AuctionSettled","inputs":[{"name":"_contractAddress","type":"address","indexed":true,"internalType":"address"},{"name":"_bidder","type":"address","indexed":true,"internalType":"address"},{"name":"_seller","type":"address","indexed":false,"internalType":"address"},{"name":"_tokenId","type":"uint256","indexed":true,"internalType":"uint256"},{"name":"_currencyAddress","type":"address","indexed":false,"internalType":"address"},{"name":"_amount","type":"uint256","indexed":false,"internalType":"uint256"}],"anonymous":false},{"type":"event","name":"CancelAuction","inputs":[{"name":"_contractAddress","type":"address","indexed":true,"internalType":"address"},{"name":"_tokenId","type":"uint256","indexed":true,"internalType":"uint256"},{"name":"_auctionCreator","type":"address","indexed":true,"internalType":"address"}],"anonymous":false},{"type":"event","name":"CancelOffer","inputs":[{"name":"_originContract","type":"address","indexed":true,"internalType":"address"},{"name":"_bidder","type":"address","indexed":true,"internalType":"address"},{"name":"_currencyAddress","type":"address","indexed":true,"internalType":"address"},{"name":"_amount","type":"uint256","indexed":false,"internalType":"uint256"},{"name":"_tokenId","type":"uint256","indexed":false,"internalType":"uint256"}],"anonymous":false},{"type":"event","name":"Initialized","inputs":[{"name":"version","type":"uint8","indexed":false,"internalType":"uint8"}],"anonymous":false},{"type":"event","name":"NewAuction","inputs":[{"name":"_contractAddress","type":"address","indexed":true,"internalType":"address"},{"name":"_tokenId","type":"uint256","indexed":true,"internalType":"uint256"},{"name":"_auctionCreator","type":"address","indexed":true,"internalType":"address"},{"name":"_currencyAddress","type":"address","indexed":false,"internalType":"address"},{"name":"_startingTime","type":"uint256","indexed":false,"internalType":"uint256"},{"name":"_minimumBid","type":"uint256","indexed":false,"internalType":"uint256"},{"name":"_lengthOfAuction","type":"uint256","indexed":false,"internalType":"uint256"}],"anonymous":false},{"type":"event","name":"OfferPlaced","inputs":[{"name":"_originContract","type":"address","indexed":true,"internalType":"address"},{"name":"_bidder","type":"address","indexed":true,"internalType":"address"},{"name":"_currencyAddress","type":"address","indexed":true,"internalType":"address"},{"name":"_amount","type":"uint256","indexed":false,"internalType":"uint256"},{"name":"_tokenId","type":"uint256","indexed":false,"internalType":"uint256"},{"name":"_convertible","type":"bool","indexed":false,"internalType":"bool"}],"anonymous":false},{"type":"event","name":"OwnershipTransferred","inputs":[{"name":"previousOwner","type":"address","indexed":true,"internalType":"address"},{"name":"newOwner","type":"address","indexed":true,"internalType":"address"}],"anonymous":false},{"type":"event","name":"SetSalePrice","inputs":[{"name":"_originContract","type":"address","indexed":true,"internalType":"address"},{"name":"_currencyAddress","type":"address","indexed":true,"internalType":"address"},{"name":"_target","type":"address","indexed":false,"internalType":"address"},{"name":"_amount","type":"uint256","indexed":false,"internalType":"uint256"},{"name":"_tokenId","type":"uint256","indexed":false,"internalType":"uint256"},{"name":"_splitRecipients","type":"address[]","indexed":false,"internalType":"address payable[]"},{"name":"_splitRatios","type":"uint8[]","indexed":false,"internalType":"uint8[]"}],"anonymous":false},{"type":"event","name":"Sold","inputs":[{"name":"_originContract","type":"address","indexed":true,"internalType":"address"},{"name":"_buyer","type":"address","indexed":true,"internalType":"address"},{"name":"_seller","type":"address","indexed":true,"internalType":"address"},{"name":"_currencyAddress","type":"address","indexed":false,"internalType":"address"},{"name":"_amount","type":"uint256","indexed":false,"internalType":"uint256"},{"name":"_tokenId","type":"uint256","indexed":false,"internalType":"uint256"}],"anonymous":false}],"bytecode":{"object":"0x60808060405234610016576151ed908161001c8239f35b600080fdfe608080604052600436101561001357600080fd5b600090813560e01c9081629d9aa914614662575080630141c59014614639578063060d9eeb1461458a5780630a5c4ed51461456c5780630bcba09d146145435780630cd87c6814613de55780630e519ef914613dc7578063155a56b114613dab5780631a2ac30f14613d4a578063299a0e1e14613cdb5780632c41905314613c615780633bc3d9be14613c385780634c94c90c14613c0f5780635138b08c14612b955780636240cd1c14612b6c5780636b534ed014612b435780636fe9f44c14612b1f578063715018a614612ac1578063859b97fe146123be5780638da5cb5b146123955780639041a0ec14611339578063a11b071214611310578063a6d23e10146112e7578063b23afc26146112b7578063b567858814610339578063ba50b63214610310578063c47c35c114610282578063c90b871414610255578063daa26499146102375763f2fde38b1461016a57600080fd5b3461023457602036600319011261023457610183614687565b61018b614754565b6001600160a01b039081169081156101e057603354826bffffffffffffffffffffffff60a01b821617603355167f8be0079c531659141344cd1fd0a4f28419497f9722a3daafe3b4186f6b6457e0600080a380f35b60405162461bcd60e51b815260206004820152602660248201527f4f776e61626c653a206e6577206f776e657220697320746865207a65726f206160448201526564647265737360d01b6064820152608490fd5b80fd5b5034610234578060031936011261023457602060a254604051908152f35b50346102345780600319360112610234576040516d21a7a62224a2afa0aaa1aa24a7a760911b8152602090f35b50346102345760403660031901126102345760e0906001600160a01b0390604090826102ac614687565b16815260a6602052818120602435825260205220908082541691600181015491600282015490600383015490600484015416916006600585015494015494604051968752602087015260408601526060850152608084015260a083015260c0820152f35b50346102345780600319360112610234576097546040516001600160a01b039091168152602090f35b5060803660031901126102345761034e614687565b61035661469d565b906002606554146112725760026065556097546040516361fe24a960e11b815260643560048201526001600160a01b0390911690602081602481855afa8015611267578590611233575b6103ad9150606435614960565b906103b88285614ab5565b60018060a01b038316855260a66020526040852060243586526020526040852090604051916103e6836147ac565b60018060a01b03815416835260018101546020840152600281015460408401526003810154606084015260018060a01b036004820154166080840152600581015460a0840152600681015460c0840152600781016040519081602082549182815201918a5260208a20908a5b818110611214575050509061046c8160089493038261482c565b60e085015201604051808260208294549384815201908a5260208a20928a905b80601f83011061108a576105a2945491818110611076575b81811061105f575b818110611048575b818110611031575b81811061101b575b818110611004575b818110610fed575b818110610fd6575b818110610fbf575b818110610fa8575b818110610f91575b818110610f7a575b818110610f63575b818110610f4c575b818110610f35575b818110610f1e575b818110610f07575b818110610ef0575b818110610ed9575b818110610ec2575b818110610eab575b818110610e94575b818110610e7d575b818110610e66575b818110610e4f575b818110610e38575b818110610e21575b818110610e0a575b818110610df3575b818110610ddc575b818110610dc5575b10610db7575b50038261482c565b61010083015260c082015115610d685781516001600160a01b03163314610d175760408201514210610cd25760808201516001600160a01b0390811690861603610c745760643515610c3c57602060049160405192838092637cd11f4360e11b82525afa9081156109f4578691610c05575b5060643511610bb65760a081015160643510610b625760408101518015908115610b4a575b5015610b0e5760018060a01b038316855260a760205260408520602435865260205260408520916106c160405193610670856147c8565b60018060a01b03815416855260018060a01b03600182015416602086015260ff6003600283015492836040890152015416606086015260646106ba60ff60a05460a01c1683614864565b0490614960565b60643510610aaf576040516331a9108f60e11b81526024803560048301529091906020908390816001600160a01b0389165afa918215610aa4578792610a73575b5082516001600160a01b038381169116148015610a61575b15610a1057825161073e926001600160a01b039182169116146109ff575b85614b94565b61075f604083015160ff60608501511660018060a01b038551169187614fb5565b609754604051638347592160e01b815290602090829060049082906001600160a01b03165afa9081156109f45786916109c5575b5060ff60036040516107a4816147c8565b3381526001600160a01b0388811660208084019182526064356040808601918252978716606086019081528b85168e5260a78352888e206024358f52909252878d20945185549085166001600160a01b031991821617865592516001860180549190951693169290921790925551600283015551910180549190921660ff199091161790558101518591829182908061094f5750506001600160a01b0385811680845260a6602090815260408086206024358752909152842042600290910155915116903b1561094b576040516323b872dd60e01b81526001600160a01b03909116600482015230602480830191909152356044820152818180606481010381836001600160a01b038a165af1801561094057610928575b50506001915b51604080516001600160a01b03968716815260643560208201529315159084015260608301919091528316608082015260243592339216907f189a468e632a450afd491f84aa9ae94addc6813c7e309a7b1b1223f88802a77d9060a090a4600160655580f35b610931906147e3565b61093c5784386108bc565b8480fd5b6040513d84823e3d90fd5b5080fd5b61096b919593506109664291606085015190614960565b61496d565b60a25480911061097d575b50506108c2565b61099892935061098f60409142614960565b9101519061496d565b9060018060a01b038416865260a66020526040862060243587526020528160036040882001553880610976565b6109e7915060203d6020116109ed575b6109df818361482c565b8101906148a4565b38610793565b503d6109d5565b6040513d88823e3d90fd5b610a0b60243586614992565b610738565b60405162461bcd60e51b815260206004820152602360248201527f6269643a3a41756374696f6e2063726561746f72206d757374206265206f776e60448201526232b91760e91b6064820152608490fd5b506001600160a01b038216301461071a565b610a9691925060203d602011610a9d575b610a8e818361482c565b8101906148bd565b9038610702565b503d610a84565b6040513d89823e3d90fd5b60405162461bcd60e51b815260206004820152603160248201527f6269643a3a4d75737420626520686967686572207468616e20707265762062696044820152703210159036b4b71034b731b932b0b9b29760791b6064820152608490fd5b60405162461bcd60e51b81526020600482015260146024820152733134b21d1d26bab9ba1031329030b1ba34bb329760611b6044820152606490fd5b610b5a9150606083015190614960565b421038610639565b60405162461bcd60e51b815260206004820152602660248201527f6269643a3a43616e6e6f74206265206c6f776572207468616e206d696e696d7560448201526536903134b21760d11b6064820152608490fd5b60405162461bcd60e51b815260206004820152602160248201527f6269643a3a4d757374206265206c657373207468616e206d61782076616c75656044820152601760f91b6064820152608490fd5b90506020813d602011610c34575b81610c206020938361482c565b81010312610c2f575138610614565b600080fd5b3d9150610c13565b60405162461bcd60e51b815260206004820152601060248201526f06269643a3a43616e6e6f7420626520360841b6044820152606490fd5b60405162461bcd60e51b815260206004820152603060248201527f6269643a3a43757272656e6379206d75737420626520696e20636f6e6669677560448201526f3932b2103232b737b6b4b730ba34b7b760811b6064820152608490fd5b60405162461bcd60e51b815260206004820152601860248201527f6269643a3a41756374696f6e206e6f74206163746976652e00000000000000006044820152606490fd5b60405162461bcd60e51b8152602060048201526024808201527f6269643a3a43616e6e6f7420626964206f6e20796f7572206f776e206175637460448201526334b7b71760e11b6064820152608490fd5b60405162461bcd60e51b815260206004820152602160248201527f6269643a3a4d757374206861766520612063757272656e742061756374696f6e6044820152601760f91b6064820152608490fd5b60f81c81526020013861059a565b92602060019160ff8560f01c168152019301610594565b92602060019160ff8560e81c16815201930161058c565b92602060019160ff8560e01c168152019301610584565b92602060019160ff8560d81c16815201930161057c565b92602060019160ff8560d01c168152019301610574565b92602060019160ff8560c81c16815201930161056c565b92602060019160ff8560c01c168152019301610564565b92602060019160ff8560b81c16815201930161055c565b92602060019160ff8560b01c168152019301610554565b92602060019160ff8560a81c16815201930161054c565b92602060019160ff8560a01c168152019301610544565b92602060019160ff8560981c16815201930161053c565b92602060019160ff8560901c168152019301610534565b92602060019160ff8560881c16815201930161052c565b92602060019160ff8560801c168152019301610524565b92602060019160ff8560781c16815201930161051c565b92602060019160ff8560701c168152019301610514565b92602060019160ff8560681c16815201930161050c565b92602060019160ff8560601c168152019301610504565b92602060019160ff8560581c1681520193016104fc565b92602060019160ff8560501c1681520193016104f4565b92602060019160ff8560481c1681520193016104ec565b92602060019160ff8560401c1681520193016104e4565b92602060019160ff8560381c1681520193016104dc565b92602060019160ff8560301c1681520193016104d4565b92602060019160ff8560281c1681520193016104cc565b92602060019160ff85831c1681520193016104c4565b92602060019160ff8560181c1681520193016104bc565b92602060019160ff8560101c1681520193016104b4565b92602060019160ff8560081c1681520193016104ac565b92602060019160ff851681520193016104a4565b916020919350610400600191865460ff8082168352808260081c1686840152808260101c166040840152808260181c1660608401528082871c166080840152808260281c1660a0840152808260301c1660c0840152808260381c1660e0840152808260401c16610100840152808260481c16610120840152808260501c16610140840152808260581c16610160840152808260601c16610180840152808260681c166101a0840152808260701c166101c0840152808260781c166101e0840152808260801c16610200840152808260881c16610220840152808260901c16610240840152808260981c16610260840152808260a01c16610280840152808260a81c166102a0840152808260b01c166102c0840152808260b81c166102e0840152808260c01c16610300840152808260c81c16610320840152808260d01c16610340840152808260d81c16610360840152808260e01c16610380840152808260e81c166103a08401528160f01c166103c083015260f81c6103e082015201940192018492939161048c565b82546001600160a01b0316845260209093019260019283019201610452565b506020813d60201161125f575b8161124d6020938361482c565b81010312610c2f576103ad90516103a0565b3d9150611240565b6040513d87823e3d90fd5b60405162461bcd60e51b815260206004820152601f60248201527f5265656e7472616e637947756172643a207265656e7472616e742063616c6c006044820152606490fd5b50346102345780600319360112610234576040517029a1a422a22aa622a22fa0aaa1aa24a7a760791b8152602090f35b5034610234578060031936011261023457609e546040516001600160a01b039091168152602090f35b50346102345780600319360112610234576098546040516001600160a01b039091168152602090f35b503461023457610120366003190112610234576024356001600160a01b0381169003610c2f576084356001600160a01b0381168103610c2f5760e4356001600160401b038111612391576113919036906004016146b3565b610104356001600160401b03811161093c576113b19036906004016146b3565b916001600160a01b03851615801561231f575b156122e2576040516331a9108f60e11b8152604435600482015260208160248181356001600160a01b03165afa9081156122d6576000916122b7575b50336001600160a01b039091160361227257611420604435602435614992565b801561221d57600581116121cc57828103612172576000805b8482106121465760649150036120f1576004356d21a7a62224a2afa0aaa1aa24a7a760911b1415806120d1575b6120955760a15460a435116120445760018060a01b0360243516865260a660205260408620604435875260205260408620604051906114a4826147ac565b60018060a01b03815416825260018101546020830152600281015460408301526003810154606083015260018060a01b036004820154166080830152600581015460a0830152600681015460c0830152604051806007830190602082549182815201918b5260208b20908b5b818110612025575050509061152a8160089493038261482c565b60e0840152604051910180548083529089526020808a209183918201908b905b80601f830110611e7d576116409454918181106110765781811061105f57818110611048578181106110315781811061101b5781811061100457818110610fed57818110610fd657818110610fbf57818110610fa857818110610f9157818110610f7a57818110610f6357818110610f4c57818110610f3557818110610f1e57818110610f0757818110610ef057818110610ed957818110610ec257818110610eab57818110610e9457818110610e7d57818110610e6657818110610e4f57818110610e3857818110610e2157818110610e0a57818110610df357818110610ddc57818110610dc55710610db75750038261482c565b61010082015260018060a01b0360243516875260a760205260408720604435885260205260408720604051611674816147c8565b81546001600160a01b03908116808352600184015490911660208301526002830154604083015260039092015460ff16606090910152611e2c5760c081015115908115611e17575b5015611dba5760a43515611d69576004356d21a7a62224a2afa0aaa1aa24a7a760911b03611cd85760643515611c77575b609754604051637cd11f4360e11b815290602090829060049082906001600160a01b03165afa908115610aa4578791611c45575b5060643511611bcf576004356d21a7a62224a2afa0aaa1aa24a7a760911b03611bc65785935b60405194611754866147ac565b338652436020870152604086015260a43560608601526001600160a01b038616608086015260643560a086015260043560c08601526117928261484d565b916117a0604051938461482c565b8083526020830191368260051b820111610c2f5780925b8260051b82018410611ba6575050505060e08401526117d58261484d565b916117e3604051938461482c565b8083526020830191368260051b820111610c2f5780925b8260051b82018410611b8c575050505061010082015260018060a01b0360243516835260a6602052604083206044358452602052604083209060018060a01b038151166bffffffffffffffffffffffff60a01b9081845416178355602082015160018401556040820151600284015560608201516003840155600483019060018060a01b036080840151169082541617905560a0810151600583015560c0810151600683015560e08101518051906001600160401b038211611b7857600160401b8211611b1457602060078501918254848455808510611b5b575b500190865260208620865b838110611b3e57505050506101000151908151906001600160401b038211611b2a57600160401b8211611b1457600860209101928354838555808410611ac8575b50019184526020842090845b8160051c8110611a895750601f198116808203611a3a575b5050506004357029a1a422a22aa622a22fa0aaa1aa24a7a760791b1490506119c7575b6040519060018060a01b0316815260c4356020820152606435604082015260a43560608201523390604435907fdb89081d9a5399380ffbcc376a961ed023027fca462e08b3d23146e4c6ac62f2608060018060a01b036024351692a480f35b6024356001600160a01b03163b1561094b576040516323b872dd60e01b815233600482015230602482015260448035908201528290818180606481010381836024356001600160a01b03165af1801561094057611a26575b5050611968565b611a2f906147e3565b61094b578138611a1f565b928593865b8184038110611a595750505060051c015538808080611945565b9091946020611a7f6001928460ff8a5116919060ff809160031b9316831b921b19161790565b9601929101611a3f565b85865b60208110611aa157508382015560010161192d565b855190959160019160209160ff60038a901b81811b199092169216901b1792019501611a8c565b611af4908560005283600020601f80870160051c82019281881680611afa575b500160051c019061488d565b38611921565b60001990818601918254918a0360031b1c16905538611ae8565b634e487b7160e01b600052604160045260246000fd5b634e487b7160e01b85526041600452602485fd5b82516001600160a01b0316818301556020909201916001016118e0565b611b7290846000528584600020918201910161488d565b386118d5565b634e487b7160e01b86526041600452602486fd5b833560ff81168103610c2f578152602093840193016117fa565b83356001600160a01b0381168103610c2f578152602093840193016117b7565b60c43593611747565b60405162461bcd60e51b815260206004820152604260248201527f636f6e66696775726541756374696f6e3a3a43616e6e6f74207365742073746160448201527f7274696e6720707269636520686967686572207468616e206d61782076616c75606482015261329760f11b608482015260a490fd5b90506020813d602011611c6f575b81611c606020938361482c565b81010312610c2f575138611721565b3d9150611c53565b60405162461bcd60e51b815260206004820152603360248201527f636f6e66696775726541756374696f6e3a3a436f6c646965207374617274696e604482015272067207072696365206d757374206265203e203606c1b6064820152608490fd5b70565e5bdd5dd559dd5dd05f555e55db585960791b600435016116ed574260c435116116ed5760405162461bcd60e51b815260206004820152603960248201527f636f6e66696775726541756374696f6e3a3a5363686564756c6564206175637460448201527f696f6e2063616e6e6f7420737461727420696e20706173742e000000000000006064820152608490fd5b60405162461bcd60e51b8152602060048201526024808201527f636f6e66696775726541756374696f6e3a3a4c656e677468206d7573742062656044820152630203e20360e41b6064820152608490fd5b60405162461bcd60e51b815260206004820152602f60248201527f636f6e66696775726541756374696f6e3a3a43616e6e6f74206861766520612060448201526e31bab93932b73a1030bab1ba34b7b760891b6064820152608490fd5b516001600160a01b03163314159050386116bc565b60405162461bcd60e51b8152602060048201526024808201527f636f6e66696775726541756374696f6e3a3a6269642073686f756c646e7420656044820152631e1a5cdd60e21b6064820152608490fd5b916020919350610400600191865460ff8116825260ff8160081c168583015260ff8160101c16604083015260ff8160181c16606083015260ff81861c16608083015260ff8160281c1660a083015260ff8160301c1660c083015260ff8160381c1660e083015260ff8160401c1661010083015260ff8160481c1661012083015260ff8160501c1661014083015260ff8160581c1661016083015260ff8160601c1661018083015260ff8160681c166101a083015260ff8160701c166101c083015260ff8160781c166101e083015260ff8160801c1661020083015260ff8160881c1661022083015260ff8160901c1661024083015260ff8160981c1661026083015260ff8160a01c1661028083015260ff8160a81c166102a083015260ff8160b01c166102c083015260ff8160b81c166102e083015260ff8160c01c1661030083015260ff8160c81c1661032083015260ff8160d01c1661034083015260ff8160d81c1661036083015260ff8160e01c1661038083015260ff8160e81c166103a083015260ff8160f01c166103c083015260f81c6103e082015201940192018492939161154a565b82546001600160a01b0316845260209093019260019283019201611510565b60405162461bcd60e51b815260206004820152602360248201527f636f6e66696775726541756374696f6e3a3a41756374696f6e20746f6f206c6f60448201526237339760e91b6064820152608490fd5b60405162461bcd60e51b8152602060048201526014602482015273496e76616c69642041756374696f6e205479706560601b6044820152606490fd5b506004357029a1a422a22aa622a22fa0aaa1aa24a7a760791b1415611466565b60405162461bcd60e51b815260206004820152602760248201527f636865636b53706c6974733a3a546f74616c206d75737420626520657175616c604482015266020746f203130360cc1b6064820152608490fd5b8160051b8401359060ff8216809203610c2f5761216c9161216691614960565b91614aa6565b90611439565b60405162461bcd60e51b815260206004820152602c60248201527f636865636b53706c6974733a3a53706c69747320616e6420726174696f73206d60448201526b1d5cdd08189948195c5d585b60a21b6064820152608490fd5b60405162461bcd60e51b8152602060048201526024808201527f636865636b53706c6974733a3a53706c6974206578636565646564206d61782060448201526373697a6560e01b6064820152608490fd5b60405162461bcd60e51b815260206004820152602760248201527f636865636b53706c6974733a3a4d7573742068617665206174206c65617374206044820152660c481cdc1b1a5d60ca1b6064820152608490fd5b60405162461bcd60e51b815260206004820152601e60248201527f73656e646572206d7573742062652074686520746f6b656e206f776e657200006044820152606490fd5b6122d0915060203d602011610a9d57610a8e818361482c565b38611400565b6040513d6000823e3d90fd5b60405162461bcd60e51b81526020600482015260156024820152744e6f7420617070726f7665642063757272656e637960581b6044820152606490fd5b50609d54604051632d5ad3d560e01b81526001600160a01b038781166004830152909160209183916024918391165afa908115610aa4578791612363575b506113c4565b612384915060203d811161238a575b61237c818361482c565b81019061497a565b3861235d565b503d612372565b8280fd5b50346102345780600319360112610234576033546040516001600160a01b039091168152602090f35b5034610234576040366003190112610234576123d8614687565b6001600160a01b031680825260a6602090815260408084206024358086529252808420905190612407826147ac565b60018060a01b03815416825260018101546020830152600281015460408301526003810154606083015260018060a01b036004820154166080830152600581015460a0830152600681015460c0830152600781016040518082602082945493848152019089526020892092895b818110612a9f5750506124899250038261482c565b60e08301526040516008918201805480835290875260208088209293849291830191895b81601f820110612914576125a69554928282106128fe575b8282106128e7575b50818110611048578181106110315781811061101b5781811061100457818110610fed57818110610fd657818110610fbf57818110610fa857818110610f9157818110610f7a57818110610f6357818110610f4c57818110610f3557818110610f1e57818110610f0757818110610ef057818110610ed957818110610ec257818110610eab57818110610e9457818110610e7d57818110610e6657818110610e4f57818110610e3857818110610e2157818110610e0a57818110610df357818110610ddc57818110610dc55710610db75750038261482c565b61010082015260c08101511561288a5760408101518015908115612880575b50156128255780516001600160a01b0316331480156127c9575b156127735782845260a660205260408420828552602052612602604085206148dc565b6040516331a9108f60e11b8082526004820184905290602081602481885afa9081156109f4578691612754575b506001600160a01b031630146126fc575b604051908152826004820152602081602481875afa9081156112675785916126dd575b50336001600160a01b03909116036126a757516001600160a01b0316917f26d4510b556e779d6507640413e013206e44c8f5d018c7c74ed8926f3f024a9c8480a480f35b60405162461bcd60e51b815260206004820152600e60248201526d1cd95b991a5b99c819985a5b195960921b6044820152606490fd5b6126f6915060203d602011610a9d57610a8e818361482c565b38612663565b833b1561093c576040516323b872dd60e01b81523060048201523360248201526044810184905285908181606481838a5af1801561094057612740575b5050612640565b612749906147e3565b61093c578438612739565b61276d915060203d602011610a9d57610a8e818361482c565b3861262f565b60405162461bcd60e51b815260206004820152602860248201527f63616e63656c41756374696f6e3a3a4d7573742062652063726561746f72206f604482015267391037bbb732b91760c11b6064820152608490fd5b506040516331a9108f60e11b815260048101839052602081602481875afa908115611267578591612806575b506001600160a01b031633146125df565b61281f915060203d602011610a9d57610a8e818361482c565b386127f5565b60405162461bcd60e51b815260206004820152602d60248201527f63616e63656c41756374696f6e3a3a41756374696f6e206d757374206e6f742060448201526c3430bb329039ba30b93a32b21760991b6064820152608490fd5b90504210386125c5565b60405162461bcd60e51b815260206004820152602f60248201527f63616e63656c41756374696f6e3a3a4d757374206861766520616e206175637460448201526e34b7b71031b7b73334b3bab932b21760891b6064820152608490fd5b6001919460ff856020931c168152019301386124cd565b9093602060019160ff86168152019401906124c5565b919350916001610400602092875460ff808216835280828a1c1686840152808260101c166040840152808260181c1660608401528082871c166080840152808260281c1660a0840152808260301c1660c0840152808260381c1660e0840152808260401c16610100840152808260481c16610120840152808260501c16610140840152808260581c16610160840152808260601c16610180840152808260681c166101a0840152808260701c166101c0840152808260781c166101e0840152808260801c16610200840152808260881c16610220840152808260901c16610240840152808260981c16610260840152808260a01c16610280840152808260a81c166102a0840152808260b01c166102c0840152808260b81c166102e0840152808260c01c16610300840152808260c81c16610320840152808260d01c16610340840152808260d81c16610360840152808260e01c16610380840152808260e81c166103a08401528160f01c166103c083015260f81c6103e082015201950191019185939194926124ad565b84546001600160a01b0316835260019485019486945060209093019201612474565b5034610234578060031936011261023457612ada614754565b603380546001600160a01b031981169091556000906001600160a01b03167f8be0079c531659141344cd1fd0a4f28419497f9722a3daafe3b4186f6b6457e08280a380f35b5034610234578060031936011261023457602060ff60a05460a01c16604051908152f35b503461023457806003193601126102345760a0546040516001600160a01b039091168152602090f35b5034610234578060031936011261023457609d546040516001600160a01b039091168152602090f35b503461023457604036600319011261023457612baf614687565b60018060a01b038116825260a66020526040822060243583526020526040822060405190612bdc826147ac565b60018060a01b03815416825260018101546020830152600281015460408301526003810154606083015260018060a01b036004820154166080830152600581015460a0830152600681015460c08301526007810160405190816020825491828152019187526020872090875b818110613bf05750505090612c628160089493038261482c565b60e084015260405191018054808352908552602080862091839182019087905b80601f830110613a6657612d789454918181106110765781811061105f57818110611048578181106110315781811061101b5781811061100457818110610fed57818110610fd657818110610fbf57818110610fa857818110610f9157818110610f7a57818110610f6357818110610f4c57818110610f3557818110610f1e57818110610f0757818110610ef057818110610ed957818110610ec257818110610eab57818110610e9457818110610e7d57818110610e6657818110610e4f57818110610e3857818110610e2157818110610e0a57818110610df357818110610ddc57818110610dc55710610db75750038261482c565b61010082015260c0810151151580613a59575b156139fa57612da36040820151606083015190614960565b421061399e5760018060a01b038216835260a7602052604083206024358452602052604083209060ff600360405193612ddb856147c8565b60018060a01b03815416855260018060a01b03600182015416602086015260028101546040860152015416606083015260018060a01b038316845260a6602052604084206024358552602052612e33604085206148dc565b6001600160a01b03838116855260a7602090815260408087206024358852909152852085815560018101869055600281018690556003018590558251168061302e5750805184906001600160a01b039081169085163b1561094b576040516323b872dd60e01b81523060048201526001600160a01b03909116602480830191909152356044820152818180606481010381836001600160a01b038a165af1801561094057613016575b50506040516331a9108f60e11b81526024803560048301526020908290816001600160a01b0388165afa908115611267578591612ff7575b5081516001600160a01b03908116911603612f8c575b8151815160809092015160409384015184516001600160a01b03948516815291841660208301529381019390935260243593908216929116907fef4e2262a841641690bb931801dc0d1923e6b417cd217f91f8049d8aa9f5f08690606090a480f35b60405162461bcd60e51b815260206004820152603860248201527f736574746c6541756374696f6e3a3a4661696c656420746f2072657475726e2060448201527f746f6b656e20746f2061756374696f6e2063726561746f7200000000000000006064820152608490fd5b613010915060203d602011610a9d57610a8e818361482c565b38612f14565b61301f906147e3565b61302a578338612edc565b8380fd5b929391929091906001600160a01b0385163b1561094b576040516323b872dd60e01b81523060048201526001600160a01b03909116602480830191909152356044820152818180606481010381836001600160a01b038a165af180156109405761398f575b5060018060a01b036020840151169360408401519160018060a01b038451169160e08501519561010086015193875185510361392e576097546040516361fe24a960e11b8152600481018890529087906001600160a01b0316602083602481845afa928315610aa45787936138fa575b5060405192613111846147f6565b60028452604036602086013760a0546001600160a01b0316806131338661508d565b52609f5460405163e286ef3360e01b81526004810188905290602090829060249082906001600160a01b03165afa9081156138b7578a916138db575b506001600160a01b0316613182866150b0565b526001600160a01b03613194866150b0565b51166138c2575b6131a4856150b0565b6001600160a01b039091169052604051906131be826147f6565b6002825260403660208401376040516303fdde1160e21b8152600481018c9052602081602481875afa9081156138b7578a91613885575b506131ff8361508d565b5260208b60246040518096819363470d6ed960e11b835260048301525afa92831561387a57908e86928b9561383f575b506132439461323d856150b0565b526150d4565b609754604051631446f21360e21b81526001600160a01b0387811660048301526024803590830152909160209183916044918391165afa908115610aa4578791613820575b5061362b576040519261329a84614811565b6001845260203681860137604051926132b284614811565b60018452602036818601376001600160a01b03906132cf9061508d565b51166132da8461508d565b52609c54604051635dc22eff60e01b81526004810183905290602090829060249082906001600160a01b03165afa908115613620578891613601575b501561359f57609c54604051632260494f60e01b81526004810192909252602090829060249082906001600160a01b03165afa908115610aa4578961337e61339f969594606461337760ff8297613384978f91613580575b50168095614864565b049061496d565b9a614864565b0461338e8361508d565b526133988261508d565b518b6150d4565b8651956133ab8761484d565b966133b9604051988961482c565b8088526133c8601f199161484d565b01366020890137839784985b81518a10156134325761342661342c918b6106ba60ff61341e838f8f8f8390613410613417938861340860649c8d956150c0565b511690614864565b04926150c0565b528d6150c0565b51168c614864565b99614aa6565b986133d4565b9297949991965092975061344694506150d4565b60975484906001600160a01b0316803b1561094b57604051635a3c652d60e01b81526001600160a01b03861660048201526024803590820152600160448201529082908290606490829084905af180156109405761356c575b50506040516331a9108f60e11b81526024803560048301526020908290816001600160a01b0388165afa90811561126757859161354d575b5082516001600160a01b03918216911614612f2a5760405162461bcd60e51b815260206004820152603360248201527f736574746c6541756374696f6e3a3a4661696c656420746f207472616e73666560448201527239103a379030bab1ba34b7b7103bb4b73732b960691b6064820152608490fd5b613566915060203d602011610a9d57610a8e818361482c565b386134d7565b613575906147e3565b61302a57833861349f565b613599915060203d6020116109ed576109df818361482c565b3861336e565b5060975460405163b28a7bad60e01b81526001600160a01b038781166004830152909160209183916024918391165afa908115610aa4578961337e6135fc969594606461337760ff8297613384978f916135805750168095614864565b61339f565b61361a915060203d60201161238a5761237c818361482c565b38613316565b6040513d8a823e3d90fd5b5050509693959290918095928160018060a01b03609954166064604051809a8193637a99dc0160e11b835260018060a01b038716600484015260243560248401528d60448401525af1988915610940578297839a6136cf575b50829783985b8b518a10156136b1576134266136ab916136a48c8f6150c0565b5190614960565b9861368a565b979a91939598506136c8886135fc9496989b61496d565b978b6150d4565b975098503d968783823e6136e3888261482c565b6040818981010312612391578051906001600160401b03821161302a57888101601f83830101121561302a57818101519161371d8361484d565b9261372b604051948561482c565b80845260208401918b840160208360051b8387010101116137f857602081850101925b60208360051b838701010184106137fc57505050506020810151986001600160401b038a1161093c57808201601f8b840101121561093c5789820151916137948361484d565b9a6137a26040519c8d61482c565b838c5260208c0192820160208560051b8385010101116137f8579190602083820101925b60208560051b828401010184106137e4575050505050969838613684565b6020808094865181520194019392506137c6565b8680fd5b83516001600160a01b038116810361381c5781526020938401930161374e565b8880fd5b613839915060203d60201161238a5761237c818361482c565b38613288565b92505092506020813d602011613872575b8161385d6020938361482c565b81010312610c2f57519184908e61324361322f565b3d9150613850565b6040513d8b823e3d90fd5b90506020813d6020116138af575b816138a06020938361482c565b81010312610c2f5751386131f5565b3d9150613893565b6040513d8c823e3d90fd5b506001600160a01b036138d4856150b0565b511661319b565b6138f4915060203d602011610a9d57610a8e818361482c565b3861316f565b9092506020813d602011613926575b816139166020938361482c565b81010312610c2f57519138613103565b3d9150613909565b60405162461bcd60e51b815260206004820152603360248201527f4e756d626572206f662073706c69742061646472657373657320616e642072616044820152723a34b7b99036bab9ba1031329032b8bab0b61760691b6064820152608490fd5b613998906147e3565b38613093565b60405162461bcd60e51b815260206004820152602e60248201527f736574746c6541756374696f6e3a3a43616e206f6e6c7920736574746c65206560448201526d373232b21030bab1ba34b7b7399760911b6064820152608490fd5b60405162461bcd60e51b815260206004820152603160248201527f736574746c6541756374696f6e3a3a4d75737420686176652061206375727265604482015270373a103b30b634b21030bab1ba34b7b71760791b6064820152608490fd5b5060408101511515612d8b565b916020919350610400600191865460ff8082168352808260081c1686840152808260101c166040840152808260181c1660608401528082871c166080840152808260281c1660a0840152808260301c1660c0840152808260381c1660e0840152808260401c16610100840152808260481c16610120840152808260501c16610140840152808260581c16610160840152808260601c16610180840152808260681c166101a0840152808260701c166101c0840152808260781c166101e0840152808260801c16610200840152808260881c16610220840152808260901c16610240840152808260981c16610260840152808260a01c16610280840152808260a81c166102a0840152808260b01c166102c0840152808260b81c166102e0840152808260c01c16610300840152808260c81c16610320840152808260d01c16610340840152808260d81c16610360840152808260e01c16610380840152808260e81c166103a08401528160f01c166103c083015260f81c6103e0820152019401920184929391612c82565b82546001600160a01b0316845260209093019260019283019201612c48565b50346102345780600319360112610234576099546040516001600160a01b039091168152602090f35b5034610234578060031936011261023457609b546040516001600160a01b039091168152602090f35b50346102345760a09060ff6040613c7736614720565b90600180889794971b03809616835260a56020528383209083526020528483832091168252602052209182541691600181015490600360028201549101549160405194855260208501526040840152818116606084015260081c1615156080820152f35b5034610234576040366003190112610234576080906001600160a01b039060409082613d05614687565b16815260a760205281812060243582526020522081815416916001820154169060ff600360028301549201541691604051938452602084015260408301526060820152f35b5034610234576060906040613d5e36614720565b9060018060a09694961b03809516835260a4602052838320908352602052838383209116825260205220600282825416926001830154169101549060405192835260208301526040820152f35b5034610234578060031936011261023457602090604051908152f35b5034610234578060031936011261023457602060a154604051908152f35b5034610234576040366003190112610234576001600160a01b03613e07614687565b16815260a66020526040812060243582526020526040812060405191613e2c836147ac565b60018060a01b03825416835260018201546020840152600282015460408401526003820154606084015260018060a01b036004830154166080840152600582015460a0840152600682015460c084015260405180816020600786015492838152016007860185526020852092855b818110614521575050613eaf9250038261482c565b60e084015260405190818260206008860154928381520160088196018452602084209284905b80601f83011061437957613fee945491818110614365575b81811061434e575b818110614337575b818110614320575b81811061430a575b8181106142f3575b8181106142dc575b8181106142c5575b8181106142ae575b818110614297575b818110614280575b818110614269575b818110614252575b81811061423b575b818110614224575b81811061420d575b8181106141f6575b8181106141df575b8181106141c8575b8181106141b1575b81811061419a575b818110614183575b81811061416c575b818110614155575b81811061413e575b818110614127575b818110614110575b8181106140f9575b8181106140e2575b8181106140cb575b8181106140b4575b106140a6575b50949394038461482c565b8261010085015260018060a01b038451169260206140698187015196604081015190606081015160018060a01b0360808301511660a08301519160e060c0850151940151946040519c8d9c8d52888d015260408c015260608b015260808a015260a089015260c08801526101208060e08901528701906146e3565b9185830361010087015251918281520192915b81811061408a575050500390f35b825160ff1684528594506020938401939092019160010161407c565b60f81c815260200138613fe3565b92602060019160ff8560f01c168152019301613fdd565b92602060019160ff8560e81c168152019301613fd5565b92602060019160ff8560e01c168152019301613fcd565b92602060019160ff8560d81c168152019301613fc5565b92602060019160ff8560d01c168152019301613fbd565b92602060019160ff8560c81c168152019301613fb5565b92602060019160ff8560c01c168152019301613fad565b92602060019160ff8560b81c168152019301613fa5565b92602060019160ff8560b01c168152019301613f9d565b92602060019160ff8560a81c168152019301613f95565b92602060019160ff8560a01c168152019301613f8d565b92602060019160ff8560981c168152019301613f85565b92602060019160ff8560901c168152019301613f7d565b92602060019160ff8560881c168152019301613f75565b92602060019160ff8560801c168152019301613f6d565b92602060019160ff8560781c168152019301613f65565b92602060019160ff8560701c168152019301613f5d565b92602060019160ff8560681c168152019301613f55565b92602060019160ff8560601c168152019301613f4d565b92602060019160ff8560581c168152019301613f45565b92602060019160ff8560501c168152019301613f3d565b92602060019160ff8560481c168152019301613f35565b92602060019160ff8560401c168152019301613f2d565b92602060019160ff8560381c168152019301613f25565b92602060019160ff8560301c168152019301613f1d565b92602060019160ff8560281c168152019301613f15565b92602060019160ff85831c168152019301613f0d565b92602060019160ff8560181c168152019301613f05565b92602060019160ff8560101c168152019301613efd565b92602060019160ff8560081c168152019301613ef5565b92602060019160ff85168152019301613eed565b916020919350610400600191865460ff8116825260ff8160081c168583015260ff8160101c16604083015260ff8160181c16606083015260ff81861c16608083015260ff8160281c1660a083015260ff8160301c1660c083015260ff8160381c1660e083015260ff8160401c1661010083015260ff8160481c1661012083015260ff8160501c1661014083015260ff8160581c1661016083015260ff8160601c1661018083015260ff8160681c166101a083015260ff8160701c166101c083015260ff8160781c166101e083015260ff8160801c1661020083015260ff8160881c1661022083015260ff8160901c1661024083015260ff8160981c1661026083015260ff8160a01c1661028083015260ff8160a81c166102a083015260ff8160b01c166102c083015260ff8160b81c166102e083015260ff8160c01c1661030083015260ff8160c81c1661032083015260ff8160d01c1661034083015260ff8160d81c1661036083015260ff8160e01c1661038083015260ff8160e81c166103a083015260ff8160f01c166103c083015260f81c6103e0820152019401920185929391613ed5565b84546001600160a01b0316835260019485019486945060209093019201613e9a565b5034610234578060031936011261023457609c546040516001600160a01b039091168152602090f35b5034610234578060031936011261023457602060a354604051908152f35b50346102345760e0366003190112610234576145a4614687565b506145ad61469d565b506001600160401b0360a435818111612391576145ce9036906004016146b3565b505060c43590811161094b576145e89036906004016146b3565b505060405162461bcd60e51b815260206004820152602160248201527f636f6e766572744f66666572546f41756374696f6e3a3a4465707265636174656044820152601960fa1b6064820152608490fd5b5034610234578060031936011261023457609a546040516001600160a01b039091168152602090f35b90503461094b578160031936011261094b57609f546001600160a01b03168152602090f35b600435906001600160a01b0382168203610c2f57565b604435906001600160a01b0382168203610c2f57565b9181601f84011215610c2f578235916001600160401b038311610c2f576020808501948460051b010111610c2f57565b90815180825260208080930193019160005b828110614703575050505090565b83516001600160a01b0316855293810193928101926001016146f5565b6060906003190112610c2f576001600160a01b036004358181168103610c2f5791602435916044359081168103610c2f5790565b6033546001600160a01b0316330361476857565b606460405162461bcd60e51b815260206004820152602060248201527f4f776e61626c653a2063616c6c6572206973206e6f7420746865206f776e65726044820152fd5b61012081019081106001600160401b03821117611b1457604052565b608081019081106001600160401b03821117611b1457604052565b6001600160401b038111611b1457604052565b606081019081106001600160401b03821117611b1457604052565b604081019081106001600160401b03821117611b1457604052565b90601f801991011681019081106001600160401b03821117611b1457604052565b6001600160401b038111611b145760051b60200190565b8181029291811591840414171561487757565b634e487b7160e01b600052601160045260246000fd5b818110614898575050565b6000815560010161488d565b90816020910312610c2f575160ff81168103610c2f5790565b90816020910312610c2f57516001600160a01b0381168103610c2f5790565b600860009182815582600182015582600282015582600382015582600482015582600582015582600682015560078101805484825580614946575b505001908154908083558161492b57505050565b60208161494494601f935220910160051c81019061488d565b565b614959918552602085209081019061488d565b3880614917565b9190820180921161487757565b9190820391821161487757565b90816020910312610c2f57518015158103610c2f5790565b60018060a01b0316604051916331a9108f60e11b835260048301526020918281602481855afa80156122d657614a00928492600092614a87575b5060405163e985e9c560e01b81526001600160a01b0390921660048301523060248301529092839190829081906044820190565b03915afa9081156122d657600091614a6a575b5015614a1c5750565b6084906040519062461bcd60e51b82526004820152602160248201527f6f776e6572206d757374206861766520617070726f76656420636f6e747261636044820152601d60fa1b6064820152fd5b614a819150823d841161238a5761237c818361482c565b38614a13565b614a9f919250833d8511610a9d57610a8e818361482c565b90386149cc565b60001981146148775760010190565b6001600160a01b03168015614b9057604051636eb1769f60e11b815233600482015230602482015290602090829060449082905afa9081156122d657600091614b5f575b5010614b0157565b60405162461bcd60e51b815260206004820152603060248201527f73656e646572206e6565647320746f20617070726f7665206d61726b6574706c60448201526f61636520666f722063757272656e637960801b6064820152608490fd5b906020823d8211614b88575b81614b786020938361482c565b8101031261023457505138614af9565b3d9150614b6b565b5050565b6001600160a01b0316908115614d655734614d0f5760409081516370a0823160e01b938482523060048301526020948583602481855afa928315614d0457908691600094614cd2575b5085516323b872dd60e01b8382015233602482015230604482015260648101869052614c2090614c1a81608481015b03601f19810183528261482c565b84614daa565b602486518094819382523060048301525afa908115614cc757600091614c98575b5090614c4c9161496d565b03614c55575050565b60649250519062461bcd60e51b82526004820152601c60248201527f6e6f7420656e6f75676820746f6b656e73207472616e736665726564000000006044820152fd5b908582813d8311614cc0575b614cae818361482c565b81010312610234575051614c4c614c41565b503d614ca4565b84513d6000823e3d90fd5b9182819592953d8311614cfd575b614cea818361482c565b8101031261023457508590519238614bdd565b503d614ce0565b85513d6000823e3d90fd5b60405162461bcd60e51b815260206004820152602860248201527f6d73672e76616c75652073686f756c642062652030207768656e206e6f7420756044820152670e6d2dcce40cae8d60c31b6064820152608490fd5b90503403614d6f57565b60405162461bcd60e51b81526020600482015260136024820152721b9bdd08195b9bdd59da08195d1a081cd95b9d606a1b6044820152606490fd5b604051614e08916001600160a01b0316614dc382614811565b6000806020958685527f5361666545524332303a206c6f772d6c6576656c2063616c6c206661696c656487860152868151910182855af1614e02614e90565b91614ecf565b805190828215928315614e78575b50505015614e215750565b6084906040519062461bcd60e51b82526004820152602a60248201527f5361666545524332303a204552433230206f7065726174696f6e20646964206e6044820152691bdd081cdd58d8d9595960b21b6064820152fd5b614e88935082018101910161497a565b388281614e16565b3d15614eca573d906001600160401b038211611b145760405191614ebe601f8201601f19166020018461482c565b82523d6000602084013e565b606090565b91929015614f315750815115614ee3575090565b3b15614eec5790565b60405162461bcd60e51b815260206004820152601d60248201527f416464726573733a2063616c6c20746f206e6f6e2d636f6e74726163740000006044820152606490fd5b825190915015614f445750805190602001fd5b60405162461bcd60e51b8152908190614f609060048301614f64565b0390fd5b6020808252825181830181905290939260005b828110614f9957505060409293506000838284010152601f8019910116010190565b818101860151848201604001528501614f77565b15614f445750565b92919080156150465760646106ba614fcd9383614864565b6001600160a01b039290919083168015614feb57614944935061504c565b50609e5460405163410085df60e01b602082019081526001600160a01b039093166024820152604481018490526149449460009485949390911692916150348160648101614c0c565b51925af1615040614e90565b90614fad565b50505050565b60405163a9059cbb60e01b60208201526001600160a01b039290921660248301526044808301939093529181526149449161508860648361482c565b614daa565b80511561509a5760200190565b634e487b7160e01b600052603260045260246000fd5b80516001101561509a5760400190565b805182101561509a5760209160051b010190565b9293929091906001600160a01b039081168061516f5750609e54169160405160206151178183019463c176e63960e01b86526040602485015260648401906146e3565b82810360231901604484015287518082529082019782019160005b82811061515b57505050509160009391836150348695614944989903601f19810183528261482c565b83518a529881019892810192600101615132565b9492509060005b81518110156151af57806151a5846151916151aa94866150c0565b511661519d83886150c0565b51908961504c565b614aa6565b615176565b50505050905056fea2646970667358221220a452bcfe68796db77058fe59c5580b1d92395beb85efb357ae193ddbd54a9bcc64736f6c63430008120033","linkReferences":{}},"methodIdentifiers":{"COLDIE_AUCTION()":"c90b8714","NO_AUCTION()":"155a56b1","SCHEDULED_AUCTION()":"b23afc26","approvedTokenRegistry()":"6240cd1c","auctionBids(address,uint256)":"299a0e1e","auctionLengthExtension()":"daa26499","bid(address,uint256,address,uint256)":"b5678588","cancelAuction(address,uint256)":"859b97fe","configureAuction(bytes32,address,uint256,uint256,address,uint256,uint256,address[],uint8[])":"9041a0ec","convertOfferToAuction(address,uint256,address,uint256,uint256,address[],uint8[])":"060d9eeb","getAuctionDetails(address,uint256)":"0cd87c68","marketplaceSettings()":"ba50b632","maxAuctionLength()":"0e519ef9","minimumBidIncreasePercentage()":"6fe9f44c","networkBeneficiary()":"6b534ed0","offerCancelationDelay()":"0a5c4ed5","owner()":"8da5cb5b","payments()":"a6d23e10","renounceOwnership()":"715018a6","royaltyEngine()":"4c94c90c","royaltyRegistry()":"a11b0712","settleAuction(address,uint256)":"5138b08c","spaceOperatorRegistry()":"0bcba09d","stakingRegistry()":"009d9aa9","superRareAuctionHouse()":"3bc3d9be","superRareMarketplace()":"0141c590","tokenAuctions(address,uint256)":"c47c35c1","tokenCurrentOffers(address,uint256,address)":"2c419053","tokenSalePrices(address,uint256,address)":"1a2ac30f","transferOwnership(address)":"f2fde38b"},"id":149}