{"abi":[{"type":"constructor","inputs":[{"name":"_name","type":"string","internalType":"string"},{"name":"_symbol","type":"string","internalType":"string"}],"stateMutability":"nonpayable"},{"type":"function","name":"addNewToken","inputs":[{"name":"_uri","type":"string","internalType":"string"}],"outputs":[],"stateMutability":"nonpayable"},{"type":"function","name":"approve","inputs":[{"name":"to","type":"address","internalType":"address"},{"name":"tokenId","type":"uint256","internalType":"uint256"}],"outputs":[],"stateMutability":"nonpayable"},{"type":"function","name":"balanceOf","inputs":[{"name":"owner","type":"address","internalType":"address"}],"outputs":[{"name":"","type":"uint256","internalType":"uint256"}],"stateMutability":"view"},{"type":"function","name":"deleteToken","inputs":[{"name":"_tokenId","type":"uint256","internalType":"uint256"}],"outputs":[],"stateMutability":"nonpayable"},{"type":"function","name":"getApproved","inputs":[{"name":"tokenId","type":"uint256","internalType":"uint256"}],"outputs":[{"name":"","type":"address","internalType":"address"}],"stateMutability":"view"},{"type":"function","name":"getMintingAllowance","inputs":[{"name":"_address","type":"address","internalType":"address"}],"outputs":[{"name":"","type":"uint256","internalType":"uint256"}],"stateMutability":"view"},{"type":"function","name":"initWhitelist","inputs":[{"name":"_whitelistees","type":"address[]","internalType":"address[]"}],"outputs":[],"stateMutability":"nonpayable"},{"type":"function","name":"isApprovedForAll","inputs":[{"name":"owner","type":"address","internalType":"address"},{"name":"operator","type":"address","internalType":"address"}],"outputs":[{"name":"","type":"bool","internalType":"bool"}],"stateMutability":"view"},{"type":"function","name":"isWhitelisted","inputs":[{"name":"_address","type":"address","internalType":"address"}],"outputs":[{"name":"","type":"bool","internalType":"bool"}],"stateMutability":"view"},{"type":"function","name":"mintingAllowance","inputs":[{"name":"","type":"address","internalType":"address"}],"outputs":[{"name":"","type":"uint256","internalType":"uint256"}],"stateMutability":"view"},{"type":"function","name":"name","inputs":[],"outputs":[{"name":"","type":"string","internalType":"string"}],"stateMutability":"view"},{"type":"function","name":"owner","inputs":[],"outputs":[{"name":"","type":"address","internalType":"address"}],"stateMutability":"view"},{"type":"function","name":"ownerOf","inputs":[{"name":"tokenId","type":"uint256","internalType":"uint256"}],"outputs":[{"name":"","type":"address","internalType":"address"}],"stateMutability":"view"},{"type":"function","name":"renounceOwnership","inputs":[],"outputs":[],"stateMutability":"nonpayable"},{"type":"function","name":"safeTransferFrom","inputs":[{"name":"from","type":"address","internalType":"address"},{"name":"to","type":"address","internalType":"address"},{"name":"tokenId","type":"uint256","internalType":"uint256"}],"outputs":[],"stateMutability":"nonpayable"},{"type":"function","name":"safeTransferFrom","inputs":[{"name":"from","type":"address","internalType":"address"},{"name":"to","type":"address","internalType":"address"},{"name":"tokenId","type":"uint256","internalType":"uint256"},{"name":"data","type":"bytes","internalType":"bytes"}],"outputs":[],"stateMutability":"nonpayable"},{"type":"function","name":"setApprovalForAll","inputs":[{"name":"operator","type":"address","internalType":"address"},{"name":"approved","type":"bool","internalType":"bool"}],"outputs":[],"stateMutability":"nonpayable"},{"type":"function","name":"supportsInterface","inputs":[{"name":"interfaceId","type":"bytes4","internalType":"bytes4"}],"outputs":[{"name":"","type":"bool","internalType":"bool"}],"stateMutability":"view"},{"type":"function","name":"symbol","inputs":[],"outputs":[{"name":"","type":"string","internalType":"string"}],"stateMutability":"view"},{"type":"function","name":"tokenCreator","inputs":[{"name":"_tokenId","type":"uint256","internalType":"uint256"}],"outputs":[{"name":"","type":"address","internalType":"address payable"}],"stateMutability":"view"},{"type":"function","name":"tokenURI","inputs":[{"name":"tokenId","type":"uint256","internalType":"uint256"}],"outputs":[{"name":"","type":"string","internalType":"string"}],"stateMutability":"view"},{"type":"function","name":"transferFrom","inputs":[{"name":"from","type":"address","internalType":"address"},{"name":"to","type":"address","internalType":"address"},{"name":"tokenId","type":"uint256","internalType":"uint256"}],"outputs":[],"stateMutability":"nonpayable"},{"type":"function","name":"transferOwnership","inputs":[{"name":"newOwner","type":"address","internalType":"address"}],"outputs":[],"stateMutability":"nonpayable"},{"type":"function","name":"updateTokenMetadata","inputs":[{"name":"_tokenId","type":"uint256","internalType":"uint256"},{"name":"_uri","type":"string","internalType":"string"}],"outputs":[],"stateMutability":"nonpayable"},{"type":"function","name":"whitelistEnabled","inputs":[],"outputs":[{"name":"","type":"bool","internalType":"bool"}],"stateMutability":"view"},{"type":"event","name":"Approval","inputs":[{"name":"owner","type":"address","indexed":true,"internalType":"address"},{"name":"approved","type":"address","indexed":true,"internalType":"address"},{"name":"tokenId","type":"uint256","indexed":true,"internalType":"uint256"}],"anonymous":false},{"type":"event","name":"ApprovalForAll","inputs":[{"name":"owner","type":"address","indexed":true,"internalType":"address"},{"name":"operator","type":"address","indexed":true,"internalType":"address"},{"name":"approved","type":"bool","indexed":false,"internalType":"bool"}],"anonymous":false},{"type":"event","name":"MintingAllowanceUpdated","inputs":[{"name":"_address","type":"address","indexed":true,"internalType":"address"},{"name":"_allowedAmount","type":"uint256","indexed":false,"internalType":"uint256"}],"anonymous":false},{"type":"event","name":"OwnershipTransferred","inputs":[{"name":"previousOwner","type":"address","indexed":true,"internalType":"address"},{"name":"newOwner","type":"address","indexed":true,"internalType":"address"}],"anonymous":false},{"type":"event","name":"TokenURIUpdated","inputs":[{"name":"_tokenId","type":"uint256","indexed":true,"internalType":"uint256"},{"name":"_uri","type":"string","indexed":false,"internalType":"string"}],"anonymous":false},{"type":"event","name":"Transfer","inputs":[{"name":"from","type":"address","indexed":true,"internalType":"address"},{"name":"to","type":"address","indexed":true,"internalType":"address"},{"name":"tokenId","type":"uint256","indexed":true,"internalType":"uint256"}],"anonymous":false}],"bytecode":{"object":"0x608060405234620003735762001b87803803806200001d8162000378565b928339810190604081830312620003735780516001600160401b039290838111620003735781620000509184016200039e565b916020918282015185811162000373576200006c92016200039e565b9282518181116200035d576000928354916001958684811c9416801562000352575b838510146200033e578190601f94858111620002eb575b508390858311600114620002875787926200027b575b5050600019600383901b1c191690861b1784555b8551928311620002675784548581811c911680156200025c575b82821014620002485782811162000200575b50809183116001146200019857508293948293926200018c575b5050600019600383901b1c191690831b1782555b60078054336001600160a01b0319821681179092556040519391906001600160a01b03167f8be0079c531659141344cd1fd0a4f28419497f9722a3daafe3b4186f6b6457e08480a360ff196009541617600955600b556117769081620004118239f35b01519050388062000115565b90601f198316958585528285209285905b888210620001e857505083869796959610620001ce575b505050811b01825562000129565b015160001960f88460031b161c19169055388080620001c0565b808885968294968601518155019501930190620001a9565b8585528185208380860160051c8201928487106200023e575b0160051c019086905b82811062000232575050620000fb565b86815501869062000222565b9250819262000219565b634e487b7160e01b85526022600452602485fd5b90607f1690620000e9565b634e487b7160e01b84526041600452602484fd5b015190503880620000bb565b8780528488208994509190601f198416895b87828210620002d45750508411620002ba575b505050811b018455620000cf565b015160001960f88460031b161c19169055388080620002ac565b8385015186558c9790950194938401930162000299565b9091508680528387208580850160051c82019286861062000334575b918a91869594930160051c01915b82811062000325575050620000a5565b8981558594508a910162000315565b9250819262000307565b634e487b7160e01b86526022600452602486fd5b93607f16936200008e565b634e487b7160e01b600052604160045260246000fd5b600080fd5b6040519190601f01601f191682016001600160401b038111838210176200035d57604052565b919080601f84011215620003735782516001600160401b0381116200035d57602090620003d4601f8201601f1916830162000378565b92818452828287010111620003735760005b818110620003fc57508260009394955001015290565b8581018301518482018401528201620003e656fe6080604081815260048036101561001557600080fd5b600092833560e01c90816301ffc9a714610e075750806306fdde0314610d5f578063081812fc14610d3f578063095ea7b314610bd257806323b872dd14610ba85780632cb2f52e14610ac85780632d13f7d814610a9b5780633af32abf14610a6c57806340c1a06414610a3a57806342842e0e14610a1157806351fb012d146109ed578381636297c16c1461093b575080636352211e1461090a57806370a0823114610874578063715018a61461081757806381b97161146107df5780638da5cb5b146107b657806395d89b41146106d3578063a22cb46514610608578063b85ecf93146104d3578063b88d4fde1461046f578063c87b56dd146103ff578063d9856c2114610253578063e985e9c5146102015763f2fde38b1461013857600080fd5b346101fd5760203660031901126101fd57610151610eb3565b9061015a610fde565b6001600160a01b039182169283156101ab575050600754826001600160601b0360a01b821617600755167f8be0079c531659141344cd1fd0a4f28419497f9722a3daafe3b4186f6b6457e08380a380f35b906020608492519162461bcd60e51b8352820152602660248201527f4f776e61626c653a206e6577206f776e657220697320746865207a65726f206160448201526564647265737360d01b6064820152fd5b8280fd5b50503461024f578060031936011261024f5760ff81602093610221610eb3565b610229610ece565b6001600160a01b0391821683526005875283832091168252855220549151911615158152f35b5080fd5b5090346101fd576020806003193601126103fb57823567ffffffffffffffff81116103f7576102859036908501610fc0565b9261028f33611729565b156103aa57600b54906102a182611514565b600b553315610369575060008181526002602052604090205460069291906102d5906001600160a01b031615155b15611585565b6000818152600260205260409020546102f8906001600160a01b031615156102cf565b338652600382528386206001815401905580865260028252610358848720956001600160601b0360a01b9633888254161790558233897fddf252ad1be2c89b69c2b068fc378daa952ba7f163c4a11628f55a4df523b3ef8180a4826115d1565b855252822090339082541617905580f35b606490838086519262461bcd60e51b845283015260248201527f4552433732313a206d696e7420746f20746865207a65726f20616464726573736044820152fd5b915162461bcd60e51b8152918201526024808201527f6d7573742062652077686974656c697374656420746f2063726561746520746f6044820152636b656e7360e01b6064820152608490fd5b8480fd5b8380fd5b5091903461024f57602036600319011261024f5761043e61043961046b9435600052600260205260018060a01b0360406000205416151590565b611036565b81815161044a81610f19565b5280519161045783610f19565b825251918291602083526020830190610e73565b0390f35b83823461024f57608036600319011261024f5761048a610eb3565b610492610ece565b9060643567ffffffffffffffff81116103f757366023820112156103f7576104d0938160246104c693369301359101610f89565b916044359161117f565b80f35b5091903461024f57602091826003193601126106055783359267ffffffffffffffff948585116101fd57366023860112156101fd57848101359586116105f2575060059385851b84519661052984830189610f4b565b8752602483880191830101913683116103f757602401905b8282106105cf57505050610553610fde565b815b85518110156105cb5780851b860182015161058991906001600160a01b031661057d81611729565b1561058e575b50611514565b610555565b808552600884527fbc6a3f008d10f4c6e9c2a833342ba74f94b2beb3479cfb358034d6e1bc7e5c3e8460001980898920558851908152a238610583565b8280f35b81356001600160a01b03811681036105ee578152908301908301610541565b8580fd5b634e487b7160e01b835260419052602482fd5b80fd5b5090346101fd57806003193601126101fd57610622610eb3565b90602435918215158093036103f7576001600160a01b0316923384146106915750338452600560205280842083855260205280842060ff1981541660ff8416179055519081527f17307eab39ab6107e8899845ad3d59bd9653f200f220920489ca2b5937696c3160203392a380f35b6020606492519162461bcd60e51b8352820152601960248201527f4552433732313a20617070726f766520746f2063616c6c6572000000000000006044820152fd5b50503461024f578160031936011261024f578051908260018054916106f7836110a5565b8086529282811690811561078e5750600114610732575b5050506107208261046b940383610f4b565b51918291602083526020830190610e73565b94508085527fb10e2d527612073b26eecdfd717e6a320cf44b4afac2b0732d9fcbe2b7fa0cf65b8286106107765750505061072082602061046b958201019461070e565b80546020878701810191909152909501948101610759565b61046b97508693506020925061072094915060ff191682840152151560051b8201019461070e565b50503461024f578160031936011261024f5760075490516001600160a01b039091168152602090f35b50503461024f57602036600319011261024f5760209181906001600160a01b03610807610eb3565b1681526008845220549051908152f35b8334610605578060031936011261060557610830610fde565b600780546001600160a01b0319811690915581906001600160a01b03167f8be0079c531659141344cd1fd0a4f28419497f9722a3daafe3b4186f6b6457e08280a380f35b5082903461024f57602036600319011261024f576001600160a01b03610898610eb3565b169081156108b55760208480858581526003845220549051908152f35b608490602085519162461bcd60e51b8352820152602960248201527f4552433732313a2061646472657373207a65726f206973206e6f7420612076616044820152683634b21037bbb732b960b91b6064820152fd5b509134610605576020366003190112610605575061092a60209235611082565b90516001600160a01b039091168152f35b8281853461024f57602036600319011261024f5782359261095b84611082565b6001600160a01b03906109719082163314611539565b61097a85611082565b5061098485611082565b91858552602052828420916001600160601b0360a01b92838154169055169182845260036020528084206000198154019055848452600260205283209081541690557fddf252ad1be2c89b69c2b068fc378daa952ba7f163c4a11628f55a4df523b3ef8280a480f35b50503461024f578160031936011261024f5760209060ff6009541690519015158152f35b50503461024f576104d090610a2536610ee4565b91925192610a3284610f19565b85845261117f565b50346101fd5760203660031901126101fd5735825260066020908152918190205490516001600160a01b039091168152f35b50503461024f57602036600319011261024f57602090610a92610a8d610eb3565b611729565b90519015158152f35b50503461024f57602036600319011261024f57602090610ac1610abc610eb3565b6116fc565b9051908152f35b50346101fd57816003193601126101fd5780359160243567ffffffffffffffff81116103f757610afb9036908401610fc0565b91610b0584611082565b6001600160a01b0390610b1b9082163314611539565b84865260066020523390838720541603610b66575081610b60916107207f931f495b9a8e5d8e61946ea5d61e021f636cfe213a801f97589c18c152e408bd94866115d1565b0390a280f35b6020606492519162461bcd60e51b8352820152602060248201527f6d757374206265207468652063726561746f72206f662074686520746f6b656e6044820152fd5b8334610605576104d0610bba36610ee4565b91610bcd610bc8843361121a565b61111d565b6112e2565b50346101fd57816003193601126101fd57610beb610eb3565b6024359290916001600160a01b0391908280610c0687611082565b16941693808514610cf257803314908115610cd3575b5015610c6b57848652602052842080546001600160a01b03191683179055610c4383611082565b167f8c5be1e5ebec7d5bd14f71427d1e84f3dd0314c0f7b2291e5b200ac8c7c3b9258480a480f35b6020608492519162461bcd60e51b8352820152603d60248201527f4552433732313a20617070726f76652063616c6c6572206973206e6f7420746f60448201527f6b656e206f776e6572206f7220617070726f76656420666f7220616c6c0000006064820152fd5b90508652600560205281862033875260205260ff828720541638610c1c565b506020608492519162461bcd60e51b8352820152602160248201527f4552433732313a20617070726f76616c20746f2063757272656e74206f776e656044820152603960f91b6064820152fd5b509134610605576020366003190112610605575061092a602092356110df565b50503461024f578160031936011261024f57805190828054610d80816110a5565b8085529160019180831690811561078e5750600114610dab575050506107208261046b940383610f4b565b80809650527f290decd9548b62a8d60345a988386fc84ba6bc95484008f6362f93160ef3e5635b828610610def5750505061072082602061046b958201019461070e565b80546020878701810191909152909501948101610dd2565b925050346101fd5760203660031901126101fd573563ffffffff60e01b81168091036101fd57602092506380ac58cd60e01b8114908115610e62575b8115610e51575b5015158152f35b6301ffc9a760e01b14905038610e4a565b635b5e139f60e01b81149150610e43565b919082519283825260005b848110610e9f575050826000602080949584010152601f8019910116010190565b602081830181015184830182015201610e7e565b600435906001600160a01b0382168203610ec957565b600080fd5b602435906001600160a01b0382168203610ec957565b6060906003190112610ec9576001600160a01b03906004358281168103610ec957916024359081168103610ec9579060443590565b6020810190811067ffffffffffffffff821117610f3557604052565b634e487b7160e01b600052604160045260246000fd5b90601f8019910116810190811067ffffffffffffffff821117610f3557604052565b67ffffffffffffffff8111610f3557601f01601f191660200190565b929192610f9582610f6d565b91610fa36040519384610f4b565b829481845281830111610ec9578281602093846000960137010152565b9080601f83011215610ec957816020610fdb93359101610f89565b90565b6007546001600160a01b03163303610ff257565b606460405162461bcd60e51b815260206004820152602060248201527f4f776e61626c653a2063616c6c6572206973206e6f7420746865206f776e65726044820152fd5b1561103d57565b60405162461bcd60e51b815260206004820152601860248201527f4552433732313a20696e76616c696420746f6b656e20494400000000000000006044820152606490fd5b6000908152600260205260409020546001600160a01b0316610fdb811515611036565b90600182811c921680156110d5575b60208310146110bf57565b634e487b7160e01b600052602260045260246000fd5b91607f16916110b4565b600081815260026020526040902054611102906001600160a01b03161515611036565b6000908152600460205260409020546001600160a01b031690565b1561112457565b60405162461bcd60e51b815260206004820152602d60248201527f4552433732313a2063616c6c6572206973206e6f7420746f6b656e206f776e6560448201526c1c881bdc88185c1c1c9bdd9959609a1b6064820152608490fd5b906111a3939291611193610bc8843361121a565b61119e8383836112e2565b6113f3565b156111aa57565b60405162461bcd60e51b8152806111c3600482016111c7565b0390fd5b60809060208152603260208201527f4552433732313a207472616e7366657220746f206e6f6e20455243373231526560408201527131b2b4bb32b91034b6b83632b6b2b73a32b960711b60608201520190565b906001600160a01b03808061122e84611082565b16931691838314938415611261575b50831561124b575b50505090565b611257919293506110df565b1614388080611245565b909350600052600560205260406000208260005260205260ff60406000205416923861123d565b1561128f57565b60405162461bcd60e51b815260206004820152602560248201527f4552433732313a207472616e736665722066726f6d20696e636f72726563742060448201526437bbb732b960d91b6064820152608490fd5b9061130a916112f084611082565b6001600160a01b0393918416928492909183168414611288565b169182156113a257816113279161132086611082565b1614611288565b7fddf252ad1be2c89b69c2b068fc378daa952ba7f163c4a11628f55a4df523b3ef60008481526004602052604081206001600160601b0360a01b9081815416905583825260036020526040822060001981540190558482526040822060018154019055858252600260205284604083209182541617905580a4565b60405162461bcd60e51b8152602060048201526024808201527f4552433732313a207472616e7366657220746f20746865207a65726f206164646044820152637265737360e01b6064820152608490fd5b9293600093909291803b156115095794849161144d9660405180948193630a85bd0160e11b9788845233600485015260018060a01b0380921660248501526044840152608060648401528260209b8c976084830190610e73565b0393165af18491816114c9575b506114b8575050503d6000146114b0573d61147481610f6d565b906114826040519283610f4b565b81528091833d92013e5b805191826114ad5760405162461bcd60e51b8152806111c3600482016111c7565b01fd5b50606061148c565b6001600160e01b0319161492509050565b9091508581813d8311611502575b6114e18183610f4b565b810103126103f757516001600160e01b0319811681036103f757903861145a565b503d6114d7565b505050915050600190565b60001981146115235760010190565b634e487b7160e01b600052601160045260246000fd5b1561154057565b60405162461bcd60e51b815260206004820152601e60248201527f6d75737420626520746865206f776e6572206f662074686520746f6b656e00006044820152606490fd5b1561158c57565b60405162461bcd60e51b815260206004820152601c60248201527f4552433732313a20746f6b656e20616c7265616479206d696e746564000000006044820152606490fd5b9190916000908152602092600a8452604082209181519167ffffffffffffffff83116116e85761160184546110a5565b601f81116116a5575b508591601f841160011461164457839495965092611639575b50508160011b916000199060031b1c1916179055565b015190503880611623565b9190601f1984169685845280842093905b88821061168d57505083600195969710611674575b505050811b019055565b015160001960f88460031b161c1916905538808061166a565b80600185968294968601518155019501930190611655565b848352868320601f850160051c8101918886106116de575b601f0160051c01905b8181106116d3575061160a565b8381556001016116c6565b90915081906116bd565b634e487b7160e01b82526041600452602482fd5b60095460ff1615611722576001600160a01b031660009081526008602052604090205490565b5060001990565b611732906116fc565b60009015610fdb575060019056fea26469706673582212200a29f9e604a7eaf096e3aaa87c52813205a76a627451a5650d3b283ca9da83b264736f6c63430008120033","linkReferences":{}},"methodIdentifiers":{"addNewToken(string)":"d9856c21","approve(address,uint256)":"095ea7b3","balanceOf(address)":"70a08231","deleteToken(uint256)":"6297c16c","getApproved(uint256)":"081812fc","getMintingAllowance(address)":"2d13f7d8","initWhitelist(address[])":"b85ecf93","isApprovedForAll(address,address)":"e985e9c5","isWhitelisted(address)":"3af32abf","mintingAllowance(address)":"81b97161","name()":"06fdde03","owner()":"8da5cb5b","ownerOf(uint256)":"6352211e","renounceOwnership()":"715018a6","safeTransferFrom(address,address,uint256)":"42842e0e","safeTransferFrom(address,address,uint256,bytes)":"b88d4fde","setApprovalForAll(address,bool)":"a22cb465","supportsInterface(bytes4)":"01ffc9a7","symbol()":"95d89b41","tokenCreator(uint256)":"40c1a064","tokenURI(uint256)":"c87b56dd","transferFrom(address,address,uint256)":"23b872dd","transferOwnership(address)":"f2fde38b","updateTokenMetadata(uint256,string)":"2cb2f52e","whitelistEnabled()":"51fb012d"},"id":211}