{
  "abi": [
    {
      "anonymous": false,
      "inputs": [
        {
          "indexed": true,
          "internalType": "address",
          "name": "_originContract",
          "type": "address"
        },
        {
          "indexed": true,
          "internalType": "address",
          "name": "_bidder",
          "type": "address"
        },
        {
          "indexed": true,
          "internalType": "address",
          "name": "_seller",
          "type": "address"
        },
        {
          "indexed": false,
          "internalType": "address",
          "name": "_currencyAddress",
          "type": "address"
        },
        {
          "indexed": false,
          "internalType": "uint256",
          "name": "_amount",
          "type": "uint256"
        },
        {
          "indexed": false,
          "internalType": "uint256",
          "name": "_tokenId",
          "type": "uint256"
        },
        {
          "indexed": false,
          "internalType": "address payable[]",
          "name": "_splitAddresses",
          "type": "address[]"
        },
        {
          "indexed": false,
          "internalType": "uint8[]",
          "name": "_splitRatios",
          "type": "uint8[]"
        }
      ],
      "name": "AcceptOffer",
      "type": "event"
    },
    {
      "anonymous": false,
      "inputs": [
        {
          "indexed": true,
          "internalType": "address",
          "name": "_contractAddress",
          "type": "address"
        },
        {
          "indexed": true,
          "internalType": "address",
          "name": "_bidder",
          "type": "address"
        },
        {
          "indexed": true,
          "internalType": "uint256",
          "name": "_tokenId",
          "type": "uint256"
        },
        {
          "indexed": false,
          "internalType": "address",
          "name": "_currencyAddress",
          "type": "address"
        },
        {
          "indexed": false,
          "internalType": "uint256",
          "name": "_amount",
          "type": "uint256"
        },
        {
          "indexed": false,
          "internalType": "bool",
          "name": "_startedAuction",
          "type": "bool"
        },
        {
          "indexed": false,
          "internalType": "uint256",
          "name": "_newAuctionLength",
          "type": "uint256"
        },
        {
          "indexed": false,
          "internalType": "address",
          "name": "_previousBidder",
          "type": "address"
        }
      ],
      "name": "AuctionBid",
      "type": "event"
    },
    {
      "anonymous": false,
      "inputs": [
        {
          "indexed": true,
          "internalType": "address",
          "name": "_contractAddress",
          "type": "address"
        },
        {
          "indexed": true,
          "internalType": "address",
          "name": "_bidder",
          "type": "address"
        },
        {
          "indexed": false,
          "internalType": "address",
          "name": "_seller",
          "type": "address"
        },
        {
          "indexed": true,
          "internalType": "uint256",
          "name": "_tokenId",
          "type": "uint256"
        },
        {
          "indexed": false,
          "internalType": "address",
          "name": "_currencyAddress",
          "type": "address"
        },
        {
          "indexed": false,
          "internalType": "uint256",
          "name": "_amount",
          "type": "uint256"
        }
      ],
      "name": "AuctionSettled",
      "type": "event"
    },
    {
      "anonymous": false,
      "inputs": [
        {
          "indexed": true,
          "internalType": "address",
          "name": "_contractAddress",
          "type": "address"
        },
        {
          "indexed": true,
          "internalType": "uint256",
          "name": "_tokenId",
          "type": "uint256"
        },
        {
          "indexed": true,
          "internalType": "address",
          "name": "_auctionCreator",
          "type": "address"
        }
      ],
      "name": "CancelAuction",
      "type": "event"
    },
    {
      "anonymous": false,
      "inputs": [
        {
          "indexed": true,
          "internalType": "address",
          "name": "_originContract",
          "type": "address"
        },
        {
          "indexed": true,
          "internalType": "address",
          "name": "_bidder",
          "type": "address"
        },
        {
          "indexed": true,
          "internalType": "address",
          "name": "_currencyAddress",
          "type": "address"
        },
        {
          "indexed": false,
          "internalType": "uint256",
          "name": "_amount",
          "type": "uint256"
        },
        {
          "indexed": false,
          "internalType": "uint256",
          "name": "_tokenId",
          "type": "uint256"
        }
      ],
      "name": "CancelOffer",
      "type": "event"
    },
    {
      "anonymous": false,
      "inputs": [
        {
          "indexed": false,
          "internalType": "uint8",
          "name": "version",
          "type": "uint8"
        }
      ],
      "name": "Initialized",
      "type": "event"
    },
    {
      "anonymous": false,
      "inputs": [
        {
          "indexed": true,
          "internalType": "address",
          "name": "_contractAddress",
          "type": "address"
        },
        {
          "indexed": true,
          "internalType": "uint256",
          "name": "_tokenId",
          "type": "uint256"
        },
        {
          "indexed": true,
          "internalType": "address",
          "name": "_auctionCreator",
          "type": "address"
        },
        {
          "indexed": false,
          "internalType": "address",
          "name": "_currencyAddress",
          "type": "address"
        },
        {
          "indexed": false,
          "internalType": "uint256",
          "name": "_startingTime",
          "type": "uint256"
        },
        {
          "indexed": false,
          "internalType": "uint256",
          "name": "_minimumBid",
          "type": "uint256"
        },
        {
          "indexed": false,
          "internalType": "uint256",
          "name": "_lengthOfAuction",
          "type": "uint256"
        }
      ],
      "name": "NewAuction",
      "type": "event"
    },
    {
      "anonymous": false,
      "inputs": [
        {
          "indexed": true,
          "internalType": "address",
          "name": "_originContract",
          "type": "address"
        },
        {
          "indexed": true,
          "internalType": "address",
          "name": "_bidder",
          "type": "address"
        },
        {
          "indexed": true,
          "internalType": "address",
          "name": "_currencyAddress",
          "type": "address"
        },
        {
          "indexed": false,
          "internalType": "uint256",
          "name": "_amount",
          "type": "uint256"
        },
        {
          "indexed": false,
          "internalType": "uint256",
          "name": "_tokenId",
          "type": "uint256"
        },
        {
          "indexed": false,
          "internalType": "bool",
          "name": "_convertible",
          "type": "bool"
        }
      ],
      "name": "OfferPlaced",
      "type": "event"
    },
    {
      "anonymous": false,
      "inputs": [
        {
          "indexed": true,
          "internalType": "address",
          "name": "previousOwner",
          "type": "address"
        },
        {
          "indexed": true,
          "internalType": "address",
          "name": "newOwner",
          "type": "address"
        }
      ],
      "name": "OwnershipTransferred",
      "type": "event"
    },
    {
      "anonymous": false,
      "inputs": [
        {
          "indexed": true,
          "internalType": "address",
          "name": "_originContract",
          "type": "address"
        },
        {
          "indexed": true,
          "internalType": "address",
          "name": "_currencyAddress",
          "type": "address"
        },
        {
          "indexed": false,
          "internalType": "address",
          "name": "_target",
          "type": "address"
        },
        {
          "indexed": false,
          "internalType": "uint256",
          "name": "_amount",
          "type": "uint256"
        },
        {
          "indexed": false,
          "internalType": "uint256",
          "name": "_tokenId",
          "type": "uint256"
        },
        {
          "indexed": false,
          "internalType": "address payable[]",
          "name": "_splitRecipients",
          "type": "address[]"
        },
        {
          "indexed": false,
          "internalType": "uint8[]",
          "name": "_splitRatios",
          "type": "uint8[]"
        }
      ],
      "name": "SetSalePrice",
      "type": "event"
    },
    {
      "anonymous": false,
      "inputs": [
        {
          "indexed": true,
          "internalType": "address",
          "name": "_originContract",
          "type": "address"
        },
        {
          "indexed": true,
          "internalType": "address",
          "name": "_buyer",
          "type": "address"
        },
        {
          "indexed": true,
          "internalType": "address",
          "name": "_seller",
          "type": "address"
        },
        {
          "indexed": false,
          "internalType": "address",
          "name": "_currencyAddress",
          "type": "address"
        },
        {
          "indexed": false,
          "internalType": "uint256",
          "name": "_amount",
          "type": "uint256"
        },
        {
          "indexed": false,
          "internalType": "uint256",
          "name": "_tokenId",
          "type": "uint256"
        }
      ],
      "name": "Sold",
      "type": "event"
    },
    {
      "inputs": [],
      "name": "COLDIE_AUCTION",
      "outputs": [
        {
          "internalType": "bytes32",
          "name": "",
          "type": "bytes32"
        }
      ],
      "stateMutability": "view",
      "type": "function"
    },
    {
      "inputs": [],
      "name": "NO_AUCTION",
      "outputs": [
        {
          "internalType": "bytes32",
          "name": "",
          "type": "bytes32"
        }
      ],
      "stateMutability": "view",
      "type": "function"
    },
    {
      "inputs": [],
      "name": "SCHEDULED_AUCTION",
      "outputs": [
        {
          "internalType": "bytes32",
          "name": "",
          "type": "bytes32"
        }
      ],
      "stateMutability": "view",
      "type": "function"
    },
    {
      "inputs": [],
      "name": "approvedTokenRegistry",
      "outputs": [
        {
          "internalType": "contract IApprovedTokenRegistry",
          "name": "",
          "type": "address"
        }
      ],
      "stateMutability": "view",
      "type": "function"
    },
    {
      "inputs": [
        {
          "internalType": "address",
          "name": "",
          "type": "address"
        },
        {
          "internalType": "uint256",
          "name": "",
          "type": "uint256"
        }
      ],
      "name": "auctionBids",
      "outputs": [
        {
          "internalType": "address payable",
          "name": "bidder",
          "type": "address"
        },
        {
          "internalType": "address",
          "name": "currencyAddress",
          "type": "address"
        },
        {
          "internalType": "uint256",
          "name": "amount",
          "type": "uint256"
        },
        {
          "internalType": "uint8",
          "name": "marketplaceFee",
          "type": "uint8"
        }
      ],
      "stateMutability": "view",
      "type": "function"
    },
    {
      "inputs": [],
      "name": "auctionLengthExtension",
      "outputs": [
        {
          "internalType": "uint256",
          "name": "",
          "type": "uint256"
        }
      ],
      "stateMutability": "view",
      "type": "function"
    },
    {
      "inputs": [
        {
          "internalType": "address",
          "name": "_originContract",
          "type": "address"
        },
        {
          "internalType": "uint256",
          "name": "_tokenId",
          "type": "uint256"
        },
        {
          "internalType": "address",
          "name": "_currencyAddress",
          "type": "address"
        },
        {
          "internalType": "uint256",
          "name": "_amount",
          "type": "uint256"
        }
      ],
      "name": "bid",
      "outputs": [],
      "stateMutability": "payable",
      "type": "function"
    },
    {
      "inputs": [
        {
          "internalType": "address",
          "name": "_originContract",
          "type": "address"
        },
        {
          "internalType": "uint256",
          "name": "_tokenId",
          "type": "uint256"
        }
      ],
      "name": "cancelAuction",
      "outputs": [],
      "stateMutability": "nonpayable",
      "type": "function"
    },
    {
      "inputs": [
        {
          "internalType": "bytes32",
          "name": "_auctionType",
          "type": "bytes32"
        },
        {
          "internalType": "address",
          "name": "_originContract",
          "type": "address"
        },
        {
          "internalType": "uint256",
          "name": "_tokenId",
          "type": "uint256"
        },
        {
          "internalType": "uint256",
          "name": "_startingAmount",
          "type": "uint256"
        },
        {
          "internalType": "address",
          "name": "_currencyAddress",
          "type": "address"
        },
        {
          "internalType": "uint256",
          "name": "_lengthOfAuction",
          "type": "uint256"
        },
        {
          "internalType": "uint256",
          "name": "_startTime",
          "type": "uint256"
        },
        {
          "internalType": "address payable[]",
          "name": "_splitAddresses",
          "type": "address[]"
        },
        {
          "internalType": "uint8[]",
          "name": "_splitRatios",
          "type": "uint8[]"
        }
      ],
      "name": "configureAuction",
      "outputs": [],
      "stateMutability": "nonpayable",
      "type": "function"
    },
    {
      "inputs": [
        {
          "internalType": "address",
          "name": "_originContract",
          "type": "address"
        },
        {
          "internalType": "uint256",
          "name": "_tokenId",
          "type": "uint256"
        },
        {
          "internalType": "address",
          "name": "_currencyAddress",
          "type": "address"
        },
        {
          "internalType": "uint256",
          "name": "_amount",
          "type": "uint256"
        },
        {
          "internalType": "uint256",
          "name": "_lengthOfAuction",
          "type": "uint256"
        },
        {
          "internalType": "address payable[]",
          "name": "_splitAddresses",
          "type": "address[]"
        },
        {
          "internalType": "uint8[]",
          "name": "_splitRatios",
          "type": "uint8[]"
        }
      ],
      "name": "convertOfferToAuction",
      "outputs": [],
      "stateMutability": "nonpayable",
      "type": "function"
    },
    {
      "inputs": [
        {
          "internalType": "address",
          "name": "_originContract",
          "type": "address"
        },
        {
          "internalType": "uint256",
          "name": "_tokenId",
          "type": "uint256"
        }
      ],
      "name": "getAuctionDetails",
      "outputs": [
        {
          "internalType": "address",
          "name": "",
          "type": "address"
        },
        {
          "internalType": "uint256",
          "name": "",
          "type": "uint256"
        },
        {
          "internalType": "uint256",
          "name": "",
          "type": "uint256"
        },
        {
          "internalType": "uint256",
          "name": "",
          "type": "uint256"
        },
        {
          "internalType": "address",
          "name": "",
          "type": "address"
        },
        {
          "internalType": "uint256",
          "name": "",
          "type": "uint256"
        },
        {
          "internalType": "bytes32",
          "name": "",
          "type": "bytes32"
        },
        {
          "internalType": "address payable[]",
          "name": "",
          "type": "address[]"
        },
        {
          "internalType": "uint8[]",
          "name": "",
          "type": "uint8[]"
        }
      ],
      "stateMutability": "view",
      "type": "function"
    },
    {
      "inputs": [],
      "name": "marketplaceSettings",
      "outputs": [
        {
          "internalType": "contract IMarketplaceSettings",
          "name": "",
          "type": "address"
        }
      ],
      "stateMutability": "view",
      "type": "function"
    },
    {
      "inputs": [],
      "name": "maxAuctionLength",
      "outputs": [
        {
          "internalType": "uint256",
          "name": "",
          "type": "uint256"
        }
      ],
      "stateMutability": "view",
      "type": "function"
    },
    {
      "inputs": [],
      "name": "minimumBidIncreasePercentage",
      "outputs": [
        {
          "internalType": "uint8",
          "name": "",
          "type": "uint8"
        }
      ],
      "stateMutability": "view",
      "type": "function"
    },
    {
      "inputs": [],
      "name": "networkBeneficiary",
      "outputs": [
        {
          "internalType": "address",
          "name": "",
          "type": "address"
        }
      ],
      "stateMutability": "view",
      "type": "function"
    },
    {
      "inputs": [],
      "name": "offerCancelationDelay",
      "outputs": [
        {
          "internalType": "uint256",
          "name": "",
          "type": "uint256"
        }
      ],
      "stateMutability": "view",
      "type": "function"
    },
    {
      "inputs": [],
      "name": "owner",
      "outputs": [
        {
          "internalType": "address",
          "name": "",
          "type": "address"
        }
      ],
      "stateMutability": "view",
      "type": "function"
    },
    {
      "inputs": [],
      "name": "payments",
      "outputs": [
        {
          "internalType": "contract IPayments",
          "name": "",
          "type": "address"
        }
      ],
      "stateMutability": "view",
      "type": "function"
    },
    {
      "inputs": [],
      "name": "renounceOwnership",
      "outputs": [],
      "stateMutability": "nonpayable",
      "type": "function"
    },
    {
      "inputs": [],
      "name": "royaltyEngine",
      "outputs": [
        {
          "internalType": "contract IRoyaltyEngineV1",
          "name": "",
          "type": "address"
        }
      ],
      "stateMutability": "view",
      "type": "function"
    },
    {
      "inputs": [],
      "name": "royaltyRegistry",
      "outputs": [
        {
          "internalType": "contract IRoyaltyRegistry",
          "name": "",
          "type": "address"
        }
      ],
      "stateMutability": "view",
      "type": "function"
    },
    {
      "inputs": [
        {
          "internalType": "address",
          "name": "_originContract",
          "type": "address"
        },
        {
          "internalType": "uint256",
          "name": "_tokenId",
          "type": "uint256"
        }
      ],
      "name": "settleAuction",
      "outputs": [],
      "stateMutability": "nonpayable",
      "type": "function"
    },
    {
      "inputs": [],
      "name": "spaceOperatorRegistry",
      "outputs": [
        {
          "internalType": "contract ISpaceOperatorRegistry",
          "name": "",
          "type": "address"
        }
      ],
      "stateMutability": "view",
      "type": "function"
    },
    {
      "inputs": [],
      "name": "stakingRegistry",
      "outputs": [
        {
          "internalType": "address",
          "name": "",
          "type": "address"
        }
      ],
      "stateMutability": "view",
      "type": "function"
    },
    {
      "inputs": [],
      "name": "superRareAuctionHouse",
      "outputs": [
        {
          "internalType": "address",
          "name": "",
          "type": "address"
        }
      ],
      "stateMutability": "view",
      "type": "function"
    },
    {
      "inputs": [],
      "name": "superRareMarketplace",
      "outputs": [
        {
          "internalType": "address",
          "name": "",
          "type": "address"
        }
      ],
      "stateMutability": "view",
      "type": "function"
    },
    {
      "inputs": [
        {
          "internalType": "address",
          "name": "",
          "type": "address"
        },
        {
          "internalType": "uint256",
          "name": "",
          "type": "uint256"
        }
      ],
      "name": "tokenAuctions",
      "outputs": [
        {
          "internalType": "address payable",
          "name": "auctionCreator",
          "type": "address"
        },
        {
          "internalType": "uint256",
          "name": "creationBlock",
          "type": "uint256"
        },
        {
          "internalType": "uint256",
          "name": "startingTime",
          "type": "uint256"
        },
        {
          "internalType": "uint256",
          "name": "lengthOfAuction",
          "type": "uint256"
        },
        {
          "internalType": "address",
          "name": "currencyAddress",
          "type": "address"
        },
        {
          "internalType": "uint256",
          "name": "minimumBid",
          "type": "uint256"
        },
        {
          "internalType": "bytes32",
          "name": "auctionType",
          "type": "bytes32"
        }
      ],
      "stateMutability": "view",
      "type": "function"
    },
    {
      "inputs": [
        {
          "internalType": "address",
          "name": "",
          "type": "address"
        },
        {
          "internalType": "uint256",
          "name": "",
          "type": "uint256"
        },
        {
          "internalType": "address",
          "name": "",
          "type": "address"
        }
      ],
      "name": "tokenCurrentOffers",
      "outputs": [
        {
          "internalType": "address payable",
          "name": "buyer",
          "type": "address"
        },
        {
          "internalType": "uint256",
          "name": "amount",
          "type": "uint256"
        },
        {
          "internalType": "uint256",
          "name": "timestamp",
          "type": "uint256"
        },
        {
          "internalType": "uint8",
          "name": "marketplaceFee",
          "type": "uint8"
        },
        {
          "internalType": "bool",
          "name": "convertible",
          "type": "bool"
        }
      ],
      "stateMutability": "view",
      "type": "function"
    },
    {
      "inputs": [
        {
          "internalType": "address",
          "name": "",
          "type": "address"
        },
        {
          "internalType": "uint256",
          "name": "",
          "type": "uint256"
        },
        {
          "internalType": "address",
          "name": "",
          "type": "address"
        }
      ],
      "name": "tokenSalePrices",
      "outputs": [
        {
          "internalType": "address payable",
          "name": "seller",
          "type": "address"
        },
        {
          "internalType": "address",
          "name": "currencyAddress",
          "type": "address"
        },
        {
          "internalType": "uint256",
          "name": "amount",
          "type": "uint256"
        }
      ],
      "stateMutability": "view",
      "type": "function"
    },
    {
      "inputs": [
        {
          "internalType": "address",
          "name": "newOwner",
          "type": "address"
        }
      ],
      "name": "transferOwnership",
      "outputs": [],
      "stateMutability": "nonpayable",
      "type": "function"
    }
  ],
  "bytecode": {
    "object": "0x608060405234801561001057600080fd5b50614e3e806100206000396000f3fe6080604052600436106101cc5760003560e01c80636b534ed0116100f7578063a6d23e1011610095578063c47c35c111610064578063c47c35c114610669578063c90b87141461071f578063daa2649914610744578063f2fde38b1461075a57600080fd5b8063a6d23e10146105ee578063b23afc261461060e578063b567858814610636578063ba50b6321461064957600080fd5b8063859b97fe116100d1578063859b97fe146105705780638da5cb5b146105905780639041a0ec146105ae578063a11b0712146105ce57600080fd5b80636b534ed0146105085780636fe9f44c14610528578063715018a61461055b57600080fd5b8063155a56b11161016f5780633bc3d9be1161013e5780633bc3d9be146104885780634c94c90c146104a85780635138b08c146104c85780636240cd1c146104e857600080fd5b8063155a56b1146102df5780631a2ac30f146102f4578063299a0e1e1461035d5780632c419053146103e857600080fd5b80630a5c4ed5116101ab5780630a5c4ed5146102505780630bcba09d146102745780630cd87c68146102945780630e519ef9146102c957600080fd5b80629d9aa9146101d15780630141c5901461020e578063060d9eeb1461022e575b600080fd5b3480156101dd57600080fd5b50609f546101f1906001600160a01b031681565b6040516001600160a01b0390911681526020015b60405180910390f35b34801561021a57600080fd5b50609a546101f1906001600160a01b031681565b34801561023a57600080fd5b5061024e6102493660046146f5565b61077a565b005b34801561025c57600080fd5b5061026660a35481565b604051908152602001610205565b34801561028057600080fd5b50609c546101f1906001600160a01b031681565b3480156102a057600080fd5b506102b46102af3660046147a9565b61101b565b60405161020599989796959493929190614819565b3480156102d557600080fd5b5061026660a15481565b3480156102eb57600080fd5b50610266600081565b34801561030057600080fd5b5061034e61030f3660046148b1565b60a46020908152600093845260408085208252928452828420905282529020805460018201546002909201546001600160a01b03918216929091169083565b604051610205939291906148f3565b34801561036957600080fd5b506103ba6103783660046147a9565b60a760209081526000928352604080842090915290825290208054600182015460028301546003909301546001600160a01b0392831693919092169160ff1684565b604080516001600160a01b0395861681529490931660208501529183015260ff166060820152608001610205565b3480156103f457600080fd5b506104516104033660046148b1565b60a560209081526000938452604080852082529284528284209052825290208054600182015460028301546003909301546001600160a01b0390921692909160ff8082169161010090041685565b604080516001600160a01b03909616865260208601949094529284019190915260ff1660608301521515608082015260a001610205565b34801561049457600080fd5b50609b546101f1906001600160a01b031681565b3480156104b457600080fd5b506099546101f1906001600160a01b031681565b3480156104d457600080fd5b5061024e6104e33660046147a9565b6111c9565b3480156104f457600080fd5b50609d546101f1906001600160a01b031681565b34801561051457600080fd5b5060a0546101f1906001600160a01b031681565b34801561053457600080fd5b5060a05461054990600160a01b900460ff1681565b60405160ff9091168152602001610205565b34801561056757600080fd5b5061024e6116eb565b34801561057c57600080fd5b5061024e61058b3660046147a9565b6116ff565b34801561059c57600080fd5b506033546001600160a01b03166101f1565b3480156105ba57600080fd5b5061024e6105c9366004614917565b611bb9565b3480156105da57600080fd5b506098546101f1906001600160a01b031681565b3480156105fa57600080fd5b50609e546101f1906001600160a01b031681565b34801561061a57600080fd5b506102667029a1a422a22aa622a22fa0aaa1aa24a7a760791b81565b61024e6106443660046149ec565b612337565b34801561065557600080fd5b506097546101f1906001600160a01b031681565b34801561067557600080fd5b506106d86106843660046147a9565b60a660209081526000928352604080842090915290825290208054600182015460028301546003840154600485015460058601546006909601546001600160a01b0395861696949593949293909116919087565b604080516001600160a01b03988916815260208101979097528601949094526060850192909252909316608083015260a082019290925260c081019190915260e001610205565b34801561072b57600080fd5b506102666d21a7a62224a2afa0aaa1aa24a7a760911b81565b34801561075057600080fd5b5061026660a25481565b34801561076657600080fd5b5061024e610775366004614a34565b612d5b565b6107848989612dd4565b61078e8989612e9c565b61079a84848484612fd4565b6001600160a01b03808a16600090815260a6602090815260408083208c845282528083208151610120810183528154861681526001820154818501526002820154818401526003820154606082015260048201549095166080860152600581015460a0860152600681015460c0860152600781018054835181860281018601909452808452949594919360e0860193929083018282801561086457602002820191906000526020600020905b81546001600160a01b03168152600190910190602001808311610846575b50505050508152602001600882018054806020026020016040519081016040528092919081815260200182805480156108da57602002820191906000526020600020906000905b825461010083900a900460ff168152602060019283018181049485019490930390920291018084116108ab5790505b5050509190925250505060c08101519091501580610902575080516001600160a01b03163314155b6109715760405162461bcd60e51b815260206004820152603560248201527f636f6e766572744f66666572546f41756374696f6e3a3a43616e6e6f742068616044820152743b3290309031bab93932b73a1030bab1ba34b7b71760591b60648201526084015b60405180910390fd5b60a1548611156109d45760405162461bcd60e51b815260206004820152602860248201527f636f6e766572744f66666572546f41756374696f6e3a3a41756374696f6e207460448201526737b7903637b7339760c11b6064820152608401610968565b6001600160a01b03808b16600090815260a5602090815260408083208d845282528083208c85168452825291829020825160a081018452815490941680855260018201549285019290925260028101549284019290925260039091015460ff80821660608501526101009091041615156080830152339003610a8d5760405162461bcd60e51b815260206004820152601260248201527131b7b73b32b93a1d1d37bbb71037b33332b960711b6044820152606401610968565b8060800151610af65760405162461bcd60e51b815260206004820152602f60248201527f636f6e766572744f66666572546f41756374696f6e3a3a4f666665722069732060448201526e6e6f7420636f6e7665727469626c6560881b6064820152608401610968565b87816020015114610b6f5760405162461bcd60e51b815260206004820152603e60248201527f636f6e766572744f66666572546f41756374696f6e3a3a436f6e76657274696e60448201527f67206f66666572207769746820646966666572656e7420616d6f756e742e00006064820152608401610968565b604051806101200160405280336001600160a01b031681526020014381526020014281526020018881526020018a6001600160a01b03168152602001826020015181526020016d21a7a62224a2afa0aaa1aa24a7a760911b81526020018787808060200260200160405190810160405280939291908181526020018383602002808284376000920191909152505050908252506040805160208781028281018201909352878252928301929091889188918291850190849080828437600081840152601f19601f8201169050808301925050505050505081525060a660008d6001600160a01b03166001600160a01b0316815260200190815260200160002060008c815260200190815260200160002060008201518160000160006101000a8154816001600160a01b0302191690836001600160a01b0316021790555060208201518160010155604082015181600201556060820151816003015560808201518160040160006101000a8154816001600160a01b0302191690836001600160a01b0316021790555060a0820151816005015560c0820151816006015560e0820151816007019080519060200190610d2792919061453a565b506101008201518051610d4491600884019160209091019061459f565b5050506001600160a01b03808c16600090815260a5602090815260408083208e845282528083208d851680855290835281842080546001600160a01b03191681556001810185905560028101949094556003909301805461ffff191690558051608081018252855185168152808301939093528281018c90526097548151638347592160e01b8152915193946060860194911692638347592192600480820193918290030181865afa158015610dfe573d6000803e3d6000fd5b505050506040513d601f19601f82011682018060405250810190610e229190614a67565b60ff1681525060a760008d6001600160a01b03166001600160a01b0316815260200190815260200160002060008c815260200190815260200160002060008201518160000160006101000a8154816001600160a01b0302191690836001600160a01b0316021790555060208201518160010160006101000a8154816001600160a01b0302191690836001600160a01b031602179055506040820151816002015560608201518160030160006101000a81548160ff021916908360ff16021790555090505060008b9050806001600160a01b03166323b872dd33308e6040518463ffffffff1660e01b8152600401610f1b939291906148f3565b600060405180830381600087803b158015610f3557600080fd5b505af1158015610f49573d6000803e3d6000fd5b5050604080516001600160a01b038e811682524260208301529181018d9052606081018c90523393508e9250908f16907fdb89081d9a5399380ffbcc376a961ed023027fca462e08b3d23146e4c6ac62f29060800160405180910390a48151604080516001600160a01b038d81168252602082018d905260019282019290925260006060820181905260808201528d928216918f16907f189a468e632a450afd491f84aa9ae94addc6813c7e309a7b1b1223f88802a77d9060a0015b60405180910390a4505050505050505050505050565b6001600160a01b03808316600090815260a6602090815260408083208584528252808320815161012081018352815486168152600182015481850152600282015481840152600382015460608281019190915260048301549096166080820152600582015460a0820152600682015460c0820152600782018054845181870281018701909552808552959687968796879687968796879686958895929460e0860193909291908301828280156110fa57602002820191906000526020600020905b81546001600160a01b031681526001909101906020018083116110dc575b505050505081526020016008820180548060200260200160405190810160405280929190818152602001828054801561117057602002820191906000526020600020906000905b825461010083900a900460ff168152602060019283018181049485019490930390920291018084116111415790505b5050505050815250509050806000015181602001518260400151836060015184608001518560a001518660c001518760e00151886101000151995099509950995099509950995099509950509295985092959850929598565b6001600160a01b03808316600090815260a66020908152604080832085845282528083208151610120810183528154861681526001820154818501526002820154818401526003820154606082015260048201549095166080860152600581015460a0860152600681015460c0860152600781018054835181860281018601909452808452949594919360e0860193929083018282801561129357602002820191906000526020600020905b81546001600160a01b03168152600190910190602001808311611275575b505050505081526020016008820180548060200260200160405190810160405280929190818152602001828054801561130957602002820191906000526020600020906000905b825461010083900a900460ff168152602060019283018181049485019490930390920291018084116112da5790505b5050509190925250505060c08101519091501580159061132c5750604081015115155b6113925760405162461bcd60e51b815260206004820152603160248201527f736574746c6541756374696f6e3a3a4d75737420686176652061206375727265604482015270373a103b30b634b21030bab1ba34b7b71760791b6064820152608401610968565b806060015181604001516113a69190614a9a565b42101561140c5760405162461bcd60e51b815260206004820152602e60248201527f736574746c6541756374696f6e3a3a43616e206f6e6c7920736574746c65206560448201526d373232b21030bab1ba34b7b7399760911b6064820152608401610968565b6001600160a01b03808416600081815260a76020908152604080832087845282528083208151608081018352815487168152600180830154909716818501526002808301548285015260039283015460ff16606083015295855260a6845282852089865290935290832080546001600160a01b03199081168255958101849055938401839055830182905560048301805490941690935560058201819055600682018190556114be6007830182614640565b6114cc60088301600061465e565b50506001600160a01b03808516600090815260a760209081526040808320878452909152812080546001600160a01b0319908116825560018201805490911690556002810191909155600301805460ff1916905581518591166115905782516040516323b872dd60e01b81526001600160a01b038316916323b872dd9161155991309189906004016148f3565b600060405180830381600087803b15801561157357600080fd5b505af1158015611587573d6000803e3d6000fd5b50505050611684565b81516040516323b872dd60e01b81526001600160a01b038316916323b872dd916115c091309189906004016148f3565b600060405180830381600087803b1580156115da57600080fd5b505af11580156115ee573d6000803e3d6000fd5b5050505061161685858560800151856040015187600001518860e001518961010001516131ae565b609754604051635a3c652d60e01b81526001600160a01b038781166004830152602482018790526001604483015290911690635a3c652d90606401600060405180830381600087803b15801561166b57600080fd5b505af115801561167f573d6000803e3d6000fd5b505050505b8382600001516001600160a01b0316866001600160a01b03167fef4e2262a841641690bb931801dc0d1923e6b417cd217f91f8049d8aa9f5f0868660000151876080015187604001516040516116dc939291906148f3565b60405180910390a45050505050565b6116f3613aa2565b6116fd6000613afc565b565b6001600160a01b03808316600090815260a66020908152604080832085845282528083208151610120810183528154861681526001820154818501526002820154818401526003820154606082015260048201549095166080860152600581015460a0860152600681015460c0860152600781018054835181860281018601909452808452949594919360e086019392908301828280156117c957602002820191906000526020600020905b81546001600160a01b031681526001909101906020018083116117ab575b505050505081526020016008820180548060200260200160405190810160405280929190818152602001828054801561183f57602002820191906000526020600020906000905b825461010083900a900460ff168152602060019283018181049485019490930390920291018084116118105790505b5050509190925250505060c081015190915083906118b75760405162461bcd60e51b815260206004820152602f60248201527f63616e63656c41756374696f6e3a3a4d757374206861766520616e206175637460448201526e34b7b71031b7b73334b3bab932b21760891b6064820152608401610968565b604082015115806118cb5750816040015142105b61192d5760405162461bcd60e51b815260206004820152602d60248201527f63616e63656c41756374696f6e3a3a41756374696f6e206d757374206e6f742060448201526c3430bb329039ba30b93a32b21760991b6064820152608401610968565b81516001600160a01b03163314806119b657506040516331a9108f60e11b81526004810184905233906001600160a01b03831690636352211e90602401602060405180830381865afa158015611987573d6000803e3d6000fd5b505050506040513d601f19601f820116820180604052508101906119ab9190614ab3565b6001600160a01b0316145b611a135760405162461bcd60e51b815260206004820152602860248201527f63616e63656c41756374696f6e3a3a4d7573742062652063726561746f72206f604482015267391037bbb732b91760c11b6064820152608401610968565b6001600160a01b038416600090815260a660209081526040808320868452909152812080546001600160a01b031990811682556001820183905560028201839055600382018390556004820180549091169055600581018290556006810182905590611a826007830182614640565b611a9060088301600061465e565b50506040516331a9108f60e11b81526004810184905230906001600160a01b03831690636352211e90602401602060405180830381865afa158015611ad9573d6000803e3d6000fd5b505050506040513d601f19601f82011682018060405250810190611afd9190614ab3565b6001600160a01b031603611b6e576040516323b872dd60e01b81526001600160a01b038216906323b872dd90611b3b903090339088906004016148f3565b600060405180830381600087803b158015611b5557600080fd5b505af1158015611b69573d6000803e3d6000fd5b505050505b81600001516001600160a01b031683856001600160a01b03167f26d4510b556e779d6507640413e013206e44c8f5d018c7c74ed8926f3f024a9c60405160405180910390a450505050565b611bc287613b4e565b611bcc8a8a612dd4565b611bd68a8a612e9c565b611be284848484612fd4565b611beb8b613c11565b60a154861115611c495760405162461bcd60e51b815260206004820152602360248201527f636f6e66696775726541756374696f6e3a3a41756374696f6e20746f6f206c6f60448201526237339760e91b6064820152608401610968565b6001600160a01b03808b16600090815260a6602090815260408083208d845282528083208151610120810183528154861681526001820154818501526002820154818401526003820154606082015260048201549095166080860152600581015460a0860152600681015460c0860152600781018054835181860281018601909452808452949594919360e08601939290830182828015611d1357602002820191906000526020600020905b81546001600160a01b03168152600190910190602001808311611cf5575b5050505050815260200160088201805480602002602001604051908101604052809291908181526020018280548015611d8957602002820191906000526020600020906000905b825461010083900a900460ff16815260206001928301818104948501949093039092029101808411611d5a5790505b5050509190925250505060c08101519091501580611db1575080516001600160a01b03163314155b611e165760405162461bcd60e51b815260206004820152603060248201527f636f6e66696775726541756374696f6e3a3a43616e6e6f74206861766520612060448201526f31bab93932b73a1030bab1ba34b7b71760811b6064820152608401610968565b60008711611e725760405162461bcd60e51b8152602060048201526024808201527f636f6e66696775726541756374696f6e3a3a4c656e677468206d7573742062656044820152630203e20360e41b6064820152608401610968565b6d21a7a62224a2afa0aaa1aa24a7a760911b8c03611efb5760008911611ef65760405162461bcd60e51b815260206004820152603360248201527f636f6e66696775726541756374696f6e3a3a436f6c646965207374617274696e604482015272067207072696365206d757374206265203e203606c1b6064820152608401610968565b611f8b565b7029a1a422a22aa622a22fa0aaa1aa24a7a760791b8c03611f8b57428611611f8b5760405162461bcd60e51b815260206004820152603960248201527f636f6e66696775726541756374696f6e3a3a5363686564756c6564206175637460448201527f696f6e2063616e6e6f7420737461727420696e20706173742e000000000000006064820152608401610968565b609760009054906101000a90046001600160a01b03166001600160a01b031663f9a23e866040518163ffffffff1660e01b8152600401602060405180830381865afa158015611fde573d6000803e3d6000fd5b505050506040513d601f19601f820116820180604052508101906120029190614ad0565b8911156120825760405162461bcd60e51b815260206004820152604260248201527f636f6e66696775726541756374696f6e3a3a43616e6e6f74207365742073746160448201527f7274696e6720707269636520686967686572207468616e206d61782076616c75606482015261329760f11b608482015260a401610968565b60408051610120810182523381524360208201529081016d21a7a62224a2afa0aaa1aa24a7a760911b8e146120b757876120ba565b60005b8152602001888152602001896001600160a01b031681526020018a81526020018d81526020018686808060200260200160405190810160405280939291908181526020018383602002808284376000920191909152505050908252506040805160208681028281018201909352868252928301929091879187918291850190849080828437600081840152601f19601f8201169050808301925050505050505081525060a660008d6001600160a01b03166001600160a01b0316815260200190815260200160002060008c815260200190815260200160002060008201518160000160006101000a8154816001600160a01b0302191690836001600160a01b0316021790555060208201518160010155604082015181600201556060820151816003015560808201518160040160006101000a8154816001600160a01b0302191690836001600160a01b0316021790555060a0820151816005015560c0820151816006015560e082015181600701908051906020019061223b92919061453a565b50610100820151805161225891600884019160209091019061459f565b509050507029a1a422a22aa622a22fa0aaa1aa24a7a760791b8c036122e05760008b9050806001600160a01b03166323b872dd33308e6040518463ffffffff1660e01b81526004016122ac939291906148f3565b600060405180830381600087803b1580156122c657600080fd5b505af11580156122da573d6000803e3d6000fd5b50505050505b604080516001600160a01b038a81168252602082018990529181018b90526060810189905233918c91908e16907fdb89081d9a5399380ffbcc376a961ed023027fca462e08b3d23146e4c6ac62f290608001611005565b61233f613c8a565b6097546040516361fe24a960e11b8152600481018390526000916001600160a01b03169063c3fc495290602401602060405180830381865afa158015612389573d6000803e3d6000fd5b505050506040513d601f19601f820116820180604052508101906123ad9190614ad0565b6123b79083614a9a565b90506123c38382613ce3565b6001600160a01b03808616600090815260a66020908152604080832088845282528083208151610120810183528154861681526001820154818501526002820154818401526003820154606082015260048201549095166080860152600581015460a0860152600681015460c0860152600781018054835181860281018601909452808452949594919360e0860193929083018282801561248d57602002820191906000526020600020905b81546001600160a01b0316815260019091019060200180831161246f575b505050505081526020016008820180548060200260200160405190810160405280929190818152602001828054801561250357602002820191906000526020600020906000905b825461010083900a900460ff168152602060019283018181049485019490930390920291018084116124d45790505b5050509190925250505060c081015190915061256b5760405162461bcd60e51b815260206004820152602160248201527f6269643a3a4d757374206861766520612063757272656e742061756374696f6e6044820152601760f91b6064820152608401610968565b8051336001600160a01b03909116036125d25760405162461bcd60e51b8152602060048201526024808201527f6269643a3a43616e6e6f7420626964206f6e20796f7572206f776e206175637460448201526334b7b71760e11b6064820152608401610968565b80604001514210156126265760405162461bcd60e51b815260206004820152601860248201527f6269643a3a41756374696f6e206e6f74206163746976652e00000000000000006044820152606401610968565b80608001516001600160a01b0316846001600160a01b0316146126a45760405162461bcd60e51b815260206004820152603060248201527f6269643a3a43757272656e6379206d75737420626520696e20636f6e6669677560448201526f3932b2103232b737b6b4b730ba34b7b760811b6064820152608401610968565b600083116126e75760405162461bcd60e51b815260206004820152601060248201526f06269643a3a43616e6e6f7420626520360841b6044820152606401610968565b609760009054906101000a90046001600160a01b03166001600160a01b031663f9a23e866040518163ffffffff1660e01b8152600401602060405180830381865afa15801561273a573d6000803e3d6000fd5b505050506040513d601f19601f8201168201806040525081019061275e9190614ad0565b8311156127b75760405162461bcd60e51b815260206004820152602160248201527f6269643a3a4d757374206265206c657373207468616e206d61782076616c75656044820152601760f91b6064820152608401610968565b8060a0015183101561281a5760405162461bcd60e51b815260206004820152602660248201527f6269643a3a43616e6e6f74206265206c6f776572207468616e206d696e696d7560448201526536903134b21760d11b6064820152608401610968565b6040810151158061283d57508060600151816040015161283a9190614a9a565b42105b6128805760405162461bcd60e51b81526020600482015260146024820152733134b21d1d26bab9ba1031329030b1ba34bb329760611b6044820152606401610968565b6001600160a01b03808716600090815260a760209081526040808320898452825291829020825160808101845281548516815260018201549094169184019190915260028101549183018290526003015460ff908116606084015260a0546064926128f692600160a01b90920490911690614ae9565b6129009190614b00565b816040015161290f9190614a9a565b8410156129785760405162461bcd60e51b815260206004820152603160248201527f6269643a3a4d75737420626520686967686572207468616e20707265762062696044820152703210159036b4b71034b731b932b0b9b29760791b6064820152608401610968565b6040516331a9108f60e11b81526004810187905287906000906001600160a01b03831690636352211e90602401602060405180830381865afa1580156129c2573d6000803e3d6000fd5b505050506040513d601f19601f820116820180604052508101906129e69190614ab3565b9050806001600160a01b031684600001516001600160a01b03161480612a1457506001600160a01b03811630145b612a6c5760405162461bcd60e51b815260206004820152602360248201527f6269643a3a41756374696f6e2063726561746f72206d757374206265206f776e60448201526232b91760e91b6064820152608401610968565b83516001600160a01b03808316911603612a8a57612a8a8989612e9c565b612a948786613dce565b612aaf878460400151856060015160ff168660000151613fcd565b6040518060800160405280336001600160a01b03168152602001886001600160a01b03168152602001878152602001609760009054906101000a90046001600160a01b03166001600160a01b031663834759216040518163ffffffff1660e01b8152600401602060405180830381865afa158015612b31573d6000803e3d6000fd5b505050506040513d601f19601f82011682018060405250810190612b559190614a67565b60ff9081169091526001600160a01b03808c16600090815260a7602090815260408083208e84528252808320865181549086166001600160a01b03199182161782559287015160018201805491909616931692909217909355848301516002820155606090940151600390940180549490931660ff199094169390931790915585015181908103612c70576001600160a01b03808c16600090815260a6602090815260408083208e84529091529081902042600290910155875190516323b872dd60e01b8152918616916323b872dd91612c359130908f906004016148f3565b600060405180830381600087803b158015612c4f57600080fd5b505af1158015612c63573d6000803e3d6000fd5b5050505060019150612ce0565b60a2544287606001518860400151612c889190614a9a565b612c929190614b22565b1015612ce057604086015160a254612caa9042614a9a565b612cb49190614b22565b6001600160a01b038c16600090815260a6602090815260408083208e8452909152902060030181905590505b8451604080516001600160a01b038c81168252602082018c90528515158284015260608201859052928316608082015290518c923392908f16917f189a468e632a450afd491f84aa9ae94addc6813c7e309a7b1b1223f88802a77d9181900360a00190a450505050505050612d556001606555565b50505050565b612d63613aa2565b6001600160a01b038116612dc85760405162461bcd60e51b815260206004820152602660248201527f4f776e61626c653a206e6577206f776e657220697320746865207a65726f206160448201526564647265737360d01b6064820152608401610968565b612dd181613afc565b50565b6040516331a9108f60e11b815260048101829052829033906001600160a01b03831690636352211e90602401602060405180830381865afa158015612e1d573d6000803e3d6000fd5b505050506040513d601f19601f82011682018060405250810190612e419190614ab3565b6001600160a01b031614612e975760405162461bcd60e51b815260206004820152601e60248201527f73656e646572206d7573742062652074686520746f6b656e206f776e657200006044820152606401610968565b505050565b6040516331a9108f60e11b81526004810182905282906000906001600160a01b03831690636352211e90602401602060405180830381865afa158015612ee6573d6000803e3d6000fd5b505050506040513d601f19601f82011682018060405250810190612f0a9190614ab3565b60405163e985e9c560e01b81526001600160a01b0380831660048301523060248301529192509083169063e985e9c590604401602060405180830381865afa158015612f5a573d6000803e3d6000fd5b505050506040513d601f19601f82011682018060405250810190612f7e9190614b35565b612d555760405162461bcd60e51b815260206004820152602160248201527f6f776e6572206d757374206861766520617070726f76656420636f6e747261636044820152601d60fa1b6064820152608401610968565b826130315760405162461bcd60e51b815260206004820152602760248201527f636865636b53706c6974733a3a4d7573742068617665206174206c65617374206044820152660c481cdc1b1a5d60ca1b6064820152608401610968565b600583111561308e5760405162461bcd60e51b8152602060048201526024808201527f636865636b53706c6974733a3a53706c6974206578636565646564206d61782060448201526373697a6560e01b6064820152608401610968565b8281146130f25760405162461bcd60e51b815260206004820152602c60248201527f636865636b53706c6974733a3a53706c69747320616e6420726174696f73206d60448201526b1d5cdd08189948195c5d585b60a21b6064820152608401610968565b6000805b828110156131465783838281811061311057613110614b57565b90506020020160208101906131259190614b6d565b6131329060ff1683614a9a565b91508061313e81614b8a565b9150506130f6565b50806064146131a75760405162461bcd60e51b815260206004820152602760248201527f636865636b53706c6974733a3a546f74616c206d75737420626520657175616c604482015266020746f203130360cc1b6064820152608401610968565b5050505050565b805182511461321b5760405162461bcd60e51b815260206004820152603360248201527f4e756d626572206f662073706c69742061646472657373657320616e642072616044820152723a34b7b99036bab9ba1031329032b8bab0b61760691b6064820152608401610968565b6097546040516361fe24a960e11b81526004810186905285916000916001600160a01b039091169063c3fc495290602401602060405180830381865afa158015613269573d6000803e3d6000fd5b505050506040513d601f19601f8201168201806040525081019061328d9190614ad0565b6040805160028082526060820183529293506000929091602083019080368337505060a05482519293506001600160a01b0316918391506000906132d3576132d3614b57565b6001600160a01b039283166020918202929092010152609f5460405163e286ef3360e01b8152888316600482015291169063e286ef3390602401602060405180830381865afa15801561332a573d6000803e3d6000fd5b505050506040513d601f19601f8201168201806040525081019061334e9190614ab3565b8160018151811061336157613361614b57565b60200260200101906001600160a01b031690816001600160a01b03168152505060006001600160a01b03168160018151811061339f5761339f614b57565b60200260200101516001600160a01b0316146133d557806001815181106133c8576133c8614b57565b60200260200101516133e2565b60a0546001600160a01b03165b816001815181106133f5576133f5614b57565b6001600160a01b03929092166020928302919091018201526040805160028082526060820183526000939192909183019080368337019050506097546040516303fdde1160e21b8152600481018b90529192506001600160a01b031690630ff7784490602401602060405180830381865afa158015613478573d6000803e3d6000fd5b505050506040513d601f19601f8201168201806040525081019061349c9190614ad0565b816000815181106134af576134af614b57565b602090810291909101015260975460405163470d6ed960e11b8152600481018a90526001600160a01b0390911690638e1addb290602401602060405180830381865afa158015613503573d6000803e3d6000fd5b505050506040513d601f19601f820116820180604052508101906135279190614ad0565b8160018151811061353a5761353a614b57565b602002602001018181525050613552898484846140f1565b609754604051631446f21360e21b81526001600160a01b038d81166004830152602482018d90529091169063511bc84c90604401602060405180830381865afa1580156135a3573d6000803e3d6000fd5b505050506040513d601f19601f820116820180604052508101906135c79190614b35565b6138a0576040805160018082528183019092526000916020808301908036833750506040805160018082528183019092529293506000929150602080830190803683370190505090508360008151811061362357613623614b57565b60200260200101518160008151811061363e5761363e614b57565b6001600160a01b039283166020918202929092010152609c54604051635dc22eff60e01b81528b83166004820152911690635dc22eff90602401602060405180830381865afa158015613695573d6000803e3d6000fd5b505050506040513d601f19601f820116820180604052508101906136b99190614b35565b156137b557609c54604051632260494f60e01b81526001600160a01b038b811660048301526000921690632260494f90602401602060405180830381865afa158015613709573d6000803e3d6000fd5b505050506040513d601f19601f8201168201806040525081019061372d9190614a67565b60ff169050606461373e828d614ae9565b6137489190614b00565b6137529088614b22565b96506064613760828d614ae9565b61376a9190614b00565b8360008151811061377d5761377d614b57565b6020026020010181815250506137af8c846000815181106137a0576137a0614b57565b602002602001015184866140f1565b50613899565b60975460405163b28a7bad60e01b81526001600160a01b038f81166004830152600092169063b28a7bad90602401602060405180830381865afa158015613800573d6000803e3d6000fd5b505050506040513d601f19601f820116820180604052508101906138249190614a67565b60ff1690506064613835828d614ae9565b61383f9190614b00565b6138499088614b22565b96506064613857828d614ae9565b6138619190614b00565b8360008151811061387457613874614b57565b6020026020010181815250506138978c846000815181106137a0576137a0614b57565b505b505061398d565b609954604051637a99dc0160e11b81526001600160a01b038d81166004830152602482018d9052604482018b9052600092839291169063f533b802906064016000604051808303816000875af11580156138fe573d6000803e3d6000fd5b505050506040513d6000823e601f3d908101601f191682016040526139269190810190614c79565b915091506000805b82518110156139705782818151811061394957613949614b57565b60200260200101518261395c9190614a9a565b91508061396881614b8a565b91505061392e565b5061397b8188614b22565b96506139898c8285856140f1565b5050505b6000865167ffffffffffffffff8111156139a9576139a9614ba3565b6040519080825280602002602001820160405280156139d2578160200160208202803683370190505b5090506000805b8851811015613a865760648882815181106139f6576139f6614b57565b602002602001015160ff1688613a0c9190614ae9565b613a169190614b00565b838281518110613a2857613a28614b57565b6020026020010181815250506064888281518110613a4857613a48614b57565b602002602001015160ff1688613a5e9190614ae9565b613a689190614b00565b613a729083614a9a565b915080613a7e81614b8a565b9150506139d9565b50613a938b828a856140f1565b50505050505050505050505050565b6033546001600160a01b031633146116fd5760405162461bcd60e51b815260206004820181905260248201527f4f776e61626c653a2063616c6c6572206973206e6f7420746865206f776e65726044820152606401610968565b603380546001600160a01b038381166001600160a01b0319831681179093556040519116919082907f8be0079c531659141344cd1fd0a4f28419497f9722a3daafe3b4186f6b6457e090600090a35050565b6001600160a01b0381161580613bcd5750609d54604051632d5ad3d560e01b81526001600160a01b03838116600483015290911690632d5ad3d590602401602060405180830381865afa158015613ba9573d6000803e3d6000fd5b505050506040513d601f19601f82011682018060405250810190613bcd9190614b35565b612dd15760405162461bcd60e51b81526020600482015260156024820152744e6f7420617070726f7665642063757272656e637960581b6044820152606401610968565b6d21a7a62224a2afa0aaa1aa24a7a760911b8114158015613c4657507029a1a422a22aa622a22fa0aaa1aa24a7a760791b8114155b15612dd15760405162461bcd60e51b8152602060048201526014602482015273496e76616c69642041756374696f6e205479706560601b6044820152606401610968565b600260655403613cdc5760405162461bcd60e51b815260206004820152601f60248201527f5265656e7472616e637947756172643a207265656e7472616e742063616c6c006044820152606401610968565b6002606555565b6001600160a01b038216613cf5575050565b604051636eb1769f60e11b8152336004820152306024820152829082906001600160a01b0383169063dd62ed3e90604401602060405180830381865afa158015613d43573d6000803e3d6000fd5b505050506040513d601f19601f82011682018060405250810190613d679190614ad0565b1015612e975760405162461bcd60e51b815260206004820152603060248201527f73656e646572206e6565647320746f20617070726f7665206d61726b6574706c60448201526f61636520666f722063757272656e637960801b6064820152608401610968565b6001600160a01b038216613e2557803414613e215760405162461bcd60e51b81526020600482015260136024820152721b9bdd08195b9bdd59da08195d1a081cd95b9d606a1b6044820152606401610968565b5050565b3415613e845760405162461bcd60e51b815260206004820152602860248201527f6d73672e76616c75652073686f756c642062652030207768656e206e6f7420756044820152670e6d2dcce40cae8d60c31b6064820152608401610968565b6040516370a0823160e01b815230600482015282906000906001600160a01b038316906370a0823190602401602060405180830381865afa158015613ecd573d6000803e3d6000fd5b505050506040513d601f19601f82011682018060405250810190613ef19190614ad0565b9050613f086001600160a01b03831633308661424d565b6040516370a0823160e01b81523060048201526000906001600160a01b038416906370a0823190602401602060405180830381865afa158015613f4f573d6000803e3d6000fd5b505050506040513d601f19601f82011682018060405250810190613f739190614ad0565b905083613f808383614b22565b146131a75760405162461bcd60e51b815260206004820152601c60248201527f6e6f7420656e6f75676820746f6b656e73207472616e736665726564000000006044820152606401610968565b8215612d555760006064613fe18486614ae9565b613feb9190614b00565b613ff59085614a9a565b90506001600160a01b0385166140d457609e546040516001600160a01b038481166024830152604482018490526000928392911690849060640160408051601f198184030181529181526020820180516001600160e01b031663410085df60e01b179052516140649190614d62565b60006040518083038185875af1925050503d80600081146140a1576040519150601f19603f3d011682016040523d82523d6000602084013e6140a6565b606091505b50915091508181906140cb5760405162461bcd60e51b81526004016109689190614d7e565b50505050612d55565b846140e96001600160a01b03821684846142a5565b505050505050565b6001600160a01b0384166141de57609e5460405160009182916001600160a01b0390911690869063c176e63960e01b906141319088908890602401614db1565b60408051601f198184030181529181526020820180516001600160e01b03166001600160e01b031990941693909317909252905161416f9190614d62565b60006040518083038185875af1925050503d80600081146141ac576040519150601f19603f3d011682016040523d82523d6000602084013e6141b1565b606091505b50915091508181906141d65760405162461bcd60e51b81526004016109689190614d7e565b505050612d55565b8360005b83518110156140e95761423b84828151811061420057614200614b57565b602002602001015184838151811061421a5761421a614b57565b6020026020010151846001600160a01b03166142a59092919063ffffffff16565b8061424581614b8a565b9150506141e2565b612d55846323b872dd60e01b85858560405160240161426e939291906148f3565b60408051601f198184030181529190526020810180516001600160e01b03166001600160e01b0319909316929092179091526142d5565b6040516001600160a01b038316602482015260448101829052612e9790849063a9059cbb60e01b9060640161426e565b600061432a826040518060400160405280602081526020017f5361666545524332303a206c6f772d6c6576656c2063616c6c206661696c6564815250856001600160a01b03166143aa9092919063ffffffff16565b905080516000148061434b57508080602001905181019061434b9190614b35565b612e975760405162461bcd60e51b815260206004820152602a60248201527f5361666545524332303a204552433230206f7065726174696f6e20646964206e6044820152691bdd081cdd58d8d9595960b21b6064820152608401610968565b60606143b984846000856143c1565b949350505050565b6060824710156144225760405162461bcd60e51b815260206004820152602660248201527f416464726573733a20696e73756666696369656e742062616c616e636520666f6044820152651c8818d85b1b60d21b6064820152608401610968565b600080866001600160a01b0316858760405161443e9190614d62565b60006040518083038185875af1925050503d806000811461447b576040519150601f19603f3d011682016040523d82523d6000602084013e614480565b606091505b50915091506144918783838761449c565b979650505050505050565b6060831561450b578251600003614504576001600160a01b0385163b6145045760405162461bcd60e51b815260206004820152601d60248201527f416464726573733a2063616c6c20746f206e6f6e2d636f6e74726163740000006044820152606401610968565b50816143b9565b6143b983838151156145205781518083602001fd5b8060405162461bcd60e51b81526004016109689190614d7e565b82805482825590600052602060002090810192821561458f579160200282015b8281111561458f57825182546001600160a01b0319166001600160a01b0390911617825560209092019160019091019061455a565b5061459b92915061467f565b5090565b82805482825590600052602060002090601f0160209004810192821561458f5791602002820160005b8382111561460657835183826101000a81548160ff021916908360ff16021790555092602001926001016020816000010492830192600103026145c8565b80156146335782816101000a81549060ff0219169055600101602081600001049283019260010302614606565b505061459b92915061467f565b5080546000825590600052602060002090810190612dd1919061467f565b50805460008255601f016020900490600052602060002090810190612dd191905b5b8082111561459b5760008155600101614680565b6001600160a01b0381168114612dd157600080fd5b60008083601f8401126146bb57600080fd5b50813567ffffffffffffffff8111156146d357600080fd5b6020830191508360208260051b85010111156146ee57600080fd5b9250929050565b600080600080600080600080600060e08a8c03121561471357600080fd5b893561471e81614694565b985060208a0135975060408a013561473581614694565b965060608a0135955060808a0135945060a08a013567ffffffffffffffff8082111561476057600080fd5b61476c8d838e016146a9565b909650945060c08c013591508082111561478557600080fd5b506147928c828d016146a9565b915080935050809150509295985092959850929598565b600080604083850312156147bc57600080fd5b82356147c781614694565b946020939093013593505050565b600081518084526020808501945080840160005b8381101561480e5781516001600160a01b0316875295820195908201906001016147e9565b509495945050505050565b600061012060018060a01b03808d16845260208c818601528b60408601528a6060860152818a1660808601528860a08601528760c08601528260e0860152614863838601886147d5565b85810361010087015286518082528288019450908201925060005b8181101561489d57845160ff168452938201939282019260010161487e565b50919e9d5050505050505050505050505050565b6000806000606084860312156148c657600080fd5b83356148d181614694565b92506020840135915060408401356148e881614694565b809150509250925092565b6001600160a01b039384168152919092166020820152604081019190915260600190565b60008060008060008060008060008060006101208c8e03121561493957600080fd5b8b359a5061494a60208d0135614694565b60208c0135995060408c0135985060608c0135975061496c60808d0135614694565b60808c0135965060a08c0135955060c08c0135945067ffffffffffffffff8060e08e0135111561499b57600080fd5b6149ab8e60e08f01358f016146a9565b90955093506101008d01358110156149c257600080fd5b506149d48d6101008e01358e016146a9565b81935080925050509295989b509295989b9093969950565b60008060008060808587031215614a0257600080fd5b8435614a0d81614694565b9350602085013592506040850135614a2481614694565b9396929550929360600135925050565b600060208284031215614a4657600080fd5b8135614a5181614694565b9392505050565b60ff81168114612dd157600080fd5b600060208284031215614a7957600080fd5b8151614a5181614a58565b634e487b7160e01b600052601160045260246000fd5b80820180821115614aad57614aad614a84565b92915050565b600060208284031215614ac557600080fd5b8151614a5181614694565b600060208284031215614ae257600080fd5b5051919050565b8082028115828204841417614aad57614aad614a84565b600082614b1d57634e487b7160e01b600052601260045260246000fd5b500490565b81810381811115614aad57614aad614a84565b600060208284031215614b4757600080fd5b81518015158114614a5157600080fd5b634e487b7160e01b600052603260045260246000fd5b600060208284031215614b7f57600080fd5b8135614a5181614a58565b600060018201614b9c57614b9c614a84565b5060010190565b634e487b7160e01b600052604160045260246000fd5b604051601f8201601f1916810167ffffffffffffffff81118282101715614be257614be2614ba3565b604052919050565b600067ffffffffffffffff821115614c0457614c04614ba3565b5060051b60200190565b600082601f830112614c1f57600080fd5b81516020614c34614c2f83614bea565b614bb9565b82815260059290921b84018101918181019086841115614c5357600080fd5b8286015b84811015614c6e5780518352918301918301614c57565b509695505050505050565b60008060408385031215614c8c57600080fd5b825167ffffffffffffffff80821115614ca457600080fd5b818501915085601f830112614cb857600080fd5b81516020614cc8614c2f83614bea565b82815260059290921b84018101918181019089841115614ce757600080fd5b948201945b83861015614d0e578551614cff81614694565b82529482019490820190614cec565b91880151919650909350505080821115614d2757600080fd5b50614d3485828601614c0e565b9150509250929050565b60005b83811015614d59578181015183820152602001614d41565b50506000910152565b60008251614d74818460208701614d3e565b9190910192915050565b6020815260008251806020840152614d9d816040850160208701614d3e565b601f01601f19169190910160400192915050565b604081526000614dc460408301856147d5565b82810360208481019190915284518083528582019282019060005b81811015614dfb57845183529383019391830191600101614ddf565b509097965050505050505056fea264697066735822122047bf4ae996f22c728126e38eb00319fd39e64ef9b84a68684a322536655f8a2764736f6c63430008120033",
    "linkReferences": {}
  },
  "methodIdentifiers": {
    "COLDIE_AUCTION()": "c90b8714",
    "NO_AUCTION()": "155a56b1",
    "SCHEDULED_AUCTION()": "b23afc26",
    "approvedTokenRegistry()": "6240cd1c",
    "auctionBids(address,uint256)": "299a0e1e",
    "auctionLengthExtension()": "daa26499",
    "bid(address,uint256,address,uint256)": "b5678588",
    "cancelAuction(address,uint256)": "859b97fe",
    "configureAuction(bytes32,address,uint256,uint256,address,uint256,uint256,address[],uint8[])": "9041a0ec",
    "convertOfferToAuction(address,uint256,address,uint256,uint256,address[],uint8[])": "060d9eeb",
    "getAuctionDetails(address,uint256)": "0cd87c68",
    "marketplaceSettings()": "ba50b632",
    "maxAuctionLength()": "0e519ef9",
    "minimumBidIncreasePercentage()": "6fe9f44c",
    "networkBeneficiary()": "6b534ed0",
    "offerCancelationDelay()": "0a5c4ed5",
    "owner()": "8da5cb5b",
    "payments()": "a6d23e10",
    "renounceOwnership()": "715018a6",
    "royaltyEngine()": "4c94c90c",
    "royaltyRegistry()": "a11b0712",
    "settleAuction(address,uint256)": "5138b08c",
    "spaceOperatorRegistry()": "0bcba09d",
    "stakingRegistry()": "009d9aa9",
    "superRareAuctionHouse()": "3bc3d9be",
    "superRareMarketplace()": "0141c590",
    "tokenAuctions(address,uint256)": "c47c35c1",
    "tokenCurrentOffers(address,uint256,address)": "2c419053",
    "tokenSalePrices(address,uint256,address)": "1a2ac30f",
    "transferOwnership(address)": "f2fde38b"
  },
  "id": 126
}